{
	"compilerInput": "{\"language\":\"Solidity\",\"sources\":{\"contracts/TAAMS.sol\":{\"content\":\"// SPDX-License-Identifier: MIT\\npragma solidity ^0.8.20;\\n\\nimport \\\"@openzeppelin/contracts/token/ERC20/ERC20.sol\\\";\\nimport \\\"@openzeppelin/contracts/token/ERC20/utils/SafeERC20.sol\\\";\\nimport \\\"@openzeppelin/contracts/utils/ReentrancyGuard.sol\\\";\\nimport \\\"@openzeppelin/contracts/access/Ownable.sol\\\";\\n\\ncontract TAAMS is ERC20, ReentrancyGuard, Ownable {\\n    using SafeERC20 for IERC20;\\n\\n    // Errors\\n    error InvalidRecipient();\\n    error NoValidBL2P();\\n    error InsufficientContractBalance();\\n    error GovernanceNotSet();\\n    error NotAuthorized();\\n    error ContractPaused();\\n    error InvalidAddress();\\n    error BurnPhaseNotActive();\\n    error AmountZero();\\n    error InsufficientBalance();\\n    error NoContractCallers();\\n    error BurnCycleEnded();\\n    error ExceedsBurnTarget();\\n    error InvalidClaimConditions();\\n    error NoReward();\\n    error TooManyUsers();\\n    error BelowMinimumStake();\\n    error StakeAlreadyActive();\\n    error NoActiveStake();\\n    error ExceedsBL2PBoostLimit();\\n    error BL2PNotMatured();\\n    error InvalidProposalPayload();\\n    error ProposalDoesNotExist();\\n    error VotingPeriodInactive();\\n    error AlreadyVoted();\\n    error ProposalExecuted();\\n    error InvalidCommit();\\n    error VotingPeriodNotEnded();\\n    error QuorumNotMet();\\n    error VoteThresholdNotMet();\\n    error UnlockPeriodNotElapsed();\\n    error InsufficientReserve();\\n    error InvalidTransferConditions();\\n    error InvalidDelegate();\\n    error DelegationActive();\\n    error ExceedsDelegateLimit();\\n    error NoDelegation();\\n    error BL2PNotExpired();\\n    error InvalidBurnAmount();\\n    error InvalidRewardRate();\\n    error InvalidMaturationPeriod();\\n    error InvalidBL2PLifespan();\\n    error InvalidInactivityBurnRate();\\n    error InvalidDelegatedPercent();\\n    error QuorumOutOfBounds();\\n    error VoteThresholdOutOfBounds();\\n    error NotContract();\\n    error RegistrationClosed();\\n    error MaxParticipantsReached();\\n    error AlreadyRegistered();\\n    error AirdropAlreadyTriggered();\\n    error ActivationThresholdNotMet();\\n    error NoParticipants();\\n    error NotWhitelisted();\\n    error AlreadyClaimed();\\n    error NoClaimableAmount();\\n    error ProposalCooldownActive(); // Added to fix SpinCooldownActive error\\n\\n    // State variables\\n    address public trustedRecipient; // Added to fix trustedRecipient errors\\n    mapping(address => uint256) public lastProposalTimestamp; // Added to fix lastProposalTimestamp errors\\n    modifier onlyEOA() {\\n        require(msg.sender == tx.origin, \\\"Contracts not allowed\\\");\\n        _;\\n    }\\n    modifier onlyGovernanceOrUser(address user) {\\n        if (msg.sender != user && msg.sender != governanceContract) revert NotAuthorized();\\n        _;\\n    }\\n    modifier whenNotPaused() {\\n        if (emergencyPaused) revert ContractPaused();\\n        _;\\n    }\\n    modifier onlyGovernanceOrOwner() {\\n        if (msg.sender != governanceContract && msg.sender != owner()) revert NotAuthorized();\\n        _;\\n    }\\n    modifier onlyGovernance() {\\n        if (msg.sender != governanceContract) revert NotAuthorized();\\n        _;\\n    }\\n\\n    enum ProposalType {\\n        BurnAmount,\\n        RewardRate,\\n        EmergencyPause,\\n        UnlockReserve,\\n        LockedReserve,\\n        Advertisement,\\n        MaturationPeriod,\\n        BL2PLifespan,\\n        InactivityBurnRate,\\n        Quorum,\\n        VoteThreshold,\\n        MaxDelegatedBL2PPercent\\n    }\\n\\n    uint256 public immutable MAX_SUPPLY = 10_000_000_000 * 1e18;\\n    uint256 public immutable LOCKED_RESERVE = 7_000_000_000 * 1e18;\\n    uint256 public immutable IGNITION_AIRDROP_POOL = 500_000_000 * 1e18;\\n    uint256 public immutable ACTIVATION_THRESHOLD = 1_000_000_000 * 1e18;\\n    uint256 public immutable BURN_TARGET = 1_000_000_000 * 1e18;\\n    uint256 private constant SECONDS_PER_YEAR = 365 days;\\n    uint256 private constant BURN_CYCLE_DURATION = SECONDS_PER_YEAR;\\n    uint256 private constant BL2P_MAX_SUPPLY = 1_000_000_000 * 1e18;\\n    uint256 private constant EARLY_ADOPTER_LIMIT = 1000;\\n    uint256 private constant EARLY_ADOPTER_BONUS_RATE = 10;\\n    uint256 private constant REFERRAL_BONUS_RATE = 5;\\n    uint256 private constant STAKING_MIN_AMOUNT = 1000 * 1e18;\\n    uint256 private constant STAKING_PERIOD = 30 days;\\n    uint256 private constant VOTING_PERIOD = 7 days;\\n    uint256 public constant PROPOSAL_COOLDOWN = 30 days;\\n    uint256 private constant UNLOCK_PERIOD = 120 days;\\n    uint256 private constant PROPOSAL_THRESHOLD = 100_000 * 1e18;\\n    uint256 private constant ADVERTISEMENT_PERIOD = 3 days;\\n    uint256 private constant MAX_TOP_DELEGATES = 10;\\n    uint256 private constant MAX_IGNITION_PARTICIPANTS = 1000;\\n\\n    bool public burnPhaseActive;\\n    bool public bl2pRevealed;\\n    bool public emergencyPaused;\\n    uint256 public lockedReserveBalance;\\n    uint256 public totalBurned;\\n    uint256 public burnDeadlineTimestamp;\\n    uint256 public currentBurnCycle;\\n    uint256 public lastBurnCycleStartTimestamp;\\n    uint256 public ANNUAL_BURN_AMOUNT = 100_000_000 * 1e18;\\n    uint256 public earlyAdopterCount;\\n    uint256 public totalStaked;\\n    uint256 public STAKING_REWARD_RATE = 5;\\n    uint256 public QUORUM = 10_000_000 * 1e18;\\n    uint256 public VOTE_THRESHOLD = 50;\\n    uint256 public lastUnlockTimestamp;\\n    uint256 public proposalCount;\\n    uint256 public lastAdvertisementTimestamp;\\n    uint256 public advertisementCount;\\n    uint256 public maturationPeriodBlocks = 10000;\\n    uint256 public bl2pLifespanBlocks = 100000;\\n    uint256 public inactivityBurnRate = 1;\\n    uint256 public maxDelegatedBL2PPercent = 20;\\n    address public governanceContract;\\n    bool public ignitionAirdropTriggered;\\n    bool public ignitionRegistrationOpen = true;\\n\\n    mapping(uint256 => mapping(address => uint256)) public burnContributions;\\n    mapping(uint256 => uint256) public cycleBurnedTotal;\\n    mapping(address => uint256) public bl2pClaimed;\\n    mapping(address => uint256) public totalContributions;\\n    mapping(address => address) public referrals;\\n    mapping(uint256 => Advertisement) public advertisements;\\n    mapping(uint256 => Proposal) public proposals;\\n    mapping(address => BL2PMetadata) public bl2pMeta;\\n    mapping(address => uint256) public lastVoteTimestamp;\\n    mapping(address => DelegationInfo) public activeDelegations;\\n    mapping(address => uint256) public delegatedBL2PReceived;\\n    mapping(address => Stake) public stakes;\\n    mapping(address => bool) public ignitionWhitelist;\\n    mapping(address => uint256) public ignitionClaimableAmount;\\n    mapping(address => bool) public ignitionClaimed;\\n    address[] public ignitionParticipants;\\n    address[] public topDelegates;\\n\\n    struct Advertisement {\\n        uint256 id;\\n        uint256 postedBlock;\\n        string message;\\n    }\\n    struct Proposal {\\n        uint256 id;\\n        uint256 startBlock;\\n        uint256 endBlock;\\n        uint256 newValue;\\n        uint256 forVotes;\\n        uint256 againstVotes;\\n        address proposer;\\n        address newAddress;\\n        string description;\\n        ProposalType proposalType;\\n        bool executed;\\n        mapping(address => bool) hasVoted;\\n        mapping(address => bytes32) voteCommits;\\n    }\\n    struct BL2PMetadata {\\n        uint256 birthAndExpiry;\\n        bool matured;\\n    }\\n    struct Stake {\\n        uint256 amount;\\n        uint256 startBlock;\\n        uint256 bl2pBoost;\\n        bool active;\\n    }\\n    struct DelegationInfo {\\n        address source;\\n        address delegate;\\n        uint256 bl2pAmount;\\n        uint256 delegationBlock;\\n    }\\n\\n    event BurnPhaseActivated(uint256 indexed timestamp);\\n    event BL2PRevealed(uint256 indexed timestamp);\\n    event TokensBurned(address indexed burner, uint256 amount, uint256 totalBurned, uint256 cycle);\\n    event BL2PBonusBurned(address indexed user, uint256 bonusAmount, uint256 cycle);\\n    event BL2PRewardClaimed(address indexed user, uint256 reward);\\n    event BatchBL2PRewardClaimed(address[] indexed users, uint256[] rewards);\\n    event ReferralBonusPaid(address indexed referrer, uint256 bonus);\\n    event Staked(address indexed user, uint256 amount, uint256 timestamp);\\n    event Unstaked(address indexed user, uint256 amount, uint256 timestamp);\\n    event StakingRewardClaimed(address indexed user, uint256 reward);\\n    event BL2PStaked(address indexed user, uint256 bl2pAmount);\\n    event ProposalSubmitted(uint256 indexed id, address indexed proposer, string description, ProposalType proposalType);\\n    event VoteCommitted(uint256 indexed id, address indexed voter, bytes32 commitHash);\\n    event VoteRevealed(uint256 indexed id, address indexed voter, bool support, uint256 weight);\\n    event ProposalWasExecuted(uint256 id);\\n    event ProposalFailed(uint256 indexed id, string reason);\\n    event QuorumUpdated(uint256 newQuorum);\\n    event VoteThresholdUpdated(uint256 newThreshold);\\n    event ReserveUnlocked(uint256 amount, uint256 remainingBalance);\\n    event LockedReserveUpdated(uint256 newValue);\\n    event AdvertisementPosted(uint256 indexed adId, string message);\\n    event BL2PMaturityUpdated(address indexed user, bool matured);\\n    event BL2PTransferred(address indexed from, address indexed to, uint256 amount);\\n    event VoteDelegated(address indexed delegator, address indexed delegate, uint256 amount);\\n    event DelegationRevoked(address indexed delegator);\\n    event InactiveBL2PBurned(address indexed user, uint256 amount);\\n    event GovernanceContractUpdated(address indexed newContract);\\n    event ParameterUpdated(ProposalType indexed proposalType, uint256 newValue, address newAddress);\\n    event IgnitionRegistrationStatusChanged(bool indexed isOpen);\\n    event IgnitionParticipantRegistered(address indexed participant, uint256 participantNumber);\\n    event IgnitionAirdropTriggered(uint256 indexed timestamp, uint256 totalParticipants);\\n    event IgnitionAirdropClaimed(address indexed participant, uint256 amount);\\n\\n    constructor(address initialOwner) ERC20(\\\"TAAMS\\\", \\\"TAAMS\\\") Ownable(initialOwner) {\\n        address initialRecipient = 0x94f7a6FD45185038DDb85eD43C6707ddAB806Ffe;\\n        address deployerRecipient = 0x4Ff3D1d554f080b0682a780c8531178ddd99F546;\\n        if (initialRecipient == address(0)) revert InvalidRecipient();\\n        if (deployerRecipient == address(0)) revert InvalidRecipient();\\n        uint256 CONTRACT_RESERVE = 8_000_000_000 * 1e18;\\n        uint256 DEPLOYER_AMOUNT = 1_000_000_000 * 1e18;\\n        uint256 RECIPIENT_AMOUNT = 1_000_000_000 * 1e18;\\n        _mint(address(this), CONTRACT_RESERVE);\\n        _mint(deployerRecipient, DEPLOYER_AMOUNT);\\n        _mint(initialRecipient, RECIPIENT_AMOUNT);\\n        lastAdvertisementTimestamp = block.timestamp;\\n        trustedRecipient = initialRecipient;\\n        lockedReserveBalance = LOCKED_RESERVE;\\n    }\\n\\n    function renounceOwnership() public virtual override onlyOwner {\\n        if (balanceOf(address(this)) < 1_000_000_000 * 1e18) revert InsufficientContractBalance();\\n        if (governanceContract == address(0)) revert GovernanceNotSet();\\n        IERC20(address(this)).safeTransfer(trustedRecipient, 1_000_000_000 * 1e18);\\n        lockedReserveBalance -= 1_000_000_000 * 1e18;\\n        _transferOwnership(address(0));\\n        emit ReserveUnlocked(1_000_000_000 * 1e18, balanceOf(address(this)));\\n    }\\n\\n    function checkActivation() public whenNotPaused {\\n        if (burnPhaseActive) return;\\n        uint256 circulating = totalSupply() - balanceOf(address(0)) - lockedReserveBalance;\\n        if (circulating >= ACTIVATION_THRESHOLD) {\\n            burnPhaseActive = true;\\n            emit BurnPhaseActivated(block.timestamp);\\n        }\\n    }\\n\\n    function transfer(address recipient, uint256 amount) public override whenNotPaused returns (bool) {\\n        if (recipient == address(0)) revert InvalidRecipient();\\n        bool success = super.transfer(recipient, amount);\\n        if (success && !burnPhaseActive) checkActivation();\\n        return success;\\n    }\\n\\n    function transferFrom(address sender, address recipient, uint256 amount) public override whenNotPaused returns (bool) {\\n        if (sender == address(0) || recipient == address(0)) revert InvalidAddress();\\n        bool success = super.transferFrom(sender, recipient, amount);\\n        if (success && !burnPhaseActive) checkActivation();\\n        return success;\\n    }\\n\\n    function participateInBurn(uint256 amount) public nonReentrant whenNotPaused onlyEOA {\\n        if (!burnPhaseActive) revert BurnPhaseNotActive();\\n        if (amount == 0) revert AmountZero();\\n        if (balanceOf(msg.sender) < amount) revert InsufficientBalance();\\n        if (block.timestamp > burnDeadlineTimestamp && totalBurned < BURN_TARGET) {\\n            ++currentBurnCycle;\\n            lastBurnCycleStartTimestamp = block.timestamp;\\n            burnDeadlineTimestamp = block.timestamp + BURN_CYCLE_DURATION;\\n        }\\n        if (block.timestamp > burnDeadlineTimestamp) revert BurnCycleEnded();\\n        uint256 cycleTarget = totalBurned + ANNUAL_BURN_AMOUNT > BURN_TARGET ? BURN_TARGET - totalBurned : ANNUAL_BURN_AMOUNT;\\n        if (totalBurned + amount > BURN_TARGET || cycleBurnedTotal[currentBurnCycle] + amount > cycleTarget) revert ExceedsBurnTarget();\\n        uint256 bl2pBonus = getRemainingValidBL2P(msg.sender) != 0 ? (amount * 5) / 100 : 0;\\n        _burn(msg.sender, amount);\\n        totalBurned += amount;\\n        cycleBurnedTotal[currentBurnCycle] += amount;\\n        burnContributions[currentBurnCycle][msg.sender] += amount;\\n        totalContributions[msg.sender] += amount;\\n        if (bl2pBonus != 0) {\\n            totalBurned += bl2pBonus;\\n            cycleBurnedTotal[currentBurnCycle] += bl2pBonus;\\n            totalContributions[msg.sender] += bl2pBonus;\\n            emit BL2PBonusBurned(msg.sender, bl2pBonus, currentBurnCycle);\\n        }\\n        emit TokensBurned(msg.sender, amount + bl2pBonus, totalBurned, currentBurnCycle);\\n        if (totalBurned >= BURN_TARGET && !bl2pRevealed) {\\n            bl2pRevealed = true;\\n            emit BL2PRevealed(block.timestamp);\\n        }\\n    }\\n\\n    function claimBL2PReward() public nonReentrant whenNotPaused {\\n        _claimBL2PReward(msg.sender);\\n    }\\n\\n    function _claimBL2PReward(address user) internal {\\n        if (!bl2pRevealed || bl2pClaimed[user] != 0 || totalContributions[user] == 0) revert InvalidClaimConditions();\\n        if (totalBurned > BURN_TARGET) revert ExceedsBurnTarget();\\n        uint256 reward = (totalContributions[user] * BL2P_MAX_SUPPLY) / BURN_TARGET;\\n        if (earlyAdopterCount < EARLY_ADOPTER_LIMIT) {\\n            reward += (reward * EARLY_ADOPTER_BONUS_RATE) / 100;\\n            ++earlyAdopterCount;\\n        }\\n        if (reward == 0) revert NoReward();\\n        address referrer = referrals[user];\\n        if (referrer != address(0)) {\\n            uint256 referralBonus = (reward * REFERRAL_BONUS_RATE) / 100;\\n            _mint(referrer, referralBonus);\\n            emit ReferralBonusPaid(referrer, referralBonus);\\n        }\\n        bl2pClaimed[user] = reward;\\n        _mint(user, reward);\\n        emit BL2PRewardClaimed(user, reward);\\n    }\\n\\n    function batchClaimBL2PReward(address[] calldata users) external nonReentrant whenNotPaused {\\n        if (users.length > 50) revert TooManyUsers();\\n        uint256 len = users.length;\\n        uint256[] memory rewards = new uint256[](len);\\n        uint256 _earlyAdopterCount = earlyAdopterCount;\\n        for (uint256 i = 0; i < len; ++i) {\\n            address user = users[i];\\n            if (user == address(0)) revert InvalidAddress();\\n            if (bl2pClaimed[user] == 0 && totalContributions[user] != 0) {\\n                uint256 reward = (totalContributions[user] * BL2P_MAX_SUPPLY) / BURN_TARGET;\\n                if (_earlyAdopterCount < EARLY_ADOPTER_LIMIT) {\\n                    reward += (reward * EARLY_ADOPTER_BONUS_RATE) / 100;\\n                    ++_earlyAdopterCount;\\n                }\\n                if (reward == 0) continue;\\n                address referrer = referrals[user];\\n                if (referrer != address(0)) {\\n                    uint256 referralBonus = (reward * REFERRAL_BONUS_RATE) / 100;\\n                    _mint(referrer, referralBonus);\\n                    emit ReferralBonusPaid(referrer, referralBonus);\\n                }\\n                bl2pClaimed[user] = reward;\\n                _mint(user, reward);\\n                rewards[i] = reward;\\n            }\\n        }\\n        earlyAdopterCount = _earlyAdopterCount;\\n        emit BatchBL2PRewardClaimed(users, rewards);\\n    }\\n\\n    function getRemainingBurnable() external view returns (uint256) {\\n        if (!burnPhaseActive || totalBurned >= BURN_TARGET) return 0;\\n        uint256 cycleTarget = totalBurned + ANNUAL_BURN_AMOUNT > BURN_TARGET ? BURN_TARGET - totalBurned : ANNUAL_BURN_AMOUNT;\\n        uint256 cycleBurned = cycleBurnedTotal[currentBurnCycle];\\n        return cycleBurned >= cycleTarget ? 0 : cycleTarget - cycleBurned;\\n    }\\n\\n    function stake(uint256 amount) external nonReentrant whenNotPaused onlyEOA {\\n        if (amount < STAKING_MIN_AMOUNT) revert BelowMinimumStake();\\n        if (balanceOf(msg.sender) < amount) revert InsufficientBalance();\\n        if (stakes[msg.sender].active) revert StakeAlreadyActive();\\n        transferFrom(msg.sender, address(this), amount);\\n        stakes[msg.sender] = Stake(amount, block.timestamp, 0, true);\\n        totalStaked += amount;\\n        emit Staked(msg.sender, amount, block.timestamp);\\n    }\\n\\n    function useBL2PForStaking(uint256 bl2pAmount) external nonReentrant whenNotPaused {\\n        Stake storage s = stakes[msg.sender];\\n        if (!s.active) revert NoActiveStake();\\n        if (bl2pAmount == 0) revert AmountZero();\\n        if (bl2pAmount > getRemainingValidBL2P(msg.sender)) revert ExceedsBurnTarget();\\n        if (bl2pAmount > s.amount / 10) revert ExceedsBL2PBoostLimit();\\n        updateBL2PMaturity(msg.sender);\\n        (uint256 birthBlock,) = getBL2PLifetime(msg.sender);\\n        if (block.timestamp < birthBlock + maturationPeriodBlocks) revert BL2PNotMatured();\\n        s.bl2pBoost += bl2pAmount;\\n        emit BL2PStaked(msg.sender, bl2pAmount);\\n    }\\n\\n    function unstake() external nonReentrant whenNotPaused onlyEOA {\\n        Stake storage userStake = stakes[msg.sender];\\n        if (!userStake.active) revert NoActiveStake();\\n        uint256 timeStaked = block.timestamp - userStake.startBlock;\\n        uint256 stakingPeriods = (timeStaked * 1e18) / STAKING_PERIOD;\\n        uint256 reward = (userStake.amount * STAKING_REWARD_RATE * stakingPeriods) / (100 * 1e18);\\n        if (userStake.bl2pBoost != 0) {\\n            reward += (reward * userStake.bl2pBoost) / (10 * 1e18);\\n        }\\n        IERC20(address(this)).safeTransfer(msg.sender, userStake.amount);\\n        totalStaked -= userStake.amount;\\n        if (reward != 0 && getRemainingValidBL2P(msg.sender) != 0) {\\n            IERC20(address(this)).safeTransfer(msg.sender, reward);\\n            emit StakingRewardClaimed(msg.sender, reward);\\n        }\\n        delete stakes[msg.sender];\\n        emit Unstaked(msg.sender, userStake.amount, block.timestamp);\\n    }\\n\\n    function submitProposal(string memory desc, uint256 newValue, address newAddress, ProposalType proposalType) external whenNotPaused {\\n        if (getRemainingValidBL2P(msg.sender) < PROPOSAL_THRESHOLD) revert InsufficientBalance();\\n        if (block.timestamp < lastProposalTimestamp[msg.sender] + PROPOSAL_COOLDOWN) revert ProposalCooldownActive();\\n        if ((proposalType == ProposalType.EmergencyPause || proposalType == ProposalType.Advertisement) ? bytes(desc).length == 0 : (newValue == 0 && newAddress == address(0))) revert InvalidProposalPayload();\\n        ++proposalCount;\\n        Proposal storage p = proposals[proposalCount];\\n        p.id = proposalCount;\\n        p.proposer = msg.sender;\\n        p.description = desc;\\n        p.newValue = newValue;\\n        p.newAddress = newAddress;\\n        p.proposalType = proposalType;\\n        p.startBlock = block.timestamp;\\n        p.endBlock = block.timestamp + VOTING_PERIOD;\\n        lastProposalTimestamp[msg.sender] = block.timestamp;\\n        emit ProposalSubmitted(p.id, msg.sender, desc, proposalType);\\n    }\\n\\n    function commitVote(uint256 id, bytes32 commitHash) external whenNotPaused {\\n        Proposal storage p = proposals[id];\\n        if (p.startBlock == 0) revert ProposalDoesNotExist();\\n        if (block.timestamp < p.startBlock || block.timestamp > p.endBlock) revert VotingPeriodInactive();\\n        if (p.hasVoted[msg.sender]) revert AlreadyVoted();\\n        if (p.executed) revert ProposalExecuted();\\n        p.voteCommits[msg.sender] = commitHash;\\n        emit VoteCommitted(id, msg.sender, commitHash);\\n    }\\n\\n    function revealVote(uint256 id, bool support, bytes32 secret) external whenNotPaused {\\n        Proposal storage p = proposals[id];\\n        if (p.startBlock == 0) revert ProposalDoesNotExist();\\n        if (block.timestamp < p.startBlock || block.timestamp > p.endBlock) revert VotingPeriodInactive();\\n        if (p.hasVoted[msg.sender]) revert AlreadyVoted();\\n        if (p.executed) revert ProposalExecuted();\\n        if (p.voteCommits[msg.sender] != keccak256(abi.encode(support, secret, msg.sender))) revert InvalidCommit();\\n        updateBL2PMaturity(msg.sender);\\n        uint256 weight = getRemainingValidBL2P(msg.sender);\\n        if (weight == 0) revert NoValidBL2P();\\n        p.hasVoted[msg.sender] = true;\\n        if (support) {\\n            p.forVotes += weight;\\n        } else {\\n            p.againstVotes += weight;\\n        }\\n        emit VoteRevealed(id, msg.sender, support, weight);\\n    }\\n\\n    function executeProposal(uint256 id) external nonReentrant whenNotPaused {\\n        Proposal storage p = proposals[id];\\n        if (p.startBlock == 0) revert ProposalDoesNotExist();\\n        if (block.timestamp <= p.endBlock) revert VotingPeriodNotEnded();\\n        if (p.executed) revert ProposalExecuted();\\n        if (p.forVotes + p.againstVotes < QUORUM) {\\n            emit ProposalFailed(id, \\\"Quorum not met\\\");\\n            revert QuorumNotMet();\\n        }\\n        uint256 totalVotes = p.forVotes + p.againstVotes;\\n        uint256 forPercentage = (p.forVotes * 10000) / totalVotes;\\n        if (forPercentage <= VOTE_THRESHOLD * 100) {\\n            emit ProposalFailed(id, \\\"Vote threshold not met\\\");\\n            revert VoteThresholdNotMet();\\n        }\\n        p.executed = true;\\n        if (p.proposalType == ProposalType.UnlockReserve) {\\n            if (block.timestamp < lastUnlockTimestamp + UNLOCK_PERIOD) revert UnlockPeriodNotElapsed();\\n            if (p.newValue > lockedReserveBalance) revert InsufficientReserve();\\n            IERC20(address(this)).safeTransfer(p.proposer, p.newValue);\\n            lockedReserveBalance -= p.newValue;\\n            lastUnlockTimestamp = block.timestamp;\\n            emit ReserveUnlocked(p.newValue, lockedReserveBalance);\\n        } else if (p.proposalType == ProposalType.LockedReserve) {\\n            lockedReserveBalance = p.newValue;\\n            emit LockedReserveUpdated(p.newValue);\\n        } else if (p.proposalType == ProposalType.Advertisement) {\\n            emit AdvertisementPosted(p.id, p.description);\\n        } else if (p.proposalType == ProposalType.Quorum) {\\n            QUORUM = p.newValue;\\n            emit QuorumUpdated(p.newValue);\\n        } else if (p.proposalType == ProposalType.VoteThreshold) {\\n            VOTE_THRESHOLD = p.newValue;\\n            emit VoteThresholdUpdated(p.newValue);\\n        }\\n        updateParameter(p.proposalType, p.newValue, p.newAddress);\\n        emit ProposalWasExecuted(id);\\n    }\\n\\n    function updateBL2PMaturity(address user) public {\\n        if (getRemainingValidBL2P(user) == 0) return;\\n        BL2PMetadata storage meta = bl2pMeta[user];\\n        if (!meta.matured && block.timestamp >= (meta.birthAndExpiry >> 128) + maturationPeriodBlocks) {\\n            meta.matured = true;\\n            emit BL2PMaturityUpdated(user, true);\\n        }\\n    }\\n\\n    function transferBL2P(address to, uint256 amount) external nonReentrant whenNotPaused {\\n        if (to == address(0) || to == msg.sender) revert InvalidTransferConditions();\\n        if (amount == 0 || amount > getRemainingValidBL2P(msg.sender)) revert AmountZero();\\n        updateBL2PMaturity(msg.sender);\\n        if (!bl2pMeta[msg.sender].matured) revert BL2PNotMatured();\\n        IERC20(address(this)).safeTransfer(to, amount);\\n        emit BL2PTransferred(msg.sender, to, amount);\\n    }\\n\\n    function delegateVote(address delegate, uint256 amount) external nonReentrant whenNotPaused {\\n        if (delegate == address(0) || delegate == msg.sender) revert InvalidDelegate();\\n        if (amount == 0 || amount > getRemainingValidBL2P(msg.sender)) revert AmountZero();\\n        if (activeDelegations[msg.sender].delegate != address(0)) revert DelegationActive();\\n        updateBL2PMaturity(msg.sender);\\n        if (!bl2pMeta[msg.sender].matured) revert BL2PNotMatured();\\n        uint256 maxAllowed = (getRemainingValidBL2P(delegate) * maxDelegatedBL2PPercent) / 100;\\n        if (delegatedBL2PReceived[delegate] + amount > maxAllowed) revert ExceedsDelegateLimit();\\n        activeDelegations[msg.sender] = DelegationInfo(msg.sender, delegate, amount, block.timestamp);\\n        delegatedBL2PReceived[delegate] += amount;\\n        _updateTopDelegates(delegate, delegatedBL2PReceived[delegate]);\\n        emit VoteDelegated(msg.sender, delegate, amount);\\n    }\\n\\n    function revokeDelegation() external nonReentrant whenNotPaused {\\n        if (activeDelegations[msg.sender].delegate == address(0)) revert NoDelegation();\\n        address delegate = activeDelegations[msg.sender].delegate;\\n        uint256 amount = activeDelegations[msg.sender].bl2pAmount;\\n        delegatedBL2PReceived[delegate] -= amount;\\n        delete activeDelegations[msg.sender];\\n        _updateTopDelegates(delegate, delegatedBL2PReceived[delegate]);\\n        emit DelegationRevoked(msg.sender);\\n    }\\n\\n    function burnInactiveBL2P(address user) external nonReentrant whenNotPaused onlyGovernanceOrUser(user) {\\n        if (getRemainingValidBL2P(user) == 0) revert NoValidBL2P();\\n        BL2PMetadata storage meta = bl2pMeta[user];\\n        uint256 expiryBlock = meta.birthAndExpiry & ((1 << 128) - 1);\\n        if (block.timestamp < expiryBlock) revert BL2PNotExpired();\\n        uint256 remainingBL2P = getRemainingValidBL2P(user);\\n        if (remainingBL2P < bl2pClaimed[user]) {\\n            uint256 toBurn = bl2pClaimed[user] - remainingBL2P;\\n            _burn(user, toBurn);\\n            emit InactiveBL2PBurned(user, toBurn);\\n            if (activeDelegations[user].delegate != address(0)) {\\n                delegatedBL2PReceived[activeDelegations[user].delegate] -= toBurn;\\n                _updateTopDelegates(activeDelegations[user].delegate, delegatedBL2PReceived[activeDelegations[user].delegate]);\\n            }\\n        }\\n        if (block.timestamp >= expiryBlock) {\\n            delete bl2pMeta[user];\\n            _burn(user, remainingBL2P);\\n            if (activeDelegations[user].delegate != address(0)) {\\n                delegatedBL2PReceived[activeDelegations[user].delegate] -= remainingBL2P;\\n                _updateTopDelegates(activeDelegations[user].delegate, delegatedBL2PReceived[activeDelegations[user].delegate]);\\n                delete activeDelegations[user];\\n            }\\n        }\\n    }\\n\\n    function getBL2PLifetime(address user) public view returns (uint256 birthBlock, uint256 expiryBlock) {\\n        BL2PMetadata memory meta = bl2pMeta[user];\\n        birthBlock = meta.birthAndExpiry >> 128;\\n        expiryBlock = meta.birthAndExpiry & ((1 << 128) - 1);\\n    }\\n\\n    function getTopDelegates() external view returns (address[] memory) {\\n        return topDelegates;\\n    }\\n\\n    function getLastProposer() public view returns (address) {\\n        return proposals[proposalCount].proposer;\\n    }\\n\\n    function _updateTopDelegates(address delegate, uint256 newAmount) internal {\\n        uint256 len = topDelegates.length;\\n        for (uint256 i = 0; i < len; ++i) {\\n            if (topDelegates[i] == delegate) {\\n                if (newAmount == 0) {\\n                    topDelegates[i] = topDelegates[len - 1];\\n                    topDelegates.pop();\\n                }\\n                return;\\n            }\\n        }\\n        if (newAmount != 0 && len < MAX_TOP_DELEGATES) {\\n            topDelegates.push(delegate);\\n        }\\n    }\\n\\n    function verifyBL2PIntegrity(address[] calldata users) external view returns (bool isValid, uint256 totalBL2P) {\\n        isValid = true;\\n        uint256 len = users.length;\\n        for (uint256 i = 0; i < len; ++i) {\\n            address user = users[i];\\n            if (user == address(0)) revert InvalidAddress();\\n            uint256 remaining = getRemainingValidBL2P(user);\\n            totalBL2P += remaining;\\n            if (bl2pClaimed[user] != 0 && remaining == 0 && block.timestamp < (bl2pMeta[user].birthAndExpiry & ((1 << 128) - 1))) {\\n                isValid = false;\\n                break;\\n            }\\n        }\\n    }\\n\\n    function getRemainingValidBL2P(address user) public view returns (uint256) {\\n        if (!bl2pRevealed || bl2pClaimed[user] == 0) return 0;\\n        BL2PMetadata memory meta = bl2pMeta[user];\\n        uint256 expiryBlock = meta.birthAndExpiry & ((1 << 128) - 1);\\n        if (block.timestamp >= expiryBlock) return 0;\\n        uint256 inactivityBlocks = block.timestamp > lastVoteTimestamp[user] ? block.timestamp - lastVoteTimestamp[user] : 0;\\n        uint256 burnPeriods = (inactivityBlocks * 1e18) / 1000;\\n        uint256 burnedAmount = (bl2pClaimed[user] * inactivityBurnRate * burnPeriods) / (100 * 1e18);\\n        return bl2pClaimed[user] > burnedAmount ? bl2pClaimed[user] - burnedAmount : 0;\\n    }\\n\\n    function updateParameter(ProposalType proposalType, uint256 newValue, address newAddress) internal onlyGovernance {\\n        if (proposalType == ProposalType.EmergencyPause) {\\n            emergencyPaused = !emergencyPaused;\\n        } else if (proposalType == ProposalType.BurnAmount) {\\n            if (newValue == 0 || newValue > BURN_TARGET) revert InvalidBurnAmount();\\n            ANNUAL_BURN_AMOUNT = newValue;\\n        } else if (proposalType == ProposalType.RewardRate) {\\n            if (newValue == 0 || newValue > 100) revert InvalidRewardRate();\\n            STAKING_REWARD_RATE = newValue;\\n        } else if (proposalType == ProposalType.MaturationPeriod) {\\n            if (newValue < 1000 || newValue > 10_000_000) revert InvalidMaturationPeriod();\\n            maturationPeriodBlocks = newValue;\\n        } else if (proposalType == ProposalType.BL2PLifespan) {\\n            if (newValue < 10_000 || newValue > 100_000_000) revert InvalidBL2PLifespan();\\n            bl2pLifespanBlocks = newValue;\\n        } else if (proposalType == ProposalType.InactivityBurnRate) {\\n            if (newValue == 0 || newValue > 10) revert InvalidInactivityBurnRate();\\n            inactivityBurnRate = newValue;\\n        } else if (proposalType == ProposalType.MaxDelegatedBL2PPercent) {\\n            if (newValue == 0 || newValue > 50) revert InvalidDelegatedPercent();\\n            maxDelegatedBL2PPercent = newValue;\\n        } else if (proposalType == ProposalType.Quorum) {\\n            if (newValue < 1_000_000 * 1e18 || newValue > MAX_SUPPLY) revert QuorumOutOfBounds();\\n            QUORUM = newValue;\\n        } else if (proposalType == ProposalType.VoteThreshold) {\\n            if (newValue < 10 || newValue > 90) revert VoteThresholdOutOfBounds();\\n            VOTE_THRESHOLD = newValue;\\n        }\\n        emit ParameterUpdated(proposalType, newValue, newAddress);\\n    }\\n\\n    function setGovernanceContract(address newContract) external onlyGovernanceOrOwner {\\n        if (newContract == address(0)) revert InvalidAddress();\\n        if (newContract.code.length == 0) revert NotContract();\\n        governanceContract = newContract;\\n        emit GovernanceContractUpdated(newContract);\\n    }\\n\\n    function registerForIgnitionAirdrop() external nonReentrant whenNotPaused onlyEOA {\\n        if (!ignitionRegistrationOpen) revert RegistrationClosed();\\n        if (ignitionParticipants.length >= MAX_IGNITION_PARTICIPANTS) revert MaxParticipantsReached();\\n        if (ignitionWhitelist[msg.sender]) revert AlreadyRegistered();\\n        if (msg.sender == address(0)) revert InvalidAddress();\\n        ignitionWhitelist[msg.sender] = true;\\n        ignitionParticipants.push(msg.sender);\\n        emit IgnitionParticipantRegistered(msg.sender, ignitionParticipants.length);\\n    }\\n\\n    function setIgnitionRegistrationStatus(bool isOpen) external onlyGovernanceOrOwner {\\n        ignitionRegistrationOpen = isOpen;\\n        emit IgnitionRegistrationStatusChanged(isOpen);\\n    }\\n\\n    function triggerIgnitionAirdrop() external onlyGovernanceOrOwner {\\n        if (ignitionAirdropTriggered) revert AirdropAlreadyTriggered();\\n        if (totalSupply() < ACTIVATION_THRESHOLD) revert ActivationThresholdNotMet();\\n        if (ignitionParticipants.length == 0) revert NoParticipants();\\n        ignitionAirdropTriggered = true;\\n        ignitionRegistrationOpen = false;\\n        uint256 len = ignitionParticipants.length;\\n        uint256 baseAmount = IGNITION_AIRDROP_POOL / len;\\n        for (uint256 i = 0; i < len; ++i) {\\n            address participant = ignitionParticipants[i];\\n            if (participant == address(0)) revert InvalidAddress();\\n            uint256 amount = baseAmount;\\n            if (i < 100) amount = (amount * 150) / 100;\\n            else if (i < 200) amount = (amount * 125) / 100;\\n            ignitionClaimableAmount[participant] = amount;\\n        }\\n        emit IgnitionAirdropTriggered(block.timestamp, len);\\n    }\\n\\n    function claimIgnitionAirdrop() external nonReentrant {\\n        if (!ignitionAirdropTriggered) revert AirdropAlreadyTriggered();\\n        if (!ignitionWhitelist[msg.sender]) revert NotWhitelisted();\\n        if (ignitionClaimed[msg.sender]) revert AlreadyClaimed();\\n        if (ignitionClaimableAmount[msg.sender] == 0) revert NoClaimableAmount();\\n        uint256 amount = ignitionClaimableAmount[msg.sender];\\n        ignitionClaimed[msg.sender] = true;\\n        _mint(msg.sender, amount);\\n        emit IgnitionAirdropClaimed(msg.sender, amount);\\n    }\\n\\n    function getIgnitionInfo() external view returns (bool triggered, bool regOpen, uint256 participants, uint256 maxParticipants, bool userRegistered, uint256 userAmount, bool userClaimed) {\\n        return (ignitionAirdropTriggered, ignitionRegistrationOpen, ignitionParticipants.length, MAX_IGNITION_PARTICIPANTS, ignitionWhitelist[msg.sender], ignitionClaimableAmount[msg.sender], ignitionClaimed[msg.sender]);\\n    }\\n\\n    function getIgnitionParticipants() external view returns (address[] memory) {\\n        return ignitionParticipants;\\n    }\\n}\"},\"@openzeppelin/contracts/access/Ownable.sol\":{\"content\":\"// SPDX-License-Identifier: MIT\\n// OpenZeppelin Contracts (last updated v5.0.0) (access/Ownable.sol)\\n\\npragma solidity ^0.8.20;\\n\\nimport {Context} from \\\"../utils/Context.sol\\\";\\n\\n/**\\n * @dev Contract module which provides a basic access control mechanism, where\\n * there is an account (an owner) that can be granted exclusive access to\\n * specific functions.\\n *\\n * The initial owner is set to the address provided by the deployer. This can\\n * later be changed with {transferOwnership}.\\n *\\n * This module is used through inheritance. It will make available the modifier\\n * `onlyOwner`, which can be applied to your functions to restrict their use to\\n * the owner.\\n */\\nabstract contract Ownable is Context {\\n    address private _owner;\\n\\n    /**\\n     * @dev The caller account is not authorized to perform an operation.\\n     */\\n    error OwnableUnauthorizedAccount(address account);\\n\\n    /**\\n     * @dev The owner is not a valid owner account. (eg. `address(0)`)\\n     */\\n    error OwnableInvalidOwner(address owner);\\n\\n    event OwnershipTransferred(address indexed previousOwner, address indexed newOwner);\\n\\n    /**\\n     * @dev Initializes the contract setting the address provided by the deployer as the initial owner.\\n     */\\n    constructor(address initialOwner) {\\n        if (initialOwner == address(0)) {\\n            revert OwnableInvalidOwner(address(0));\\n        }\\n        _transferOwnership(initialOwner);\\n    }\\n\\n    /**\\n     * @dev Throws if called by any account other than the owner.\\n     */\\n    modifier onlyOwner() {\\n        _checkOwner();\\n        _;\\n    }\\n\\n    /**\\n     * @dev Returns the address of the current owner.\\n     */\\n    function owner() public view virtual returns (address) {\\n        return _owner;\\n    }\\n\\n    /**\\n     * @dev Throws if the sender is not the owner.\\n     */\\n    function _checkOwner() internal view virtual {\\n        if (owner() != _msgSender()) {\\n            revert OwnableUnauthorizedAccount(_msgSender());\\n        }\\n    }\\n\\n    /**\\n     * @dev Leaves the contract without owner. It will not be possible to call\\n     * `onlyOwner` functions. Can only be called by the current owner.\\n     *\\n     * NOTE: Renouncing ownership will leave the contract without an owner,\\n     * thereby disabling any functionality that is only available to the owner.\\n     */\\n    function renounceOwnership() public virtual onlyOwner {\\n        _transferOwnership(address(0));\\n    }\\n\\n    /**\\n     * @dev Transfers ownership of the contract to a new account (`newOwner`).\\n     * Can only be called by the current owner.\\n     */\\n    function transferOwnership(address newOwner) public virtual onlyOwner {\\n        if (newOwner == address(0)) {\\n            revert OwnableInvalidOwner(address(0));\\n        }\\n        _transferOwnership(newOwner);\\n    }\\n\\n    /**\\n     * @dev Transfers ownership of the contract to a new account (`newOwner`).\\n     * Internal function without access restriction.\\n     */\\n    function _transferOwnership(address newOwner) internal virtual {\\n        address oldOwner = _owner;\\n        _owner = newOwner;\\n        emit OwnershipTransferred(oldOwner, newOwner);\\n    }\\n}\\n\"},\"@openzeppelin/contracts/utils/ReentrancyGuard.sol\":{\"content\":\"// SPDX-License-Identifier: MIT\\n// OpenZeppelin Contracts (last updated v5.1.0) (utils/ReentrancyGuard.sol)\\n\\npragma solidity ^0.8.20;\\n\\n/**\\n * @dev Contract module that helps prevent reentrant calls to a function.\\n *\\n * Inheriting from `ReentrancyGuard` will make the {nonReentrant} modifier\\n * available, which can be applied to functions to make sure there are no nested\\n * (reentrant) calls to them.\\n *\\n * Note that because there is a single `nonReentrant` guard, functions marked as\\n * `nonReentrant` may not call one another. This can be worked around by making\\n * those functions `private`, and then adding `external` `nonReentrant` entry\\n * points to them.\\n *\\n * TIP: If EIP-1153 (transient storage) is available on the chain you're deploying at,\\n * consider using {ReentrancyGuardTransient} instead.\\n *\\n * TIP: If you would like to learn more about reentrancy and alternative ways\\n * to protect against it, check out our blog post\\n * https://blog.openzeppelin.com/reentrancy-after-istanbul/[Reentrancy After Istanbul].\\n */\\nabstract contract ReentrancyGuard {\\n    // Booleans are more expensive than uint256 or any type that takes up a full\\n    // word because each write operation emits an extra SLOAD to first read the\\n    // slot's contents, replace the bits taken up by the boolean, and then write\\n    // back. This is the compiler's defense against contract upgrades and\\n    // pointer aliasing, and it cannot be disabled.\\n\\n    // The values being non-zero value makes deployment a bit more expensive,\\n    // but in exchange the refund on every call to nonReentrant will be lower in\\n    // amount. Since refunds are capped to a percentage of the total\\n    // transaction's gas, it is best to keep them low in cases like this one, to\\n    // increase the likelihood of the full refund coming into effect.\\n    uint256 private constant NOT_ENTERED = 1;\\n    uint256 private constant ENTERED = 2;\\n\\n    uint256 private _status;\\n\\n    /**\\n     * @dev Unauthorized reentrant call.\\n     */\\n    error ReentrancyGuardReentrantCall();\\n\\n    constructor() {\\n        _status = NOT_ENTERED;\\n    }\\n\\n    /**\\n     * @dev Prevents a contract from calling itself, directly or indirectly.\\n     * Calling a `nonReentrant` function from another `nonReentrant`\\n     * function is not supported. It is possible to prevent this from happening\\n     * by making the `nonReentrant` function external, and making it call a\\n     * `private` function that does the actual work.\\n     */\\n    modifier nonReentrant() {\\n        _nonReentrantBefore();\\n        _;\\n        _nonReentrantAfter();\\n    }\\n\\n    function _nonReentrantBefore() private {\\n        // On the first call to nonReentrant, _status will be NOT_ENTERED\\n        if (_status == ENTERED) {\\n            revert ReentrancyGuardReentrantCall();\\n        }\\n\\n        // Any calls to nonReentrant after this point will fail\\n        _status = ENTERED;\\n    }\\n\\n    function _nonReentrantAfter() private {\\n        // By storing the original value once again, a refund is triggered (see\\n        // https://eips.ethereum.org/EIPS/eip-2200)\\n        _status = NOT_ENTERED;\\n    }\\n\\n    /**\\n     * @dev Returns true if the reentrancy guard is currently set to \\\"entered\\\", which indicates there is a\\n     * `nonReentrant` function in the call stack.\\n     */\\n    function _reentrancyGuardEntered() internal view returns (bool) {\\n        return _status == ENTERED;\\n    }\\n}\\n\"},\"@openzeppelin/contracts/token/ERC20/utils/SafeERC20.sol\":{\"content\":\"// SPDX-License-Identifier: MIT\\n// OpenZeppelin Contracts (last updated v5.3.0) (token/ERC20/utils/SafeERC20.sol)\\n\\npragma solidity ^0.8.20;\\n\\nimport {IERC20} from \\\"../IERC20.sol\\\";\\nimport {IERC1363} from \\\"../../../interfaces/IERC1363.sol\\\";\\n\\n/**\\n * @title SafeERC20\\n * @dev Wrappers around ERC-20 operations that throw on failure (when the token\\n * contract returns false). Tokens that return no value (and instead revert or\\n * throw on failure) are also supported, non-reverting calls are assumed to be\\n * successful.\\n * To use this library you can add a `using SafeERC20 for IERC20;` statement to your contract,\\n * which allows you to call the safe operations as `token.safeTransfer(...)`, etc.\\n */\\nlibrary SafeERC20 {\\n    /**\\n     * @dev An operation with an ERC-20 token failed.\\n     */\\n    error SafeERC20FailedOperation(address token);\\n\\n    /**\\n     * @dev Indicates a failed `decreaseAllowance` request.\\n     */\\n    error SafeERC20FailedDecreaseAllowance(address spender, uint256 currentAllowance, uint256 requestedDecrease);\\n\\n    /**\\n     * @dev Transfer `value` amount of `token` from the calling contract to `to`. If `token` returns no value,\\n     * non-reverting calls are assumed to be successful.\\n     */\\n    function safeTransfer(IERC20 token, address to, uint256 value) internal {\\n        _callOptionalReturn(token, abi.encodeCall(token.transfer, (to, value)));\\n    }\\n\\n    /**\\n     * @dev Transfer `value` amount of `token` from `from` to `to`, spending the approval given by `from` to the\\n     * calling contract. If `token` returns no value, non-reverting calls are assumed to be successful.\\n     */\\n    function safeTransferFrom(IERC20 token, address from, address to, uint256 value) internal {\\n        _callOptionalReturn(token, abi.encodeCall(token.transferFrom, (from, to, value)));\\n    }\\n\\n    /**\\n     * @dev Variant of {safeTransfer} that returns a bool instead of reverting if the operation is not successful.\\n     */\\n    function trySafeTransfer(IERC20 token, address to, uint256 value) internal returns (bool) {\\n        return _callOptionalReturnBool(token, abi.encodeCall(token.transfer, (to, value)));\\n    }\\n\\n    /**\\n     * @dev Variant of {safeTransferFrom} that returns a bool instead of reverting if the operation is not successful.\\n     */\\n    function trySafeTransferFrom(IERC20 token, address from, address to, uint256 value) internal returns (bool) {\\n        return _callOptionalReturnBool(token, abi.encodeCall(token.transferFrom, (from, to, value)));\\n    }\\n\\n    /**\\n     * @dev Increase the calling contract's allowance toward `spender` by `value`. If `token` returns no value,\\n     * non-reverting calls are assumed to be successful.\\n     *\\n     * IMPORTANT: If the token implements ERC-7674 (ERC-20 with temporary allowance), and if the \\\"client\\\"\\n     * smart contract uses ERC-7674 to set temporary allowances, then the \\\"client\\\" smart contract should avoid using\\n     * this function. Performing a {safeIncreaseAllowance} or {safeDecreaseAllowance} operation on a token contract\\n     * that has a non-zero temporary allowance (for that particular owner-spender) will result in unexpected behavior.\\n     */\\n    function safeIncreaseAllowance(IERC20 token, address spender, uint256 value) internal {\\n        uint256 oldAllowance = token.allowance(address(this), spender);\\n        forceApprove(token, spender, oldAllowance + value);\\n    }\\n\\n    /**\\n     * @dev Decrease the calling contract's allowance toward `spender` by `requestedDecrease`. If `token` returns no\\n     * value, non-reverting calls are assumed to be successful.\\n     *\\n     * IMPORTANT: If the token implements ERC-7674 (ERC-20 with temporary allowance), and if the \\\"client\\\"\\n     * smart contract uses ERC-7674 to set temporary allowances, then the \\\"client\\\" smart contract should avoid using\\n     * this function. Performing a {safeIncreaseAllowance} or {safeDecreaseAllowance} operation on a token contract\\n     * that has a non-zero temporary allowance (for that particular owner-spender) will result in unexpected behavior.\\n     */\\n    function safeDecreaseAllowance(IERC20 token, address spender, uint256 requestedDecrease) internal {\\n        unchecked {\\n            uint256 currentAllowance = token.allowance(address(this), spender);\\n            if (currentAllowance < requestedDecrease) {\\n                revert SafeERC20FailedDecreaseAllowance(spender, currentAllowance, requestedDecrease);\\n            }\\n            forceApprove(token, spender, currentAllowance - requestedDecrease);\\n        }\\n    }\\n\\n    /**\\n     * @dev Set the calling contract's allowance toward `spender` to `value`. If `token` returns no value,\\n     * non-reverting calls are assumed to be successful. Meant to be used with tokens that require the approval\\n     * to be set to zero before setting it to a non-zero value, such as USDT.\\n     *\\n     * NOTE: If the token implements ERC-7674, this function will not modify any temporary allowance. This function\\n     * only sets the \\\"standard\\\" allowance. Any temporary allowance will remain active, in addition to the value being\\n     * set here.\\n     */\\n    function forceApprove(IERC20 token, address spender, uint256 value) internal {\\n        bytes memory approvalCall = abi.encodeCall(token.approve, (spender, value));\\n\\n        if (!_callOptionalReturnBool(token, approvalCall)) {\\n            _callOptionalReturn(token, abi.encodeCall(token.approve, (spender, 0)));\\n            _callOptionalReturn(token, approvalCall);\\n        }\\n    }\\n\\n    /**\\n     * @dev Performs an {ERC1363} transferAndCall, with a fallback to the simple {ERC20} transfer if the target has no\\n     * code. This can be used to implement an {ERC721}-like safe transfer that rely on {ERC1363} checks when\\n     * targeting contracts.\\n     *\\n     * Reverts if the returned value is other than `true`.\\n     */\\n    function transferAndCallRelaxed(IERC1363 token, address to, uint256 value, bytes memory data) internal {\\n        if (to.code.length == 0) {\\n            safeTransfer(token, to, value);\\n        } else if (!token.transferAndCall(to, value, data)) {\\n            revert SafeERC20FailedOperation(address(token));\\n        }\\n    }\\n\\n    /**\\n     * @dev Performs an {ERC1363} transferFromAndCall, with a fallback to the simple {ERC20} transferFrom if the target\\n     * has no code. This can be used to implement an {ERC721}-like safe transfer that rely on {ERC1363} checks when\\n     * targeting contracts.\\n     *\\n     * Reverts if the returned value is other than `true`.\\n     */\\n    function transferFromAndCallRelaxed(\\n        IERC1363 token,\\n        address from,\\n        address to,\\n        uint256 value,\\n        bytes memory data\\n    ) internal {\\n        if (to.code.length == 0) {\\n            safeTransferFrom(token, from, to, value);\\n        } else if (!token.transferFromAndCall(from, to, value, data)) {\\n            revert SafeERC20FailedOperation(address(token));\\n        }\\n    }\\n\\n    /**\\n     * @dev Performs an {ERC1363} approveAndCall, with a fallback to the simple {ERC20} approve if the target has no\\n     * code. This can be used to implement an {ERC721}-like safe transfer that rely on {ERC1363} checks when\\n     * targeting contracts.\\n     *\\n     * NOTE: When the recipient address (`to`) has no code (i.e. is an EOA), this function behaves as {forceApprove}.\\n     * Opposedly, when the recipient address (`to`) has code, this function only attempts to call {ERC1363-approveAndCall}\\n     * once without retrying, and relies on the returned value to be true.\\n     *\\n     * Reverts if the returned value is other than `true`.\\n     */\\n    function approveAndCallRelaxed(IERC1363 token, address to, uint256 value, bytes memory data) internal {\\n        if (to.code.length == 0) {\\n            forceApprove(token, to, value);\\n        } else if (!token.approveAndCall(to, value, data)) {\\n            revert SafeERC20FailedOperation(address(token));\\n        }\\n    }\\n\\n    /**\\n     * @dev Imitates a Solidity high-level call (i.e. a regular function call to a contract), relaxing the requirement\\n     * on the return value: the return value is optional (but if data is returned, it must not be false).\\n     * @param token The token targeted by the call.\\n     * @param data The call data (encoded using abi.encode or one of its variants).\\n     *\\n     * This is a variant of {_callOptionalReturnBool} that reverts if call fails to meet the requirements.\\n     */\\n    function _callOptionalReturn(IERC20 token, bytes memory data) private {\\n        uint256 returnSize;\\n        uint256 returnValue;\\n        assembly (\\\"memory-safe\\\") {\\n            let success := call(gas(), token, 0, add(data, 0x20), mload(data), 0, 0x20)\\n            // bubble errors\\n            if iszero(success) {\\n                let ptr := mload(0x40)\\n                returndatacopy(ptr, 0, returndatasize())\\n                revert(ptr, returndatasize())\\n            }\\n            returnSize := returndatasize()\\n            returnValue := mload(0)\\n        }\\n\\n        if (returnSize == 0 ? address(token).code.length == 0 : returnValue != 1) {\\n            revert SafeERC20FailedOperation(address(token));\\n        }\\n    }\\n\\n    /**\\n     * @dev Imitates a Solidity high-level call (i.e. a regular function call to a contract), relaxing the requirement\\n     * on the return value: the return value is optional (but if data is returned, it must not be false).\\n     * @param token The token targeted by the call.\\n     * @param data The call data (encoded using abi.encode or one of its variants).\\n     *\\n     * This is a variant of {_callOptionalReturn} that silently catches all reverts and returns a bool instead.\\n     */\\n    function _callOptionalReturnBool(IERC20 token, bytes memory data) private returns (bool) {\\n        bool success;\\n        uint256 returnSize;\\n        uint256 returnValue;\\n        assembly (\\\"memory-safe\\\") {\\n            success := call(gas(), token, 0, add(data, 0x20), mload(data), 0, 0x20)\\n            returnSize := returndatasize()\\n            returnValue := mload(0)\\n        }\\n        return success && (returnSize == 0 ? address(token).code.length > 0 : returnValue == 1);\\n    }\\n}\\n\"},\"@openzeppelin/contracts/token/ERC20/ERC20.sol\":{\"content\":\"// SPDX-License-Identifier: MIT\\n// OpenZeppelin Contracts (last updated v5.4.0) (token/ERC20/ERC20.sol)\\n\\npragma solidity ^0.8.20;\\n\\nimport {IERC20} from \\\"./IERC20.sol\\\";\\nimport {IERC20Metadata} from \\\"./extensions/IERC20Metadata.sol\\\";\\nimport {Context} from \\\"../../utils/Context.sol\\\";\\nimport {IERC20Errors} from \\\"../../interfaces/draft-IERC6093.sol\\\";\\n\\n/**\\n * @dev Implementation of the {IERC20} interface.\\n *\\n * This implementation is agnostic to the way tokens are created. This means\\n * that a supply mechanism has to be added in a derived contract using {_mint}.\\n *\\n * TIP: For a detailed writeup see our guide\\n * https://forum.openzeppelin.com/t/how-to-implement-erc20-supply-mechanisms/226[How\\n * to implement supply mechanisms].\\n *\\n * The default value of {decimals} is 18. To change this, you should override\\n * this function so it returns a different value.\\n *\\n * We have followed general OpenZeppelin Contracts guidelines: functions revert\\n * instead returning `false` on failure. This behavior is nonetheless\\n * conventional and does not conflict with the expectations of ERC-20\\n * applications.\\n */\\nabstract contract ERC20 is Context, IERC20, IERC20Metadata, IERC20Errors {\\n    mapping(address account => uint256) private _balances;\\n\\n    mapping(address account => mapping(address spender => uint256)) private _allowances;\\n\\n    uint256 private _totalSupply;\\n\\n    string private _name;\\n    string private _symbol;\\n\\n    /**\\n     * @dev Sets the values for {name} and {symbol}.\\n     *\\n     * Both values are immutable: they can only be set once during construction.\\n     */\\n    constructor(string memory name_, string memory symbol_) {\\n        _name = name_;\\n        _symbol = symbol_;\\n    }\\n\\n    /**\\n     * @dev Returns the name of the token.\\n     */\\n    function name() public view virtual returns (string memory) {\\n        return _name;\\n    }\\n\\n    /**\\n     * @dev Returns the symbol of the token, usually a shorter version of the\\n     * name.\\n     */\\n    function symbol() public view virtual returns (string memory) {\\n        return _symbol;\\n    }\\n\\n    /**\\n     * @dev Returns the number of decimals used to get its user representation.\\n     * For example, if `decimals` equals `2`, a balance of `505` tokens should\\n     * be displayed to a user as `5.05` (`505 / 10 ** 2`).\\n     *\\n     * Tokens usually opt for a value of 18, imitating the relationship between\\n     * Ether and Wei. This is the default value returned by this function, unless\\n     * it's overridden.\\n     *\\n     * NOTE: This information is only used for _display_ purposes: it in\\n     * no way affects any of the arithmetic of the contract, including\\n     * {IERC20-balanceOf} and {IERC20-transfer}.\\n     */\\n    function decimals() public view virtual returns (uint8) {\\n        return 18;\\n    }\\n\\n    /// @inheritdoc IERC20\\n    function totalSupply() public view virtual returns (uint256) {\\n        return _totalSupply;\\n    }\\n\\n    /// @inheritdoc IERC20\\n    function balanceOf(address account) public view virtual returns (uint256) {\\n        return _balances[account];\\n    }\\n\\n    /**\\n     * @dev See {IERC20-transfer}.\\n     *\\n     * Requirements:\\n     *\\n     * - `to` cannot be the zero address.\\n     * - the caller must have a balance of at least `value`.\\n     */\\n    function transfer(address to, uint256 value) public virtual returns (bool) {\\n        address owner = _msgSender();\\n        _transfer(owner, to, value);\\n        return true;\\n    }\\n\\n    /// @inheritdoc IERC20\\n    function allowance(address owner, address spender) public view virtual returns (uint256) {\\n        return _allowances[owner][spender];\\n    }\\n\\n    /**\\n     * @dev See {IERC20-approve}.\\n     *\\n     * NOTE: If `value` is the maximum `uint256`, the allowance is not updated on\\n     * `transferFrom`. This is semantically equivalent to an infinite approval.\\n     *\\n     * Requirements:\\n     *\\n     * - `spender` cannot be the zero address.\\n     */\\n    function approve(address spender, uint256 value) public virtual returns (bool) {\\n        address owner = _msgSender();\\n        _approve(owner, spender, value);\\n        return true;\\n    }\\n\\n    /**\\n     * @dev See {IERC20-transferFrom}.\\n     *\\n     * Skips emitting an {Approval} event indicating an allowance update. This is not\\n     * required by the ERC. See {xref-ERC20-_approve-address-address-uint256-bool-}[_approve].\\n     *\\n     * NOTE: Does not update the allowance if the current allowance\\n     * is the maximum `uint256`.\\n     *\\n     * Requirements:\\n     *\\n     * - `from` and `to` cannot be the zero address.\\n     * - `from` must have a balance of at least `value`.\\n     * - the caller must have allowance for ``from``'s tokens of at least\\n     * `value`.\\n     */\\n    function transferFrom(address from, address to, uint256 value) public virtual returns (bool) {\\n        address spender = _msgSender();\\n        _spendAllowance(from, spender, value);\\n        _transfer(from, to, value);\\n        return true;\\n    }\\n\\n    /**\\n     * @dev Moves a `value` amount of tokens from `from` to `to`.\\n     *\\n     * This internal function is equivalent to {transfer}, and can be used to\\n     * e.g. implement automatic token fees, slashing mechanisms, etc.\\n     *\\n     * Emits a {Transfer} event.\\n     *\\n     * NOTE: This function is not virtual, {_update} should be overridden instead.\\n     */\\n    function _transfer(address from, address to, uint256 value) internal {\\n        if (from == address(0)) {\\n            revert ERC20InvalidSender(address(0));\\n        }\\n        if (to == address(0)) {\\n            revert ERC20InvalidReceiver(address(0));\\n        }\\n        _update(from, to, value);\\n    }\\n\\n    /**\\n     * @dev Transfers a `value` amount of tokens from `from` to `to`, or alternatively mints (or burns) if `from`\\n     * (or `to`) is the zero address. All customizations to transfers, mints, and burns should be done by overriding\\n     * this function.\\n     *\\n     * Emits a {Transfer} event.\\n     */\\n    function _update(address from, address to, uint256 value) internal virtual {\\n        if (from == address(0)) {\\n            // Overflow check required: The rest of the code assumes that totalSupply never overflows\\n            _totalSupply += value;\\n        } else {\\n            uint256 fromBalance = _balances[from];\\n            if (fromBalance < value) {\\n                revert ERC20InsufficientBalance(from, fromBalance, value);\\n            }\\n            unchecked {\\n                // Overflow not possible: value <= fromBalance <= totalSupply.\\n                _balances[from] = fromBalance - value;\\n            }\\n        }\\n\\n        if (to == address(0)) {\\n            unchecked {\\n                // Overflow not possible: value <= totalSupply or value <= fromBalance <= totalSupply.\\n                _totalSupply -= value;\\n            }\\n        } else {\\n            unchecked {\\n                // Overflow not possible: balance + value is at most totalSupply, which we know fits into a uint256.\\n                _balances[to] += value;\\n            }\\n        }\\n\\n        emit Transfer(from, to, value);\\n    }\\n\\n    /**\\n     * @dev Creates a `value` amount of tokens and assigns them to `account`, by transferring it from address(0).\\n     * Relies on the `_update` mechanism\\n     *\\n     * Emits a {Transfer} event with `from` set to the zero address.\\n     *\\n     * NOTE: This function is not virtual, {_update} should be overridden instead.\\n     */\\n    function _mint(address account, uint256 value) internal {\\n        if (account == address(0)) {\\n            revert ERC20InvalidReceiver(address(0));\\n        }\\n        _update(address(0), account, value);\\n    }\\n\\n    /**\\n     * @dev Destroys a `value` amount of tokens from `account`, lowering the total supply.\\n     * Relies on the `_update` mechanism.\\n     *\\n     * Emits a {Transfer} event with `to` set to the zero address.\\n     *\\n     * NOTE: This function is not virtual, {_update} should be overridden instead\\n     */\\n    function _burn(address account, uint256 value) internal {\\n        if (account == address(0)) {\\n            revert ERC20InvalidSender(address(0));\\n        }\\n        _update(account, address(0), value);\\n    }\\n\\n    /**\\n     * @dev Sets `value` as the allowance of `spender` over the `owner`'s tokens.\\n     *\\n     * This internal function is equivalent to `approve`, and can be used to\\n     * e.g. set automatic allowances for certain subsystems, etc.\\n     *\\n     * Emits an {Approval} event.\\n     *\\n     * Requirements:\\n     *\\n     * - `owner` cannot be the zero address.\\n     * - `spender` cannot be the zero address.\\n     *\\n     * Overrides to this logic should be done to the variant with an additional `bool emitEvent` argument.\\n     */\\n    function _approve(address owner, address spender, uint256 value) internal {\\n        _approve(owner, spender, value, true);\\n    }\\n\\n    /**\\n     * @dev Variant of {_approve} with an optional flag to enable or disable the {Approval} event.\\n     *\\n     * By default (when calling {_approve}) the flag is set to true. On the other hand, approval changes made by\\n     * `_spendAllowance` during the `transferFrom` operation set the flag to false. This saves gas by not emitting any\\n     * `Approval` event during `transferFrom` operations.\\n     *\\n     * Anyone who wishes to continue emitting `Approval` events on the`transferFrom` operation can force the flag to\\n     * true using the following override:\\n     *\\n     * ```solidity\\n     * function _approve(address owner, address spender, uint256 value, bool) internal virtual override {\\n     *     super._approve(owner, spender, value, true);\\n     * }\\n     * ```\\n     *\\n     * Requirements are the same as {_approve}.\\n     */\\n    function _approve(address owner, address spender, uint256 value, bool emitEvent) internal virtual {\\n        if (owner == address(0)) {\\n            revert ERC20InvalidApprover(address(0));\\n        }\\n        if (spender == address(0)) {\\n            revert ERC20InvalidSpender(address(0));\\n        }\\n        _allowances[owner][spender] = value;\\n        if (emitEvent) {\\n            emit Approval(owner, spender, value);\\n        }\\n    }\\n\\n    /**\\n     * @dev Updates `owner`'s allowance for `spender` based on spent `value`.\\n     *\\n     * Does not update the allowance value in case of infinite allowance.\\n     * Revert if not enough allowance is available.\\n     *\\n     * Does not emit an {Approval} event.\\n     */\\n    function _spendAllowance(address owner, address spender, uint256 value) internal virtual {\\n        uint256 currentAllowance = allowance(owner, spender);\\n        if (currentAllowance < type(uint256).max) {\\n            if (currentAllowance < value) {\\n                revert ERC20InsufficientAllowance(spender, currentAllowance, value);\\n            }\\n            unchecked {\\n                _approve(owner, spender, currentAllowance - value, false);\\n            }\\n        }\\n    }\\n}\\n\"},\"@openzeppelin/contracts/interfaces/IERC1363.sol\":{\"content\":\"// SPDX-License-Identifier: MIT\\n// OpenZeppelin Contracts (last updated v5.4.0) (interfaces/IERC1363.sol)\\n\\npragma solidity >=0.6.2;\\n\\nimport {IERC20} from \\\"./IERC20.sol\\\";\\nimport {IERC165} from \\\"./IERC165.sol\\\";\\n\\n/**\\n * @title IERC1363\\n * @dev Interface of the ERC-1363 standard as defined in the https://eips.ethereum.org/EIPS/eip-1363[ERC-1363].\\n *\\n * Defines an extension interface for ERC-20 tokens that supports executing code on a recipient contract\\n * after `transfer` or `transferFrom`, or code on a spender contract after `approve`, in a single transaction.\\n */\\ninterface IERC1363 is IERC20, IERC165 {\\n    /*\\n     * Note: the ERC-165 identifier for this interface is 0xb0202a11.\\n     * 0xb0202a11 ===\\n     *   bytes4(keccak256('transferAndCall(address,uint256)')) ^\\n     *   bytes4(keccak256('transferAndCall(address,uint256,bytes)')) ^\\n     *   bytes4(keccak256('transferFromAndCall(address,address,uint256)')) ^\\n     *   bytes4(keccak256('transferFromAndCall(address,address,uint256,bytes)')) ^\\n     *   bytes4(keccak256('approveAndCall(address,uint256)')) ^\\n     *   bytes4(keccak256('approveAndCall(address,uint256,bytes)'))\\n     */\\n\\n    /**\\n     * @dev Moves a `value` amount of tokens from the caller's account to `to`\\n     * and then calls {IERC1363Receiver-onTransferReceived} on `to`.\\n     * @param to The address which you want to transfer to.\\n     * @param value The amount of tokens to be transferred.\\n     * @return A boolean value indicating whether the operation succeeded unless throwing.\\n     */\\n    function transferAndCall(address to, uint256 value) external returns (bool);\\n\\n    /**\\n     * @dev Moves a `value` amount of tokens from the caller's account to `to`\\n     * and then calls {IERC1363Receiver-onTransferReceived} on `to`.\\n     * @param to The address which you want to transfer to.\\n     * @param value The amount of tokens to be transferred.\\n     * @param data Additional data with no specified format, sent in call to `to`.\\n     * @return A boolean value indicating whether the operation succeeded unless throwing.\\n     */\\n    function transferAndCall(address to, uint256 value, bytes calldata data) external returns (bool);\\n\\n    /**\\n     * @dev Moves a `value` amount of tokens from `from` to `to` using the allowance mechanism\\n     * and then calls {IERC1363Receiver-onTransferReceived} on `to`.\\n     * @param from The address which you want to send tokens from.\\n     * @param to The address which you want to transfer to.\\n     * @param value The amount of tokens to be transferred.\\n     * @return A boolean value indicating whether the operation succeeded unless throwing.\\n     */\\n    function transferFromAndCall(address from, address to, uint256 value) external returns (bool);\\n\\n    /**\\n     * @dev Moves a `value` amount of tokens from `from` to `to` using the allowance mechanism\\n     * and then calls {IERC1363Receiver-onTransferReceived} on `to`.\\n     * @param from The address which you want to send tokens from.\\n     * @param to The address which you want to transfer to.\\n     * @param value The amount of tokens to be transferred.\\n     * @param data Additional data with no specified format, sent in call to `to`.\\n     * @return A boolean value indicating whether the operation succeeded unless throwing.\\n     */\\n    function transferFromAndCall(address from, address to, uint256 value, bytes calldata data) external returns (bool);\\n\\n    /**\\n     * @dev Sets a `value` amount of tokens as the allowance of `spender` over the\\n     * caller's tokens and then calls {IERC1363Spender-onApprovalReceived} on `spender`.\\n     * @param spender The address which will spend the funds.\\n     * @param value The amount of tokens to be spent.\\n     * @return A boolean value indicating whether the operation succeeded unless throwing.\\n     */\\n    function approveAndCall(address spender, uint256 value) external returns (bool);\\n\\n    /**\\n     * @dev Sets a `value` amount of tokens as the allowance of `spender` over the\\n     * caller's tokens and then calls {IERC1363Spender-onApprovalReceived} on `spender`.\\n     * @param spender The address which will spend the funds.\\n     * @param value The amount of tokens to be spent.\\n     * @param data Additional data with no specified format, sent in call to `spender`.\\n     * @return A boolean value indicating whether the operation succeeded unless throwing.\\n     */\\n    function approveAndCall(address spender, uint256 value, bytes calldata data) external returns (bool);\\n}\\n\"},\"@openzeppelin/contracts/token/ERC20/IERC20.sol\":{\"content\":\"// SPDX-License-Identifier: MIT\\n// OpenZeppelin Contracts (last updated v5.4.0) (token/ERC20/IERC20.sol)\\n\\npragma solidity >=0.4.16;\\n\\n/**\\n * @dev Interface of the ERC-20 standard as defined in the ERC.\\n */\\ninterface IERC20 {\\n    /**\\n     * @dev Emitted when `value` tokens are moved from one account (`from`) to\\n     * another (`to`).\\n     *\\n     * Note that `value` may be zero.\\n     */\\n    event Transfer(address indexed from, address indexed to, uint256 value);\\n\\n    /**\\n     * @dev Emitted when the allowance of a `spender` for an `owner` is set by\\n     * a call to {approve}. `value` is the new allowance.\\n     */\\n    event Approval(address indexed owner, address indexed spender, uint256 value);\\n\\n    /**\\n     * @dev Returns the value of tokens in existence.\\n     */\\n    function totalSupply() external view returns (uint256);\\n\\n    /**\\n     * @dev Returns the value of tokens owned by `account`.\\n     */\\n    function balanceOf(address account) external view returns (uint256);\\n\\n    /**\\n     * @dev Moves a `value` amount of tokens from the caller's account to `to`.\\n     *\\n     * Returns a boolean value indicating whether the operation succeeded.\\n     *\\n     * Emits a {Transfer} event.\\n     */\\n    function transfer(address to, uint256 value) external returns (bool);\\n\\n    /**\\n     * @dev Returns the remaining number of tokens that `spender` will be\\n     * allowed to spend on behalf of `owner` through {transferFrom}. This is\\n     * zero by default.\\n     *\\n     * This value changes when {approve} or {transferFrom} are called.\\n     */\\n    function allowance(address owner, address spender) external view returns (uint256);\\n\\n    /**\\n     * @dev Sets a `value` amount of tokens as the allowance of `spender` over the\\n     * caller's tokens.\\n     *\\n     * Returns a boolean value indicating whether the operation succeeded.\\n     *\\n     * IMPORTANT: Beware that changing an allowance with this method brings the risk\\n     * that someone may use both the old and the new allowance by unfortunate\\n     * transaction ordering. One possible solution to mitigate this race\\n     * condition is to first reduce the spender's allowance to 0 and set the\\n     * desired value afterwards:\\n     * https://github.com/ethereum/EIPs/issues/20#issuecomment-263524729\\n     *\\n     * Emits an {Approval} event.\\n     */\\n    function approve(address spender, uint256 value) external returns (bool);\\n\\n    /**\\n     * @dev Moves a `value` amount of tokens from `from` to `to` using the\\n     * allowance mechanism. `value` is then deducted from the caller's\\n     * allowance.\\n     *\\n     * Returns a boolean value indicating whether the operation succeeded.\\n     *\\n     * Emits a {Transfer} event.\\n     */\\n    function transferFrom(address from, address to, uint256 value) external returns (bool);\\n}\\n\"},\"@openzeppelin/contracts/interfaces/draft-IERC6093.sol\":{\"content\":\"// SPDX-License-Identifier: MIT\\n// OpenZeppelin Contracts (last updated v5.4.0) (interfaces/draft-IERC6093.sol)\\npragma solidity >=0.8.4;\\n\\n/**\\n * @dev Standard ERC-20 Errors\\n * Interface of the https://eips.ethereum.org/EIPS/eip-6093[ERC-6093] custom errors for ERC-20 tokens.\\n */\\ninterface IERC20Errors {\\n    /**\\n     * @dev Indicates an error related to the current `balance` of a `sender`. Used in transfers.\\n     * @param sender Address whose tokens are being transferred.\\n     * @param balance Current balance for the interacting account.\\n     * @param needed Minimum amount required to perform a transfer.\\n     */\\n    error ERC20InsufficientBalance(address sender, uint256 balance, uint256 needed);\\n\\n    /**\\n     * @dev Indicates a failure with the token `sender`. Used in transfers.\\n     * @param sender Address whose tokens are being transferred.\\n     */\\n    error ERC20InvalidSender(address sender);\\n\\n    /**\\n     * @dev Indicates a failure with the token `receiver`. Used in transfers.\\n     * @param receiver Address to which tokens are being transferred.\\n     */\\n    error ERC20InvalidReceiver(address receiver);\\n\\n    /**\\n     * @dev Indicates a failure with the `spender`s `allowance`. Used in transfers.\\n     * @param spender Address that may be allowed to operate on tokens without being their owner.\\n     * @param allowance Amount of tokens a `spender` is allowed to operate with.\\n     * @param needed Minimum amount required to perform a transfer.\\n     */\\n    error ERC20InsufficientAllowance(address spender, uint256 allowance, uint256 needed);\\n\\n    /**\\n     * @dev Indicates a failure with the `approver` of a token to be approved. Used in approvals.\\n     * @param approver Address initiating an approval operation.\\n     */\\n    error ERC20InvalidApprover(address approver);\\n\\n    /**\\n     * @dev Indicates a failure with the `spender` to be approved. Used in approvals.\\n     * @param spender Address that may be allowed to operate on tokens without being their owner.\\n     */\\n    error ERC20InvalidSpender(address spender);\\n}\\n\\n/**\\n * @dev Standard ERC-721 Errors\\n * Interface of the https://eips.ethereum.org/EIPS/eip-6093[ERC-6093] custom errors for ERC-721 tokens.\\n */\\ninterface IERC721Errors {\\n    /**\\n     * @dev Indicates that an address can't be an owner. For example, `address(0)` is a forbidden owner in ERC-20.\\n     * Used in balance queries.\\n     * @param owner Address of the current owner of a token.\\n     */\\n    error ERC721InvalidOwner(address owner);\\n\\n    /**\\n     * @dev Indicates a `tokenId` whose `owner` is the zero address.\\n     * @param tokenId Identifier number of a token.\\n     */\\n    error ERC721NonexistentToken(uint256 tokenId);\\n\\n    /**\\n     * @dev Indicates an error related to the ownership over a particular token. Used in transfers.\\n     * @param sender Address whose tokens are being transferred.\\n     * @param tokenId Identifier number of a token.\\n     * @param owner Address of the current owner of a token.\\n     */\\n    error ERC721IncorrectOwner(address sender, uint256 tokenId, address owner);\\n\\n    /**\\n     * @dev Indicates a failure with the token `sender`. Used in transfers.\\n     * @param sender Address whose tokens are being transferred.\\n     */\\n    error ERC721InvalidSender(address sender);\\n\\n    /**\\n     * @dev Indicates a failure with the token `receiver`. Used in transfers.\\n     * @param receiver Address to which tokens are being transferred.\\n     */\\n    error ERC721InvalidReceiver(address receiver);\\n\\n    /**\\n     * @dev Indicates a failure with the `operator`s approval. Used in transfers.\\n     * @param operator Address that may be allowed to operate on tokens without being their owner.\\n     * @param tokenId Identifier number of a token.\\n     */\\n    error ERC721InsufficientApproval(address operator, uint256 tokenId);\\n\\n    /**\\n     * @dev Indicates a failure with the `approver` of a token to be approved. Used in approvals.\\n     * @param approver Address initiating an approval operation.\\n     */\\n    error ERC721InvalidApprover(address approver);\\n\\n    /**\\n     * @dev Indicates a failure with the `operator` to be approved. Used in approvals.\\n     * @param operator Address that may be allowed to operate on tokens without being their owner.\\n     */\\n    error ERC721InvalidOperator(address operator);\\n}\\n\\n/**\\n * @dev Standard ERC-1155 Errors\\n * Interface of the https://eips.ethereum.org/EIPS/eip-6093[ERC-6093] custom errors for ERC-1155 tokens.\\n */\\ninterface IERC1155Errors {\\n    /**\\n     * @dev Indicates an error related to the current `balance` of a `sender`. Used in transfers.\\n     * @param sender Address whose tokens are being transferred.\\n     * @param balance Current balance for the interacting account.\\n     * @param needed Minimum amount required to perform a transfer.\\n     * @param tokenId Identifier number of a token.\\n     */\\n    error ERC1155InsufficientBalance(address sender, uint256 balance, uint256 needed, uint256 tokenId);\\n\\n    /**\\n     * @dev Indicates a failure with the token `sender`. Used in transfers.\\n     * @param sender Address whose tokens are being transferred.\\n     */\\n    error ERC1155InvalidSender(address sender);\\n\\n    /**\\n     * @dev Indicates a failure with the token `receiver`. Used in transfers.\\n     * @param receiver Address to which tokens are being transferred.\\n     */\\n    error ERC1155InvalidReceiver(address receiver);\\n\\n    /**\\n     * @dev Indicates a failure with the `operator`s approval. Used in transfers.\\n     * @param operator Address that may be allowed to operate on tokens without being their owner.\\n     * @param owner Address of the current owner of a token.\\n     */\\n    error ERC1155MissingApprovalForAll(address operator, address owner);\\n\\n    /**\\n     * @dev Indicates a failure with the `approver` of a token to be approved. Used in approvals.\\n     * @param approver Address initiating an approval operation.\\n     */\\n    error ERC1155InvalidApprover(address approver);\\n\\n    /**\\n     * @dev Indicates a failure with the `operator` to be approved. Used in approvals.\\n     * @param operator Address that may be allowed to operate on tokens without being their owner.\\n     */\\n    error ERC1155InvalidOperator(address operator);\\n\\n    /**\\n     * @dev Indicates an array length mismatch between ids and values in a safeBatchTransferFrom operation.\\n     * Used in batch transfers.\\n     * @param idsLength Length of the array of token identifiers\\n     * @param valuesLength Length of the array of token amounts\\n     */\\n    error ERC1155InvalidArrayLength(uint256 idsLength, uint256 valuesLength);\\n}\\n\"},\"@openzeppelin/contracts/utils/Context.sol\":{\"content\":\"// SPDX-License-Identifier: MIT\\n// OpenZeppelin Contracts (last updated v5.0.1) (utils/Context.sol)\\n\\npragma solidity ^0.8.20;\\n\\n/**\\n * @dev Provides information about the current execution context, including the\\n * sender of the transaction and its data. While these are generally available\\n * via msg.sender and msg.data, they should not be accessed in such a direct\\n * manner, since when dealing with meta-transactions the account sending and\\n * paying for execution may not be the actual sender (as far as an application\\n * is concerned).\\n *\\n * This contract is only required for intermediate, library-like contracts.\\n */\\nabstract contract Context {\\n    function _msgSender() internal view virtual returns (address) {\\n        return msg.sender;\\n    }\\n\\n    function _msgData() internal view virtual returns (bytes calldata) {\\n        return msg.data;\\n    }\\n\\n    function _contextSuffixLength() internal view virtual returns (uint256) {\\n        return 0;\\n    }\\n}\\n\"},\"@openzeppelin/contracts/token/ERC20/extensions/IERC20Metadata.sol\":{\"content\":\"// SPDX-License-Identifier: MIT\\n// OpenZeppelin Contracts (last updated v5.4.0) (token/ERC20/extensions/IERC20Metadata.sol)\\n\\npragma solidity >=0.6.2;\\n\\nimport {IERC20} from \\\"../IERC20.sol\\\";\\n\\n/**\\n * @dev Interface for the optional metadata functions from the ERC-20 standard.\\n */\\ninterface IERC20Metadata is IERC20 {\\n    /**\\n     * @dev Returns the name of the token.\\n     */\\n    function name() external view returns (string memory);\\n\\n    /**\\n     * @dev Returns the symbol of the token.\\n     */\\n    function symbol() external view returns (string memory);\\n\\n    /**\\n     * @dev Returns the decimals places of the token.\\n     */\\n    function decimals() external view returns (uint8);\\n}\\n\"},\"@openzeppelin/contracts/interfaces/IERC165.sol\":{\"content\":\"// SPDX-License-Identifier: MIT\\n// OpenZeppelin Contracts (last updated v5.4.0) (interfaces/IERC165.sol)\\n\\npragma solidity >=0.4.16;\\n\\nimport {IERC165} from \\\"../utils/introspection/IERC165.sol\\\";\\n\"},\"@openzeppelin/contracts/interfaces/IERC20.sol\":{\"content\":\"// SPDX-License-Identifier: MIT\\n// OpenZeppelin Contracts (last updated v5.4.0) (interfaces/IERC20.sol)\\n\\npragma solidity >=0.4.16;\\n\\nimport {IERC20} from \\\"../token/ERC20/IERC20.sol\\\";\\n\"},\"@openzeppelin/contracts/utils/introspection/IERC165.sol\":{\"content\":\"// SPDX-License-Identifier: MIT\\n// OpenZeppelin Contracts (last updated v5.4.0) (utils/introspection/IERC165.sol)\\n\\npragma solidity >=0.4.16;\\n\\n/**\\n * @dev Interface of the ERC-165 standard, as defined in the\\n * https://eips.ethereum.org/EIPS/eip-165[ERC].\\n *\\n * Implementers can declare support of contract interfaces, which can then be\\n * queried by others ({ERC165Checker}).\\n *\\n * For an implementation, see {ERC165}.\\n */\\ninterface IERC165 {\\n    /**\\n     * @dev Returns true if this contract implements the interface defined by\\n     * `interfaceId`. See the corresponding\\n     * https://eips.ethereum.org/EIPS/eip-165#how-interfaces-are-identified[ERC section]\\n     * to learn more about how these ids are created.\\n     *\\n     * This function call must use less than 30 000 gas.\\n     */\\n    function supportsInterface(bytes4 interfaceId) external view returns (bool);\\n}\\n\"}},\"settings\":{\"optimizer\":{\"enabled\":true,\"runs\":200},\"outputSelection\":{\"*\":{\"\":[\"ast\"],\"*\":[\"abi\",\"metadata\",\"devdoc\",\"userdoc\",\"storageLayout\",\"evm.legacyAssembly\",\"evm.bytecode\",\"evm.deployedBytecode\",\"evm.methodIdentifiers\",\"evm.gasEstimates\",\"evm.assembly\"]}},\"remappings\":[],\"evmVersion\":\"shanghai\"}}",
	"name": "TAAMS",
	"bytecode": {
		"linkReferences": {},
		"object": "6101206040526b204fce5e3e250261100000006080526b169e43a85eb381aa5800000060a0526b019d971e4fe8401e7400000060c0526b033b2e3c9fd0803ce800000060e0819052610100526a52b7d2dcc80cd2e4000000600f5560056012556a084595161401484a00000060135560326014908155612710601955620186a0601a556001601b55601c55601d805460ff60a81b1916600160a81b179055348015620000a9575f80fd5b506040516200580b3803806200580b833981016040819052620000cc91620003b6565b6040805180820182526005808252645441414d5360d81b6020808401829052845180860190955291845290830152829160036200010a838262000485565b50600462000119828262000485565b50506001600555506001600160a01b0381166200015057604051631e4fbdf760e01b81525f60048201526024015b60405180910390fd5b6200015b81620001fa565b507394f7a6fd45185038ddb85ed43c6707ddab806ffe734ff3d1d554f080b0682a780c8531178ddd99f5466b19d971e4fe8401e7400000006b033b2e3c9fd0803ce800000080620001ad30846200024b565b620001b984836200024b565b620001c585826200024b565b5050426017555050600780546001600160a01b0319166001600160a01b03929092169190911790555060a051600a5562000573565b600680546001600160a01b038381166001600160a01b0319831681179093556040519116919082907f8be0079c531659141344cd1fd0a4f28419497f9722a3daafe3b4186f6b6457e0905f90a35050565b6001600160a01b038216620002765760405163ec442f0560e01b81525f600482015260240162000147565b620002835f838362000287565b5050565b6001600160a01b038316620002b5578060025f828254620002a991906200054d565b90915550620003279050565b6001600160a01b0383165f9081526020819052604090205481811015620003095760405163391434e360e21b81526001600160a01b0385166004820152602481018290526044810183905260640162000147565b6001600160a01b0384165f9081526020819052604090209082900390555b6001600160a01b038216620003455760028054829003905562000363565b6001600160a01b0382165f9081526020819052604090208054820190555b816001600160a01b0316836001600160a01b03167fddf252ad1be2c89b69c2b068fc378daa952ba7f163c4a11628f55a4df523b3ef83604051620003a991815260200190565b60405180910390a3505050565b5f60208284031215620003c7575f80fd5b81516001600160a01b0381168114620003de575f80fd5b9392505050565b634e487b7160e01b5f52604160045260245ffd5b600181811c908216806200040e57607f821691505b6020821081036200042d57634e487b7160e01b5f52602260045260245ffd5b50919050565b601f82111562000480575f81815260208120601f850160051c810160208610156200045b5750805b601f850160051c820191505b818110156200047c5782815560010162000467565b5050505b505050565b81516001600160401b03811115620004a157620004a1620003e5565b620004b981620004b28454620003f9565b8462000433565b602080601f831160018114620004ef575f8415620004d75750858301515b5f19600386901b1c1916600185901b1785556200047c565b5f85815260208120601f198616915b828110156200051f57888601518255948401946001909101908401620004fe565b50858210156200053d57878501515f19600388901b60f8161c191681555b5050505050600190811b01905550565b808201808211156200056d57634e487b7160e01b5f52601160045260245ffd5b92915050565b60805160a05160c05160e051610100516151ea620006215f395f818161083e01528181611e8d0152818161206e015281816120a0015281816120e501528181612435015281816124af015281816124f40152818161251c0152818161275001528181613f3e0152818161446401526144bf01525f8181610b2e015281816121bd0152612bdb01525f8181610c9d0152612c6201525f61073501525f8181610706015261414701526151ea5ff3fe608060405234801561000f575f80fd5b50600436106104e7575f3560e01c8063786ff4be1161028f578063a9059cbb11610161578063d89135cd116100d5578063e016a04c1161008f578063e016a04c14610cbf578063e2a6ec7814610cd2578063f2fde38b14610cf1578063f5f1e6b014610d04578063facc092f14610d2e578063fbea5b3b14610d41575f80fd5b8063d89135cd14610c05578063da35c66414610c0e578063dcfcf97414610c17578063dd62ed3e14610c41578063de1cf4ad14610c79578063dfc06c2914610c98575f80fd5b8063ba59931d11610126578063ba59931d14610b63578063bcea610e14610b76578063c998c53f14610b98578063ca409d8114610bd6578063ccd82cd614610be9578063d2e518c514610bf2575f80fd5b8063a9059cbb14610afb578063b08e181e14610b0e578063b172b22214610b16578063b4ac453614610b29578063b8fca4fc14610b50575f80fd5b806395d89b41116102035780639ca423b3116101bd5780639ca423b314610a945780639da6918014610abc578063a0ef4d0e14610acf578063a2906fd014610ad8578063a4d3180514610ae0578063a694fc3a14610ae8575f80fd5b806395d89b41146109ed57806396adbf8c146109f55780639885b7e114610a0257806399aa12bb14610a175780639a63f60414610a835780639bfdae5e14610a8b575f80fd5b80637f09dc31116102545780637f09dc311461099b57806380a78549146109ae578063817b1cd2146109b75780638da5cb5b146109c0578063926f7327146109d1578063938d40e8146109e4575f80fd5b8063786ff4be146109125780637bde5df8146109255780637c7e62e5146109385780637d58aeb61461095a5780637ed3deba1461097c575f80fd5b8063302a6528116103c85780635162f6261161033c578063715018a6116102f6578063715018a61461089157806372677d3c1461089957806372dfe348146108ab57806372f721ac146108ca57806376c8f6d1146108d357806377d217ed146108e7575f80fd5b80635162f626146108145780635778712c1461081c5780636a9b1fbf146108305780636d0e4378146108395780636dbfad911461086057806370a0823114610869575f80fd5b80633667ca1b1161038d5780633667ca1b146107305780633cc39f161461075757806340d74f1814610779578063413236f7146107f857806344512ca614610801578063467f67f91461080a575f80fd5b8063302a6528146106d657806330373133146106df578063313ce567146106f257806332cb6b0c146107015780633426ea4614610728575f80fd5b80631aecc93a1161045f57806325ac2b921161042457806325ac2b921461068e57806327a489e3146106a157806327c830a9146106a9578063297a97d7146106bc5780632def6620146106c55780632e80d9b6146106cd575f80fd5b80631aecc93a146106385780631e40912714610640578063200957601461065f57806321226f401461067257806323b872dd1461067b575f80fd5b80630f1a2905116104b05780630f1a2905146105935780631129753f1461059c5780631247d4f7146105af57806316934fc4146105ce57806318160ddd14610627578063184d1b931461062f575f80fd5b8062429bd1146104eb578063013cf08b1461051c57806306fdde0314610546578063095ea7b31461055b5780630d61b5191461057e575b5f80fd5b6105096104f9366004614a4f565b602080525f908152604090205481565b6040519081526020015b60405180910390f35b61052f61052a366004614a68565b610d69565b6040516105139b9a99989796959493929190614af6565b61054e610e5a565b6040516105139190614b70565b61056e610569366004614b82565b610eea565b6040519015158152602001610513565b61059161058c366004614a68565b610f03565b005b61050960125481565b6105916105aa366004614a4f565b6113f9565b6105096105bd366004614a68565b601f6020525f908152604090205481565b6106056105dc366004614a4f565b60296020525f908152604090208054600182015460028301546003909301549192909160ff1684565b6040805194855260208501939093529183015215156060820152608001610513565b600254610509565b610509601a5481565b6105916114d7565b61050961064e366004614a4f565b60286020525f908152604090205481565b61059161066d366004614a4f565b611670565b61050960155481565b61056e610689366004614baa565b6119a4565b61059161069c366004614bf2565b611a40565b610591611acc565b60095461056e9062010000900460ff1681565b61050960175481565b610591611b11565b61050960135481565b610509600d5481565b6105916106ed366004614c0b565b611d3a565b60405160128152602001610513565b6105097f000000000000000000000000000000000000000000000000000000000000000081565b61050961205d565b6105097f000000000000000000000000000000000000000000000000000000000000000081565b61056e610765366004614a4f565b602c6020525f908152604090205460ff1681565b601d54602d54335f908152602a6020908152604080832054602b835281842054602c84529382902054825160ff600160a01b8904811615158252600160a81b9098048816151594810194909452918301949094526103e860608301529284161515608082015260a08101919091529116151560c082015260e001610513565b610509601c5481565b610509600c5481565b61050962278d0081565b61059161213d565b601d5461056e90600160a01b900460ff1681565b610509600a5481565b6105097f000000000000000000000000000000000000000000000000000000000000000081565b610509600e5481565b610509610877366004614a4f565b6001600160a01b03165f9081526020819052604090205490565b61059161221c565b60095461056e90610100900460ff1681565b6105096108b9366004614a4f565b60086020525f908152604090205481565b61050960195481565b601d5461056e90600160a81b900460ff1681565b6108fa6108f5366004614a68565b61232d565b6040516001600160a01b039091168152602001610513565b6108fa610920366004614a68565b612355565b610591610933366004614a68565b612364565b61056e610946366004614a4f565b602a6020525f908152604090205460ff1681565b6016545f908152602460205260409020600601546001600160a01b03166108fa565b61050961098a366004614a4f565b60216020525f908152604090205481565b6105916109a9366004614a4f565b6127d3565b61050960185481565b61050960115481565b6006546001600160a01b03166108fa565b6105916109df366004614b82565b612879565b610509600f5481565b61054e612afc565b60095461056e9060ff1681565b610a0a612b0b565b6040516105139190614c7a565b610a58610a25366004614a4f565b60276020525f908152604090208054600182015460028301546003909301546001600160a01b0392831693919092169184565b604080516001600160a01b039586168152949093166020850152918301526060820152608001610513565b610591612b6a565b61050960105481565b6108fa610aa2366004614a4f565b60226020525f90815260409020546001600160a01b031681565b610591610aca366004614cc6565b612d81565b61050960145481565b610591612ec1565b610591612ff0565b610591610af6366004614a68565b613133565b61056e610b09366004614b82565b6132d1565b610a0a61334e565b601d546108fa906001600160a01b031681565b6105097f000000000000000000000000000000000000000000000000000000000000000081565b610591610b5e366004614b82565b6133ac565b610509610b71366004614a4f565b6134dc565b610b89610b84366004614a68565b61366c565b60405161051393929190614ce6565b610bc1610ba6366004614a4f565b60256020525f90815260409020805460019091015460ff1682565b60408051928352901515602083015201610513565b610591610be4366004614a68565b613714565b610509601b5481565b6007546108fa906001600160a01b031681565b610509600b5481565b61050960165481565b610c2a610c25366004614c0b565b61388d565b604080519215158352602083019190915201610513565b610509610c4f366004614d0d565b6001600160a01b039182165f90815260016020908152604080832093909416825291909152205490565b610509610c87366004614a4f565b60266020525f908152604090205481565b6105097f000000000000000000000000000000000000000000000000000000000000000081565b610591610ccd366004614d60565b61397e565b610509610ce0366004614a4f565b602b6020525f908152604090205481565b610591610cff366004614a4f565b613b8b565b610509610d12366004614e35565b601e60209081525f928352604080842090915290825290205481565b610591610d3c366004614e56565b613bc5565b610d54610d4f366004614a4f565b613dda565b60408051928352602083019190915201610513565b60246020525f90815260409020805460018201546002830154600384015460048501546005860154600687015460078801546008890180549899979896979596949593946001600160a01b03938416949290931692610dc790614e78565b80601f0160208091040260200160405190810160405280929190818152602001828054610df390614e78565b8015610e3e5780601f10610e1557610100808354040283529160200191610e3e565b820191905f5260205f20905b815481529060010190602001808311610e2157829003601f168201915b5050506009909301549192505060ff808216916101009004168b565b606060038054610e6990614e78565b80601f0160208091040260200160405190810160405280929190818152602001828054610e9590614e78565b8015610ee05780601f10610eb757610100808354040283529160200191610ee0565b820191905f5260205f20905b815481529060010190602001808311610ec357829003601f168201915b5050505050905090565b5f33610ef7818585613e28565b60019150505b92915050565b610f0b613e3a565b60095462010000900460ff1615610f355760405163ab35696f60e01b815260040160405180910390fd5b5f8181526024602052604081206001810154909103610f6757604051636ce3c70160e11b815260040160405180910390fd5b80600201544211610f8b57604051630cd7c29960e21b815260040160405180910390fd5b6009810154610100900460ff1615610fb65760405163cf88c65760e01b815260040160405180910390fd5b60135481600501548260040154610fcd9190614ec4565b101561104557817f2a15f4605f8e68cbaccd2234253a8189163d500a6f60c1751405443ca1562beb604051611024906020808252600e908201526d145d5bdc9d5b481b9bdd081b595d60921b604082015260600190565b60405180910390a2604051636bcf412560e11b815260040160405180910390fd5b5f8160050154826004015461105a9190614ec4565b90505f8183600401546127106110709190614ed7565b61107a9190614eee565b9050601454606461108b9190614ed7565b811161110b57837f2a15f4605f8e68cbaccd2234253a8189163d500a6f60c1751405443ca1562beb6040516110ea90602080825260169082015275159bdd19481d1a1c995cda1bdb19081b9bdd081b595d60521b604082015260600190565b60405180910390a26040516314b8741160e11b815260040160405180910390fd5b60098301805461010061ff001982161790915560039060ff16600b81111561113557611135614ac2565b0361121d57629e340060155461114b9190614ec4565b42101561116b57604051637a24249560e11b815260040160405180910390fd5b600a5483600301541115611192576040516328b35f2160e01b815260040160405180910390fd5b600683015460038401546111b39130916001600160a01b0390911690613e64565b8260030154600a5f8282546111c89190614f0d565b9091555050426015556003830154600a546040517fe49db96a72e85d04778bb78627173221c08f5acaa50eaef5b0d94c0a8c1589b19261121092908252602082015260400190565b60405180910390a1611390565b6004600984015460ff16600b81111561123857611238614ac2565b03611277576003830154600a8190556040519081527f9ed927e3681de11fbc3fc5547d178d8a2655c3aaafd6d8704edc6ee7e70b838990602001611210565b6005600984015460ff16600b81111561129257611292614ac2565b036112d95782546040517f56e668e6eab92a31285f3c1809ce67652b2348579b6c5349bad3f2e9c00399a1906112cc906008870190614f20565b60405180910390a2611390565b60098084015460ff16600b8111156112f3576112f3614ac2565b0361133257600383015460138190556040519081527ff18f88786aae85a652aadb99a82462616489a33370c9bcc7b245906812ef7cd190602001611210565b600a600984015460ff16600b81111561134d5761134d614ac2565b0361139057600383015460148190556040519081527fc4f218f6e084beba806111ae2727cb7afb13d7647aef44c4d90b5f3c9cbe59c79060200160405180910390a15b6009830154600384015460078501546113b69260ff1691906001600160a01b0316613eb6565b6040518481527f75d3599dc8e39a81249f199fec177d092f6585b12894a2b393d54a28c315785c9060200160405180910390a15050506113f66001600555565b50565b601d546001600160a01b0316331480159061141f57506006546001600160a01b03163314155b1561143d5760405163ea8e4eb560e01b815260040160405180910390fd5b6001600160a01b0381166114645760405163e6c4247b60e01b815260040160405180910390fd5b806001600160a01b03163b5f0361148e57604051636f7c43f160e01b815260040160405180910390fd5b601d80546001600160a01b0319166001600160a01b0383169081179091556040517fe3cf2b71b55b62fc1a6c7b2f6ff944c1b70048908cff22f2e08d1144e7ca7edb905f90a250565b6114df613e3a565b60095462010000900460ff16156115095760405163ab35696f60e01b815260040160405180910390fd5b3332146115315760405162461bcd60e51b815260040161152890614fa5565b60405180910390fd5b601d54600160a81b900460ff1661155b57604051632fc209f360e01b815260040160405180910390fd5b602d546103e81161157f57604051636c8c8d2160e01b815260040160405180910390fd5b335f908152602a602052604090205460ff16156115af57604051630ea075bf60e21b815260040160405180910390fd5b336115cd5760405163e6c4247b60e01b815260040160405180910390fd5b335f818152602a6020526040808220805460ff19166001908117909155602d80549182018155928390527f4a2cc91ee622da3bc833a54c37ffcb6f3ec23b7793efc5eaf5e71b7b406c5c060180546001600160a01b03191684179055905490517ff41d185d95ff1e597498c6efb9f4539bd988fdccc50f710d8a8184638d6046609161165c9190815260200190565b60405180910390a261166e6001600555565b565b611678613e3a565b60095462010000900460ff16156116a25760405163ab35696f60e01b815260040160405180910390fd5b80336001600160a01b038216148015906116c75750601d546001600160a01b03163314155b156116e55760405163ea8e4eb560e01b815260040160405180910390fd5b6116ee826134dc565b5f0361170d5760405163e100018160e01b815260040160405180910390fd5b6001600160a01b0382165f90815260256020526040902080546001600160801b0316428111156117505760405163026dd1ff60e51b815260040160405180910390fd5b5f61175a856134dc565b6001600160a01b0386165f908152602080526040902054909150811015611888576001600160a01b0385165f90815260208052604081205461179d908390614f0d565b90506117a98682614236565b856001600160a01b03167fe24abf0a1d8bdc06e382a8fc7157cd6c08495c024ceb329ec6c98f6c795fc26c826040516117e491815260200190565b60405180910390a26001600160a01b038681165f908152602760205260409020600101541615611886576001600160a01b038087165f908152602760209081526040808320600101549093168252602890529081208054839290611849908490614f0d565b90915550506001600160a01b038087165f90815260276020908152604080832060010154909316808352602890915291902054611886919061426a565b505b814210611996576001600160a01b0385165f908152602560205260408120908155600101805460ff191690556118be8582614236565b6001600160a01b038581165f908152602760205260409020600101541615611996576001600160a01b038086165f90815260276020908152604080832060010154909316825260289052908120805483929061191b908490614f0d565b90915550506001600160a01b038086165f90815260276020908152604080832060010154909316808352602890915291902054611958919061426a565b6001600160a01b0385165f90815260276020526040812080546001600160a01b03199081168255600182018054909116905560028101829055600301555b505050506113f66001600555565b6009545f9062010000900460ff16156119d05760405163ab35696f60e01b815260040160405180910390fd5b6001600160a01b03841615806119ed57506001600160a01b038316155b15611a0b5760405163e6c4247b60e01b815260040160405180910390fd5b5f611a178585856143d5565b9050808015611a29575060095460ff16155b15611a3657611a3661213d565b90505b9392505050565b601d546001600160a01b03163314801590611a6657506006546001600160a01b03163314155b15611a845760405163ea8e4eb560e01b815260040160405180910390fd5b601d805460ff60a81b1916600160a81b831515908102919091179091556040517f0ca89418516f56a1e463de3ed0de4a3795c57fb729015a5c16f20dd1200a29dd905f90a250565b611ad4613e3a565b60095462010000900460ff1615611afe5760405163ab35696f60e01b815260040160405180910390fd5b611b07336143f8565b61166e6001600555565b611b19613e3a565b60095462010000900460ff1615611b435760405163ab35696f60e01b815260040160405180910390fd5b333214611b625760405162461bcd60e51b815260040161152890614fa5565b335f908152602960205260409020600381015460ff16611b9557604051637d9a44a160e11b815260040160405180910390fd5b5f816001015442611ba69190614f0d565b90505f62278d00611bbf83670de0b6b3a7640000614ed7565b611bc99190614eee565b90505f68056bc75e2d6310000082601254865f0154611be89190614ed7565b611bf29190614ed7565b611bfc9190614eee565b905083600201545f14611c3957678ac7230489e80000846002015482611c229190614ed7565b611c2c9190614eee565b611c369082614ec4565b90505b8354611c489030903390613e64565b8354601180545f90611c5b908490614f0d565b90915550508015801590611c765750611c73336134dc565b15155b15611cbc57611c86303383613e64565b60405181815233907f6dd401e61ba732582a5eba3d54ccc3afb3609cd3ac1a166d1d36f75fc0aedcda9060200160405180910390a25b335f818152602960205260408082208281556001810183905560028101929092556003909101805460ff19169055855490517f7fc4727e062e336010f2c282598ef5f14facb3de68cf8195c2f23e1454b2b74e91611d24914290918252602082015260400190565b60405180910390a25050505061166e6001600555565b611d42613e3a565b60095462010000900460ff1615611d6c5760405163ab35696f60e01b815260040160405180910390fd5b6032811115611d8e5760405163d593165760e01b815260040160405180910390fd5b805f8167ffffffffffffffff811115611da957611da9614d3e565b604051908082528060200260200182016040528015611dd2578160200160208202803683370190505b506010549091505f5b83811015611ff7575f868683818110611df657611df6614fd4565b9050602002016020810190611e0b9190614a4f565b90506001600160a01b038116611e345760405163e6c4247b60e01b815260040160405180910390fd5b6001600160a01b0381165f908152602080526040902054158015611e6e57506001600160a01b0381165f9081526021602052604090205415155b15611fe5576001600160a01b0381165f908152602160205260408120547f000000000000000000000000000000000000000000000000000000000000000090611ec4906b033b2e3c9fd0803ce800000090614ed7565b611ece9190614eee565b90506103e8841015611f09576064611ee7600a83614ed7565b611ef19190614eee565b611efb9082614ec4565b9050611f0684614fe8565b93505b805f03611f17575050611fe7565b6001600160a01b038083165f90815260226020526040902054168015611fa0575f6064611f45600585614ed7565b611f4f9190614eee565b9050611f5b828261464b565b816001600160a01b03167f050bae3eeefac62a4ee36c766f4f426f09edf96ae8fb3034ebbf961e4acc78e282604051611f9691815260200190565b60405180910390a2505b6001600160a01b0383165f9081526020805260409020829055611fc3838361464b565b81868581518110611fd657611fd6614fd4565b60200260200101818152505050505b505b611ff081614fe8565b9050611ddb565b50601081905560405161200d9086908690615000565b60405180910390207f6d0c10e0399ef884a3729fe88266e321a043ae7f4d6d12afb75539720cfab71b83604051612044919061503f565b60405180910390a25050506120596001600555565b5050565b6009545f9060ff16158061209357507f0000000000000000000000000000000000000000000000000000000000000000600b5410155b1561209d57505f90565b5f7f0000000000000000000000000000000000000000000000000000000000000000600f54600b546120cf9190614ec4565b116120dc57600f54612109565b600b54612109907f0000000000000000000000000000000000000000000000000000000000000000614f0d565b600d545f908152601f6020526040902054909150818110156121345761212f8183614f0d565b612136565b5f5b9250505090565b60095462010000900460ff16156121675760405163ab35696f60e01b815260040160405180910390fd5b60095460ff1661166e57600a545f80805260208190527fad3228b676f7d3cd4284a5443f17f1962b36e491b30a40b2405849e597ba5fb5549091906002546121af9190614f0d565b6121b99190614f0d565b90507f000000000000000000000000000000000000000000000000000000000000000081106113f6576009805460ff1916600117905560405142907f60dc7136ae550f48cfeb4a0c4e69de31959531f869bd784a65dbc2c175f0b4a6905f90a250565b61222461467f565b305f908152602081905260409020546b033b2e3c9fd0803ce8000000111561225f5760405163786e0a9960e01b815260040160405180910390fd5b601d546001600160a01b0316612288576040516351ab837960e01b815260040160405180910390fd5b6007546122ac9030906001600160a01b03166b033b2e3c9fd0803ce8000000613e64565b6b033b2e3c9fd0803ce8000000600a5f8282546122c99190614f0d565b909155506122d890505f6146ac565b305f90815260208181526040918290205482516b033b2e3c9fd0803ce800000081529182015281517fe49db96a72e85d04778bb78627173221c08f5acaa50eaef5b0d94c0a8c1589b1929181900390910190a1565b602e818154811061233c575f80fd5b5f918252602090912001546001600160a01b0316905081565b602d818154811061233c575f80fd5b61236c613e3a565b60095462010000900460ff16156123965760405163ab35696f60e01b815260040160405180910390fd5b3332146123b55760405162461bcd60e51b815260040161152890614fa5565b60095460ff166123d857604051634523291560e01b815260040160405180910390fd5b805f036123f8576040516365e52d5160e11b815260040160405180910390fd5b335f9081526020819052604090205481111561242757604051631e9acf1760e31b815260040160405180910390fd5b600c544211801561245957507f0000000000000000000000000000000000000000000000000000000000000000600b54105b1561248957600d5f815461246c90614fe8565b9091555042600e819055612485906301e1338090614ec4565b600c555b600c544211156124ac5760405163e04b200160e01b815260040160405180910390fd5b5f7f0000000000000000000000000000000000000000000000000000000000000000600f54600b546124de9190614ec4565b116124eb57600f54612518565b600b54612518907f0000000000000000000000000000000000000000000000000000000000000000614f0d565b90507f000000000000000000000000000000000000000000000000000000000000000082600b546125499190614ec4565b11806125705750600d545f908152601f6020526040902054819061256e908490614ec4565b115b1561258e576040516387d5b4fb60e01b815260040160405180910390fd5b5f612598336134dc565b5f036125a4575f6125bb565b60646125b1846005614ed7565b6125bb9190614eee565b90506125c73384614236565b82600b5f8282546125d89190614ec4565b9091555050600d545f908152601f6020526040812080548592906125fd908490614ec4565b9091555050600d545f908152601e602090815260408083203384529091528120805485929061262d908490614ec4565b9091555050335f9081526021602052604081208054859290612650908490614ec4565b909155505080156126fe5780600b5f82825461266c9190614ec4565b9091555050600d545f908152601f602052604081208054839290612691908490614ec4565b9091555050335f90815260216020526040812080548392906126b4908490614ec4565b9091555050600d5460405133917f4c97ae41d96b9d1b707eb19904c08873168d11c83d16d121546ef8213f3c4078916126f591858252602082015260400190565b60405180910390a25b337f19783b34589160c168487dc7f9c51ae0bcefe67a47d6708fba90f6ce0366d3d161272a8386614ec4565b600b54600d546040805193845260208401929092529082015260600160405180910390a27f0000000000000000000000000000000000000000000000000000000000000000600b54101580156127885750600954610100900460ff16155b156127c7576009805461ff00191661010017905560405142907f487f0d08255b66d07fa5d32380f37fc9845759c2c886edb198e5a083cc8dfb4a905f90a25b50506113f66001600555565b6127dc816134dc565b5f036127e55750565b6001600160a01b0381165f908152602560205260409020600181015460ff161580156128225750601954815461281e919060801c614ec4565b4210155b15612059576001818101805460ff1916821790556040519081526001600160a01b038316907f901c366748c1200897e79f66edad4e674060ebab48cb1aff438e4504e79ed67e906020015b60405180910390a25050565b612881613e3a565b60095462010000900460ff16156128ab5760405163ab35696f60e01b815260040160405180910390fd5b6001600160a01b03821615806128c957506001600160a01b03821633145b156128e757604051632d618d8160e21b815260040160405180910390fd5b8015806128fb57506128f8336134dc565b81115b15612919576040516365e52d5160e11b815260040160405180910390fd5b335f908152602760205260409020600101546001600160a01b03161561295257604051636269cf4960e01b815260040160405180910390fd5b61295b336127d3565b335f9081526025602052604090206001015460ff1661298d57604051631878f08160e01b815260040160405180910390fd5b5f6064601c5461299c856134dc565b6129a69190614ed7565b6129b09190614eee565b6001600160a01b0384165f9081526028602052604090205490915081906129d8908490614ec4565b11156129f7576040516304bd2b1960e21b815260040160405180910390fd5b60408051608081018252338082526001600160a01b03868116602080850182815285870189815242606088019081525f96875260278452888720975188549087166001600160a01b031991821617895592516001890180549190971693169290921790945592516002860155915160039094019390935591815260289091529081208054849290612a89908490614ec4565b90915550506001600160a01b0383165f90815260286020526040902054612ab190849061426a565b6040518281526001600160a01b0384169033907ff5c2b450c3b6c4c3cc8c45e612ffa5ce51cda974e8b2ecaf58abda86d89658479060200160405180910390a3506120596001600555565b606060048054610e6990614e78565b6060602e805480602002602001604051908101604052809291908181526020018280548015610ee057602002820191905f5260205f20905b81546001600160a01b03168152600190910190602001808311612b43575050505050905090565b601d546001600160a01b03163314801590612b9057506006546001600160a01b03163314155b15612bae5760405163ea8e4eb560e01b815260040160405180910390fd5b601d54600160a01b900460ff1615612bd9576040516387ceab0160e01b815260040160405180910390fd5b7f0000000000000000000000000000000000000000000000000000000000000000612c0360025490565b1015612c22576040516390d0cc4760e01b815260040160405180910390fd5b602d545f03612c44576040516308b6a47360e41b815260040160405180910390fd5b601d805461ffff60a01b1916600160a01b179055602d545f612c86827f0000000000000000000000000000000000000000000000000000000000000000614eee565b90505f5b82811015612d4e575f602d8281548110612ca657612ca6614fd4565b5f918252602090912001546001600160a01b0316905080612cda5760405163e6c4247b60e01b815260040160405180910390fd5b826064831015612d02576064612cf1826096614ed7565b612cfb9190614eee565b9050612d25565b60c8831015612d25576064612d1882607d614ed7565b612d229190614eee565b90505b6001600160a01b039091165f908152602b6020526040902055612d4781614fe8565b9050612c8a565b50427f8f775ac6a67a8155177eacf03d476a0ada0e0de8671dcdb12b65c6e241d7ea1c8360405161286d91815260200190565b60095462010000900460ff1615612dab5760405163ab35696f60e01b815260040160405180910390fd5b5f8281526024602052604081206001810154909103612ddd57604051636ce3c70160e11b815260040160405180910390fd5b8060010154421080612df25750806002015442115b15612e1057604051632dfa5c9b60e01b815260040160405180910390fd5b335f908152600a8201602052604090205460ff1615612e4257604051637c9a1cf960e01b815260040160405180910390fd5b6009810154610100900460ff1615612e6d5760405163cf88c65760e01b815260040160405180910390fd5b335f818152600b83016020526040908190208490555184907f1f4e2aa7825ef02e85293e2de66cfbcb326af2632b558996e546bb1ef3e8764d90612eb49086815260200190565b60405180910390a3505050565b612ec9613e3a565b601d54600160a01b900460ff16612ef3576040516387ceab0160e01b815260040160405180910390fd5b335f908152602a602052604090205460ff16612f2257604051630b094f2760e31b815260040160405180910390fd5b335f908152602c602052604090205460ff1615612f5257604051630c8d9eab60e31b815260040160405180910390fd5b335f908152602b60205260408120549003612f805760405163493c1ab760e01b815260040160405180910390fd5b335f818152602b6020908152604080832054602c909252909120805460ff1916600117905590612fb0908261464b565b60405181815233907f297d75eb990c12692c7028b6d2cf422c5de200715ccf4cb9497c7ff567029cdf9060200160405180910390a25061166e6001600555565b612ff8613e3a565b60095462010000900460ff16156130225760405163ab35696f60e01b815260040160405180910390fd5b335f908152602760205260409020600101546001600160a01b031661305a5760405163e1e4e59b60e01b815260040160405180910390fd5b335f90815260276020908152604080832060018101546002909101546001600160a01b0390911680855260289093529083208054929391928392906130a0908490614f0d565b9091555050335f90815260276020908152604080832080546001600160a01b031990811682556001820180549091169055600281018490556003018390556001600160a01b038516835260289091529020546130fd90839061426a565b60405133907f6b2e7b08f80aedc85dfabf602e4cd41ccf8a9caa2961dd13719c71c3ff65bbc7905f90a2505061166e6001600555565b61313b613e3a565b60095462010000900460ff16156131655760405163ab35696f60e01b815260040160405180910390fd5b3332146131845760405162461bcd60e51b815260040161152890614fa5565b683635c9adc5dea000008110156131ae57604051638ecf3d0360e01b815260040160405180910390fd5b335f908152602081905260409020548111156131dd57604051631e9acf1760e31b815260040160405180910390fd5b335f9081526029602052604090206003015460ff161561321057604051633e560afd60e11b815260040160405180910390fd5b61321b3330836119a4565b50604080516080810182528281524260208083019182525f83850181815260016060860181815233845260299094529582209451855592519484019490945590516002830155516003909101805460ff191691151591909117905560118054839290613288908490614ec4565b90915550506040805182815242602082015233917f1449c6dd7851abc30abf37f57715f492010519147cc2652fbc38202c18a6ee90910160405180910390a26113f66001600555565b6009545f9062010000900460ff16156132fd5760405163ab35696f60e01b815260040160405180910390fd5b6001600160a01b03831661332457604051634e46966960e11b815260040160405180910390fd5b5f61332f84846146fd565b9050808015613341575060095460ff16155b15611a3957611a3961213d565b6060602d805480602002602001604051908101604052809291908181526020018280548015610ee057602002820191905f5260205f209081546001600160a01b03168152600190910190602001808311612b43575050505050905090565b6133b4613e3a565b60095462010000900460ff16156133de5760405163ab35696f60e01b815260040160405180910390fd5b6001600160a01b03821615806133fc57506001600160a01b03821633145b1561341a576040516301437f4760e31b815260040160405180910390fd5b80158061342e575061342b336134dc565b81115b1561344c576040516365e52d5160e11b815260040160405180910390fd5b613455336127d3565b335f9081526025602052604090206001015460ff1661348757604051631878f08160e01b815260040160405180910390fd5b613492308383613e64565b6040518181526001600160a01b0383169033907f1e50cdf36b7821a0ea2c0889b9a5426558cffa8eb685d3f224bb788faae557b19060200160405180910390a36120596001600555565b6009545f90610100900460ff16158061350957506001600160a01b0382165f908152602080526040902054155b1561351557505f919050565b6001600160a01b0382165f908152602560209081526040918290208251808401909352805480845260019091015460ff161515918301919091526001600160801b031642811161356857505f9392505050565b6001600160a01b0384165f90815260266020526040812054421161358c575f6135ae565b6001600160a01b0385165f908152602660205260409020546135ae9042614f0d565b90505f6103e86135c683670de0b6b3a7640000614ed7565b6135d09190614eee565b601b546001600160a01b0388165f9081526020805260408120549293509168056bc75e2d631000009184916136059190614ed7565b61360f9190614ed7565b6136199190614eee565b6001600160a01b0388165f908152602080526040902054909150811061363f575f613661565b6001600160a01b0387165f908152602080526040902054613661908290614f0d565b979650505050505050565b60236020525f90815260409020805460018201546002830180549293919261369390614e78565b80601f01602080910402602001604051908101604052809291908181526020018280546136bf90614e78565b801561370a5780601f106136e15761010080835404028352916020019161370a565b820191905f5260205f20905b8154815290600101906020018083116136ed57829003601f168201915b5050505050905083565b61371c613e3a565b60095462010000900460ff16156137465760405163ab35696f60e01b815260040160405180910390fd5b335f908152602960205260409020600381015460ff1661377957604051637d9a44a160e11b815260040160405180910390fd5b815f03613799576040516365e52d5160e11b815260040160405180910390fd5b6137a2336134dc565b8211156137c2576040516387d5b4fb60e01b815260040160405180910390fd5b80546137d090600a90614eee565b8211156137f0576040516311c2ab1f60e31b815260040160405180910390fd5b6137f9336127d3565b5f61380333613dda565b509050601954816138149190614ec4565b42101561383457604051631878f08160e01b815260040160405180910390fd5b82826002015f8282546138479190614ec4565b909155505060405183815233907f4a35c8fde6484aca5e3c4fd515e9314ca9f4a57266cdef7622cac399f20ac32a9060200160405180910390a250506113f66001600555565b60015f82815b81811015613975575f8686838181106138ae576138ae614fd4565b90506020020160208101906138c39190614a4f565b90506001600160a01b0381166138ec5760405163e6c4247b60e01b815260040160405180910390fd5b5f6138f6826134dc565b90506139028186614ec4565b6001600160a01b0383165f90815260208052604090205490955015801590613928575080155b801561395357506001600160a01b0382165f908152602560205260409020546001600160801b031642105b15613962575f95505050613975565b50508061396e90614fe8565b9050613893565b50509250929050565b60095462010000900460ff16156139a85760405163ab35696f60e01b815260040160405180910390fd5b69152d02c7e14af68000006139bc336134dc565b10156139db57604051631e9acf1760e31b815260040160405180910390fd5b335f908152600860205260409020546139f89062278d0090614ec4565b421015613a185760405163fd7af65f60e01b815260040160405180910390fd5b600281600b811115613a2c57613a2c614ac2565b1480613a495750600581600b811115613a4757613a47614ac2565b145b613a675782158015613a6257506001600160a01b038216155b613a6b565b8351155b15613a89576040516337ad598360e01b815260040160405180910390fd5b60165f8154613a9790614fe8565b909155506016545f8181526024602052604090209081556006810180546001600160a01b0319163317905560088101613ad086826150c3565b50600381018490556007810180546001600160a01b0319166001600160a01b03851617905560098101805483919060ff1916600183600b811115613b1657613b16614ac2565b02179055504260018201819055613b319062093a8090614ec4565b6002820155335f8181526008602052604090819020429055825490517f64147b1d4b260ddd199f9e9a7c1d4e444605245a354c18a74fdcc8e9004da33e90613b7c908990879061517f565b60405180910390a35050505050565b613b9361467f565b6001600160a01b038116613bbc57604051631e4fbdf760e01b81525f6004820152602401611528565b6113f6816146ac565b60095462010000900460ff1615613bef5760405163ab35696f60e01b815260040160405180910390fd5b5f8381526024602052604081206001810154909103613c2157604051636ce3c70160e11b815260040160405180910390fd5b8060010154421080613c365750806002015442115b15613c5457604051632dfa5c9b60e01b815260040160405180910390fd5b335f908152600a8201602052604090205460ff1615613c8657604051637c9a1cf960e01b815260040160405180910390fd5b6009810154610100900460ff1615613cb15760405163cf88c65760e01b815260040160405180910390fd5b60408051841515602082015290810183905233606082015260800160408051601f198184030181529181528151602092830120335f908152600b850190935291205414613d115760405163b7b3378760e01b815260040160405180910390fd5b613d1a336127d3565b5f613d24336134dc565b9050805f03613d465760405163e100018160e01b815260040160405180910390fd5b335f908152600a830160205260409020805460ff191660011790558315613d855780826004015f828254613d7a9190614ec4565b90915550613d9e9050565b80826005015f828254613d989190614ec4565b90915550505b60408051851515815260208101839052339187917f96b7e5dbd1a0bb4b34731d1dfce6ea83eab3fadbf4710c77ad43106f771f90fb9101613b7c565b6001600160a01b03165f908152602560209081526040918290208251808401909352805480845260019091015460ff1615159290910191909152608081901c916001600160801b0390911690565b613e35838383600161470a565b505050565b600260055403613e5d57604051633ee5aeb560e01b815260040160405180910390fd5b6002600555565b604080516001600160a01b038416602482015260448082018490528251808303909101815260649091019091526020810180516001600160e01b031663a9059cbb60e01b179052613e359084906147dc565b601d546001600160a01b03163314613ee15760405163ea8e4eb560e01b815260040160405180910390fd5b600283600b811115613ef557613ef5614ac2565b03613f1c576009805462ff0000198116620100009182900460ff16159091021790556141dd565b5f83600b811115613f2f57613f2f614ac2565b03613f8857811580613f6057507f000000000000000000000000000000000000000000000000000000000000000082115b15613f7e576040516302075cc160e41b815260040160405180910390fd5b600f8290556141dd565b600183600b811115613f9c57613f9c614ac2565b03613fd657811580613fae5750606482115b15613fcc576040516308af88a160e21b815260040160405180910390fd5b60128290556141dd565b600683600b811115613fea57613fea614ac2565b03614029576103e882108061400157506298968082115b1561401f576040516353a66d7160e01b815260040160405180910390fd5b60198290556141dd565b600783600b81111561403d5761403d614ac2565b0361407d5761271082108061405557506305f5e10082115b1561407357604051634ee281d960e01b815260040160405180910390fd5b601a8290556141dd565b600883600b81111561409157614091614ac2565b036140cb578115806140a35750600a82115b156140c157604051635ac789e360e01b815260040160405180910390fd5b601b8290556141dd565b600b83600b8111156140df576140df614ac2565b03614119578115806140f15750603282115b1561410f576040516311d148a560e31b815260040160405180910390fd5b601c8290556141dd565b600983600b81111561412d5761412d614ac2565b036141915769d3c21bcecceda100000082108061416957507f000000000000000000000000000000000000000000000000000000000000000082115b156141875760405163e2d9bbff60e01b815260040160405180910390fd5b60138290556141dd565b600a83600b8111156141a5576141a5614ac2565b036141dd57600a8210806141b95750605a82115b156141d757604051631f58673560e01b815260040160405180910390fd5b60148290555b82600b8111156141ef576141ef614ac2565b604080518481526001600160a01b03841660208201527ffc0390d67ebdc63d4aed005ea60c5adc2f760de6ad9846edc5b471828a80dd4891015b60405180910390a2505050565b6001600160a01b03821661425f57604051634b637e8f60e11b81525f6004820152602401611528565b612059825f83614848565b602e545f5b8181101561436f57836001600160a01b0316602e828154811061429457614294614fd4565b5f918252602090912001546001600160a01b03160361435f57825f0361435957602e6142c1600184614f0d565b815481106142d1576142d1614fd4565b5f91825260209091200154602e80546001600160a01b0390921691839081106142fc576142fc614fd4565b905f5260205f20015f6101000a8154816001600160a01b0302191690836001600160a01b03160217905550602e805480614338576143386151a0565b5f8281526020902081015f1990810180546001600160a01b03191690550190555b50505050565b61436881614fe8565b905061426f565b50811580159061437f5750600a81105b15613e3557602e80546001810182555f919091527f37fa166cbdbfbb1561ccd9ea985ec0218b5e68502e230525f544285b2bdf3d7e0180546001600160a01b0385166001600160a01b0319909116179055505050565b5f336143e2858285614961565b6143ed8585856149d7565b506001949350505050565b600954610100900460ff16158061442457506001600160a01b0381165f90815260208052604090205415155b8061444457506001600160a01b0381165f90815260216020526040902054155b15614462576040516354d8723760e01b815260040160405180910390fd5b7f0000000000000000000000000000000000000000000000000000000000000000600b5411156144a5576040516387d5b4fb60e01b815260040160405180910390fd5b6001600160a01b0381165f908152602160205260408120547f0000000000000000000000000000000000000000000000000000000000000000906144f6906b033b2e3c9fd0803ce800000090614ed7565b6145009190614eee565b90506103e8601054101561454457606461451b600a83614ed7565b6145259190614eee565b61452f9082614ec4565b905060105f815461453f90614fe8565b909155505b805f036145645760405163374c934360e11b815260040160405180910390fd5b6001600160a01b038083165f908152602260205260409020541680156145ed575f6064614592600585614ed7565b61459c9190614eee565b90506145a8828261464b565b816001600160a01b03167f050bae3eeefac62a4ee36c766f4f426f09edf96ae8fb3034ebbf961e4acc78e2826040516145e391815260200190565b60405180910390a2505b6001600160a01b0383165f9081526020805260409020829055614610838361464b565b826001600160a01b03167fb60ccdad08a990849494cadc2278b346a8742fb757e67c422f71e3e64fb77b458360405161422991815260200190565b6001600160a01b0382166146745760405163ec442f0560e01b81525f6004820152602401611528565b6120595f8383614848565b6006546001600160a01b0316331461166e5760405163118cdaa760e01b8152336004820152602401611528565b600680546001600160a01b038381166001600160a01b0319831681179093556040519116919082907f8be0079c531659141344cd1fd0a4f28419497f9722a3daafe3b4186f6b6457e0905f90a35050565b5f33610ef78185856149d7565b6001600160a01b0384166147335760405163e602df0560e01b81525f6004820152602401611528565b6001600160a01b03831661475c57604051634a1406b160e11b81525f6004820152602401611528565b6001600160a01b038085165f908152600160209081526040808320938716835292905220829055801561435957826001600160a01b0316846001600160a01b03167f8c5be1e5ebec7d5bd14f71427d1e84f3dd0314c0f7b2291e5b200ac8c7c3b925846040516147ce91815260200190565b60405180910390a350505050565b5f8060205f8451602086015f885af1806147fb576040513d5f823e3d81fd5b50505f513d9150811561481257806001141561481f565b6001600160a01b0384163b155b1561435957604051635274afe760e01b81526001600160a01b0385166004820152602401611528565b6001600160a01b038316614872578060025f8282546148679190614ec4565b909155506148e29050565b6001600160a01b0383165f90815260208190526040902054818110156148c45760405163391434e360e21b81526001600160a01b03851660048201526024810182905260448101839052606401611528565b6001600160a01b0384165f9081526020819052604090209082900390555b6001600160a01b0382166148fe5760028054829003905561491c565b6001600160a01b0382165f9081526020819052604090208054820190555b816001600160a01b0316836001600160a01b03167fddf252ad1be2c89b69c2b068fc378daa952ba7f163c4a11628f55a4df523b3ef83604051612eb491815260200190565b6001600160a01b038381165f908152600160209081526040808320938616835292905220545f1981101561435957818110156149c957604051637dc7a0d960e11b81526001600160a01b03841660048201526024810182905260448101839052606401611528565b61435984848484035f61470a565b6001600160a01b038316614a0057604051634b637e8f60e11b81525f6004820152602401611528565b6001600160a01b038216614a295760405163ec442f0560e01b81525f6004820152602401611528565b613e35838383614848565b80356001600160a01b0381168114614a4a575f80fd5b919050565b5f60208284031215614a5f575f80fd5b611a3982614a34565b5f60208284031215614a78575f80fd5b5035919050565b5f81518084525f5b81811015614aa357602081850181015186830182015201614a87565b505f602082860101526020601f19601f83011685010191505092915050565b634e487b7160e01b5f52602160045260245ffd5b600c8110614af257634e487b7160e01b5f52602160045260245ffd5b9052565b5f6101608d83528c60208401528b60408401528a60608401528960808401528860a084015260018060a01b0380891660c085015280881660e08501525080610100840152614b4681840187614a7f565b915050614b57610120830185614ad6565b8215156101408301529c9b505050505050505050505050565b602081525f611a396020830184614a7f565b5f8060408385031215614b93575f80fd5b614b9c83614a34565b946020939093013593505050565b5f805f60608486031215614bbc575f80fd5b614bc584614a34565b9250614bd360208501614a34565b9150604084013590509250925092565b80358015158114614a4a575f80fd5b5f60208284031215614c02575f80fd5b611a3982614be3565b5f8060208385031215614c1c575f80fd5b823567ffffffffffffffff80821115614c33575f80fd5b818501915085601f830112614c46575f80fd5b813581811115614c54575f80fd5b8660208260051b8501011115614c68575f80fd5b60209290920196919550909350505050565b602080825282518282018190525f9190848201906040850190845b81811015614cba5783516001600160a01b031683529284019291840191600101614c95565b50909695505050505050565b5f8060408385031215614cd7575f80fd5b50508035926020909101359150565b838152826020820152606060408201525f614d046060830184614a7f565b95945050505050565b5f8060408385031215614d1e575f80fd5b614d2783614a34565b9150614d3560208401614a34565b90509250929050565b634e487b7160e01b5f52604160045260245ffd5b8035600c8110614a4a575f80fd5b5f805f8060808587031215614d73575f80fd5b843567ffffffffffffffff80821115614d8a575f80fd5b818701915087601f830112614d9d575f80fd5b813581811115614daf57614daf614d3e565b604051601f8201601f19908116603f01168101908382118183101715614dd757614dd7614d3e565b816040528281528a6020848701011115614def575f80fd5b826020860160208301375f60208483010152809850505050505060208501359250614e1c60408601614a34565b9150614e2a60608601614d52565b905092959194509250565b5f8060408385031215614e46575f80fd5b82359150614d3560208401614a34565b5f805f60608486031215614e68575f80fd5b83359250614bd360208501614be3565b600181811c90821680614e8c57607f821691505b602082108103614eaa57634e487b7160e01b5f52602260045260245ffd5b50919050565b634e487b7160e01b5f52601160045260245ffd5b80820180821115610efd57610efd614eb0565b8082028115828204841417610efd57610efd614eb0565b5f82614f0857634e487b7160e01b5f52601260045260245ffd5b500490565b81810381811115610efd57610efd614eb0565b5f60208083525f8454614f3281614e78565b8084870152604060018084165f8114614f525760018114614f6c57614f97565b60ff1985168984015283151560051b890183019550614f97565b895f52865f205f5b85811015614f8f5781548b8201860152908301908801614f74565b8a0184019650505b509398975050505050505050565b60208082526015908201527410dbdb9d1c9858dd1cc81b9bdd08185b1b1bddd959605a1b604082015260600190565b634e487b7160e01b5f52603260045260245ffd5b5f60018201614ff957614ff9614eb0565b5060010190565b5f8184825b85811015615034576001600160a01b0361501e83614a34565b1683526020928301929190910190600101615005565b509095945050505050565b602080825282518282018190525f9190848201906040850190845b81811015614cba5783518352928401929184019160010161505a565b601f821115613e35575f81815260208120601f850160051c8101602086101561509c5750805b601f850160051c820191505b818110156150bb578281556001016150a8565b505050505050565b815167ffffffffffffffff8111156150dd576150dd614d3e565b6150f1816150eb8454614e78565b84615076565b602080601f831160018114615124575f841561510d5750858301515b5f19600386901b1c1916600185901b1785556150bb565b5f85815260208120601f198616915b8281101561515257888601518255948401946001909101908401615133565b508582101561516f57878501515f19600388901b60f8161c191681555b5050505050600190811b01905550565b604081525f6151916040830185614a7f565b9050611a396020830184614ad6565b634e487b7160e01b5f52603160045260245ffdfea264697066735822122089e19c3c2cdf6c56166db24e01f98e1419d1ce8ad640411286bc841f382772bb64736f6c63430008140033",
		"opcodes": "PUSH2 0x120 PUSH1 0x40 MSTORE PUSH12 0x204FCE5E3E25026110000000 PUSH1 0x80 MSTORE PUSH12 0x169E43A85EB381AA58000000 PUSH1 0xA0 MSTORE PUSH12 0x19D971E4FE8401E74000000 PUSH1 0xC0 MSTORE PUSH12 0x33B2E3C9FD0803CE8000000 PUSH1 0xE0 DUP2 SWAP1 MSTORE PUSH2 0x100 MSTORE PUSH11 0x52B7D2DCC80CD2E4000000 PUSH1 0xF SSTORE PUSH1 0x5 PUSH1 0x12 SSTORE PUSH11 0x84595161401484A000000 PUSH1 0x13 SSTORE PUSH1 0x32 PUSH1 0x14 SWAP1 DUP2 SSTORE PUSH2 0x2710 PUSH1 0x19 SSTORE PUSH3 0x186A0 PUSH1 0x1A SSTORE PUSH1 0x1 PUSH1 0x1B SSTORE PUSH1 0x1C SSTORE PUSH1 0x1D DUP1 SLOAD PUSH1 0xFF PUSH1 0xA8 SHL NOT AND PUSH1 0x1 PUSH1 0xA8 SHL OR SWAP1 SSTORE CALLVALUE DUP1 ISZERO PUSH3 0xA9 JUMPI PUSH0 DUP1 REVERT JUMPDEST POP PUSH1 0x40 MLOAD PUSH3 0x580B CODESIZE SUB DUP1 PUSH3 0x580B DUP4 CODECOPY DUP2 ADD PUSH1 0x40 DUP2 SWAP1 MSTORE PUSH3 0xCC SWAP2 PUSH3 0x3B6 JUMP JUMPDEST PUSH1 0x40 DUP1 MLOAD DUP1 DUP3 ADD DUP3 MSTORE PUSH1 0x5 DUP1 DUP3 MSTORE PUSH5 0x5441414D53 PUSH1 0xD8 SHL PUSH1 0x20 DUP1 DUP5 ADD DUP3 SWAP1 MSTORE DUP5 MLOAD DUP1 DUP7 ADD SWAP1 SWAP6 MSTORE SWAP2 DUP5 MSTORE SWAP1 DUP4 ADD MSTORE DUP3 SWAP2 PUSH1 0x3 PUSH3 0x10A DUP4 DUP3 PUSH3 0x485 JUMP JUMPDEST POP PUSH1 0x4 PUSH3 0x119 DUP3 DUP3 PUSH3 0x485 JUMP JUMPDEST POP POP PUSH1 0x1 PUSH1 0x5 SSTORE POP PUSH1 0x1 PUSH1 0x1 PUSH1 0xA0 SHL SUB DUP2 AND PUSH3 0x150 JUMPI PUSH1 0x40 MLOAD PUSH4 0x1E4FBDF7 PUSH1 0xE0 SHL DUP2 MSTORE PUSH0 PUSH1 0x4 DUP3 ADD MSTORE PUSH1 0x24 ADD JUMPDEST PUSH1 0x40 MLOAD DUP1 SWAP2 SUB SWAP1 REVERT JUMPDEST PUSH3 0x15B DUP2 PUSH3 0x1FA JUMP JUMPDEST POP PUSH20 0x94F7A6FD45185038DDB85ED43C6707DDAB806FFE PUSH20 0x4FF3D1D554F080B0682A780C8531178DDD99F546 PUSH12 0x19D971E4FE8401E740000000 PUSH12 0x33B2E3C9FD0803CE8000000 DUP1 PUSH3 0x1AD ADDRESS DUP5 PUSH3 0x24B JUMP JUMPDEST PUSH3 0x1B9 DUP5 DUP4 PUSH3 0x24B JUMP JUMPDEST PUSH3 0x1C5 DUP6 DUP3 PUSH3 0x24B JUMP JUMPDEST POP POP TIMESTAMP PUSH1 0x17 SSTORE POP POP PUSH1 0x7 DUP1 SLOAD PUSH1 0x1 PUSH1 0x1 PUSH1 0xA0 SHL SUB NOT AND PUSH1 0x1 PUSH1 0x1 PUSH1 0xA0 SHL SUB SWAP3 SWAP1 SWAP3 AND SWAP2 SWAP1 SWAP2 OR SWAP1 SSTORE POP PUSH1 0xA0 MLOAD PUSH1 0xA SSTORE PUSH3 0x573 JUMP JUMPDEST PUSH1 0x6 DUP1 SLOAD PUSH1 0x1 PUSH1 0x1 PUSH1 0xA0 SHL SUB DUP4 DUP2 AND PUSH1 0x1 PUSH1 0x1 PUSH1 0xA0 SHL SUB NOT DUP4 AND DUP2 OR SWAP1 SWAP4 SSTORE PUSH1 0x40 MLOAD SWAP2 AND SWAP2 SWAP1 DUP3 SWAP1 PUSH32 0x8BE0079C531659141344CD1FD0A4F28419497F9722A3DAAFE3B4186F6B6457E0 SWAP1 PUSH0 SWAP1 LOG3 POP POP JUMP JUMPDEST PUSH1 0x1 PUSH1 0x1 PUSH1 0xA0 SHL SUB DUP3 AND PUSH3 0x276 JUMPI PUSH1 0x40 MLOAD PUSH4 0xEC442F05 PUSH1 0xE0 SHL DUP2 MSTORE PUSH0 PUSH1 0x4 DUP3 ADD MSTORE PUSH1 0x24 ADD PUSH3 0x147 JUMP JUMPDEST PUSH3 0x283 PUSH0 DUP4 DUP4 PUSH3 0x287 JUMP JUMPDEST POP POP JUMP JUMPDEST PUSH1 0x1 PUSH1 0x1 PUSH1 0xA0 SHL SUB DUP4 AND PUSH3 0x2B5 JUMPI DUP1 PUSH1 0x2 PUSH0 DUP3 DUP3 SLOAD PUSH3 0x2A9 SWAP2 SWAP1 PUSH3 0x54D JUMP JUMPDEST SWAP1 SWAP2 SSTORE POP PUSH3 0x327 SWAP1 POP JUMP JUMPDEST PUSH1 0x1 PUSH1 0x1 PUSH1 0xA0 SHL SUB DUP4 AND PUSH0 SWAP1 DUP2 MSTORE PUSH1 0x20 DUP2 SWAP1 MSTORE PUSH1 0x40 SWAP1 KECCAK256 SLOAD DUP2 DUP2 LT ISZERO PUSH3 0x309 JUMPI PUSH1 0x40 MLOAD PUSH4 0x391434E3 PUSH1 0xE2 SHL DUP2 MSTORE PUSH1 0x1 PUSH1 0x1 PUSH1 0xA0 SHL SUB DUP6 AND PUSH1 0x4 DUP3 ADD MSTORE PUSH1 0x24 DUP2 ADD DUP3 SWAP1 MSTORE PUSH1 0x44 DUP2 ADD DUP4 SWAP1 MSTORE PUSH1 0x64 ADD PUSH3 0x147 JUMP JUMPDEST PUSH1 0x1 PUSH1 0x1 PUSH1 0xA0 SHL SUB DUP5 AND PUSH0 SWAP1 DUP2 MSTORE PUSH1 0x20 DUP2 SWAP1 MSTORE PUSH1 0x40 SWAP1 KECCAK256 SWAP1 DUP3 SWAP1 SUB SWAP1 SSTORE JUMPDEST PUSH1 0x1 PUSH1 0x1 PUSH1 0xA0 SHL SUB DUP3 AND PUSH3 0x345 JUMPI PUSH1 0x2 DUP1 SLOAD DUP3 SWAP1 SUB SWAP1 SSTORE PUSH3 0x363 JUMP JUMPDEST PUSH1 0x1 PUSH1 0x1 PUSH1 0xA0 SHL SUB DUP3 AND PUSH0 SWAP1 DUP2 MSTORE PUSH1 0x20 DUP2 SWAP1 MSTORE PUSH1 0x40 SWAP1 KECCAK256 DUP1 SLOAD DUP3 ADD SWAP1 SSTORE JUMPDEST DUP2 PUSH1 0x1 PUSH1 0x1 PUSH1 0xA0 SHL SUB AND DUP4 PUSH1 0x1 PUSH1 0x1 PUSH1 0xA0 SHL SUB AND PUSH32 0xDDF252AD1BE2C89B69C2B068FC378DAA952BA7F163C4A11628F55A4DF523B3EF DUP4 PUSH1 0x40 MLOAD PUSH3 0x3A9 SWAP2 DUP2 MSTORE PUSH1 0x20 ADD SWAP1 JUMP JUMPDEST PUSH1 0x40 MLOAD DUP1 SWAP2 SUB SWAP1 LOG3 POP POP POP JUMP JUMPDEST PUSH0 PUSH1 0x20 DUP3 DUP5 SUB SLT ISZERO PUSH3 0x3C7 JUMPI PUSH0 DUP1 REVERT JUMPDEST DUP2 MLOAD PUSH1 0x1 PUSH1 0x1 PUSH1 0xA0 SHL SUB DUP2 AND DUP2 EQ PUSH3 0x3DE JUMPI PUSH0 DUP1 REVERT JUMPDEST SWAP4 SWAP3 POP POP POP JUMP JUMPDEST PUSH4 0x4E487B71 PUSH1 0xE0 SHL PUSH0 MSTORE PUSH1 0x41 PUSH1 0x4 MSTORE PUSH1 0x24 PUSH0 REVERT JUMPDEST PUSH1 0x1 DUP2 DUP2 SHR SWAP1 DUP3 AND DUP1 PUSH3 0x40E JUMPI PUSH1 0x7F DUP3 AND SWAP2 POP JUMPDEST PUSH1 0x20 DUP3 LT DUP2 SUB PUSH3 0x42D JUMPI PUSH4 0x4E487B71 PUSH1 0xE0 SHL PUSH0 MSTORE PUSH1 0x22 PUSH1 0x4 MSTORE PUSH1 0x24 PUSH0 REVERT JUMPDEST POP SWAP2 SWAP1 POP JUMP JUMPDEST PUSH1 0x1F DUP3 GT ISZERO PUSH3 0x480 JUMPI PUSH0 DUP2 DUP2 MSTORE PUSH1 0x20 DUP2 KECCAK256 PUSH1 0x1F DUP6 ADD PUSH1 0x5 SHR DUP2 ADD PUSH1 0x20 DUP7 LT ISZERO PUSH3 0x45B JUMPI POP DUP1 JUMPDEST PUSH1 0x1F DUP6 ADD PUSH1 0x5 SHR DUP3 ADD SWAP2 POP JUMPDEST DUP2 DUP2 LT ISZERO PUSH3 0x47C JUMPI DUP3 DUP2 SSTORE PUSH1 0x1 ADD PUSH3 0x467 JUMP JUMPDEST POP POP POP JUMPDEST POP POP POP JUMP JUMPDEST DUP2 MLOAD PUSH1 0x1 PUSH1 0x1 PUSH1 0x40 SHL SUB DUP2 GT ISZERO PUSH3 0x4A1 JUMPI PUSH3 0x4A1 PUSH3 0x3E5 JUMP JUMPDEST PUSH3 0x4B9 DUP2 PUSH3 0x4B2 DUP5 SLOAD PUSH3 0x3F9 JUMP JUMPDEST DUP5 PUSH3 0x433 JUMP JUMPDEST PUSH1 0x20 DUP1 PUSH1 0x1F DUP4 GT PUSH1 0x1 DUP2 EQ PUSH3 0x4EF JUMPI PUSH0 DUP5 ISZERO PUSH3 0x4D7 JUMPI POP DUP6 DUP4 ADD MLOAD JUMPDEST PUSH0 NOT PUSH1 0x3 DUP7 SWAP1 SHL SHR NOT AND PUSH1 0x1 DUP6 SWAP1 SHL OR DUP6 SSTORE PUSH3 0x47C JUMP JUMPDEST PUSH0 DUP6 DUP2 MSTORE PUSH1 0x20 DUP2 KECCAK256 PUSH1 0x1F NOT DUP7 AND SWAP2 JUMPDEST DUP3 DUP2 LT ISZERO PUSH3 0x51F JUMPI DUP9 DUP7 ADD MLOAD DUP3 SSTORE SWAP5 DUP5 ADD SWAP5 PUSH1 0x1 SWAP1 SWAP2 ADD SWAP1 DUP5 ADD PUSH3 0x4FE JUMP JUMPDEST POP DUP6 DUP3 LT ISZERO PUSH3 0x53D JUMPI DUP8 DUP6 ADD MLOAD PUSH0 NOT PUSH1 0x3 DUP9 SWAP1 SHL PUSH1 0xF8 AND SHR NOT AND DUP2 SSTORE JUMPDEST POP POP POP POP POP PUSH1 0x1 SWAP1 DUP2 SHL ADD SWAP1 SSTORE POP JUMP JUMPDEST DUP1 DUP3 ADD DUP1 DUP3 GT ISZERO PUSH3 0x56D JUMPI PUSH4 0x4E487B71 PUSH1 0xE0 SHL PUSH0 MSTORE PUSH1 0x11 PUSH1 0x4 MSTORE PUSH1 0x24 PUSH0 REVERT JUMPDEST SWAP3 SWAP2 POP POP JUMP JUMPDEST PUSH1 0x80 MLOAD PUSH1 0xA0 MLOAD PUSH1 0xC0 MLOAD PUSH1 0xE0 MLOAD PUSH2 0x100 MLOAD PUSH2 0x51EA PUSH3 0x621 PUSH0 CODECOPY PUSH0 DUP2 DUP2 PUSH2 0x83E ADD MSTORE DUP2 DUP2 PUSH2 0x1E8D ADD MSTORE DUP2 DUP2 PUSH2 0x206E ADD MSTORE DUP2 DUP2 PUSH2 0x20A0 ADD MSTORE DUP2 DUP2 PUSH2 0x20E5 ADD MSTORE DUP2 DUP2 PUSH2 0x2435 ADD MSTORE DUP2 DUP2 PUSH2 0x24AF ADD MSTORE DUP2 DUP2 PUSH2 0x24F4 ADD MSTORE DUP2 DUP2 PUSH2 0x251C ADD MSTORE DUP2 DUP2 PUSH2 0x2750 ADD MSTORE DUP2 DUP2 PUSH2 0x3F3E ADD MSTORE DUP2 DUP2 PUSH2 0x4464 ADD MSTORE PUSH2 0x44BF ADD MSTORE PUSH0 DUP2 DUP2 PUSH2 0xB2E ADD MSTORE DUP2 DUP2 PUSH2 0x21BD ADD MSTORE PUSH2 0x2BDB ADD MSTORE PUSH0 DUP2 DUP2 PUSH2 0xC9D ADD MSTORE PUSH2 0x2C62 ADD MSTORE PUSH0 PUSH2 0x735 ADD MSTORE PUSH0 DUP2 DUP2 PUSH2 0x706 ADD MSTORE PUSH2 0x4147 ADD MSTORE PUSH2 0x51EA PUSH0 RETURN INVALID PUSH1 0x80 PUSH1 0x40 MSTORE CALLVALUE DUP1 ISZERO PUSH2 0xF JUMPI PUSH0 DUP1 REVERT JUMPDEST POP PUSH1 0x4 CALLDATASIZE LT PUSH2 0x4E7 JUMPI PUSH0 CALLDATALOAD PUSH1 0xE0 SHR DUP1 PUSH4 0x786FF4BE GT PUSH2 0x28F JUMPI DUP1 PUSH4 0xA9059CBB GT PUSH2 0x161 JUMPI DUP1 PUSH4 0xD89135CD GT PUSH2 0xD5 JUMPI DUP1 PUSH4 0xE016A04C GT PUSH2 0x8F JUMPI DUP1 PUSH4 0xE016A04C EQ PUSH2 0xCBF JUMPI DUP1 PUSH4 0xE2A6EC78 EQ PUSH2 0xCD2 JUMPI DUP1 PUSH4 0xF2FDE38B EQ PUSH2 0xCF1 JUMPI DUP1 PUSH4 0xF5F1E6B0 EQ PUSH2 0xD04 JUMPI DUP1 PUSH4 0xFACC092F EQ PUSH2 0xD2E JUMPI DUP1 PUSH4 0xFBEA5B3B EQ PUSH2 0xD41 JUMPI PUSH0 DUP1 REVERT JUMPDEST DUP1 PUSH4 0xD89135CD EQ PUSH2 0xC05 JUMPI DUP1 PUSH4 0xDA35C664 EQ PUSH2 0xC0E JUMPI DUP1 PUSH4 0xDCFCF974 EQ PUSH2 0xC17 JUMPI DUP1 PUSH4 0xDD62ED3E EQ PUSH2 0xC41 JUMPI DUP1 PUSH4 0xDE1CF4AD EQ PUSH2 0xC79 JUMPI DUP1 PUSH4 0xDFC06C29 EQ PUSH2 0xC98 JUMPI PUSH0 DUP1 REVERT JUMPDEST DUP1 PUSH4 0xBA59931D GT PUSH2 0x126 JUMPI DUP1 PUSH4 0xBA59931D EQ PUSH2 0xB63 JUMPI DUP1 PUSH4 0xBCEA610E EQ PUSH2 0xB76 JUMPI DUP1 PUSH4 0xC998C53F EQ PUSH2 0xB98 JUMPI DUP1 PUSH4 0xCA409D81 EQ PUSH2 0xBD6 JUMPI DUP1 PUSH4 0xCCD82CD6 EQ PUSH2 0xBE9 JUMPI DUP1 PUSH4 0xD2E518C5 EQ PUSH2 0xBF2 JUMPI PUSH0 DUP1 REVERT JUMPDEST DUP1 PUSH4 0xA9059CBB EQ PUSH2 0xAFB JUMPI DUP1 PUSH4 0xB08E181E EQ PUSH2 0xB0E JUMPI DUP1 PUSH4 0xB172B222 EQ PUSH2 0xB16 JUMPI DUP1 PUSH4 0xB4AC4536 EQ PUSH2 0xB29 JUMPI DUP1 PUSH4 0xB8FCA4FC EQ PUSH2 0xB50 JUMPI PUSH0 DUP1 REVERT JUMPDEST DUP1 PUSH4 0x95D89B41 GT PUSH2 0x203 JUMPI DUP1 PUSH4 0x9CA423B3 GT PUSH2 0x1BD JUMPI DUP1 PUSH4 0x9CA423B3 EQ PUSH2 0xA94 JUMPI DUP1 PUSH4 0x9DA69180 EQ PUSH2 0xABC JUMPI DUP1 PUSH4 0xA0EF4D0E EQ PUSH2 0xACF JUMPI DUP1 PUSH4 0xA2906FD0 EQ PUSH2 0xAD8 JUMPI DUP1 PUSH4 0xA4D31805 EQ PUSH2 0xAE0 JUMPI DUP1 PUSH4 0xA694FC3A EQ PUSH2 0xAE8 JUMPI PUSH0 DUP1 REVERT JUMPDEST DUP1 PUSH4 0x95D89B41 EQ PUSH2 0x9ED JUMPI DUP1 PUSH4 0x96ADBF8C EQ PUSH2 0x9F5 JUMPI DUP1 PUSH4 0x9885B7E1 EQ PUSH2 0xA02 JUMPI DUP1 PUSH4 0x99AA12BB EQ PUSH2 0xA17 JUMPI DUP1 PUSH4 0x9A63F604 EQ PUSH2 0xA83 JUMPI DUP1 PUSH4 0x9BFDAE5E EQ PUSH2 0xA8B JUMPI PUSH0 DUP1 REVERT JUMPDEST DUP1 PUSH4 0x7F09DC31 GT PUSH2 0x254 JUMPI DUP1 PUSH4 0x7F09DC31 EQ PUSH2 0x99B JUMPI DUP1 PUSH4 0x80A78549 EQ PUSH2 0x9AE JUMPI DUP1 PUSH4 0x817B1CD2 EQ PUSH2 0x9B7 JUMPI DUP1 PUSH4 0x8DA5CB5B EQ PUSH2 0x9C0 JUMPI DUP1 PUSH4 0x926F7327 EQ PUSH2 0x9D1 JUMPI DUP1 PUSH4 0x938D40E8 EQ PUSH2 0x9E4 JUMPI PUSH0 DUP1 REVERT JUMPDEST DUP1 PUSH4 0x786FF4BE EQ PUSH2 0x912 JUMPI DUP1 PUSH4 0x7BDE5DF8 EQ PUSH2 0x925 JUMPI DUP1 PUSH4 0x7C7E62E5 EQ PUSH2 0x938 JUMPI DUP1 PUSH4 0x7D58AEB6 EQ PUSH2 0x95A JUMPI DUP1 PUSH4 0x7ED3DEBA EQ PUSH2 0x97C JUMPI PUSH0 DUP1 REVERT JUMPDEST DUP1 PUSH4 0x302A6528 GT PUSH2 0x3C8 JUMPI DUP1 PUSH4 0x5162F626 GT PUSH2 0x33C JUMPI DUP1 PUSH4 0x715018A6 GT PUSH2 0x2F6 JUMPI DUP1 PUSH4 0x715018A6 EQ PUSH2 0x891 JUMPI DUP1 PUSH4 0x72677D3C EQ PUSH2 0x899 JUMPI DUP1 PUSH4 0x72DFE348 EQ PUSH2 0x8AB JUMPI DUP1 PUSH4 0x72F721AC EQ PUSH2 0x8CA JUMPI DUP1 PUSH4 0x76C8F6D1 EQ PUSH2 0x8D3 JUMPI DUP1 PUSH4 0x77D217ED EQ PUSH2 0x8E7 JUMPI PUSH0 DUP1 REVERT JUMPDEST DUP1 PUSH4 0x5162F626 EQ PUSH2 0x814 JUMPI DUP1 PUSH4 0x5778712C EQ PUSH2 0x81C JUMPI DUP1 PUSH4 0x6A9B1FBF EQ PUSH2 0x830 JUMPI DUP1 PUSH4 0x6D0E4378 EQ PUSH2 0x839 JUMPI DUP1 PUSH4 0x6DBFAD91 EQ PUSH2 0x860 JUMPI DUP1 PUSH4 0x70A08231 EQ PUSH2 0x869 JUMPI PUSH0 DUP1 REVERT JUMPDEST DUP1 PUSH4 0x3667CA1B GT PUSH2 0x38D JUMPI DUP1 PUSH4 0x3667CA1B EQ PUSH2 0x730 JUMPI DUP1 PUSH4 0x3CC39F16 EQ PUSH2 0x757 JUMPI DUP1 PUSH4 0x40D74F18 EQ PUSH2 0x779 JUMPI DUP1 PUSH4 0x413236F7 EQ PUSH2 0x7F8 JUMPI DUP1 PUSH4 0x44512CA6 EQ PUSH2 0x801 JUMPI DUP1 PUSH4 0x467F67F9 EQ PUSH2 0x80A JUMPI PUSH0 DUP1 REVERT JUMPDEST DUP1 PUSH4 0x302A6528 EQ PUSH2 0x6D6 JUMPI DUP1 PUSH4 0x30373133 EQ PUSH2 0x6DF JUMPI DUP1 PUSH4 0x313CE567 EQ PUSH2 0x6F2 JUMPI DUP1 PUSH4 0x32CB6B0C EQ PUSH2 0x701 JUMPI DUP1 PUSH4 0x3426EA46 EQ PUSH2 0x728 JUMPI PUSH0 DUP1 REVERT JUMPDEST DUP1 PUSH4 0x1AECC93A GT PUSH2 0x45F JUMPI DUP1 PUSH4 0x25AC2B92 GT PUSH2 0x424 JUMPI DUP1 PUSH4 0x25AC2B92 EQ PUSH2 0x68E JUMPI DUP1 PUSH4 0x27A489E3 EQ PUSH2 0x6A1 JUMPI DUP1 PUSH4 0x27C830A9 EQ PUSH2 0x6A9 JUMPI DUP1 PUSH4 0x297A97D7 EQ PUSH2 0x6BC JUMPI DUP1 PUSH4 0x2DEF6620 EQ PUSH2 0x6C5 JUMPI DUP1 PUSH4 0x2E80D9B6 EQ PUSH2 0x6CD JUMPI PUSH0 DUP1 REVERT JUMPDEST DUP1 PUSH4 0x1AECC93A EQ PUSH2 0x638 JUMPI DUP1 PUSH4 0x1E409127 EQ PUSH2 0x640 JUMPI DUP1 PUSH4 0x20095760 EQ PUSH2 0x65F JUMPI DUP1 PUSH4 0x21226F40 EQ PUSH2 0x672 JUMPI DUP1 PUSH4 0x23B872DD EQ PUSH2 0x67B JUMPI PUSH0 DUP1 REVERT JUMPDEST DUP1 PUSH4 0xF1A2905 GT PUSH2 0x4B0 JUMPI DUP1 PUSH4 0xF1A2905 EQ PUSH2 0x593 JUMPI DUP1 PUSH4 0x1129753F EQ PUSH2 0x59C JUMPI DUP1 PUSH4 0x1247D4F7 EQ PUSH2 0x5AF JUMPI DUP1 PUSH4 0x16934FC4 EQ PUSH2 0x5CE JUMPI DUP1 PUSH4 0x18160DDD EQ PUSH2 0x627 JUMPI DUP1 PUSH4 0x184D1B93 EQ PUSH2 0x62F JUMPI PUSH0 DUP1 REVERT JUMPDEST DUP1 PUSH3 0x429BD1 EQ PUSH2 0x4EB JUMPI DUP1 PUSH4 0x13CF08B EQ PUSH2 0x51C JUMPI DUP1 PUSH4 0x6FDDE03 EQ PUSH2 0x546 JUMPI DUP1 PUSH4 0x95EA7B3 EQ PUSH2 0x55B JUMPI DUP1 PUSH4 0xD61B519 EQ PUSH2 0x57E JUMPI JUMPDEST PUSH0 DUP1 REVERT JUMPDEST PUSH2 0x509 PUSH2 0x4F9 CALLDATASIZE PUSH1 0x4 PUSH2 0x4A4F JUMP JUMPDEST PUSH1 0x20 DUP1 MSTORE PUSH0 SWAP1 DUP2 MSTORE PUSH1 0x40 SWAP1 KECCAK256 SLOAD DUP2 JUMP JUMPDEST PUSH1 0x40 MLOAD SWAP1 DUP2 MSTORE PUSH1 0x20 ADD JUMPDEST PUSH1 0x40 MLOAD DUP1 SWAP2 SUB SWAP1 RETURN JUMPDEST PUSH2 0x52F PUSH2 0x52A CALLDATASIZE PUSH1 0x4 PUSH2 0x4A68 JUMP JUMPDEST PUSH2 0xD69 JUMP JUMPDEST PUSH1 0x40 MLOAD PUSH2 0x513 SWAP12 SWAP11 SWAP10 SWAP9 SWAP8 SWAP7 SWAP6 SWAP5 SWAP4 SWAP3 SWAP2 SWAP1 PUSH2 0x4AF6 JUMP JUMPDEST PUSH2 0x54E PUSH2 0xE5A JUMP JUMPDEST PUSH1 0x40 MLOAD PUSH2 0x513 SWAP2 SWAP1 PUSH2 0x4B70 JUMP JUMPDEST PUSH2 0x56E PUSH2 0x569 CALLDATASIZE PUSH1 0x4 PUSH2 0x4B82 JUMP JUMPDEST PUSH2 0xEEA JUMP JUMPDEST PUSH1 0x40 MLOAD SWAP1 ISZERO ISZERO DUP2 MSTORE PUSH1 0x20 ADD PUSH2 0x513 JUMP JUMPDEST PUSH2 0x591 PUSH2 0x58C CALLDATASIZE PUSH1 0x4 PUSH2 0x4A68 JUMP JUMPDEST PUSH2 0xF03 JUMP JUMPDEST STOP JUMPDEST PUSH2 0x509 PUSH1 0x12 SLOAD DUP2 JUMP JUMPDEST PUSH2 0x591 PUSH2 0x5AA CALLDATASIZE PUSH1 0x4 PUSH2 0x4A4F JUMP JUMPDEST PUSH2 0x13F9 JUMP JUMPDEST PUSH2 0x509 PUSH2 0x5BD CALLDATASIZE PUSH1 0x4 PUSH2 0x4A68 JUMP JUMPDEST PUSH1 0x1F PUSH1 0x20 MSTORE PUSH0 SWAP1 DUP2 MSTORE PUSH1 0x40 SWAP1 KECCAK256 SLOAD DUP2 JUMP JUMPDEST PUSH2 0x605 PUSH2 0x5DC CALLDATASIZE PUSH1 0x4 PUSH2 0x4A4F JUMP JUMPDEST PUSH1 0x29 PUSH1 0x20 MSTORE PUSH0 SWAP1 DUP2 MSTORE PUSH1 0x40 SWAP1 KECCAK256 DUP1 SLOAD PUSH1 0x1 DUP3 ADD SLOAD PUSH1 0x2 DUP4 ADD SLOAD PUSH1 0x3 SWAP1 SWAP4 ADD SLOAD SWAP2 SWAP3 SWAP1 SWAP2 PUSH1 0xFF AND DUP5 JUMP JUMPDEST PUSH1 0x40 DUP1 MLOAD SWAP5 DUP6 MSTORE PUSH1 0x20 DUP6 ADD SWAP4 SWAP1 SWAP4 MSTORE SWAP2 DUP4 ADD MSTORE ISZERO ISZERO PUSH1 0x60 DUP3 ADD MSTORE PUSH1 0x80 ADD PUSH2 0x513 JUMP JUMPDEST PUSH1 0x2 SLOAD PUSH2 0x509 JUMP JUMPDEST PUSH2 0x509 PUSH1 0x1A SLOAD DUP2 JUMP JUMPDEST PUSH2 0x591 PUSH2 0x14D7 JUMP JUMPDEST PUSH2 0x509 PUSH2 0x64E CALLDATASIZE PUSH1 0x4 PUSH2 0x4A4F JUMP JUMPDEST PUSH1 0x28 PUSH1 0x20 MSTORE PUSH0 SWAP1 DUP2 MSTORE PUSH1 0x40 SWAP1 KECCAK256 SLOAD DUP2 JUMP JUMPDEST PUSH2 0x591 PUSH2 0x66D CALLDATASIZE PUSH1 0x4 PUSH2 0x4A4F JUMP JUMPDEST PUSH2 0x1670 JUMP JUMPDEST PUSH2 0x509 PUSH1 0x15 SLOAD DUP2 JUMP JUMPDEST PUSH2 0x56E PUSH2 0x689 CALLDATASIZE PUSH1 0x4 PUSH2 0x4BAA JUMP JUMPDEST PUSH2 0x19A4 JUMP JUMPDEST PUSH2 0x591 PUSH2 0x69C CALLDATASIZE PUSH1 0x4 PUSH2 0x4BF2 JUMP JUMPDEST PUSH2 0x1A40 JUMP JUMPDEST PUSH2 0x591 PUSH2 0x1ACC JUMP JUMPDEST PUSH1 0x9 SLOAD PUSH2 0x56E SWAP1 PUSH3 0x10000 SWAP1 DIV PUSH1 0xFF AND DUP2 JUMP JUMPDEST PUSH2 0x509 PUSH1 0x17 SLOAD DUP2 JUMP JUMPDEST PUSH2 0x591 PUSH2 0x1B11 JUMP JUMPDEST PUSH2 0x509 PUSH1 0x13 SLOAD DUP2 JUMP JUMPDEST PUSH2 0x509 PUSH1 0xD SLOAD DUP2 JUMP JUMPDEST PUSH2 0x591 PUSH2 0x6ED CALLDATASIZE PUSH1 0x4 PUSH2 0x4C0B JUMP JUMPDEST PUSH2 0x1D3A JUMP JUMPDEST PUSH1 0x40 MLOAD PUSH1 0x12 DUP2 MSTORE PUSH1 0x20 ADD PUSH2 0x513 JUMP JUMPDEST PUSH2 0x509 PUSH32 0x0 DUP2 JUMP JUMPDEST PUSH2 0x509 PUSH2 0x205D JUMP JUMPDEST PUSH2 0x509 PUSH32 0x0 DUP2 JUMP JUMPDEST PUSH2 0x56E PUSH2 0x765 CALLDATASIZE PUSH1 0x4 PUSH2 0x4A4F JUMP JUMPDEST PUSH1 0x2C PUSH1 0x20 MSTORE PUSH0 SWAP1 DUP2 MSTORE PUSH1 0x40 SWAP1 KECCAK256 SLOAD PUSH1 0xFF AND DUP2 JUMP JUMPDEST PUSH1 0x1D SLOAD PUSH1 0x2D SLOAD CALLER PUSH0 SWAP1 DUP2 MSTORE PUSH1 0x2A PUSH1 0x20 SWAP1 DUP2 MSTORE PUSH1 0x40 DUP1 DUP4 KECCAK256 SLOAD PUSH1 0x2B DUP4 MSTORE DUP2 DUP5 KECCAK256 SLOAD PUSH1 0x2C DUP5 MSTORE SWAP4 DUP3 SWAP1 KECCAK256 SLOAD DUP3 MLOAD PUSH1 0xFF PUSH1 0x1 PUSH1 0xA0 SHL DUP10 DIV DUP2 AND ISZERO ISZERO DUP3 MSTORE PUSH1 0x1 PUSH1 0xA8 SHL SWAP1 SWAP9 DIV DUP9 AND ISZERO ISZERO SWAP5 DUP2 ADD SWAP5 SWAP1 SWAP5 MSTORE SWAP2 DUP4 ADD SWAP5 SWAP1 SWAP5 MSTORE PUSH2 0x3E8 PUSH1 0x60 DUP4 ADD MSTORE SWAP3 DUP5 AND ISZERO ISZERO PUSH1 0x80 DUP3 ADD MSTORE PUSH1 0xA0 DUP2 ADD SWAP2 SWAP1 SWAP2 MSTORE SWAP2 AND ISZERO ISZERO PUSH1 0xC0 DUP3 ADD MSTORE PUSH1 0xE0 ADD PUSH2 0x513 JUMP JUMPDEST PUSH2 0x509 PUSH1 0x1C SLOAD DUP2 JUMP JUMPDEST PUSH2 0x509 PUSH1 0xC SLOAD DUP2 JUMP JUMPDEST PUSH2 0x509 PUSH3 0x278D00 DUP2 JUMP JUMPDEST PUSH2 0x591 PUSH2 0x213D JUMP JUMPDEST PUSH1 0x1D SLOAD PUSH2 0x56E SWAP1 PUSH1 0x1 PUSH1 0xA0 SHL SWAP1 DIV PUSH1 0xFF AND DUP2 JUMP JUMPDEST PUSH2 0x509 PUSH1 0xA SLOAD DUP2 JUMP JUMPDEST PUSH2 0x509 PUSH32 0x0 DUP2 JUMP JUMPDEST PUSH2 0x509 PUSH1 0xE SLOAD DUP2 JUMP JUMPDEST PUSH2 0x509 PUSH2 0x877 CALLDATASIZE PUSH1 0x4 PUSH2 0x4A4F JUMP JUMPDEST PUSH1 0x1 PUSH1 0x1 PUSH1 0xA0 SHL SUB AND PUSH0 SWAP1 DUP2 MSTORE PUSH1 0x20 DUP2 SWAP1 MSTORE PUSH1 0x40 SWAP1 KECCAK256 SLOAD SWAP1 JUMP JUMPDEST PUSH2 0x591 PUSH2 0x221C JUMP JUMPDEST PUSH1 0x9 SLOAD PUSH2 0x56E SWAP1 PUSH2 0x100 SWAP1 DIV PUSH1 0xFF AND DUP2 JUMP JUMPDEST PUSH2 0x509 PUSH2 0x8B9 CALLDATASIZE PUSH1 0x4 PUSH2 0x4A4F JUMP JUMPDEST PUSH1 0x8 PUSH1 0x20 MSTORE PUSH0 SWAP1 DUP2 MSTORE PUSH1 0x40 SWAP1 KECCAK256 SLOAD DUP2 JUMP JUMPDEST PUSH2 0x509 PUSH1 0x19 SLOAD DUP2 JUMP JUMPDEST PUSH1 0x1D SLOAD PUSH2 0x56E SWAP1 PUSH1 0x1 PUSH1 0xA8 SHL SWAP1 DIV PUSH1 0xFF AND DUP2 JUMP JUMPDEST PUSH2 0x8FA PUSH2 0x8F5 CALLDATASIZE PUSH1 0x4 PUSH2 0x4A68 JUMP JUMPDEST PUSH2 0x232D JUMP JUMPDEST PUSH1 0x40 MLOAD PUSH1 0x1 PUSH1 0x1 PUSH1 0xA0 SHL SUB SWAP1 SWAP2 AND DUP2 MSTORE PUSH1 0x20 ADD PUSH2 0x513 JUMP JUMPDEST PUSH2 0x8FA PUSH2 0x920 CALLDATASIZE PUSH1 0x4 PUSH2 0x4A68 JUMP JUMPDEST PUSH2 0x2355 JUMP JUMPDEST PUSH2 0x591 PUSH2 0x933 CALLDATASIZE PUSH1 0x4 PUSH2 0x4A68 JUMP JUMPDEST PUSH2 0x2364 JUMP JUMPDEST PUSH2 0x56E PUSH2 0x946 CALLDATASIZE PUSH1 0x4 PUSH2 0x4A4F JUMP JUMPDEST PUSH1 0x2A PUSH1 0x20 MSTORE PUSH0 SWAP1 DUP2 MSTORE PUSH1 0x40 SWAP1 KECCAK256 SLOAD PUSH1 0xFF AND DUP2 JUMP JUMPDEST PUSH1 0x16 SLOAD PUSH0 SWAP1 DUP2 MSTORE PUSH1 0x24 PUSH1 0x20 MSTORE PUSH1 0x40 SWAP1 KECCAK256 PUSH1 0x6 ADD SLOAD PUSH1 0x1 PUSH1 0x1 PUSH1 0xA0 SHL SUB AND PUSH2 0x8FA JUMP JUMPDEST PUSH2 0x509 PUSH2 0x98A CALLDATASIZE PUSH1 0x4 PUSH2 0x4A4F JUMP JUMPDEST PUSH1 0x21 PUSH1 0x20 MSTORE PUSH0 SWAP1 DUP2 MSTORE PUSH1 0x40 SWAP1 KECCAK256 SLOAD DUP2 JUMP JUMPDEST PUSH2 0x591 PUSH2 0x9A9 CALLDATASIZE PUSH1 0x4 PUSH2 0x4A4F JUMP JUMPDEST PUSH2 0x27D3 JUMP JUMPDEST PUSH2 0x509 PUSH1 0x18 SLOAD DUP2 JUMP JUMPDEST PUSH2 0x509 PUSH1 0x11 SLOAD DUP2 JUMP JUMPDEST PUSH1 0x6 SLOAD PUSH1 0x1 PUSH1 0x1 PUSH1 0xA0 SHL SUB AND PUSH2 0x8FA JUMP JUMPDEST PUSH2 0x591 PUSH2 0x9DF CALLDATASIZE PUSH1 0x4 PUSH2 0x4B82 JUMP JUMPDEST PUSH2 0x2879 JUMP JUMPDEST PUSH2 0x509 PUSH1 0xF SLOAD DUP2 JUMP JUMPDEST PUSH2 0x54E PUSH2 0x2AFC JUMP JUMPDEST PUSH1 0x9 SLOAD PUSH2 0x56E SWAP1 PUSH1 0xFF AND DUP2 JUMP JUMPDEST PUSH2 0xA0A PUSH2 0x2B0B JUMP JUMPDEST PUSH1 0x40 MLOAD PUSH2 0x513 SWAP2 SWAP1 PUSH2 0x4C7A JUMP JUMPDEST PUSH2 0xA58 PUSH2 0xA25 CALLDATASIZE PUSH1 0x4 PUSH2 0x4A4F JUMP JUMPDEST PUSH1 0x27 PUSH1 0x20 MSTORE PUSH0 SWAP1 DUP2 MSTORE PUSH1 0x40 SWAP1 KECCAK256 DUP1 SLOAD PUSH1 0x1 DUP3 ADD SLOAD PUSH1 0x2 DUP4 ADD SLOAD PUSH1 0x3 SWAP1 SWAP4 ADD SLOAD PUSH1 0x1 PUSH1 0x1 PUSH1 0xA0 SHL SUB SWAP3 DUP4 AND SWAP4 SWAP2 SWAP1 SWAP3 AND SWAP2 DUP5 JUMP JUMPDEST PUSH1 0x40 DUP1 MLOAD PUSH1 0x1 PUSH1 0x1 PUSH1 0xA0 SHL SUB SWAP6 DUP7 AND DUP2 MSTORE SWAP5 SWAP1 SWAP4 AND PUSH1 0x20 DUP6 ADD MSTORE SWAP2 DUP4 ADD MSTORE PUSH1 0x60 DUP3 ADD MSTORE PUSH1 0x80 ADD PUSH2 0x513 JUMP JUMPDEST PUSH2 0x591 PUSH2 0x2B6A JUMP JUMPDEST PUSH2 0x509 PUSH1 0x10 SLOAD DUP2 JUMP JUMPDEST PUSH2 0x8FA PUSH2 0xAA2 CALLDATASIZE PUSH1 0x4 PUSH2 0x4A4F JUMP JUMPDEST PUSH1 0x22 PUSH1 0x20 MSTORE PUSH0 SWAP1 DUP2 MSTORE PUSH1 0x40 SWAP1 KECCAK256 SLOAD PUSH1 0x1 PUSH1 0x1 PUSH1 0xA0 SHL SUB AND DUP2 JUMP JUMPDEST PUSH2 0x591 PUSH2 0xACA CALLDATASIZE PUSH1 0x4 PUSH2 0x4CC6 JUMP JUMPDEST PUSH2 0x2D81 JUMP JUMPDEST PUSH2 0x509 PUSH1 0x14 SLOAD DUP2 JUMP JUMPDEST PUSH2 0x591 PUSH2 0x2EC1 JUMP JUMPDEST PUSH2 0x591 PUSH2 0x2FF0 JUMP JUMPDEST PUSH2 0x591 PUSH2 0xAF6 CALLDATASIZE PUSH1 0x4 PUSH2 0x4A68 JUMP JUMPDEST PUSH2 0x3133 JUMP JUMPDEST PUSH2 0x56E PUSH2 0xB09 CALLDATASIZE PUSH1 0x4 PUSH2 0x4B82 JUMP JUMPDEST PUSH2 0x32D1 JUMP JUMPDEST PUSH2 0xA0A PUSH2 0x334E JUMP JUMPDEST PUSH1 0x1D SLOAD PUSH2 0x8FA SWAP1 PUSH1 0x1 PUSH1 0x1 PUSH1 0xA0 SHL SUB AND DUP2 JUMP JUMPDEST PUSH2 0x509 PUSH32 0x0 DUP2 JUMP JUMPDEST PUSH2 0x591 PUSH2 0xB5E CALLDATASIZE PUSH1 0x4 PUSH2 0x4B82 JUMP JUMPDEST PUSH2 0x33AC JUMP JUMPDEST PUSH2 0x509 PUSH2 0xB71 CALLDATASIZE PUSH1 0x4 PUSH2 0x4A4F JUMP JUMPDEST PUSH2 0x34DC JUMP JUMPDEST PUSH2 0xB89 PUSH2 0xB84 CALLDATASIZE PUSH1 0x4 PUSH2 0x4A68 JUMP JUMPDEST PUSH2 0x366C JUMP JUMPDEST PUSH1 0x40 MLOAD PUSH2 0x513 SWAP4 SWAP3 SWAP2 SWAP1 PUSH2 0x4CE6 JUMP JUMPDEST PUSH2 0xBC1 PUSH2 0xBA6 CALLDATASIZE PUSH1 0x4 PUSH2 0x4A4F JUMP JUMPDEST PUSH1 0x25 PUSH1 0x20 MSTORE PUSH0 SWAP1 DUP2 MSTORE PUSH1 0x40 SWAP1 KECCAK256 DUP1 SLOAD PUSH1 0x1 SWAP1 SWAP2 ADD SLOAD PUSH1 0xFF AND DUP3 JUMP JUMPDEST PUSH1 0x40 DUP1 MLOAD SWAP3 DUP4 MSTORE SWAP1 ISZERO ISZERO PUSH1 0x20 DUP4 ADD MSTORE ADD PUSH2 0x513 JUMP JUMPDEST PUSH2 0x591 PUSH2 0xBE4 CALLDATASIZE PUSH1 0x4 PUSH2 0x4A68 JUMP JUMPDEST PUSH2 0x3714 JUMP JUMPDEST PUSH2 0x509 PUSH1 0x1B SLOAD DUP2 JUMP JUMPDEST PUSH1 0x7 SLOAD PUSH2 0x8FA SWAP1 PUSH1 0x1 PUSH1 0x1 PUSH1 0xA0 SHL SUB AND DUP2 JUMP JUMPDEST PUSH2 0x509 PUSH1 0xB SLOAD DUP2 JUMP JUMPDEST PUSH2 0x509 PUSH1 0x16 SLOAD DUP2 JUMP JUMPDEST PUSH2 0xC2A PUSH2 0xC25 CALLDATASIZE PUSH1 0x4 PUSH2 0x4C0B JUMP JUMPDEST PUSH2 0x388D JUMP JUMPDEST PUSH1 0x40 DUP1 MLOAD SWAP3 ISZERO ISZERO DUP4 MSTORE PUSH1 0x20 DUP4 ADD SWAP2 SWAP1 SWAP2 MSTORE ADD PUSH2 0x513 JUMP JUMPDEST PUSH2 0x509 PUSH2 0xC4F CALLDATASIZE PUSH1 0x4 PUSH2 0x4D0D JUMP JUMPDEST PUSH1 0x1 PUSH1 0x1 PUSH1 0xA0 SHL SUB SWAP2 DUP3 AND PUSH0 SWAP1 DUP2 MSTORE PUSH1 0x1 PUSH1 0x20 SWAP1 DUP2 MSTORE PUSH1 0x40 DUP1 DUP4 KECCAK256 SWAP4 SWAP1 SWAP5 AND DUP3 MSTORE SWAP2 SWAP1 SWAP2 MSTORE KECCAK256 SLOAD SWAP1 JUMP JUMPDEST PUSH2 0x509 PUSH2 0xC87 CALLDATASIZE PUSH1 0x4 PUSH2 0x4A4F JUMP JUMPDEST PUSH1 0x26 PUSH1 0x20 MSTORE PUSH0 SWAP1 DUP2 MSTORE PUSH1 0x40 SWAP1 KECCAK256 SLOAD DUP2 JUMP JUMPDEST PUSH2 0x509 PUSH32 0x0 DUP2 JUMP JUMPDEST PUSH2 0x591 PUSH2 0xCCD CALLDATASIZE PUSH1 0x4 PUSH2 0x4D60 JUMP JUMPDEST PUSH2 0x397E JUMP JUMPDEST PUSH2 0x509 PUSH2 0xCE0 CALLDATASIZE PUSH1 0x4 PUSH2 0x4A4F JUMP JUMPDEST PUSH1 0x2B PUSH1 0x20 MSTORE PUSH0 SWAP1 DUP2 MSTORE PUSH1 0x40 SWAP1 KECCAK256 SLOAD DUP2 JUMP JUMPDEST PUSH2 0x591 PUSH2 0xCFF CALLDATASIZE PUSH1 0x4 PUSH2 0x4A4F JUMP JUMPDEST PUSH2 0x3B8B JUMP JUMPDEST PUSH2 0x509 PUSH2 0xD12 CALLDATASIZE PUSH1 0x4 PUSH2 0x4E35 JUMP JUMPDEST PUSH1 0x1E PUSH1 0x20 SWAP1 DUP2 MSTORE PUSH0 SWAP3 DUP4 MSTORE PUSH1 0x40 DUP1 DUP5 KECCAK256 SWAP1 SWAP2 MSTORE SWAP1 DUP3 MSTORE SWAP1 KECCAK256 SLOAD DUP2 JUMP JUMPDEST PUSH2 0x591 PUSH2 0xD3C CALLDATASIZE PUSH1 0x4 PUSH2 0x4E56 JUMP JUMPDEST PUSH2 0x3BC5 JUMP JUMPDEST PUSH2 0xD54 PUSH2 0xD4F CALLDATASIZE PUSH1 0x4 PUSH2 0x4A4F JUMP JUMPDEST PUSH2 0x3DDA JUMP JUMPDEST PUSH1 0x40 DUP1 MLOAD SWAP3 DUP4 MSTORE PUSH1 0x20 DUP4 ADD SWAP2 SWAP1 SWAP2 MSTORE ADD PUSH2 0x513 JUMP JUMPDEST PUSH1 0x24 PUSH1 0x20 MSTORE PUSH0 SWAP1 DUP2 MSTORE PUSH1 0x40 SWAP1 KECCAK256 DUP1 SLOAD PUSH1 0x1 DUP3 ADD SLOAD PUSH1 0x2 DUP4 ADD SLOAD PUSH1 0x3 DUP5 ADD SLOAD PUSH1 0x4 DUP6 ADD SLOAD PUSH1 0x5 DUP7 ADD SLOAD PUSH1 0x6 DUP8 ADD SLOAD PUSH1 0x7 DUP9 ADD SLOAD PUSH1 0x8 DUP10 ADD DUP1 SLOAD SWAP9 SWAP10 SWAP8 SWAP9 SWAP7 SWAP8 SWAP6 SWAP7 SWAP5 SWAP6 SWAP4 SWAP5 PUSH1 0x1 PUSH1 0x1 PUSH1 0xA0 SHL SUB SWAP4 DUP5 AND SWAP5 SWAP3 SWAP1 SWAP4 AND SWAP3 PUSH2 0xDC7 SWAP1 PUSH2 0x4E78 JUMP JUMPDEST DUP1 PUSH1 0x1F ADD PUSH1 0x20 DUP1 SWAP2 DIV MUL PUSH1 0x20 ADD PUSH1 0x40 MLOAD SWAP1 DUP2 ADD PUSH1 0x40 MSTORE DUP1 SWAP3 SWAP2 SWAP1 DUP2 DUP2 MSTORE PUSH1 0x20 ADD DUP3 DUP1 SLOAD PUSH2 0xDF3 SWAP1 PUSH2 0x4E78 JUMP JUMPDEST DUP1 ISZERO PUSH2 0xE3E JUMPI DUP1 PUSH1 0x1F LT PUSH2 0xE15 JUMPI PUSH2 0x100 DUP1 DUP4 SLOAD DIV MUL DUP4 MSTORE SWAP2 PUSH1 0x20 ADD SWAP2 PUSH2 0xE3E JUMP JUMPDEST DUP3 ADD SWAP2 SWAP1 PUSH0 MSTORE PUSH1 0x20 PUSH0 KECCAK256 SWAP1 JUMPDEST DUP2 SLOAD DUP2 MSTORE SWAP1 PUSH1 0x1 ADD SWAP1 PUSH1 0x20 ADD DUP1 DUP4 GT PUSH2 0xE21 JUMPI DUP3 SWAP1 SUB PUSH1 0x1F AND DUP3 ADD SWAP2 JUMPDEST POP POP POP PUSH1 0x9 SWAP1 SWAP4 ADD SLOAD SWAP2 SWAP3 POP POP PUSH1 0xFF DUP1 DUP3 AND SWAP2 PUSH2 0x100 SWAP1 DIV AND DUP12 JUMP JUMPDEST PUSH1 0x60 PUSH1 0x3 DUP1 SLOAD PUSH2 0xE69 SWAP1 PUSH2 0x4E78 JUMP JUMPDEST DUP1 PUSH1 0x1F ADD PUSH1 0x20 DUP1 SWAP2 DIV MUL PUSH1 0x20 ADD PUSH1 0x40 MLOAD SWAP1 DUP2 ADD PUSH1 0x40 MSTORE DUP1 SWAP3 SWAP2 SWAP1 DUP2 DUP2 MSTORE PUSH1 0x20 ADD DUP3 DUP1 SLOAD PUSH2 0xE95 SWAP1 PUSH2 0x4E78 JUMP JUMPDEST DUP1 ISZERO PUSH2 0xEE0 JUMPI DUP1 PUSH1 0x1F LT PUSH2 0xEB7 JUMPI PUSH2 0x100 DUP1 DUP4 SLOAD DIV MUL DUP4 MSTORE SWAP2 PUSH1 0x20 ADD SWAP2 PUSH2 0xEE0 JUMP JUMPDEST DUP3 ADD SWAP2 SWAP1 PUSH0 MSTORE PUSH1 0x20 PUSH0 KECCAK256 SWAP1 JUMPDEST DUP2 SLOAD DUP2 MSTORE SWAP1 PUSH1 0x1 ADD SWAP1 PUSH1 0x20 ADD DUP1 DUP4 GT PUSH2 0xEC3 JUMPI DUP3 SWAP1 SUB PUSH1 0x1F AND DUP3 ADD SWAP2 JUMPDEST POP POP POP POP POP SWAP1 POP SWAP1 JUMP JUMPDEST PUSH0 CALLER PUSH2 0xEF7 DUP2 DUP6 DUP6 PUSH2 0x3E28 JUMP JUMPDEST PUSH1 0x1 SWAP2 POP POP JUMPDEST SWAP3 SWAP2 POP POP JUMP JUMPDEST PUSH2 0xF0B PUSH2 0x3E3A JUMP JUMPDEST PUSH1 0x9 SLOAD PUSH3 0x10000 SWAP1 DIV PUSH1 0xFF AND ISZERO PUSH2 0xF35 JUMPI PUSH1 0x40 MLOAD PUSH4 0xAB35696F PUSH1 0xE0 SHL DUP2 MSTORE PUSH1 0x4 ADD PUSH1 0x40 MLOAD DUP1 SWAP2 SUB SWAP1 REVERT JUMPDEST PUSH0 DUP2 DUP2 MSTORE PUSH1 0x24 PUSH1 0x20 MSTORE PUSH1 0x40 DUP2 KECCAK256 PUSH1 0x1 DUP2 ADD SLOAD SWAP1 SWAP2 SUB PUSH2 0xF67 JUMPI PUSH1 0x40 MLOAD PUSH4 0x6CE3C701 PUSH1 0xE1 SHL DUP2 MSTORE PUSH1 0x4 ADD PUSH1 0x40 MLOAD DUP1 SWAP2 SUB SWAP1 REVERT JUMPDEST DUP1 PUSH1 0x2 ADD SLOAD TIMESTAMP GT PUSH2 0xF8B JUMPI PUSH1 0x40 MLOAD PUSH4 0xCD7C299 PUSH1 0xE2 SHL DUP2 MSTORE PUSH1 0x4 ADD PUSH1 0x40 MLOAD DUP1 SWAP2 SUB SWAP1 REVERT JUMPDEST PUSH1 0x9 DUP2 ADD SLOAD PUSH2 0x100 SWAP1 DIV PUSH1 0xFF AND ISZERO PUSH2 0xFB6 JUMPI PUSH1 0x40 MLOAD PUSH4 0xCF88C657 PUSH1 0xE0 SHL DUP2 MSTORE PUSH1 0x4 ADD PUSH1 0x40 MLOAD DUP1 SWAP2 SUB SWAP1 REVERT JUMPDEST PUSH1 0x13 SLOAD DUP2 PUSH1 0x5 ADD SLOAD DUP3 PUSH1 0x4 ADD SLOAD PUSH2 0xFCD SWAP2 SWAP1 PUSH2 0x4EC4 JUMP JUMPDEST LT ISZERO PUSH2 0x1045 JUMPI DUP2 PUSH32 0x2A15F4605F8E68CBACCD2234253A8189163D500A6F60C1751405443CA1562BEB PUSH1 0x40 MLOAD PUSH2 0x1024 SWAP1 PUSH1 0x20 DUP1 DUP3 MSTORE PUSH1 0xE SWAP1 DUP3 ADD MSTORE PUSH14 0x145D5BDC9D5B481B9BDD081B595D PUSH1 0x92 SHL PUSH1 0x40 DUP3 ADD MSTORE PUSH1 0x60 ADD SWAP1 JUMP JUMPDEST PUSH1 0x40 MLOAD DUP1 SWAP2 SUB SWAP1 LOG2 PUSH1 0x40 MLOAD PUSH4 0x6BCF4125 PUSH1 0xE1 SHL DUP2 MSTORE PUSH1 0x4 ADD PUSH1 0x40 MLOAD DUP1 SWAP2 SUB SWAP1 REVERT JUMPDEST PUSH0 DUP2 PUSH1 0x5 ADD SLOAD DUP3 PUSH1 0x4 ADD SLOAD PUSH2 0x105A SWAP2 SWAP1 PUSH2 0x4EC4 JUMP JUMPDEST SWAP1 POP PUSH0 DUP2 DUP4 PUSH1 0x4 ADD SLOAD PUSH2 0x2710 PUSH2 0x1070 SWAP2 SWAP1 PUSH2 0x4ED7 JUMP JUMPDEST PUSH2 0x107A SWAP2 SWAP1 PUSH2 0x4EEE JUMP JUMPDEST SWAP1 POP PUSH1 0x14 SLOAD PUSH1 0x64 PUSH2 0x108B SWAP2 SWAP1 PUSH2 0x4ED7 JUMP JUMPDEST DUP2 GT PUSH2 0x110B JUMPI DUP4 PUSH32 0x2A15F4605F8E68CBACCD2234253A8189163D500A6F60C1751405443CA1562BEB PUSH1 0x40 MLOAD PUSH2 0x10EA SWAP1 PUSH1 0x20 DUP1 DUP3 MSTORE PUSH1 0x16 SWAP1 DUP3 ADD MSTORE PUSH22 0x159BDD19481D1A1C995CDA1BDB19081B9BDD081B595D PUSH1 0x52 SHL PUSH1 0x40 DUP3 ADD MSTORE PUSH1 0x60 ADD SWAP1 JUMP JUMPDEST PUSH1 0x40 MLOAD DUP1 SWAP2 SUB SWAP1 LOG2 PUSH1 0x40 MLOAD PUSH4 0x14B87411 PUSH1 0xE1 SHL DUP2 MSTORE PUSH1 0x4 ADD PUSH1 0x40 MLOAD DUP1 SWAP2 SUB SWAP1 REVERT JUMPDEST PUSH1 0x9 DUP4 ADD DUP1 SLOAD PUSH2 0x100 PUSH2 0xFF00 NOT DUP3 AND OR SWAP1 SWAP2 SSTORE PUSH1 0x3 SWAP1 PUSH1 0xFF AND PUSH1 0xB DUP2 GT ISZERO PUSH2 0x1135 JUMPI PUSH2 0x1135 PUSH2 0x4AC2 JUMP JUMPDEST SUB PUSH2 0x121D JUMPI PUSH3 0x9E3400 PUSH1 0x15 SLOAD PUSH2 0x114B SWAP2 SWAP1 PUSH2 0x4EC4 JUMP JUMPDEST TIMESTAMP LT ISZERO PUSH2 0x116B JUMPI PUSH1 0x40 MLOAD PUSH4 0x7A242495 PUSH1 0xE1 SHL DUP2 MSTORE PUSH1 0x4 ADD PUSH1 0x40 MLOAD DUP1 SWAP2 SUB SWAP1 REVERT JUMPDEST PUSH1 0xA SLOAD DUP4 PUSH1 0x3 ADD SLOAD GT ISZERO PUSH2 0x1192 JUMPI PUSH1 0x40 MLOAD PUSH4 0x28B35F21 PUSH1 0xE0 SHL DUP2 MSTORE PUSH1 0x4 ADD PUSH1 0x40 MLOAD DUP1 SWAP2 SUB SWAP1 REVERT JUMPDEST PUSH1 0x6 DUP4 ADD SLOAD PUSH1 0x3 DUP5 ADD SLOAD PUSH2 0x11B3 SWAP2 ADDRESS SWAP2 PUSH1 0x1 PUSH1 0x1 PUSH1 0xA0 SHL SUB SWAP1 SWAP2 AND SWAP1 PUSH2 0x3E64 JUMP JUMPDEST DUP3 PUSH1 0x3 ADD SLOAD PUSH1 0xA PUSH0 DUP3 DUP3 SLOAD PUSH2 0x11C8 SWAP2 SWAP1 PUSH2 0x4F0D JUMP JUMPDEST SWAP1 SWAP2 SSTORE POP POP TIMESTAMP PUSH1 0x15 SSTORE PUSH1 0x3 DUP4 ADD SLOAD PUSH1 0xA SLOAD PUSH1 0x40 MLOAD PUSH32 0xE49DB96A72E85D04778BB78627173221C08F5ACAA50EAEF5B0D94C0A8C1589B1 SWAP3 PUSH2 0x1210 SWAP3 SWAP1 DUP3 MSTORE PUSH1 0x20 DUP3 ADD MSTORE PUSH1 0x40 ADD SWAP1 JUMP JUMPDEST PUSH1 0x40 MLOAD DUP1 SWAP2 SUB SWAP1 LOG1 PUSH2 0x1390 JUMP JUMPDEST PUSH1 0x4 PUSH1 0x9 DUP5 ADD SLOAD PUSH1 0xFF AND PUSH1 0xB DUP2 GT ISZERO PUSH2 0x1238 JUMPI PUSH2 0x1238 PUSH2 0x4AC2 JUMP JUMPDEST SUB PUSH2 0x1277 JUMPI PUSH1 0x3 DUP4 ADD SLOAD PUSH1 0xA DUP2 SWAP1 SSTORE PUSH1 0x40 MLOAD SWAP1 DUP2 MSTORE PUSH32 0x9ED927E3681DE11FBC3FC5547D178D8A2655C3AAAFD6D8704EDC6EE7E70B8389 SWAP1 PUSH1 0x20 ADD PUSH2 0x1210 JUMP JUMPDEST PUSH1 0x5 PUSH1 0x9 DUP5 ADD SLOAD PUSH1 0xFF AND PUSH1 0xB DUP2 GT ISZERO PUSH2 0x1292 JUMPI PUSH2 0x1292 PUSH2 0x4AC2 JUMP JUMPDEST SUB PUSH2 0x12D9 JUMPI DUP3 SLOAD PUSH1 0x40 MLOAD PUSH32 0x56E668E6EAB92A31285F3C1809CE67652B2348579B6C5349BAD3F2E9C00399A1 SWAP1 PUSH2 0x12CC SWAP1 PUSH1 0x8 DUP8 ADD SWAP1 PUSH2 0x4F20 JUMP JUMPDEST PUSH1 0x40 MLOAD DUP1 SWAP2 SUB SWAP1 LOG2 PUSH2 0x1390 JUMP JUMPDEST PUSH1 0x9 DUP1 DUP5 ADD SLOAD PUSH1 0xFF AND PUSH1 0xB DUP2 GT ISZERO PUSH2 0x12F3 JUMPI PUSH2 0x12F3 PUSH2 0x4AC2 JUMP JUMPDEST SUB PUSH2 0x1332 JUMPI PUSH1 0x3 DUP4 ADD SLOAD PUSH1 0x13 DUP2 SWAP1 SSTORE PUSH1 0x40 MLOAD SWAP1 DUP2 MSTORE PUSH32 0xF18F88786AAE85A652AADB99A82462616489A33370C9BCC7B245906812EF7CD1 SWAP1 PUSH1 0x20 ADD PUSH2 0x1210 JUMP JUMPDEST PUSH1 0xA PUSH1 0x9 DUP5 ADD SLOAD PUSH1 0xFF AND PUSH1 0xB DUP2 GT ISZERO PUSH2 0x134D JUMPI PUSH2 0x134D PUSH2 0x4AC2 JUMP JUMPDEST SUB PUSH2 0x1390 JUMPI PUSH1 0x3 DUP4 ADD SLOAD PUSH1 0x14 DUP2 SWAP1 SSTORE PUSH1 0x40 MLOAD SWAP1 DUP2 MSTORE PUSH32 0xC4F218F6E084BEBA806111AE2727CB7AFB13D7647AEF44C4D90B5F3C9CBE59C7 SWAP1 PUSH1 0x20 ADD PUSH1 0x40 MLOAD DUP1 SWAP2 SUB SWAP1 LOG1 JUMPDEST PUSH1 0x9 DUP4 ADD SLOAD PUSH1 0x3 DUP5 ADD SLOAD PUSH1 0x7 DUP6 ADD SLOAD PUSH2 0x13B6 SWAP3 PUSH1 0xFF AND SWAP2 SWAP1 PUSH1 0x1 PUSH1 0x1 PUSH1 0xA0 SHL SUB AND PUSH2 0x3EB6 JUMP JUMPDEST PUSH1 0x40 MLOAD DUP5 DUP2 MSTORE PUSH32 0x75D3599DC8E39A81249F199FEC177D092F6585B12894A2B393D54A28C315785C SWAP1 PUSH1 0x20 ADD PUSH1 0x40 MLOAD DUP1 SWAP2 SUB SWAP1 LOG1 POP POP POP PUSH2 0x13F6 PUSH1 0x1 PUSH1 0x5 SSTORE JUMP JUMPDEST POP JUMP JUMPDEST PUSH1 0x1D SLOAD PUSH1 0x1 PUSH1 0x1 PUSH1 0xA0 SHL SUB AND CALLER EQ DUP1 ISZERO SWAP1 PUSH2 0x141F JUMPI POP PUSH1 0x6 SLOAD PUSH1 0x1 PUSH1 0x1 PUSH1 0xA0 SHL SUB AND CALLER EQ ISZERO JUMPDEST ISZERO PUSH2 0x143D JUMPI PUSH1 0x40 MLOAD PUSH4 0xEA8E4EB5 PUSH1 0xE0 SHL DUP2 MSTORE PUSH1 0x4 ADD PUSH1 0x40 MLOAD DUP1 SWAP2 SUB SWAP1 REVERT JUMPDEST PUSH1 0x1 PUSH1 0x1 PUSH1 0xA0 SHL SUB DUP2 AND PUSH2 0x1464 JUMPI PUSH1 0x40 MLOAD PUSH4 0xE6C4247B PUSH1 0xE0 SHL DUP2 MSTORE PUSH1 0x4 ADD PUSH1 0x40 MLOAD DUP1 SWAP2 SUB SWAP1 REVERT JUMPDEST DUP1 PUSH1 0x1 PUSH1 0x1 PUSH1 0xA0 SHL SUB AND EXTCODESIZE PUSH0 SUB PUSH2 0x148E JUMPI PUSH1 0x40 MLOAD PUSH4 0x6F7C43F1 PUSH1 0xE0 SHL DUP2 MSTORE PUSH1 0x4 ADD PUSH1 0x40 MLOAD DUP1 SWAP2 SUB SWAP1 REVERT JUMPDEST PUSH1 0x1D DUP1 SLOAD PUSH1 0x1 PUSH1 0x1 PUSH1 0xA0 SHL SUB NOT AND PUSH1 0x1 PUSH1 0x1 PUSH1 0xA0 SHL SUB DUP4 AND SWAP1 DUP2 OR SWAP1 SWAP2 SSTORE PUSH1 0x40 MLOAD PUSH32 0xE3CF2B71B55B62FC1A6C7B2F6FF944C1B70048908CFF22F2E08D1144E7CA7EDB SWAP1 PUSH0 SWAP1 LOG2 POP JUMP JUMPDEST PUSH2 0x14DF PUSH2 0x3E3A JUMP JUMPDEST PUSH1 0x9 SLOAD PUSH3 0x10000 SWAP1 DIV PUSH1 0xFF AND ISZERO PUSH2 0x1509 JUMPI PUSH1 0x40 MLOAD PUSH4 0xAB35696F PUSH1 0xE0 SHL DUP2 MSTORE PUSH1 0x4 ADD PUSH1 0x40 MLOAD DUP1 SWAP2 SUB SWAP1 REVERT JUMPDEST CALLER ORIGIN EQ PUSH2 0x1531 JUMPI PUSH1 0x40 MLOAD PUSH3 0x461BCD PUSH1 0xE5 SHL DUP2 MSTORE PUSH1 0x4 ADD PUSH2 0x1528 SWAP1 PUSH2 0x4FA5 JUMP JUMPDEST PUSH1 0x40 MLOAD DUP1 SWAP2 SUB SWAP1 REVERT JUMPDEST PUSH1 0x1D SLOAD PUSH1 0x1 PUSH1 0xA8 SHL SWAP1 DIV PUSH1 0xFF AND PUSH2 0x155B JUMPI PUSH1 0x40 MLOAD PUSH4 0x2FC209F3 PUSH1 0xE0 SHL DUP2 MSTORE PUSH1 0x4 ADD PUSH1 0x40 MLOAD DUP1 SWAP2 SUB SWAP1 REVERT JUMPDEST PUSH1 0x2D SLOAD PUSH2 0x3E8 GT PUSH2 0x157F JUMPI PUSH1 0x40 MLOAD PUSH4 0x6C8C8D21 PUSH1 0xE0 SHL DUP2 MSTORE PUSH1 0x4 ADD PUSH1 0x40 MLOAD DUP1 SWAP2 SUB SWAP1 REVERT JUMPDEST CALLER PUSH0 SWAP1 DUP2 MSTORE PUSH1 0x2A PUSH1 0x20 MSTORE PUSH1 0x40 SWAP1 KECCAK256 SLOAD PUSH1 0xFF AND ISZERO PUSH2 0x15AF JUMPI PUSH1 0x40 MLOAD PUSH4 0xEA075BF PUSH1 0xE2 SHL DUP2 MSTORE PUSH1 0x4 ADD PUSH1 0x40 MLOAD DUP1 SWAP2 SUB SWAP1 REVERT JUMPDEST CALLER PUSH2 0x15CD JUMPI PUSH1 0x40 MLOAD PUSH4 0xE6C4247B PUSH1 0xE0 SHL DUP2 MSTORE PUSH1 0x4 ADD PUSH1 0x40 MLOAD DUP1 SWAP2 SUB SWAP1 REVERT JUMPDEST CALLER PUSH0 DUP2 DUP2 MSTORE PUSH1 0x2A PUSH1 0x20 MSTORE PUSH1 0x40 DUP1 DUP3 KECCAK256 DUP1 SLOAD PUSH1 0xFF NOT AND PUSH1 0x1 SWAP1 DUP2 OR SWAP1 SWAP2 SSTORE PUSH1 0x2D DUP1 SLOAD SWAP2 DUP3 ADD DUP2 SSTORE SWAP3 DUP4 SWAP1 MSTORE PUSH32 0x4A2CC91EE622DA3BC833A54C37FFCB6F3EC23B7793EFC5EAF5E71B7B406C5C06 ADD DUP1 SLOAD PUSH1 0x1 PUSH1 0x1 PUSH1 0xA0 SHL SUB NOT AND DUP5 OR SWAP1 SSTORE SWAP1 SLOAD SWAP1 MLOAD PUSH32 0xF41D185D95FF1E597498C6EFB9F4539BD988FDCCC50F710D8A8184638D604660 SWAP2 PUSH2 0x165C SWAP2 SWAP1 DUP2 MSTORE PUSH1 0x20 ADD SWAP1 JUMP JUMPDEST PUSH1 0x40 MLOAD DUP1 SWAP2 SUB SWAP1 LOG2 PUSH2 0x166E PUSH1 0x1 PUSH1 0x5 SSTORE JUMP JUMPDEST JUMP JUMPDEST PUSH2 0x1678 PUSH2 0x3E3A JUMP JUMPDEST PUSH1 0x9 SLOAD PUSH3 0x10000 SWAP1 DIV PUSH1 0xFF AND ISZERO PUSH2 0x16A2 JUMPI PUSH1 0x40 MLOAD PUSH4 0xAB35696F PUSH1 0xE0 SHL DUP2 MSTORE PUSH1 0x4 ADD PUSH1 0x40 MLOAD DUP1 SWAP2 SUB SWAP1 REVERT JUMPDEST DUP1 CALLER PUSH1 0x1 PUSH1 0x1 PUSH1 0xA0 SHL SUB DUP3 AND EQ DUP1 ISZERO SWAP1 PUSH2 0x16C7 JUMPI POP PUSH1 0x1D SLOAD PUSH1 0x1 PUSH1 0x1 PUSH1 0xA0 SHL SUB AND CALLER EQ ISZERO JUMPDEST ISZERO PUSH2 0x16E5 JUMPI PUSH1 0x40 MLOAD PUSH4 0xEA8E4EB5 PUSH1 0xE0 SHL DUP2 MSTORE PUSH1 0x4 ADD PUSH1 0x40 MLOAD DUP1 SWAP2 SUB SWAP1 REVERT JUMPDEST PUSH2 0x16EE DUP3 PUSH2 0x34DC JUMP JUMPDEST PUSH0 SUB PUSH2 0x170D JUMPI PUSH1 0x40 MLOAD PUSH4 0xE1000181 PUSH1 0xE0 SHL DUP2 MSTORE PUSH1 0x4 ADD PUSH1 0x40 MLOAD DUP1 SWAP2 SUB SWAP1 REVERT JUMPDEST PUSH1 0x1 PUSH1 0x1 PUSH1 0xA0 SHL SUB DUP3 AND PUSH0 SWAP1 DUP2 MSTORE PUSH1 0x25 PUSH1 0x20 MSTORE PUSH1 0x40 SWAP1 KECCAK256 DUP1 SLOAD PUSH1 0x1 PUSH1 0x1 PUSH1 0x80 SHL SUB AND TIMESTAMP DUP2 GT ISZERO PUSH2 0x1750 JUMPI PUSH1 0x40 MLOAD PUSH4 0x26DD1FF PUSH1 0xE5 SHL DUP2 MSTORE PUSH1 0x4 ADD PUSH1 0x40 MLOAD DUP1 SWAP2 SUB SWAP1 REVERT JUMPDEST PUSH0 PUSH2 0x175A DUP6 PUSH2 0x34DC JUMP JUMPDEST PUSH1 0x1 PUSH1 0x1 PUSH1 0xA0 SHL SUB DUP7 AND PUSH0 SWAP1 DUP2 MSTORE PUSH1 0x20 DUP1 MSTORE PUSH1 0x40 SWAP1 KECCAK256 SLOAD SWAP1 SWAP2 POP DUP2 LT ISZERO PUSH2 0x1888 JUMPI PUSH1 0x1 PUSH1 0x1 PUSH1 0xA0 SHL SUB DUP6 AND PUSH0 SWAP1 DUP2 MSTORE PUSH1 0x20 DUP1 MSTORE PUSH1 0x40 DUP2 KECCAK256 SLOAD PUSH2 0x179D SWAP1 DUP4 SWAP1 PUSH2 0x4F0D JUMP JUMPDEST SWAP1 POP PUSH2 0x17A9 DUP7 DUP3 PUSH2 0x4236 JUMP JUMPDEST DUP6 PUSH1 0x1 PUSH1 0x1 PUSH1 0xA0 SHL SUB AND PUSH32 0xE24ABF0A1D8BDC06E382A8FC7157CD6C08495C024CEB329EC6C98F6C795FC26C DUP3 PUSH1 0x40 MLOAD PUSH2 0x17E4 SWAP2 DUP2 MSTORE PUSH1 0x20 ADD SWAP1 JUMP JUMPDEST PUSH1 0x40 MLOAD DUP1 SWAP2 SUB SWAP1 LOG2 PUSH1 0x1 PUSH1 0x1 PUSH1 0xA0 SHL SUB DUP7 DUP2 AND PUSH0 SWAP1 DUP2 MSTORE PUSH1 0x27 PUSH1 0x20 MSTORE PUSH1 0x40 SWAP1 KECCAK256 PUSH1 0x1 ADD SLOAD AND ISZERO PUSH2 0x1886 JUMPI PUSH1 0x1 PUSH1 0x1 PUSH1 0xA0 SHL SUB DUP1 DUP8 AND PUSH0 SWAP1 DUP2 MSTORE PUSH1 0x27 PUSH1 0x20 SWAP1 DUP2 MSTORE PUSH1 0x40 DUP1 DUP4 KECCAK256 PUSH1 0x1 ADD SLOAD SWAP1 SWAP4 AND DUP3 MSTORE PUSH1 0x28 SWAP1 MSTORE SWAP1 DUP2 KECCAK256 DUP1 SLOAD DUP4 SWAP3 SWAP1 PUSH2 0x1849 SWAP1 DUP5 SWAP1 PUSH2 0x4F0D JUMP JUMPDEST SWAP1 SWAP2 SSTORE POP POP PUSH1 0x1 PUSH1 0x1 PUSH1 0xA0 SHL SUB DUP1 DUP8 AND PUSH0 SWAP1 DUP2 MSTORE PUSH1 0x27 PUSH1 0x20 SWAP1 DUP2 MSTORE PUSH1 0x40 DUP1 DUP4 KECCAK256 PUSH1 0x1 ADD SLOAD SWAP1 SWAP4 AND DUP1 DUP4 MSTORE PUSH1 0x28 SWAP1 SWAP2 MSTORE SWAP2 SWAP1 KECCAK256 SLOAD PUSH2 0x1886 SWAP2 SWAP1 PUSH2 0x426A JUMP JUMPDEST POP JUMPDEST DUP2 TIMESTAMP LT PUSH2 0x1996 JUMPI PUSH1 0x1 PUSH1 0x1 PUSH1 0xA0 SHL SUB DUP6 AND PUSH0 SWAP1 DUP2 MSTORE PUSH1 0x25 PUSH1 0x20 MSTORE PUSH1 0x40 DUP2 KECCAK256 SWAP1 DUP2 SSTORE PUSH1 0x1 ADD DUP1 SLOAD PUSH1 0xFF NOT AND SWAP1 SSTORE PUSH2 0x18BE DUP6 DUP3 PUSH2 0x4236 JUMP JUMPDEST PUSH1 0x1 PUSH1 0x1 PUSH1 0xA0 SHL SUB DUP6 DUP2 AND PUSH0 SWAP1 DUP2 MSTORE PUSH1 0x27 PUSH1 0x20 MSTORE PUSH1 0x40 SWAP1 KECCAK256 PUSH1 0x1 ADD SLOAD AND ISZERO PUSH2 0x1996 JUMPI PUSH1 0x1 PUSH1 0x1 PUSH1 0xA0 SHL SUB DUP1 DUP7 AND PUSH0 SWAP1 DUP2 MSTORE PUSH1 0x27 PUSH1 0x20 SWAP1 DUP2 MSTORE PUSH1 0x40 DUP1 DUP4 KECCAK256 PUSH1 0x1 ADD SLOAD SWAP1 SWAP4 AND DUP3 MSTORE PUSH1 0x28 SWAP1 MSTORE SWAP1 DUP2 KECCAK256 DUP1 SLOAD DUP4 SWAP3 SWAP1 PUSH2 0x191B SWAP1 DUP5 SWAP1 PUSH2 0x4F0D JUMP JUMPDEST SWAP1 SWAP2 SSTORE POP POP PUSH1 0x1 PUSH1 0x1 PUSH1 0xA0 SHL SUB DUP1 DUP7 AND PUSH0 SWAP1 DUP2 MSTORE PUSH1 0x27 PUSH1 0x20 SWAP1 DUP2 MSTORE PUSH1 0x40 DUP1 DUP4 KECCAK256 PUSH1 0x1 ADD SLOAD SWAP1 SWAP4 AND DUP1 DUP4 MSTORE PUSH1 0x28 SWAP1 SWAP2 MSTORE SWAP2 SWAP1 KECCAK256 SLOAD PUSH2 0x1958 SWAP2 SWAP1 PUSH2 0x426A JUMP JUMPDEST PUSH1 0x1 PUSH1 0x1 PUSH1 0xA0 SHL SUB DUP6 AND PUSH0 SWAP1 DUP2 MSTORE PUSH1 0x27 PUSH1 0x20 MSTORE PUSH1 0x40 DUP2 KECCAK256 DUP1 SLOAD PUSH1 0x1 PUSH1 0x1 PUSH1 0xA0 SHL SUB NOT SWAP1 DUP2 AND DUP3 SSTORE PUSH1 0x1 DUP3 ADD DUP1 SLOAD SWAP1 SWAP2 AND SWAP1 SSTORE PUSH1 0x2 DUP2 ADD DUP3 SWAP1 SSTORE PUSH1 0x3 ADD SSTORE JUMPDEST POP POP POP POP PUSH2 0x13F6 PUSH1 0x1 PUSH1 0x5 SSTORE JUMP JUMPDEST PUSH1 0x9 SLOAD PUSH0 SWAP1 PUSH3 0x10000 SWAP1 DIV PUSH1 0xFF AND ISZERO PUSH2 0x19D0 JUMPI PUSH1 0x40 MLOAD PUSH4 0xAB35696F PUSH1 0xE0 SHL DUP2 MSTORE PUSH1 0x4 ADD PUSH1 0x40 MLOAD DUP1 SWAP2 SUB SWAP1 REVERT JUMPDEST PUSH1 0x1 PUSH1 0x1 PUSH1 0xA0 SHL SUB DUP5 AND ISZERO DUP1 PUSH2 0x19ED JUMPI POP PUSH1 0x1 PUSH1 0x1 PUSH1 0xA0 SHL SUB DUP4 AND ISZERO JUMPDEST ISZERO PUSH2 0x1A0B JUMPI PUSH1 0x40 MLOAD PUSH4 0xE6C4247B PUSH1 0xE0 SHL DUP2 MSTORE PUSH1 0x4 ADD PUSH1 0x40 MLOAD DUP1 SWAP2 SUB SWAP1 REVERT JUMPDEST PUSH0 PUSH2 0x1A17 DUP6 DUP6 DUP6 PUSH2 0x43D5 JUMP JUMPDEST SWAP1 POP DUP1 DUP1 ISZERO PUSH2 0x1A29 JUMPI POP PUSH1 0x9 SLOAD PUSH1 0xFF AND ISZERO JUMPDEST ISZERO PUSH2 0x1A36 JUMPI PUSH2 0x1A36 PUSH2 0x213D JUMP JUMPDEST SWAP1 POP JUMPDEST SWAP4 SWAP3 POP POP POP JUMP JUMPDEST PUSH1 0x1D SLOAD PUSH1 0x1 PUSH1 0x1 PUSH1 0xA0 SHL SUB AND CALLER EQ DUP1 ISZERO SWAP1 PUSH2 0x1A66 JUMPI POP PUSH1 0x6 SLOAD PUSH1 0x1 PUSH1 0x1 PUSH1 0xA0 SHL SUB AND CALLER EQ ISZERO JUMPDEST ISZERO PUSH2 0x1A84 JUMPI PUSH1 0x40 MLOAD PUSH4 0xEA8E4EB5 PUSH1 0xE0 SHL DUP2 MSTORE PUSH1 0x4 ADD PUSH1 0x40 MLOAD DUP1 SWAP2 SUB SWAP1 REVERT JUMPDEST PUSH1 0x1D DUP1 SLOAD PUSH1 0xFF PUSH1 0xA8 SHL NOT AND PUSH1 0x1 PUSH1 0xA8 SHL DUP4 ISZERO ISZERO SWAP1 DUP2 MUL SWAP2 SWAP1 SWAP2 OR SWAP1 SWAP2 SSTORE PUSH1 0x40 MLOAD PUSH32 0xCA89418516F56A1E463DE3ED0DE4A3795C57FB729015A5C16F20DD1200A29DD SWAP1 PUSH0 SWAP1 LOG2 POP JUMP JUMPDEST PUSH2 0x1AD4 PUSH2 0x3E3A JUMP JUMPDEST PUSH1 0x9 SLOAD PUSH3 0x10000 SWAP1 DIV PUSH1 0xFF AND ISZERO PUSH2 0x1AFE JUMPI PUSH1 0x40 MLOAD PUSH4 0xAB35696F PUSH1 0xE0 SHL DUP2 MSTORE PUSH1 0x4 ADD PUSH1 0x40 MLOAD DUP1 SWAP2 SUB SWAP1 REVERT JUMPDEST PUSH2 0x1B07 CALLER PUSH2 0x43F8 JUMP JUMPDEST PUSH2 0x166E PUSH1 0x1 PUSH1 0x5 SSTORE JUMP JUMPDEST PUSH2 0x1B19 PUSH2 0x3E3A JUMP JUMPDEST PUSH1 0x9 SLOAD PUSH3 0x10000 SWAP1 DIV PUSH1 0xFF AND ISZERO PUSH2 0x1B43 JUMPI PUSH1 0x40 MLOAD PUSH4 0xAB35696F PUSH1 0xE0 SHL DUP2 MSTORE PUSH1 0x4 ADD PUSH1 0x40 MLOAD DUP1 SWAP2 SUB SWAP1 REVERT JUMPDEST CALLER ORIGIN EQ PUSH2 0x1B62 JUMPI PUSH1 0x40 MLOAD PUSH3 0x461BCD PUSH1 0xE5 SHL DUP2 MSTORE PUSH1 0x4 ADD PUSH2 0x1528 SWAP1 PUSH2 0x4FA5 JUMP JUMPDEST CALLER PUSH0 SWAP1 DUP2 MSTORE PUSH1 0x29 PUSH1 0x20 MSTORE PUSH1 0x40 SWAP1 KECCAK256 PUSH1 0x3 DUP2 ADD SLOAD PUSH1 0xFF AND PUSH2 0x1B95 JUMPI PUSH1 0x40 MLOAD PUSH4 0x7D9A44A1 PUSH1 0xE1 SHL DUP2 MSTORE PUSH1 0x4 ADD PUSH1 0x40 MLOAD DUP1 SWAP2 SUB SWAP1 REVERT JUMPDEST PUSH0 DUP2 PUSH1 0x1 ADD SLOAD TIMESTAMP PUSH2 0x1BA6 SWAP2 SWAP1 PUSH2 0x4F0D JUMP JUMPDEST SWAP1 POP PUSH0 PUSH3 0x278D00 PUSH2 0x1BBF DUP4 PUSH8 0xDE0B6B3A7640000 PUSH2 0x4ED7 JUMP JUMPDEST PUSH2 0x1BC9 SWAP2 SWAP1 PUSH2 0x4EEE JUMP JUMPDEST SWAP1 POP PUSH0 PUSH9 0x56BC75E2D63100000 DUP3 PUSH1 0x12 SLOAD DUP7 PUSH0 ADD SLOAD PUSH2 0x1BE8 SWAP2 SWAP1 PUSH2 0x4ED7 JUMP JUMPDEST PUSH2 0x1BF2 SWAP2 SWAP1 PUSH2 0x4ED7 JUMP JUMPDEST PUSH2 0x1BFC SWAP2 SWAP1 PUSH2 0x4EEE JUMP JUMPDEST SWAP1 POP DUP4 PUSH1 0x2 ADD SLOAD PUSH0 EQ PUSH2 0x1C39 JUMPI PUSH8 0x8AC7230489E80000 DUP5 PUSH1 0x2 ADD SLOAD DUP3 PUSH2 0x1C22 SWAP2 SWAP1 PUSH2 0x4ED7 JUMP JUMPDEST PUSH2 0x1C2C SWAP2 SWAP1 PUSH2 0x4EEE JUMP JUMPDEST PUSH2 0x1C36 SWAP1 DUP3 PUSH2 0x4EC4 JUMP JUMPDEST SWAP1 POP JUMPDEST DUP4 SLOAD PUSH2 0x1C48 SWAP1 ADDRESS SWAP1 CALLER SWAP1 PUSH2 0x3E64 JUMP JUMPDEST DUP4 SLOAD PUSH1 0x11 DUP1 SLOAD PUSH0 SWAP1 PUSH2 0x1C5B SWAP1 DUP5 SWAP1 PUSH2 0x4F0D JUMP JUMPDEST SWAP1 SWAP2 SSTORE POP POP DUP1 ISZERO DUP1 ISZERO SWAP1 PUSH2 0x1C76 JUMPI POP PUSH2 0x1C73 CALLER PUSH2 0x34DC JUMP JUMPDEST ISZERO ISZERO JUMPDEST ISZERO PUSH2 0x1CBC JUMPI PUSH2 0x1C86 ADDRESS CALLER DUP4 PUSH2 0x3E64 JUMP JUMPDEST PUSH1 0x40 MLOAD DUP2 DUP2 MSTORE CALLER SWAP1 PUSH32 0x6DD401E61BA732582A5EBA3D54CCC3AFB3609CD3AC1A166D1D36F75FC0AEDCDA SWAP1 PUSH1 0x20 ADD PUSH1 0x40 MLOAD DUP1 SWAP2 SUB SWAP1 LOG2 JUMPDEST CALLER PUSH0 DUP2 DUP2 MSTORE PUSH1 0x29 PUSH1 0x20 MSTORE PUSH1 0x40 DUP1 DUP3 KECCAK256 DUP3 DUP2 SSTORE PUSH1 0x1 DUP2 ADD DUP4 SWAP1 SSTORE PUSH1 0x2 DUP2 ADD SWAP3 SWAP1 SWAP3 SSTORE PUSH1 0x3 SWAP1 SWAP2 ADD DUP1 SLOAD PUSH1 0xFF NOT AND SWAP1 SSTORE DUP6 SLOAD SWAP1 MLOAD PUSH32 0x7FC4727E062E336010F2C282598EF5F14FACB3DE68CF8195C2F23E1454B2B74E SWAP2 PUSH2 0x1D24 SWAP2 TIMESTAMP SWAP1 SWAP2 DUP3 MSTORE PUSH1 0x20 DUP3 ADD MSTORE PUSH1 0x40 ADD SWAP1 JUMP JUMPDEST PUSH1 0x40 MLOAD DUP1 SWAP2 SUB SWAP1 LOG2 POP POP POP POP PUSH2 0x166E PUSH1 0x1 PUSH1 0x5 SSTORE JUMP JUMPDEST PUSH2 0x1D42 PUSH2 0x3E3A JUMP JUMPDEST PUSH1 0x9 SLOAD PUSH3 0x10000 SWAP1 DIV PUSH1 0xFF AND ISZERO PUSH2 0x1D6C JUMPI PUSH1 0x40 MLOAD PUSH4 0xAB35696F PUSH1 0xE0 SHL DUP2 MSTORE PUSH1 0x4 ADD PUSH1 0x40 MLOAD DUP1 SWAP2 SUB SWAP1 REVERT JUMPDEST PUSH1 0x32 DUP2 GT ISZERO PUSH2 0x1D8E JUMPI PUSH1 0x40 MLOAD PUSH4 0xD5931657 PUSH1 0xE0 SHL DUP2 MSTORE PUSH1 0x4 ADD PUSH1 0x40 MLOAD DUP1 SWAP2 SUB SWAP1 REVERT JUMPDEST DUP1 PUSH0 DUP2 PUSH8 0xFFFFFFFFFFFFFFFF DUP2 GT ISZERO PUSH2 0x1DA9 JUMPI PUSH2 0x1DA9 PUSH2 0x4D3E JUMP JUMPDEST PUSH1 0x40 MLOAD SWAP1 DUP1 DUP3 MSTORE DUP1 PUSH1 0x20 MUL PUSH1 0x20 ADD DUP3 ADD PUSH1 0x40 MSTORE DUP1 ISZERO PUSH2 0x1DD2 JUMPI DUP2 PUSH1 0x20 ADD PUSH1 0x20 DUP3 MUL DUP1 CALLDATASIZE DUP4 CALLDATACOPY ADD SWAP1 POP JUMPDEST POP PUSH1 0x10 SLOAD SWAP1 SWAP2 POP PUSH0 JUMPDEST DUP4 DUP2 LT ISZERO PUSH2 0x1FF7 JUMPI PUSH0 DUP7 DUP7 DUP4 DUP2 DUP2 LT PUSH2 0x1DF6 JUMPI PUSH2 0x1DF6 PUSH2 0x4FD4 JUMP JUMPDEST SWAP1 POP PUSH1 0x20 MUL ADD PUSH1 0x20 DUP2 ADD SWAP1 PUSH2 0x1E0B SWAP2 SWAP1 PUSH2 0x4A4F JUMP JUMPDEST SWAP1 POP PUSH1 0x1 PUSH1 0x1 PUSH1 0xA0 SHL SUB DUP2 AND PUSH2 0x1E34 JUMPI PUSH1 0x40 MLOAD PUSH4 0xE6C4247B PUSH1 0xE0 SHL DUP2 MSTORE PUSH1 0x4 ADD PUSH1 0x40 MLOAD DUP1 SWAP2 SUB SWAP1 REVERT JUMPDEST PUSH1 0x1 PUSH1 0x1 PUSH1 0xA0 SHL SUB DUP2 AND PUSH0 SWAP1 DUP2 MSTORE PUSH1 0x20 DUP1 MSTORE PUSH1 0x40 SWAP1 KECCAK256 SLOAD ISZERO DUP1 ISZERO PUSH2 0x1E6E JUMPI POP PUSH1 0x1 PUSH1 0x1 PUSH1 0xA0 SHL SUB DUP2 AND PUSH0 SWAP1 DUP2 MSTORE PUSH1 0x21 PUSH1 0x20 MSTORE PUSH1 0x40 SWAP1 KECCAK256 SLOAD ISZERO ISZERO JUMPDEST ISZERO PUSH2 0x1FE5 JUMPI PUSH1 0x1 PUSH1 0x1 PUSH1 0xA0 SHL SUB DUP2 AND PUSH0 SWAP1 DUP2 MSTORE PUSH1 0x21 PUSH1 0x20 MSTORE PUSH1 0x40 DUP2 KECCAK256 SLOAD PUSH32 0x0 SWAP1 PUSH2 0x1EC4 SWAP1 PUSH12 0x33B2E3C9FD0803CE8000000 SWAP1 PUSH2 0x4ED7 JUMP JUMPDEST PUSH2 0x1ECE SWAP2 SWAP1 PUSH2 0x4EEE JUMP JUMPDEST SWAP1 POP PUSH2 0x3E8 DUP5 LT ISZERO PUSH2 0x1F09 JUMPI PUSH1 0x64 PUSH2 0x1EE7 PUSH1 0xA DUP4 PUSH2 0x4ED7 JUMP JUMPDEST PUSH2 0x1EF1 SWAP2 SWAP1 PUSH2 0x4EEE JUMP JUMPDEST PUSH2 0x1EFB SWAP1 DUP3 PUSH2 0x4EC4 JUMP JUMPDEST SWAP1 POP PUSH2 0x1F06 DUP5 PUSH2 0x4FE8 JUMP JUMPDEST SWAP4 POP JUMPDEST DUP1 PUSH0 SUB PUSH2 0x1F17 JUMPI POP POP PUSH2 0x1FE7 JUMP JUMPDEST PUSH1 0x1 PUSH1 0x1 PUSH1 0xA0 SHL SUB DUP1 DUP4 AND PUSH0 SWAP1 DUP2 MSTORE PUSH1 0x22 PUSH1 0x20 MSTORE PUSH1 0x40 SWAP1 KECCAK256 SLOAD AND DUP1 ISZERO PUSH2 0x1FA0 JUMPI PUSH0 PUSH1 0x64 PUSH2 0x1F45 PUSH1 0x5 DUP6 PUSH2 0x4ED7 JUMP JUMPDEST PUSH2 0x1F4F SWAP2 SWAP1 PUSH2 0x4EEE JUMP JUMPDEST SWAP1 POP PUSH2 0x1F5B DUP3 DUP3 PUSH2 0x464B JUMP JUMPDEST DUP2 PUSH1 0x1 PUSH1 0x1 PUSH1 0xA0 SHL SUB AND PUSH32 0x50BAE3EEEFAC62A4EE36C766F4F426F09EDF96AE8FB3034EBBF961E4ACC78E2 DUP3 PUSH1 0x40 MLOAD PUSH2 0x1F96 SWAP2 DUP2 MSTORE PUSH1 0x20 ADD SWAP1 JUMP JUMPDEST PUSH1 0x40 MLOAD DUP1 SWAP2 SUB SWAP1 LOG2 POP JUMPDEST PUSH1 0x1 PUSH1 0x1 PUSH1 0xA0 SHL SUB DUP4 AND PUSH0 SWAP1 DUP2 MSTORE PUSH1 0x20 DUP1 MSTORE PUSH1 0x40 SWAP1 KECCAK256 DUP3 SWAP1 SSTORE PUSH2 0x1FC3 DUP4 DUP4 PUSH2 0x464B JUMP JUMPDEST DUP2 DUP7 DUP6 DUP2 MLOAD DUP2 LT PUSH2 0x1FD6 JUMPI PUSH2 0x1FD6 PUSH2 0x4FD4 JUMP JUMPDEST PUSH1 0x20 MUL PUSH1 0x20 ADD ADD DUP2 DUP2 MSTORE POP POP POP POP JUMPDEST POP JUMPDEST PUSH2 0x1FF0 DUP2 PUSH2 0x4FE8 JUMP JUMPDEST SWAP1 POP PUSH2 0x1DDB JUMP JUMPDEST POP PUSH1 0x10 DUP2 SWAP1 SSTORE PUSH1 0x40 MLOAD PUSH2 0x200D SWAP1 DUP7 SWAP1 DUP7 SWAP1 PUSH2 0x5000 JUMP JUMPDEST PUSH1 0x40 MLOAD DUP1 SWAP2 SUB SWAP1 KECCAK256 PUSH32 0x6D0C10E0399EF884A3729FE88266E321A043AE7F4D6D12AFB75539720CFAB71B DUP4 PUSH1 0x40 MLOAD PUSH2 0x2044 SWAP2 SWAP1 PUSH2 0x503F JUMP JUMPDEST PUSH1 0x40 MLOAD DUP1 SWAP2 SUB SWAP1 LOG2 POP POP POP PUSH2 0x2059 PUSH1 0x1 PUSH1 0x5 SSTORE JUMP JUMPDEST POP POP JUMP JUMPDEST PUSH1 0x9 SLOAD PUSH0 SWAP1 PUSH1 0xFF AND ISZERO DUP1 PUSH2 0x2093 JUMPI POP PUSH32 0x0 PUSH1 0xB SLOAD LT ISZERO JUMPDEST ISZERO PUSH2 0x209D JUMPI POP PUSH0 SWAP1 JUMP JUMPDEST PUSH0 PUSH32 0x0 PUSH1 0xF SLOAD PUSH1 0xB SLOAD PUSH2 0x20CF SWAP2 SWAP1 PUSH2 0x4EC4 JUMP JUMPDEST GT PUSH2 0x20DC JUMPI PUSH1 0xF SLOAD PUSH2 0x2109 JUMP JUMPDEST PUSH1 0xB SLOAD PUSH2 0x2109 SWAP1 PUSH32 0x0 PUSH2 0x4F0D JUMP JUMPDEST PUSH1 0xD SLOAD PUSH0 SWAP1 DUP2 MSTORE PUSH1 0x1F PUSH1 0x20 MSTORE PUSH1 0x40 SWAP1 KECCAK256 SLOAD SWAP1 SWAP2 POP DUP2 DUP2 LT ISZERO PUSH2 0x2134 JUMPI PUSH2 0x212F DUP2 DUP4 PUSH2 0x4F0D JUMP JUMPDEST PUSH2 0x2136 JUMP JUMPDEST PUSH0 JUMPDEST SWAP3 POP POP POP SWAP1 JUMP JUMPDEST PUSH1 0x9 SLOAD PUSH3 0x10000 SWAP1 DIV PUSH1 0xFF AND ISZERO PUSH2 0x2167 JUMPI PUSH1 0x40 MLOAD PUSH4 0xAB35696F PUSH1 0xE0 SHL DUP2 MSTORE PUSH1 0x4 ADD PUSH1 0x40 MLOAD DUP1 SWAP2 SUB SWAP1 REVERT JUMPDEST PUSH1 0x9 SLOAD PUSH1 0xFF AND PUSH2 0x166E JUMPI PUSH1 0xA SLOAD PUSH0 DUP1 DUP1 MSTORE PUSH1 0x20 DUP2 SWAP1 MSTORE PUSH32 0xAD3228B676F7D3CD4284A5443F17F1962B36E491B30A40B2405849E597BA5FB5 SLOAD SWAP1 SWAP2 SWAP1 PUSH1 0x2 SLOAD PUSH2 0x21AF SWAP2 SWAP1 PUSH2 0x4F0D JUMP JUMPDEST PUSH2 0x21B9 SWAP2 SWAP1 PUSH2 0x4F0D JUMP JUMPDEST SWAP1 POP PUSH32 0x0 DUP2 LT PUSH2 0x13F6 JUMPI PUSH1 0x9 DUP1 SLOAD PUSH1 0xFF NOT AND PUSH1 0x1 OR SWAP1 SSTORE PUSH1 0x40 MLOAD TIMESTAMP SWAP1 PUSH32 0x60DC7136AE550F48CFEB4A0C4E69DE31959531F869BD784A65DBC2C175F0B4A6 SWAP1 PUSH0 SWAP1 LOG2 POP JUMP JUMPDEST PUSH2 0x2224 PUSH2 0x467F JUMP JUMPDEST ADDRESS PUSH0 SWAP1 DUP2 MSTORE PUSH1 0x20 DUP2 SWAP1 MSTORE PUSH1 0x40 SWAP1 KECCAK256 SLOAD PUSH12 0x33B2E3C9FD0803CE8000000 GT ISZERO PUSH2 0x225F JUMPI PUSH1 0x40 MLOAD PUSH4 0x786E0A99 PUSH1 0xE0 SHL DUP2 MSTORE PUSH1 0x4 ADD PUSH1 0x40 MLOAD DUP1 SWAP2 SUB SWAP1 REVERT JUMPDEST PUSH1 0x1D SLOAD PUSH1 0x1 PUSH1 0x1 PUSH1 0xA0 SHL SUB AND PUSH2 0x2288 JUMPI PUSH1 0x40 MLOAD PUSH4 0x51AB8379 PUSH1 0xE0 SHL DUP2 MSTORE PUSH1 0x4 ADD PUSH1 0x40 MLOAD DUP1 SWAP2 SUB SWAP1 REVERT JUMPDEST PUSH1 0x7 SLOAD PUSH2 0x22AC SWAP1 ADDRESS SWAP1 PUSH1 0x1 PUSH1 0x1 PUSH1 0xA0 SHL SUB AND PUSH12 0x33B2E3C9FD0803CE8000000 PUSH2 0x3E64 JUMP JUMPDEST PUSH12 0x33B2E3C9FD0803CE8000000 PUSH1 0xA PUSH0 DUP3 DUP3 SLOAD PUSH2 0x22C9 SWAP2 SWAP1 PUSH2 0x4F0D JUMP JUMPDEST SWAP1 SWAP2 SSTORE POP PUSH2 0x22D8 SWAP1 POP PUSH0 PUSH2 0x46AC JUMP JUMPDEST ADDRESS PUSH0 SWAP1 DUP2 MSTORE PUSH1 0x20 DUP2 DUP2 MSTORE PUSH1 0x40 SWAP2 DUP3 SWAP1 KECCAK256 SLOAD DUP3 MLOAD PUSH12 0x33B2E3C9FD0803CE8000000 DUP2 MSTORE SWAP2 DUP3 ADD MSTORE DUP2 MLOAD PUSH32 0xE49DB96A72E85D04778BB78627173221C08F5ACAA50EAEF5B0D94C0A8C1589B1 SWAP3 SWAP2 DUP2 SWAP1 SUB SWAP1 SWAP2 ADD SWAP1 LOG1 JUMP JUMPDEST PUSH1 0x2E DUP2 DUP2 SLOAD DUP2 LT PUSH2 0x233C JUMPI PUSH0 DUP1 REVERT JUMPDEST PUSH0 SWAP2 DUP3 MSTORE PUSH1 0x20 SWAP1 SWAP2 KECCAK256 ADD SLOAD PUSH1 0x1 PUSH1 0x1 PUSH1 0xA0 SHL SUB AND SWAP1 POP DUP2 JUMP JUMPDEST PUSH1 0x2D DUP2 DUP2 SLOAD DUP2 LT PUSH2 0x233C JUMPI PUSH0 DUP1 REVERT JUMPDEST PUSH2 0x236C PUSH2 0x3E3A JUMP JUMPDEST PUSH1 0x9 SLOAD PUSH3 0x10000 SWAP1 DIV PUSH1 0xFF AND ISZERO PUSH2 0x2396 JUMPI PUSH1 0x40 MLOAD PUSH4 0xAB35696F PUSH1 0xE0 SHL DUP2 MSTORE PUSH1 0x4 ADD PUSH1 0x40 MLOAD DUP1 SWAP2 SUB SWAP1 REVERT JUMPDEST CALLER ORIGIN EQ PUSH2 0x23B5 JUMPI PUSH1 0x40 MLOAD PUSH3 0x461BCD PUSH1 0xE5 SHL DUP2 MSTORE PUSH1 0x4 ADD PUSH2 0x1528 SWAP1 PUSH2 0x4FA5 JUMP JUMPDEST PUSH1 0x9 SLOAD PUSH1 0xFF AND PUSH2 0x23D8 JUMPI PUSH1 0x40 MLOAD PUSH4 0x45232915 PUSH1 0xE0 SHL DUP2 MSTORE PUSH1 0x4 ADD PUSH1 0x40 MLOAD DUP1 SWAP2 SUB SWAP1 REVERT JUMPDEST DUP1 PUSH0 SUB PUSH2 0x23F8 JUMPI PUSH1 0x40 MLOAD PUSH4 0x65E52D51 PUSH1 0xE1 SHL DUP2 MSTORE PUSH1 0x4 ADD PUSH1 0x40 MLOAD DUP1 SWAP2 SUB SWAP1 REVERT JUMPDEST CALLER PUSH0 SWAP1 DUP2 MSTORE PUSH1 0x20 DUP2 SWAP1 MSTORE PUSH1 0x40 SWAP1 KECCAK256 SLOAD DUP2 GT ISZERO PUSH2 0x2427 JUMPI PUSH1 0x40 MLOAD PUSH4 0x1E9ACF17 PUSH1 0xE3 SHL DUP2 MSTORE PUSH1 0x4 ADD PUSH1 0x40 MLOAD DUP1 SWAP2 SUB SWAP1 REVERT JUMPDEST PUSH1 0xC SLOAD TIMESTAMP GT DUP1 ISZERO PUSH2 0x2459 JUMPI POP PUSH32 0x0 PUSH1 0xB SLOAD LT JUMPDEST ISZERO PUSH2 0x2489 JUMPI PUSH1 0xD PUSH0 DUP2 SLOAD PUSH2 0x246C SWAP1 PUSH2 0x4FE8 JUMP JUMPDEST SWAP1 SWAP2 SSTORE POP TIMESTAMP PUSH1 0xE DUP2 SWAP1 SSTORE PUSH2 0x2485 SWAP1 PUSH4 0x1E13380 SWAP1 PUSH2 0x4EC4 JUMP JUMPDEST PUSH1 0xC SSTORE JUMPDEST PUSH1 0xC SLOAD TIMESTAMP GT ISZERO PUSH2 0x24AC JUMPI PUSH1 0x40 MLOAD PUSH4 0xE04B2001 PUSH1 0xE0 SHL DUP2 MSTORE PUSH1 0x4 ADD PUSH1 0x40 MLOAD DUP1 SWAP2 SUB SWAP1 REVERT JUMPDEST PUSH0 PUSH32 0x0 PUSH1 0xF SLOAD PUSH1 0xB SLOAD PUSH2 0x24DE SWAP2 SWAP1 PUSH2 0x4EC4 JUMP JUMPDEST GT PUSH2 0x24EB JUMPI PUSH1 0xF SLOAD PUSH2 0x2518 JUMP JUMPDEST PUSH1 0xB SLOAD PUSH2 0x2518 SWAP1 PUSH32 0x0 PUSH2 0x4F0D JUMP JUMPDEST SWAP1 POP PUSH32 0x0 DUP3 PUSH1 0xB SLOAD PUSH2 0x2549 SWAP2 SWAP1 PUSH2 0x4EC4 JUMP JUMPDEST GT DUP1 PUSH2 0x2570 JUMPI POP PUSH1 0xD SLOAD PUSH0 SWAP1 DUP2 MSTORE PUSH1 0x1F PUSH1 0x20 MSTORE PUSH1 0x40 SWAP1 KECCAK256 SLOAD DUP2 SWAP1 PUSH2 0x256E SWAP1 DUP5 SWAP1 PUSH2 0x4EC4 JUMP JUMPDEST GT JUMPDEST ISZERO PUSH2 0x258E JUMPI PUSH1 0x40 MLOAD PUSH4 0x87D5B4FB PUSH1 0xE0 SHL DUP2 MSTORE PUSH1 0x4 ADD PUSH1 0x40 MLOAD DUP1 SWAP2 SUB SWAP1 REVERT JUMPDEST PUSH0 PUSH2 0x2598 CALLER PUSH2 0x34DC JUMP JUMPDEST PUSH0 SUB PUSH2 0x25A4 JUMPI PUSH0 PUSH2 0x25BB JUMP JUMPDEST PUSH1 0x64 PUSH2 0x25B1 DUP5 PUSH1 0x5 PUSH2 0x4ED7 JUMP JUMPDEST PUSH2 0x25BB SWAP2 SWAP1 PUSH2 0x4EEE JUMP JUMPDEST SWAP1 POP PUSH2 0x25C7 CALLER DUP5 PUSH2 0x4236 JUMP JUMPDEST DUP3 PUSH1 0xB PUSH0 DUP3 DUP3 SLOAD PUSH2 0x25D8 SWAP2 SWAP1 PUSH2 0x4EC4 JUMP JUMPDEST SWAP1 SWAP2 SSTORE POP POP PUSH1 0xD SLOAD PUSH0 SWAP1 DUP2 MSTORE PUSH1 0x1F PUSH1 0x20 MSTORE PUSH1 0x40 DUP2 KECCAK256 DUP1 SLOAD DUP6 SWAP3 SWAP1 PUSH2 0x25FD SWAP1 DUP5 SWAP1 PUSH2 0x4EC4 JUMP JUMPDEST SWAP1 SWAP2 SSTORE POP POP PUSH1 0xD SLOAD PUSH0 SWAP1 DUP2 MSTORE PUSH1 0x1E PUSH1 0x20 SWAP1 DUP2 MSTORE PUSH1 0x40 DUP1 DUP4 KECCAK256 CALLER DUP5 MSTORE SWAP1 SWAP2 MSTORE DUP2 KECCAK256 DUP1 SLOAD DUP6 SWAP3 SWAP1 PUSH2 0x262D SWAP1 DUP5 SWAP1 PUSH2 0x4EC4 JUMP JUMPDEST SWAP1 SWAP2 SSTORE POP POP CALLER PUSH0 SWAP1 DUP2 MSTORE PUSH1 0x21 PUSH1 0x20 MSTORE PUSH1 0x40 DUP2 KECCAK256 DUP1 SLOAD DUP6 SWAP3 SWAP1 PUSH2 0x2650 SWAP1 DUP5 SWAP1 PUSH2 0x4EC4 JUMP JUMPDEST SWAP1 SWAP2 SSTORE POP POP DUP1 ISZERO PUSH2 0x26FE JUMPI DUP1 PUSH1 0xB PUSH0 DUP3 DUP3 SLOAD PUSH2 0x266C SWAP2 SWAP1 PUSH2 0x4EC4 JUMP JUMPDEST SWAP1 SWAP2 SSTORE POP POP PUSH1 0xD SLOAD PUSH0 SWAP1 DUP2 MSTORE PUSH1 0x1F PUSH1 0x20 MSTORE PUSH1 0x40 DUP2 KECCAK256 DUP1 SLOAD DUP4 SWAP3 SWAP1 PUSH2 0x2691 SWAP1 DUP5 SWAP1 PUSH2 0x4EC4 JUMP JUMPDEST SWAP1 SWAP2 SSTORE POP POP CALLER PUSH0 SWAP1 DUP2 MSTORE PUSH1 0x21 PUSH1 0x20 MSTORE PUSH1 0x40 DUP2 KECCAK256 DUP1 SLOAD DUP4 SWAP3 SWAP1 PUSH2 0x26B4 SWAP1 DUP5 SWAP1 PUSH2 0x4EC4 JUMP JUMPDEST SWAP1 SWAP2 SSTORE POP POP PUSH1 0xD SLOAD PUSH1 0x40 MLOAD CALLER SWAP2 PUSH32 0x4C97AE41D96B9D1B707EB19904C08873168D11C83D16D121546EF8213F3C4078 SWAP2 PUSH2 0x26F5 SWAP2 DUP6 DUP3 MSTORE PUSH1 0x20 DUP3 ADD MSTORE PUSH1 0x40 ADD SWAP1 JUMP JUMPDEST PUSH1 0x40 MLOAD DUP1 SWAP2 SUB SWAP1 LOG2 JUMPDEST CALLER PUSH32 0x19783B34589160C168487DC7F9C51AE0BCEFE67A47D6708FBA90F6CE0366D3D1 PUSH2 0x272A DUP4 DUP7 PUSH2 0x4EC4 JUMP JUMPDEST PUSH1 0xB SLOAD PUSH1 0xD SLOAD PUSH1 0x40 DUP1 MLOAD SWAP4 DUP5 MSTORE PUSH1 0x20 DUP5 ADD SWAP3 SWAP1 SWAP3 MSTORE SWAP1 DUP3 ADD MSTORE PUSH1 0x60 ADD PUSH1 0x40 MLOAD DUP1 SWAP2 SUB SWAP1 LOG2 PUSH32 0x0 PUSH1 0xB SLOAD LT ISZERO DUP1 ISZERO PUSH2 0x2788 JUMPI POP PUSH1 0x9 SLOAD PUSH2 0x100 SWAP1 DIV PUSH1 0xFF AND ISZERO JUMPDEST ISZERO PUSH2 0x27C7 JUMPI PUSH1 0x9 DUP1 SLOAD PUSH2 0xFF00 NOT AND PUSH2 0x100 OR SWAP1 SSTORE PUSH1 0x40 MLOAD TIMESTAMP SWAP1 PUSH32 0x487F0D08255B66D07FA5D32380F37FC9845759C2C886EDB198E5A083CC8DFB4A SWAP1 PUSH0 SWAP1 LOG2 JUMPDEST POP POP PUSH2 0x13F6 PUSH1 0x1 PUSH1 0x5 SSTORE JUMP JUMPDEST PUSH2 0x27DC DUP2 PUSH2 0x34DC JUMP JUMPDEST PUSH0 SUB PUSH2 0x27E5 JUMPI POP JUMP JUMPDEST PUSH1 0x1 PUSH1 0x1 PUSH1 0xA0 SHL SUB DUP2 AND PUSH0 SWAP1 DUP2 MSTORE PUSH1 0x25 PUSH1 0x20 MSTORE PUSH1 0x40 SWAP1 KECCAK256 PUSH1 0x1 DUP2 ADD SLOAD PUSH1 0xFF AND ISZERO DUP1 ISZERO PUSH2 0x2822 JUMPI POP PUSH1 0x19 SLOAD DUP2 SLOAD PUSH2 0x281E SWAP2 SWAP1 PUSH1 0x80 SHR PUSH2 0x4EC4 JUMP JUMPDEST TIMESTAMP LT ISZERO JUMPDEST ISZERO PUSH2 0x2059 JUMPI PUSH1 0x1 DUP2 DUP2 ADD DUP1 SLOAD PUSH1 0xFF NOT AND DUP3 OR SWAP1 SSTORE PUSH1 0x40 MLOAD SWAP1 DUP2 MSTORE PUSH1 0x1 PUSH1 0x1 PUSH1 0xA0 SHL SUB DUP4 AND SWAP1 PUSH32 0x901C366748C1200897E79F66EDAD4E674060EBAB48CB1AFF438E4504E79ED67E SWAP1 PUSH1 0x20 ADD JUMPDEST PUSH1 0x40 MLOAD DUP1 SWAP2 SUB SWAP1 LOG2 POP POP JUMP JUMPDEST PUSH2 0x2881 PUSH2 0x3E3A JUMP JUMPDEST PUSH1 0x9 SLOAD PUSH3 0x10000 SWAP1 DIV PUSH1 0xFF AND ISZERO PUSH2 0x28AB JUMPI PUSH1 0x40 MLOAD PUSH4 0xAB35696F PUSH1 0xE0 SHL DUP2 MSTORE PUSH1 0x4 ADD PUSH1 0x40 MLOAD DUP1 SWAP2 SUB SWAP1 REVERT JUMPDEST PUSH1 0x1 PUSH1 0x1 PUSH1 0xA0 SHL SUB DUP3 AND ISZERO DUP1 PUSH2 0x28C9 JUMPI POP PUSH1 0x1 PUSH1 0x1 PUSH1 0xA0 SHL SUB DUP3 AND CALLER EQ JUMPDEST ISZERO PUSH2 0x28E7 JUMPI PUSH1 0x40 MLOAD PUSH4 0x2D618D81 PUSH1 0xE2 SHL DUP2 MSTORE PUSH1 0x4 ADD PUSH1 0x40 MLOAD DUP1 SWAP2 SUB SWAP1 REVERT JUMPDEST DUP1 ISZERO DUP1 PUSH2 0x28FB JUMPI POP PUSH2 0x28F8 CALLER PUSH2 0x34DC JUMP JUMPDEST DUP2 GT JUMPDEST ISZERO PUSH2 0x2919 JUMPI PUSH1 0x40 MLOAD PUSH4 0x65E52D51 PUSH1 0xE1 SHL DUP2 MSTORE PUSH1 0x4 ADD PUSH1 0x40 MLOAD DUP1 SWAP2 SUB SWAP1 REVERT JUMPDEST CALLER PUSH0 SWAP1 DUP2 MSTORE PUSH1 0x27 PUSH1 0x20 MSTORE PUSH1 0x40 SWAP1 KECCAK256 PUSH1 0x1 ADD SLOAD PUSH1 0x1 PUSH1 0x1 PUSH1 0xA0 SHL SUB AND ISZERO PUSH2 0x2952 JUMPI PUSH1 0x40 MLOAD PUSH4 0x6269CF49 PUSH1 0xE0 SHL DUP2 MSTORE PUSH1 0x4 ADD PUSH1 0x40 MLOAD DUP1 SWAP2 SUB SWAP1 REVERT JUMPDEST PUSH2 0x295B CALLER PUSH2 0x27D3 JUMP JUMPDEST CALLER PUSH0 SWAP1 DUP2 MSTORE PUSH1 0x25 PUSH1 0x20 MSTORE PUSH1 0x40 SWAP1 KECCAK256 PUSH1 0x1 ADD SLOAD PUSH1 0xFF AND PUSH2 0x298D JUMPI PUSH1 0x40 MLOAD PUSH4 0x1878F081 PUSH1 0xE0 SHL DUP2 MSTORE PUSH1 0x4 ADD PUSH1 0x40 MLOAD DUP1 SWAP2 SUB SWAP1 REVERT JUMPDEST PUSH0 PUSH1 0x64 PUSH1 0x1C SLOAD PUSH2 0x299C DUP6 PUSH2 0x34DC JUMP JUMPDEST PUSH2 0x29A6 SWAP2 SWAP1 PUSH2 0x4ED7 JUMP JUMPDEST PUSH2 0x29B0 SWAP2 SWAP1 PUSH2 0x4EEE JUMP JUMPDEST PUSH1 0x1 PUSH1 0x1 PUSH1 0xA0 SHL SUB DUP5 AND PUSH0 SWAP1 DUP2 MSTORE PUSH1 0x28 PUSH1 0x20 MSTORE PUSH1 0x40 SWAP1 KECCAK256 SLOAD SWAP1 SWAP2 POP DUP2 SWAP1 PUSH2 0x29D8 SWAP1 DUP5 SWAP1 PUSH2 0x4EC4 JUMP JUMPDEST GT ISZERO PUSH2 0x29F7 JUMPI PUSH1 0x40 MLOAD PUSH4 0x4BD2B19 PUSH1 0xE2 SHL DUP2 MSTORE PUSH1 0x4 ADD PUSH1 0x40 MLOAD DUP1 SWAP2 SUB SWAP1 REVERT JUMPDEST PUSH1 0x40 DUP1 MLOAD PUSH1 0x80 DUP2 ADD DUP3 MSTORE CALLER DUP1 DUP3 MSTORE PUSH1 0x1 PUSH1 0x1 PUSH1 0xA0 SHL SUB DUP7 DUP2 AND PUSH1 0x20 DUP1 DUP6 ADD DUP3 DUP2 MSTORE DUP6 DUP8 ADD DUP10 DUP2 MSTORE TIMESTAMP PUSH1 0x60 DUP9 ADD SWAP1 DUP2 MSTORE PUSH0 SWAP7 DUP8 MSTORE PUSH1 0x27 DUP5 MSTORE DUP9 DUP8 KECCAK256 SWAP8 MLOAD DUP9 SLOAD SWAP1 DUP8 AND PUSH1 0x1 PUSH1 0x1 PUSH1 0xA0 SHL SUB NOT SWAP2 DUP3 AND OR DUP10 SSTORE SWAP3 MLOAD PUSH1 0x1 DUP10 ADD DUP1 SLOAD SWAP2 SWAP1 SWAP8 AND SWAP4 AND SWAP3 SWAP1 SWAP3 OR SWAP1 SWAP5 SSTORE SWAP3 MLOAD PUSH1 0x2 DUP7 ADD SSTORE SWAP2 MLOAD PUSH1 0x3 SWAP1 SWAP5 ADD SWAP4 SWAP1 SWAP4 SSTORE SWAP2 DUP2 MSTORE PUSH1 0x28 SWAP1 SWAP2 MSTORE SWAP1 DUP2 KECCAK256 DUP1 SLOAD DUP5 SWAP3 SWAP1 PUSH2 0x2A89 SWAP1 DUP5 SWAP1 PUSH2 0x4EC4 JUMP JUMPDEST SWAP1 SWAP2 SSTORE POP POP PUSH1 0x1 PUSH1 0x1 PUSH1 0xA0 SHL SUB DUP4 AND PUSH0 SWAP1 DUP2 MSTORE PUSH1 0x28 PUSH1 0x20 MSTORE PUSH1 0x40 SWAP1 KECCAK256 SLOAD PUSH2 0x2AB1 SWAP1 DUP5 SWAP1 PUSH2 0x426A JUMP JUMPDEST PUSH1 0x40 MLOAD DUP3 DUP2 MSTORE PUSH1 0x1 PUSH1 0x1 PUSH1 0xA0 SHL SUB DUP5 AND SWAP1 CALLER SWAP1 PUSH32 0xF5C2B450C3B6C4C3CC8C45E612FFA5CE51CDA974E8B2ECAF58ABDA86D8965847 SWAP1 PUSH1 0x20 ADD PUSH1 0x40 MLOAD DUP1 SWAP2 SUB SWAP1 LOG3 POP PUSH2 0x2059 PUSH1 0x1 PUSH1 0x5 SSTORE JUMP JUMPDEST PUSH1 0x60 PUSH1 0x4 DUP1 SLOAD PUSH2 0xE69 SWAP1 PUSH2 0x4E78 JUMP JUMPDEST PUSH1 0x60 PUSH1 0x2E DUP1 SLOAD DUP1 PUSH1 0x20 MUL PUSH1 0x20 ADD PUSH1 0x40 MLOAD SWAP1 DUP2 ADD PUSH1 0x40 MSTORE DUP1 SWAP3 SWAP2 SWAP1 DUP2 DUP2 MSTORE PUSH1 0x20 ADD DUP3 DUP1 SLOAD DUP1 ISZERO PUSH2 0xEE0 JUMPI PUSH1 0x20 MUL DUP3 ADD SWAP2 SWAP1 PUSH0 MSTORE PUSH1 0x20 PUSH0 KECCAK256 SWAP1 JUMPDEST DUP2 SLOAD PUSH1 0x1 PUSH1 0x1 PUSH1 0xA0 SHL SUB AND DUP2 MSTORE PUSH1 0x1 SWAP1 SWAP2 ADD SWAP1 PUSH1 0x20 ADD DUP1 DUP4 GT PUSH2 0x2B43 JUMPI POP POP POP POP POP SWAP1 POP SWAP1 JUMP JUMPDEST PUSH1 0x1D SLOAD PUSH1 0x1 PUSH1 0x1 PUSH1 0xA0 SHL SUB AND CALLER EQ DUP1 ISZERO SWAP1 PUSH2 0x2B90 JUMPI POP PUSH1 0x6 SLOAD PUSH1 0x1 PUSH1 0x1 PUSH1 0xA0 SHL SUB AND CALLER EQ ISZERO JUMPDEST ISZERO PUSH2 0x2BAE JUMPI PUSH1 0x40 MLOAD PUSH4 0xEA8E4EB5 PUSH1 0xE0 SHL DUP2 MSTORE PUSH1 0x4 ADD PUSH1 0x40 MLOAD DUP1 SWAP2 SUB SWAP1 REVERT JUMPDEST PUSH1 0x1D SLOAD PUSH1 0x1 PUSH1 0xA0 SHL SWAP1 DIV PUSH1 0xFF AND ISZERO PUSH2 0x2BD9 JUMPI PUSH1 0x40 MLOAD PUSH4 0x87CEAB01 PUSH1 0xE0 SHL DUP2 MSTORE PUSH1 0x4 ADD PUSH1 0x40 MLOAD DUP1 SWAP2 SUB SWAP1 REVERT JUMPDEST PUSH32 0x0 PUSH2 0x2C03 PUSH1 0x2 SLOAD SWAP1 JUMP JUMPDEST LT ISZERO PUSH2 0x2C22 JUMPI PUSH1 0x40 MLOAD PUSH4 0x90D0CC47 PUSH1 0xE0 SHL DUP2 MSTORE PUSH1 0x4 ADD PUSH1 0x40 MLOAD DUP1 SWAP2 SUB SWAP1 REVERT JUMPDEST PUSH1 0x2D SLOAD PUSH0 SUB PUSH2 0x2C44 JUMPI PUSH1 0x40 MLOAD PUSH4 0x8B6A473 PUSH1 0xE4 SHL DUP2 MSTORE PUSH1 0x4 ADD PUSH1 0x40 MLOAD DUP1 SWAP2 SUB SWAP1 REVERT JUMPDEST PUSH1 0x1D DUP1 SLOAD PUSH2 0xFFFF PUSH1 0xA0 SHL NOT AND PUSH1 0x1 PUSH1 0xA0 SHL OR SWAP1 SSTORE PUSH1 0x2D SLOAD PUSH0 PUSH2 0x2C86 DUP3 PUSH32 0x0 PUSH2 0x4EEE JUMP JUMPDEST SWAP1 POP PUSH0 JUMPDEST DUP3 DUP2 LT ISZERO PUSH2 0x2D4E JUMPI PUSH0 PUSH1 0x2D DUP3 DUP2 SLOAD DUP2 LT PUSH2 0x2CA6 JUMPI PUSH2 0x2CA6 PUSH2 0x4FD4 JUMP JUMPDEST PUSH0 SWAP2 DUP3 MSTORE PUSH1 0x20 SWAP1 SWAP2 KECCAK256 ADD SLOAD PUSH1 0x1 PUSH1 0x1 PUSH1 0xA0 SHL SUB AND SWAP1 POP DUP1 PUSH2 0x2CDA JUMPI PUSH1 0x40 MLOAD PUSH4 0xE6C4247B PUSH1 0xE0 SHL DUP2 MSTORE PUSH1 0x4 ADD PUSH1 0x40 MLOAD DUP1 SWAP2 SUB SWAP1 REVERT JUMPDEST DUP3 PUSH1 0x64 DUP4 LT ISZERO PUSH2 0x2D02 JUMPI PUSH1 0x64 PUSH2 0x2CF1 DUP3 PUSH1 0x96 PUSH2 0x4ED7 JUMP JUMPDEST PUSH2 0x2CFB SWAP2 SWAP1 PUSH2 0x4EEE JUMP JUMPDEST SWAP1 POP PUSH2 0x2D25 JUMP JUMPDEST PUSH1 0xC8 DUP4 LT ISZERO PUSH2 0x2D25 JUMPI PUSH1 0x64 PUSH2 0x2D18 DUP3 PUSH1 0x7D PUSH2 0x4ED7 JUMP JUMPDEST PUSH2 0x2D22 SWAP2 SWAP1 PUSH2 0x4EEE JUMP JUMPDEST SWAP1 POP JUMPDEST PUSH1 0x1 PUSH1 0x1 PUSH1 0xA0 SHL SUB SWAP1 SWAP2 AND PUSH0 SWAP1 DUP2 MSTORE PUSH1 0x2B PUSH1 0x20 MSTORE PUSH1 0x40 SWAP1 KECCAK256 SSTORE PUSH2 0x2D47 DUP2 PUSH2 0x4FE8 JUMP JUMPDEST SWAP1 POP PUSH2 0x2C8A JUMP JUMPDEST POP TIMESTAMP PUSH32 0x8F775AC6A67A8155177EACF03D476A0ADA0E0DE8671DCDB12B65C6E241D7EA1C DUP4 PUSH1 0x40 MLOAD PUSH2 0x286D SWAP2 DUP2 MSTORE PUSH1 0x20 ADD SWAP1 JUMP JUMPDEST PUSH1 0x9 SLOAD PUSH3 0x10000 SWAP1 DIV PUSH1 0xFF AND ISZERO PUSH2 0x2DAB JUMPI PUSH1 0x40 MLOAD PUSH4 0xAB35696F PUSH1 0xE0 SHL DUP2 MSTORE PUSH1 0x4 ADD PUSH1 0x40 MLOAD DUP1 SWAP2 SUB SWAP1 REVERT JUMPDEST PUSH0 DUP3 DUP2 MSTORE PUSH1 0x24 PUSH1 0x20 MSTORE PUSH1 0x40 DUP2 KECCAK256 PUSH1 0x1 DUP2 ADD SLOAD SWAP1 SWAP2 SUB PUSH2 0x2DDD JUMPI PUSH1 0x40 MLOAD PUSH4 0x6CE3C701 PUSH1 0xE1 SHL DUP2 MSTORE PUSH1 0x4 ADD PUSH1 0x40 MLOAD DUP1 SWAP2 SUB SWAP1 REVERT JUMPDEST DUP1 PUSH1 0x1 ADD SLOAD TIMESTAMP LT DUP1 PUSH2 0x2DF2 JUMPI POP DUP1 PUSH1 0x2 ADD SLOAD TIMESTAMP GT JUMPDEST ISZERO PUSH2 0x2E10 JUMPI PUSH1 0x40 MLOAD PUSH4 0x2DFA5C9B PUSH1 0xE0 SHL DUP2 MSTORE PUSH1 0x4 ADD PUSH1 0x40 MLOAD DUP1 SWAP2 SUB SWAP1 REVERT JUMPDEST CALLER PUSH0 SWAP1 DUP2 MSTORE PUSH1 0xA DUP3 ADD PUSH1 0x20 MSTORE PUSH1 0x40 SWAP1 KECCAK256 SLOAD PUSH1 0xFF AND ISZERO PUSH2 0x2E42 JUMPI PUSH1 0x40 MLOAD PUSH4 0x7C9A1CF9 PUSH1 0xE0 SHL DUP2 MSTORE PUSH1 0x4 ADD PUSH1 0x40 MLOAD DUP1 SWAP2 SUB SWAP1 REVERT JUMPDEST PUSH1 0x9 DUP2 ADD SLOAD PUSH2 0x100 SWAP1 DIV PUSH1 0xFF AND ISZERO PUSH2 0x2E6D JUMPI PUSH1 0x40 MLOAD PUSH4 0xCF88C657 PUSH1 0xE0 SHL DUP2 MSTORE PUSH1 0x4 ADD PUSH1 0x40 MLOAD DUP1 SWAP2 SUB SWAP1 REVERT JUMPDEST CALLER PUSH0 DUP2 DUP2 MSTORE PUSH1 0xB DUP4 ADD PUSH1 0x20 MSTORE PUSH1 0x40 SWAP1 DUP2 SWAP1 KECCAK256 DUP5 SWAP1 SSTORE MLOAD DUP5 SWAP1 PUSH32 0x1F4E2AA7825EF02E85293E2DE66CFBCB326AF2632B558996E546BB1EF3E8764D SWAP1 PUSH2 0x2EB4 SWAP1 DUP7 DUP2 MSTORE PUSH1 0x20 ADD SWAP1 JUMP JUMPDEST PUSH1 0x40 MLOAD DUP1 SWAP2 SUB SWAP1 LOG3 POP POP POP JUMP JUMPDEST PUSH2 0x2EC9 PUSH2 0x3E3A JUMP JUMPDEST PUSH1 0x1D SLOAD PUSH1 0x1 PUSH1 0xA0 SHL SWAP1 DIV PUSH1 0xFF AND PUSH2 0x2EF3 JUMPI PUSH1 0x40 MLOAD PUSH4 0x87CEAB01 PUSH1 0xE0 SHL DUP2 MSTORE PUSH1 0x4 ADD PUSH1 0x40 MLOAD DUP1 SWAP2 SUB SWAP1 REVERT JUMPDEST CALLER PUSH0 SWAP1 DUP2 MSTORE PUSH1 0x2A PUSH1 0x20 MSTORE PUSH1 0x40 SWAP1 KECCAK256 SLOAD PUSH1 0xFF AND PUSH2 0x2F22 JUMPI PUSH1 0x40 MLOAD PUSH4 0xB094F27 PUSH1 0xE3 SHL DUP2 MSTORE PUSH1 0x4 ADD PUSH1 0x40 MLOAD DUP1 SWAP2 SUB SWAP1 REVERT JUMPDEST CALLER PUSH0 SWAP1 DUP2 MSTORE PUSH1 0x2C PUSH1 0x20 MSTORE PUSH1 0x40 SWAP1 KECCAK256 SLOAD PUSH1 0xFF AND ISZERO PUSH2 0x2F52 JUMPI PUSH1 0x40 MLOAD PUSH4 0xC8D9EAB PUSH1 0xE3 SHL DUP2 MSTORE PUSH1 0x4 ADD PUSH1 0x40 MLOAD DUP1 SWAP2 SUB SWAP1 REVERT JUMPDEST CALLER PUSH0 SWAP1 DUP2 MSTORE PUSH1 0x2B PUSH1 0x20 MSTORE PUSH1 0x40 DUP2 KECCAK256 SLOAD SWAP1 SUB PUSH2 0x2F80 JUMPI PUSH1 0x40 MLOAD PUSH4 0x493C1AB7 PUSH1 0xE0 SHL DUP2 MSTORE PUSH1 0x4 ADD PUSH1 0x40 MLOAD DUP1 SWAP2 SUB SWAP1 REVERT JUMPDEST CALLER PUSH0 DUP2 DUP2 MSTORE PUSH1 0x2B PUSH1 0x20 SWAP1 DUP2 MSTORE PUSH1 0x40 DUP1 DUP4 KECCAK256 SLOAD PUSH1 0x2C SWAP1 SWAP3 MSTORE SWAP1 SWAP2 KECCAK256 DUP1 SLOAD PUSH1 0xFF NOT AND PUSH1 0x1 OR SWAP1 SSTORE SWAP1 PUSH2 0x2FB0 SWAP1 DUP3 PUSH2 0x464B JUMP JUMPDEST PUSH1 0x40 MLOAD DUP2 DUP2 MSTORE CALLER SWAP1 PUSH32 0x297D75EB990C12692C7028B6D2CF422C5DE200715CCF4CB9497C7FF567029CDF SWAP1 PUSH1 0x20 ADD PUSH1 0x40 MLOAD DUP1 SWAP2 SUB SWAP1 LOG2 POP PUSH2 0x166E PUSH1 0x1 PUSH1 0x5 SSTORE JUMP JUMPDEST PUSH2 0x2FF8 PUSH2 0x3E3A JUMP JUMPDEST PUSH1 0x9 SLOAD PUSH3 0x10000 SWAP1 DIV PUSH1 0xFF AND ISZERO PUSH2 0x3022 JUMPI PUSH1 0x40 MLOAD PUSH4 0xAB35696F PUSH1 0xE0 SHL DUP2 MSTORE PUSH1 0x4 ADD PUSH1 0x40 MLOAD DUP1 SWAP2 SUB SWAP1 REVERT JUMPDEST CALLER PUSH0 SWAP1 DUP2 MSTORE PUSH1 0x27 PUSH1 0x20 MSTORE PUSH1 0x40 SWAP1 KECCAK256 PUSH1 0x1 ADD SLOAD PUSH1 0x1 PUSH1 0x1 PUSH1 0xA0 SHL SUB AND PUSH2 0x305A JUMPI PUSH1 0x40 MLOAD PUSH4 0xE1E4E59B PUSH1 0xE0 SHL DUP2 MSTORE PUSH1 0x4 ADD PUSH1 0x40 MLOAD DUP1 SWAP2 SUB SWAP1 REVERT JUMPDEST CALLER PUSH0 SWAP1 DUP2 MSTORE PUSH1 0x27 PUSH1 0x20 SWAP1 DUP2 MSTORE PUSH1 0x40 DUP1 DUP4 KECCAK256 PUSH1 0x1 DUP2 ADD SLOAD PUSH1 0x2 SWAP1 SWAP2 ADD SLOAD PUSH1 0x1 PUSH1 0x1 PUSH1 0xA0 SHL SUB SWAP1 SWAP2 AND DUP1 DUP6 MSTORE PUSH1 0x28 SWAP1 SWAP4 MSTORE SWAP1 DUP4 KECCAK256 DUP1 SLOAD SWAP3 SWAP4 SWAP2 SWAP3 DUP4 SWAP3 SWAP1 PUSH2 0x30A0 SWAP1 DUP5 SWAP1 PUSH2 0x4F0D JUMP JUMPDEST SWAP1 SWAP2 SSTORE POP POP CALLER PUSH0 SWAP1 DUP2 MSTORE PUSH1 0x27 PUSH1 0x20 SWAP1 DUP2 MSTORE PUSH1 0x40 DUP1 DUP4 KECCAK256 DUP1 SLOAD PUSH1 0x1 PUSH1 0x1 PUSH1 0xA0 SHL SUB NOT SWAP1 DUP2 AND DUP3 SSTORE PUSH1 0x1 DUP3 ADD DUP1 SLOAD SWAP1 SWAP2 AND SWAP1 SSTORE PUSH1 0x2 DUP2 ADD DUP5 SWAP1 SSTORE PUSH1 0x3 ADD DUP4 SWAP1 SSTORE PUSH1 0x1 PUSH1 0x1 PUSH1 0xA0 SHL SUB DUP6 AND DUP4 MSTORE PUSH1 0x28 SWAP1 SWAP2 MSTORE SWAP1 KECCAK256 SLOAD PUSH2 0x30FD SWAP1 DUP4 SWAP1 PUSH2 0x426A JUMP JUMPDEST PUSH1 0x40 MLOAD CALLER SWAP1 PUSH32 0x6B2E7B08F80AEDC85DFABF602E4CD41CCF8A9CAA2961DD13719C71C3FF65BBC7 SWAP1 PUSH0 SWAP1 LOG2 POP POP PUSH2 0x166E PUSH1 0x1 PUSH1 0x5 SSTORE JUMP JUMPDEST PUSH2 0x313B PUSH2 0x3E3A JUMP JUMPDEST PUSH1 0x9 SLOAD PUSH3 0x10000 SWAP1 DIV PUSH1 0xFF AND ISZERO PUSH2 0x3165 JUMPI PUSH1 0x40 MLOAD PUSH4 0xAB35696F PUSH1 0xE0 SHL DUP2 MSTORE PUSH1 0x4 ADD PUSH1 0x40 MLOAD DUP1 SWAP2 SUB SWAP1 REVERT JUMPDEST CALLER ORIGIN EQ PUSH2 0x3184 JUMPI PUSH1 0x40 MLOAD PUSH3 0x461BCD PUSH1 0xE5 SHL DUP2 MSTORE PUSH1 0x4 ADD PUSH2 0x1528 SWAP1 PUSH2 0x4FA5 JUMP JUMPDEST PUSH9 0x3635C9ADC5DEA00000 DUP2 LT ISZERO PUSH2 0x31AE JUMPI PUSH1 0x40 MLOAD PUSH4 0x8ECF3D03 PUSH1 0xE0 SHL DUP2 MSTORE PUSH1 0x4 ADD PUSH1 0x40 MLOAD DUP1 SWAP2 SUB SWAP1 REVERT JUMPDEST CALLER PUSH0 SWAP1 DUP2 MSTORE PUSH1 0x20 DUP2 SWAP1 MSTORE PUSH1 0x40 SWAP1 KECCAK256 SLOAD DUP2 GT ISZERO PUSH2 0x31DD JUMPI PUSH1 0x40 MLOAD PUSH4 0x1E9ACF17 PUSH1 0xE3 SHL DUP2 MSTORE PUSH1 0x4 ADD PUSH1 0x40 MLOAD DUP1 SWAP2 SUB SWAP1 REVERT JUMPDEST CALLER PUSH0 SWAP1 DUP2 MSTORE PUSH1 0x29 PUSH1 0x20 MSTORE PUSH1 0x40 SWAP1 KECCAK256 PUSH1 0x3 ADD SLOAD PUSH1 0xFF AND ISZERO PUSH2 0x3210 JUMPI PUSH1 0x40 MLOAD PUSH4 0x3E560AFD PUSH1 0xE1 SHL DUP2 MSTORE PUSH1 0x4 ADD PUSH1 0x40 MLOAD DUP1 SWAP2 SUB SWAP1 REVERT JUMPDEST PUSH2 0x321B CALLER ADDRESS DUP4 PUSH2 0x19A4 JUMP JUMPDEST POP PUSH1 0x40 DUP1 MLOAD PUSH1 0x80 DUP2 ADD DUP3 MSTORE DUP3 DUP2 MSTORE TIMESTAMP PUSH1 0x20 DUP1 DUP4 ADD SWAP2 DUP3 MSTORE PUSH0 DUP4 DUP6 ADD DUP2 DUP2 MSTORE PUSH1 0x1 PUSH1 0x60 DUP7 ADD DUP2 DUP2 MSTORE CALLER DUP5 MSTORE PUSH1 0x29 SWAP1 SWAP5 MSTORE SWAP6 DUP3 KECCAK256 SWAP5 MLOAD DUP6 SSTORE SWAP3 MLOAD SWAP5 DUP5 ADD SWAP5 SWAP1 SWAP5 SSTORE SWAP1 MLOAD PUSH1 0x2 DUP4 ADD SSTORE MLOAD PUSH1 0x3 SWAP1 SWAP2 ADD DUP1 SLOAD PUSH1 0xFF NOT AND SWAP2 ISZERO ISZERO SWAP2 SWAP1 SWAP2 OR SWAP1 SSTORE PUSH1 0x11 DUP1 SLOAD DUP4 SWAP3 SWAP1 PUSH2 0x3288 SWAP1 DUP5 SWAP1 PUSH2 0x4EC4 JUMP JUMPDEST SWAP1 SWAP2 SSTORE POP POP PUSH1 0x40 DUP1 MLOAD DUP3 DUP2 MSTORE TIMESTAMP PUSH1 0x20 DUP3 ADD MSTORE CALLER SWAP2 PUSH32 0x1449C6DD7851ABC30ABF37F57715F492010519147CC2652FBC38202C18A6EE90 SWAP2 ADD PUSH1 0x40 MLOAD DUP1 SWAP2 SUB SWAP1 LOG2 PUSH2 0x13F6 PUSH1 0x1 PUSH1 0x5 SSTORE JUMP JUMPDEST PUSH1 0x9 SLOAD PUSH0 SWAP1 PUSH3 0x10000 SWAP1 DIV PUSH1 0xFF AND ISZERO PUSH2 0x32FD JUMPI PUSH1 0x40 MLOAD PUSH4 0xAB35696F PUSH1 0xE0 SHL DUP2 MSTORE PUSH1 0x4 ADD PUSH1 0x40 MLOAD DUP1 SWAP2 SUB SWAP1 REVERT JUMPDEST PUSH1 0x1 PUSH1 0x1 PUSH1 0xA0 SHL SUB DUP4 AND PUSH2 0x3324 JUMPI PUSH1 0x40 MLOAD PUSH4 0x4E469669 PUSH1 0xE1 SHL DUP2 MSTORE PUSH1 0x4 ADD PUSH1 0x40 MLOAD DUP1 SWAP2 SUB SWAP1 REVERT JUMPDEST PUSH0 PUSH2 0x332F DUP5 DUP5 PUSH2 0x46FD JUMP JUMPDEST SWAP1 POP DUP1 DUP1 ISZERO PUSH2 0x3341 JUMPI POP PUSH1 0x9 SLOAD PUSH1 0xFF AND ISZERO JUMPDEST ISZERO PUSH2 0x1A39 JUMPI PUSH2 0x1A39 PUSH2 0x213D JUMP JUMPDEST PUSH1 0x60 PUSH1 0x2D DUP1 SLOAD DUP1 PUSH1 0x20 MUL PUSH1 0x20 ADD PUSH1 0x40 MLOAD SWAP1 DUP2 ADD PUSH1 0x40 MSTORE DUP1 SWAP3 SWAP2 SWAP1 DUP2 DUP2 MSTORE PUSH1 0x20 ADD DUP3 DUP1 SLOAD DUP1 ISZERO PUSH2 0xEE0 JUMPI PUSH1 0x20 MUL DUP3 ADD SWAP2 SWAP1 PUSH0 MSTORE PUSH1 0x20 PUSH0 KECCAK256 SWAP1 DUP2 SLOAD PUSH1 0x1 PUSH1 0x1 PUSH1 0xA0 SHL SUB AND DUP2 MSTORE PUSH1 0x1 SWAP1 SWAP2 ADD SWAP1 PUSH1 0x20 ADD DUP1 DUP4 GT PUSH2 0x2B43 JUMPI POP POP POP POP POP SWAP1 POP SWAP1 JUMP JUMPDEST PUSH2 0x33B4 PUSH2 0x3E3A JUMP JUMPDEST PUSH1 0x9 SLOAD PUSH3 0x10000 SWAP1 DIV PUSH1 0xFF AND ISZERO PUSH2 0x33DE JUMPI PUSH1 0x40 MLOAD PUSH4 0xAB35696F PUSH1 0xE0 SHL DUP2 MSTORE PUSH1 0x4 ADD PUSH1 0x40 MLOAD DUP1 SWAP2 SUB SWAP1 REVERT JUMPDEST PUSH1 0x1 PUSH1 0x1 PUSH1 0xA0 SHL SUB DUP3 AND ISZERO DUP1 PUSH2 0x33FC JUMPI POP PUSH1 0x1 PUSH1 0x1 PUSH1 0xA0 SHL SUB DUP3 AND CALLER EQ JUMPDEST ISZERO PUSH2 0x341A JUMPI PUSH1 0x40 MLOAD PUSH4 0x1437F47 PUSH1 0xE3 SHL DUP2 MSTORE PUSH1 0x4 ADD PUSH1 0x40 MLOAD DUP1 SWAP2 SUB SWAP1 REVERT JUMPDEST DUP1 ISZERO DUP1 PUSH2 0x342E JUMPI POP PUSH2 0x342B CALLER PUSH2 0x34DC JUMP JUMPDEST DUP2 GT JUMPDEST ISZERO PUSH2 0x344C JUMPI PUSH1 0x40 MLOAD PUSH4 0x65E52D51 PUSH1 0xE1 SHL DUP2 MSTORE PUSH1 0x4 ADD PUSH1 0x40 MLOAD DUP1 SWAP2 SUB SWAP1 REVERT JUMPDEST PUSH2 0x3455 CALLER PUSH2 0x27D3 JUMP JUMPDEST CALLER PUSH0 SWAP1 DUP2 MSTORE PUSH1 0x25 PUSH1 0x20 MSTORE PUSH1 0x40 SWAP1 KECCAK256 PUSH1 0x1 ADD SLOAD PUSH1 0xFF AND PUSH2 0x3487 JUMPI PUSH1 0x40 MLOAD PUSH4 0x1878F081 PUSH1 0xE0 SHL DUP2 MSTORE PUSH1 0x4 ADD PUSH1 0x40 MLOAD DUP1 SWAP2 SUB SWAP1 REVERT JUMPDEST PUSH2 0x3492 ADDRESS DUP4 DUP4 PUSH2 0x3E64 JUMP JUMPDEST PUSH1 0x40 MLOAD DUP2 DUP2 MSTORE PUSH1 0x1 PUSH1 0x1 PUSH1 0xA0 SHL SUB DUP4 AND SWAP1 CALLER SWAP1 PUSH32 0x1E50CDF36B7821A0EA2C0889B9A5426558CFFA8EB685D3F224BB788FAAE557B1 SWAP1 PUSH1 0x20 ADD PUSH1 0x40 MLOAD DUP1 SWAP2 SUB SWAP1 LOG3 PUSH2 0x2059 PUSH1 0x1 PUSH1 0x5 SSTORE JUMP JUMPDEST PUSH1 0x9 SLOAD PUSH0 SWAP1 PUSH2 0x100 SWAP1 DIV PUSH1 0xFF AND ISZERO DUP1 PUSH2 0x3509 JUMPI POP PUSH1 0x1 PUSH1 0x1 PUSH1 0xA0 SHL SUB DUP3 AND PUSH0 SWAP1 DUP2 MSTORE PUSH1 0x20 DUP1 MSTORE PUSH1 0x40 SWAP1 KECCAK256 SLOAD ISZERO JUMPDEST ISZERO PUSH2 0x3515 JUMPI POP PUSH0 SWAP2 SWAP1 POP JUMP JUMPDEST PUSH1 0x1 PUSH1 0x1 PUSH1 0xA0 SHL SUB DUP3 AND PUSH0 SWAP1 DUP2 MSTORE PUSH1 0x25 PUSH1 0x20 SWAP1 DUP2 MSTORE PUSH1 0x40 SWAP2 DUP3 SWAP1 KECCAK256 DUP3 MLOAD DUP1 DUP5 ADD SWAP1 SWAP4 MSTORE DUP1 SLOAD DUP1 DUP5 MSTORE PUSH1 0x1 SWAP1 SWAP2 ADD SLOAD PUSH1 0xFF AND ISZERO ISZERO SWAP2 DUP4 ADD SWAP2 SWAP1 SWAP2 MSTORE PUSH1 0x1 PUSH1 0x1 PUSH1 0x80 SHL SUB AND TIMESTAMP DUP2 GT PUSH2 0x3568 JUMPI POP PUSH0 SWAP4 SWAP3 POP POP POP JUMP JUMPDEST PUSH1 0x1 PUSH1 0x1 PUSH1 0xA0 SHL SUB DUP5 AND PUSH0 SWAP1 DUP2 MSTORE PUSH1 0x26 PUSH1 0x20 MSTORE PUSH1 0x40 DUP2 KECCAK256 SLOAD TIMESTAMP GT PUSH2 0x358C JUMPI PUSH0 PUSH2 0x35AE JUMP JUMPDEST PUSH1 0x1 PUSH1 0x1 PUSH1 0xA0 SHL SUB DUP6 AND PUSH0 SWAP1 DUP2 MSTORE PUSH1 0x26 PUSH1 0x20 MSTORE PUSH1 0x40 SWAP1 KECCAK256 SLOAD PUSH2 0x35AE SWAP1 TIMESTAMP PUSH2 0x4F0D JUMP JUMPDEST SWAP1 POP PUSH0 PUSH2 0x3E8 PUSH2 0x35C6 DUP4 PUSH8 0xDE0B6B3A7640000 PUSH2 0x4ED7 JUMP JUMPDEST PUSH2 0x35D0 SWAP2 SWAP1 PUSH2 0x4EEE JUMP JUMPDEST PUSH1 0x1B SLOAD PUSH1 0x1 PUSH1 0x1 PUSH1 0xA0 SHL SUB DUP9 AND PUSH0 SWAP1 DUP2 MSTORE PUSH1 0x20 DUP1 MSTORE PUSH1 0x40 DUP2 KECCAK256 SLOAD SWAP3 SWAP4 POP SWAP2 PUSH9 0x56BC75E2D63100000 SWAP2 DUP5 SWAP2 PUSH2 0x3605 SWAP2 SWAP1 PUSH2 0x4ED7 JUMP JUMPDEST PUSH2 0x360F SWAP2 SWAP1 PUSH2 0x4ED7 JUMP JUMPDEST PUSH2 0x3619 SWAP2 SWAP1 PUSH2 0x4EEE JUMP JUMPDEST PUSH1 0x1 PUSH1 0x1 PUSH1 0xA0 SHL SUB DUP9 AND PUSH0 SWAP1 DUP2 MSTORE PUSH1 0x20 DUP1 MSTORE PUSH1 0x40 SWAP1 KECCAK256 SLOAD SWAP1 SWAP2 POP DUP2 LT PUSH2 0x363F JUMPI PUSH0 PUSH2 0x3661 JUMP JUMPDEST PUSH1 0x1 PUSH1 0x1 PUSH1 0xA0 SHL SUB DUP8 AND PUSH0 SWAP1 DUP2 MSTORE PUSH1 0x20 DUP1 MSTORE PUSH1 0x40 SWAP1 KECCAK256 SLOAD PUSH2 0x3661 SWAP1 DUP3 SWAP1 PUSH2 0x4F0D JUMP JUMPDEST SWAP8 SWAP7 POP POP POP POP POP POP POP JUMP JUMPDEST PUSH1 0x23 PUSH1 0x20 MSTORE PUSH0 SWAP1 DUP2 MSTORE PUSH1 0x40 SWAP1 KECCAK256 DUP1 SLOAD PUSH1 0x1 DUP3 ADD SLOAD PUSH1 0x2 DUP4 ADD DUP1 SLOAD SWAP3 SWAP4 SWAP2 SWAP3 PUSH2 0x3693 SWAP1 PUSH2 0x4E78 JUMP JUMPDEST DUP1 PUSH1 0x1F ADD PUSH1 0x20 DUP1 SWAP2 DIV MUL PUSH1 0x20 ADD PUSH1 0x40 MLOAD SWAP1 DUP2 ADD PUSH1 0x40 MSTORE DUP1 SWAP3 SWAP2 SWAP1 DUP2 DUP2 MSTORE PUSH1 0x20 ADD DUP3 DUP1 SLOAD PUSH2 0x36BF SWAP1 PUSH2 0x4E78 JUMP JUMPDEST DUP1 ISZERO PUSH2 0x370A JUMPI DUP1 PUSH1 0x1F LT PUSH2 0x36E1 JUMPI PUSH2 0x100 DUP1 DUP4 SLOAD DIV MUL DUP4 MSTORE SWAP2 PUSH1 0x20 ADD SWAP2 PUSH2 0x370A JUMP JUMPDEST DUP3 ADD SWAP2 SWAP1 PUSH0 MSTORE PUSH1 0x20 PUSH0 KECCAK256 SWAP1 JUMPDEST DUP2 SLOAD DUP2 MSTORE SWAP1 PUSH1 0x1 ADD SWAP1 PUSH1 0x20 ADD DUP1 DUP4 GT PUSH2 0x36ED JUMPI DUP3 SWAP1 SUB PUSH1 0x1F AND DUP3 ADD SWAP2 JUMPDEST POP POP POP POP POP SWAP1 POP DUP4 JUMP JUMPDEST PUSH2 0x371C PUSH2 0x3E3A JUMP JUMPDEST PUSH1 0x9 SLOAD PUSH3 0x10000 SWAP1 DIV PUSH1 0xFF AND ISZERO PUSH2 0x3746 JUMPI PUSH1 0x40 MLOAD PUSH4 0xAB35696F PUSH1 0xE0 SHL DUP2 MSTORE PUSH1 0x4 ADD PUSH1 0x40 MLOAD DUP1 SWAP2 SUB SWAP1 REVERT JUMPDEST CALLER PUSH0 SWAP1 DUP2 MSTORE PUSH1 0x29 PUSH1 0x20 MSTORE PUSH1 0x40 SWAP1 KECCAK256 PUSH1 0x3 DUP2 ADD SLOAD PUSH1 0xFF AND PUSH2 0x3779 JUMPI PUSH1 0x40 MLOAD PUSH4 0x7D9A44A1 PUSH1 0xE1 SHL DUP2 MSTORE PUSH1 0x4 ADD PUSH1 0x40 MLOAD DUP1 SWAP2 SUB SWAP1 REVERT JUMPDEST DUP2 PUSH0 SUB PUSH2 0x3799 JUMPI PUSH1 0x40 MLOAD PUSH4 0x65E52D51 PUSH1 0xE1 SHL DUP2 MSTORE PUSH1 0x4 ADD PUSH1 0x40 MLOAD DUP1 SWAP2 SUB SWAP1 REVERT JUMPDEST PUSH2 0x37A2 CALLER PUSH2 0x34DC JUMP JUMPDEST DUP3 GT ISZERO PUSH2 0x37C2 JUMPI PUSH1 0x40 MLOAD PUSH4 0x87D5B4FB PUSH1 0xE0 SHL DUP2 MSTORE PUSH1 0x4 ADD PUSH1 0x40 MLOAD DUP1 SWAP2 SUB SWAP1 REVERT JUMPDEST DUP1 SLOAD PUSH2 0x37D0 SWAP1 PUSH1 0xA SWAP1 PUSH2 0x4EEE JUMP JUMPDEST DUP3 GT ISZERO PUSH2 0x37F0 JUMPI PUSH1 0x40 MLOAD PUSH4 0x11C2AB1F PUSH1 0xE3 SHL DUP2 MSTORE PUSH1 0x4 ADD PUSH1 0x40 MLOAD DUP1 SWAP2 SUB SWAP1 REVERT JUMPDEST PUSH2 0x37F9 CALLER PUSH2 0x27D3 JUMP JUMPDEST PUSH0 PUSH2 0x3803 CALLER PUSH2 0x3DDA JUMP JUMPDEST POP SWAP1 POP PUSH1 0x19 SLOAD DUP2 PUSH2 0x3814 SWAP2 SWAP1 PUSH2 0x4EC4 JUMP JUMPDEST TIMESTAMP LT ISZERO PUSH2 0x3834 JUMPI PUSH1 0x40 MLOAD PUSH4 0x1878F081 PUSH1 0xE0 SHL DUP2 MSTORE PUSH1 0x4 ADD PUSH1 0x40 MLOAD DUP1 SWAP2 SUB SWAP1 REVERT JUMPDEST DUP3 DUP3 PUSH1 0x2 ADD PUSH0 DUP3 DUP3 SLOAD PUSH2 0x3847 SWAP2 SWAP1 PUSH2 0x4EC4 JUMP JUMPDEST SWAP1 SWAP2 SSTORE POP POP PUSH1 0x40 MLOAD DUP4 DUP2 MSTORE CALLER SWAP1 PUSH32 0x4A35C8FDE6484ACA5E3C4FD515E9314CA9F4A57266CDEF7622CAC399F20AC32A SWAP1 PUSH1 0x20 ADD PUSH1 0x40 MLOAD DUP1 SWAP2 SUB SWAP1 LOG2 POP POP PUSH2 0x13F6 PUSH1 0x1 PUSH1 0x5 SSTORE JUMP JUMPDEST PUSH1 0x1 PUSH0 DUP3 DUP2 JUMPDEST DUP2 DUP2 LT ISZERO PUSH2 0x3975 JUMPI PUSH0 DUP7 DUP7 DUP4 DUP2 DUP2 LT PUSH2 0x38AE JUMPI PUSH2 0x38AE PUSH2 0x4FD4 JUMP JUMPDEST SWAP1 POP PUSH1 0x20 MUL ADD PUSH1 0x20 DUP2 ADD SWAP1 PUSH2 0x38C3 SWAP2 SWAP1 PUSH2 0x4A4F JUMP JUMPDEST SWAP1 POP PUSH1 0x1 PUSH1 0x1 PUSH1 0xA0 SHL SUB DUP2 AND PUSH2 0x38EC JUMPI PUSH1 0x40 MLOAD PUSH4 0xE6C4247B PUSH1 0xE0 SHL DUP2 MSTORE PUSH1 0x4 ADD PUSH1 0x40 MLOAD DUP1 SWAP2 SUB SWAP1 REVERT JUMPDEST PUSH0 PUSH2 0x38F6 DUP3 PUSH2 0x34DC JUMP JUMPDEST SWAP1 POP PUSH2 0x3902 DUP2 DUP7 PUSH2 0x4EC4 JUMP JUMPDEST PUSH1 0x1 PUSH1 0x1 PUSH1 0xA0 SHL SUB DUP4 AND PUSH0 SWAP1 DUP2 MSTORE PUSH1 0x20 DUP1 MSTORE PUSH1 0x40 SWAP1 KECCAK256 SLOAD SWAP1 SWAP6 POP ISZERO DUP1 ISZERO SWAP1 PUSH2 0x3928 JUMPI POP DUP1 ISZERO JUMPDEST DUP1 ISZERO PUSH2 0x3953 JUMPI POP PUSH1 0x1 PUSH1 0x1 PUSH1 0xA0 SHL SUB DUP3 AND PUSH0 SWAP1 DUP2 MSTORE PUSH1 0x25 PUSH1 0x20 MSTORE PUSH1 0x40 SWAP1 KECCAK256 SLOAD PUSH1 0x1 PUSH1 0x1 PUSH1 0x80 SHL SUB AND TIMESTAMP LT JUMPDEST ISZERO PUSH2 0x3962 JUMPI PUSH0 SWAP6 POP POP POP PUSH2 0x3975 JUMP JUMPDEST POP POP DUP1 PUSH2 0x396E SWAP1 PUSH2 0x4FE8 JUMP JUMPDEST SWAP1 POP PUSH2 0x3893 JUMP JUMPDEST POP POP SWAP3 POP SWAP3 SWAP1 POP JUMP JUMPDEST PUSH1 0x9 SLOAD PUSH3 0x10000 SWAP1 DIV PUSH1 0xFF AND ISZERO PUSH2 0x39A8 JUMPI PUSH1 0x40 MLOAD PUSH4 0xAB35696F PUSH1 0xE0 SHL DUP2 MSTORE PUSH1 0x4 ADD PUSH1 0x40 MLOAD DUP1 SWAP2 SUB SWAP1 REVERT JUMPDEST PUSH10 0x152D02C7E14AF6800000 PUSH2 0x39BC CALLER PUSH2 0x34DC JUMP JUMPDEST LT ISZERO PUSH2 0x39DB JUMPI PUSH1 0x40 MLOAD PUSH4 0x1E9ACF17 PUSH1 0xE3 SHL DUP2 MSTORE PUSH1 0x4 ADD PUSH1 0x40 MLOAD DUP1 SWAP2 SUB SWAP1 REVERT JUMPDEST CALLER PUSH0 SWAP1 DUP2 MSTORE PUSH1 0x8 PUSH1 0x20 MSTORE PUSH1 0x40 SWAP1 KECCAK256 SLOAD PUSH2 0x39F8 SWAP1 PUSH3 0x278D00 SWAP1 PUSH2 0x4EC4 JUMP JUMPDEST TIMESTAMP LT ISZERO PUSH2 0x3A18 JUMPI PUSH1 0x40 MLOAD PUSH4 0xFD7AF65F PUSH1 0xE0 SHL DUP2 MSTORE PUSH1 0x4 ADD PUSH1 0x40 MLOAD DUP1 SWAP2 SUB SWAP1 REVERT JUMPDEST PUSH1 0x2 DUP2 PUSH1 0xB DUP2 GT ISZERO PUSH2 0x3A2C JUMPI PUSH2 0x3A2C PUSH2 0x4AC2 JUMP JUMPDEST EQ DUP1 PUSH2 0x3A49 JUMPI POP PUSH1 0x5 DUP2 PUSH1 0xB DUP2 GT ISZERO PUSH2 0x3A47 JUMPI PUSH2 0x3A47 PUSH2 0x4AC2 JUMP JUMPDEST EQ JUMPDEST PUSH2 0x3A67 JUMPI DUP3 ISZERO DUP1 ISZERO PUSH2 0x3A62 JUMPI POP PUSH1 0x1 PUSH1 0x1 PUSH1 0xA0 SHL SUB DUP3 AND ISZERO JUMPDEST PUSH2 0x3A6B JUMP JUMPDEST DUP4 MLOAD ISZERO JUMPDEST ISZERO PUSH2 0x3A89 JUMPI PUSH1 0x40 MLOAD PUSH4 0x37AD5983 PUSH1 0xE0 SHL DUP2 MSTORE PUSH1 0x4 ADD PUSH1 0x40 MLOAD DUP1 SWAP2 SUB SWAP1 REVERT JUMPDEST PUSH1 0x16 PUSH0 DUP2 SLOAD PUSH2 0x3A97 SWAP1 PUSH2 0x4FE8 JUMP JUMPDEST SWAP1 SWAP2 SSTORE POP PUSH1 0x16 SLOAD PUSH0 DUP2 DUP2 MSTORE PUSH1 0x24 PUSH1 0x20 MSTORE PUSH1 0x40 SWAP1 KECCAK256 SWAP1 DUP2 SSTORE PUSH1 0x6 DUP2 ADD DUP1 SLOAD PUSH1 0x1 PUSH1 0x1 PUSH1 0xA0 SHL SUB NOT AND CALLER OR SWAP1 SSTORE PUSH1 0x8 DUP2 ADD PUSH2 0x3AD0 DUP7 DUP3 PUSH2 0x50C3 JUMP JUMPDEST POP PUSH1 0x3 DUP2 ADD DUP5 SWAP1 SSTORE PUSH1 0x7 DUP2 ADD DUP1 SLOAD PUSH1 0x1 PUSH1 0x1 PUSH1 0xA0 SHL SUB NOT AND PUSH1 0x1 PUSH1 0x1 PUSH1 0xA0 SHL SUB DUP6 AND OR SWAP1 SSTORE PUSH1 0x9 DUP2 ADD DUP1 SLOAD DUP4 SWAP2 SWAP1 PUSH1 0xFF NOT AND PUSH1 0x1 DUP4 PUSH1 0xB DUP2 GT ISZERO PUSH2 0x3B16 JUMPI PUSH2 0x3B16 PUSH2 0x4AC2 JUMP JUMPDEST MUL OR SWAP1 SSTORE POP TIMESTAMP PUSH1 0x1 DUP3 ADD DUP2 SWAP1 SSTORE PUSH2 0x3B31 SWAP1 PUSH3 0x93A80 SWAP1 PUSH2 0x4EC4 JUMP JUMPDEST PUSH1 0x2 DUP3 ADD SSTORE CALLER PUSH0 DUP2 DUP2 MSTORE PUSH1 0x8 PUSH1 0x20 MSTORE PUSH1 0x40 SWAP1 DUP2 SWAP1 KECCAK256 TIMESTAMP SWAP1 SSTORE DUP3 SLOAD SWAP1 MLOAD PUSH32 0x64147B1D4B260DDD199F9E9A7C1D4E444605245A354C18A74FDCC8E9004DA33E SWAP1 PUSH2 0x3B7C SWAP1 DUP10 SWAP1 DUP8 SWAP1 PUSH2 0x517F JUMP JUMPDEST PUSH1 0x40 MLOAD DUP1 SWAP2 SUB SWAP1 LOG3 POP POP POP POP POP JUMP JUMPDEST PUSH2 0x3B93 PUSH2 0x467F JUMP JUMPDEST PUSH1 0x1 PUSH1 0x1 PUSH1 0xA0 SHL SUB DUP2 AND PUSH2 0x3BBC JUMPI PUSH1 0x40 MLOAD PUSH4 0x1E4FBDF7 PUSH1 0xE0 SHL DUP2 MSTORE PUSH0 PUSH1 0x4 DUP3 ADD MSTORE PUSH1 0x24 ADD PUSH2 0x1528 JUMP JUMPDEST PUSH2 0x13F6 DUP2 PUSH2 0x46AC JUMP JUMPDEST PUSH1 0x9 SLOAD PUSH3 0x10000 SWAP1 DIV PUSH1 0xFF AND ISZERO PUSH2 0x3BEF JUMPI PUSH1 0x40 MLOAD PUSH4 0xAB35696F PUSH1 0xE0 SHL DUP2 MSTORE PUSH1 0x4 ADD PUSH1 0x40 MLOAD DUP1 SWAP2 SUB SWAP1 REVERT JUMPDEST PUSH0 DUP4 DUP2 MSTORE PUSH1 0x24 PUSH1 0x20 MSTORE PUSH1 0x40 DUP2 KECCAK256 PUSH1 0x1 DUP2 ADD SLOAD SWAP1 SWAP2 SUB PUSH2 0x3C21 JUMPI PUSH1 0x40 MLOAD PUSH4 0x6CE3C701 PUSH1 0xE1 SHL DUP2 MSTORE PUSH1 0x4 ADD PUSH1 0x40 MLOAD DUP1 SWAP2 SUB SWAP1 REVERT JUMPDEST DUP1 PUSH1 0x1 ADD SLOAD TIMESTAMP LT DUP1 PUSH2 0x3C36 JUMPI POP DUP1 PUSH1 0x2 ADD SLOAD TIMESTAMP GT JUMPDEST ISZERO PUSH2 0x3C54 JUMPI PUSH1 0x40 MLOAD PUSH4 0x2DFA5C9B PUSH1 0xE0 SHL DUP2 MSTORE PUSH1 0x4 ADD PUSH1 0x40 MLOAD DUP1 SWAP2 SUB SWAP1 REVERT JUMPDEST CALLER PUSH0 SWAP1 DUP2 MSTORE PUSH1 0xA DUP3 ADD PUSH1 0x20 MSTORE PUSH1 0x40 SWAP1 KECCAK256 SLOAD PUSH1 0xFF AND ISZERO PUSH2 0x3C86 JUMPI PUSH1 0x40 MLOAD PUSH4 0x7C9A1CF9 PUSH1 0xE0 SHL DUP2 MSTORE PUSH1 0x4 ADD PUSH1 0x40 MLOAD DUP1 SWAP2 SUB SWAP1 REVERT JUMPDEST PUSH1 0x9 DUP2 ADD SLOAD PUSH2 0x100 SWAP1 DIV PUSH1 0xFF AND ISZERO PUSH2 0x3CB1 JUMPI PUSH1 0x40 MLOAD PUSH4 0xCF88C657 PUSH1 0xE0 SHL DUP2 MSTORE PUSH1 0x4 ADD PUSH1 0x40 MLOAD DUP1 SWAP2 SUB SWAP1 REVERT JUMPDEST PUSH1 0x40 DUP1 MLOAD DUP5 ISZERO ISZERO PUSH1 0x20 DUP3 ADD MSTORE SWAP1 DUP2 ADD DUP4 SWAP1 MSTORE CALLER PUSH1 0x60 DUP3 ADD MSTORE PUSH1 0x80 ADD PUSH1 0x40 DUP1 MLOAD PUSH1 0x1F NOT DUP2 DUP5 SUB ADD DUP2 MSTORE SWAP2 DUP2 MSTORE DUP2 MLOAD PUSH1 0x20 SWAP3 DUP4 ADD KECCAK256 CALLER PUSH0 SWAP1 DUP2 MSTORE PUSH1 0xB DUP6 ADD SWAP1 SWAP4 MSTORE SWAP2 KECCAK256 SLOAD EQ PUSH2 0x3D11 JUMPI PUSH1 0x40 MLOAD PUSH4 0xB7B33787 PUSH1 0xE0 SHL DUP2 MSTORE PUSH1 0x4 ADD PUSH1 0x40 MLOAD DUP1 SWAP2 SUB SWAP1 REVERT JUMPDEST PUSH2 0x3D1A CALLER PUSH2 0x27D3 JUMP JUMPDEST PUSH0 PUSH2 0x3D24 CALLER PUSH2 0x34DC JUMP JUMPDEST SWAP1 POP DUP1 PUSH0 SUB PUSH2 0x3D46 JUMPI PUSH1 0x40 MLOAD PUSH4 0xE1000181 PUSH1 0xE0 SHL DUP2 MSTORE PUSH1 0x4 ADD PUSH1 0x40 MLOAD DUP1 SWAP2 SUB SWAP1 REVERT JUMPDEST CALLER PUSH0 SWAP1 DUP2 MSTORE PUSH1 0xA DUP4 ADD PUSH1 0x20 MSTORE PUSH1 0x40 SWAP1 KECCAK256 DUP1 SLOAD PUSH1 0xFF NOT AND PUSH1 0x1 OR SWAP1 SSTORE DUP4 ISZERO PUSH2 0x3D85 JUMPI DUP1 DUP3 PUSH1 0x4 ADD PUSH0 DUP3 DUP3 SLOAD PUSH2 0x3D7A SWAP2 SWAP1 PUSH2 0x4EC4 JUMP JUMPDEST SWAP1 SWAP2 SSTORE POP PUSH2 0x3D9E SWAP1 POP JUMP JUMPDEST DUP1 DUP3 PUSH1 0x5 ADD PUSH0 DUP3 DUP3 SLOAD PUSH2 0x3D98 SWAP2 SWAP1 PUSH2 0x4EC4 JUMP JUMPDEST SWAP1 SWAP2 SSTORE POP POP JUMPDEST PUSH1 0x40 DUP1 MLOAD DUP6 ISZERO ISZERO DUP2 MSTORE PUSH1 0x20 DUP2 ADD DUP4 SWAP1 MSTORE CALLER SWAP2 DUP8 SWAP2 PUSH32 0x96B7E5DBD1A0BB4B34731D1DFCE6EA83EAB3FADBF4710C77AD43106F771F90FB SWAP2 ADD PUSH2 0x3B7C JUMP JUMPDEST PUSH1 0x1 PUSH1 0x1 PUSH1 0xA0 SHL SUB AND PUSH0 SWAP1 DUP2 MSTORE PUSH1 0x25 PUSH1 0x20 SWAP1 DUP2 MSTORE PUSH1 0x40 SWAP2 DUP3 SWAP1 KECCAK256 DUP3 MLOAD DUP1 DUP5 ADD SWAP1 SWAP4 MSTORE DUP1 SLOAD DUP1 DUP5 MSTORE PUSH1 0x1 SWAP1 SWAP2 ADD SLOAD PUSH1 0xFF AND ISZERO ISZERO SWAP3 SWAP1 SWAP2 ADD SWAP2 SWAP1 SWAP2 MSTORE PUSH1 0x80 DUP2 SWAP1 SHR SWAP2 PUSH1 0x1 PUSH1 0x1 PUSH1 0x80 SHL SUB SWAP1 SWAP2 AND SWAP1 JUMP JUMPDEST PUSH2 0x3E35 DUP4 DUP4 DUP4 PUSH1 0x1 PUSH2 0x470A JUMP JUMPDEST POP POP POP JUMP JUMPDEST PUSH1 0x2 PUSH1 0x5 SLOAD SUB PUSH2 0x3E5D JUMPI PUSH1 0x40 MLOAD PUSH4 0x3EE5AEB5 PUSH1 0xE0 SHL DUP2 MSTORE PUSH1 0x4 ADD PUSH1 0x40 MLOAD DUP1 SWAP2 SUB SWAP1 REVERT JUMPDEST PUSH1 0x2 PUSH1 0x5 SSTORE JUMP JUMPDEST PUSH1 0x40 DUP1 MLOAD PUSH1 0x1 PUSH1 0x1 PUSH1 0xA0 SHL SUB DUP5 AND PUSH1 0x24 DUP3 ADD MSTORE PUSH1 0x44 DUP1 DUP3 ADD DUP5 SWAP1 MSTORE DUP3 MLOAD DUP1 DUP4 SUB SWAP1 SWAP2 ADD DUP2 MSTORE PUSH1 0x64 SWAP1 SWAP2 ADD SWAP1 SWAP2 MSTORE PUSH1 0x20 DUP2 ADD DUP1 MLOAD PUSH1 0x1 PUSH1 0x1 PUSH1 0xE0 SHL SUB AND PUSH4 0xA9059CBB PUSH1 0xE0 SHL OR SWAP1 MSTORE PUSH2 0x3E35 SWAP1 DUP5 SWAP1 PUSH2 0x47DC JUMP JUMPDEST PUSH1 0x1D SLOAD PUSH1 0x1 PUSH1 0x1 PUSH1 0xA0 SHL SUB AND CALLER EQ PUSH2 0x3EE1 JUMPI PUSH1 0x40 MLOAD PUSH4 0xEA8E4EB5 PUSH1 0xE0 SHL DUP2 MSTORE PUSH1 0x4 ADD PUSH1 0x40 MLOAD DUP1 SWAP2 SUB SWAP1 REVERT JUMPDEST PUSH1 0x2 DUP4 PUSH1 0xB DUP2 GT ISZERO PUSH2 0x3EF5 JUMPI PUSH2 0x3EF5 PUSH2 0x4AC2 JUMP JUMPDEST SUB PUSH2 0x3F1C JUMPI PUSH1 0x9 DUP1 SLOAD PUSH3 0xFF0000 NOT DUP2 AND PUSH3 0x10000 SWAP2 DUP3 SWAP1 DIV PUSH1 0xFF AND ISZERO SWAP1 SWAP2 MUL OR SWAP1 SSTORE PUSH2 0x41DD JUMP JUMPDEST PUSH0 DUP4 PUSH1 0xB DUP2 GT ISZERO PUSH2 0x3F2F JUMPI PUSH2 0x3F2F PUSH2 0x4AC2 JUMP JUMPDEST SUB PUSH2 0x3F88 JUMPI DUP2 ISZERO DUP1 PUSH2 0x3F60 JUMPI POP PUSH32 0x0 DUP3 GT JUMPDEST ISZERO PUSH2 0x3F7E JUMPI PUSH1 0x40 MLOAD PUSH4 0x2075CC1 PUSH1 0xE4 SHL DUP2 MSTORE PUSH1 0x4 ADD PUSH1 0x40 MLOAD DUP1 SWAP2 SUB SWAP1 REVERT JUMPDEST PUSH1 0xF DUP3 SWAP1 SSTORE PUSH2 0x41DD JUMP JUMPDEST PUSH1 0x1 DUP4 PUSH1 0xB DUP2 GT ISZERO PUSH2 0x3F9C JUMPI PUSH2 0x3F9C PUSH2 0x4AC2 JUMP JUMPDEST SUB PUSH2 0x3FD6 JUMPI DUP2 ISZERO DUP1 PUSH2 0x3FAE JUMPI POP PUSH1 0x64 DUP3 GT JUMPDEST ISZERO PUSH2 0x3FCC JUMPI PUSH1 0x40 MLOAD PUSH4 0x8AF88A1 PUSH1 0xE2 SHL DUP2 MSTORE PUSH1 0x4 ADD PUSH1 0x40 MLOAD DUP1 SWAP2 SUB SWAP1 REVERT JUMPDEST PUSH1 0x12 DUP3 SWAP1 SSTORE PUSH2 0x41DD JUMP JUMPDEST PUSH1 0x6 DUP4 PUSH1 0xB DUP2 GT ISZERO PUSH2 0x3FEA JUMPI PUSH2 0x3FEA PUSH2 0x4AC2 JUMP JUMPDEST SUB PUSH2 0x4029 JUMPI PUSH2 0x3E8 DUP3 LT DUP1 PUSH2 0x4001 JUMPI POP PUSH3 0x989680 DUP3 GT JUMPDEST ISZERO PUSH2 0x401F JUMPI PUSH1 0x40 MLOAD PUSH4 0x53A66D71 PUSH1 0xE0 SHL DUP2 MSTORE PUSH1 0x4 ADD PUSH1 0x40 MLOAD DUP1 SWAP2 SUB SWAP1 REVERT JUMPDEST PUSH1 0x19 DUP3 SWAP1 SSTORE PUSH2 0x41DD JUMP JUMPDEST PUSH1 0x7 DUP4 PUSH1 0xB DUP2 GT ISZERO PUSH2 0x403D JUMPI PUSH2 0x403D PUSH2 0x4AC2 JUMP JUMPDEST SUB PUSH2 0x407D JUMPI PUSH2 0x2710 DUP3 LT DUP1 PUSH2 0x4055 JUMPI POP PUSH4 0x5F5E100 DUP3 GT JUMPDEST ISZERO PUSH2 0x4073 JUMPI PUSH1 0x40 MLOAD PUSH4 0x4EE281D9 PUSH1 0xE0 SHL DUP2 MSTORE PUSH1 0x4 ADD PUSH1 0x40 MLOAD DUP1 SWAP2 SUB SWAP1 REVERT JUMPDEST PUSH1 0x1A DUP3 SWAP1 SSTORE PUSH2 0x41DD JUMP JUMPDEST PUSH1 0x8 DUP4 PUSH1 0xB DUP2 GT ISZERO PUSH2 0x4091 JUMPI PUSH2 0x4091 PUSH2 0x4AC2 JUMP JUMPDEST SUB PUSH2 0x40CB JUMPI DUP2 ISZERO DUP1 PUSH2 0x40A3 JUMPI POP PUSH1 0xA DUP3 GT JUMPDEST ISZERO PUSH2 0x40C1 JUMPI PUSH1 0x40 MLOAD PUSH4 0x5AC789E3 PUSH1 0xE0 SHL DUP2 MSTORE PUSH1 0x4 ADD PUSH1 0x40 MLOAD DUP1 SWAP2 SUB SWAP1 REVERT JUMPDEST PUSH1 0x1B DUP3 SWAP1 SSTORE PUSH2 0x41DD JUMP JUMPDEST PUSH1 0xB DUP4 PUSH1 0xB DUP2 GT ISZERO PUSH2 0x40DF JUMPI PUSH2 0x40DF PUSH2 0x4AC2 JUMP JUMPDEST SUB PUSH2 0x4119 JUMPI DUP2 ISZERO DUP1 PUSH2 0x40F1 JUMPI POP PUSH1 0x32 DUP3 GT JUMPDEST ISZERO PUSH2 0x410F JUMPI PUSH1 0x40 MLOAD PUSH4 0x11D148A5 PUSH1 0xE3 SHL DUP2 MSTORE PUSH1 0x4 ADD PUSH1 0x40 MLOAD DUP1 SWAP2 SUB SWAP1 REVERT JUMPDEST PUSH1 0x1C DUP3 SWAP1 SSTORE PUSH2 0x41DD JUMP JUMPDEST PUSH1 0x9 DUP4 PUSH1 0xB DUP2 GT ISZERO PUSH2 0x412D JUMPI PUSH2 0x412D PUSH2 0x4AC2 JUMP JUMPDEST SUB PUSH2 0x4191 JUMPI PUSH10 0xD3C21BCECCEDA1000000 DUP3 LT DUP1 PUSH2 0x4169 JUMPI POP PUSH32 0x0 DUP3 GT JUMPDEST ISZERO PUSH2 0x4187 JUMPI PUSH1 0x40 MLOAD PUSH4 0xE2D9BBFF PUSH1 0xE0 SHL DUP2 MSTORE PUSH1 0x4 ADD PUSH1 0x40 MLOAD DUP1 SWAP2 SUB SWAP1 REVERT JUMPDEST PUSH1 0x13 DUP3 SWAP1 SSTORE PUSH2 0x41DD JUMP JUMPDEST PUSH1 0xA DUP4 PUSH1 0xB DUP2 GT ISZERO PUSH2 0x41A5 JUMPI PUSH2 0x41A5 PUSH2 0x4AC2 JUMP JUMPDEST SUB PUSH2 0x41DD JUMPI PUSH1 0xA DUP3 LT DUP1 PUSH2 0x41B9 JUMPI POP PUSH1 0x5A DUP3 GT JUMPDEST ISZERO PUSH2 0x41D7 JUMPI PUSH1 0x40 MLOAD PUSH4 0x1F586735 PUSH1 0xE0 SHL DUP2 MSTORE PUSH1 0x4 ADD PUSH1 0x40 MLOAD DUP1 SWAP2 SUB SWAP1 REVERT JUMPDEST PUSH1 0x14 DUP3 SWAP1 SSTORE JUMPDEST DUP3 PUSH1 0xB DUP2 GT ISZERO PUSH2 0x41EF JUMPI PUSH2 0x41EF PUSH2 0x4AC2 JUMP JUMPDEST PUSH1 0x40 DUP1 MLOAD DUP5 DUP2 MSTORE PUSH1 0x1 PUSH1 0x1 PUSH1 0xA0 SHL SUB DUP5 AND PUSH1 0x20 DUP3 ADD MSTORE PUSH32 0xFC0390D67EBDC63D4AED005EA60C5ADC2F760DE6AD9846EDC5B471828A80DD48 SWAP2 ADD JUMPDEST PUSH1 0x40 MLOAD DUP1 SWAP2 SUB SWAP1 LOG2 POP POP POP JUMP JUMPDEST PUSH1 0x1 PUSH1 0x1 PUSH1 0xA0 SHL SUB DUP3 AND PUSH2 0x425F JUMPI PUSH1 0x40 MLOAD PUSH4 0x4B637E8F PUSH1 0xE1 SHL DUP2 MSTORE PUSH0 PUSH1 0x4 DUP3 ADD MSTORE PUSH1 0x24 ADD PUSH2 0x1528 JUMP JUMPDEST PUSH2 0x2059 DUP3 PUSH0 DUP4 PUSH2 0x4848 JUMP JUMPDEST PUSH1 0x2E SLOAD PUSH0 JUMPDEST DUP2 DUP2 LT ISZERO PUSH2 0x436F JUMPI DUP4 PUSH1 0x1 PUSH1 0x1 PUSH1 0xA0 SHL SUB AND PUSH1 0x2E DUP3 DUP2 SLOAD DUP2 LT PUSH2 0x4294 JUMPI PUSH2 0x4294 PUSH2 0x4FD4 JUMP JUMPDEST PUSH0 SWAP2 DUP3 MSTORE PUSH1 0x20 SWAP1 SWAP2 KECCAK256 ADD SLOAD PUSH1 0x1 PUSH1 0x1 PUSH1 0xA0 SHL SUB AND SUB PUSH2 0x435F JUMPI DUP3 PUSH0 SUB PUSH2 0x4359 JUMPI PUSH1 0x2E PUSH2 0x42C1 PUSH1 0x1 DUP5 PUSH2 0x4F0D JUMP JUMPDEST DUP2 SLOAD DUP2 LT PUSH2 0x42D1 JUMPI PUSH2 0x42D1 PUSH2 0x4FD4 JUMP JUMPDEST PUSH0 SWAP2 DUP3 MSTORE PUSH1 0x20 SWAP1 SWAP2 KECCAK256 ADD SLOAD PUSH1 0x2E DUP1 SLOAD PUSH1 0x1 PUSH1 0x1 PUSH1 0xA0 SHL SUB SWAP1 SWAP3 AND SWAP2 DUP4 SWAP1 DUP2 LT PUSH2 0x42FC JUMPI PUSH2 0x42FC PUSH2 0x4FD4 JUMP JUMPDEST SWAP1 PUSH0 MSTORE PUSH1 0x20 PUSH0 KECCAK256 ADD PUSH0 PUSH2 0x100 EXP DUP2 SLOAD DUP2 PUSH1 0x1 PUSH1 0x1 PUSH1 0xA0 SHL SUB MUL NOT AND SWAP1 DUP4 PUSH1 0x1 PUSH1 0x1 PUSH1 0xA0 SHL SUB AND MUL OR SWAP1 SSTORE POP PUSH1 0x2E DUP1 SLOAD DUP1 PUSH2 0x4338 JUMPI PUSH2 0x4338 PUSH2 0x51A0 JUMP JUMPDEST PUSH0 DUP3 DUP2 MSTORE PUSH1 0x20 SWAP1 KECCAK256 DUP2 ADD PUSH0 NOT SWAP1 DUP2 ADD DUP1 SLOAD PUSH1 0x1 PUSH1 0x1 PUSH1 0xA0 SHL SUB NOT AND SWAP1 SSTORE ADD SWAP1 SSTORE JUMPDEST POP POP POP POP JUMP JUMPDEST PUSH2 0x4368 DUP2 PUSH2 0x4FE8 JUMP JUMPDEST SWAP1 POP PUSH2 0x426F JUMP JUMPDEST POP DUP2 ISZERO DUP1 ISZERO SWAP1 PUSH2 0x437F JUMPI POP PUSH1 0xA DUP2 LT JUMPDEST ISZERO PUSH2 0x3E35 JUMPI PUSH1 0x2E DUP1 SLOAD PUSH1 0x1 DUP2 ADD DUP3 SSTORE PUSH0 SWAP2 SWAP1 SWAP2 MSTORE PUSH32 0x37FA166CBDBFBB1561CCD9EA985EC0218B5E68502E230525F544285B2BDF3D7E ADD DUP1 SLOAD PUSH1 0x1 PUSH1 0x1 PUSH1 0xA0 SHL SUB DUP6 AND PUSH1 0x1 PUSH1 0x1 PUSH1 0xA0 SHL SUB NOT SWAP1 SWAP2 AND OR SWAP1 SSTORE POP POP POP JUMP JUMPDEST PUSH0 CALLER PUSH2 0x43E2 DUP6 DUP3 DUP6 PUSH2 0x4961 JUMP JUMPDEST PUSH2 0x43ED DUP6 DUP6 DUP6 PUSH2 0x49D7 JUMP JUMPDEST POP PUSH1 0x1 SWAP5 SWAP4 POP POP POP POP JUMP JUMPDEST PUSH1 0x9 SLOAD PUSH2 0x100 SWAP1 DIV PUSH1 0xFF AND ISZERO DUP1 PUSH2 0x4424 JUMPI POP PUSH1 0x1 PUSH1 0x1 PUSH1 0xA0 SHL SUB DUP2 AND PUSH0 SWAP1 DUP2 MSTORE PUSH1 0x20 DUP1 MSTORE PUSH1 0x40 SWAP1 KECCAK256 SLOAD ISZERO ISZERO JUMPDEST DUP1 PUSH2 0x4444 JUMPI POP PUSH1 0x1 PUSH1 0x1 PUSH1 0xA0 SHL SUB DUP2 AND PUSH0 SWAP1 DUP2 MSTORE PUSH1 0x21 PUSH1 0x20 MSTORE PUSH1 0x40 SWAP1 KECCAK256 SLOAD ISZERO JUMPDEST ISZERO PUSH2 0x4462 JUMPI PUSH1 0x40 MLOAD PUSH4 0x54D87237 PUSH1 0xE0 SHL DUP2 MSTORE PUSH1 0x4 ADD PUSH1 0x40 MLOAD DUP1 SWAP2 SUB SWAP1 REVERT JUMPDEST PUSH32 0x0 PUSH1 0xB SLOAD GT ISZERO PUSH2 0x44A5 JUMPI PUSH1 0x40 MLOAD PUSH4 0x87D5B4FB PUSH1 0xE0 SHL DUP2 MSTORE PUSH1 0x4 ADD PUSH1 0x40 MLOAD DUP1 SWAP2 SUB SWAP1 REVERT JUMPDEST PUSH1 0x1 PUSH1 0x1 PUSH1 0xA0 SHL SUB DUP2 AND PUSH0 SWAP1 DUP2 MSTORE PUSH1 0x21 PUSH1 0x20 MSTORE PUSH1 0x40 DUP2 KECCAK256 SLOAD PUSH32 0x0 SWAP1 PUSH2 0x44F6 SWAP1 PUSH12 0x33B2E3C9FD0803CE8000000 SWAP1 PUSH2 0x4ED7 JUMP JUMPDEST PUSH2 0x4500 SWAP2 SWAP1 PUSH2 0x4EEE JUMP JUMPDEST SWAP1 POP PUSH2 0x3E8 PUSH1 0x10 SLOAD LT ISZERO PUSH2 0x4544 JUMPI PUSH1 0x64 PUSH2 0x451B PUSH1 0xA DUP4 PUSH2 0x4ED7 JUMP JUMPDEST PUSH2 0x4525 SWAP2 SWAP1 PUSH2 0x4EEE JUMP JUMPDEST PUSH2 0x452F SWAP1 DUP3 PUSH2 0x4EC4 JUMP JUMPDEST SWAP1 POP PUSH1 0x10 PUSH0 DUP2 SLOAD PUSH2 0x453F SWAP1 PUSH2 0x4FE8 JUMP JUMPDEST SWAP1 SWAP2 SSTORE POP JUMPDEST DUP1 PUSH0 SUB PUSH2 0x4564 JUMPI PUSH1 0x40 MLOAD PUSH4 0x374C9343 PUSH1 0xE1 SHL DUP2 MSTORE PUSH1 0x4 ADD PUSH1 0x40 MLOAD DUP1 SWAP2 SUB SWAP1 REVERT JUMPDEST PUSH1 0x1 PUSH1 0x1 PUSH1 0xA0 SHL SUB DUP1 DUP4 AND PUSH0 SWAP1 DUP2 MSTORE PUSH1 0x22 PUSH1 0x20 MSTORE PUSH1 0x40 SWAP1 KECCAK256 SLOAD AND DUP1 ISZERO PUSH2 0x45ED JUMPI PUSH0 PUSH1 0x64 PUSH2 0x4592 PUSH1 0x5 DUP6 PUSH2 0x4ED7 JUMP JUMPDEST PUSH2 0x459C SWAP2 SWAP1 PUSH2 0x4EEE JUMP JUMPDEST SWAP1 POP PUSH2 0x45A8 DUP3 DUP3 PUSH2 0x464B JUMP JUMPDEST DUP2 PUSH1 0x1 PUSH1 0x1 PUSH1 0xA0 SHL SUB AND PUSH32 0x50BAE3EEEFAC62A4EE36C766F4F426F09EDF96AE8FB3034EBBF961E4ACC78E2 DUP3 PUSH1 0x40 MLOAD PUSH2 0x45E3 SWAP2 DUP2 MSTORE PUSH1 0x20 ADD SWAP1 JUMP JUMPDEST PUSH1 0x40 MLOAD DUP1 SWAP2 SUB SWAP1 LOG2 POP JUMPDEST PUSH1 0x1 PUSH1 0x1 PUSH1 0xA0 SHL SUB DUP4 AND PUSH0 SWAP1 DUP2 MSTORE PUSH1 0x20 DUP1 MSTORE PUSH1 0x40 SWAP1 KECCAK256 DUP3 SWAP1 SSTORE PUSH2 0x4610 DUP4 DUP4 PUSH2 0x464B JUMP JUMPDEST DUP3 PUSH1 0x1 PUSH1 0x1 PUSH1 0xA0 SHL SUB AND PUSH32 0xB60CCDAD08A990849494CADC2278B346A8742FB757E67C422F71E3E64FB77B45 DUP4 PUSH1 0x40 MLOAD PUSH2 0x4229 SWAP2 DUP2 MSTORE PUSH1 0x20 ADD SWAP1 JUMP JUMPDEST PUSH1 0x1 PUSH1 0x1 PUSH1 0xA0 SHL SUB DUP3 AND PUSH2 0x4674 JUMPI PUSH1 0x40 MLOAD PUSH4 0xEC442F05 PUSH1 0xE0 SHL DUP2 MSTORE PUSH0 PUSH1 0x4 DUP3 ADD MSTORE PUSH1 0x24 ADD PUSH2 0x1528 JUMP JUMPDEST PUSH2 0x2059 PUSH0 DUP4 DUP4 PUSH2 0x4848 JUMP JUMPDEST PUSH1 0x6 SLOAD PUSH1 0x1 PUSH1 0x1 PUSH1 0xA0 SHL SUB AND CALLER EQ PUSH2 0x166E JUMPI PUSH1 0x40 MLOAD PUSH4 0x118CDAA7 PUSH1 0xE0 SHL DUP2 MSTORE CALLER PUSH1 0x4 DUP3 ADD MSTORE PUSH1 0x24 ADD PUSH2 0x1528 JUMP JUMPDEST PUSH1 0x6 DUP1 SLOAD PUSH1 0x1 PUSH1 0x1 PUSH1 0xA0 SHL SUB DUP4 DUP2 AND PUSH1 0x1 PUSH1 0x1 PUSH1 0xA0 SHL SUB NOT DUP4 AND DUP2 OR SWAP1 SWAP4 SSTORE PUSH1 0x40 MLOAD SWAP2 AND SWAP2 SWAP1 DUP3 SWAP1 PUSH32 0x8BE0079C531659141344CD1FD0A4F28419497F9722A3DAAFE3B4186F6B6457E0 SWAP1 PUSH0 SWAP1 LOG3 POP POP JUMP JUMPDEST PUSH0 CALLER PUSH2 0xEF7 DUP2 DUP6 DUP6 PUSH2 0x49D7 JUMP JUMPDEST PUSH1 0x1 PUSH1 0x1 PUSH1 0xA0 SHL SUB DUP5 AND PUSH2 0x4733 JUMPI PUSH1 0x40 MLOAD PUSH4 0xE602DF05 PUSH1 0xE0 SHL DUP2 MSTORE PUSH0 PUSH1 0x4 DUP3 ADD MSTORE PUSH1 0x24 ADD PUSH2 0x1528 JUMP JUMPDEST PUSH1 0x1 PUSH1 0x1 PUSH1 0xA0 SHL SUB DUP4 AND PUSH2 0x475C JUMPI PUSH1 0x40 MLOAD PUSH4 0x4A1406B1 PUSH1 0xE1 SHL DUP2 MSTORE PUSH0 PUSH1 0x4 DUP3 ADD MSTORE PUSH1 0x24 ADD PUSH2 0x1528 JUMP JUMPDEST PUSH1 0x1 PUSH1 0x1 PUSH1 0xA0 SHL SUB DUP1 DUP6 AND PUSH0 SWAP1 DUP2 MSTORE PUSH1 0x1 PUSH1 0x20 SWAP1 DUP2 MSTORE PUSH1 0x40 DUP1 DUP4 KECCAK256 SWAP4 DUP8 AND DUP4 MSTORE SWAP3 SWAP1 MSTORE KECCAK256 DUP3 SWAP1 SSTORE DUP1 ISZERO PUSH2 0x4359 JUMPI DUP3 PUSH1 0x1 PUSH1 0x1 PUSH1 0xA0 SHL SUB AND DUP5 PUSH1 0x1 PUSH1 0x1 PUSH1 0xA0 SHL SUB AND PUSH32 0x8C5BE1E5EBEC7D5BD14F71427D1E84F3DD0314C0F7B2291E5B200AC8C7C3B925 DUP5 PUSH1 0x40 MLOAD PUSH2 0x47CE SWAP2 DUP2 MSTORE PUSH1 0x20 ADD SWAP1 JUMP JUMPDEST PUSH1 0x40 MLOAD DUP1 SWAP2 SUB SWAP1 LOG3 POP POP POP POP JUMP JUMPDEST PUSH0 DUP1 PUSH1 0x20 PUSH0 DUP5 MLOAD PUSH1 0x20 DUP7 ADD PUSH0 DUP9 GAS CALL DUP1 PUSH2 0x47FB JUMPI PUSH1 0x40 MLOAD RETURNDATASIZE PUSH0 DUP3 RETURNDATACOPY RETURNDATASIZE DUP2 REVERT JUMPDEST POP POP PUSH0 MLOAD RETURNDATASIZE SWAP2 POP DUP2 ISZERO PUSH2 0x4812 JUMPI DUP1 PUSH1 0x1 EQ ISZERO PUSH2 0x481F JUMP JUMPDEST PUSH1 0x1 PUSH1 0x1 PUSH1 0xA0 SHL SUB DUP5 AND EXTCODESIZE ISZERO JUMPDEST ISZERO PUSH2 0x4359 JUMPI PUSH1 0x40 MLOAD PUSH4 0x5274AFE7 PUSH1 0xE0 SHL DUP2 MSTORE PUSH1 0x1 PUSH1 0x1 PUSH1 0xA0 SHL SUB DUP6 AND PUSH1 0x4 DUP3 ADD MSTORE PUSH1 0x24 ADD PUSH2 0x1528 JUMP JUMPDEST PUSH1 0x1 PUSH1 0x1 PUSH1 0xA0 SHL SUB DUP4 AND PUSH2 0x4872 JUMPI DUP1 PUSH1 0x2 PUSH0 DUP3 DUP3 SLOAD PUSH2 0x4867 SWAP2 SWAP1 PUSH2 0x4EC4 JUMP JUMPDEST SWAP1 SWAP2 SSTORE POP PUSH2 0x48E2 SWAP1 POP JUMP JUMPDEST PUSH1 0x1 PUSH1 0x1 PUSH1 0xA0 SHL SUB DUP4 AND PUSH0 SWAP1 DUP2 MSTORE PUSH1 0x20 DUP2 SWAP1 MSTORE PUSH1 0x40 SWAP1 KECCAK256 SLOAD DUP2 DUP2 LT ISZERO PUSH2 0x48C4 JUMPI PUSH1 0x40 MLOAD PUSH4 0x391434E3 PUSH1 0xE2 SHL DUP2 MSTORE PUSH1 0x1 PUSH1 0x1 PUSH1 0xA0 SHL SUB DUP6 AND PUSH1 0x4 DUP3 ADD MSTORE PUSH1 0x24 DUP2 ADD DUP3 SWAP1 MSTORE PUSH1 0x44 DUP2 ADD DUP4 SWAP1 MSTORE PUSH1 0x64 ADD PUSH2 0x1528 JUMP JUMPDEST PUSH1 0x1 PUSH1 0x1 PUSH1 0xA0 SHL SUB DUP5 AND PUSH0 SWAP1 DUP2 MSTORE PUSH1 0x20 DUP2 SWAP1 MSTORE PUSH1 0x40 SWAP1 KECCAK256 SWAP1 DUP3 SWAP1 SUB SWAP1 SSTORE JUMPDEST PUSH1 0x1 PUSH1 0x1 PUSH1 0xA0 SHL SUB DUP3 AND PUSH2 0x48FE JUMPI PUSH1 0x2 DUP1 SLOAD DUP3 SWAP1 SUB SWAP1 SSTORE PUSH2 0x491C JUMP JUMPDEST PUSH1 0x1 PUSH1 0x1 PUSH1 0xA0 SHL SUB DUP3 AND PUSH0 SWAP1 DUP2 MSTORE PUSH1 0x20 DUP2 SWAP1 MSTORE PUSH1 0x40 SWAP1 KECCAK256 DUP1 SLOAD DUP3 ADD SWAP1 SSTORE JUMPDEST DUP2 PUSH1 0x1 PUSH1 0x1 PUSH1 0xA0 SHL SUB AND DUP4 PUSH1 0x1 PUSH1 0x1 PUSH1 0xA0 SHL SUB AND PUSH32 0xDDF252AD1BE2C89B69C2B068FC378DAA952BA7F163C4A11628F55A4DF523B3EF DUP4 PUSH1 0x40 MLOAD PUSH2 0x2EB4 SWAP2 DUP2 MSTORE PUSH1 0x20 ADD SWAP1 JUMP JUMPDEST PUSH1 0x1 PUSH1 0x1 PUSH1 0xA0 SHL SUB DUP4 DUP2 AND PUSH0 SWAP1 DUP2 MSTORE PUSH1 0x1 PUSH1 0x20 SWAP1 DUP2 MSTORE PUSH1 0x40 DUP1 DUP4 KECCAK256 SWAP4 DUP7 AND DUP4 MSTORE SWAP3 SWAP1 MSTORE KECCAK256 SLOAD PUSH0 NOT DUP2 LT ISZERO PUSH2 0x4359 JUMPI DUP2 DUP2 LT ISZERO PUSH2 0x49C9 JUMPI PUSH1 0x40 MLOAD PUSH4 0x7DC7A0D9 PUSH1 0xE1 SHL DUP2 MSTORE PUSH1 0x1 PUSH1 0x1 PUSH1 0xA0 SHL SUB DUP5 AND PUSH1 0x4 DUP3 ADD MSTORE PUSH1 0x24 DUP2 ADD DUP3 SWAP1 MSTORE PUSH1 0x44 DUP2 ADD DUP4 SWAP1 MSTORE PUSH1 0x64 ADD PUSH2 0x1528 JUMP JUMPDEST PUSH2 0x4359 DUP5 DUP5 DUP5 DUP5 SUB PUSH0 PUSH2 0x470A JUMP JUMPDEST PUSH1 0x1 PUSH1 0x1 PUSH1 0xA0 SHL SUB DUP4 AND PUSH2 0x4A00 JUMPI PUSH1 0x40 MLOAD PUSH4 0x4B637E8F PUSH1 0xE1 SHL DUP2 MSTORE PUSH0 PUSH1 0x4 DUP3 ADD MSTORE PUSH1 0x24 ADD PUSH2 0x1528 JUMP JUMPDEST PUSH1 0x1 PUSH1 0x1 PUSH1 0xA0 SHL SUB DUP3 AND PUSH2 0x4A29 JUMPI PUSH1 0x40 MLOAD PUSH4 0xEC442F05 PUSH1 0xE0 SHL DUP2 MSTORE PUSH0 PUSH1 0x4 DUP3 ADD MSTORE PUSH1 0x24 ADD PUSH2 0x1528 JUMP JUMPDEST PUSH2 0x3E35 DUP4 DUP4 DUP4 PUSH2 0x4848 JUMP JUMPDEST DUP1 CALLDATALOAD PUSH1 0x1 PUSH1 0x1 PUSH1 0xA0 SHL SUB DUP2 AND DUP2 EQ PUSH2 0x4A4A JUMPI PUSH0 DUP1 REVERT JUMPDEST SWAP2 SWAP1 POP JUMP JUMPDEST PUSH0 PUSH1 0x20 DUP3 DUP5 SUB SLT ISZERO PUSH2 0x4A5F JUMPI PUSH0 DUP1 REVERT JUMPDEST PUSH2 0x1A39 DUP3 PUSH2 0x4A34 JUMP JUMPDEST PUSH0 PUSH1 0x20 DUP3 DUP5 SUB SLT ISZERO PUSH2 0x4A78 JUMPI PUSH0 DUP1 REVERT JUMPDEST POP CALLDATALOAD SWAP2 SWAP1 POP JUMP JUMPDEST PUSH0 DUP2 MLOAD DUP1 DUP5 MSTORE PUSH0 JUMPDEST DUP2 DUP2 LT ISZERO PUSH2 0x4AA3 JUMPI PUSH1 0x20 DUP2 DUP6 ADD DUP2 ADD MLOAD DUP7 DUP4 ADD DUP3 ADD MSTORE ADD PUSH2 0x4A87 JUMP JUMPDEST POP PUSH0 PUSH1 0x20 DUP3 DUP7 ADD ADD MSTORE PUSH1 0x20 PUSH1 0x1F NOT PUSH1 0x1F DUP4 ADD AND DUP6 ADD ADD SWAP2 POP POP SWAP3 SWAP2 POP POP JUMP JUMPDEST PUSH4 0x4E487B71 PUSH1 0xE0 SHL PUSH0 MSTORE PUSH1 0x21 PUSH1 0x4 MSTORE PUSH1 0x24 PUSH0 REVERT JUMPDEST PUSH1 0xC DUP2 LT PUSH2 0x4AF2 JUMPI PUSH4 0x4E487B71 PUSH1 0xE0 SHL PUSH0 MSTORE PUSH1 0x21 PUSH1 0x4 MSTORE PUSH1 0x24 PUSH0 REVERT JUMPDEST SWAP1 MSTORE JUMP JUMPDEST PUSH0 PUSH2 0x160 DUP14 DUP4 MSTORE DUP13 PUSH1 0x20 DUP5 ADD MSTORE DUP12 PUSH1 0x40 DUP5 ADD MSTORE DUP11 PUSH1 0x60 DUP5 ADD MSTORE DUP10 PUSH1 0x80 DUP5 ADD MSTORE DUP9 PUSH1 0xA0 DUP5 ADD MSTORE PUSH1 0x1 DUP1 PUSH1 0xA0 SHL SUB DUP1 DUP10 AND PUSH1 0xC0 DUP6 ADD MSTORE DUP1 DUP9 AND PUSH1 0xE0 DUP6 ADD MSTORE POP DUP1 PUSH2 0x100 DUP5 ADD MSTORE PUSH2 0x4B46 DUP2 DUP5 ADD DUP8 PUSH2 0x4A7F JUMP JUMPDEST SWAP2 POP POP PUSH2 0x4B57 PUSH2 0x120 DUP4 ADD DUP6 PUSH2 0x4AD6 JUMP JUMPDEST DUP3 ISZERO ISZERO PUSH2 0x140 DUP4 ADD MSTORE SWAP13 SWAP12 POP POP POP POP POP POP POP POP POP POP POP POP JUMP JUMPDEST PUSH1 0x20 DUP2 MSTORE PUSH0 PUSH2 0x1A39 PUSH1 0x20 DUP4 ADD DUP5 PUSH2 0x4A7F JUMP JUMPDEST PUSH0 DUP1 PUSH1 0x40 DUP4 DUP6 SUB SLT ISZERO PUSH2 0x4B93 JUMPI PUSH0 DUP1 REVERT JUMPDEST PUSH2 0x4B9C DUP4 PUSH2 0x4A34 JUMP JUMPDEST SWAP5 PUSH1 0x20 SWAP4 SWAP1 SWAP4 ADD CALLDATALOAD SWAP4 POP POP POP JUMP JUMPDEST PUSH0 DUP1 PUSH0 PUSH1 0x60 DUP5 DUP7 SUB SLT ISZERO PUSH2 0x4BBC JUMPI PUSH0 DUP1 REVERT JUMPDEST PUSH2 0x4BC5 DUP5 PUSH2 0x4A34 JUMP JUMPDEST SWAP3 POP PUSH2 0x4BD3 PUSH1 0x20 DUP6 ADD PUSH2 0x4A34 JUMP JUMPDEST SWAP2 POP PUSH1 0x40 DUP5 ADD CALLDATALOAD SWAP1 POP SWAP3 POP SWAP3 POP SWAP3 JUMP JUMPDEST DUP1 CALLDATALOAD DUP1 ISZERO ISZERO DUP2 EQ PUSH2 0x4A4A JUMPI PUSH0 DUP1 REVERT JUMPDEST PUSH0 PUSH1 0x20 DUP3 DUP5 SUB SLT ISZERO PUSH2 0x4C02 JUMPI PUSH0 DUP1 REVERT JUMPDEST PUSH2 0x1A39 DUP3 PUSH2 0x4BE3 JUMP JUMPDEST PUSH0 DUP1 PUSH1 0x20 DUP4 DUP6 SUB SLT ISZERO PUSH2 0x4C1C JUMPI PUSH0 DUP1 REVERT JUMPDEST DUP3 CALLDATALOAD PUSH8 0xFFFFFFFFFFFFFFFF DUP1 DUP3 GT ISZERO PUSH2 0x4C33 JUMPI PUSH0 DUP1 REVERT JUMPDEST DUP2 DUP6 ADD SWAP2 POP DUP6 PUSH1 0x1F DUP4 ADD SLT PUSH2 0x4C46 JUMPI PUSH0 DUP1 REVERT JUMPDEST DUP2 CALLDATALOAD DUP2 DUP2 GT ISZERO PUSH2 0x4C54 JUMPI PUSH0 DUP1 REVERT JUMPDEST DUP7 PUSH1 0x20 DUP3 PUSH1 0x5 SHL DUP6 ADD ADD GT ISZERO PUSH2 0x4C68 JUMPI PUSH0 DUP1 REVERT JUMPDEST PUSH1 0x20 SWAP3 SWAP1 SWAP3 ADD SWAP7 SWAP2 SWAP6 POP SWAP1 SWAP4 POP POP POP POP JUMP JUMPDEST PUSH1 0x20 DUP1 DUP3 MSTORE DUP3 MLOAD DUP3 DUP3 ADD DUP2 SWAP1 MSTORE PUSH0 SWAP2 SWAP1 DUP5 DUP3 ADD SWAP1 PUSH1 0x40 DUP6 ADD SWAP1 DUP5 JUMPDEST DUP2 DUP2 LT ISZERO PUSH2 0x4CBA JUMPI DUP4 MLOAD PUSH1 0x1 PUSH1 0x1 PUSH1 0xA0 SHL SUB AND DUP4 MSTORE SWAP3 DUP5 ADD SWAP3 SWAP2 DUP5 ADD SWAP2 PUSH1 0x1 ADD PUSH2 0x4C95 JUMP JUMPDEST POP SWAP1 SWAP7 SWAP6 POP POP POP POP POP POP JUMP JUMPDEST PUSH0 DUP1 PUSH1 0x40 DUP4 DUP6 SUB SLT ISZERO PUSH2 0x4CD7 JUMPI PUSH0 DUP1 REVERT JUMPDEST POP POP DUP1 CALLDATALOAD SWAP3 PUSH1 0x20 SWAP1 SWAP2 ADD CALLDATALOAD SWAP2 POP JUMP JUMPDEST DUP4 DUP2 MSTORE DUP3 PUSH1 0x20 DUP3 ADD MSTORE PUSH1 0x60 PUSH1 0x40 DUP3 ADD MSTORE PUSH0 PUSH2 0x4D04 PUSH1 0x60 DUP4 ADD DUP5 PUSH2 0x4A7F JUMP JUMPDEST SWAP6 SWAP5 POP POP POP POP POP JUMP JUMPDEST PUSH0 DUP1 PUSH1 0x40 DUP4 DUP6 SUB SLT ISZERO PUSH2 0x4D1E JUMPI PUSH0 DUP1 REVERT JUMPDEST PUSH2 0x4D27 DUP4 PUSH2 0x4A34 JUMP JUMPDEST SWAP2 POP PUSH2 0x4D35 PUSH1 0x20 DUP5 ADD PUSH2 0x4A34 JUMP JUMPDEST SWAP1 POP SWAP3 POP SWAP3 SWAP1 POP JUMP JUMPDEST PUSH4 0x4E487B71 PUSH1 0xE0 SHL PUSH0 MSTORE PUSH1 0x41 PUSH1 0x4 MSTORE PUSH1 0x24 PUSH0 REVERT JUMPDEST DUP1 CALLDATALOAD PUSH1 0xC DUP2 LT PUSH2 0x4A4A JUMPI PUSH0 DUP1 REVERT JUMPDEST PUSH0 DUP1 PUSH0 DUP1 PUSH1 0x80 DUP6 DUP8 SUB SLT ISZERO PUSH2 0x4D73 JUMPI PUSH0 DUP1 REVERT JUMPDEST DUP5 CALLDATALOAD PUSH8 0xFFFFFFFFFFFFFFFF DUP1 DUP3 GT ISZERO PUSH2 0x4D8A JUMPI PUSH0 DUP1 REVERT JUMPDEST DUP2 DUP8 ADD SWAP2 POP DUP8 PUSH1 0x1F DUP4 ADD SLT PUSH2 0x4D9D JUMPI PUSH0 DUP1 REVERT JUMPDEST DUP2 CALLDATALOAD DUP2 DUP2 GT ISZERO PUSH2 0x4DAF JUMPI PUSH2 0x4DAF PUSH2 0x4D3E JUMP JUMPDEST PUSH1 0x40 MLOAD PUSH1 0x1F DUP3 ADD PUSH1 0x1F NOT SWAP1 DUP2 AND PUSH1 0x3F ADD AND DUP2 ADD SWAP1 DUP4 DUP3 GT DUP2 DUP4 LT OR ISZERO PUSH2 0x4DD7 JUMPI PUSH2 0x4DD7 PUSH2 0x4D3E JUMP JUMPDEST DUP2 PUSH1 0x40 MSTORE DUP3 DUP2 MSTORE DUP11 PUSH1 0x20 DUP5 DUP8 ADD ADD GT ISZERO PUSH2 0x4DEF JUMPI PUSH0 DUP1 REVERT JUMPDEST DUP3 PUSH1 0x20 DUP7 ADD PUSH1 0x20 DUP4 ADD CALLDATACOPY PUSH0 PUSH1 0x20 DUP5 DUP4 ADD ADD MSTORE DUP1 SWAP9 POP POP POP POP POP POP PUSH1 0x20 DUP6 ADD CALLDATALOAD SWAP3 POP PUSH2 0x4E1C PUSH1 0x40 DUP7 ADD PUSH2 0x4A34 JUMP JUMPDEST SWAP2 POP PUSH2 0x4E2A PUSH1 0x60 DUP7 ADD PUSH2 0x4D52 JUMP JUMPDEST SWAP1 POP SWAP3 SWAP6 SWAP2 SWAP5 POP SWAP3 POP JUMP JUMPDEST PUSH0 DUP1 PUSH1 0x40 DUP4 DUP6 SUB SLT ISZERO PUSH2 0x4E46 JUMPI PUSH0 DUP1 REVERT JUMPDEST DUP3 CALLDATALOAD SWAP2 POP PUSH2 0x4D35 PUSH1 0x20 DUP5 ADD PUSH2 0x4A34 JUMP JUMPDEST PUSH0 DUP1 PUSH0 PUSH1 0x60 DUP5 DUP7 SUB SLT ISZERO PUSH2 0x4E68 JUMPI PUSH0 DUP1 REVERT JUMPDEST DUP4 CALLDATALOAD SWAP3 POP PUSH2 0x4BD3 PUSH1 0x20 DUP6 ADD PUSH2 0x4BE3 JUMP JUMPDEST PUSH1 0x1 DUP2 DUP2 SHR SWAP1 DUP3 AND DUP1 PUSH2 0x4E8C JUMPI PUSH1 0x7F DUP3 AND SWAP2 POP JUMPDEST PUSH1 0x20 DUP3 LT DUP2 SUB PUSH2 0x4EAA JUMPI PUSH4 0x4E487B71 PUSH1 0xE0 SHL PUSH0 MSTORE PUSH1 0x22 PUSH1 0x4 MSTORE PUSH1 0x24 PUSH0 REVERT JUMPDEST POP SWAP2 SWAP1 POP JUMP JUMPDEST PUSH4 0x4E487B71 PUSH1 0xE0 SHL PUSH0 MSTORE PUSH1 0x11 PUSH1 0x4 MSTORE PUSH1 0x24 PUSH0 REVERT JUMPDEST DUP1 DUP3 ADD DUP1 DUP3 GT ISZERO PUSH2 0xEFD JUMPI PUSH2 0xEFD PUSH2 0x4EB0 JUMP JUMPDEST DUP1 DUP3 MUL DUP2 ISZERO DUP3 DUP3 DIV DUP5 EQ OR PUSH2 0xEFD JUMPI PUSH2 0xEFD PUSH2 0x4EB0 JUMP JUMPDEST PUSH0 DUP3 PUSH2 0x4F08 JUMPI PUSH4 0x4E487B71 PUSH1 0xE0 SHL PUSH0 MSTORE PUSH1 0x12 PUSH1 0x4 MSTORE PUSH1 0x24 PUSH0 REVERT JUMPDEST POP DIV SWAP1 JUMP JUMPDEST DUP2 DUP2 SUB DUP2 DUP2 GT ISZERO PUSH2 0xEFD JUMPI PUSH2 0xEFD PUSH2 0x4EB0 JUMP JUMPDEST PUSH0 PUSH1 0x20 DUP1 DUP4 MSTORE PUSH0 DUP5 SLOAD PUSH2 0x4F32 DUP2 PUSH2 0x4E78 JUMP JUMPDEST DUP1 DUP5 DUP8 ADD MSTORE PUSH1 0x40 PUSH1 0x1 DUP1 DUP5 AND PUSH0 DUP2 EQ PUSH2 0x4F52 JUMPI PUSH1 0x1 DUP2 EQ PUSH2 0x4F6C JUMPI PUSH2 0x4F97 JUMP JUMPDEST PUSH1 0xFF NOT DUP6 AND DUP10 DUP5 ADD MSTORE DUP4 ISZERO ISZERO PUSH1 0x5 SHL DUP10 ADD DUP4 ADD SWAP6 POP PUSH2 0x4F97 JUMP JUMPDEST DUP10 PUSH0 MSTORE DUP7 PUSH0 KECCAK256 PUSH0 JUMPDEST DUP6 DUP2 LT ISZERO PUSH2 0x4F8F JUMPI DUP2 SLOAD DUP12 DUP3 ADD DUP7 ADD MSTORE SWAP1 DUP4 ADD SWAP1 DUP9 ADD PUSH2 0x4F74 JUMP JUMPDEST DUP11 ADD DUP5 ADD SWAP7 POP POP JUMPDEST POP SWAP4 SWAP9 SWAP8 POP POP POP POP POP POP POP POP JUMP JUMPDEST PUSH1 0x20 DUP1 DUP3 MSTORE PUSH1 0x15 SWAP1 DUP3 ADD MSTORE PUSH21 0x10DBDB9D1C9858DD1CC81B9BDD08185B1B1BDDD959 PUSH1 0x5A SHL PUSH1 0x40 DUP3 ADD MSTORE PUSH1 0x60 ADD SWAP1 JUMP JUMPDEST PUSH4 0x4E487B71 PUSH1 0xE0 SHL PUSH0 MSTORE PUSH1 0x32 PUSH1 0x4 MSTORE PUSH1 0x24 PUSH0 REVERT JUMPDEST PUSH0 PUSH1 0x1 DUP3 ADD PUSH2 0x4FF9 JUMPI PUSH2 0x4FF9 PUSH2 0x4EB0 JUMP JUMPDEST POP PUSH1 0x1 ADD SWAP1 JUMP JUMPDEST PUSH0 DUP2 DUP5 DUP3 JUMPDEST DUP6 DUP2 LT ISZERO PUSH2 0x5034 JUMPI PUSH1 0x1 PUSH1 0x1 PUSH1 0xA0 SHL SUB PUSH2 0x501E DUP4 PUSH2 0x4A34 JUMP JUMPDEST AND DUP4 MSTORE PUSH1 0x20 SWAP3 DUP4 ADD SWAP3 SWAP2 SWAP1 SWAP2 ADD SWAP1 PUSH1 0x1 ADD PUSH2 0x5005 JUMP JUMPDEST POP SWAP1 SWAP6 SWAP5 POP POP POP POP POP JUMP JUMPDEST PUSH1 0x20 DUP1 DUP3 MSTORE DUP3 MLOAD DUP3 DUP3 ADD DUP2 SWAP1 MSTORE PUSH0 SWAP2 SWAP1 DUP5 DUP3 ADD SWAP1 PUSH1 0x40 DUP6 ADD SWAP1 DUP5 JUMPDEST DUP2 DUP2 LT ISZERO PUSH2 0x4CBA JUMPI DUP4 MLOAD DUP4 MSTORE SWAP3 DUP5 ADD SWAP3 SWAP2 DUP5 ADD SWAP2 PUSH1 0x1 ADD PUSH2 0x505A JUMP JUMPDEST PUSH1 0x1F DUP3 GT ISZERO PUSH2 0x3E35 JUMPI PUSH0 DUP2 DUP2 MSTORE PUSH1 0x20 DUP2 KECCAK256 PUSH1 0x1F DUP6 ADD PUSH1 0x5 SHR DUP2 ADD PUSH1 0x20 DUP7 LT ISZERO PUSH2 0x509C JUMPI POP DUP1 JUMPDEST PUSH1 0x1F DUP6 ADD PUSH1 0x5 SHR DUP3 ADD SWAP2 POP JUMPDEST DUP2 DUP2 LT ISZERO PUSH2 0x50BB JUMPI DUP3 DUP2 SSTORE PUSH1 0x1 ADD PUSH2 0x50A8 JUMP JUMPDEST POP POP POP POP POP POP JUMP JUMPDEST DUP2 MLOAD PUSH8 0xFFFFFFFFFFFFFFFF DUP2 GT ISZERO PUSH2 0x50DD JUMPI PUSH2 0x50DD PUSH2 0x4D3E JUMP JUMPDEST PUSH2 0x50F1 DUP2 PUSH2 0x50EB DUP5 SLOAD PUSH2 0x4E78 JUMP JUMPDEST DUP5 PUSH2 0x5076 JUMP JUMPDEST PUSH1 0x20 DUP1 PUSH1 0x1F DUP4 GT PUSH1 0x1 DUP2 EQ PUSH2 0x5124 JUMPI PUSH0 DUP5 ISZERO PUSH2 0x510D JUMPI POP DUP6 DUP4 ADD MLOAD JUMPDEST PUSH0 NOT PUSH1 0x3 DUP7 SWAP1 SHL SHR NOT AND PUSH1 0x1 DUP6 SWAP1 SHL OR DUP6 SSTORE PUSH2 0x50BB JUMP JUMPDEST PUSH0 DUP6 DUP2 MSTORE PUSH1 0x20 DUP2 KECCAK256 PUSH1 0x1F NOT DUP7 AND SWAP2 JUMPDEST DUP3 DUP2 LT ISZERO PUSH2 0x5152 JUMPI DUP9 DUP7 ADD MLOAD DUP3 SSTORE SWAP5 DUP5 ADD SWAP5 PUSH1 0x1 SWAP1 SWAP2 ADD SWAP1 DUP5 ADD PUSH2 0x5133 JUMP JUMPDEST POP DUP6 DUP3 LT ISZERO PUSH2 0x516F JUMPI DUP8 DUP6 ADD MLOAD PUSH0 NOT PUSH1 0x3 DUP9 SWAP1 SHL PUSH1 0xF8 AND SHR NOT AND DUP2 SSTORE JUMPDEST POP POP POP POP POP PUSH1 0x1 SWAP1 DUP2 SHL ADD SWAP1 SSTORE POP JUMP JUMPDEST PUSH1 0x40 DUP2 MSTORE PUSH0 PUSH2 0x5191 PUSH1 0x40 DUP4 ADD DUP6 PUSH2 0x4A7F JUMP JUMPDEST SWAP1 POP PUSH2 0x1A39 PUSH1 0x20 DUP4 ADD DUP5 PUSH2 0x4AD6 JUMP JUMPDEST PUSH4 0x4E487B71 PUSH1 0xE0 SHL PUSH0 MSTORE PUSH1 0x31 PUSH1 0x4 MSTORE PUSH1 0x24 PUSH0 REVERT INVALID LOG2 PUSH5 0x6970667358 0x22 SLT KECCAK256 DUP10 0xE1 SWAP13 EXTCODECOPY 0x2C 0xDF PUSH13 0x56166DB24E01F98E1419D1CE8A 0xD6 BLOCKHASH COINBASE SLT DUP7 0xBC DUP5 0x1F CODESIZE 0x27 PUSH19 0xBB64736F6C6343000814003300000000000000 "
	},
	"abi": [
		{
			"inputs": [
				{
					"internalType": "address",
					"name": "spender",
					"type": "address"
				},
				{
					"internalType": "uint256",
					"name": "value",
					"type": "uint256"
				}
			],
			"name": "approve",
			"outputs": [
				{
					"internalType": "bool",
					"name": "",
					"type": "bool"
				}
			],
			"stateMutability": "nonpayable",
			"type": "function"
		},
		{
			"inputs": [
				{
					"internalType": "address",
					"name": "initialOwner",
					"type": "address"
				}
			],
			"stateMutability": "nonpayable",
			"type": "constructor"
		},
		{
			"inputs": [],
			"name": "ActivationThresholdNotMet",
			"type": "error"
		},
		{
			"inputs": [],
			"name": "AirdropAlreadyTriggered",
			"type": "error"
		},
		{
			"inputs": [],
			"name": "AlreadyClaimed",
			"type": "error"
		},
		{
			"inputs": [],
			"name": "AlreadyRegistered",
			"type": "error"
		},
		{
			"inputs": [],
			"name": "AlreadyVoted",
			"type": "error"
		},
		{
			"inputs": [],
			"name": "AmountZero",
			"type": "error"
		},
		{
			"inputs": [],
			"name": "BL2PNotExpired",
			"type": "error"
		},
		{
			"inputs": [],
			"name": "BL2PNotMatured",
			"type": "error"
		},
		{
			"inputs": [],
			"name": "BelowMinimumStake",
			"type": "error"
		},
		{
			"inputs": [],
			"name": "BurnCycleEnded",
			"type": "error"
		},
		{
			"inputs": [],
			"name": "BurnPhaseNotActive",
			"type": "error"
		},
		{
			"inputs": [],
			"name": "ContractPaused",
			"type": "error"
		},
		{
			"inputs": [],
			"name": "DelegationActive",
			"type": "error"
		},
		{
			"inputs": [
				{
					"internalType": "address",
					"name": "spender",
					"type": "address"
				},
				{
					"internalType": "uint256",
					"name": "allowance",
					"type": "uint256"
				},
				{
					"internalType": "uint256",
					"name": "needed",
					"type": "uint256"
				}
			],
			"name": "ERC20InsufficientAllowance",
			"type": "error"
		},
		{
			"inputs": [
				{
					"internalType": "address",
					"name": "sender",
					"type": "address"
				},
				{
					"internalType": "uint256",
					"name": "balance",
					"type": "uint256"
				},
				{
					"internalType": "uint256",
					"name": "needed",
					"type": "uint256"
				}
			],
			"name": "ERC20InsufficientBalance",
			"type": "error"
		},
		{
			"inputs": [
				{
					"internalType": "address",
					"name": "approver",
					"type": "address"
				}
			],
			"name": "ERC20InvalidApprover",
			"type": "error"
		},
		{
			"inputs": [
				{
					"internalType": "address",
					"name": "receiver",
					"type": "address"
				}
			],
			"name": "ERC20InvalidReceiver",
			"type": "error"
		},
		{
			"inputs": [
				{
					"internalType": "address",
					"name": "sender",
					"type": "address"
				}
			],
			"name": "ERC20InvalidSender",
			"type": "error"
		},
		{
			"inputs": [
				{
					"internalType": "address",
					"name": "spender",
					"type": "address"
				}
			],
			"name": "ERC20InvalidSpender",
			"type": "error"
		},
		{
			"inputs": [],
			"name": "ExceedsBL2PBoostLimit",
			"type": "error"
		},
		{
			"inputs": [],
			"name": "ExceedsBurnTarget",
			"type": "error"
		},
		{
			"inputs": [],
			"name": "ExceedsDelegateLimit",
			"type": "error"
		},
		{
			"inputs": [],
			"name": "GovernanceNotSet",
			"type": "error"
		},
		{
			"inputs": [],
			"name": "InsufficientBalance",
			"type": "error"
		},
		{
			"inputs": [],
			"name": "InsufficientContractBalance",
			"type": "error"
		},
		{
			"inputs": [],
			"name": "InsufficientReserve",
			"type": "error"
		},
		{
			"inputs": [],
			"name": "InvalidAddress",
			"type": "error"
		},
		{
			"inputs": [],
			"name": "InvalidBL2PLifespan",
			"type": "error"
		},
		{
			"inputs": [],
			"name": "InvalidBurnAmount",
			"type": "error"
		},
		{
			"inputs": [],
			"name": "InvalidClaimConditions",
			"type": "error"
		},
		{
			"inputs": [],
			"name": "InvalidCommit",
			"type": "error"
		},
		{
			"inputs": [],
			"name": "InvalidDelegate",
			"type": "error"
		},
		{
			"inputs": [],
			"name": "InvalidDelegatedPercent",
			"type": "error"
		},
		{
			"inputs": [],
			"name": "InvalidInactivityBurnRate",
			"type": "error"
		},
		{
			"inputs": [],
			"name": "InvalidMaturationPeriod",
			"type": "error"
		},
		{
			"inputs": [],
			"name": "InvalidProposalPayload",
			"type": "error"
		},
		{
			"inputs": [],
			"name": "InvalidRecipient",
			"type": "error"
		},
		{
			"inputs": [],
			"name": "InvalidRewardRate",
			"type": "error"
		},
		{
			"inputs": [],
			"name": "InvalidTransferConditions",
			"type": "error"
		},
		{
			"inputs": [],
			"name": "MaxParticipantsReached",
			"type": "error"
		},
		{
			"inputs": [],
			"name": "NoActiveStake",
			"type": "error"
		},
		{
			"inputs": [],
			"name": "NoClaimableAmount",
			"type": "error"
		},
		{
			"inputs": [],
			"name": "NoContractCallers",
			"type": "error"
		},
		{
			"inputs": [],
			"name": "NoDelegation",
			"type": "error"
		},
		{
			"inputs": [],
			"name": "NoParticipants",
			"type": "error"
		},
		{
			"inputs": [],
			"name": "NoReward",
			"type": "error"
		},
		{
			"inputs": [],
			"name": "NoValidBL2P",
			"type": "error"
		},
		{
			"inputs": [],
			"name": "NotAuthorized",
			"type": "error"
		},
		{
			"inputs": [],
			"name": "NotContract",
			"type": "error"
		},
		{
			"inputs": [],
			"name": "NotWhitelisted",
			"type": "error"
		},
		{
			"inputs": [
				{
					"internalType": "address",
					"name": "owner",
					"type": "address"
				}
			],
			"name": "OwnableInvalidOwner",
			"type": "error"
		},
		{
			"inputs": [
				{
					"internalType": "address",
					"name": "account",
					"type": "address"
				}
			],
			"name": "OwnableUnauthorizedAccount",
			"type": "error"
		},
		{
			"inputs": [],
			"name": "ProposalCooldownActive",
			"type": "error"
		},
		{
			"inputs": [],
			"name": "ProposalDoesNotExist",
			"type": "error"
		},
		{
			"inputs": [],
			"name": "ProposalExecuted",
			"type": "error"
		},
		{
			"inputs": [],
			"name": "QuorumNotMet",
			"type": "error"
		},
		{
			"inputs": [],
			"name": "QuorumOutOfBounds",
			"type": "error"
		},
		{
			"inputs": [],
			"name": "ReentrancyGuardReentrantCall",
			"type": "error"
		},
		{
			"inputs": [],
			"name": "RegistrationClosed",
			"type": "error"
		},
		{
			"inputs": [
				{
					"internalType": "address",
					"name": "token",
					"type": "address"
				}
			],
			"name": "SafeERC20FailedOperation",
			"type": "error"
		},
		{
			"inputs": [],
			"name": "StakeAlreadyActive",
			"type": "error"
		},
		{
			"inputs": [],
			"name": "TooManyUsers",
			"type": "error"
		},
		{
			"inputs": [],
			"name": "UnlockPeriodNotElapsed",
			"type": "error"
		},
		{
			"inputs": [],
			"name": "VoteThresholdNotMet",
			"type": "error"
		},
		{
			"inputs": [],
			"name": "VoteThresholdOutOfBounds",
			"type": "error"
		},
		{
			"inputs": [],
			"name": "VotingPeriodInactive",
			"type": "error"
		},
		{
			"inputs": [],
			"name": "VotingPeriodNotEnded",
			"type": "error"
		},
		{
			"anonymous": false,
			"inputs": [
				{
					"indexed": true,
					"internalType": "uint256",
					"name": "adId",
					"type": "uint256"
				},
				{
					"indexed": false,
					"internalType": "string",
					"name": "message",
					"type": "string"
				}
			],
			"name": "AdvertisementPosted",
			"type": "event"
		},
		{
			"anonymous": false,
			"inputs": [
				{
					"indexed": true,
					"internalType": "address",
					"name": "owner",
					"type": "address"
				},
				{
					"indexed": true,
					"internalType": "address",
					"name": "spender",
					"type": "address"
				},
				{
					"indexed": false,
					"internalType": "uint256",
					"name": "value",
					"type": "uint256"
				}
			],
			"name": "Approval",
			"type": "event"
		},
		{
			"anonymous": false,
			"inputs": [
				{
					"indexed": true,
					"internalType": "address",
					"name": "user",
					"type": "address"
				},
				{
					"indexed": false,
					"internalType": "uint256",
					"name": "bonusAmount",
					"type": "uint256"
				},
				{
					"indexed": false,
					"internalType": "uint256",
					"name": "cycle",
					"type": "uint256"
				}
			],
			"name": "BL2PBonusBurned",
			"type": "event"
		},
		{
			"anonymous": false,
			"inputs": [
				{
					"indexed": true,
					"internalType": "address",
					"name": "user",
					"type": "address"
				},
				{
					"indexed": false,
					"internalType": "bool",
					"name": "matured",
					"type": "bool"
				}
			],
			"name": "BL2PMaturityUpdated",
			"type": "event"
		},
		{
			"anonymous": false,
			"inputs": [
				{
					"indexed": true,
					"internalType": "uint256",
					"name": "timestamp",
					"type": "uint256"
				}
			],
			"name": "BL2PRevealed",
			"type": "event"
		},
		{
			"anonymous": false,
			"inputs": [
				{
					"indexed": true,
					"internalType": "address",
					"name": "user",
					"type": "address"
				},
				{
					"indexed": false,
					"internalType": "uint256",
					"name": "reward",
					"type": "uint256"
				}
			],
			"name": "BL2PRewardClaimed",
			"type": "event"
		},
		{
			"anonymous": false,
			"inputs": [
				{
					"indexed": true,
					"internalType": "address",
					"name": "user",
					"type": "address"
				},
				{
					"indexed": false,
					"internalType": "uint256",
					"name": "bl2pAmount",
					"type": "uint256"
				}
			],
			"name": "BL2PStaked",
			"type": "event"
		},
		{
			"anonymous": false,
			"inputs": [
				{
					"indexed": true,
					"internalType": "address",
					"name": "from",
					"type": "address"
				},
				{
					"indexed": true,
					"internalType": "address",
					"name": "to",
					"type": "address"
				},
				{
					"indexed": false,
					"internalType": "uint256",
					"name": "amount",
					"type": "uint256"
				}
			],
			"name": "BL2PTransferred",
			"type": "event"
		},
		{
			"anonymous": false,
			"inputs": [
				{
					"indexed": true,
					"internalType": "address[]",
					"name": "users",
					"type": "address[]"
				},
				{
					"indexed": false,
					"internalType": "uint256[]",
					"name": "rewards",
					"type": "uint256[]"
				}
			],
			"name": "BatchBL2PRewardClaimed",
			"type": "event"
		},
		{
			"inputs": [
				{
					"internalType": "address[]",
					"name": "users",
					"type": "address[]"
				}
			],
			"name": "batchClaimBL2PReward",
			"outputs": [],
			"stateMutability": "nonpayable",
			"type": "function"
		},
		{
			"inputs": [
				{
					"internalType": "address",
					"name": "user",
					"type": "address"
				}
			],
			"name": "burnInactiveBL2P",
			"outputs": [],
			"stateMutability": "nonpayable",
			"type": "function"
		},
		{
			"anonymous": false,
			"inputs": [
				{
					"indexed": true,
					"internalType": "uint256",
					"name": "timestamp",
					"type": "uint256"
				}
			],
			"name": "BurnPhaseActivated",
			"type": "event"
		},
		{
			"inputs": [],
			"name": "checkActivation",
			"outputs": [],
			"stateMutability": "nonpayable",
			"type": "function"
		},
		{
			"inputs": [],
			"name": "claimBL2PReward",
			"outputs": [],
			"stateMutability": "nonpayable",
			"type": "function"
		},
		{
			"inputs": [],
			"name": "claimIgnitionAirdrop",
			"outputs": [],
			"stateMutability": "nonpayable",
			"type": "function"
		},
		{
			"inputs": [
				{
					"internalType": "uint256",
					"name": "id",
					"type": "uint256"
				},
				{
					"internalType": "bytes32",
					"name": "commitHash",
					"type": "bytes32"
				}
			],
			"name": "commitVote",
			"outputs": [],
			"stateMutability": "nonpayable",
			"type": "function"
		},
		{
			"inputs": [
				{
					"internalType": "address",
					"name": "delegate",
					"type": "address"
				},
				{
					"internalType": "uint256",
					"name": "amount",
					"type": "uint256"
				}
			],
			"name": "delegateVote",
			"outputs": [],
			"stateMutability": "nonpayable",
			"type": "function"
		},
		{
			"anonymous": false,
			"inputs": [
				{
					"indexed": true,
					"internalType": "address",
					"name": "delegator",
					"type": "address"
				}
			],
			"name": "DelegationRevoked",
			"type": "event"
		},
		{
			"inputs": [
				{
					"internalType": "uint256",
					"name": "id",
					"type": "uint256"
				}
			],
			"name": "executeProposal",
			"outputs": [],
			"stateMutability": "nonpayable",
			"type": "function"
		},
		{
			"anonymous": false,
			"inputs": [
				{
					"indexed": true,
					"internalType": "address",
					"name": "newContract",
					"type": "address"
				}
			],
			"name": "GovernanceContractUpdated",
			"type": "event"
		},
		{
			"anonymous": false,
			"inputs": [
				{
					"indexed": true,
					"internalType": "address",
					"name": "participant",
					"type": "address"
				},
				{
					"indexed": false,
					"internalType": "uint256",
					"name": "amount",
					"type": "uint256"
				}
			],
			"name": "IgnitionAirdropClaimed",
			"type": "event"
		},
		{
			"anonymous": false,
			"inputs": [
				{
					"indexed": true,
					"internalType": "uint256",
					"name": "timestamp",
					"type": "uint256"
				},
				{
					"indexed": false,
					"internalType": "uint256",
					"name": "totalParticipants",
					"type": "uint256"
				}
			],
			"name": "IgnitionAirdropTriggered",
			"type": "event"
		},
		{
			"anonymous": false,
			"inputs": [
				{
					"indexed": true,
					"internalType": "address",
					"name": "participant",
					"type": "address"
				},
				{
					"indexed": false,
					"internalType": "uint256",
					"name": "participantNumber",
					"type": "uint256"
				}
			],
			"name": "IgnitionParticipantRegistered",
			"type": "event"
		},
		{
			"anonymous": false,
			"inputs": [
				{
					"indexed": true,
					"internalType": "bool",
					"name": "isOpen",
					"type": "bool"
				}
			],
			"name": "IgnitionRegistrationStatusChanged",
			"type": "event"
		},
		{
			"anonymous": false,
			"inputs": [
				{
					"indexed": true,
					"internalType": "address",
					"name": "user",
					"type": "address"
				},
				{
					"indexed": false,
					"internalType": "uint256",
					"name": "amount",
					"type": "uint256"
				}
			],
			"name": "InactiveBL2PBurned",
			"type": "event"
		},
		{
			"anonymous": false,
			"inputs": [
				{
					"indexed": false,
					"internalType": "uint256",
					"name": "newValue",
					"type": "uint256"
				}
			],
			"name": "LockedReserveUpdated",
			"type": "event"
		},
		{
			"anonymous": false,
			"inputs": [
				{
					"indexed": true,
					"internalType": "address",
					"name": "previousOwner",
					"type": "address"
				},
				{
					"indexed": true,
					"internalType": "address",
					"name": "newOwner",
					"type": "address"
				}
			],
			"name": "OwnershipTransferred",
			"type": "event"
		},
		{
			"anonymous": false,
			"inputs": [
				{
					"indexed": true,
					"internalType": "enum TAAMS.ProposalType",
					"name": "proposalType",
					"type": "uint8"
				},
				{
					"indexed": false,
					"internalType": "uint256",
					"name": "newValue",
					"type": "uint256"
				},
				{
					"indexed": false,
					"internalType": "address",
					"name": "newAddress",
					"type": "address"
				}
			],
			"name": "ParameterUpdated",
			"type": "event"
		},
		{
			"inputs": [
				{
					"internalType": "uint256",
					"name": "amount",
					"type": "uint256"
				}
			],
			"name": "participateInBurn",
			"outputs": [],
			"stateMutability": "nonpayable",
			"type": "function"
		},
		{
			"anonymous": false,
			"inputs": [
				{
					"indexed": true,
					"internalType": "uint256",
					"name": "id",
					"type": "uint256"
				},
				{
					"indexed": false,
					"internalType": "string",
					"name": "reason",
					"type": "string"
				}
			],
			"name": "ProposalFailed",
			"type": "event"
		},
		{
			"anonymous": false,
			"inputs": [
				{
					"indexed": true,
					"internalType": "uint256",
					"name": "id",
					"type": "uint256"
				},
				{
					"indexed": true,
					"internalType": "address",
					"name": "proposer",
					"type": "address"
				},
				{
					"indexed": false,
					"internalType": "string",
					"name": "description",
					"type": "string"
				},
				{
					"indexed": false,
					"internalType": "enum TAAMS.ProposalType",
					"name": "proposalType",
					"type": "uint8"
				}
			],
			"name": "ProposalSubmitted",
			"type": "event"
		},
		{
			"anonymous": false,
			"inputs": [
				{
					"indexed": false,
					"internalType": "uint256",
					"name": "id",
					"type": "uint256"
				}
			],
			"name": "ProposalWasExecuted",
			"type": "event"
		},
		{
			"anonymous": false,
			"inputs": [
				{
					"indexed": false,
					"internalType": "uint256",
					"name": "newQuorum",
					"type": "uint256"
				}
			],
			"name": "QuorumUpdated",
			"type": "event"
		},
		{
			"anonymous": false,
			"inputs": [
				{
					"indexed": true,
					"internalType": "address",
					"name": "referrer",
					"type": "address"
				},
				{
					"indexed": false,
					"internalType": "uint256",
					"name": "bonus",
					"type": "uint256"
				}
			],
			"name": "ReferralBonusPaid",
			"type": "event"
		},
		{
			"inputs": [],
			"name": "registerForIgnitionAirdrop",
			"outputs": [],
			"stateMutability": "nonpayable",
			"type": "function"
		},
		{
			"inputs": [],
			"name": "renounceOwnership",
			"outputs": [],
			"stateMutability": "nonpayable",
			"type": "function"
		},
		{
			"anonymous": false,
			"inputs": [
				{
					"indexed": false,
					"internalType": "uint256",
					"name": "amount",
					"type": "uint256"
				},
				{
					"indexed": false,
					"internalType": "uint256",
					"name": "remainingBalance",
					"type": "uint256"
				}
			],
			"name": "ReserveUnlocked",
			"type": "event"
		},
		{
			"inputs": [
				{
					"internalType": "uint256",
					"name": "id",
					"type": "uint256"
				},
				{
					"internalType": "bool",
					"name": "support",
					"type": "bool"
				},
				{
					"internalType": "bytes32",
					"name": "secret",
					"type": "bytes32"
				}
			],
			"name": "revealVote",
			"outputs": [],
			"stateMutability": "nonpayable",
			"type": "function"
		},
		{
			"inputs": [],
			"name": "revokeDelegation",
			"outputs": [],
			"stateMutability": "nonpayable",
			"type": "function"
		},
		{
			"inputs": [
				{
					"internalType": "address",
					"name": "newContract",
					"type": "address"
				}
			],
			"name": "setGovernanceContract",
			"outputs": [],
			"stateMutability": "nonpayable",
			"type": "function"
		},
		{
			"inputs": [
				{
					"internalType": "bool",
					"name": "isOpen",
					"type": "bool"
				}
			],
			"name": "setIgnitionRegistrationStatus",
			"outputs": [],
			"stateMutability": "nonpayable",
			"type": "function"
		},
		{
			"inputs": [
				{
					"internalType": "uint256",
					"name": "amount",
					"type": "uint256"
				}
			],
			"name": "stake",
			"outputs": [],
			"stateMutability": "nonpayable",
			"type": "function"
		},
		{
			"anonymous": false,
			"inputs": [
				{
					"indexed": true,
					"internalType": "address",
					"name": "user",
					"type": "address"
				},
				{
					"indexed": false,
					"internalType": "uint256",
					"name": "amount",
					"type": "uint256"
				},
				{
					"indexed": false,
					"internalType": "uint256",
					"name": "timestamp",
					"type": "uint256"
				}
			],
			"name": "Staked",
			"type": "event"
		},
		{
			"anonymous": false,
			"inputs": [
				{
					"indexed": true,
					"internalType": "address",
					"name": "user",
					"type": "address"
				},
				{
					"indexed": false,
					"internalType": "uint256",
					"name": "reward",
					"type": "uint256"
				}
			],
			"name": "StakingRewardClaimed",
			"type": "event"
		},
		{
			"inputs": [
				{
					"internalType": "string",
					"name": "desc",
					"type": "string"
				},
				{
					"internalType": "uint256",
					"name": "newValue",
					"type": "uint256"
				},
				{
					"internalType": "address",
					"name": "newAddress",
					"type": "address"
				},
				{
					"internalType": "enum TAAMS.ProposalType",
					"name": "proposalType",
					"type": "uint8"
				}
			],
			"name": "submitProposal",
			"outputs": [],
			"stateMutability": "nonpayable",
			"type": "function"
		},
		{
			"anonymous": false,
			"inputs": [
				{
					"indexed": true,
					"internalType": "address",
					"name": "burner",
					"type": "address"
				},
				{
					"indexed": false,
					"internalType": "uint256",
					"name": "amount",
					"type": "uint256"
				},
				{
					"indexed": false,
					"internalType": "uint256",
					"name": "totalBurned",
					"type": "uint256"
				},
				{
					"indexed": false,
					"internalType": "uint256",
					"name": "cycle",
					"type": "uint256"
				}
			],
			"name": "TokensBurned",
			"type": "event"
		},
		{
			"inputs": [
				{
					"internalType": "address",
					"name": "recipient",
					"type": "address"
				},
				{
					"internalType": "uint256",
					"name": "amount",
					"type": "uint256"
				}
			],
			"name": "transfer",
			"outputs": [
				{
					"internalType": "bool",
					"name": "",
					"type": "bool"
				}
			],
			"stateMutability": "nonpayable",
			"type": "function"
		},
		{
			"anonymous": false,
			"inputs": [
				{
					"indexed": true,
					"internalType": "address",
					"name": "from",
					"type": "address"
				},
				{
					"indexed": true,
					"internalType": "address",
					"name": "to",
					"type": "address"
				},
				{
					"indexed": false,
					"internalType": "uint256",
					"name": "value",
					"type": "uint256"
				}
			],
			"name": "Transfer",
			"type": "event"
		},
		{
			"inputs": [
				{
					"internalType": "address",
					"name": "to",
					"type": "address"
				},
				{
					"internalType": "uint256",
					"name": "amount",
					"type": "uint256"
				}
			],
			"name": "transferBL2P",
			"outputs": [],
			"stateMutability": "nonpayable",
			"type": "function"
		},
		{
			"inputs": [
				{
					"internalType": "address",
					"name": "sender",
					"type": "address"
				},
				{
					"internalType": "address",
					"name": "recipient",
					"type": "address"
				},
				{
					"internalType": "uint256",
					"name": "amount",
					"type": "uint256"
				}
			],
			"name": "transferFrom",
			"outputs": [
				{
					"internalType": "bool",
					"name": "",
					"type": "bool"
				}
			],
			"stateMutability": "nonpayable",
			"type": "function"
		},
		{
			"inputs": [
				{
					"internalType": "address",
					"name": "newOwner",
					"type": "address"
				}
			],
			"name": "transferOwnership",
			"outputs": [],
			"stateMutability": "nonpayable",
			"type": "function"
		},
		{
			"inputs": [],
			"name": "triggerIgnitionAirdrop",
			"outputs": [],
			"stateMutability": "nonpayable",
			"type": "function"
		},
		{
			"inputs": [],
			"name": "unstake",
			"outputs": [],
			"stateMutability": "nonpayable",
			"type": "function"
		},
		{
			"anonymous": false,
			"inputs": [
				{
					"indexed": true,
					"internalType": "address",
					"name": "user",
					"type": "address"
				},
				{
					"indexed": false,
					"internalType": "uint256",
					"name": "amount",
					"type": "uint256"
				},
				{
					"indexed": false,
					"internalType": "uint256",
					"name": "timestamp",
					"type": "uint256"
				}
			],
			"name": "Unstaked",
			"type": "event"
		},
		{
			"inputs": [
				{
					"internalType": "address",
					"name": "user",
					"type": "address"
				}
			],
			"name": "updateBL2PMaturity",
			"outputs": [],
			"stateMutability": "nonpayable",
			"type": "function"
		},
		{
			"inputs": [
				{
					"internalType": "uint256",
					"name": "bl2pAmount",
					"type": "uint256"
				}
			],
			"name": "useBL2PForStaking",
			"outputs": [],
			"stateMutability": "nonpayable",
			"type": "function"
		},
		{
			"anonymous": false,
			"inputs": [
				{
					"indexed": true,
					"internalType": "uint256",
					"name": "id",
					"type": "uint256"
				},
				{
					"indexed": true,
					"internalType": "address",
					"name": "voter",
					"type": "address"
				},
				{
					"indexed": false,
					"internalType": "bytes32",
					"name": "commitHash",
					"type": "bytes32"
				}
			],
			"name": "VoteCommitted",
			"type": "event"
		},
		{
			"anonymous": false,
			"inputs": [
				{
					"indexed": true,
					"internalType": "address",
					"name": "delegator",
					"type": "address"
				},
				{
					"indexed": true,
					"internalType": "address",
					"name": "delegate",
					"type": "address"
				},
				{
					"indexed": false,
					"internalType": "uint256",
					"name": "amount",
					"type": "uint256"
				}
			],
			"name": "VoteDelegated",
			"type": "event"
		},
		{
			"anonymous": false,
			"inputs": [
				{
					"indexed": true,
					"internalType": "uint256",
					"name": "id",
					"type": "uint256"
				},
				{
					"indexed": true,
					"internalType": "address",
					"name": "voter",
					"type": "address"
				},
				{
					"indexed": false,
					"internalType": "bool",
					"name": "support",
					"type": "bool"
				},
				{
					"indexed": false,
					"internalType": "uint256",
					"name": "weight",
					"type": "uint256"
				}
			],
			"name": "VoteRevealed",
			"type": "event"
		},
		{
			"anonymous": false,
			"inputs": [
				{
					"indexed": false,
					"internalType": "uint256",
					"name": "newThreshold",
					"type": "uint256"
				}
			],
			"name": "VoteThresholdUpdated",
			"type": "event"
		},
		{
			"inputs": [],
			"name": "ACTIVATION_THRESHOLD",
			"outputs": [
				{
					"internalType": "uint256",
					"name": "",
					"type": "uint256"
				}
			],
			"stateMutability": "view",
			"type": "function"
		},
		{
			"inputs": [
				{
					"internalType": "address",
					"name": "",
					"type": "address"
				}
			],
			"name": "activeDelegations",
			"outputs": [
				{
					"internalType": "address",
					"name": "source",
					"type": "address"
				},
				{
					"internalType": "address",
					"name": "delegate",
					"type": "address"
				},
				{
					"internalType": "uint256",
					"name": "bl2pAmount",
					"type": "uint256"
				},
				{
					"internalType": "uint256",
					"name": "delegationBlock",
					"type": "uint256"
				}
			],
			"stateMutability": "view",
			"type": "function"
		},
		{
			"inputs": [],
			"name": "advertisementCount",
			"outputs": [
				{
					"internalType": "uint256",
					"name": "",
					"type": "uint256"
				}
			],
			"stateMutability": "view",
			"type": "function"
		},
		{
			"inputs": [
				{
					"internalType": "uint256",
					"name": "",
					"type": "uint256"
				}
			],
			"name": "advertisements",
			"outputs": [
				{
					"internalType": "uint256",
					"name": "id",
					"type": "uint256"
				},
				{
					"internalType": "uint256",
					"name": "postedBlock",
					"type": "uint256"
				},
				{
					"internalType": "string",
					"name": "message",
					"type": "string"
				}
			],
			"stateMutability": "view",
			"type": "function"
		},
		{
			"inputs": [
				{
					"internalType": "address",
					"name": "owner",
					"type": "address"
				},
				{
					"internalType": "address",
					"name": "spender",
					"type": "address"
				}
			],
			"name": "allowance",
			"outputs": [
				{
					"internalType": "uint256",
					"name": "",
					"type": "uint256"
				}
			],
			"stateMutability": "view",
			"type": "function"
		},
		{
			"inputs": [],
			"name": "ANNUAL_BURN_AMOUNT",
			"outputs": [
				{
					"internalType": "uint256",
					"name": "",
					"type": "uint256"
				}
			],
			"stateMutability": "view",
			"type": "function"
		},
		{
			"inputs": [
				{
					"internalType": "address",
					"name": "account",
					"type": "address"
				}
			],
			"name": "balanceOf",
			"outputs": [
				{
					"internalType": "uint256",
					"name": "",
					"type": "uint256"
				}
			],
			"stateMutability": "view",
			"type": "function"
		},
		{
			"inputs": [
				{
					"internalType": "address",
					"name": "",
					"type": "address"
				}
			],
			"name": "bl2pClaimed",
			"outputs": [
				{
					"internalType": "uint256",
					"name": "",
					"type": "uint256"
				}
			],
			"stateMutability": "view",
			"type": "function"
		},
		{
			"inputs": [],
			"name": "bl2pLifespanBlocks",
			"outputs": [
				{
					"internalType": "uint256",
					"name": "",
					"type": "uint256"
				}
			],
			"stateMutability": "view",
			"type": "function"
		},
		{
			"inputs": [
				{
					"internalType": "address",
					"name": "",
					"type": "address"
				}
			],
			"name": "bl2pMeta",
			"outputs": [
				{
					"internalType": "uint256",
					"name": "birthAndExpiry",
					"type": "uint256"
				},
				{
					"internalType": "bool",
					"name": "matured",
					"type": "bool"
				}
			],
			"stateMutability": "view",
			"type": "function"
		},
		{
			"inputs": [],
			"name": "bl2pRevealed",
			"outputs": [
				{
					"internalType": "bool",
					"name": "",
					"type": "bool"
				}
			],
			"stateMutability": "view",
			"type": "function"
		},
		{
			"inputs": [],
			"name": "BURN_TARGET",
			"outputs": [
				{
					"internalType": "uint256",
					"name": "",
					"type": "uint256"
				}
			],
			"stateMutability": "view",
			"type": "function"
		},
		{
			"inputs": [
				{
					"internalType": "uint256",
					"name": "",
					"type": "uint256"
				},
				{
					"internalType": "address",
					"name": "",
					"type": "address"
				}
			],
			"name": "burnContributions",
			"outputs": [
				{
					"internalType": "uint256",
					"name": "",
					"type": "uint256"
				}
			],
			"stateMutability": "view",
			"type": "function"
		},
		{
			"inputs": [],
			"name": "burnDeadlineTimestamp",
			"outputs": [
				{
					"internalType": "uint256",
					"name": "",
					"type": "uint256"
				}
			],
			"stateMutability": "view",
			"type": "function"
		},
		{
			"inputs": [],
			"name": "burnPhaseActive",
			"outputs": [
				{
					"internalType": "bool",
					"name": "",
					"type": "bool"
				}
			],
			"stateMutability": "view",
			"type": "function"
		},
		{
			"inputs": [],
			"name": "currentBurnCycle",
			"outputs": [
				{
					"internalType": "uint256",
					"name": "",
					"type": "uint256"
				}
			],
			"stateMutability": "view",
			"type": "function"
		},
		{
			"inputs": [
				{
					"internalType": "uint256",
					"name": "",
					"type": "uint256"
				}
			],
			"name": "cycleBurnedTotal",
			"outputs": [
				{
					"internalType": "uint256",
					"name": "",
					"type": "uint256"
				}
			],
			"stateMutability": "view",
			"type": "function"
		},
		{
			"inputs": [],
			"name": "decimals",
			"outputs": [
				{
					"internalType": "uint8",
					"name": "",
					"type": "uint8"
				}
			],
			"stateMutability": "view",
			"type": "function"
		},
		{
			"inputs": [
				{
					"internalType": "address",
					"name": "",
					"type": "address"
				}
			],
			"name": "delegatedBL2PReceived",
			"outputs": [
				{
					"internalType": "uint256",
					"name": "",
					"type": "uint256"
				}
			],
			"stateMutability": "view",
			"type": "function"
		},
		{
			"inputs": [],
			"name": "earlyAdopterCount",
			"outputs": [
				{
					"internalType": "uint256",
					"name": "",
					"type": "uint256"
				}
			],
			"stateMutability": "view",
			"type": "function"
		},
		{
			"inputs": [],
			"name": "emergencyPaused",
			"outputs": [
				{
					"internalType": "bool",
					"name": "",
					"type": "bool"
				}
			],
			"stateMutability": "view",
			"type": "function"
		},
		{
			"inputs": [
				{
					"internalType": "address",
					"name": "user",
					"type": "address"
				}
			],
			"name": "getBL2PLifetime",
			"outputs": [
				{
					"internalType": "uint256",
					"name": "birthBlock",
					"type": "uint256"
				},
				{
					"internalType": "uint256",
					"name": "expiryBlock",
					"type": "uint256"
				}
			],
			"stateMutability": "view",
			"type": "function"
		},
		{
			"inputs": [],
			"name": "getIgnitionInfo",
			"outputs": [
				{
					"internalType": "bool",
					"name": "triggered",
					"type": "bool"
				},
				{
					"internalType": "bool",
					"name": "regOpen",
					"type": "bool"
				},
				{
					"internalType": "uint256",
					"name": "participants",
					"type": "uint256"
				},
				{
					"internalType": "uint256",
					"name": "maxParticipants",
					"type": "uint256"
				},
				{
					"internalType": "bool",
					"name": "userRegistered",
					"type": "bool"
				},
				{
					"internalType": "uint256",
					"name": "userAmount",
					"type": "uint256"
				},
				{
					"internalType": "bool",
					"name": "userClaimed",
					"type": "bool"
				}
			],
			"stateMutability": "view",
			"type": "function"
		},
		{
			"inputs": [],
			"name": "getIgnitionParticipants",
			"outputs": [
				{
					"internalType": "address[]",
					"name": "",
					"type": "address[]"
				}
			],
			"stateMutability": "view",
			"type": "function"
		},
		{
			"inputs": [],
			"name": "getLastProposer",
			"outputs": [
				{
					"internalType": "address",
					"name": "",
					"type": "address"
				}
			],
			"stateMutability": "view",
			"type": "function"
		},
		{
			"inputs": [],
			"name": "getRemainingBurnable",
			"outputs": [
				{
					"internalType": "uint256",
					"name": "",
					"type": "uint256"
				}
			],
			"stateMutability": "view",
			"type": "function"
		},
		{
			"inputs": [
				{
					"internalType": "address",
					"name": "user",
					"type": "address"
				}
			],
			"name": "getRemainingValidBL2P",
			"outputs": [
				{
					"internalType": "uint256",
					"name": "",
					"type": "uint256"
				}
			],
			"stateMutability": "view",
			"type": "function"
		},
		{
			"inputs": [],
			"name": "getTopDelegates",
			"outputs": [
				{
					"internalType": "address[]",
					"name": "",
					"type": "address[]"
				}
			],
			"stateMutability": "view",
			"type": "function"
		},
		{
			"inputs": [],
			"name": "governanceContract",
			"outputs": [
				{
					"internalType": "address",
					"name": "",
					"type": "address"
				}
			],
			"stateMutability": "view",
			"type": "function"
		},
		{
			"inputs": [],
			"name": "IGNITION_AIRDROP_POOL",
			"outputs": [
				{
					"internalType": "uint256",
					"name": "",
					"type": "uint256"
				}
			],
			"stateMutability": "view",
			"type": "function"
		},
		{
			"inputs": [],
			"name": "ignitionAirdropTriggered",
			"outputs": [
				{
					"internalType": "bool",
					"name": "",
					"type": "bool"
				}
			],
			"stateMutability": "view",
			"type": "function"
		},
		{
			"inputs": [
				{
					"internalType": "address",
					"name": "",
					"type": "address"
				}
			],
			"name": "ignitionClaimableAmount",
			"outputs": [
				{
					"internalType": "uint256",
					"name": "",
					"type": "uint256"
				}
			],
			"stateMutability": "view",
			"type": "function"
		},
		{
			"inputs": [
				{
					"internalType": "address",
					"name": "",
					"type": "address"
				}
			],
			"name": "ignitionClaimed",
			"outputs": [
				{
					"internalType": "bool",
					"name": "",
					"type": "bool"
				}
			],
			"stateMutability": "view",
			"type": "function"
		},
		{
			"inputs": [
				{
					"internalType": "uint256",
					"name": "",
					"type": "uint256"
				}
			],
			"name": "ignitionParticipants",
			"outputs": [
				{
					"internalType": "address",
					"name": "",
					"type": "address"
				}
			],
			"stateMutability": "view",
			"type": "function"
		},
		{
			"inputs": [],
			"name": "ignitionRegistrationOpen",
			"outputs": [
				{
					"internalType": "bool",
					"name": "",
					"type": "bool"
				}
			],
			"stateMutability": "view",
			"type": "function"
		},
		{
			"inputs": [
				{
					"internalType": "address",
					"name": "",
					"type": "address"
				}
			],
			"name": "ignitionWhitelist",
			"outputs": [
				{
					"internalType": "bool",
					"name": "",
					"type": "bool"
				}
			],
			"stateMutability": "view",
			"type": "function"
		},
		{
			"inputs": [],
			"name": "inactivityBurnRate",
			"outputs": [
				{
					"internalType": "uint256",
					"name": "",
					"type": "uint256"
				}
			],
			"stateMutability": "view",
			"type": "function"
		},
		{
			"inputs": [],
			"name": "lastAdvertisementTimestamp",
			"outputs": [
				{
					"internalType": "uint256",
					"name": "",
					"type": "uint256"
				}
			],
			"stateMutability": "view",
			"type": "function"
		},
		{
			"inputs": [],
			"name": "lastBurnCycleStartTimestamp",
			"outputs": [
				{
					"internalType": "uint256",
					"name": "",
					"type": "uint256"
				}
			],
			"stateMutability": "view",
			"type": "function"
		},
		{
			"inputs": [
				{
					"internalType": "address",
					"name": "",
					"type": "address"
				}
			],
			"name": "lastProposalTimestamp",
			"outputs": [
				{
					"internalType": "uint256",
					"name": "",
					"type": "uint256"
				}
			],
			"stateMutability": "view",
			"type": "function"
		},
		{
			"inputs": [],
			"name": "lastUnlockTimestamp",
			"outputs": [
				{
					"internalType": "uint256",
					"name": "",
					"type": "uint256"
				}
			],
			"stateMutability": "view",
			"type": "function"
		},
		{
			"inputs": [
				{
					"internalType": "address",
					"name": "",
					"type": "address"
				}
			],
			"name": "lastVoteTimestamp",
			"outputs": [
				{
					"internalType": "uint256",
					"name": "",
					"type": "uint256"
				}
			],
			"stateMutability": "view",
			"type": "function"
		},
		{
			"inputs": [],
			"name": "LOCKED_RESERVE",
			"outputs": [
				{
					"internalType": "uint256",
					"name": "",
					"type": "uint256"
				}
			],
			"stateMutability": "view",
			"type": "function"
		},
		{
			"inputs": [],
			"name": "lockedReserveBalance",
			"outputs": [
				{
					"internalType": "uint256",
					"name": "",
					"type": "uint256"
				}
			],
			"stateMutability": "view",
			"type": "function"
		},
		{
			"inputs": [],
			"name": "maturationPeriodBlocks",
			"outputs": [
				{
					"internalType": "uint256",
					"name": "",
					"type": "uint256"
				}
			],
			"stateMutability": "view",
			"type": "function"
		},
		{
			"inputs": [],
			"name": "MAX_SUPPLY",
			"outputs": [
				{
					"internalType": "uint256",
					"name": "",
					"type": "uint256"
				}
			],
			"stateMutability": "view",
			"type": "function"
		},
		{
			"inputs": [],
			"name": "maxDelegatedBL2PPercent",
			"outputs": [
				{
					"internalType": "uint256",
					"name": "",
					"type": "uint256"
				}
			],
			"stateMutability": "view",
			"type": "function"
		},
		{
			"inputs": [],
			"name": "name",
			"outputs": [
				{
					"internalType": "string",
					"name": "",
					"type": "string"
				}
			],
			"stateMutability": "view",
			"type": "function"
		},
		{
			"inputs": [],
			"name": "owner",
			"outputs": [
				{
					"internalType": "address",
					"name": "",
					"type": "address"
				}
			],
			"stateMutability": "view",
			"type": "function"
		},
		{
			"inputs": [],
			"name": "PROPOSAL_COOLDOWN",
			"outputs": [
				{
					"internalType": "uint256",
					"name": "",
					"type": "uint256"
				}
			],
			"stateMutability": "view",
			"type": "function"
		},
		{
			"inputs": [],
			"name": "proposalCount",
			"outputs": [
				{
					"internalType": "uint256",
					"name": "",
					"type": "uint256"
				}
			],
			"stateMutability": "view",
			"type": "function"
		},
		{
			"inputs": [
				{
					"internalType": "uint256",
					"name": "",
					"type": "uint256"
				}
			],
			"name": "proposals",
			"outputs": [
				{
					"internalType": "uint256",
					"name": "id",
					"type": "uint256"
				},
				{
					"internalType": "uint256",
					"name": "startBlock",
					"type": "uint256"
				},
				{
					"internalType": "uint256",
					"name": "endBlock",
					"type": "uint256"
				},
				{
					"internalType": "uint256",
					"name": "newValue",
					"type": "uint256"
				},
				{
					"internalType": "uint256",
					"name": "forVotes",
					"type": "uint256"
				},
				{
					"internalType": "uint256",
					"name": "againstVotes",
					"type": "uint256"
				},
				{
					"internalType": "address",
					"name": "proposer",
					"type": "address"
				},
				{
					"internalType": "address",
					"name": "newAddress",
					"type": "address"
				},
				{
					"internalType": "string",
					"name": "description",
					"type": "string"
				},
				{
					"internalType": "enum TAAMS.ProposalType",
					"name": "proposalType",
					"type": "uint8"
				},
				{
					"internalType": "bool",
					"name": "executed",
					"type": "bool"
				}
			],
			"stateMutability": "view",
			"type": "function"
		},
		{
			"inputs": [],
			"name": "QUORUM",
			"outputs": [
				{
					"internalType": "uint256",
					"name": "",
					"type": "uint256"
				}
			],
			"stateMutability": "view",
			"type": "function"
		},
		{
			"inputs": [
				{
					"internalType": "address",
					"name": "",
					"type": "address"
				}
			],
			"name": "referrals",
			"outputs": [
				{
					"internalType": "address",
					"name": "",
					"type": "address"
				}
			],
			"stateMutability": "view",
			"type": "function"
		},
		{
			"inputs": [
				{
					"internalType": "address",
					"name": "",
					"type": "address"
				}
			],
			"name": "stakes",
			"outputs": [
				{
					"internalType": "uint256",
					"name": "amount",
					"type": "uint256"
				},
				{
					"internalType": "uint256",
					"name": "startBlock",
					"type": "uint256"
				},
				{
					"internalType": "uint256",
					"name": "bl2pBoost",
					"type": "uint256"
				},
				{
					"internalType": "bool",
					"name": "active",
					"type": "bool"
				}
			],
			"stateMutability": "view",
			"type": "function"
		},
		{
			"inputs": [],
			"name": "STAKING_REWARD_RATE",
			"outputs": [
				{
					"internalType": "uint256",
					"name": "",
					"type": "uint256"
				}
			],
			"stateMutability": "view",
			"type": "function"
		},
		{
			"inputs": [],
			"name": "symbol",
			"outputs": [
				{
					"internalType": "string",
					"name": "",
					"type": "string"
				}
			],
			"stateMutability": "view",
			"type": "function"
		},
		{
			"inputs": [
				{
					"internalType": "uint256",
					"name": "",
					"type": "uint256"
				}
			],
			"name": "topDelegates",
			"outputs": [
				{
					"internalType": "address",
					"name": "",
					"type": "address"
				}
			],
			"stateMutability": "view",
			"type": "function"
		},
		{
			"inputs": [],
			"name": "totalBurned",
			"outputs": [
				{
					"internalType": "uint256",
					"name": "",
					"type": "uint256"
				}
			],
			"stateMutability": "view",
			"type": "function"
		},
		{
			"inputs": [
				{
					"internalType": "address",
					"name": "",
					"type": "address"
				}
			],
			"name": "totalContributions",
			"outputs": [
				{
					"internalType": "uint256",
					"name": "",
					"type": "uint256"
				}
			],
			"stateMutability": "view",
			"type": "function"
		},
		{
			"inputs": [],
			"name": "totalStaked",
			"outputs": [
				{
					"internalType": "uint256",
					"name": "",
					"type": "uint256"
				}
			],
			"stateMutability": "view",
			"type": "function"
		},
		{
			"inputs": [],
			"name": "totalSupply",
			"outputs": [
				{
					"internalType": "uint256",
					"name": "",
					"type": "uint256"
				}
			],
			"stateMutability": "view",
			"type": "function"
		},
		{
			"inputs": [],
			"name": "trustedRecipient",
			"outputs": [
				{
					"internalType": "address",
					"name": "",
					"type": "address"
				}
			],
			"stateMutability": "view",
			"type": "function"
		},
		{
			"inputs": [
				{
					"internalType": "address[]",
					"name": "users",
					"type": "address[]"
				}
			],
			"name": "verifyBL2PIntegrity",
			"outputs": [
				{
					"internalType": "bool",
					"name": "isValid",
					"type": "bool"
				},
				{
					"internalType": "uint256",
					"name": "totalBL2P",
					"type": "uint256"
				}
			],
			"stateMutability": "view",
			"type": "function"
		},
		{
			"inputs": [],
			"name": "VOTE_THRESHOLD",
			"outputs": [
				{
					"internalType": "uint256",
					"name": "",
					"type": "uint256"
				}
			],
			"stateMutability": "view",
			"type": "function"
		}
	],
	"storageLayout": {
		"storage": [
			{
				"astId": 397,
				"contract": "contracts/TAAMS.sol:TAAMS",
				"label": "_balances",
				"offset": 0,
				"slot": "0",
				"type": "t_mapping(t_address,t_uint256)"
			},
			{
				"astId": 403,
				"contract": "contracts/TAAMS.sol:TAAMS",
				"label": "_allowances",
				"offset": 0,
				"slot": "1",
				"type": "t_mapping(t_address,t_mapping(t_address,t_uint256))"
			},
			{
				"astId": 405,
				"contract": "contracts/TAAMS.sol:TAAMS",
				"label": "_totalSupply",
				"offset": 0,
				"slot": "2",
				"type": "t_uint256"
			},
			{
				"astId": 407,
				"contract": "contracts/TAAMS.sol:TAAMS",
				"label": "_name",
				"offset": 0,
				"slot": "3",
				"type": "t_string_storage"
			},
			{
				"astId": 409,
				"contract": "contracts/TAAMS.sol:TAAMS",
				"label": "_symbol",
				"offset": 0,
				"slot": "4",
				"type": "t_string_storage"
			},
			{
				"astId": 1498,
				"contract": "contracts/TAAMS.sol:TAAMS",
				"label": "_status",
				"offset": 0,
				"slot": "5",
				"type": "t_uint256"
			},
			{
				"astId": 8,
				"contract": "contracts/TAAMS.sol:TAAMS",
				"label": "_owner",
				"offset": 0,
				"slot": "6",
				"type": "t_address"
			},
			{
				"astId": 1700,
				"contract": "contracts/TAAMS.sol:TAAMS",
				"label": "trustedRecipient",
				"offset": 0,
				"slot": "7",
				"type": "t_address"
			},
			{
				"astId": 1704,
				"contract": "contracts/TAAMS.sol:TAAMS",
				"label": "lastProposalTimestamp",
				"offset": 0,
				"slot": "8",
				"type": "t_mapping(t_address,t_uint256)"
			},
			{
				"astId": 1866,
				"contract": "contracts/TAAMS.sol:TAAMS",
				"label": "burnPhaseActive",
				"offset": 0,
				"slot": "9",
				"type": "t_bool"
			},
			{
				"astId": 1868,
				"contract": "contracts/TAAMS.sol:TAAMS",
				"label": "bl2pRevealed",
				"offset": 1,
				"slot": "9",
				"type": "t_bool"
			},
			{
				"astId": 1870,
				"contract": "contracts/TAAMS.sol:TAAMS",
				"label": "emergencyPaused",
				"offset": 2,
				"slot": "9",
				"type": "t_bool"
			},
			{
				"astId": 1872,
				"contract": "contracts/TAAMS.sol:TAAMS",
				"label": "lockedReserveBalance",
				"offset": 0,
				"slot": "10",
				"type": "t_uint256"
			},
			{
				"astId": 1874,
				"contract": "contracts/TAAMS.sol:TAAMS",
				"label": "totalBurned",
				"offset": 0,
				"slot": "11",
				"type": "t_uint256"
			},
			{
				"astId": 1876,
				"contract": "contracts/TAAMS.sol:TAAMS",
				"label": "burnDeadlineTimestamp",
				"offset": 0,
				"slot": "12",
				"type": "t_uint256"
			},
			{
				"astId": 1878,
				"contract": "contracts/TAAMS.sol:TAAMS",
				"label": "currentBurnCycle",
				"offset": 0,
				"slot": "13",
				"type": "t_uint256"
			},
			{
				"astId": 1880,
				"contract": "contracts/TAAMS.sol:TAAMS",
				"label": "lastBurnCycleStartTimestamp",
				"offset": 0,
				"slot": "14",
				"type": "t_uint256"
			},
			{
				"astId": 1885,
				"contract": "contracts/TAAMS.sol:TAAMS",
				"label": "ANNUAL_BURN_AMOUNT",
				"offset": 0,
				"slot": "15",
				"type": "t_uint256"
			},
			{
				"astId": 1887,
				"contract": "contracts/TAAMS.sol:TAAMS",
				"label": "earlyAdopterCount",
				"offset": 0,
				"slot": "16",
				"type": "t_uint256"
			},
			{
				"astId": 1889,
				"contract": "contracts/TAAMS.sol:TAAMS",
				"label": "totalStaked",
				"offset": 0,
				"slot": "17",
				"type": "t_uint256"
			},
			{
				"astId": 1892,
				"contract": "contracts/TAAMS.sol:TAAMS",
				"label": "STAKING_REWARD_RATE",
				"offset": 0,
				"slot": "18",
				"type": "t_uint256"
			},
			{
				"astId": 1897,
				"contract": "contracts/TAAMS.sol:TAAMS",
				"label": "QUORUM",
				"offset": 0,
				"slot": "19",
				"type": "t_uint256"
			},
			{
				"astId": 1900,
				"contract": "contracts/TAAMS.sol:TAAMS",
				"label": "VOTE_THRESHOLD",
				"offset": 0,
				"slot": "20",
				"type": "t_uint256"
			},
			{
				"astId": 1902,
				"contract": "contracts/TAAMS.sol:TAAMS",
				"label": "lastUnlockTimestamp",
				"offset": 0,
				"slot": "21",
				"type": "t_uint256"
			},
			{
				"astId": 1904,
				"contract": "contracts/TAAMS.sol:TAAMS",
				"label": "proposalCount",
				"offset": 0,
				"slot": "22",
				"type": "t_uint256"
			},
			{
				"astId": 1906,
				"contract": "contracts/TAAMS.sol:TAAMS",
				"label": "lastAdvertisementTimestamp",
				"offset": 0,
				"slot": "23",
				"type": "t_uint256"
			},
			{
				"astId": 1908,
				"contract": "contracts/TAAMS.sol:TAAMS",
				"label": "advertisementCount",
				"offset": 0,
				"slot": "24",
				"type": "t_uint256"
			},
			{
				"astId": 1911,
				"contract": "contracts/TAAMS.sol:TAAMS",
				"label": "maturationPeriodBlocks",
				"offset": 0,
				"slot": "25",
				"type": "t_uint256"
			},
			{
				"astId": 1914,
				"contract": "contracts/TAAMS.sol:TAAMS",
				"label": "bl2pLifespanBlocks",
				"offset": 0,
				"slot": "26",
				"type": "t_uint256"
			},
			{
				"astId": 1917,
				"contract": "contracts/TAAMS.sol:TAAMS",
				"label": "inactivityBurnRate",
				"offset": 0,
				"slot": "27",
				"type": "t_uint256"
			},
			{
				"astId": 1920,
				"contract": "contracts/TAAMS.sol:TAAMS",
				"label": "maxDelegatedBL2PPercent",
				"offset": 0,
				"slot": "28",
				"type": "t_uint256"
			},
			{
				"astId": 1922,
				"contract": "contracts/TAAMS.sol:TAAMS",
				"label": "governanceContract",
				"offset": 0,
				"slot": "29",
				"type": "t_address"
			},
			{
				"astId": 1924,
				"contract": "contracts/TAAMS.sol:TAAMS",
				"label": "ignitionAirdropTriggered",
				"offset": 20,
				"slot": "29",
				"type": "t_bool"
			},
			{
				"astId": 1927,
				"contract": "contracts/TAAMS.sol:TAAMS",
				"label": "ignitionRegistrationOpen",
				"offset": 21,
				"slot": "29",
				"type": "t_bool"
			},
			{
				"astId": 1933,
				"contract": "contracts/TAAMS.sol:TAAMS",
				"label": "burnContributions",
				"offset": 0,
				"slot": "30",
				"type": "t_mapping(t_uint256,t_mapping(t_address,t_uint256))"
			},
			{
				"astId": 1937,
				"contract": "contracts/TAAMS.sol:TAAMS",
				"label": "cycleBurnedTotal",
				"offset": 0,
				"slot": "31",
				"type": "t_mapping(t_uint256,t_uint256)"
			},
			{
				"astId": 1941,
				"contract": "contracts/TAAMS.sol:TAAMS",
				"label": "bl2pClaimed",
				"offset": 0,
				"slot": "32",
				"type": "t_mapping(t_address,t_uint256)"
			},
			{
				"astId": 1945,
				"contract": "contracts/TAAMS.sol:TAAMS",
				"label": "totalContributions",
				"offset": 0,
				"slot": "33",
				"type": "t_mapping(t_address,t_uint256)"
			},
			{
				"astId": 1949,
				"contract": "contracts/TAAMS.sol:TAAMS",
				"label": "referrals",
				"offset": 0,
				"slot": "34",
				"type": "t_mapping(t_address,t_address)"
			},
			{
				"astId": 1954,
				"contract": "contracts/TAAMS.sol:TAAMS",
				"label": "advertisements",
				"offset": 0,
				"slot": "35",
				"type": "t_mapping(t_uint256,t_struct(Advertisement)2007_storage)"
			},
			{
				"astId": 1959,
				"contract": "contracts/TAAMS.sol:TAAMS",
				"label": "proposals",
				"offset": 0,
				"slot": "36",
				"type": "t_mapping(t_uint256,t_struct(Proposal)2039_storage)"
			},
			{
				"astId": 1964,
				"contract": "contracts/TAAMS.sol:TAAMS",
				"label": "bl2pMeta",
				"offset": 0,
				"slot": "37",
				"type": "t_mapping(t_address,t_struct(BL2PMetadata)2044_storage)"
			},
			{
				"astId": 1968,
				"contract": "contracts/TAAMS.sol:TAAMS",
				"label": "lastVoteTimestamp",
				"offset": 0,
				"slot": "38",
				"type": "t_mapping(t_address,t_uint256)"
			},
			{
				"astId": 1973,
				"contract": "contracts/TAAMS.sol:TAAMS",
				"label": "activeDelegations",
				"offset": 0,
				"slot": "39",
				"type": "t_mapping(t_address,t_struct(DelegationInfo)2062_storage)"
			},
			{
				"astId": 1977,
				"contract": "contracts/TAAMS.sol:TAAMS",
				"label": "delegatedBL2PReceived",
				"offset": 0,
				"slot": "40",
				"type": "t_mapping(t_address,t_uint256)"
			},
			{
				"astId": 1982,
				"contract": "contracts/TAAMS.sol:TAAMS",
				"label": "stakes",
				"offset": 0,
				"slot": "41",
				"type": "t_mapping(t_address,t_struct(Stake)2053_storage)"
			},
			{
				"astId": 1986,
				"contract": "contracts/TAAMS.sol:TAAMS",
				"label": "ignitionWhitelist",
				"offset": 0,
				"slot": "42",
				"type": "t_mapping(t_address,t_bool)"
			},
			{
				"astId": 1990,
				"contract": "contracts/TAAMS.sol:TAAMS",
				"label": "ignitionClaimableAmount",
				"offset": 0,
				"slot": "43",
				"type": "t_mapping(t_address,t_uint256)"
			},
			{
				"astId": 1994,
				"contract": "contracts/TAAMS.sol:TAAMS",
				"label": "ignitionClaimed",
				"offset": 0,
				"slot": "44",
				"type": "t_mapping(t_address,t_bool)"
			},
			{
				"astId": 1997,
				"contract": "contracts/TAAMS.sol:TAAMS",
				"label": "ignitionParticipants",
				"offset": 0,
				"slot": "45",
				"type": "t_array(t_address)dyn_storage"
			},
			{
				"astId": 2000,
				"contract": "contracts/TAAMS.sol:TAAMS",
				"label": "topDelegates",
				"offset": 0,
				"slot": "46",
				"type": "t_array(t_address)dyn_storage"
			}
		],
		"types": {
			"t_address": {
				"encoding": "inplace",
				"label": "address",
				"numberOfBytes": "20"
			},
			"t_array(t_address)dyn_storage": {
				"base": "t_address",
				"encoding": "dynamic_array",
				"label": "address[]",
				"numberOfBytes": "32"
			},
			"t_bool": {
				"encoding": "inplace",
				"label": "bool",
				"numberOfBytes": "1"
			},
			"t_bytes32": {
				"encoding": "inplace",
				"label": "bytes32",
				"numberOfBytes": "32"
			},
			"t_enum(ProposalType)1788": {
				"encoding": "inplace",
				"label": "enum TAAMS.ProposalType",
				"numberOfBytes": "1"
			},
			"t_mapping(t_address,t_address)": {
				"encoding": "mapping",
				"key": "t_address",
				"label": "mapping(address => address)",
				"numberOfBytes": "32",
				"value": "t_address"
			},
			"t_mapping(t_address,t_bool)": {
				"encoding": "mapping",
				"key": "t_address",
				"label": "mapping(address => bool)",
				"numberOfBytes": "32",
				"value": "t_bool"
			},
			"t_mapping(t_address,t_bytes32)": {
				"encoding": "mapping",
				"key": "t_address",
				"label": "mapping(address => bytes32)",
				"numberOfBytes": "32",
				"value": "t_bytes32"
			},
			"t_mapping(t_address,t_mapping(t_address,t_uint256))": {
				"encoding": "mapping",
				"key": "t_address",
				"label": "mapping(address => mapping(address => uint256))",
				"numberOfBytes": "32",
				"value": "t_mapping(t_address,t_uint256)"
			},
			"t_mapping(t_address,t_struct(BL2PMetadata)2044_storage)": {
				"encoding": "mapping",
				"key": "t_address",
				"label": "mapping(address => struct TAAMS.BL2PMetadata)",
				"numberOfBytes": "32",
				"value": "t_struct(BL2PMetadata)2044_storage"
			},
			"t_mapping(t_address,t_struct(DelegationInfo)2062_storage)": {
				"encoding": "mapping",
				"key": "t_address",
				"label": "mapping(address => struct TAAMS.DelegationInfo)",
				"numberOfBytes": "32",
				"value": "t_struct(DelegationInfo)2062_storage"
			},
			"t_mapping(t_address,t_struct(Stake)2053_storage)": {
				"encoding": "mapping",
				"key": "t_address",
				"label": "mapping(address => struct TAAMS.Stake)",
				"numberOfBytes": "32",
				"value": "t_struct(Stake)2053_storage"
			},
			"t_mapping(t_address,t_uint256)": {
				"encoding": "mapping",
				"key": "t_address",
				"label": "mapping(address => uint256)",
				"numberOfBytes": "32",
				"value": "t_uint256"
			},
			"t_mapping(t_uint256,t_mapping(t_address,t_uint256))": {
				"encoding": "mapping",
				"key": "t_uint256",
				"label": "mapping(uint256 => mapping(address => uint256))",
				"numberOfBytes": "32",
				"value": "t_mapping(t_address,t_uint256)"
			},
			"t_mapping(t_uint256,t_struct(Advertisement)2007_storage)": {
				"encoding": "mapping",
				"key": "t_uint256",
				"label": "mapping(uint256 => struct TAAMS.Advertisement)",
				"numberOfBytes": "32",
				"value": "t_struct(Advertisement)2007_storage"
			},
			"t_mapping(t_uint256,t_struct(Proposal)2039_storage)": {
				"encoding": "mapping",
				"key": "t_uint256",
				"label": "mapping(uint256 => struct TAAMS.Proposal)",
				"numberOfBytes": "32",
				"value": "t_struct(Proposal)2039_storage"
			},
			"t_mapping(t_uint256,t_uint256)": {
				"encoding": "mapping",
				"key": "t_uint256",
				"label": "mapping(uint256 => uint256)",
				"numberOfBytes": "32",
				"value": "t_uint256"
			},
			"t_string_storage": {
				"encoding": "bytes",
				"label": "string",
				"numberOfBytes": "32"
			},
			"t_struct(Advertisement)2007_storage": {
				"encoding": "inplace",
				"label": "struct TAAMS.Advertisement",
				"members": [
					{
						"astId": 2002,
						"contract": "contracts/TAAMS.sol:TAAMS",
						"label": "id",
						"offset": 0,
						"slot": "0",
						"type": "t_uint256"
					},
					{
						"astId": 2004,
						"contract": "contracts/TAAMS.sol:TAAMS",
						"label": "postedBlock",
						"offset": 0,
						"slot": "1",
						"type": "t_uint256"
					},
					{
						"astId": 2006,
						"contract": "contracts/TAAMS.sol:TAAMS",
						"label": "message",
						"offset": 0,
						"slot": "2",
						"type": "t_string_storage"
					}
				],
				"numberOfBytes": "96"
			},
			"t_struct(BL2PMetadata)2044_storage": {
				"encoding": "inplace",
				"label": "struct TAAMS.BL2PMetadata",
				"members": [
					{
						"astId": 2041,
						"contract": "contracts/TAAMS.sol:TAAMS",
						"label": "birthAndExpiry",
						"offset": 0,
						"slot": "0",
						"type": "t_uint256"
					},
					{
						"astId": 2043,
						"contract": "contracts/TAAMS.sol:TAAMS",
						"label": "matured",
						"offset": 0,
						"slot": "1",
						"type": "t_bool"
					}
				],
				"numberOfBytes": "64"
			},
			"t_struct(DelegationInfo)2062_storage": {
				"encoding": "inplace",
				"label": "struct TAAMS.DelegationInfo",
				"members": [
					{
						"astId": 2055,
						"contract": "contracts/TAAMS.sol:TAAMS",
						"label": "source",
						"offset": 0,
						"slot": "0",
						"type": "t_address"
					},
					{
						"astId": 2057,
						"contract": "contracts/TAAMS.sol:TAAMS",
						"label": "delegate",
						"offset": 0,
						"slot": "1",
						"type": "t_address"
					},
					{
						"astId": 2059,
						"contract": "contracts/TAAMS.sol:TAAMS",
						"label": "bl2pAmount",
						"offset": 0,
						"slot": "2",
						"type": "t_uint256"
					},
					{
						"astId": 2061,
						"contract": "contracts/TAAMS.sol:TAAMS",
						"label": "delegationBlock",
						"offset": 0,
						"slot": "3",
						"type": "t_uint256"
					}
				],
				"numberOfBytes": "128"
			},
			"t_struct(Proposal)2039_storage": {
				"encoding": "inplace",
				"label": "struct TAAMS.Proposal",
				"members": [
					{
						"astId": 2009,
						"contract": "contracts/TAAMS.sol:TAAMS",
						"label": "id",
						"offset": 0,
						"slot": "0",
						"type": "t_uint256"
					},
					{
						"astId": 2011,
						"contract": "contracts/TAAMS.sol:TAAMS",
						"label": "startBlock",
						"offset": 0,
						"slot": "1",
						"type": "t_uint256"
					},
					{
						"astId": 2013,
						"contract": "contracts/TAAMS.sol:TAAMS",
						"label": "endBlock",
						"offset": 0,
						"slot": "2",
						"type": "t_uint256"
					},
					{
						"astId": 2015,
						"contract": "contracts/TAAMS.sol:TAAMS",
						"label": "newValue",
						"offset": 0,
						"slot": "3",
						"type": "t_uint256"
					},
					{
						"astId": 2017,
						"contract": "contracts/TAAMS.sol:TAAMS",
						"label": "forVotes",
						"offset": 0,
						"slot": "4",
						"type": "t_uint256"
					},
					{
						"astId": 2019,
						"contract": "contracts/TAAMS.sol:TAAMS",
						"label": "againstVotes",
						"offset": 0,
						"slot": "5",
						"type": "t_uint256"
					},
					{
						"astId": 2021,
						"contract": "contracts/TAAMS.sol:TAAMS",
						"label": "proposer",
						"offset": 0,
						"slot": "6",
						"type": "t_address"
					},
					{
						"astId": 2023,
						"contract": "contracts/TAAMS.sol:TAAMS",
						"label": "newAddress",
						"offset": 0,
						"slot": "7",
						"type": "t_address"
					},
					{
						"astId": 2025,
						"contract": "contracts/TAAMS.sol:TAAMS",
						"label": "description",
						"offset": 0,
						"slot": "8",
						"type": "t_string_storage"
					},
					{
						"astId": 2028,
						"contract": "contracts/TAAMS.sol:TAAMS",
						"label": "proposalType",
						"offset": 0,
						"slot": "9",
						"type": "t_enum(ProposalType)1788"
					},
					{
						"astId": 2030,
						"contract": "contracts/TAAMS.sol:TAAMS",
						"label": "executed",
						"offset": 1,
						"slot": "9",
						"type": "t_bool"
					},
					{
						"astId": 2034,
						"contract": "contracts/TAAMS.sol:TAAMS",
						"label": "hasVoted",
						"offset": 0,
						"slot": "10",
						"type": "t_mapping(t_address,t_bool)"
					},
					{
						"astId": 2038,
						"contract": "contracts/TAAMS.sol:TAAMS",
						"label": "voteCommits",
						"offset": 0,
						"slot": "11",
						"type": "t_mapping(t_address,t_bytes32)"
					}
				],
				"numberOfBytes": "384"
			},
			"t_struct(Stake)2053_storage": {
				"encoding": "inplace",
				"label": "struct TAAMS.Stake",
				"members": [
					{
						"astId": 2046,
						"contract": "contracts/TAAMS.sol:TAAMS",
						"label": "amount",
						"offset": 0,
						"slot": "0",
						"type": "t_uint256"
					},
					{
						"astId": 2048,
						"contract": "contracts/TAAMS.sol:TAAMS",
						"label": "startBlock",
						"offset": 0,
						"slot": "1",
						"type": "t_uint256"
					},
					{
						"astId": 2050,
						"contract": "contracts/TAAMS.sol:TAAMS",
						"label": "bl2pBoost",
						"offset": 0,
						"slot": "2",
						"type": "t_uint256"
					},
					{
						"astId": 2052,
						"contract": "contracts/TAAMS.sol:TAAMS",
						"label": "active",
						"offset": 0,
						"slot": "3",
						"type": "t_bool"
					}
				],
				"numberOfBytes": "128"
			},
			"t_uint256": {
				"encoding": "inplace",
				"label": "uint256",
				"numberOfBytes": "32"
			}
		}
	},
	"web3Deploy": "var initialOwner = /* var of type address here */ ;\nvar taamsContract = new web3.eth.Contract([{\"inputs\":[{\"internalType\":\"address\",\"name\":\"initialOwner\",\"type\":\"address\"}],\"stateMutability\":\"nonpayable\",\"type\":\"constructor\"},{\"inputs\":[],\"name\":\"ActivationThresholdNotMet\",\"type\":\"error\"},{\"inputs\":[],\"name\":\"AirdropAlreadyTriggered\",\"type\":\"error\"},{\"inputs\":[],\"name\":\"AlreadyClaimed\",\"type\":\"error\"},{\"inputs\":[],\"name\":\"AlreadyRegistered\",\"type\":\"error\"},{\"inputs\":[],\"name\":\"AlreadyVoted\",\"type\":\"error\"},{\"inputs\":[],\"name\":\"AmountZero\",\"type\":\"error\"},{\"inputs\":[],\"name\":\"BL2PNotExpired\",\"type\":\"error\"},{\"inputs\":[],\"name\":\"BL2PNotMatured\",\"type\":\"error\"},{\"inputs\":[],\"name\":\"BelowMinimumStake\",\"type\":\"error\"},{\"inputs\":[],\"name\":\"BurnCycleEnded\",\"type\":\"error\"},{\"inputs\":[],\"name\":\"BurnPhaseNotActive\",\"type\":\"error\"},{\"inputs\":[],\"name\":\"ContractPaused\",\"type\":\"error\"},{\"inputs\":[],\"name\":\"DelegationActive\",\"type\":\"error\"},{\"inputs\":[{\"internalType\":\"address\",\"name\":\"spender\",\"type\":\"address\"},{\"internalType\":\"uint256\",\"name\":\"allowance\",\"type\":\"uint256\"},{\"internalType\":\"uint256\",\"name\":\"needed\",\"type\":\"uint256\"}],\"name\":\"ERC20InsufficientAllowance\",\"type\":\"error\"},{\"inputs\":[{\"internalType\":\"address\",\"name\":\"sender\",\"type\":\"address\"},{\"internalType\":\"uint256\",\"name\":\"balance\",\"type\":\"uint256\"},{\"internalType\":\"uint256\",\"name\":\"needed\",\"type\":\"uint256\"}],\"name\":\"ERC20InsufficientBalance\",\"type\":\"error\"},{\"inputs\":[{\"internalType\":\"address\",\"name\":\"approver\",\"type\":\"address\"}],\"name\":\"ERC20InvalidApprover\",\"type\":\"error\"},{\"inputs\":[{\"internalType\":\"address\",\"name\":\"receiver\",\"type\":\"address\"}],\"name\":\"ERC20InvalidReceiver\",\"type\":\"error\"},{\"inputs\":[{\"internalType\":\"address\",\"name\":\"sender\",\"type\":\"address\"}],\"name\":\"ERC20InvalidSender\",\"type\":\"error\"},{\"inputs\":[{\"internalType\":\"address\",\"name\":\"spender\",\"type\":\"address\"}],\"name\":\"ERC20InvalidSpender\",\"type\":\"error\"},{\"inputs\":[],\"name\":\"ExceedsBL2PBoostLimit\",\"type\":\"error\"},{\"inputs\":[],\"name\":\"ExceedsBurnTarget\",\"type\":\"error\"},{\"inputs\":[],\"name\":\"ExceedsDelegateLimit\",\"type\":\"error\"},{\"inputs\":[],\"name\":\"GovernanceNotSet\",\"type\":\"error\"},{\"inputs\":[],\"name\":\"InsufficientBalance\",\"type\":\"error\"},{\"inputs\":[],\"name\":\"InsufficientContractBalance\",\"type\":\"error\"},{\"inputs\":[],\"name\":\"InsufficientReserve\",\"type\":\"error\"},{\"inputs\":[],\"name\":\"InvalidAddress\",\"type\":\"error\"},{\"inputs\":[],\"name\":\"InvalidBL2PLifespan\",\"type\":\"error\"},{\"inputs\":[],\"name\":\"InvalidBurnAmount\",\"type\":\"error\"},{\"inputs\":[],\"name\":\"InvalidClaimConditions\",\"type\":\"error\"},{\"inputs\":[],\"name\":\"InvalidCommit\",\"type\":\"error\"},{\"inputs\":[],\"name\":\"InvalidDelegate\",\"type\":\"error\"},{\"inputs\":[],\"name\":\"InvalidDelegatedPercent\",\"type\":\"error\"},{\"inputs\":[],\"name\":\"InvalidInactivityBurnRate\",\"type\":\"error\"},{\"inputs\":[],\"name\":\"InvalidMaturationPeriod\",\"type\":\"error\"},{\"inputs\":[],\"name\":\"InvalidProposalPayload\",\"type\":\"error\"},{\"inputs\":[],\"name\":\"InvalidRecipient\",\"type\":\"error\"},{\"inputs\":[],\"name\":\"InvalidRewardRate\",\"type\":\"error\"},{\"inputs\":[],\"name\":\"InvalidTransferConditions\",\"type\":\"error\"},{\"inputs\":[],\"name\":\"MaxParticipantsReached\",\"type\":\"error\"},{\"inputs\":[],\"name\":\"NoActiveStake\",\"type\":\"error\"},{\"inputs\":[],\"name\":\"NoClaimableAmount\",\"type\":\"error\"},{\"inputs\":[],\"name\":\"NoContractCallers\",\"type\":\"error\"},{\"inputs\":[],\"name\":\"NoDelegation\",\"type\":\"error\"},{\"inputs\":[],\"name\":\"NoParticipants\",\"type\":\"error\"},{\"inputs\":[],\"name\":\"NoReward\",\"type\":\"error\"},{\"inputs\":[],\"name\":\"NoValidBL2P\",\"type\":\"error\"},{\"inputs\":[],\"name\":\"NotAuthorized\",\"type\":\"error\"},{\"inputs\":[],\"name\":\"NotContract\",\"type\":\"error\"},{\"inputs\":[],\"name\":\"NotWhitelisted\",\"type\":\"error\"},{\"inputs\":[{\"internalType\":\"address\",\"name\":\"owner\",\"type\":\"address\"}],\"name\":\"OwnableInvalidOwner\",\"type\":\"error\"},{\"inputs\":[{\"internalType\":\"address\",\"name\":\"account\",\"type\":\"address\"}],\"name\":\"OwnableUnauthorizedAccount\",\"type\":\"error\"},{\"inputs\":[],\"name\":\"ProposalCooldownActive\",\"type\":\"error\"},{\"inputs\":[],\"name\":\"ProposalDoesNotExist\",\"type\":\"error\"},{\"inputs\":[],\"name\":\"ProposalExecuted\",\"type\":\"error\"},{\"inputs\":[],\"name\":\"QuorumNotMet\",\"type\":\"error\"},{\"inputs\":[],\"name\":\"QuorumOutOfBounds\",\"type\":\"error\"},{\"inputs\":[],\"name\":\"ReentrancyGuardReentrantCall\",\"type\":\"error\"},{\"inputs\":[],\"name\":\"RegistrationClosed\",\"type\":\"error\"},{\"inputs\":[{\"internalType\":\"address\",\"name\":\"token\",\"type\":\"address\"}],\"name\":\"SafeERC20FailedOperation\",\"type\":\"error\"},{\"inputs\":[],\"name\":\"StakeAlreadyActive\",\"type\":\"error\"},{\"inputs\":[],\"name\":\"TooManyUsers\",\"type\":\"error\"},{\"inputs\":[],\"name\":\"UnlockPeriodNotElapsed\",\"type\":\"error\"},{\"inputs\":[],\"name\":\"VoteThresholdNotMet\",\"type\":\"error\"},{\"inputs\":[],\"name\":\"VoteThresholdOutOfBounds\",\"type\":\"error\"},{\"inputs\":[],\"name\":\"VotingPeriodInactive\",\"type\":\"error\"},{\"inputs\":[],\"name\":\"VotingPeriodNotEnded\",\"type\":\"error\"},{\"anonymous\":false,\"inputs\":[{\"indexed\":true,\"internalType\":\"uint256\",\"name\":\"adId\",\"type\":\"uint256\"},{\"indexed\":false,\"internalType\":\"string\",\"name\":\"message\",\"type\":\"string\"}],\"name\":\"AdvertisementPosted\",\"type\":\"event\"},{\"anonymous\":false,\"inputs\":[{\"indexed\":true,\"internalType\":\"address\",\"name\":\"owner\",\"type\":\"address\"},{\"indexed\":true,\"internalType\":\"address\",\"name\":\"spender\",\"type\":\"address\"},{\"indexed\":false,\"internalType\":\"uint256\",\"name\":\"value\",\"type\":\"uint256\"}],\"name\":\"Approval\",\"type\":\"event\"},{\"anonymous\":false,\"inputs\":[{\"indexed\":true,\"internalType\":\"address\",\"name\":\"user\",\"type\":\"address\"},{\"indexed\":false,\"internalType\":\"uint256\",\"name\":\"bonusAmount\",\"type\":\"uint256\"},{\"indexed\":false,\"internalType\":\"uint256\",\"name\":\"cycle\",\"type\":\"uint256\"}],\"name\":\"BL2PBonusBurned\",\"type\":\"event\"},{\"anonymous\":false,\"inputs\":[{\"indexed\":true,\"internalType\":\"address\",\"name\":\"user\",\"type\":\"address\"},{\"indexed\":false,\"internalType\":\"bool\",\"name\":\"matured\",\"type\":\"bool\"}],\"name\":\"BL2PMaturityUpdated\",\"type\":\"event\"},{\"anonymous\":false,\"inputs\":[{\"indexed\":true,\"internalType\":\"uint256\",\"name\":\"timestamp\",\"type\":\"uint256\"}],\"name\":\"BL2PRevealed\",\"type\":\"event\"},{\"anonymous\":false,\"inputs\":[{\"indexed\":true,\"internalType\":\"address\",\"name\":\"user\",\"type\":\"address\"},{\"indexed\":false,\"internalType\":\"uint256\",\"name\":\"reward\",\"type\":\"uint256\"}],\"name\":\"BL2PRewardClaimed\",\"type\":\"event\"},{\"anonymous\":false,\"inputs\":[{\"indexed\":true,\"internalType\":\"address\",\"name\":\"user\",\"type\":\"address\"},{\"indexed\":false,\"internalType\":\"uint256\",\"name\":\"bl2pAmount\",\"type\":\"uint256\"}],\"name\":\"BL2PStaked\",\"type\":\"event\"},{\"anonymous\":false,\"inputs\":[{\"indexed\":true,\"internalType\":\"address\",\"name\":\"from\",\"type\":\"address\"},{\"indexed\":true,\"internalType\":\"address\",\"name\":\"to\",\"type\":\"address\"},{\"indexed\":false,\"internalType\":\"uint256\",\"name\":\"amount\",\"type\":\"uint256\"}],\"name\":\"BL2PTransferred\",\"type\":\"event\"},{\"anonymous\":false,\"inputs\":[{\"indexed\":true,\"internalType\":\"address[]\",\"name\":\"users\",\"type\":\"address[]\"},{\"indexed\":false,\"internalType\":\"uint256[]\",\"name\":\"rewards\",\"type\":\"uint256[]\"}],\"name\":\"BatchBL2PRewardClaimed\",\"type\":\"event\"},{\"anonymous\":false,\"inputs\":[{\"indexed\":true,\"internalType\":\"uint256\",\"name\":\"timestamp\",\"type\":\"uint256\"}],\"name\":\"BurnPhaseActivated\",\"type\":\"event\"},{\"anonymous\":false,\"inputs\":[{\"indexed\":true,\"internalType\":\"address\",\"name\":\"delegator\",\"type\":\"address\"}],\"name\":\"DelegationRevoked\",\"type\":\"event\"},{\"anonymous\":false,\"inputs\":[{\"indexed\":true,\"internalType\":\"address\",\"name\":\"newContract\",\"type\":\"address\"}],\"name\":\"GovernanceContractUpdated\",\"type\":\"event\"},{\"anonymous\":false,\"inputs\":[{\"indexed\":true,\"internalType\":\"address\",\"name\":\"participant\",\"type\":\"address\"},{\"indexed\":false,\"internalType\":\"uint256\",\"name\":\"amount\",\"type\":\"uint256\"}],\"name\":\"IgnitionAirdropClaimed\",\"type\":\"event\"},{\"anonymous\":false,\"inputs\":[{\"indexed\":true,\"internalType\":\"uint256\",\"name\":\"timestamp\",\"type\":\"uint256\"},{\"indexed\":false,\"internalType\":\"uint256\",\"name\":\"totalParticipants\",\"type\":\"uint256\"}],\"name\":\"IgnitionAirdropTriggered\",\"type\":\"event\"},{\"anonymous\":false,\"inputs\":[{\"indexed\":true,\"internalType\":\"address\",\"name\":\"participant\",\"type\":\"address\"},{\"indexed\":false,\"internalType\":\"uint256\",\"name\":\"participantNumber\",\"type\":\"uint256\"}],\"name\":\"IgnitionParticipantRegistered\",\"type\":\"event\"},{\"anonymous\":false,\"inputs\":[{\"indexed\":true,\"internalType\":\"bool\",\"name\":\"isOpen\",\"type\":\"bool\"}],\"name\":\"IgnitionRegistrationStatusChanged\",\"type\":\"event\"},{\"anonymous\":false,\"inputs\":[{\"indexed\":true,\"internalType\":\"address\",\"name\":\"user\",\"type\":\"address\"},{\"indexed\":false,\"internalType\":\"uint256\",\"name\":\"amount\",\"type\":\"uint256\"}],\"name\":\"InactiveBL2PBurned\",\"type\":\"event\"},{\"anonymous\":false,\"inputs\":[{\"indexed\":false,\"internalType\":\"uint256\",\"name\":\"newValue\",\"type\":\"uint256\"}],\"name\":\"LockedReserveUpdated\",\"type\":\"event\"},{\"anonymous\":false,\"inputs\":[{\"indexed\":true,\"internalType\":\"address\",\"name\":\"previousOwner\",\"type\":\"address\"},{\"indexed\":true,\"internalType\":\"address\",\"name\":\"newOwner\",\"type\":\"address\"}],\"name\":\"OwnershipTransferred\",\"type\":\"event\"},{\"anonymous\":false,\"inputs\":[{\"indexed\":true,\"internalType\":\"enum TAAMS.ProposalType\",\"name\":\"proposalType\",\"type\":\"uint8\"},{\"indexed\":false,\"internalType\":\"uint256\",\"name\":\"newValue\",\"type\":\"uint256\"},{\"indexed\":false,\"internalType\":\"address\",\"name\":\"newAddress\",\"type\":\"address\"}],\"name\":\"ParameterUpdated\",\"type\":\"event\"},{\"anonymous\":false,\"inputs\":[{\"indexed\":true,\"internalType\":\"uint256\",\"name\":\"id\",\"type\":\"uint256\"},{\"indexed\":false,\"internalType\":\"string\",\"name\":\"reason\",\"type\":\"string\"}],\"name\":\"ProposalFailed\",\"type\":\"event\"},{\"anonymous\":false,\"inputs\":[{\"indexed\":true,\"internalType\":\"uint256\",\"name\":\"id\",\"type\":\"uint256\"},{\"indexed\":true,\"internalType\":\"address\",\"name\":\"proposer\",\"type\":\"address\"},{\"indexed\":false,\"internalType\":\"string\",\"name\":\"description\",\"type\":\"string\"},{\"indexed\":false,\"internalType\":\"enum TAAMS.ProposalType\",\"name\":\"proposalType\",\"type\":\"uint8\"}],\"name\":\"ProposalSubmitted\",\"type\":\"event\"},{\"anonymous\":false,\"inputs\":[{\"indexed\":false,\"internalType\":\"uint256\",\"name\":\"id\",\"type\":\"uint256\"}],\"name\":\"ProposalWasExecuted\",\"type\":\"event\"},{\"anonymous\":false,\"inputs\":[{\"indexed\":false,\"internalType\":\"uint256\",\"name\":\"newQuorum\",\"type\":\"uint256\"}],\"name\":\"QuorumUpdated\",\"type\":\"event\"},{\"anonymous\":false,\"inputs\":[{\"indexed\":true,\"internalType\":\"address\",\"name\":\"referrer\",\"type\":\"address\"},{\"indexed\":false,\"internalType\":\"uint256\",\"name\":\"bonus\",\"type\":\"uint256\"}],\"name\":\"ReferralBonusPaid\",\"type\":\"event\"},{\"anonymous\":false,\"inputs\":[{\"indexed\":false,\"internalType\":\"uint256\",\"name\":\"amount\",\"type\":\"uint256\"},{\"indexed\":false,\"internalType\":\"uint256\",\"name\":\"remainingBalance\",\"type\":\"uint256\"}],\"name\":\"ReserveUnlocked\",\"type\":\"event\"},{\"anonymous\":false,\"inputs\":[{\"indexed\":true,\"internalType\":\"address\",\"name\":\"user\",\"type\":\"address\"},{\"indexed\":false,\"internalType\":\"uint256\",\"name\":\"amount\",\"type\":\"uint256\"},{\"indexed\":false,\"internalType\":\"uint256\",\"name\":\"timestamp\",\"type\":\"uint256\"}],\"name\":\"Staked\",\"type\":\"event\"},{\"anonymous\":false,\"inputs\":[{\"indexed\":true,\"internalType\":\"address\",\"name\":\"user\",\"type\":\"address\"},{\"indexed\":false,\"internalType\":\"uint256\",\"name\":\"reward\",\"type\":\"uint256\"}],\"name\":\"StakingRewardClaimed\",\"type\":\"event\"},{\"anonymous\":false,\"inputs\":[{\"indexed\":true,\"internalType\":\"address\",\"name\":\"burner\",\"type\":\"address\"},{\"indexed\":false,\"internalType\":\"uint256\",\"name\":\"amount\",\"type\":\"uint256\"},{\"indexed\":false,\"internalType\":\"uint256\",\"name\":\"totalBurned\",\"type\":\"uint256\"},{\"indexed\":false,\"internalType\":\"uint256\",\"name\":\"cycle\",\"type\":\"uint256\"}],\"name\":\"TokensBurned\",\"type\":\"event\"},{\"anonymous\":false,\"inputs\":[{\"indexed\":true,\"internalType\":\"address\",\"name\":\"from\",\"type\":\"address\"},{\"indexed\":true,\"internalType\":\"address\",\"name\":\"to\",\"type\":\"address\"},{\"indexed\":false,\"internalType\":\"uint256\",\"name\":\"value\",\"type\":\"uint256\"}],\"name\":\"Transfer\",\"type\":\"event\"},{\"anonymous\":false,\"inputs\":[{\"indexed\":true,\"internalType\":\"address\",\"name\":\"user\",\"type\":\"address\"},{\"indexed\":false,\"internalType\":\"uint256\",\"name\":\"amount\",\"type\":\"uint256\"},{\"indexed\":false,\"internalType\":\"uint256\",\"name\":\"timestamp\",\"type\":\"uint256\"}],\"name\":\"Unstaked\",\"type\":\"event\"},{\"anonymous\":false,\"inputs\":[{\"indexed\":true,\"internalType\":\"uint256\",\"name\":\"id\",\"type\":\"uint256\"},{\"indexed\":true,\"internalType\":\"address\",\"name\":\"voter\",\"type\":\"address\"},{\"indexed\":false,\"internalType\":\"bytes32\",\"name\":\"commitHash\",\"type\":\"bytes32\"}],\"name\":\"VoteCommitted\",\"type\":\"event\"},{\"anonymous\":false,\"inputs\":[{\"indexed\":true,\"internalType\":\"address\",\"name\":\"delegator\",\"type\":\"address\"},{\"indexed\":true,\"internalType\":\"address\",\"name\":\"delegate\",\"type\":\"address\"},{\"indexed\":false,\"internalType\":\"uint256\",\"name\":\"amount\",\"type\":\"uint256\"}],\"name\":\"VoteDelegated\",\"type\":\"event\"},{\"anonymous\":false,\"inputs\":[{\"indexed\":true,\"internalType\":\"uint256\",\"name\":\"id\",\"type\":\"uint256\"},{\"indexed\":true,\"internalType\":\"address\",\"name\":\"voter\",\"type\":\"address\"},{\"indexed\":false,\"internalType\":\"bool\",\"name\":\"support\",\"type\":\"bool\"},{\"indexed\":false,\"internalType\":\"uint256\",\"name\":\"weight\",\"type\":\"uint256\"}],\"name\":\"VoteRevealed\",\"type\":\"event\"},{\"anonymous\":false,\"inputs\":[{\"indexed\":false,\"internalType\":\"uint256\",\"name\":\"newThreshold\",\"type\":\"uint256\"}],\"name\":\"VoteThresholdUpdated\",\"type\":\"event\"},{\"inputs\":[],\"name\":\"ACTIVATION_THRESHOLD\",\"outputs\":[{\"internalType\":\"uint256\",\"name\":\"\",\"type\":\"uint256\"}],\"stateMutability\":\"view\",\"type\":\"function\"},{\"inputs\":[],\"name\":\"ANNUAL_BURN_AMOUNT\",\"outputs\":[{\"internalType\":\"uint256\",\"name\":\"\",\"type\":\"uint256\"}],\"stateMutability\":\"view\",\"type\":\"function\"},{\"inputs\":[],\"name\":\"BURN_TARGET\",\"outputs\":[{\"internalType\":\"uint256\",\"name\":\"\",\"type\":\"uint256\"}],\"stateMutability\":\"view\",\"type\":\"function\"},{\"inputs\":[],\"name\":\"IGNITION_AIRDROP_POOL\",\"outputs\":[{\"internalType\":\"uint256\",\"name\":\"\",\"type\":\"uint256\"}],\"stateMutability\":\"view\",\"type\":\"function\"},{\"inputs\":[],\"name\":\"LOCKED_RESERVE\",\"outputs\":[{\"internalType\":\"uint256\",\"name\":\"\",\"type\":\"uint256\"}],\"stateMutability\":\"view\",\"type\":\"function\"},{\"inputs\":[],\"name\":\"MAX_SUPPLY\",\"outputs\":[{\"internalType\":\"uint256\",\"name\":\"\",\"type\":\"uint256\"}],\"stateMutability\":\"view\",\"type\":\"function\"},{\"inputs\":[],\"name\":\"PROPOSAL_COOLDOWN\",\"outputs\":[{\"internalType\":\"uint256\",\"name\":\"\",\"type\":\"uint256\"}],\"stateMutability\":\"view\",\"type\":\"function\"},{\"inputs\":[],\"name\":\"QUORUM\",\"outputs\":[{\"internalType\":\"uint256\",\"name\":\"\",\"type\":\"uint256\"}],\"stateMutability\":\"view\",\"type\":\"function\"},{\"inputs\":[],\"name\":\"STAKING_REWARD_RATE\",\"outputs\":[{\"internalType\":\"uint256\",\"name\":\"\",\"type\":\"uint256\"}],\"stateMutability\":\"view\",\"type\":\"function\"},{\"inputs\":[],\"name\":\"VOTE_THRESHOLD\",\"outputs\":[{\"internalType\":\"uint256\",\"name\":\"\",\"type\":\"uint256\"}],\"stateMutability\":\"view\",\"type\":\"function\"},{\"inputs\":[{\"internalType\":\"address\",\"name\":\"\",\"type\":\"address\"}],\"name\":\"activeDelegations\",\"outputs\":[{\"internalType\":\"address\",\"name\":\"source\",\"type\":\"address\"},{\"internalType\":\"address\",\"name\":\"delegate\",\"type\":\"address\"},{\"internalType\":\"uint256\",\"name\":\"bl2pAmount\",\"type\":\"uint256\"},{\"internalType\":\"uint256\",\"name\":\"delegationBlock\",\"type\":\"uint256\"}],\"stateMutability\":\"view\",\"type\":\"function\"},{\"inputs\":[],\"name\":\"advertisementCount\",\"outputs\":[{\"internalType\":\"uint256\",\"name\":\"\",\"type\":\"uint256\"}],\"stateMutability\":\"view\",\"type\":\"function\"},{\"inputs\":[{\"internalType\":\"uint256\",\"name\":\"\",\"type\":\"uint256\"}],\"name\":\"advertisements\",\"outputs\":[{\"internalType\":\"uint256\",\"name\":\"id\",\"type\":\"uint256\"},{\"internalType\":\"uint256\",\"name\":\"postedBlock\",\"type\":\"uint256\"},{\"internalType\":\"string\",\"name\":\"message\",\"type\":\"string\"}],\"stateMutability\":\"view\",\"type\":\"function\"},{\"inputs\":[{\"internalType\":\"address\",\"name\":\"owner\",\"type\":\"address\"},{\"internalType\":\"address\",\"name\":\"spender\",\"type\":\"address\"}],\"name\":\"allowance\",\"outputs\":[{\"internalType\":\"uint256\",\"name\":\"\",\"type\":\"uint256\"}],\"stateMutability\":\"view\",\"type\":\"function\"},{\"inputs\":[{\"internalType\":\"address\",\"name\":\"spender\",\"type\":\"address\"},{\"internalType\":\"uint256\",\"name\":\"value\",\"type\":\"uint256\"}],\"name\":\"approve\",\"outputs\":[{\"internalType\":\"bool\",\"name\":\"\",\"type\":\"bool\"}],\"stateMutability\":\"nonpayable\",\"type\":\"function\"},{\"inputs\":[{\"internalType\":\"address\",\"name\":\"account\",\"type\":\"address\"}],\"name\":\"balanceOf\",\"outputs\":[{\"internalType\":\"uint256\",\"name\":\"\",\"type\":\"uint256\"}],\"stateMutability\":\"view\",\"type\":\"function\"},{\"inputs\":[{\"internalType\":\"address[]\",\"name\":\"users\",\"type\":\"address[]\"}],\"name\":\"batchClaimBL2PReward\",\"outputs\":[],\"stateMutability\":\"nonpayable\",\"type\":\"function\"},{\"inputs\":[{\"internalType\":\"address\",\"name\":\"\",\"type\":\"address\"}],\"name\":\"bl2pClaimed\",\"outputs\":[{\"internalType\":\"uint256\",\"name\":\"\",\"type\":\"uint256\"}],\"stateMutability\":\"view\",\"type\":\"function\"},{\"inputs\":[],\"name\":\"bl2pLifespanBlocks\",\"outputs\":[{\"internalType\":\"uint256\",\"name\":\"\",\"type\":\"uint256\"}],\"stateMutability\":\"view\",\"type\":\"function\"},{\"inputs\":[{\"internalType\":\"address\",\"name\":\"\",\"type\":\"address\"}],\"name\":\"bl2pMeta\",\"outputs\":[{\"internalType\":\"uint256\",\"name\":\"birthAndExpiry\",\"type\":\"uint256\"},{\"internalType\":\"bool\",\"name\":\"matured\",\"type\":\"bool\"}],\"stateMutability\":\"view\",\"type\":\"function\"},{\"inputs\":[],\"name\":\"bl2pRevealed\",\"outputs\":[{\"internalType\":\"bool\",\"name\":\"\",\"type\":\"bool\"}],\"stateMutability\":\"view\",\"type\":\"function\"},{\"inputs\":[{\"internalType\":\"uint256\",\"name\":\"\",\"type\":\"uint256\"},{\"internalType\":\"address\",\"name\":\"\",\"type\":\"address\"}],\"name\":\"burnContributions\",\"outputs\":[{\"internalType\":\"uint256\",\"name\":\"\",\"type\":\"uint256\"}],\"stateMutability\":\"view\",\"type\":\"function\"},{\"inputs\":[],\"name\":\"burnDeadlineTimestamp\",\"outputs\":[{\"internalType\":\"uint256\",\"name\":\"\",\"type\":\"uint256\"}],\"stateMutability\":\"view\",\"type\":\"function\"},{\"inputs\":[{\"internalType\":\"address\",\"name\":\"user\",\"type\":\"address\"}],\"name\":\"burnInactiveBL2P\",\"outputs\":[],\"stateMutability\":\"nonpayable\",\"type\":\"function\"},{\"inputs\":[],\"name\":\"burnPhaseActive\",\"outputs\":[{\"internalType\":\"bool\",\"name\":\"\",\"type\":\"bool\"}],\"stateMutability\":\"view\",\"type\":\"function\"},{\"inputs\":[],\"name\":\"checkActivation\",\"outputs\":[],\"stateMutability\":\"nonpayable\",\"type\":\"function\"},{\"inputs\":[],\"name\":\"claimBL2PReward\",\"outputs\":[],\"stateMutability\":\"nonpayable\",\"type\":\"function\"},{\"inputs\":[],\"name\":\"claimIgnitionAirdrop\",\"outputs\":[],\"stateMutability\":\"nonpayable\",\"type\":\"function\"},{\"inputs\":[{\"internalType\":\"uint256\",\"name\":\"id\",\"type\":\"uint256\"},{\"internalType\":\"bytes32\",\"name\":\"commitHash\",\"type\":\"bytes32\"}],\"name\":\"commitVote\",\"outputs\":[],\"stateMutability\":\"nonpayable\",\"type\":\"function\"},{\"inputs\":[],\"name\":\"currentBurnCycle\",\"outputs\":[{\"internalType\":\"uint256\",\"name\":\"\",\"type\":\"uint256\"}],\"stateMutability\":\"view\",\"type\":\"function\"},{\"inputs\":[{\"internalType\":\"uint256\",\"name\":\"\",\"type\":\"uint256\"}],\"name\":\"cycleBurnedTotal\",\"outputs\":[{\"internalType\":\"uint256\",\"name\":\"\",\"type\":\"uint256\"}],\"stateMutability\":\"view\",\"type\":\"function\"},{\"inputs\":[],\"name\":\"decimals\",\"outputs\":[{\"internalType\":\"uint8\",\"name\":\"\",\"type\":\"uint8\"}],\"stateMutability\":\"view\",\"type\":\"function\"},{\"inputs\":[{\"internalType\":\"address\",\"name\":\"delegate\",\"type\":\"address\"},{\"internalType\":\"uint256\",\"name\":\"amount\",\"type\":\"uint256\"}],\"name\":\"delegateVote\",\"outputs\":[],\"stateMutability\":\"nonpayable\",\"type\":\"function\"},{\"inputs\":[{\"internalType\":\"address\",\"name\":\"\",\"type\":\"address\"}],\"name\":\"delegatedBL2PReceived\",\"outputs\":[{\"internalType\":\"uint256\",\"name\":\"\",\"type\":\"uint256\"}],\"stateMutability\":\"view\",\"type\":\"function\"},{\"inputs\":[],\"name\":\"earlyAdopterCount\",\"outputs\":[{\"internalType\":\"uint256\",\"name\":\"\",\"type\":\"uint256\"}],\"stateMutability\":\"view\",\"type\":\"function\"},{\"inputs\":[],\"name\":\"emergencyPaused\",\"outputs\":[{\"internalType\":\"bool\",\"name\":\"\",\"type\":\"bool\"}],\"stateMutability\":\"view\",\"type\":\"function\"},{\"inputs\":[{\"internalType\":\"uint256\",\"name\":\"id\",\"type\":\"uint256\"}],\"name\":\"executeProposal\",\"outputs\":[],\"stateMutability\":\"nonpayable\",\"type\":\"function\"},{\"inputs\":[{\"internalType\":\"address\",\"name\":\"user\",\"type\":\"address\"}],\"name\":\"getBL2PLifetime\",\"outputs\":[{\"internalType\":\"uint256\",\"name\":\"birthBlock\",\"type\":\"uint256\"},{\"internalType\":\"uint256\",\"name\":\"expiryBlock\",\"type\":\"uint256\"}],\"stateMutability\":\"view\",\"type\":\"function\"},{\"inputs\":[],\"name\":\"getIgnitionInfo\",\"outputs\":[{\"internalType\":\"bool\",\"name\":\"triggered\",\"type\":\"bool\"},{\"internalType\":\"bool\",\"name\":\"regOpen\",\"type\":\"bool\"},{\"internalType\":\"uint256\",\"name\":\"participants\",\"type\":\"uint256\"},{\"internalType\":\"uint256\",\"name\":\"maxParticipants\",\"type\":\"uint256\"},{\"internalType\":\"bool\",\"name\":\"userRegistered\",\"type\":\"bool\"},{\"internalType\":\"uint256\",\"name\":\"userAmount\",\"type\":\"uint256\"},{\"internalType\":\"bool\",\"name\":\"userClaimed\",\"type\":\"bool\"}],\"stateMutability\":\"view\",\"type\":\"function\"},{\"inputs\":[],\"name\":\"getIgnitionParticipants\",\"outputs\":[{\"internalType\":\"address[]\",\"name\":\"\",\"type\":\"address[]\"}],\"stateMutability\":\"view\",\"type\":\"function\"},{\"inputs\":[],\"name\":\"getLastProposer\",\"outputs\":[{\"internalType\":\"address\",\"name\":\"\",\"type\":\"address\"}],\"stateMutability\":\"view\",\"type\":\"function\"},{\"inputs\":[],\"name\":\"getRemainingBurnable\",\"outputs\":[{\"internalType\":\"uint256\",\"name\":\"\",\"type\":\"uint256\"}],\"stateMutability\":\"view\",\"type\":\"function\"},{\"inputs\":[{\"internalType\":\"address\",\"name\":\"user\",\"type\":\"address\"}],\"name\":\"getRemainingValidBL2P\",\"outputs\":[{\"internalType\":\"uint256\",\"name\":\"\",\"type\":\"uint256\"}],\"stateMutability\":\"view\",\"type\":\"function\"},{\"inputs\":[],\"name\":\"getTopDelegates\",\"outputs\":[{\"internalType\":\"address[]\",\"name\":\"\",\"type\":\"address[]\"}],\"stateMutability\":\"view\",\"type\":\"function\"},{\"inputs\":[],\"name\":\"governanceContract\",\"outputs\":[{\"internalType\":\"address\",\"name\":\"\",\"type\":\"address\"}],\"stateMutability\":\"view\",\"type\":\"function\"},{\"inputs\":[],\"name\":\"ignitionAirdropTriggered\",\"outputs\":[{\"internalType\":\"bool\",\"name\":\"\",\"type\":\"bool\"}],\"stateMutability\":\"view\",\"type\":\"function\"},{\"inputs\":[{\"internalType\":\"address\",\"name\":\"\",\"type\":\"address\"}],\"name\":\"ignitionClaimableAmount\",\"outputs\":[{\"internalType\":\"uint256\",\"name\":\"\",\"type\":\"uint256\"}],\"stateMutability\":\"view\",\"type\":\"function\"},{\"inputs\":[{\"internalType\":\"address\",\"name\":\"\",\"type\":\"address\"}],\"name\":\"ignitionClaimed\",\"outputs\":[{\"internalType\":\"bool\",\"name\":\"\",\"type\":\"bool\"}],\"stateMutability\":\"view\",\"type\":\"function\"},{\"inputs\":[{\"internalType\":\"uint256\",\"name\":\"\",\"type\":\"uint256\"}],\"name\":\"ignitionParticipants\",\"outputs\":[{\"internalType\":\"address\",\"name\":\"\",\"type\":\"address\"}],\"stateMutability\":\"view\",\"type\":\"function\"},{\"inputs\":[],\"name\":\"ignitionRegistrationOpen\",\"outputs\":[{\"internalType\":\"bool\",\"name\":\"\",\"type\":\"bool\"}],\"stateMutability\":\"view\",\"type\":\"function\"},{\"inputs\":[{\"internalType\":\"address\",\"name\":\"\",\"type\":\"address\"}],\"name\":\"ignitionWhitelist\",\"outputs\":[{\"internalType\":\"bool\",\"name\":\"\",\"type\":\"bool\"}],\"stateMutability\":\"view\",\"type\":\"function\"},{\"inputs\":[],\"name\":\"inactivityBurnRate\",\"outputs\":[{\"internalType\":\"uint256\",\"name\":\"\",\"type\":\"uint256\"}],\"stateMutability\":\"view\",\"type\":\"function\"},{\"inputs\":[],\"name\":\"lastAdvertisementTimestamp\",\"outputs\":[{\"internalType\":\"uint256\",\"name\":\"\",\"type\":\"uint256\"}],\"stateMutability\":\"view\",\"type\":\"function\"},{\"inputs\":[],\"name\":\"lastBurnCycleStartTimestamp\",\"outputs\":[{\"internalType\":\"uint256\",\"name\":\"\",\"type\":\"uint256\"}],\"stateMutability\":\"view\",\"type\":\"function\"},{\"inputs\":[{\"internalType\":\"address\",\"name\":\"\",\"type\":\"address\"}],\"name\":\"lastProposalTimestamp\",\"outputs\":[{\"internalType\":\"uint256\",\"name\":\"\",\"type\":\"uint256\"}],\"stateMutability\":\"view\",\"type\":\"function\"},{\"inputs\":[],\"name\":\"lastUnlockTimestamp\",\"outputs\":[{\"internalType\":\"uint256\",\"name\":\"\",\"type\":\"uint256\"}],\"stateMutability\":\"view\",\"type\":\"function\"},{\"inputs\":[{\"internalType\":\"address\",\"name\":\"\",\"type\":\"address\"}],\"name\":\"lastVoteTimestamp\",\"outputs\":[{\"internalType\":\"uint256\",\"name\":\"\",\"type\":\"uint256\"}],\"stateMutability\":\"view\",\"type\":\"function\"},{\"inputs\":[],\"name\":\"lockedReserveBalance\",\"outputs\":[{\"internalType\":\"uint256\",\"name\":\"\",\"type\":\"uint256\"}],\"stateMutability\":\"view\",\"type\":\"function\"},{\"inputs\":[],\"name\":\"maturationPeriodBlocks\",\"outputs\":[{\"internalType\":\"uint256\",\"name\":\"\",\"type\":\"uint256\"}],\"stateMutability\":\"view\",\"type\":\"function\"},{\"inputs\":[],\"name\":\"maxDelegatedBL2PPercent\",\"outputs\":[{\"internalType\":\"uint256\",\"name\":\"\",\"type\":\"uint256\"}],\"stateMutability\":\"view\",\"type\":\"function\"},{\"inputs\":[],\"name\":\"name\",\"outputs\":[{\"internalType\":\"string\",\"name\":\"\",\"type\":\"string\"}],\"stateMutability\":\"view\",\"type\":\"function\"},{\"inputs\":[],\"name\":\"owner\",\"outputs\":[{\"internalType\":\"address\",\"name\":\"\",\"type\":\"address\"}],\"stateMutability\":\"view\",\"type\":\"function\"},{\"inputs\":[{\"internalType\":\"uint256\",\"name\":\"amount\",\"type\":\"uint256\"}],\"name\":\"participateInBurn\",\"outputs\":[],\"stateMutability\":\"nonpayable\",\"type\":\"function\"},{\"inputs\":[],\"name\":\"proposalCount\",\"outputs\":[{\"internalType\":\"uint256\",\"name\":\"\",\"type\":\"uint256\"}],\"stateMutability\":\"view\",\"type\":\"function\"},{\"inputs\":[{\"internalType\":\"uint256\",\"name\":\"\",\"type\":\"uint256\"}],\"name\":\"proposals\",\"outputs\":[{\"internalType\":\"uint256\",\"name\":\"id\",\"type\":\"uint256\"},{\"internalType\":\"uint256\",\"name\":\"startBlock\",\"type\":\"uint256\"},{\"internalType\":\"uint256\",\"name\":\"endBlock\",\"type\":\"uint256\"},{\"internalType\":\"uint256\",\"name\":\"newValue\",\"type\":\"uint256\"},{\"internalType\":\"uint256\",\"name\":\"forVotes\",\"type\":\"uint256\"},{\"internalType\":\"uint256\",\"name\":\"againstVotes\",\"type\":\"uint256\"},{\"internalType\":\"address\",\"name\":\"proposer\",\"type\":\"address\"},{\"internalType\":\"address\",\"name\":\"newAddress\",\"type\":\"address\"},{\"internalType\":\"string\",\"name\":\"description\",\"type\":\"string\"},{\"internalType\":\"enum TAAMS.ProposalType\",\"name\":\"proposalType\",\"type\":\"uint8\"},{\"internalType\":\"bool\",\"name\":\"executed\",\"type\":\"bool\"}],\"stateMutability\":\"view\",\"type\":\"function\"},{\"inputs\":[{\"internalType\":\"address\",\"name\":\"\",\"type\":\"address\"}],\"name\":\"referrals\",\"outputs\":[{\"internalType\":\"address\",\"name\":\"\",\"type\":\"address\"}],\"stateMutability\":\"view\",\"type\":\"function\"},{\"inputs\":[],\"name\":\"registerForIgnitionAirdrop\",\"outputs\":[],\"stateMutability\":\"nonpayable\",\"type\":\"function\"},{\"inputs\":[],\"name\":\"renounceOwnership\",\"outputs\":[],\"stateMutability\":\"nonpayable\",\"type\":\"function\"},{\"inputs\":[{\"internalType\":\"uint256\",\"name\":\"id\",\"type\":\"uint256\"},{\"internalType\":\"bool\",\"name\":\"support\",\"type\":\"bool\"},{\"internalType\":\"bytes32\",\"name\":\"secret\",\"type\":\"bytes32\"}],\"name\":\"revealVote\",\"outputs\":[],\"stateMutability\":\"nonpayable\",\"type\":\"function\"},{\"inputs\":[],\"name\":\"revokeDelegation\",\"outputs\":[],\"stateMutability\":\"nonpayable\",\"type\":\"function\"},{\"inputs\":[{\"internalType\":\"address\",\"name\":\"newContract\",\"type\":\"address\"}],\"name\":\"setGovernanceContract\",\"outputs\":[],\"stateMutability\":\"nonpayable\",\"type\":\"function\"},{\"inputs\":[{\"internalType\":\"bool\",\"name\":\"isOpen\",\"type\":\"bool\"}],\"name\":\"setIgnitionRegistrationStatus\",\"outputs\":[],\"stateMutability\":\"nonpayable\",\"type\":\"function\"},{\"inputs\":[{\"internalType\":\"uint256\",\"name\":\"amount\",\"type\":\"uint256\"}],\"name\":\"stake\",\"outputs\":[],\"stateMutability\":\"nonpayable\",\"type\":\"function\"},{\"inputs\":[{\"internalType\":\"address\",\"name\":\"\",\"type\":\"address\"}],\"name\":\"stakes\",\"outputs\":[{\"internalType\":\"uint256\",\"name\":\"amount\",\"type\":\"uint256\"},{\"internalType\":\"uint256\",\"name\":\"startBlock\",\"type\":\"uint256\"},{\"internalType\":\"uint256\",\"name\":\"bl2pBoost\",\"type\":\"uint256\"},{\"internalType\":\"bool\",\"name\":\"active\",\"type\":\"bool\"}],\"stateMutability\":\"view\",\"type\":\"function\"},{\"inputs\":[{\"internalType\":\"string\",\"name\":\"desc\",\"type\":\"string\"},{\"internalType\":\"uint256\",\"name\":\"newValue\",\"type\":\"uint256\"},{\"internalType\":\"address\",\"name\":\"newAddress\",\"type\":\"address\"},{\"internalType\":\"enum TAAMS.ProposalType\",\"name\":\"proposalType\",\"type\":\"uint8\"}],\"name\":\"submitProposal\",\"outputs\":[],\"stateMutability\":\"nonpayable\",\"type\":\"function\"},{\"inputs\":[],\"name\":\"symbol\",\"outputs\":[{\"internalType\":\"string\",\"name\":\"\",\"type\":\"string\"}],\"stateMutability\":\"view\",\"type\":\"function\"},{\"inputs\":[{\"internalType\":\"uint256\",\"name\":\"\",\"type\":\"uint256\"}],\"name\":\"topDelegates\",\"outputs\":[{\"internalType\":\"address\",\"name\":\"\",\"type\":\"address\"}],\"stateMutability\":\"view\",\"type\":\"function\"},{\"inputs\":[],\"name\":\"totalBurned\",\"outputs\":[{\"internalType\":\"uint256\",\"name\":\"\",\"type\":\"uint256\"}],\"stateMutability\":\"view\",\"type\":\"function\"},{\"inputs\":[{\"internalType\":\"address\",\"name\":\"\",\"type\":\"address\"}],\"name\":\"totalContributions\",\"outputs\":[{\"internalType\":\"uint256\",\"name\":\"\",\"type\":\"uint256\"}],\"stateMutability\":\"view\",\"type\":\"function\"},{\"inputs\":[],\"name\":\"totalStaked\",\"outputs\":[{\"internalType\":\"uint256\",\"name\":\"\",\"type\":\"uint256\"}],\"stateMutability\":\"view\",\"type\":\"function\"},{\"inputs\":[],\"name\":\"totalSupply\",\"outputs\":[{\"internalType\":\"uint256\",\"name\":\"\",\"type\":\"uint256\"}],\"stateMutability\":\"view\",\"type\":\"function\"},{\"inputs\":[{\"internalType\":\"address\",\"name\":\"recipient\",\"type\":\"address\"},{\"internalType\":\"uint256\",\"name\":\"amount\",\"type\":\"uint256\"}],\"name\":\"transfer\",\"outputs\":[{\"internalType\":\"bool\",\"name\":\"\",\"type\":\"bool\"}],\"stateMutability\":\"nonpayable\",\"type\":\"function\"},{\"inputs\":[{\"internalType\":\"address\",\"name\":\"to\",\"type\":\"address\"},{\"internalType\":\"uint256\",\"name\":\"amount\",\"type\":\"uint256\"}],\"name\":\"transferBL2P\",\"outputs\":[],\"stateMutability\":\"nonpayable\",\"type\":\"function\"},{\"inputs\":[{\"internalType\":\"address\",\"name\":\"sender\",\"type\":\"address\"},{\"internalType\":\"address\",\"name\":\"recipient\",\"type\":\"address\"},{\"internalType\":\"uint256\",\"name\":\"amount\",\"type\":\"uint256\"}],\"name\":\"transferFrom\",\"outputs\":[{\"internalType\":\"bool\",\"name\":\"\",\"type\":\"bool\"}],\"stateMutability\":\"nonpayable\",\"type\":\"function\"},{\"inputs\":[{\"internalType\":\"address\",\"name\":\"newOwner\",\"type\":\"address\"}],\"name\":\"transferOwnership\",\"outputs\":[],\"stateMutability\":\"nonpayable\",\"type\":\"function\"},{\"inputs\":[],\"name\":\"triggerIgnitionAirdrop\",\"outputs\":[],\"stateMutability\":\"nonpayable\",\"type\":\"function\"},{\"inputs\":[],\"name\":\"trustedRecipient\",\"outputs\":[{\"internalType\":\"address\",\"name\":\"\",\"type\":\"address\"}],\"stateMutability\":\"view\",\"type\":\"function\"},{\"inputs\":[],\"name\":\"unstake\",\"outputs\":[],\"stateMutability\":\"nonpayable\",\"type\":\"function\"},{\"inputs\":[{\"internalType\":\"address\",\"name\":\"user\",\"type\":\"address\"}],\"name\":\"updateBL2PMaturity\",\"outputs\":[],\"stateMutability\":\"nonpayable\",\"type\":\"function\"},{\"inputs\":[{\"internalType\":\"uint256\",\"name\":\"bl2pAmount\",\"type\":\"uint256\"}],\"name\":\"useBL2PForStaking\",\"outputs\":[],\"stateMutability\":\"nonpayable\",\"type\":\"function\"},{\"inputs\":[{\"internalType\":\"address[]\",\"name\":\"users\",\"type\":\"address[]\"}],\"name\":\"verifyBL2PIntegrity\",\"outputs\":[{\"internalType\":\"bool\",\"name\":\"isValid\",\"type\":\"bool\"},{\"internalType\":\"uint256\",\"name\":\"totalBL2P\",\"type\":\"uint256\"}],\"stateMutability\":\"view\",\"type\":\"function\"}]);\nvar taams = taamsContract.deploy({\n     data: '0x6101206040526b204fce5e3e250261100000006080526b169e43a85eb381aa5800000060a0526b019d971e4fe8401e7400000060c0526b033b2e3c9fd0803ce800000060e0819052610100526a52b7d2dcc80cd2e4000000600f5560056012556a084595161401484a00000060135560326014908155612710601955620186a0601a556001601b55601c55601d805460ff60a81b1916600160a81b179055348015620000a9575f80fd5b506040516200580b3803806200580b833981016040819052620000cc91620003b6565b6040805180820182526005808252645441414d5360d81b6020808401829052845180860190955291845290830152829160036200010a838262000485565b50600462000119828262000485565b50506001600555506001600160a01b0381166200015057604051631e4fbdf760e01b81525f60048201526024015b60405180910390fd5b6200015b81620001fa565b507394f7a6fd45185038ddb85ed43c6707ddab806ffe734ff3d1d554f080b0682a780c8531178ddd99f5466b19d971e4fe8401e7400000006b033b2e3c9fd0803ce800000080620001ad30846200024b565b620001b984836200024b565b620001c585826200024b565b5050426017555050600780546001600160a01b0319166001600160a01b03929092169190911790555060a051600a5562000573565b600680546001600160a01b038381166001600160a01b0319831681179093556040519116919082907f8be0079c531659141344cd1fd0a4f28419497f9722a3daafe3b4186f6b6457e0905f90a35050565b6001600160a01b038216620002765760405163ec442f0560e01b81525f600482015260240162000147565b620002835f838362000287565b5050565b6001600160a01b038316620002b5578060025f828254620002a991906200054d565b90915550620003279050565b6001600160a01b0383165f9081526020819052604090205481811015620003095760405163391434e360e21b81526001600160a01b0385166004820152602481018290526044810183905260640162000147565b6001600160a01b0384165f9081526020819052604090209082900390555b6001600160a01b038216620003455760028054829003905562000363565b6001600160a01b0382165f9081526020819052604090208054820190555b816001600160a01b0316836001600160a01b03167fddf252ad1be2c89b69c2b068fc378daa952ba7f163c4a11628f55a4df523b3ef83604051620003a991815260200190565b60405180910390a3505050565b5f60208284031215620003c7575f80fd5b81516001600160a01b0381168114620003de575f80fd5b9392505050565b634e487b7160e01b5f52604160045260245ffd5b600181811c908216806200040e57607f821691505b6020821081036200042d57634e487b7160e01b5f52602260045260245ffd5b50919050565b601f82111562000480575f81815260208120601f850160051c810160208610156200045b5750805b601f850160051c820191505b818110156200047c5782815560010162000467565b5050505b505050565b81516001600160401b03811115620004a157620004a1620003e5565b620004b981620004b28454620003f9565b8462000433565b602080601f831160018114620004ef575f8415620004d75750858301515b5f19600386901b1c1916600185901b1785556200047c565b5f85815260208120601f198616915b828110156200051f57888601518255948401946001909101908401620004fe565b50858210156200053d57878501515f19600388901b60f8161c191681555b5050505050600190811b01905550565b808201808211156200056d57634e487b7160e01b5f52601160045260245ffd5b92915050565b60805160a05160c05160e051610100516151ea620006215f395f818161083e01528181611e8d0152818161206e015281816120a0015281816120e501528181612435015281816124af015281816124f40152818161251c0152818161275001528181613f3e0152818161446401526144bf01525f8181610b2e015281816121bd0152612bdb01525f8181610c9d0152612c6201525f61073501525f8181610706015261414701526151ea5ff3fe608060405234801561000f575f80fd5b50600436106104e7575f3560e01c8063786ff4be1161028f578063a9059cbb11610161578063d89135cd116100d5578063e016a04c1161008f578063e016a04c14610cbf578063e2a6ec7814610cd2578063f2fde38b14610cf1578063f5f1e6b014610d04578063facc092f14610d2e578063fbea5b3b14610d41575f80fd5b8063d89135cd14610c05578063da35c66414610c0e578063dcfcf97414610c17578063dd62ed3e14610c41578063de1cf4ad14610c79578063dfc06c2914610c98575f80fd5b8063ba59931d11610126578063ba59931d14610b63578063bcea610e14610b76578063c998c53f14610b98578063ca409d8114610bd6578063ccd82cd614610be9578063d2e518c514610bf2575f80fd5b8063a9059cbb14610afb578063b08e181e14610b0e578063b172b22214610b16578063b4ac453614610b29578063b8fca4fc14610b50575f80fd5b806395d89b41116102035780639ca423b3116101bd5780639ca423b314610a945780639da6918014610abc578063a0ef4d0e14610acf578063a2906fd014610ad8578063a4d3180514610ae0578063a694fc3a14610ae8575f80fd5b806395d89b41146109ed57806396adbf8c146109f55780639885b7e114610a0257806399aa12bb14610a175780639a63f60414610a835780639bfdae5e14610a8b575f80fd5b80637f09dc31116102545780637f09dc311461099b57806380a78549146109ae578063817b1cd2146109b75780638da5cb5b146109c0578063926f7327146109d1578063938d40e8146109e4575f80fd5b8063786ff4be146109125780637bde5df8146109255780637c7e62e5146109385780637d58aeb61461095a5780637ed3deba1461097c575f80fd5b8063302a6528116103c85780635162f6261161033c578063715018a6116102f6578063715018a61461089157806372677d3c1461089957806372dfe348146108ab57806372f721ac146108ca57806376c8f6d1146108d357806377d217ed146108e7575f80fd5b80635162f626146108145780635778712c1461081c5780636a9b1fbf146108305780636d0e4378146108395780636dbfad911461086057806370a0823114610869575f80fd5b80633667ca1b1161038d5780633667ca1b146107305780633cc39f161461075757806340d74f1814610779578063413236f7146107f857806344512ca614610801578063467f67f91461080a575f80fd5b8063302a6528146106d657806330373133146106df578063313ce567146106f257806332cb6b0c146107015780633426ea4614610728575f80fd5b80631aecc93a1161045f57806325ac2b921161042457806325ac2b921461068e57806327a489e3146106a157806327c830a9146106a9578063297a97d7146106bc5780632def6620146106c55780632e80d9b6146106cd575f80fd5b80631aecc93a146106385780631e40912714610640578063200957601461065f57806321226f401461067257806323b872dd1461067b575f80fd5b80630f1a2905116104b05780630f1a2905146105935780631129753f1461059c5780631247d4f7146105af57806316934fc4146105ce57806318160ddd14610627578063184d1b931461062f575f80fd5b8062429bd1146104eb578063013cf08b1461051c57806306fdde0314610546578063095ea7b31461055b5780630d61b5191461057e575b5f80fd5b6105096104f9366004614a4f565b602080525f908152604090205481565b6040519081526020015b60405180910390f35b61052f61052a366004614a68565b610d69565b6040516105139b9a99989796959493929190614af6565b61054e610e5a565b6040516105139190614b70565b61056e610569366004614b82565b610eea565b6040519015158152602001610513565b61059161058c366004614a68565b610f03565b005b61050960125481565b6105916105aa366004614a4f565b6113f9565b6105096105bd366004614a68565b601f6020525f908152604090205481565b6106056105dc366004614a4f565b60296020525f908152604090208054600182015460028301546003909301549192909160ff1684565b6040805194855260208501939093529183015215156060820152608001610513565b600254610509565b610509601a5481565b6105916114d7565b61050961064e366004614a4f565b60286020525f908152604090205481565b61059161066d366004614a4f565b611670565b61050960155481565b61056e610689366004614baa565b6119a4565b61059161069c366004614bf2565b611a40565b610591611acc565b60095461056e9062010000900460ff1681565b61050960175481565b610591611b11565b61050960135481565b610509600d5481565b6105916106ed366004614c0b565b611d3a565b60405160128152602001610513565b6105097f000000000000000000000000000000000000000000000000000000000000000081565b61050961205d565b6105097f000000000000000000000000000000000000000000000000000000000000000081565b61056e610765366004614a4f565b602c6020525f908152604090205460ff1681565b601d54602d54335f908152602a6020908152604080832054602b835281842054602c84529382902054825160ff600160a01b8904811615158252600160a81b9098048816151594810194909452918301949094526103e860608301529284161515608082015260a08101919091529116151560c082015260e001610513565b610509601c5481565b610509600c5481565b61050962278d0081565b61059161213d565b601d5461056e90600160a01b900460ff1681565b610509600a5481565b6105097f000000000000000000000000000000000000000000000000000000000000000081565b610509600e5481565b610509610877366004614a4f565b6001600160a01b03165f9081526020819052604090205490565b61059161221c565b60095461056e90610100900460ff1681565b6105096108b9366004614a4f565b60086020525f908152604090205481565b61050960195481565b601d5461056e90600160a81b900460ff1681565b6108fa6108f5366004614a68565b61232d565b6040516001600160a01b039091168152602001610513565b6108fa610920366004614a68565b612355565b610591610933366004614a68565b612364565b61056e610946366004614a4f565b602a6020525f908152604090205460ff1681565b6016545f908152602460205260409020600601546001600160a01b03166108fa565b61050961098a366004614a4f565b60216020525f908152604090205481565b6105916109a9366004614a4f565b6127d3565b61050960185481565b61050960115481565b6006546001600160a01b03166108fa565b6105916109df366004614b82565b612879565b610509600f5481565b61054e612afc565b60095461056e9060ff1681565b610a0a612b0b565b6040516105139190614c7a565b610a58610a25366004614a4f565b60276020525f908152604090208054600182015460028301546003909301546001600160a01b0392831693919092169184565b604080516001600160a01b039586168152949093166020850152918301526060820152608001610513565b610591612b6a565b61050960105481565b6108fa610aa2366004614a4f565b60226020525f90815260409020546001600160a01b031681565b610591610aca366004614cc6565b612d81565b61050960145481565b610591612ec1565b610591612ff0565b610591610af6366004614a68565b613133565b61056e610b09366004614b82565b6132d1565b610a0a61334e565b601d546108fa906001600160a01b031681565b6105097f000000000000000000000000000000000000000000000000000000000000000081565b610591610b5e366004614b82565b6133ac565b610509610b71366004614a4f565b6134dc565b610b89610b84366004614a68565b61366c565b60405161051393929190614ce6565b610bc1610ba6366004614a4f565b60256020525f90815260409020805460019091015460ff1682565b60408051928352901515602083015201610513565b610591610be4366004614a68565b613714565b610509601b5481565b6007546108fa906001600160a01b031681565b610509600b5481565b61050960165481565b610c2a610c25366004614c0b565b61388d565b604080519215158352602083019190915201610513565b610509610c4f366004614d0d565b6001600160a01b039182165f90815260016020908152604080832093909416825291909152205490565b610509610c87366004614a4f565b60266020525f908152604090205481565b6105097f000000000000000000000000000000000000000000000000000000000000000081565b610591610ccd366004614d60565b61397e565b610509610ce0366004614a4f565b602b6020525f908152604090205481565b610591610cff366004614a4f565b613b8b565b610509610d12366004614e35565b601e60209081525f928352604080842090915290825290205481565b610591610d3c366004614e56565b613bc5565b610d54610d4f366004614a4f565b613dda565b60408051928352602083019190915201610513565b60246020525f90815260409020805460018201546002830154600384015460048501546005860154600687015460078801546008890180549899979896979596949593946001600160a01b03938416949290931692610dc790614e78565b80601f0160208091040260200160405190810160405280929190818152602001828054610df390614e78565b8015610e3e5780601f10610e1557610100808354040283529160200191610e3e565b820191905f5260205f20905b815481529060010190602001808311610e2157829003601f168201915b5050506009909301549192505060ff808216916101009004168b565b606060038054610e6990614e78565b80601f0160208091040260200160405190810160405280929190818152602001828054610e9590614e78565b8015610ee05780601f10610eb757610100808354040283529160200191610ee0565b820191905f5260205f20905b815481529060010190602001808311610ec357829003601f168201915b5050505050905090565b5f33610ef7818585613e28565b60019150505b92915050565b610f0b613e3a565b60095462010000900460ff1615610f355760405163ab35696f60e01b815260040160405180910390fd5b5f8181526024602052604081206001810154909103610f6757604051636ce3c70160e11b815260040160405180910390fd5b80600201544211610f8b57604051630cd7c29960e21b815260040160405180910390fd5b6009810154610100900460ff1615610fb65760405163cf88c65760e01b815260040160405180910390fd5b60135481600501548260040154610fcd9190614ec4565b101561104557817f2a15f4605f8e68cbaccd2234253a8189163d500a6f60c1751405443ca1562beb604051611024906020808252600e908201526d145d5bdc9d5b481b9bdd081b595d60921b604082015260600190565b60405180910390a2604051636bcf412560e11b815260040160405180910390fd5b5f8160050154826004015461105a9190614ec4565b90505f8183600401546127106110709190614ed7565b61107a9190614eee565b9050601454606461108b9190614ed7565b811161110b57837f2a15f4605f8e68cbaccd2234253a8189163d500a6f60c1751405443ca1562beb6040516110ea90602080825260169082015275159bdd19481d1a1c995cda1bdb19081b9bdd081b595d60521b604082015260600190565b60405180910390a26040516314b8741160e11b815260040160405180910390fd5b60098301805461010061ff001982161790915560039060ff16600b81111561113557611135614ac2565b0361121d57629e340060155461114b9190614ec4565b42101561116b57604051637a24249560e11b815260040160405180910390fd5b600a5483600301541115611192576040516328b35f2160e01b815260040160405180910390fd5b600683015460038401546111b39130916001600160a01b0390911690613e64565b8260030154600a5f8282546111c89190614f0d565b9091555050426015556003830154600a546040517fe49db96a72e85d04778bb78627173221c08f5acaa50eaef5b0d94c0a8c1589b19261121092908252602082015260400190565b60405180910390a1611390565b6004600984015460ff16600b81111561123857611238614ac2565b03611277576003830154600a8190556040519081527f9ed927e3681de11fbc3fc5547d178d8a2655c3aaafd6d8704edc6ee7e70b838990602001611210565b6005600984015460ff16600b81111561129257611292614ac2565b036112d95782546040517f56e668e6eab92a31285f3c1809ce67652b2348579b6c5349bad3f2e9c00399a1906112cc906008870190614f20565b60405180910390a2611390565b60098084015460ff16600b8111156112f3576112f3614ac2565b0361133257600383015460138190556040519081527ff18f88786aae85a652aadb99a82462616489a33370c9bcc7b245906812ef7cd190602001611210565b600a600984015460ff16600b81111561134d5761134d614ac2565b0361139057600383015460148190556040519081527fc4f218f6e084beba806111ae2727cb7afb13d7647aef44c4d90b5f3c9cbe59c79060200160405180910390a15b6009830154600384015460078501546113b69260ff1691906001600160a01b0316613eb6565b6040518481527f75d3599dc8e39a81249f199fec177d092f6585b12894a2b393d54a28c315785c9060200160405180910390a15050506113f66001600555565b50565b601d546001600160a01b0316331480159061141f57506006546001600160a01b03163314155b1561143d5760405163ea8e4eb560e01b815260040160405180910390fd5b6001600160a01b0381166114645760405163e6c4247b60e01b815260040160405180910390fd5b806001600160a01b03163b5f0361148e57604051636f7c43f160e01b815260040160405180910390fd5b601d80546001600160a01b0319166001600160a01b0383169081179091556040517fe3cf2b71b55b62fc1a6c7b2f6ff944c1b70048908cff22f2e08d1144e7ca7edb905f90a250565b6114df613e3a565b60095462010000900460ff16156115095760405163ab35696f60e01b815260040160405180910390fd5b3332146115315760405162461bcd60e51b815260040161152890614fa5565b60405180910390fd5b601d54600160a81b900460ff1661155b57604051632fc209f360e01b815260040160405180910390fd5b602d546103e81161157f57604051636c8c8d2160e01b815260040160405180910390fd5b335f908152602a602052604090205460ff16156115af57604051630ea075bf60e21b815260040160405180910390fd5b336115cd5760405163e6c4247b60e01b815260040160405180910390fd5b335f818152602a6020526040808220805460ff19166001908117909155602d80549182018155928390527f4a2cc91ee622da3bc833a54c37ffcb6f3ec23b7793efc5eaf5e71b7b406c5c060180546001600160a01b03191684179055905490517ff41d185d95ff1e597498c6efb9f4539bd988fdccc50f710d8a8184638d6046609161165c9190815260200190565b60405180910390a261166e6001600555565b565b611678613e3a565b60095462010000900460ff16156116a25760405163ab35696f60e01b815260040160405180910390fd5b80336001600160a01b038216148015906116c75750601d546001600160a01b03163314155b156116e55760405163ea8e4eb560e01b815260040160405180910390fd5b6116ee826134dc565b5f0361170d5760405163e100018160e01b815260040160405180910390fd5b6001600160a01b0382165f90815260256020526040902080546001600160801b0316428111156117505760405163026dd1ff60e51b815260040160405180910390fd5b5f61175a856134dc565b6001600160a01b0386165f908152602080526040902054909150811015611888576001600160a01b0385165f90815260208052604081205461179d908390614f0d565b90506117a98682614236565b856001600160a01b03167fe24abf0a1d8bdc06e382a8fc7157cd6c08495c024ceb329ec6c98f6c795fc26c826040516117e491815260200190565b60405180910390a26001600160a01b038681165f908152602760205260409020600101541615611886576001600160a01b038087165f908152602760209081526040808320600101549093168252602890529081208054839290611849908490614f0d565b90915550506001600160a01b038087165f90815260276020908152604080832060010154909316808352602890915291902054611886919061426a565b505b814210611996576001600160a01b0385165f908152602560205260408120908155600101805460ff191690556118be8582614236565b6001600160a01b038581165f908152602760205260409020600101541615611996576001600160a01b038086165f90815260276020908152604080832060010154909316825260289052908120805483929061191b908490614f0d565b90915550506001600160a01b038086165f90815260276020908152604080832060010154909316808352602890915291902054611958919061426a565b6001600160a01b0385165f90815260276020526040812080546001600160a01b03199081168255600182018054909116905560028101829055600301555b505050506113f66001600555565b6009545f9062010000900460ff16156119d05760405163ab35696f60e01b815260040160405180910390fd5b6001600160a01b03841615806119ed57506001600160a01b038316155b15611a0b5760405163e6c4247b60e01b815260040160405180910390fd5b5f611a178585856143d5565b9050808015611a29575060095460ff16155b15611a3657611a3661213d565b90505b9392505050565b601d546001600160a01b03163314801590611a6657506006546001600160a01b03163314155b15611a845760405163ea8e4eb560e01b815260040160405180910390fd5b601d805460ff60a81b1916600160a81b831515908102919091179091556040517f0ca89418516f56a1e463de3ed0de4a3795c57fb729015a5c16f20dd1200a29dd905f90a250565b611ad4613e3a565b60095462010000900460ff1615611afe5760405163ab35696f60e01b815260040160405180910390fd5b611b07336143f8565b61166e6001600555565b611b19613e3a565b60095462010000900460ff1615611b435760405163ab35696f60e01b815260040160405180910390fd5b333214611b625760405162461bcd60e51b815260040161152890614fa5565b335f908152602960205260409020600381015460ff16611b9557604051637d9a44a160e11b815260040160405180910390fd5b5f816001015442611ba69190614f0d565b90505f62278d00611bbf83670de0b6b3a7640000614ed7565b611bc99190614eee565b90505f68056bc75e2d6310000082601254865f0154611be89190614ed7565b611bf29190614ed7565b611bfc9190614eee565b905083600201545f14611c3957678ac7230489e80000846002015482611c229190614ed7565b611c2c9190614eee565b611c369082614ec4565b90505b8354611c489030903390613e64565b8354601180545f90611c5b908490614f0d565b90915550508015801590611c765750611c73336134dc565b15155b15611cbc57611c86303383613e64565b60405181815233907f6dd401e61ba732582a5eba3d54ccc3afb3609cd3ac1a166d1d36f75fc0aedcda9060200160405180910390a25b335f818152602960205260408082208281556001810183905560028101929092556003909101805460ff19169055855490517f7fc4727e062e336010f2c282598ef5f14facb3de68cf8195c2f23e1454b2b74e91611d24914290918252602082015260400190565b60405180910390a25050505061166e6001600555565b611d42613e3a565b60095462010000900460ff1615611d6c5760405163ab35696f60e01b815260040160405180910390fd5b6032811115611d8e5760405163d593165760e01b815260040160405180910390fd5b805f8167ffffffffffffffff811115611da957611da9614d3e565b604051908082528060200260200182016040528015611dd2578160200160208202803683370190505b506010549091505f5b83811015611ff7575f868683818110611df657611df6614fd4565b9050602002016020810190611e0b9190614a4f565b90506001600160a01b038116611e345760405163e6c4247b60e01b815260040160405180910390fd5b6001600160a01b0381165f908152602080526040902054158015611e6e57506001600160a01b0381165f9081526021602052604090205415155b15611fe5576001600160a01b0381165f908152602160205260408120547f000000000000000000000000000000000000000000000000000000000000000090611ec4906b033b2e3c9fd0803ce800000090614ed7565b611ece9190614eee565b90506103e8841015611f09576064611ee7600a83614ed7565b611ef19190614eee565b611efb9082614ec4565b9050611f0684614fe8565b93505b805f03611f17575050611fe7565b6001600160a01b038083165f90815260226020526040902054168015611fa0575f6064611f45600585614ed7565b611f4f9190614eee565b9050611f5b828261464b565b816001600160a01b03167f050bae3eeefac62a4ee36c766f4f426f09edf96ae8fb3034ebbf961e4acc78e282604051611f9691815260200190565b60405180910390a2505b6001600160a01b0383165f9081526020805260409020829055611fc3838361464b565b81868581518110611fd657611fd6614fd4565b60200260200101818152505050505b505b611ff081614fe8565b9050611ddb565b50601081905560405161200d9086908690615000565b60405180910390207f6d0c10e0399ef884a3729fe88266e321a043ae7f4d6d12afb75539720cfab71b83604051612044919061503f565b60405180910390a25050506120596001600555565b5050565b6009545f9060ff16158061209357507f0000000000000000000000000000000000000000000000000000000000000000600b5410155b1561209d57505f90565b5f7f0000000000000000000000000000000000000000000000000000000000000000600f54600b546120cf9190614ec4565b116120dc57600f54612109565b600b54612109907f0000000000000000000000000000000000000000000000000000000000000000614f0d565b600d545f908152601f6020526040902054909150818110156121345761212f8183614f0d565b612136565b5f5b9250505090565b60095462010000900460ff16156121675760405163ab35696f60e01b815260040160405180910390fd5b60095460ff1661166e57600a545f80805260208190527fad3228b676f7d3cd4284a5443f17f1962b36e491b30a40b2405849e597ba5fb5549091906002546121af9190614f0d565b6121b99190614f0d565b90507f000000000000000000000000000000000000000000000000000000000000000081106113f6576009805460ff1916600117905560405142907f60dc7136ae550f48cfeb4a0c4e69de31959531f869bd784a65dbc2c175f0b4a6905f90a250565b61222461467f565b305f908152602081905260409020546b033b2e3c9fd0803ce8000000111561225f5760405163786e0a9960e01b815260040160405180910390fd5b601d546001600160a01b0316612288576040516351ab837960e01b815260040160405180910390fd5b6007546122ac9030906001600160a01b03166b033b2e3c9fd0803ce8000000613e64565b6b033b2e3c9fd0803ce8000000600a5f8282546122c99190614f0d565b909155506122d890505f6146ac565b305f90815260208181526040918290205482516b033b2e3c9fd0803ce800000081529182015281517fe49db96a72e85d04778bb78627173221c08f5acaa50eaef5b0d94c0a8c1589b1929181900390910190a1565b602e818154811061233c575f80fd5b5f918252602090912001546001600160a01b0316905081565b602d818154811061233c575f80fd5b61236c613e3a565b60095462010000900460ff16156123965760405163ab35696f60e01b815260040160405180910390fd5b3332146123b55760405162461bcd60e51b815260040161152890614fa5565b60095460ff166123d857604051634523291560e01b815260040160405180910390fd5b805f036123f8576040516365e52d5160e11b815260040160405180910390fd5b335f9081526020819052604090205481111561242757604051631e9acf1760e31b815260040160405180910390fd5b600c544211801561245957507f0000000000000000000000000000000000000000000000000000000000000000600b54105b1561248957600d5f815461246c90614fe8565b9091555042600e819055612485906301e1338090614ec4565b600c555b600c544211156124ac5760405163e04b200160e01b815260040160405180910390fd5b5f7f0000000000000000000000000000000000000000000000000000000000000000600f54600b546124de9190614ec4565b116124eb57600f54612518565b600b54612518907f0000000000000000000000000000000000000000000000000000000000000000614f0d565b90507f000000000000000000000000000000000000000000000000000000000000000082600b546125499190614ec4565b11806125705750600d545f908152601f6020526040902054819061256e908490614ec4565b115b1561258e576040516387d5b4fb60e01b815260040160405180910390fd5b5f612598336134dc565b5f036125a4575f6125bb565b60646125b1846005614ed7565b6125bb9190614eee565b90506125c73384614236565b82600b5f8282546125d89190614ec4565b9091555050600d545f908152601f6020526040812080548592906125fd908490614ec4565b9091555050600d545f908152601e602090815260408083203384529091528120805485929061262d908490614ec4565b9091555050335f9081526021602052604081208054859290612650908490614ec4565b909155505080156126fe5780600b5f82825461266c9190614ec4565b9091555050600d545f908152601f602052604081208054839290612691908490614ec4565b9091555050335f90815260216020526040812080548392906126b4908490614ec4565b9091555050600d5460405133917f4c97ae41d96b9d1b707eb19904c08873168d11c83d16d121546ef8213f3c4078916126f591858252602082015260400190565b60405180910390a25b337f19783b34589160c168487dc7f9c51ae0bcefe67a47d6708fba90f6ce0366d3d161272a8386614ec4565b600b54600d546040805193845260208401929092529082015260600160405180910390a27f0000000000000000000000000000000000000000000000000000000000000000600b54101580156127885750600954610100900460ff16155b156127c7576009805461ff00191661010017905560405142907f487f0d08255b66d07fa5d32380f37fc9845759c2c886edb198e5a083cc8dfb4a905f90a25b50506113f66001600555565b6127dc816134dc565b5f036127e55750565b6001600160a01b0381165f908152602560205260409020600181015460ff161580156128225750601954815461281e919060801c614ec4565b4210155b15612059576001818101805460ff1916821790556040519081526001600160a01b038316907f901c366748c1200897e79f66edad4e674060ebab48cb1aff438e4504e79ed67e906020015b60405180910390a25050565b612881613e3a565b60095462010000900460ff16156128ab5760405163ab35696f60e01b815260040160405180910390fd5b6001600160a01b03821615806128c957506001600160a01b03821633145b156128e757604051632d618d8160e21b815260040160405180910390fd5b8015806128fb57506128f8336134dc565b81115b15612919576040516365e52d5160e11b815260040160405180910390fd5b335f908152602760205260409020600101546001600160a01b03161561295257604051636269cf4960e01b815260040160405180910390fd5b61295b336127d3565b335f9081526025602052604090206001015460ff1661298d57604051631878f08160e01b815260040160405180910390fd5b5f6064601c5461299c856134dc565b6129a69190614ed7565b6129b09190614eee565b6001600160a01b0384165f9081526028602052604090205490915081906129d8908490614ec4565b11156129f7576040516304bd2b1960e21b815260040160405180910390fd5b60408051608081018252338082526001600160a01b03868116602080850182815285870189815242606088019081525f96875260278452888720975188549087166001600160a01b031991821617895592516001890180549190971693169290921790945592516002860155915160039094019390935591815260289091529081208054849290612a89908490614ec4565b90915550506001600160a01b0383165f90815260286020526040902054612ab190849061426a565b6040518281526001600160a01b0384169033907ff5c2b450c3b6c4c3cc8c45e612ffa5ce51cda974e8b2ecaf58abda86d89658479060200160405180910390a3506120596001600555565b606060048054610e6990614e78565b6060602e805480602002602001604051908101604052809291908181526020018280548015610ee057602002820191905f5260205f20905b81546001600160a01b03168152600190910190602001808311612b43575050505050905090565b601d546001600160a01b03163314801590612b9057506006546001600160a01b03163314155b15612bae5760405163ea8e4eb560e01b815260040160405180910390fd5b601d54600160a01b900460ff1615612bd9576040516387ceab0160e01b815260040160405180910390fd5b7f0000000000000000000000000000000000000000000000000000000000000000612c0360025490565b1015612c22576040516390d0cc4760e01b815260040160405180910390fd5b602d545f03612c44576040516308b6a47360e41b815260040160405180910390fd5b601d805461ffff60a01b1916600160a01b179055602d545f612c86827f0000000000000000000000000000000000000000000000000000000000000000614eee565b90505f5b82811015612d4e575f602d8281548110612ca657612ca6614fd4565b5f918252602090912001546001600160a01b0316905080612cda5760405163e6c4247b60e01b815260040160405180910390fd5b826064831015612d02576064612cf1826096614ed7565b612cfb9190614eee565b9050612d25565b60c8831015612d25576064612d1882607d614ed7565b612d229190614eee565b90505b6001600160a01b039091165f908152602b6020526040902055612d4781614fe8565b9050612c8a565b50427f8f775ac6a67a8155177eacf03d476a0ada0e0de8671dcdb12b65c6e241d7ea1c8360405161286d91815260200190565b60095462010000900460ff1615612dab5760405163ab35696f60e01b815260040160405180910390fd5b5f8281526024602052604081206001810154909103612ddd57604051636ce3c70160e11b815260040160405180910390fd5b8060010154421080612df25750806002015442115b15612e1057604051632dfa5c9b60e01b815260040160405180910390fd5b335f908152600a8201602052604090205460ff1615612e4257604051637c9a1cf960e01b815260040160405180910390fd5b6009810154610100900460ff1615612e6d5760405163cf88c65760e01b815260040160405180910390fd5b335f818152600b83016020526040908190208490555184907f1f4e2aa7825ef02e85293e2de66cfbcb326af2632b558996e546bb1ef3e8764d90612eb49086815260200190565b60405180910390a3505050565b612ec9613e3a565b601d54600160a01b900460ff16612ef3576040516387ceab0160e01b815260040160405180910390fd5b335f908152602a602052604090205460ff16612f2257604051630b094f2760e31b815260040160405180910390fd5b335f908152602c602052604090205460ff1615612f5257604051630c8d9eab60e31b815260040160405180910390fd5b335f908152602b60205260408120549003612f805760405163493c1ab760e01b815260040160405180910390fd5b335f818152602b6020908152604080832054602c909252909120805460ff1916600117905590612fb0908261464b565b60405181815233907f297d75eb990c12692c7028b6d2cf422c5de200715ccf4cb9497c7ff567029cdf9060200160405180910390a25061166e6001600555565b612ff8613e3a565b60095462010000900460ff16156130225760405163ab35696f60e01b815260040160405180910390fd5b335f908152602760205260409020600101546001600160a01b031661305a5760405163e1e4e59b60e01b815260040160405180910390fd5b335f90815260276020908152604080832060018101546002909101546001600160a01b0390911680855260289093529083208054929391928392906130a0908490614f0d565b9091555050335f90815260276020908152604080832080546001600160a01b031990811682556001820180549091169055600281018490556003018390556001600160a01b038516835260289091529020546130fd90839061426a565b60405133907f6b2e7b08f80aedc85dfabf602e4cd41ccf8a9caa2961dd13719c71c3ff65bbc7905f90a2505061166e6001600555565b61313b613e3a565b60095462010000900460ff16156131655760405163ab35696f60e01b815260040160405180910390fd5b3332146131845760405162461bcd60e51b815260040161152890614fa5565b683635c9adc5dea000008110156131ae57604051638ecf3d0360e01b815260040160405180910390fd5b335f908152602081905260409020548111156131dd57604051631e9acf1760e31b815260040160405180910390fd5b335f9081526029602052604090206003015460ff161561321057604051633e560afd60e11b815260040160405180910390fd5b61321b3330836119a4565b50604080516080810182528281524260208083019182525f83850181815260016060860181815233845260299094529582209451855592519484019490945590516002830155516003909101805460ff191691151591909117905560118054839290613288908490614ec4565b90915550506040805182815242602082015233917f1449c6dd7851abc30abf37f57715f492010519147cc2652fbc38202c18a6ee90910160405180910390a26113f66001600555565b6009545f9062010000900460ff16156132fd5760405163ab35696f60e01b815260040160405180910390fd5b6001600160a01b03831661332457604051634e46966960e11b815260040160405180910390fd5b5f61332f84846146fd565b9050808015613341575060095460ff16155b15611a3957611a3961213d565b6060602d805480602002602001604051908101604052809291908181526020018280548015610ee057602002820191905f5260205f209081546001600160a01b03168152600190910190602001808311612b43575050505050905090565b6133b4613e3a565b60095462010000900460ff16156133de5760405163ab35696f60e01b815260040160405180910390fd5b6001600160a01b03821615806133fc57506001600160a01b03821633145b1561341a576040516301437f4760e31b815260040160405180910390fd5b80158061342e575061342b336134dc565b81115b1561344c576040516365e52d5160e11b815260040160405180910390fd5b613455336127d3565b335f9081526025602052604090206001015460ff1661348757604051631878f08160e01b815260040160405180910390fd5b613492308383613e64565b6040518181526001600160a01b0383169033907f1e50cdf36b7821a0ea2c0889b9a5426558cffa8eb685d3f224bb788faae557b19060200160405180910390a36120596001600555565b6009545f90610100900460ff16158061350957506001600160a01b0382165f908152602080526040902054155b1561351557505f919050565b6001600160a01b0382165f908152602560209081526040918290208251808401909352805480845260019091015460ff161515918301919091526001600160801b031642811161356857505f9392505050565b6001600160a01b0384165f90815260266020526040812054421161358c575f6135ae565b6001600160a01b0385165f908152602660205260409020546135ae9042614f0d565b90505f6103e86135c683670de0b6b3a7640000614ed7565b6135d09190614eee565b601b546001600160a01b0388165f9081526020805260408120549293509168056bc75e2d631000009184916136059190614ed7565b61360f9190614ed7565b6136199190614eee565b6001600160a01b0388165f908152602080526040902054909150811061363f575f613661565b6001600160a01b0387165f908152602080526040902054613661908290614f0d565b979650505050505050565b60236020525f90815260409020805460018201546002830180549293919261369390614e78565b80601f01602080910402602001604051908101604052809291908181526020018280546136bf90614e78565b801561370a5780601f106136e15761010080835404028352916020019161370a565b820191905f5260205f20905b8154815290600101906020018083116136ed57829003601f168201915b5050505050905083565b61371c613e3a565b60095462010000900460ff16156137465760405163ab35696f60e01b815260040160405180910390fd5b335f908152602960205260409020600381015460ff1661377957604051637d9a44a160e11b815260040160405180910390fd5b815f03613799576040516365e52d5160e11b815260040160405180910390fd5b6137a2336134dc565b8211156137c2576040516387d5b4fb60e01b815260040160405180910390fd5b80546137d090600a90614eee565b8211156137f0576040516311c2ab1f60e31b815260040160405180910390fd5b6137f9336127d3565b5f61380333613dda565b509050601954816138149190614ec4565b42101561383457604051631878f08160e01b815260040160405180910390fd5b82826002015f8282546138479190614ec4565b909155505060405183815233907f4a35c8fde6484aca5e3c4fd515e9314ca9f4a57266cdef7622cac399f20ac32a9060200160405180910390a250506113f66001600555565b60015f82815b81811015613975575f8686838181106138ae576138ae614fd4565b90506020020160208101906138c39190614a4f565b90506001600160a01b0381166138ec5760405163e6c4247b60e01b815260040160405180910390fd5b5f6138f6826134dc565b90506139028186614ec4565b6001600160a01b0383165f90815260208052604090205490955015801590613928575080155b801561395357506001600160a01b0382165f908152602560205260409020546001600160801b031642105b15613962575f95505050613975565b50508061396e90614fe8565b9050613893565b50509250929050565b60095462010000900460ff16156139a85760405163ab35696f60e01b815260040160405180910390fd5b69152d02c7e14af68000006139bc336134dc565b10156139db57604051631e9acf1760e31b815260040160405180910390fd5b335f908152600860205260409020546139f89062278d0090614ec4565b421015613a185760405163fd7af65f60e01b815260040160405180910390fd5b600281600b811115613a2c57613a2c614ac2565b1480613a495750600581600b811115613a4757613a47614ac2565b145b613a675782158015613a6257506001600160a01b038216155b613a6b565b8351155b15613a89576040516337ad598360e01b815260040160405180910390fd5b60165f8154613a9790614fe8565b909155506016545f8181526024602052604090209081556006810180546001600160a01b0319163317905560088101613ad086826150c3565b50600381018490556007810180546001600160a01b0319166001600160a01b03851617905560098101805483919060ff1916600183600b811115613b1657613b16614ac2565b02179055504260018201819055613b319062093a8090614ec4565b6002820155335f8181526008602052604090819020429055825490517f64147b1d4b260ddd199f9e9a7c1d4e444605245a354c18a74fdcc8e9004da33e90613b7c908990879061517f565b60405180910390a35050505050565b613b9361467f565b6001600160a01b038116613bbc57604051631e4fbdf760e01b81525f6004820152602401611528565b6113f6816146ac565b60095462010000900460ff1615613bef5760405163ab35696f60e01b815260040160405180910390fd5b5f8381526024602052604081206001810154909103613c2157604051636ce3c70160e11b815260040160405180910390fd5b8060010154421080613c365750806002015442115b15613c5457604051632dfa5c9b60e01b815260040160405180910390fd5b335f908152600a8201602052604090205460ff1615613c8657604051637c9a1cf960e01b815260040160405180910390fd5b6009810154610100900460ff1615613cb15760405163cf88c65760e01b815260040160405180910390fd5b60408051841515602082015290810183905233606082015260800160408051601f198184030181529181528151602092830120335f908152600b850190935291205414613d115760405163b7b3378760e01b815260040160405180910390fd5b613d1a336127d3565b5f613d24336134dc565b9050805f03613d465760405163e100018160e01b815260040160405180910390fd5b335f908152600a830160205260409020805460ff191660011790558315613d855780826004015f828254613d7a9190614ec4565b90915550613d9e9050565b80826005015f828254613d989190614ec4565b90915550505b60408051851515815260208101839052339187917f96b7e5dbd1a0bb4b34731d1dfce6ea83eab3fadbf4710c77ad43106f771f90fb9101613b7c565b6001600160a01b03165f908152602560209081526040918290208251808401909352805480845260019091015460ff1615159290910191909152608081901c916001600160801b0390911690565b613e35838383600161470a565b505050565b600260055403613e5d57604051633ee5aeb560e01b815260040160405180910390fd5b6002600555565b604080516001600160a01b038416602482015260448082018490528251808303909101815260649091019091526020810180516001600160e01b031663a9059cbb60e01b179052613e359084906147dc565b601d546001600160a01b03163314613ee15760405163ea8e4eb560e01b815260040160405180910390fd5b600283600b811115613ef557613ef5614ac2565b03613f1c576009805462ff0000198116620100009182900460ff16159091021790556141dd565b5f83600b811115613f2f57613f2f614ac2565b03613f8857811580613f6057507f000000000000000000000000000000000000000000000000000000000000000082115b15613f7e576040516302075cc160e41b815260040160405180910390fd5b600f8290556141dd565b600183600b811115613f9c57613f9c614ac2565b03613fd657811580613fae5750606482115b15613fcc576040516308af88a160e21b815260040160405180910390fd5b60128290556141dd565b600683600b811115613fea57613fea614ac2565b03614029576103e882108061400157506298968082115b1561401f576040516353a66d7160e01b815260040160405180910390fd5b60198290556141dd565b600783600b81111561403d5761403d614ac2565b0361407d5761271082108061405557506305f5e10082115b1561407357604051634ee281d960e01b815260040160405180910390fd5b601a8290556141dd565b600883600b81111561409157614091614ac2565b036140cb578115806140a35750600a82115b156140c157604051635ac789e360e01b815260040160405180910390fd5b601b8290556141dd565b600b83600b8111156140df576140df614ac2565b03614119578115806140f15750603282115b1561410f576040516311d148a560e31b815260040160405180910390fd5b601c8290556141dd565b600983600b81111561412d5761412d614ac2565b036141915769d3c21bcecceda100000082108061416957507f000000000000000000000000000000000000000000000000000000000000000082115b156141875760405163e2d9bbff60e01b815260040160405180910390fd5b60138290556141dd565b600a83600b8111156141a5576141a5614ac2565b036141dd57600a8210806141b95750605a82115b156141d757604051631f58673560e01b815260040160405180910390fd5b60148290555b82600b8111156141ef576141ef614ac2565b604080518481526001600160a01b03841660208201527ffc0390d67ebdc63d4aed005ea60c5adc2f760de6ad9846edc5b471828a80dd4891015b60405180910390a2505050565b6001600160a01b03821661425f57604051634b637e8f60e11b81525f6004820152602401611528565b612059825f83614848565b602e545f5b8181101561436f57836001600160a01b0316602e828154811061429457614294614fd4565b5f918252602090912001546001600160a01b03160361435f57825f0361435957602e6142c1600184614f0d565b815481106142d1576142d1614fd4565b5f91825260209091200154602e80546001600160a01b0390921691839081106142fc576142fc614fd4565b905f5260205f20015f6101000a8154816001600160a01b0302191690836001600160a01b03160217905550602e805480614338576143386151a0565b5f8281526020902081015f1990810180546001600160a01b03191690550190555b50505050565b61436881614fe8565b905061426f565b50811580159061437f5750600a81105b15613e3557602e80546001810182555f919091527f37fa166cbdbfbb1561ccd9ea985ec0218b5e68502e230525f544285b2bdf3d7e0180546001600160a01b0385166001600160a01b0319909116179055505050565b5f336143e2858285614961565b6143ed8585856149d7565b506001949350505050565b600954610100900460ff16158061442457506001600160a01b0381165f90815260208052604090205415155b8061444457506001600160a01b0381165f90815260216020526040902054155b15614462576040516354d8723760e01b815260040160405180910390fd5b7f0000000000000000000000000000000000000000000000000000000000000000600b5411156144a5576040516387d5b4fb60e01b815260040160405180910390fd5b6001600160a01b0381165f908152602160205260408120547f0000000000000000000000000000000000000000000000000000000000000000906144f6906b033b2e3c9fd0803ce800000090614ed7565b6145009190614eee565b90506103e8601054101561454457606461451b600a83614ed7565b6145259190614eee565b61452f9082614ec4565b905060105f815461453f90614fe8565b909155505b805f036145645760405163374c934360e11b815260040160405180910390fd5b6001600160a01b038083165f908152602260205260409020541680156145ed575f6064614592600585614ed7565b61459c9190614eee565b90506145a8828261464b565b816001600160a01b03167f050bae3eeefac62a4ee36c766f4f426f09edf96ae8fb3034ebbf961e4acc78e2826040516145e391815260200190565b60405180910390a2505b6001600160a01b0383165f9081526020805260409020829055614610838361464b565b826001600160a01b03167fb60ccdad08a990849494cadc2278b346a8742fb757e67c422f71e3e64fb77b458360405161422991815260200190565b6001600160a01b0382166146745760405163ec442f0560e01b81525f6004820152602401611528565b6120595f8383614848565b6006546001600160a01b0316331461166e5760405163118cdaa760e01b8152336004820152602401611528565b600680546001600160a01b038381166001600160a01b0319831681179093556040519116919082907f8be0079c531659141344cd1fd0a4f28419497f9722a3daafe3b4186f6b6457e0905f90a35050565b5f33610ef78185856149d7565b6001600160a01b0384166147335760405163e602df0560e01b81525f6004820152602401611528565b6001600160a01b03831661475c57604051634a1406b160e11b81525f6004820152602401611528565b6001600160a01b038085165f908152600160209081526040808320938716835292905220829055801561435957826001600160a01b0316846001600160a01b03167f8c5be1e5ebec7d5bd14f71427d1e84f3dd0314c0f7b2291e5b200ac8c7c3b925846040516147ce91815260200190565b60405180910390a350505050565b5f8060205f8451602086015f885af1806147fb576040513d5f823e3d81fd5b50505f513d9150811561481257806001141561481f565b6001600160a01b0384163b155b1561435957604051635274afe760e01b81526001600160a01b0385166004820152602401611528565b6001600160a01b038316614872578060025f8282546148679190614ec4565b909155506148e29050565b6001600160a01b0383165f90815260208190526040902054818110156148c45760405163391434e360e21b81526001600160a01b03851660048201526024810182905260448101839052606401611528565b6001600160a01b0384165f9081526020819052604090209082900390555b6001600160a01b0382166148fe5760028054829003905561491c565b6001600160a01b0382165f9081526020819052604090208054820190555b816001600160a01b0316836001600160a01b03167fddf252ad1be2c89b69c2b068fc378daa952ba7f163c4a11628f55a4df523b3ef83604051612eb491815260200190565b6001600160a01b038381165f908152600160209081526040808320938616835292905220545f1981101561435957818110156149c957604051637dc7a0d960e11b81526001600160a01b03841660048201526024810182905260448101839052606401611528565b61435984848484035f61470a565b6001600160a01b038316614a0057604051634b637e8f60e11b81525f6004820152602401611528565b6001600160a01b038216614a295760405163ec442f0560e01b81525f6004820152602401611528565b613e35838383614848565b80356001600160a01b0381168114614a4a575f80fd5b919050565b5f60208284031215614a5f575f80fd5b611a3982614a34565b5f60208284031215614a78575f80fd5b5035919050565b5f81518084525f5b81811015614aa357602081850181015186830182015201614a87565b505f602082860101526020601f19601f83011685010191505092915050565b634e487b7160e01b5f52602160045260245ffd5b600c8110614af257634e487b7160e01b5f52602160045260245ffd5b9052565b5f6101608d83528c60208401528b60408401528a60608401528960808401528860a084015260018060a01b0380891660c085015280881660e08501525080610100840152614b4681840187614a7f565b915050614b57610120830185614ad6565b8215156101408301529c9b505050505050505050505050565b602081525f611a396020830184614a7f565b5f8060408385031215614b93575f80fd5b614b9c83614a34565b946020939093013593505050565b5f805f60608486031215614bbc575f80fd5b614bc584614a34565b9250614bd360208501614a34565b9150604084013590509250925092565b80358015158114614a4a575f80fd5b5f60208284031215614c02575f80fd5b611a3982614be3565b5f8060208385031215614c1c575f80fd5b823567ffffffffffffffff80821115614c33575f80fd5b818501915085601f830112614c46575f80fd5b813581811115614c54575f80fd5b8660208260051b8501011115614c68575f80fd5b60209290920196919550909350505050565b602080825282518282018190525f9190848201906040850190845b81811015614cba5783516001600160a01b031683529284019291840191600101614c95565b50909695505050505050565b5f8060408385031215614cd7575f80fd5b50508035926020909101359150565b838152826020820152606060408201525f614d046060830184614a7f565b95945050505050565b5f8060408385031215614d1e575f80fd5b614d2783614a34565b9150614d3560208401614a34565b90509250929050565b634e487b7160e01b5f52604160045260245ffd5b8035600c8110614a4a575f80fd5b5f805f8060808587031215614d73575f80fd5b843567ffffffffffffffff80821115614d8a575f80fd5b818701915087601f830112614d9d575f80fd5b813581811115614daf57614daf614d3e565b604051601f8201601f19908116603f01168101908382118183101715614dd757614dd7614d3e565b816040528281528a6020848701011115614def575f80fd5b826020860160208301375f60208483010152809850505050505060208501359250614e1c60408601614a34565b9150614e2a60608601614d52565b905092959194509250565b5f8060408385031215614e46575f80fd5b82359150614d3560208401614a34565b5f805f60608486031215614e68575f80fd5b83359250614bd360208501614be3565b600181811c90821680614e8c57607f821691505b602082108103614eaa57634e487b7160e01b5f52602260045260245ffd5b50919050565b634e487b7160e01b5f52601160045260245ffd5b80820180821115610efd57610efd614eb0565b8082028115828204841417610efd57610efd614eb0565b5f82614f0857634e487b7160e01b5f52601260045260245ffd5b500490565b81810381811115610efd57610efd614eb0565b5f60208083525f8454614f3281614e78565b8084870152604060018084165f8114614f525760018114614f6c57614f97565b60ff1985168984015283151560051b890183019550614f97565b895f52865f205f5b85811015614f8f5781548b8201860152908301908801614f74565b8a0184019650505b509398975050505050505050565b60208082526015908201527410dbdb9d1c9858dd1cc81b9bdd08185b1b1bddd959605a1b604082015260600190565b634e487b7160e01b5f52603260045260245ffd5b5f60018201614ff957614ff9614eb0565b5060010190565b5f8184825b85811015615034576001600160a01b0361501e83614a34565b1683526020928301929190910190600101615005565b509095945050505050565b602080825282518282018190525f9190848201906040850190845b81811015614cba5783518352928401929184019160010161505a565b601f821115613e35575f81815260208120601f850160051c8101602086101561509c5750805b601f850160051c820191505b818110156150bb578281556001016150a8565b505050505050565b815167ffffffffffffffff8111156150dd576150dd614d3e565b6150f1816150eb8454614e78565b84615076565b602080601f831160018114615124575f841561510d5750858301515b5f19600386901b1c1916600185901b1785556150bb565b5f85815260208120601f198616915b8281101561515257888601518255948401946001909101908401615133565b508582101561516f57878501515f19600388901b60f8161c191681555b5050505050600190811b01905550565b604081525f6151916040830185614a7f565b9050611a396020830184614ad6565b634e487b7160e01b5f52603160045260245ffdfea264697066735822122089e19c3c2cdf6c56166db24e01f98e1419d1ce8ad640411286bc841f382772bb64736f6c63430008140033', \n     arguments: [\n          initialOwner,\n     ]\n}).send({\n     from: web3.eth.accounts[0], \n     gas: '4700000'\n   }, function (e, contract){\n    console.log(e, contract);\n    if (typeof contract.address !== 'undefined') {\n         console.log('Contract mined! address: ' + contract.address + ' transactionHash: ' + contract.transactionHash);\n    }\n })",
	"functionHashes": {
		"20095760": "burnInactiveBL2P(address)",
		"30373133": "batchClaimBL2PReward(address[])",
		"b4ac4536": "ACTIVATION_THRESHOLD()",
		"938d40e8": "ANNUAL_BURN_AMOUNT()",
		"6d0e4378": "BURN_TARGET()",
		"dfc06c29": "IGNITION_AIRDROP_POOL()",
		"3667ca1b": "LOCKED_RESERVE()",
		"32cb6b0c": "MAX_SUPPLY()",
		"467f67f9": "PROPOSAL_COOLDOWN()",
		"2e80d9b6": "QUORUM()",
		"0f1a2905": "STAKING_REWARD_RATE()",
		"a0ef4d0e": "VOTE_THRESHOLD()",
		"99aa12bb": "activeDelegations(address)",
		"80a78549": "advertisementCount()",
		"bcea610e": "advertisements(uint256)",
		"dd62ed3e": "allowance(address,address)",
		"095ea7b3": "approve(address,uint256)",
		"70a08231": "balanceOf(address)",
		"00429bd1": "bl2pClaimed(address)",
		"184d1b93": "bl2pLifespanBlocks()",
		"c998c53f": "bl2pMeta(address)",
		"72677d3c": "bl2pRevealed()",
		"f5f1e6b0": "burnContributions(uint256,address)",
		"44512ca6": "burnDeadlineTimestamp()",
		"96adbf8c": "burnPhaseActive()",
		"5162f626": "checkActivation()",
		"27a489e3": "claimBL2PReward()",
		"a2906fd0": "claimIgnitionAirdrop()",
		"9da69180": "commitVote(uint256,bytes32)",
		"302a6528": "currentBurnCycle()",
		"1247d4f7": "cycleBurnedTotal(uint256)",
		"313ce567": "decimals()",
		"926f7327": "delegateVote(address,uint256)",
		"1e409127": "delegatedBL2PReceived(address)",
		"9bfdae5e": "earlyAdopterCount()",
		"27c830a9": "emergencyPaused()",
		"0d61b519": "executeProposal(uint256)",
		"fbea5b3b": "getBL2PLifetime(address)",
		"40d74f18": "getIgnitionInfo()",
		"b08e181e": "getIgnitionParticipants()",
		"7d58aeb6": "getLastProposer()",
		"3426ea46": "getRemainingBurnable()",
		"ba59931d": "getRemainingValidBL2P(address)",
		"9885b7e1": "getTopDelegates()",
		"b172b222": "governanceContract()",
		"5778712c": "ignitionAirdropTriggered()",
		"e2a6ec78": "ignitionClaimableAmount(address)",
		"3cc39f16": "ignitionClaimed(address)",
		"786ff4be": "ignitionParticipants(uint256)",
		"76c8f6d1": "ignitionRegistrationOpen()",
		"7c7e62e5": "ignitionWhitelist(address)",
		"ccd82cd6": "inactivityBurnRate()",
		"297a97d7": "lastAdvertisementTimestamp()",
		"6dbfad91": "lastBurnCycleStartTimestamp()",
		"72dfe348": "lastProposalTimestamp(address)",
		"21226f40": "lastUnlockTimestamp()",
		"de1cf4ad": "lastVoteTimestamp(address)",
		"6a9b1fbf": "lockedReserveBalance()",
		"72f721ac": "maturationPeriodBlocks()",
		"413236f7": "maxDelegatedBL2PPercent()",
		"06fdde03": "name()",
		"8da5cb5b": "owner()",
		"7bde5df8": "participateInBurn(uint256)",
		"da35c664": "proposalCount()",
		"013cf08b": "proposals(uint256)",
		"9ca423b3": "referrals(address)",
		"1aecc93a": "registerForIgnitionAirdrop()",
		"715018a6": "renounceOwnership()",
		"facc092f": "revealVote(uint256,bool,bytes32)",
		"a4d31805": "revokeDelegation()",
		"1129753f": "setGovernanceContract(address)",
		"25ac2b92": "setIgnitionRegistrationStatus(bool)",
		"a694fc3a": "stake(uint256)",
		"16934fc4": "stakes(address)",
		"e016a04c": "submitProposal(string,uint256,address,uint8)",
		"95d89b41": "symbol()",
		"77d217ed": "topDelegates(uint256)",
		"d89135cd": "totalBurned()",
		"7ed3deba": "totalContributions(address)",
		"817b1cd2": "totalStaked()",
		"18160ddd": "totalSupply()",
		"a9059cbb": "transfer(address,uint256)",
		"b8fca4fc": "transferBL2P(address,uint256)",
		"23b872dd": "transferFrom(address,address,uint256)",
		"f2fde38b": "transferOwnership(address)",
		"9a63f604": "triggerIgnitionAirdrop()",
		"d2e518c5": "trustedRecipient()",
		"2def6620": "unstake()",
		"7f09dc31": "updateBL2PMaturity(address)",
		"ca409d81": "useBL2PForStaking(uint256)",
		"dcfcf974": "verifyBL2PIntegrity(address[])"
	},
	"gasEstimates": {
		"Creation": {
			"codeDepositCost": "4194000",
			"executionCost": "infinite",
			"totalCost": "infinite"
		},
		"External": {
			"ACTIVATION_THRESHOLD()": "infinite",
			"ANNUAL_BURN_AMOUNT()": "2461",
			"BURN_TARGET()": "infinite",
			"IGNITION_AIRDROP_POOL()": "infinite",
			"LOCKED_RESERVE()": "infinite",
			"MAX_SUPPLY()": "infinite",
			"PROPOSAL_COOLDOWN()": "361",
			"QUORUM()": "2461",
			"STAKING_REWARD_RATE()": "2352",
			"VOTE_THRESHOLD()": "2394",
			"activeDelegations(address)": "9106",
			"advertisementCount()": "2373",
			"advertisements(uint256)": "infinite",
			"allowance(address,address)": "infinite",
			"approve(address,uint256)": "24848",
			"balanceOf(address)": "2704",
			"batchClaimBL2PReward(address[])": "infinite",
			"bl2pClaimed(address)": "2575",
			"bl2pLifespanBlocks()": "2462",
			"bl2pMeta(address)": "4772",
			"bl2pRevealed()": "2409",
			"burnContributions(uint256,address)": "2735",
			"burnDeadlineTimestamp()": "2439",
			"burnInactiveBL2P(address)": "infinite",
			"burnPhaseActive()": "2399",
			"checkActivation()": "infinite",
			"claimBL2PReward()": "infinite",
			"claimIgnitionAirdrop()": "133915",
			"commitVote(uint256,bytes32)": "37296",
			"currentBurnCycle()": "2352",
			"cycleBurnedTotal(uint256)": "2537",
			"decimals()": "289",
			"delegateVote(address,uint256)": "infinite",
			"delegatedBL2PReceived(address)": "2596",
			"earlyAdopterCount()": "2461",
			"emergencyPaused()": "2432",
			"executeProposal(uint256)": "infinite",
			"getBL2PLifetime(address)": "4987",
			"getIgnitionInfo()": "11198",
			"getIgnitionParticipants()": "infinite",
			"getLastProposer()": "4639",
			"getRemainingBurnable()": "infinite",
			"getRemainingValidBL2P(address)": "infinite",
			"getTopDelegates()": "infinite",
			"governanceContract()": "2448",
			"ignitionAirdropTriggered()": "2416",
			"ignitionClaimableAmount(address)": "2593",
			"ignitionClaimed(address)": "2618",
			"ignitionParticipants(uint256)": "4680",
			"ignitionRegistrationOpen()": "2481",
			"ignitionWhitelist(address)": "2641",
			"inactivityBurnRate()": "2438",
			"lastAdvertisementTimestamp()": "2417",
			"lastBurnCycleStartTimestamp()": "2439",
			"lastProposalTimestamp(address)": "2616",
			"lastUnlockTimestamp()": "2418",
			"lastVoteTimestamp(address)": "2660",
			"lockedReserveBalance()": "2395",
			"maturationPeriodBlocks()": "2416",
			"maxDelegatedBL2PPercent()": "2417",
			"name()": "infinite",
			"owner()": "2464",
			"participateInBurn(uint256)": "infinite",
			"proposalCount()": "2372",
			"proposals(uint256)": "infinite",
			"referrals(address)": "2622",
			"registerForIgnitionAirdrop()": "131538",
			"renounceOwnership()": "infinite",
			"revealVote(uint256,bool,bytes32)": "infinite",
			"revokeDelegation()": "infinite",
			"setGovernanceContract(address)": "32770",
			"setIgnitionRegistrationStatus(bool)": "30065",
			"stake(uint256)": "infinite",
			"stakes(address)": "9065",
			"submitProposal(string,uint256,address,uint8)": "infinite",
			"symbol()": "infinite",
			"topDelegates(uint256)": "4788",
			"totalBurned()": "2350",
			"totalContributions(address)": "2662",
			"totalStaked()": "2395",
			"totalSupply()": "2437",
			"transfer(address,uint256)": "infinite",
			"transferBL2P(address,uint256)": "infinite",
			"transferFrom(address,address,uint256)": "infinite",
			"transferOwnership(address)": "28443",
			"triggerIgnitionAirdrop()": "infinite",
			"trustedRecipient()": "2513",
			"unstake()": "infinite",
			"updateBL2PMaturity(address)": "infinite",
			"useBL2PForStaking(uint256)": "infinite",
			"verifyBL2PIntegrity(address[])": "infinite"
		},
		"Internal": {
			"_claimBL2PReward(address)": "infinite",
			"_updateTopDelegates(address,uint256)": "infinite",
			"updateParameter(enum TAAMS.ProposalType,uint256,address)": "infinite"
		}
	},
	"devdoc": {
		"errors": {
			"ERC20InsufficientAllowance(address,uint256,uint256)": [
				{
					"details": "Indicates a failure with the `spender`s `allowance`. Used in transfers.",
					"params": {
						"allowance": "Amount of tokens a `spender` is allowed to operate with.",
						"needed": "Minimum amount required to perform a transfer.",
						"spender": "Address that may be allowed to operate on tokens without being their owner."
					}
				}
			],
			"ERC20InsufficientBalance(address,uint256,uint256)": [
				{
					"details": "Indicates an error related to the current `balance` of a `sender`. Used in transfers.",
					"params": {
						"balance": "Current balance for the interacting account.",
						"needed": "Minimum amount required to perform a transfer.",
						"sender": "Address whose tokens are being transferred."
					}
				}
			],
			"ERC20InvalidApprover(address)": [
				{
					"details": "Indicates a failure with the `approver` of a token to be approved. Used in approvals.",
					"params": {
						"approver": "Address initiating an approval operation."
					}
				}
			],
			"ERC20InvalidReceiver(address)": [
				{
					"details": "Indicates a failure with the token `receiver`. Used in transfers.",
					"params": {
						"receiver": "Address to which tokens are being transferred."
					}
				}
			],
			"ERC20InvalidSender(address)": [
				{
					"details": "Indicates a failure with the token `sender`. Used in transfers.",
					"params": {
						"sender": "Address whose tokens are being transferred."
					}
				}
			],
			"ERC20InvalidSpender(address)": [
				{
					"details": "Indicates a failure with the `spender` to be approved. Used in approvals.",
					"params": {
						"spender": "Address that may be allowed to operate on tokens without being their owner."
					}
				}
			],
			"OwnableInvalidOwner(address)": [
				{
					"details": "The owner is not a valid owner account. (eg. `address(0)`)"
				}
			],
			"OwnableUnauthorizedAccount(address)": [
				{
					"details": "The caller account is not authorized to perform an operation."
				}
			],
			"ReentrancyGuardReentrantCall()": [
				{
					"details": "Unauthorized reentrant call."
				}
			],
			"SafeERC20FailedOperation(address)": [
				{
					"details": "An operation with an ERC-20 token failed."
				}
			]
		},
		"events": {
			"Approval(address,address,uint256)": {
				"details": "Emitted when the allowance of a `spender` for an `owner` is set by a call to {approve}. `value` is the new allowance."
			},
			"Transfer(address,address,uint256)": {
				"details": "Emitted when `value` tokens are moved from one account (`from`) to another (`to`). Note that `value` may be zero."
			}
		},
		"kind": "dev",
		"methods": {
			"allowance(address,address)": {
				"details": "Returns the remaining number of tokens that `spender` will be allowed to spend on behalf of `owner` through {transferFrom}. This is zero by default. This value changes when {approve} or {transferFrom} are called."
			},
			"approve(address,uint256)": {
				"details": "See {IERC20-approve}. NOTE: If `value` is the maximum `uint256`, the allowance is not updated on `transferFrom`. This is semantically equivalent to an infinite approval. Requirements: - `spender` cannot be the zero address."
			},
			"balanceOf(address)": {
				"details": "Returns the value of tokens owned by `account`."
			},
			"decimals()": {
				"details": "Returns the number of decimals used to get its user representation. For example, if `decimals` equals `2`, a balance of `505` tokens should be displayed to a user as `5.05` (`505 / 10 ** 2`). Tokens usually opt for a value of 18, imitating the relationship between Ether and Wei. This is the default value returned by this function, unless it's overridden. NOTE: This information is only used for _display_ purposes: it in no way affects any of the arithmetic of the contract, including {IERC20-balanceOf} and {IERC20-transfer}."
			},
			"name()": {
				"details": "Returns the name of the token."
			},
			"owner()": {
				"details": "Returns the address of the current owner."
			},
			"renounceOwnership()": {
				"details": "Leaves the contract without owner. It will not be possible to call `onlyOwner` functions. Can only be called by the current owner. NOTE: Renouncing ownership will leave the contract without an owner, thereby disabling any functionality that is only available to the owner."
			},
			"symbol()": {
				"details": "Returns the symbol of the token, usually a shorter version of the name."
			},
			"totalSupply()": {
				"details": "Returns the value of tokens in existence."
			},
			"transferOwnership(address)": {
				"details": "Transfers ownership of the contract to a new account (`newOwner`). Can only be called by the current owner."
			}
		},
		"version": 1
	},
	"userdoc": {
		"kind": "user",
		"methods": {},
		"version": 1
	},
	"Runtime Bytecode": {
		"immutableReferences": {
			"1793": [
				{
					"length": 32,
					"start": 1798
				},
				{
					"length": 32,
					"start": 16711
				}
			],
			"1798": [
				{
					"length": 32,
					"start": 1845
				}
			],
			"1803": [
				{
					"length": 32,
					"start": 3229
				},
				{
					"length": 32,
					"start": 11362
				}
			],
			"1808": [
				{
					"length": 32,
					"start": 2862
				},
				{
					"length": 32,
					"start": 8637
				},
				{
					"length": 32,
					"start": 11227
				}
			],
			"1813": [
				{
					"length": 32,
					"start": 2110
				},
				{
					"length": 32,
					"start": 7821
				},
				{
					"length": 32,
					"start": 8302
				},
				{
					"length": 32,
					"start": 8352
				},
				{
					"length": 32,
					"start": 8421
				},
				{
					"length": 32,
					"start": 9269
				},
				{
					"length": 32,
					"start": 9391
				},
				{
					"length": 32,
					"start": 9460
				},
				{
					"length": 32,
					"start": 9500
				},
				{
					"length": 32,
					"start": 10064
				},
				{
					"length": 32,
					"start": 16190
				},
				{
					"length": 32,
					"start": 17508
				},
				{
					"length": 32,
					"start": 17599
				}
			]
		},
		"linkReferences": {},
		"object": "608060405234801561000f575f80fd5b50600436106104e7575f3560e01c8063786ff4be1161028f578063a9059cbb11610161578063d89135cd116100d5578063e016a04c1161008f578063e016a04c14610cbf578063e2a6ec7814610cd2578063f2fde38b14610cf1578063f5f1e6b014610d04578063facc092f14610d2e578063fbea5b3b14610d41575f80fd5b8063d89135cd14610c05578063da35c66414610c0e578063dcfcf97414610c17578063dd62ed3e14610c41578063de1cf4ad14610c79578063dfc06c2914610c98575f80fd5b8063ba59931d11610126578063ba59931d14610b63578063bcea610e14610b76578063c998c53f14610b98578063ca409d8114610bd6578063ccd82cd614610be9578063d2e518c514610bf2575f80fd5b8063a9059cbb14610afb578063b08e181e14610b0e578063b172b22214610b16578063b4ac453614610b29578063b8fca4fc14610b50575f80fd5b806395d89b41116102035780639ca423b3116101bd5780639ca423b314610a945780639da6918014610abc578063a0ef4d0e14610acf578063a2906fd014610ad8578063a4d3180514610ae0578063a694fc3a14610ae8575f80fd5b806395d89b41146109ed57806396adbf8c146109f55780639885b7e114610a0257806399aa12bb14610a175780639a63f60414610a835780639bfdae5e14610a8b575f80fd5b80637f09dc31116102545780637f09dc311461099b57806380a78549146109ae578063817b1cd2146109b75780638da5cb5b146109c0578063926f7327146109d1578063938d40e8146109e4575f80fd5b8063786ff4be146109125780637bde5df8146109255780637c7e62e5146109385780637d58aeb61461095a5780637ed3deba1461097c575f80fd5b8063302a6528116103c85780635162f6261161033c578063715018a6116102f6578063715018a61461089157806372677d3c1461089957806372dfe348146108ab57806372f721ac146108ca57806376c8f6d1146108d357806377d217ed146108e7575f80fd5b80635162f626146108145780635778712c1461081c5780636a9b1fbf146108305780636d0e4378146108395780636dbfad911461086057806370a0823114610869575f80fd5b80633667ca1b1161038d5780633667ca1b146107305780633cc39f161461075757806340d74f1814610779578063413236f7146107f857806344512ca614610801578063467f67f91461080a575f80fd5b8063302a6528146106d657806330373133146106df578063313ce567146106f257806332cb6b0c146107015780633426ea4614610728575f80fd5b80631aecc93a1161045f57806325ac2b921161042457806325ac2b921461068e57806327a489e3146106a157806327c830a9146106a9578063297a97d7146106bc5780632def6620146106c55780632e80d9b6146106cd575f80fd5b80631aecc93a146106385780631e40912714610640578063200957601461065f57806321226f401461067257806323b872dd1461067b575f80fd5b80630f1a2905116104b05780630f1a2905146105935780631129753f1461059c5780631247d4f7146105af57806316934fc4146105ce57806318160ddd14610627578063184d1b931461062f575f80fd5b8062429bd1146104eb578063013cf08b1461051c57806306fdde0314610546578063095ea7b31461055b5780630d61b5191461057e575b5f80fd5b6105096104f9366004614a4f565b602080525f908152604090205481565b6040519081526020015b60405180910390f35b61052f61052a366004614a68565b610d69565b6040516105139b9a99989796959493929190614af6565b61054e610e5a565b6040516105139190614b70565b61056e610569366004614b82565b610eea565b6040519015158152602001610513565b61059161058c366004614a68565b610f03565b005b61050960125481565b6105916105aa366004614a4f565b6113f9565b6105096105bd366004614a68565b601f6020525f908152604090205481565b6106056105dc366004614a4f565b60296020525f908152604090208054600182015460028301546003909301549192909160ff1684565b6040805194855260208501939093529183015215156060820152608001610513565b600254610509565b610509601a5481565b6105916114d7565b61050961064e366004614a4f565b60286020525f908152604090205481565b61059161066d366004614a4f565b611670565b61050960155481565b61056e610689366004614baa565b6119a4565b61059161069c366004614bf2565b611a40565b610591611acc565b60095461056e9062010000900460ff1681565b61050960175481565b610591611b11565b61050960135481565b610509600d5481565b6105916106ed366004614c0b565b611d3a565b60405160128152602001610513565b6105097f000000000000000000000000000000000000000000000000000000000000000081565b61050961205d565b6105097f000000000000000000000000000000000000000000000000000000000000000081565b61056e610765366004614a4f565b602c6020525f908152604090205460ff1681565b601d54602d54335f908152602a6020908152604080832054602b835281842054602c84529382902054825160ff600160a01b8904811615158252600160a81b9098048816151594810194909452918301949094526103e860608301529284161515608082015260a08101919091529116151560c082015260e001610513565b610509601c5481565b610509600c5481565b61050962278d0081565b61059161213d565b601d5461056e90600160a01b900460ff1681565b610509600a5481565b6105097f000000000000000000000000000000000000000000000000000000000000000081565b610509600e5481565b610509610877366004614a4f565b6001600160a01b03165f9081526020819052604090205490565b61059161221c565b60095461056e90610100900460ff1681565b6105096108b9366004614a4f565b60086020525f908152604090205481565b61050960195481565b601d5461056e90600160a81b900460ff1681565b6108fa6108f5366004614a68565b61232d565b6040516001600160a01b039091168152602001610513565b6108fa610920366004614a68565b612355565b610591610933366004614a68565b612364565b61056e610946366004614a4f565b602a6020525f908152604090205460ff1681565b6016545f908152602460205260409020600601546001600160a01b03166108fa565b61050961098a366004614a4f565b60216020525f908152604090205481565b6105916109a9366004614a4f565b6127d3565b61050960185481565b61050960115481565b6006546001600160a01b03166108fa565b6105916109df366004614b82565b612879565b610509600f5481565b61054e612afc565b60095461056e9060ff1681565b610a0a612b0b565b6040516105139190614c7a565b610a58610a25366004614a4f565b60276020525f908152604090208054600182015460028301546003909301546001600160a01b0392831693919092169184565b604080516001600160a01b039586168152949093166020850152918301526060820152608001610513565b610591612b6a565b61050960105481565b6108fa610aa2366004614a4f565b60226020525f90815260409020546001600160a01b031681565b610591610aca366004614cc6565b612d81565b61050960145481565b610591612ec1565b610591612ff0565b610591610af6366004614a68565b613133565b61056e610b09366004614b82565b6132d1565b610a0a61334e565b601d546108fa906001600160a01b031681565b6105097f000000000000000000000000000000000000000000000000000000000000000081565b610591610b5e366004614b82565b6133ac565b610509610b71366004614a4f565b6134dc565b610b89610b84366004614a68565b61366c565b60405161051393929190614ce6565b610bc1610ba6366004614a4f565b60256020525f90815260409020805460019091015460ff1682565b60408051928352901515602083015201610513565b610591610be4366004614a68565b613714565b610509601b5481565b6007546108fa906001600160a01b031681565b610509600b5481565b61050960165481565b610c2a610c25366004614c0b565b61388d565b604080519215158352602083019190915201610513565b610509610c4f366004614d0d565b6001600160a01b039182165f90815260016020908152604080832093909416825291909152205490565b610509610c87366004614a4f565b60266020525f908152604090205481565b6105097f000000000000000000000000000000000000000000000000000000000000000081565b610591610ccd366004614d60565b61397e565b610509610ce0366004614a4f565b602b6020525f908152604090205481565b610591610cff366004614a4f565b613b8b565b610509610d12366004614e35565b601e60209081525f928352604080842090915290825290205481565b610591610d3c366004614e56565b613bc5565b610d54610d4f366004614a4f565b613dda565b60408051928352602083019190915201610513565b60246020525f90815260409020805460018201546002830154600384015460048501546005860154600687015460078801546008890180549899979896979596949593946001600160a01b03938416949290931692610dc790614e78565b80601f0160208091040260200160405190810160405280929190818152602001828054610df390614e78565b8015610e3e5780601f10610e1557610100808354040283529160200191610e3e565b820191905f5260205f20905b815481529060010190602001808311610e2157829003601f168201915b5050506009909301549192505060ff808216916101009004168b565b606060038054610e6990614e78565b80601f0160208091040260200160405190810160405280929190818152602001828054610e9590614e78565b8015610ee05780601f10610eb757610100808354040283529160200191610ee0565b820191905f5260205f20905b815481529060010190602001808311610ec357829003601f168201915b5050505050905090565b5f33610ef7818585613e28565b60019150505b92915050565b610f0b613e3a565b60095462010000900460ff1615610f355760405163ab35696f60e01b815260040160405180910390fd5b5f8181526024602052604081206001810154909103610f6757604051636ce3c70160e11b815260040160405180910390fd5b80600201544211610f8b57604051630cd7c29960e21b815260040160405180910390fd5b6009810154610100900460ff1615610fb65760405163cf88c65760e01b815260040160405180910390fd5b60135481600501548260040154610fcd9190614ec4565b101561104557817f2a15f4605f8e68cbaccd2234253a8189163d500a6f60c1751405443ca1562beb604051611024906020808252600e908201526d145d5bdc9d5b481b9bdd081b595d60921b604082015260600190565b60405180910390a2604051636bcf412560e11b815260040160405180910390fd5b5f8160050154826004015461105a9190614ec4565b90505f8183600401546127106110709190614ed7565b61107a9190614eee565b9050601454606461108b9190614ed7565b811161110b57837f2a15f4605f8e68cbaccd2234253a8189163d500a6f60c1751405443ca1562beb6040516110ea90602080825260169082015275159bdd19481d1a1c995cda1bdb19081b9bdd081b595d60521b604082015260600190565b60405180910390a26040516314b8741160e11b815260040160405180910390fd5b60098301805461010061ff001982161790915560039060ff16600b81111561113557611135614ac2565b0361121d57629e340060155461114b9190614ec4565b42101561116b57604051637a24249560e11b815260040160405180910390fd5b600a5483600301541115611192576040516328b35f2160e01b815260040160405180910390fd5b600683015460038401546111b39130916001600160a01b0390911690613e64565b8260030154600a5f8282546111c89190614f0d565b9091555050426015556003830154600a546040517fe49db96a72e85d04778bb78627173221c08f5acaa50eaef5b0d94c0a8c1589b19261121092908252602082015260400190565b60405180910390a1611390565b6004600984015460ff16600b81111561123857611238614ac2565b03611277576003830154600a8190556040519081527f9ed927e3681de11fbc3fc5547d178d8a2655c3aaafd6d8704edc6ee7e70b838990602001611210565b6005600984015460ff16600b81111561129257611292614ac2565b036112d95782546040517f56e668e6eab92a31285f3c1809ce67652b2348579b6c5349bad3f2e9c00399a1906112cc906008870190614f20565b60405180910390a2611390565b60098084015460ff16600b8111156112f3576112f3614ac2565b0361133257600383015460138190556040519081527ff18f88786aae85a652aadb99a82462616489a33370c9bcc7b245906812ef7cd190602001611210565b600a600984015460ff16600b81111561134d5761134d614ac2565b0361139057600383015460148190556040519081527fc4f218f6e084beba806111ae2727cb7afb13d7647aef44c4d90b5f3c9cbe59c79060200160405180910390a15b6009830154600384015460078501546113b69260ff1691906001600160a01b0316613eb6565b6040518481527f75d3599dc8e39a81249f199fec177d092f6585b12894a2b393d54a28c315785c9060200160405180910390a15050506113f66001600555565b50565b601d546001600160a01b0316331480159061141f57506006546001600160a01b03163314155b1561143d5760405163ea8e4eb560e01b815260040160405180910390fd5b6001600160a01b0381166114645760405163e6c4247b60e01b815260040160405180910390fd5b806001600160a01b03163b5f0361148e57604051636f7c43f160e01b815260040160405180910390fd5b601d80546001600160a01b0319166001600160a01b0383169081179091556040517fe3cf2b71b55b62fc1a6c7b2f6ff944c1b70048908cff22f2e08d1144e7ca7edb905f90a250565b6114df613e3a565b60095462010000900460ff16156115095760405163ab35696f60e01b815260040160405180910390fd5b3332146115315760405162461bcd60e51b815260040161152890614fa5565b60405180910390fd5b601d54600160a81b900460ff1661155b57604051632fc209f360e01b815260040160405180910390fd5b602d546103e81161157f57604051636c8c8d2160e01b815260040160405180910390fd5b335f908152602a602052604090205460ff16156115af57604051630ea075bf60e21b815260040160405180910390fd5b336115cd5760405163e6c4247b60e01b815260040160405180910390fd5b335f818152602a6020526040808220805460ff19166001908117909155602d80549182018155928390527f4a2cc91ee622da3bc833a54c37ffcb6f3ec23b7793efc5eaf5e71b7b406c5c060180546001600160a01b03191684179055905490517ff41d185d95ff1e597498c6efb9f4539bd988fdccc50f710d8a8184638d6046609161165c9190815260200190565b60405180910390a261166e6001600555565b565b611678613e3a565b60095462010000900460ff16156116a25760405163ab35696f60e01b815260040160405180910390fd5b80336001600160a01b038216148015906116c75750601d546001600160a01b03163314155b156116e55760405163ea8e4eb560e01b815260040160405180910390fd5b6116ee826134dc565b5f0361170d5760405163e100018160e01b815260040160405180910390fd5b6001600160a01b0382165f90815260256020526040902080546001600160801b0316428111156117505760405163026dd1ff60e51b815260040160405180910390fd5b5f61175a856134dc565b6001600160a01b0386165f908152602080526040902054909150811015611888576001600160a01b0385165f90815260208052604081205461179d908390614f0d565b90506117a98682614236565b856001600160a01b03167fe24abf0a1d8bdc06e382a8fc7157cd6c08495c024ceb329ec6c98f6c795fc26c826040516117e491815260200190565b60405180910390a26001600160a01b038681165f908152602760205260409020600101541615611886576001600160a01b038087165f908152602760209081526040808320600101549093168252602890529081208054839290611849908490614f0d565b90915550506001600160a01b038087165f90815260276020908152604080832060010154909316808352602890915291902054611886919061426a565b505b814210611996576001600160a01b0385165f908152602560205260408120908155600101805460ff191690556118be8582614236565b6001600160a01b038581165f908152602760205260409020600101541615611996576001600160a01b038086165f90815260276020908152604080832060010154909316825260289052908120805483929061191b908490614f0d565b90915550506001600160a01b038086165f90815260276020908152604080832060010154909316808352602890915291902054611958919061426a565b6001600160a01b0385165f90815260276020526040812080546001600160a01b03199081168255600182018054909116905560028101829055600301555b505050506113f66001600555565b6009545f9062010000900460ff16156119d05760405163ab35696f60e01b815260040160405180910390fd5b6001600160a01b03841615806119ed57506001600160a01b038316155b15611a0b5760405163e6c4247b60e01b815260040160405180910390fd5b5f611a178585856143d5565b9050808015611a29575060095460ff16155b15611a3657611a3661213d565b90505b9392505050565b601d546001600160a01b03163314801590611a6657506006546001600160a01b03163314155b15611a845760405163ea8e4eb560e01b815260040160405180910390fd5b601d805460ff60a81b1916600160a81b831515908102919091179091556040517f0ca89418516f56a1e463de3ed0de4a3795c57fb729015a5c16f20dd1200a29dd905f90a250565b611ad4613e3a565b60095462010000900460ff1615611afe5760405163ab35696f60e01b815260040160405180910390fd5b611b07336143f8565b61166e6001600555565b611b19613e3a565b60095462010000900460ff1615611b435760405163ab35696f60e01b815260040160405180910390fd5b333214611b625760405162461bcd60e51b815260040161152890614fa5565b335f908152602960205260409020600381015460ff16611b9557604051637d9a44a160e11b815260040160405180910390fd5b5f816001015442611ba69190614f0d565b90505f62278d00611bbf83670de0b6b3a7640000614ed7565b611bc99190614eee565b90505f68056bc75e2d6310000082601254865f0154611be89190614ed7565b611bf29190614ed7565b611bfc9190614eee565b905083600201545f14611c3957678ac7230489e80000846002015482611c229190614ed7565b611c2c9190614eee565b611c369082614ec4565b90505b8354611c489030903390613e64565b8354601180545f90611c5b908490614f0d565b90915550508015801590611c765750611c73336134dc565b15155b15611cbc57611c86303383613e64565b60405181815233907f6dd401e61ba732582a5eba3d54ccc3afb3609cd3ac1a166d1d36f75fc0aedcda9060200160405180910390a25b335f818152602960205260408082208281556001810183905560028101929092556003909101805460ff19169055855490517f7fc4727e062e336010f2c282598ef5f14facb3de68cf8195c2f23e1454b2b74e91611d24914290918252602082015260400190565b60405180910390a25050505061166e6001600555565b611d42613e3a565b60095462010000900460ff1615611d6c5760405163ab35696f60e01b815260040160405180910390fd5b6032811115611d8e5760405163d593165760e01b815260040160405180910390fd5b805f8167ffffffffffffffff811115611da957611da9614d3e565b604051908082528060200260200182016040528015611dd2578160200160208202803683370190505b506010549091505f5b83811015611ff7575f868683818110611df657611df6614fd4565b9050602002016020810190611e0b9190614a4f565b90506001600160a01b038116611e345760405163e6c4247b60e01b815260040160405180910390fd5b6001600160a01b0381165f908152602080526040902054158015611e6e57506001600160a01b0381165f9081526021602052604090205415155b15611fe5576001600160a01b0381165f908152602160205260408120547f000000000000000000000000000000000000000000000000000000000000000090611ec4906b033b2e3c9fd0803ce800000090614ed7565b611ece9190614eee565b90506103e8841015611f09576064611ee7600a83614ed7565b611ef19190614eee565b611efb9082614ec4565b9050611f0684614fe8565b93505b805f03611f17575050611fe7565b6001600160a01b038083165f90815260226020526040902054168015611fa0575f6064611f45600585614ed7565b611f4f9190614eee565b9050611f5b828261464b565b816001600160a01b03167f050bae3eeefac62a4ee36c766f4f426f09edf96ae8fb3034ebbf961e4acc78e282604051611f9691815260200190565b60405180910390a2505b6001600160a01b0383165f9081526020805260409020829055611fc3838361464b565b81868581518110611fd657611fd6614fd4565b60200260200101818152505050505b505b611ff081614fe8565b9050611ddb565b50601081905560405161200d9086908690615000565b60405180910390207f6d0c10e0399ef884a3729fe88266e321a043ae7f4d6d12afb75539720cfab71b83604051612044919061503f565b60405180910390a25050506120596001600555565b5050565b6009545f9060ff16158061209357507f0000000000000000000000000000000000000000000000000000000000000000600b5410155b1561209d57505f90565b5f7f0000000000000000000000000000000000000000000000000000000000000000600f54600b546120cf9190614ec4565b116120dc57600f54612109565b600b54612109907f0000000000000000000000000000000000000000000000000000000000000000614f0d565b600d545f908152601f6020526040902054909150818110156121345761212f8183614f0d565b612136565b5f5b9250505090565b60095462010000900460ff16156121675760405163ab35696f60e01b815260040160405180910390fd5b60095460ff1661166e57600a545f80805260208190527fad3228b676f7d3cd4284a5443f17f1962b36e491b30a40b2405849e597ba5fb5549091906002546121af9190614f0d565b6121b99190614f0d565b90507f000000000000000000000000000000000000000000000000000000000000000081106113f6576009805460ff1916600117905560405142907f60dc7136ae550f48cfeb4a0c4e69de31959531f869bd784a65dbc2c175f0b4a6905f90a250565b61222461467f565b305f908152602081905260409020546b033b2e3c9fd0803ce8000000111561225f5760405163786e0a9960e01b815260040160405180910390fd5b601d546001600160a01b0316612288576040516351ab837960e01b815260040160405180910390fd5b6007546122ac9030906001600160a01b03166b033b2e3c9fd0803ce8000000613e64565b6b033b2e3c9fd0803ce8000000600a5f8282546122c99190614f0d565b909155506122d890505f6146ac565b305f90815260208181526040918290205482516b033b2e3c9fd0803ce800000081529182015281517fe49db96a72e85d04778bb78627173221c08f5acaa50eaef5b0d94c0a8c1589b1929181900390910190a1565b602e818154811061233c575f80fd5b5f918252602090912001546001600160a01b0316905081565b602d818154811061233c575f80fd5b61236c613e3a565b60095462010000900460ff16156123965760405163ab35696f60e01b815260040160405180910390fd5b3332146123b55760405162461bcd60e51b815260040161152890614fa5565b60095460ff166123d857604051634523291560e01b815260040160405180910390fd5b805f036123f8576040516365e52d5160e11b815260040160405180910390fd5b335f9081526020819052604090205481111561242757604051631e9acf1760e31b815260040160405180910390fd5b600c544211801561245957507f0000000000000000000000000000000000000000000000000000000000000000600b54105b1561248957600d5f815461246c90614fe8565b9091555042600e819055612485906301e1338090614ec4565b600c555b600c544211156124ac5760405163e04b200160e01b815260040160405180910390fd5b5f7f0000000000000000000000000000000000000000000000000000000000000000600f54600b546124de9190614ec4565b116124eb57600f54612518565b600b54612518907f0000000000000000000000000000000000000000000000000000000000000000614f0d565b90507f000000000000000000000000000000000000000000000000000000000000000082600b546125499190614ec4565b11806125705750600d545f908152601f6020526040902054819061256e908490614ec4565b115b1561258e576040516387d5b4fb60e01b815260040160405180910390fd5b5f612598336134dc565b5f036125a4575f6125bb565b60646125b1846005614ed7565b6125bb9190614eee565b90506125c73384614236565b82600b5f8282546125d89190614ec4565b9091555050600d545f908152601f6020526040812080548592906125fd908490614ec4565b9091555050600d545f908152601e602090815260408083203384529091528120805485929061262d908490614ec4565b9091555050335f9081526021602052604081208054859290612650908490614ec4565b909155505080156126fe5780600b5f82825461266c9190614ec4565b9091555050600d545f908152601f602052604081208054839290612691908490614ec4565b9091555050335f90815260216020526040812080548392906126b4908490614ec4565b9091555050600d5460405133917f4c97ae41d96b9d1b707eb19904c08873168d11c83d16d121546ef8213f3c4078916126f591858252602082015260400190565b60405180910390a25b337f19783b34589160c168487dc7f9c51ae0bcefe67a47d6708fba90f6ce0366d3d161272a8386614ec4565b600b54600d546040805193845260208401929092529082015260600160405180910390a27f0000000000000000000000000000000000000000000000000000000000000000600b54101580156127885750600954610100900460ff16155b156127c7576009805461ff00191661010017905560405142907f487f0d08255b66d07fa5d32380f37fc9845759c2c886edb198e5a083cc8dfb4a905f90a25b50506113f66001600555565b6127dc816134dc565b5f036127e55750565b6001600160a01b0381165f908152602560205260409020600181015460ff161580156128225750601954815461281e919060801c614ec4565b4210155b15612059576001818101805460ff1916821790556040519081526001600160a01b038316907f901c366748c1200897e79f66edad4e674060ebab48cb1aff438e4504e79ed67e906020015b60405180910390a25050565b612881613e3a565b60095462010000900460ff16156128ab5760405163ab35696f60e01b815260040160405180910390fd5b6001600160a01b03821615806128c957506001600160a01b03821633145b156128e757604051632d618d8160e21b815260040160405180910390fd5b8015806128fb57506128f8336134dc565b81115b15612919576040516365e52d5160e11b815260040160405180910390fd5b335f908152602760205260409020600101546001600160a01b03161561295257604051636269cf4960e01b815260040160405180910390fd5b61295b336127d3565b335f9081526025602052604090206001015460ff1661298d57604051631878f08160e01b815260040160405180910390fd5b5f6064601c5461299c856134dc565b6129a69190614ed7565b6129b09190614eee565b6001600160a01b0384165f9081526028602052604090205490915081906129d8908490614ec4565b11156129f7576040516304bd2b1960e21b815260040160405180910390fd5b60408051608081018252338082526001600160a01b03868116602080850182815285870189815242606088019081525f96875260278452888720975188549087166001600160a01b031991821617895592516001890180549190971693169290921790945592516002860155915160039094019390935591815260289091529081208054849290612a89908490614ec4565b90915550506001600160a01b0383165f90815260286020526040902054612ab190849061426a565b6040518281526001600160a01b0384169033907ff5c2b450c3b6c4c3cc8c45e612ffa5ce51cda974e8b2ecaf58abda86d89658479060200160405180910390a3506120596001600555565b606060048054610e6990614e78565b6060602e805480602002602001604051908101604052809291908181526020018280548015610ee057602002820191905f5260205f20905b81546001600160a01b03168152600190910190602001808311612b43575050505050905090565b601d546001600160a01b03163314801590612b9057506006546001600160a01b03163314155b15612bae5760405163ea8e4eb560e01b815260040160405180910390fd5b601d54600160a01b900460ff1615612bd9576040516387ceab0160e01b815260040160405180910390fd5b7f0000000000000000000000000000000000000000000000000000000000000000612c0360025490565b1015612c22576040516390d0cc4760e01b815260040160405180910390fd5b602d545f03612c44576040516308b6a47360e41b815260040160405180910390fd5b601d805461ffff60a01b1916600160a01b179055602d545f612c86827f0000000000000000000000000000000000000000000000000000000000000000614eee565b90505f5b82811015612d4e575f602d8281548110612ca657612ca6614fd4565b5f918252602090912001546001600160a01b0316905080612cda5760405163e6c4247b60e01b815260040160405180910390fd5b826064831015612d02576064612cf1826096614ed7565b612cfb9190614eee565b9050612d25565b60c8831015612d25576064612d1882607d614ed7565b612d229190614eee565b90505b6001600160a01b039091165f908152602b6020526040902055612d4781614fe8565b9050612c8a565b50427f8f775ac6a67a8155177eacf03d476a0ada0e0de8671dcdb12b65c6e241d7ea1c8360405161286d91815260200190565b60095462010000900460ff1615612dab5760405163ab35696f60e01b815260040160405180910390fd5b5f8281526024602052604081206001810154909103612ddd57604051636ce3c70160e11b815260040160405180910390fd5b8060010154421080612df25750806002015442115b15612e1057604051632dfa5c9b60e01b815260040160405180910390fd5b335f908152600a8201602052604090205460ff1615612e4257604051637c9a1cf960e01b815260040160405180910390fd5b6009810154610100900460ff1615612e6d5760405163cf88c65760e01b815260040160405180910390fd5b335f818152600b83016020526040908190208490555184907f1f4e2aa7825ef02e85293e2de66cfbcb326af2632b558996e546bb1ef3e8764d90612eb49086815260200190565b60405180910390a3505050565b612ec9613e3a565b601d54600160a01b900460ff16612ef3576040516387ceab0160e01b815260040160405180910390fd5b335f908152602a602052604090205460ff16612f2257604051630b094f2760e31b815260040160405180910390fd5b335f908152602c602052604090205460ff1615612f5257604051630c8d9eab60e31b815260040160405180910390fd5b335f908152602b60205260408120549003612f805760405163493c1ab760e01b815260040160405180910390fd5b335f818152602b6020908152604080832054602c909252909120805460ff1916600117905590612fb0908261464b565b60405181815233907f297d75eb990c12692c7028b6d2cf422c5de200715ccf4cb9497c7ff567029cdf9060200160405180910390a25061166e6001600555565b612ff8613e3a565b60095462010000900460ff16156130225760405163ab35696f60e01b815260040160405180910390fd5b335f908152602760205260409020600101546001600160a01b031661305a5760405163e1e4e59b60e01b815260040160405180910390fd5b335f90815260276020908152604080832060018101546002909101546001600160a01b0390911680855260289093529083208054929391928392906130a0908490614f0d565b9091555050335f90815260276020908152604080832080546001600160a01b031990811682556001820180549091169055600281018490556003018390556001600160a01b038516835260289091529020546130fd90839061426a565b60405133907f6b2e7b08f80aedc85dfabf602e4cd41ccf8a9caa2961dd13719c71c3ff65bbc7905f90a2505061166e6001600555565b61313b613e3a565b60095462010000900460ff16156131655760405163ab35696f60e01b815260040160405180910390fd5b3332146131845760405162461bcd60e51b815260040161152890614fa5565b683635c9adc5dea000008110156131ae57604051638ecf3d0360e01b815260040160405180910390fd5b335f908152602081905260409020548111156131dd57604051631e9acf1760e31b815260040160405180910390fd5b335f9081526029602052604090206003015460ff161561321057604051633e560afd60e11b815260040160405180910390fd5b61321b3330836119a4565b50604080516080810182528281524260208083019182525f83850181815260016060860181815233845260299094529582209451855592519484019490945590516002830155516003909101805460ff191691151591909117905560118054839290613288908490614ec4565b90915550506040805182815242602082015233917f1449c6dd7851abc30abf37f57715f492010519147cc2652fbc38202c18a6ee90910160405180910390a26113f66001600555565b6009545f9062010000900460ff16156132fd5760405163ab35696f60e01b815260040160405180910390fd5b6001600160a01b03831661332457604051634e46966960e11b815260040160405180910390fd5b5f61332f84846146fd565b9050808015613341575060095460ff16155b15611a3957611a3961213d565b6060602d805480602002602001604051908101604052809291908181526020018280548015610ee057602002820191905f5260205f209081546001600160a01b03168152600190910190602001808311612b43575050505050905090565b6133b4613e3a565b60095462010000900460ff16156133de5760405163ab35696f60e01b815260040160405180910390fd5b6001600160a01b03821615806133fc57506001600160a01b03821633145b1561341a576040516301437f4760e31b815260040160405180910390fd5b80158061342e575061342b336134dc565b81115b1561344c576040516365e52d5160e11b815260040160405180910390fd5b613455336127d3565b335f9081526025602052604090206001015460ff1661348757604051631878f08160e01b815260040160405180910390fd5b613492308383613e64565b6040518181526001600160a01b0383169033907f1e50cdf36b7821a0ea2c0889b9a5426558cffa8eb685d3f224bb788faae557b19060200160405180910390a36120596001600555565b6009545f90610100900460ff16158061350957506001600160a01b0382165f908152602080526040902054155b1561351557505f919050565b6001600160a01b0382165f908152602560209081526040918290208251808401909352805480845260019091015460ff161515918301919091526001600160801b031642811161356857505f9392505050565b6001600160a01b0384165f90815260266020526040812054421161358c575f6135ae565b6001600160a01b0385165f908152602660205260409020546135ae9042614f0d565b90505f6103e86135c683670de0b6b3a7640000614ed7565b6135d09190614eee565b601b546001600160a01b0388165f9081526020805260408120549293509168056bc75e2d631000009184916136059190614ed7565b61360f9190614ed7565b6136199190614eee565b6001600160a01b0388165f908152602080526040902054909150811061363f575f613661565b6001600160a01b0387165f908152602080526040902054613661908290614f0d565b979650505050505050565b60236020525f90815260409020805460018201546002830180549293919261369390614e78565b80601f01602080910402602001604051908101604052809291908181526020018280546136bf90614e78565b801561370a5780601f106136e15761010080835404028352916020019161370a565b820191905f5260205f20905b8154815290600101906020018083116136ed57829003601f168201915b5050505050905083565b61371c613e3a565b60095462010000900460ff16156137465760405163ab35696f60e01b815260040160405180910390fd5b335f908152602960205260409020600381015460ff1661377957604051637d9a44a160e11b815260040160405180910390fd5b815f03613799576040516365e52d5160e11b815260040160405180910390fd5b6137a2336134dc565b8211156137c2576040516387d5b4fb60e01b815260040160405180910390fd5b80546137d090600a90614eee565b8211156137f0576040516311c2ab1f60e31b815260040160405180910390fd5b6137f9336127d3565b5f61380333613dda565b509050601954816138149190614ec4565b42101561383457604051631878f08160e01b815260040160405180910390fd5b82826002015f8282546138479190614ec4565b909155505060405183815233907f4a35c8fde6484aca5e3c4fd515e9314ca9f4a57266cdef7622cac399f20ac32a9060200160405180910390a250506113f66001600555565b60015f82815b81811015613975575f8686838181106138ae576138ae614fd4565b90506020020160208101906138c39190614a4f565b90506001600160a01b0381166138ec5760405163e6c4247b60e01b815260040160405180910390fd5b5f6138f6826134dc565b90506139028186614ec4565b6001600160a01b0383165f90815260208052604090205490955015801590613928575080155b801561395357506001600160a01b0382165f908152602560205260409020546001600160801b031642105b15613962575f95505050613975565b50508061396e90614fe8565b9050613893565b50509250929050565b60095462010000900460ff16156139a85760405163ab35696f60e01b815260040160405180910390fd5b69152d02c7e14af68000006139bc336134dc565b10156139db57604051631e9acf1760e31b815260040160405180910390fd5b335f908152600860205260409020546139f89062278d0090614ec4565b421015613a185760405163fd7af65f60e01b815260040160405180910390fd5b600281600b811115613a2c57613a2c614ac2565b1480613a495750600581600b811115613a4757613a47614ac2565b145b613a675782158015613a6257506001600160a01b038216155b613a6b565b8351155b15613a89576040516337ad598360e01b815260040160405180910390fd5b60165f8154613a9790614fe8565b909155506016545f8181526024602052604090209081556006810180546001600160a01b0319163317905560088101613ad086826150c3565b50600381018490556007810180546001600160a01b0319166001600160a01b03851617905560098101805483919060ff1916600183600b811115613b1657613b16614ac2565b02179055504260018201819055613b319062093a8090614ec4565b6002820155335f8181526008602052604090819020429055825490517f64147b1d4b260ddd199f9e9a7c1d4e444605245a354c18a74fdcc8e9004da33e90613b7c908990879061517f565b60405180910390a35050505050565b613b9361467f565b6001600160a01b038116613bbc57604051631e4fbdf760e01b81525f6004820152602401611528565b6113f6816146ac565b60095462010000900460ff1615613bef5760405163ab35696f60e01b815260040160405180910390fd5b5f8381526024602052604081206001810154909103613c2157604051636ce3c70160e11b815260040160405180910390fd5b8060010154421080613c365750806002015442115b15613c5457604051632dfa5c9b60e01b815260040160405180910390fd5b335f908152600a8201602052604090205460ff1615613c8657604051637c9a1cf960e01b815260040160405180910390fd5b6009810154610100900460ff1615613cb15760405163cf88c65760e01b815260040160405180910390fd5b60408051841515602082015290810183905233606082015260800160408051601f198184030181529181528151602092830120335f908152600b850190935291205414613d115760405163b7b3378760e01b815260040160405180910390fd5b613d1a336127d3565b5f613d24336134dc565b9050805f03613d465760405163e100018160e01b815260040160405180910390fd5b335f908152600a830160205260409020805460ff191660011790558315613d855780826004015f828254613d7a9190614ec4565b90915550613d9e9050565b80826005015f828254613d989190614ec4565b90915550505b60408051851515815260208101839052339187917f96b7e5dbd1a0bb4b34731d1dfce6ea83eab3fadbf4710c77ad43106f771f90fb9101613b7c565b6001600160a01b03165f908152602560209081526040918290208251808401909352805480845260019091015460ff1615159290910191909152608081901c916001600160801b0390911690565b613e35838383600161470a565b505050565b600260055403613e5d57604051633ee5aeb560e01b815260040160405180910390fd5b6002600555565b604080516001600160a01b038416602482015260448082018490528251808303909101815260649091019091526020810180516001600160e01b031663a9059cbb60e01b179052613e359084906147dc565b601d546001600160a01b03163314613ee15760405163ea8e4eb560e01b815260040160405180910390fd5b600283600b811115613ef557613ef5614ac2565b03613f1c576009805462ff0000198116620100009182900460ff16159091021790556141dd565b5f83600b811115613f2f57613f2f614ac2565b03613f8857811580613f6057507f000000000000000000000000000000000000000000000000000000000000000082115b15613f7e576040516302075cc160e41b815260040160405180910390fd5b600f8290556141dd565b600183600b811115613f9c57613f9c614ac2565b03613fd657811580613fae5750606482115b15613fcc576040516308af88a160e21b815260040160405180910390fd5b60128290556141dd565b600683600b811115613fea57613fea614ac2565b03614029576103e882108061400157506298968082115b1561401f576040516353a66d7160e01b815260040160405180910390fd5b60198290556141dd565b600783600b81111561403d5761403d614ac2565b0361407d5761271082108061405557506305f5e10082115b1561407357604051634ee281d960e01b815260040160405180910390fd5b601a8290556141dd565b600883600b81111561409157614091614ac2565b036140cb578115806140a35750600a82115b156140c157604051635ac789e360e01b815260040160405180910390fd5b601b8290556141dd565b600b83600b8111156140df576140df614ac2565b03614119578115806140f15750603282115b1561410f576040516311d148a560e31b815260040160405180910390fd5b601c8290556141dd565b600983600b81111561412d5761412d614ac2565b036141915769d3c21bcecceda100000082108061416957507f000000000000000000000000000000000000000000000000000000000000000082115b156141875760405163e2d9bbff60e01b815260040160405180910390fd5b60138290556141dd565b600a83600b8111156141a5576141a5614ac2565b036141dd57600a8210806141b95750605a82115b156141d757604051631f58673560e01b815260040160405180910390fd5b60148290555b82600b8111156141ef576141ef614ac2565b604080518481526001600160a01b03841660208201527ffc0390d67ebdc63d4aed005ea60c5adc2f760de6ad9846edc5b471828a80dd4891015b60405180910390a2505050565b6001600160a01b03821661425f57604051634b637e8f60e11b81525f6004820152602401611528565b612059825f83614848565b602e545f5b8181101561436f57836001600160a01b0316602e828154811061429457614294614fd4565b5f918252602090912001546001600160a01b03160361435f57825f0361435957602e6142c1600184614f0d565b815481106142d1576142d1614fd4565b5f91825260209091200154602e80546001600160a01b0390921691839081106142fc576142fc614fd4565b905f5260205f20015f6101000a8154816001600160a01b0302191690836001600160a01b03160217905550602e805480614338576143386151a0565b5f8281526020902081015f1990810180546001600160a01b03191690550190555b50505050565b61436881614fe8565b905061426f565b50811580159061437f5750600a81105b15613e3557602e80546001810182555f919091527f37fa166cbdbfbb1561ccd9ea985ec0218b5e68502e230525f544285b2bdf3d7e0180546001600160a01b0385166001600160a01b0319909116179055505050565b5f336143e2858285614961565b6143ed8585856149d7565b506001949350505050565b600954610100900460ff16158061442457506001600160a01b0381165f90815260208052604090205415155b8061444457506001600160a01b0381165f90815260216020526040902054155b15614462576040516354d8723760e01b815260040160405180910390fd5b7f0000000000000000000000000000000000000000000000000000000000000000600b5411156144a5576040516387d5b4fb60e01b815260040160405180910390fd5b6001600160a01b0381165f908152602160205260408120547f0000000000000000000000000000000000000000000000000000000000000000906144f6906b033b2e3c9fd0803ce800000090614ed7565b6145009190614eee565b90506103e8601054101561454457606461451b600a83614ed7565b6145259190614eee565b61452f9082614ec4565b905060105f815461453f90614fe8565b909155505b805f036145645760405163374c934360e11b815260040160405180910390fd5b6001600160a01b038083165f908152602260205260409020541680156145ed575f6064614592600585614ed7565b61459c9190614eee565b90506145a8828261464b565b816001600160a01b03167f050bae3eeefac62a4ee36c766f4f426f09edf96ae8fb3034ebbf961e4acc78e2826040516145e391815260200190565b60405180910390a2505b6001600160a01b0383165f9081526020805260409020829055614610838361464b565b826001600160a01b03167fb60ccdad08a990849494cadc2278b346a8742fb757e67c422f71e3e64fb77b458360405161422991815260200190565b6001600160a01b0382166146745760405163ec442f0560e01b81525f6004820152602401611528565b6120595f8383614848565b6006546001600160a01b0316331461166e5760405163118cdaa760e01b8152336004820152602401611528565b600680546001600160a01b038381166001600160a01b0319831681179093556040519116919082907f8be0079c531659141344cd1fd0a4f28419497f9722a3daafe3b4186f6b6457e0905f90a35050565b5f33610ef78185856149d7565b6001600160a01b0384166147335760405163e602df0560e01b81525f6004820152602401611528565b6001600160a01b03831661475c57604051634a1406b160e11b81525f6004820152602401611528565b6001600160a01b038085165f908152600160209081526040808320938716835292905220829055801561435957826001600160a01b0316846001600160a01b03167f8c5be1e5ebec7d5bd14f71427d1e84f3dd0314c0f7b2291e5b200ac8c7c3b925846040516147ce91815260200190565b60405180910390a350505050565b5f8060205f8451602086015f885af1806147fb576040513d5f823e3d81fd5b50505f513d9150811561481257806001141561481f565b6001600160a01b0384163b155b1561435957604051635274afe760e01b81526001600160a01b0385166004820152602401611528565b6001600160a01b038316614872578060025f8282546148679190614ec4565b909155506148e29050565b6001600160a01b0383165f90815260208190526040902054818110156148c45760405163391434e360e21b81526001600160a01b03851660048201526024810182905260448101839052606401611528565b6001600160a01b0384165f9081526020819052604090209082900390555b6001600160a01b0382166148fe5760028054829003905561491c565b6001600160a01b0382165f9081526020819052604090208054820190555b816001600160a01b0316836001600160a01b03167fddf252ad1be2c89b69c2b068fc378daa952ba7f163c4a11628f55a4df523b3ef83604051612eb491815260200190565b6001600160a01b038381165f908152600160209081526040808320938616835292905220545f1981101561435957818110156149c957604051637dc7a0d960e11b81526001600160a01b03841660048201526024810182905260448101839052606401611528565b61435984848484035f61470a565b6001600160a01b038316614a0057604051634b637e8f60e11b81525f6004820152602401611528565b6001600160a01b038216614a295760405163ec442f0560e01b81525f6004820152602401611528565b613e35838383614848565b80356001600160a01b0381168114614a4a575f80fd5b919050565b5f60208284031215614a5f575f80fd5b611a3982614a34565b5f60208284031215614a78575f80fd5b5035919050565b5f81518084525f5b81811015614aa357602081850181015186830182015201614a87565b505f602082860101526020601f19601f83011685010191505092915050565b634e487b7160e01b5f52602160045260245ffd5b600c8110614af257634e487b7160e01b5f52602160045260245ffd5b9052565b5f6101608d83528c60208401528b60408401528a60608401528960808401528860a084015260018060a01b0380891660c085015280881660e08501525080610100840152614b4681840187614a7f565b915050614b57610120830185614ad6565b8215156101408301529c9b505050505050505050505050565b602081525f611a396020830184614a7f565b5f8060408385031215614b93575f80fd5b614b9c83614a34565b946020939093013593505050565b5f805f60608486031215614bbc575f80fd5b614bc584614a34565b9250614bd360208501614a34565b9150604084013590509250925092565b80358015158114614a4a575f80fd5b5f60208284031215614c02575f80fd5b611a3982614be3565b5f8060208385031215614c1c575f80fd5b823567ffffffffffffffff80821115614c33575f80fd5b818501915085601f830112614c46575f80fd5b813581811115614c54575f80fd5b8660208260051b8501011115614c68575f80fd5b60209290920196919550909350505050565b602080825282518282018190525f9190848201906040850190845b81811015614cba5783516001600160a01b031683529284019291840191600101614c95565b50909695505050505050565b5f8060408385031215614cd7575f80fd5b50508035926020909101359150565b838152826020820152606060408201525f614d046060830184614a7f565b95945050505050565b5f8060408385031215614d1e575f80fd5b614d2783614a34565b9150614d3560208401614a34565b90509250929050565b634e487b7160e01b5f52604160045260245ffd5b8035600c8110614a4a575f80fd5b5f805f8060808587031215614d73575f80fd5b843567ffffffffffffffff80821115614d8a575f80fd5b818701915087601f830112614d9d575f80fd5b813581811115614daf57614daf614d3e565b604051601f8201601f19908116603f01168101908382118183101715614dd757614dd7614d3e565b816040528281528a6020848701011115614def575f80fd5b826020860160208301375f60208483010152809850505050505060208501359250614e1c60408601614a34565b9150614e2a60608601614d52565b905092959194509250565b5f8060408385031215614e46575f80fd5b82359150614d3560208401614a34565b5f805f60608486031215614e68575f80fd5b83359250614bd360208501614be3565b600181811c90821680614e8c57607f821691505b602082108103614eaa57634e487b7160e01b5f52602260045260245ffd5b50919050565b634e487b7160e01b5f52601160045260245ffd5b80820180821115610efd57610efd614eb0565b8082028115828204841417610efd57610efd614eb0565b5f82614f0857634e487b7160e01b5f52601260045260245ffd5b500490565b81810381811115610efd57610efd614eb0565b5f60208083525f8454614f3281614e78565b8084870152604060018084165f8114614f525760018114614f6c57614f97565b60ff1985168984015283151560051b890183019550614f97565b895f52865f205f5b85811015614f8f5781548b8201860152908301908801614f74565b8a0184019650505b509398975050505050505050565b60208082526015908201527410dbdb9d1c9858dd1cc81b9bdd08185b1b1bddd959605a1b604082015260600190565b634e487b7160e01b5f52603260045260245ffd5b5f60018201614ff957614ff9614eb0565b5060010190565b5f8184825b85811015615034576001600160a01b0361501e83614a34565b1683526020928301929190910190600101615005565b509095945050505050565b602080825282518282018190525f9190848201906040850190845b81811015614cba5783518352928401929184019160010161505a565b601f821115613e35575f81815260208120601f850160051c8101602086101561509c5750805b601f850160051c820191505b818110156150bb578281556001016150a8565b505050505050565b815167ffffffffffffffff8111156150dd576150dd614d3e565b6150f1816150eb8454614e78565b84615076565b602080601f831160018114615124575f841561510d5750858301515b5f19600386901b1c1916600185901b1785556150bb565b5f85815260208120601f198616915b8281101561515257888601518255948401946001909101908401615133565b508582101561516f57878501515f19600388901b60f8161c191681555b5050505050600190811b01905550565b604081525f6151916040830185614a7f565b9050611a396020830184614ad6565b634e487b7160e01b5f52603160045260245ffdfea264697066735822122089e19c3c2cdf6c56166db24e01f98e1419d1ce8ad640411286bc841f382772bb64736f6c63430008140033",
		"opcodes": "PUSH1 0x80 PUSH1 0x40 MSTORE CALLVALUE DUP1 ISZERO PUSH2 0xF JUMPI PUSH0 DUP1 REVERT JUMPDEST POP PUSH1 0x4 CALLDATASIZE LT PUSH2 0x4E7 JUMPI PUSH0 CALLDATALOAD PUSH1 0xE0 SHR DUP1 PUSH4 0x786FF4BE GT PUSH2 0x28F JUMPI DUP1 PUSH4 0xA9059CBB GT PUSH2 0x161 JUMPI DUP1 PUSH4 0xD89135CD GT PUSH2 0xD5 JUMPI DUP1 PUSH4 0xE016A04C GT PUSH2 0x8F JUMPI DUP1 PUSH4 0xE016A04C EQ PUSH2 0xCBF JUMPI DUP1 PUSH4 0xE2A6EC78 EQ PUSH2 0xCD2 JUMPI DUP1 PUSH4 0xF2FDE38B EQ PUSH2 0xCF1 JUMPI DUP1 PUSH4 0xF5F1E6B0 EQ PUSH2 0xD04 JUMPI DUP1 PUSH4 0xFACC092F EQ PUSH2 0xD2E JUMPI DUP1 PUSH4 0xFBEA5B3B EQ PUSH2 0xD41 JUMPI PUSH0 DUP1 REVERT JUMPDEST DUP1 PUSH4 0xD89135CD EQ PUSH2 0xC05 JUMPI DUP1 PUSH4 0xDA35C664 EQ PUSH2 0xC0E JUMPI DUP1 PUSH4 0xDCFCF974 EQ PUSH2 0xC17 JUMPI DUP1 PUSH4 0xDD62ED3E EQ PUSH2 0xC41 JUMPI DUP1 PUSH4 0xDE1CF4AD EQ PUSH2 0xC79 JUMPI DUP1 PUSH4 0xDFC06C29 EQ PUSH2 0xC98 JUMPI PUSH0 DUP1 REVERT JUMPDEST DUP1 PUSH4 0xBA59931D GT PUSH2 0x126 JUMPI DUP1 PUSH4 0xBA59931D EQ PUSH2 0xB63 JUMPI DUP1 PUSH4 0xBCEA610E EQ PUSH2 0xB76 JUMPI DUP1 PUSH4 0xC998C53F EQ PUSH2 0xB98 JUMPI DUP1 PUSH4 0xCA409D81 EQ PUSH2 0xBD6 JUMPI DUP1 PUSH4 0xCCD82CD6 EQ PUSH2 0xBE9 JUMPI DUP1 PUSH4 0xD2E518C5 EQ PUSH2 0xBF2 JUMPI PUSH0 DUP1 REVERT JUMPDEST DUP1 PUSH4 0xA9059CBB EQ PUSH2 0xAFB JUMPI DUP1 PUSH4 0xB08E181E EQ PUSH2 0xB0E JUMPI DUP1 PUSH4 0xB172B222 EQ PUSH2 0xB16 JUMPI DUP1 PUSH4 0xB4AC4536 EQ PUSH2 0xB29 JUMPI DUP1 PUSH4 0xB8FCA4FC EQ PUSH2 0xB50 JUMPI PUSH0 DUP1 REVERT JUMPDEST DUP1 PUSH4 0x95D89B41 GT PUSH2 0x203 JUMPI DUP1 PUSH4 0x9CA423B3 GT PUSH2 0x1BD JUMPI DUP1 PUSH4 0x9CA423B3 EQ PUSH2 0xA94 JUMPI DUP1 PUSH4 0x9DA69180 EQ PUSH2 0xABC JUMPI DUP1 PUSH4 0xA0EF4D0E EQ PUSH2 0xACF JUMPI DUP1 PUSH4 0xA2906FD0 EQ PUSH2 0xAD8 JUMPI DUP1 PUSH4 0xA4D31805 EQ PUSH2 0xAE0 JUMPI DUP1 PUSH4 0xA694FC3A EQ PUSH2 0xAE8 JUMPI PUSH0 DUP1 REVERT JUMPDEST DUP1 PUSH4 0x95D89B41 EQ PUSH2 0x9ED JUMPI DUP1 PUSH4 0x96ADBF8C EQ PUSH2 0x9F5 JUMPI DUP1 PUSH4 0x9885B7E1 EQ PUSH2 0xA02 JUMPI DUP1 PUSH4 0x99AA12BB EQ PUSH2 0xA17 JUMPI DUP1 PUSH4 0x9A63F604 EQ PUSH2 0xA83 JUMPI DUP1 PUSH4 0x9BFDAE5E EQ PUSH2 0xA8B JUMPI PUSH0 DUP1 REVERT JUMPDEST DUP1 PUSH4 0x7F09DC31 GT PUSH2 0x254 JUMPI DUP1 PUSH4 0x7F09DC31 EQ PUSH2 0x99B JUMPI DUP1 PUSH4 0x80A78549 EQ PUSH2 0x9AE JUMPI DUP1 PUSH4 0x817B1CD2 EQ PUSH2 0x9B7 JUMPI DUP1 PUSH4 0x8DA5CB5B EQ PUSH2 0x9C0 JUMPI DUP1 PUSH4 0x926F7327 EQ PUSH2 0x9D1 JUMPI DUP1 PUSH4 0x938D40E8 EQ PUSH2 0x9E4 JUMPI PUSH0 DUP1 REVERT JUMPDEST DUP1 PUSH4 0x786FF4BE EQ PUSH2 0x912 JUMPI DUP1 PUSH4 0x7BDE5DF8 EQ PUSH2 0x925 JUMPI DUP1 PUSH4 0x7C7E62E5 EQ PUSH2 0x938 JUMPI DUP1 PUSH4 0x7D58AEB6 EQ PUSH2 0x95A JUMPI DUP1 PUSH4 0x7ED3DEBA EQ PUSH2 0x97C JUMPI PUSH0 DUP1 REVERT JUMPDEST DUP1 PUSH4 0x302A6528 GT PUSH2 0x3C8 JUMPI DUP1 PUSH4 0x5162F626 GT PUSH2 0x33C JUMPI DUP1 PUSH4 0x715018A6 GT PUSH2 0x2F6 JUMPI DUP1 PUSH4 0x715018A6 EQ PUSH2 0x891 JUMPI DUP1 PUSH4 0x72677D3C EQ PUSH2 0x899 JUMPI DUP1 PUSH4 0x72DFE348 EQ PUSH2 0x8AB JUMPI DUP1 PUSH4 0x72F721AC EQ PUSH2 0x8CA JUMPI DUP1 PUSH4 0x76C8F6D1 EQ PUSH2 0x8D3 JUMPI DUP1 PUSH4 0x77D217ED EQ PUSH2 0x8E7 JUMPI PUSH0 DUP1 REVERT JUMPDEST DUP1 PUSH4 0x5162F626 EQ PUSH2 0x814 JUMPI DUP1 PUSH4 0x5778712C EQ PUSH2 0x81C JUMPI DUP1 PUSH4 0x6A9B1FBF EQ PUSH2 0x830 JUMPI DUP1 PUSH4 0x6D0E4378 EQ PUSH2 0x839 JUMPI DUP1 PUSH4 0x6DBFAD91 EQ PUSH2 0x860 JUMPI DUP1 PUSH4 0x70A08231 EQ PUSH2 0x869 JUMPI PUSH0 DUP1 REVERT JUMPDEST DUP1 PUSH4 0x3667CA1B GT PUSH2 0x38D JUMPI DUP1 PUSH4 0x3667CA1B EQ PUSH2 0x730 JUMPI DUP1 PUSH4 0x3CC39F16 EQ PUSH2 0x757 JUMPI DUP1 PUSH4 0x40D74F18 EQ PUSH2 0x779 JUMPI DUP1 PUSH4 0x413236F7 EQ PUSH2 0x7F8 JUMPI DUP1 PUSH4 0x44512CA6 EQ PUSH2 0x801 JUMPI DUP1 PUSH4 0x467F67F9 EQ PUSH2 0x80A JUMPI PUSH0 DUP1 REVERT JUMPDEST DUP1 PUSH4 0x302A6528 EQ PUSH2 0x6D6 JUMPI DUP1 PUSH4 0x30373133 EQ PUSH2 0x6DF JUMPI DUP1 PUSH4 0x313CE567 EQ PUSH2 0x6F2 JUMPI DUP1 PUSH4 0x32CB6B0C EQ PUSH2 0x701 JUMPI DUP1 PUSH4 0x3426EA46 EQ PUSH2 0x728 JUMPI PUSH0 DUP1 REVERT JUMPDEST DUP1 PUSH4 0x1AECC93A GT PUSH2 0x45F JUMPI DUP1 PUSH4 0x25AC2B92 GT PUSH2 0x424 JUMPI DUP1 PUSH4 0x25AC2B92 EQ PUSH2 0x68E JUMPI DUP1 PUSH4 0x27A489E3 EQ PUSH2 0x6A1 JUMPI DUP1 PUSH4 0x27C830A9 EQ PUSH2 0x6A9 JUMPI DUP1 PUSH4 0x297A97D7 EQ PUSH2 0x6BC JUMPI DUP1 PUSH4 0x2DEF6620 EQ PUSH2 0x6C5 JUMPI DUP1 PUSH4 0x2E80D9B6 EQ PUSH2 0x6CD JUMPI PUSH0 DUP1 REVERT JUMPDEST DUP1 PUSH4 0x1AECC93A EQ PUSH2 0x638 JUMPI DUP1 PUSH4 0x1E409127 EQ PUSH2 0x640 JUMPI DUP1 PUSH4 0x20095760 EQ PUSH2 0x65F JUMPI DUP1 PUSH4 0x21226F40 EQ PUSH2 0x672 JUMPI DUP1 PUSH4 0x23B872DD EQ PUSH2 0x67B JUMPI PUSH0 DUP1 REVERT JUMPDEST DUP1 PUSH4 0xF1A2905 GT PUSH2 0x4B0 JUMPI DUP1 PUSH4 0xF1A2905 EQ PUSH2 0x593 JUMPI DUP1 PUSH4 0x1129753F EQ PUSH2 0x59C JUMPI DUP1 PUSH4 0x1247D4F7 EQ PUSH2 0x5AF JUMPI DUP1 PUSH4 0x16934FC4 EQ PUSH2 0x5CE JUMPI DUP1 PUSH4 0x18160DDD EQ PUSH2 0x627 JUMPI DUP1 PUSH4 0x184D1B93 EQ PUSH2 0x62F JUMPI PUSH0 DUP1 REVERT JUMPDEST DUP1 PUSH3 0x429BD1 EQ PUSH2 0x4EB JUMPI DUP1 PUSH4 0x13CF08B EQ PUSH2 0x51C JUMPI DUP1 PUSH4 0x6FDDE03 EQ PUSH2 0x546 JUMPI DUP1 PUSH4 0x95EA7B3 EQ PUSH2 0x55B JUMPI DUP1 PUSH4 0xD61B519 EQ PUSH2 0x57E JUMPI JUMPDEST PUSH0 DUP1 REVERT JUMPDEST PUSH2 0x509 PUSH2 0x4F9 CALLDATASIZE PUSH1 0x4 PUSH2 0x4A4F JUMP JUMPDEST PUSH1 0x20 DUP1 MSTORE PUSH0 SWAP1 DUP2 MSTORE PUSH1 0x40 SWAP1 KECCAK256 SLOAD DUP2 JUMP JUMPDEST PUSH1 0x40 MLOAD SWAP1 DUP2 MSTORE PUSH1 0x20 ADD JUMPDEST PUSH1 0x40 MLOAD DUP1 SWAP2 SUB SWAP1 RETURN JUMPDEST PUSH2 0x52F PUSH2 0x52A CALLDATASIZE PUSH1 0x4 PUSH2 0x4A68 JUMP JUMPDEST PUSH2 0xD69 JUMP JUMPDEST PUSH1 0x40 MLOAD PUSH2 0x513 SWAP12 SWAP11 SWAP10 SWAP9 SWAP8 SWAP7 SWAP6 SWAP5 SWAP4 SWAP3 SWAP2 SWAP1 PUSH2 0x4AF6 JUMP JUMPDEST PUSH2 0x54E PUSH2 0xE5A JUMP JUMPDEST PUSH1 0x40 MLOAD PUSH2 0x513 SWAP2 SWAP1 PUSH2 0x4B70 JUMP JUMPDEST PUSH2 0x56E PUSH2 0x569 CALLDATASIZE PUSH1 0x4 PUSH2 0x4B82 JUMP JUMPDEST PUSH2 0xEEA JUMP JUMPDEST PUSH1 0x40 MLOAD SWAP1 ISZERO ISZERO DUP2 MSTORE PUSH1 0x20 ADD PUSH2 0x513 JUMP JUMPDEST PUSH2 0x591 PUSH2 0x58C CALLDATASIZE PUSH1 0x4 PUSH2 0x4A68 JUMP JUMPDEST PUSH2 0xF03 JUMP JUMPDEST STOP JUMPDEST PUSH2 0x509 PUSH1 0x12 SLOAD DUP2 JUMP JUMPDEST PUSH2 0x591 PUSH2 0x5AA CALLDATASIZE PUSH1 0x4 PUSH2 0x4A4F JUMP JUMPDEST PUSH2 0x13F9 JUMP JUMPDEST PUSH2 0x509 PUSH2 0x5BD CALLDATASIZE PUSH1 0x4 PUSH2 0x4A68 JUMP JUMPDEST PUSH1 0x1F PUSH1 0x20 MSTORE PUSH0 SWAP1 DUP2 MSTORE PUSH1 0x40 SWAP1 KECCAK256 SLOAD DUP2 JUMP JUMPDEST PUSH2 0x605 PUSH2 0x5DC CALLDATASIZE PUSH1 0x4 PUSH2 0x4A4F JUMP JUMPDEST PUSH1 0x29 PUSH1 0x20 MSTORE PUSH0 SWAP1 DUP2 MSTORE PUSH1 0x40 SWAP1 KECCAK256 DUP1 SLOAD PUSH1 0x1 DUP3 ADD SLOAD PUSH1 0x2 DUP4 ADD SLOAD PUSH1 0x3 SWAP1 SWAP4 ADD SLOAD SWAP2 SWAP3 SWAP1 SWAP2 PUSH1 0xFF AND DUP5 JUMP JUMPDEST PUSH1 0x40 DUP1 MLOAD SWAP5 DUP6 MSTORE PUSH1 0x20 DUP6 ADD SWAP4 SWAP1 SWAP4 MSTORE SWAP2 DUP4 ADD MSTORE ISZERO ISZERO PUSH1 0x60 DUP3 ADD MSTORE PUSH1 0x80 ADD PUSH2 0x513 JUMP JUMPDEST PUSH1 0x2 SLOAD PUSH2 0x509 JUMP JUMPDEST PUSH2 0x509 PUSH1 0x1A SLOAD DUP2 JUMP JUMPDEST PUSH2 0x591 PUSH2 0x14D7 JUMP JUMPDEST PUSH2 0x509 PUSH2 0x64E CALLDATASIZE PUSH1 0x4 PUSH2 0x4A4F JUMP JUMPDEST PUSH1 0x28 PUSH1 0x20 MSTORE PUSH0 SWAP1 DUP2 MSTORE PUSH1 0x40 SWAP1 KECCAK256 SLOAD DUP2 JUMP JUMPDEST PUSH2 0x591 PUSH2 0x66D CALLDATASIZE PUSH1 0x4 PUSH2 0x4A4F JUMP JUMPDEST PUSH2 0x1670 JUMP JUMPDEST PUSH2 0x509 PUSH1 0x15 SLOAD DUP2 JUMP JUMPDEST PUSH2 0x56E PUSH2 0x689 CALLDATASIZE PUSH1 0x4 PUSH2 0x4BAA JUMP JUMPDEST PUSH2 0x19A4 JUMP JUMPDEST PUSH2 0x591 PUSH2 0x69C CALLDATASIZE PUSH1 0x4 PUSH2 0x4BF2 JUMP JUMPDEST PUSH2 0x1A40 JUMP JUMPDEST PUSH2 0x591 PUSH2 0x1ACC JUMP JUMPDEST PUSH1 0x9 SLOAD PUSH2 0x56E SWAP1 PUSH3 0x10000 SWAP1 DIV PUSH1 0xFF AND DUP2 JUMP JUMPDEST PUSH2 0x509 PUSH1 0x17 SLOAD DUP2 JUMP JUMPDEST PUSH2 0x591 PUSH2 0x1B11 JUMP JUMPDEST PUSH2 0x509 PUSH1 0x13 SLOAD DUP2 JUMP JUMPDEST PUSH2 0x509 PUSH1 0xD SLOAD DUP2 JUMP JUMPDEST PUSH2 0x591 PUSH2 0x6ED CALLDATASIZE PUSH1 0x4 PUSH2 0x4C0B JUMP JUMPDEST PUSH2 0x1D3A JUMP JUMPDEST PUSH1 0x40 MLOAD PUSH1 0x12 DUP2 MSTORE PUSH1 0x20 ADD PUSH2 0x513 JUMP JUMPDEST PUSH2 0x509 PUSH32 0x0 DUP2 JUMP JUMPDEST PUSH2 0x509 PUSH2 0x205D JUMP JUMPDEST PUSH2 0x509 PUSH32 0x0 DUP2 JUMP JUMPDEST PUSH2 0x56E PUSH2 0x765 CALLDATASIZE PUSH1 0x4 PUSH2 0x4A4F JUMP JUMPDEST PUSH1 0x2C PUSH1 0x20 MSTORE PUSH0 SWAP1 DUP2 MSTORE PUSH1 0x40 SWAP1 KECCAK256 SLOAD PUSH1 0xFF AND DUP2 JUMP JUMPDEST PUSH1 0x1D SLOAD PUSH1 0x2D SLOAD CALLER PUSH0 SWAP1 DUP2 MSTORE PUSH1 0x2A PUSH1 0x20 SWAP1 DUP2 MSTORE PUSH1 0x40 DUP1 DUP4 KECCAK256 SLOAD PUSH1 0x2B DUP4 MSTORE DUP2 DUP5 KECCAK256 SLOAD PUSH1 0x2C DUP5 MSTORE SWAP4 DUP3 SWAP1 KECCAK256 SLOAD DUP3 MLOAD PUSH1 0xFF PUSH1 0x1 PUSH1 0xA0 SHL DUP10 DIV DUP2 AND ISZERO ISZERO DUP3 MSTORE PUSH1 0x1 PUSH1 0xA8 SHL SWAP1 SWAP9 DIV DUP9 AND ISZERO ISZERO SWAP5 DUP2 ADD SWAP5 SWAP1 SWAP5 MSTORE SWAP2 DUP4 ADD SWAP5 SWAP1 SWAP5 MSTORE PUSH2 0x3E8 PUSH1 0x60 DUP4 ADD MSTORE SWAP3 DUP5 AND ISZERO ISZERO PUSH1 0x80 DUP3 ADD MSTORE PUSH1 0xA0 DUP2 ADD SWAP2 SWAP1 SWAP2 MSTORE SWAP2 AND ISZERO ISZERO PUSH1 0xC0 DUP3 ADD MSTORE PUSH1 0xE0 ADD PUSH2 0x513 JUMP JUMPDEST PUSH2 0x509 PUSH1 0x1C SLOAD DUP2 JUMP JUMPDEST PUSH2 0x509 PUSH1 0xC SLOAD DUP2 JUMP JUMPDEST PUSH2 0x509 PUSH3 0x278D00 DUP2 JUMP JUMPDEST PUSH2 0x591 PUSH2 0x213D JUMP JUMPDEST PUSH1 0x1D SLOAD PUSH2 0x56E SWAP1 PUSH1 0x1 PUSH1 0xA0 SHL SWAP1 DIV PUSH1 0xFF AND DUP2 JUMP JUMPDEST PUSH2 0x509 PUSH1 0xA SLOAD DUP2 JUMP JUMPDEST PUSH2 0x509 PUSH32 0x0 DUP2 JUMP JUMPDEST PUSH2 0x509 PUSH1 0xE SLOAD DUP2 JUMP JUMPDEST PUSH2 0x509 PUSH2 0x877 CALLDATASIZE PUSH1 0x4 PUSH2 0x4A4F JUMP JUMPDEST PUSH1 0x1 PUSH1 0x1 PUSH1 0xA0 SHL SUB AND PUSH0 SWAP1 DUP2 MSTORE PUSH1 0x20 DUP2 SWAP1 MSTORE PUSH1 0x40 SWAP1 KECCAK256 SLOAD SWAP1 JUMP JUMPDEST PUSH2 0x591 PUSH2 0x221C JUMP JUMPDEST PUSH1 0x9 SLOAD PUSH2 0x56E SWAP1 PUSH2 0x100 SWAP1 DIV PUSH1 0xFF AND DUP2 JUMP JUMPDEST PUSH2 0x509 PUSH2 0x8B9 CALLDATASIZE PUSH1 0x4 PUSH2 0x4A4F JUMP JUMPDEST PUSH1 0x8 PUSH1 0x20 MSTORE PUSH0 SWAP1 DUP2 MSTORE PUSH1 0x40 SWAP1 KECCAK256 SLOAD DUP2 JUMP JUMPDEST PUSH2 0x509 PUSH1 0x19 SLOAD DUP2 JUMP JUMPDEST PUSH1 0x1D SLOAD PUSH2 0x56E SWAP1 PUSH1 0x1 PUSH1 0xA8 SHL SWAP1 DIV PUSH1 0xFF AND DUP2 JUMP JUMPDEST PUSH2 0x8FA PUSH2 0x8F5 CALLDATASIZE PUSH1 0x4 PUSH2 0x4A68 JUMP JUMPDEST PUSH2 0x232D JUMP JUMPDEST PUSH1 0x40 MLOAD PUSH1 0x1 PUSH1 0x1 PUSH1 0xA0 SHL SUB SWAP1 SWAP2 AND DUP2 MSTORE PUSH1 0x20 ADD PUSH2 0x513 JUMP JUMPDEST PUSH2 0x8FA PUSH2 0x920 CALLDATASIZE PUSH1 0x4 PUSH2 0x4A68 JUMP JUMPDEST PUSH2 0x2355 JUMP JUMPDEST PUSH2 0x591 PUSH2 0x933 CALLDATASIZE PUSH1 0x4 PUSH2 0x4A68 JUMP JUMPDEST PUSH2 0x2364 JUMP JUMPDEST PUSH2 0x56E PUSH2 0x946 CALLDATASIZE PUSH1 0x4 PUSH2 0x4A4F JUMP JUMPDEST PUSH1 0x2A PUSH1 0x20 MSTORE PUSH0 SWAP1 DUP2 MSTORE PUSH1 0x40 SWAP1 KECCAK256 SLOAD PUSH1 0xFF AND DUP2 JUMP JUMPDEST PUSH1 0x16 SLOAD PUSH0 SWAP1 DUP2 MSTORE PUSH1 0x24 PUSH1 0x20 MSTORE PUSH1 0x40 SWAP1 KECCAK256 PUSH1 0x6 ADD SLOAD PUSH1 0x1 PUSH1 0x1 PUSH1 0xA0 SHL SUB AND PUSH2 0x8FA JUMP JUMPDEST PUSH2 0x509 PUSH2 0x98A CALLDATASIZE PUSH1 0x4 PUSH2 0x4A4F JUMP JUMPDEST PUSH1 0x21 PUSH1 0x20 MSTORE PUSH0 SWAP1 DUP2 MSTORE PUSH1 0x40 SWAP1 KECCAK256 SLOAD DUP2 JUMP JUMPDEST PUSH2 0x591 PUSH2 0x9A9 CALLDATASIZE PUSH1 0x4 PUSH2 0x4A4F JUMP JUMPDEST PUSH2 0x27D3 JUMP JUMPDEST PUSH2 0x509 PUSH1 0x18 SLOAD DUP2 JUMP JUMPDEST PUSH2 0x509 PUSH1 0x11 SLOAD DUP2 JUMP JUMPDEST PUSH1 0x6 SLOAD PUSH1 0x1 PUSH1 0x1 PUSH1 0xA0 SHL SUB AND PUSH2 0x8FA JUMP JUMPDEST PUSH2 0x591 PUSH2 0x9DF CALLDATASIZE PUSH1 0x4 PUSH2 0x4B82 JUMP JUMPDEST PUSH2 0x2879 JUMP JUMPDEST PUSH2 0x509 PUSH1 0xF SLOAD DUP2 JUMP JUMPDEST PUSH2 0x54E PUSH2 0x2AFC JUMP JUMPDEST PUSH1 0x9 SLOAD PUSH2 0x56E SWAP1 PUSH1 0xFF AND DUP2 JUMP JUMPDEST PUSH2 0xA0A PUSH2 0x2B0B JUMP JUMPDEST PUSH1 0x40 MLOAD PUSH2 0x513 SWAP2 SWAP1 PUSH2 0x4C7A JUMP JUMPDEST PUSH2 0xA58 PUSH2 0xA25 CALLDATASIZE PUSH1 0x4 PUSH2 0x4A4F JUMP JUMPDEST PUSH1 0x27 PUSH1 0x20 MSTORE PUSH0 SWAP1 DUP2 MSTORE PUSH1 0x40 SWAP1 KECCAK256 DUP1 SLOAD PUSH1 0x1 DUP3 ADD SLOAD PUSH1 0x2 DUP4 ADD SLOAD PUSH1 0x3 SWAP1 SWAP4 ADD SLOAD PUSH1 0x1 PUSH1 0x1 PUSH1 0xA0 SHL SUB SWAP3 DUP4 AND SWAP4 SWAP2 SWAP1 SWAP3 AND SWAP2 DUP5 JUMP JUMPDEST PUSH1 0x40 DUP1 MLOAD PUSH1 0x1 PUSH1 0x1 PUSH1 0xA0 SHL SUB SWAP6 DUP7 AND DUP2 MSTORE SWAP5 SWAP1 SWAP4 AND PUSH1 0x20 DUP6 ADD MSTORE SWAP2 DUP4 ADD MSTORE PUSH1 0x60 DUP3 ADD MSTORE PUSH1 0x80 ADD PUSH2 0x513 JUMP JUMPDEST PUSH2 0x591 PUSH2 0x2B6A JUMP JUMPDEST PUSH2 0x509 PUSH1 0x10 SLOAD DUP2 JUMP JUMPDEST PUSH2 0x8FA PUSH2 0xAA2 CALLDATASIZE PUSH1 0x4 PUSH2 0x4A4F JUMP JUMPDEST PUSH1 0x22 PUSH1 0x20 MSTORE PUSH0 SWAP1 DUP2 MSTORE PUSH1 0x40 SWAP1 KECCAK256 SLOAD PUSH1 0x1 PUSH1 0x1 PUSH1 0xA0 SHL SUB AND DUP2 JUMP JUMPDEST PUSH2 0x591 PUSH2 0xACA CALLDATASIZE PUSH1 0x4 PUSH2 0x4CC6 JUMP JUMPDEST PUSH2 0x2D81 JUMP JUMPDEST PUSH2 0x509 PUSH1 0x14 SLOAD DUP2 JUMP JUMPDEST PUSH2 0x591 PUSH2 0x2EC1 JUMP JUMPDEST PUSH2 0x591 PUSH2 0x2FF0 JUMP JUMPDEST PUSH2 0x591 PUSH2 0xAF6 CALLDATASIZE PUSH1 0x4 PUSH2 0x4A68 JUMP JUMPDEST PUSH2 0x3133 JUMP JUMPDEST PUSH2 0x56E PUSH2 0xB09 CALLDATASIZE PUSH1 0x4 PUSH2 0x4B82 JUMP JUMPDEST PUSH2 0x32D1 JUMP JUMPDEST PUSH2 0xA0A PUSH2 0x334E JUMP JUMPDEST PUSH1 0x1D SLOAD PUSH2 0x8FA SWAP1 PUSH1 0x1 PUSH1 0x1 PUSH1 0xA0 SHL SUB AND DUP2 JUMP JUMPDEST PUSH2 0x509 PUSH32 0x0 DUP2 JUMP JUMPDEST PUSH2 0x591 PUSH2 0xB5E CALLDATASIZE PUSH1 0x4 PUSH2 0x4B82 JUMP JUMPDEST PUSH2 0x33AC JUMP JUMPDEST PUSH2 0x509 PUSH2 0xB71 CALLDATASIZE PUSH1 0x4 PUSH2 0x4A4F JUMP JUMPDEST PUSH2 0x34DC JUMP JUMPDEST PUSH2 0xB89 PUSH2 0xB84 CALLDATASIZE PUSH1 0x4 PUSH2 0x4A68 JUMP JUMPDEST PUSH2 0x366C JUMP JUMPDEST PUSH1 0x40 MLOAD PUSH2 0x513 SWAP4 SWAP3 SWAP2 SWAP1 PUSH2 0x4CE6 JUMP JUMPDEST PUSH2 0xBC1 PUSH2 0xBA6 CALLDATASIZE PUSH1 0x4 PUSH2 0x4A4F JUMP JUMPDEST PUSH1 0x25 PUSH1 0x20 MSTORE PUSH0 SWAP1 DUP2 MSTORE PUSH1 0x40 SWAP1 KECCAK256 DUP1 SLOAD PUSH1 0x1 SWAP1 SWAP2 ADD SLOAD PUSH1 0xFF AND DUP3 JUMP JUMPDEST PUSH1 0x40 DUP1 MLOAD SWAP3 DUP4 MSTORE SWAP1 ISZERO ISZERO PUSH1 0x20 DUP4 ADD MSTORE ADD PUSH2 0x513 JUMP JUMPDEST PUSH2 0x591 PUSH2 0xBE4 CALLDATASIZE PUSH1 0x4 PUSH2 0x4A68 JUMP JUMPDEST PUSH2 0x3714 JUMP JUMPDEST PUSH2 0x509 PUSH1 0x1B SLOAD DUP2 JUMP JUMPDEST PUSH1 0x7 SLOAD PUSH2 0x8FA SWAP1 PUSH1 0x1 PUSH1 0x1 PUSH1 0xA0 SHL SUB AND DUP2 JUMP JUMPDEST PUSH2 0x509 PUSH1 0xB SLOAD DUP2 JUMP JUMPDEST PUSH2 0x509 PUSH1 0x16 SLOAD DUP2 JUMP JUMPDEST PUSH2 0xC2A PUSH2 0xC25 CALLDATASIZE PUSH1 0x4 PUSH2 0x4C0B JUMP JUMPDEST PUSH2 0x388D JUMP JUMPDEST PUSH1 0x40 DUP1 MLOAD SWAP3 ISZERO ISZERO DUP4 MSTORE PUSH1 0x20 DUP4 ADD SWAP2 SWAP1 SWAP2 MSTORE ADD PUSH2 0x513 JUMP JUMPDEST PUSH2 0x509 PUSH2 0xC4F CALLDATASIZE PUSH1 0x4 PUSH2 0x4D0D JUMP JUMPDEST PUSH1 0x1 PUSH1 0x1 PUSH1 0xA0 SHL SUB SWAP2 DUP3 AND PUSH0 SWAP1 DUP2 MSTORE PUSH1 0x1 PUSH1 0x20 SWAP1 DUP2 MSTORE PUSH1 0x40 DUP1 DUP4 KECCAK256 SWAP4 SWAP1 SWAP5 AND DUP3 MSTORE SWAP2 SWAP1 SWAP2 MSTORE KECCAK256 SLOAD SWAP1 JUMP JUMPDEST PUSH2 0x509 PUSH2 0xC87 CALLDATASIZE PUSH1 0x4 PUSH2 0x4A4F JUMP JUMPDEST PUSH1 0x26 PUSH1 0x20 MSTORE PUSH0 SWAP1 DUP2 MSTORE PUSH1 0x40 SWAP1 KECCAK256 SLOAD DUP2 JUMP JUMPDEST PUSH2 0x509 PUSH32 0x0 DUP2 JUMP JUMPDEST PUSH2 0x591 PUSH2 0xCCD CALLDATASIZE PUSH1 0x4 PUSH2 0x4D60 JUMP JUMPDEST PUSH2 0x397E JUMP JUMPDEST PUSH2 0x509 PUSH2 0xCE0 CALLDATASIZE PUSH1 0x4 PUSH2 0x4A4F JUMP JUMPDEST PUSH1 0x2B PUSH1 0x20 MSTORE PUSH0 SWAP1 DUP2 MSTORE PUSH1 0x40 SWAP1 KECCAK256 SLOAD DUP2 JUMP JUMPDEST PUSH2 0x591 PUSH2 0xCFF CALLDATASIZE PUSH1 0x4 PUSH2 0x4A4F JUMP JUMPDEST PUSH2 0x3B8B JUMP JUMPDEST PUSH2 0x509 PUSH2 0xD12 CALLDATASIZE PUSH1 0x4 PUSH2 0x4E35 JUMP JUMPDEST PUSH1 0x1E PUSH1 0x20 SWAP1 DUP2 MSTORE PUSH0 SWAP3 DUP4 MSTORE PUSH1 0x40 DUP1 DUP5 KECCAK256 SWAP1 SWAP2 MSTORE SWAP1 DUP3 MSTORE SWAP1 KECCAK256 SLOAD DUP2 JUMP JUMPDEST PUSH2 0x591 PUSH2 0xD3C CALLDATASIZE PUSH1 0x4 PUSH2 0x4E56 JUMP JUMPDEST PUSH2 0x3BC5 JUMP JUMPDEST PUSH2 0xD54 PUSH2 0xD4F CALLDATASIZE PUSH1 0x4 PUSH2 0x4A4F JUMP JUMPDEST PUSH2 0x3DDA JUMP JUMPDEST PUSH1 0x40 DUP1 MLOAD SWAP3 DUP4 MSTORE PUSH1 0x20 DUP4 ADD SWAP2 SWAP1 SWAP2 MSTORE ADD PUSH2 0x513 JUMP JUMPDEST PUSH1 0x24 PUSH1 0x20 MSTORE PUSH0 SWAP1 DUP2 MSTORE PUSH1 0x40 SWAP1 KECCAK256 DUP1 SLOAD PUSH1 0x1 DUP3 ADD SLOAD PUSH1 0x2 DUP4 ADD SLOAD PUSH1 0x3 DUP5 ADD SLOAD PUSH1 0x4 DUP6 ADD SLOAD PUSH1 0x5 DUP7 ADD SLOAD PUSH1 0x6 DUP8 ADD SLOAD PUSH1 0x7 DUP9 ADD SLOAD PUSH1 0x8 DUP10 ADD DUP1 SLOAD SWAP9 SWAP10 SWAP8 SWAP9 SWAP7 SWAP8 SWAP6 SWAP7 SWAP5 SWAP6 SWAP4 SWAP5 PUSH1 0x1 PUSH1 0x1 PUSH1 0xA0 SHL SUB SWAP4 DUP5 AND SWAP5 SWAP3 SWAP1 SWAP4 AND SWAP3 PUSH2 0xDC7 SWAP1 PUSH2 0x4E78 JUMP JUMPDEST DUP1 PUSH1 0x1F ADD PUSH1 0x20 DUP1 SWAP2 DIV MUL PUSH1 0x20 ADD PUSH1 0x40 MLOAD SWAP1 DUP2 ADD PUSH1 0x40 MSTORE DUP1 SWAP3 SWAP2 SWAP1 DUP2 DUP2 MSTORE PUSH1 0x20 ADD DUP3 DUP1 SLOAD PUSH2 0xDF3 SWAP1 PUSH2 0x4E78 JUMP JUMPDEST DUP1 ISZERO PUSH2 0xE3E JUMPI DUP1 PUSH1 0x1F LT PUSH2 0xE15 JUMPI PUSH2 0x100 DUP1 DUP4 SLOAD DIV MUL DUP4 MSTORE SWAP2 PUSH1 0x20 ADD SWAP2 PUSH2 0xE3E JUMP JUMPDEST DUP3 ADD SWAP2 SWAP1 PUSH0 MSTORE PUSH1 0x20 PUSH0 KECCAK256 SWAP1 JUMPDEST DUP2 SLOAD DUP2 MSTORE SWAP1 PUSH1 0x1 ADD SWAP1 PUSH1 0x20 ADD DUP1 DUP4 GT PUSH2 0xE21 JUMPI DUP3 SWAP1 SUB PUSH1 0x1F AND DUP3 ADD SWAP2 JUMPDEST POP POP POP PUSH1 0x9 SWAP1 SWAP4 ADD SLOAD SWAP2 SWAP3 POP POP PUSH1 0xFF DUP1 DUP3 AND SWAP2 PUSH2 0x100 SWAP1 DIV AND DUP12 JUMP JUMPDEST PUSH1 0x60 PUSH1 0x3 DUP1 SLOAD PUSH2 0xE69 SWAP1 PUSH2 0x4E78 JUMP JUMPDEST DUP1 PUSH1 0x1F ADD PUSH1 0x20 DUP1 SWAP2 DIV MUL PUSH1 0x20 ADD PUSH1 0x40 MLOAD SWAP1 DUP2 ADD PUSH1 0x40 MSTORE DUP1 SWAP3 SWAP2 SWAP1 DUP2 DUP2 MSTORE PUSH1 0x20 ADD DUP3 DUP1 SLOAD PUSH2 0xE95 SWAP1 PUSH2 0x4E78 JUMP JUMPDEST DUP1 ISZERO PUSH2 0xEE0 JUMPI DUP1 PUSH1 0x1F LT PUSH2 0xEB7 JUMPI PUSH2 0x100 DUP1 DUP4 SLOAD DIV MUL DUP4 MSTORE SWAP2 PUSH1 0x20 ADD SWAP2 PUSH2 0xEE0 JUMP JUMPDEST DUP3 ADD SWAP2 SWAP1 PUSH0 MSTORE PUSH1 0x20 PUSH0 KECCAK256 SWAP1 JUMPDEST DUP2 SLOAD DUP2 MSTORE SWAP1 PUSH1 0x1 ADD SWAP1 PUSH1 0x20 ADD DUP1 DUP4 GT PUSH2 0xEC3 JUMPI DUP3 SWAP1 SUB PUSH1 0x1F AND DUP3 ADD SWAP2 JUMPDEST POP POP POP POP POP SWAP1 POP SWAP1 JUMP JUMPDEST PUSH0 CALLER PUSH2 0xEF7 DUP2 DUP6 DUP6 PUSH2 0x3E28 JUMP JUMPDEST PUSH1 0x1 SWAP2 POP POP JUMPDEST SWAP3 SWAP2 POP POP JUMP JUMPDEST PUSH2 0xF0B PUSH2 0x3E3A JUMP JUMPDEST PUSH1 0x9 SLOAD PUSH3 0x10000 SWAP1 DIV PUSH1 0xFF AND ISZERO PUSH2 0xF35 JUMPI PUSH1 0x40 MLOAD PUSH4 0xAB35696F PUSH1 0xE0 SHL DUP2 MSTORE PUSH1 0x4 ADD PUSH1 0x40 MLOAD DUP1 SWAP2 SUB SWAP1 REVERT JUMPDEST PUSH0 DUP2 DUP2 MSTORE PUSH1 0x24 PUSH1 0x20 MSTORE PUSH1 0x40 DUP2 KECCAK256 PUSH1 0x1 DUP2 ADD SLOAD SWAP1 SWAP2 SUB PUSH2 0xF67 JUMPI PUSH1 0x40 MLOAD PUSH4 0x6CE3C701 PUSH1 0xE1 SHL DUP2 MSTORE PUSH1 0x4 ADD PUSH1 0x40 MLOAD DUP1 SWAP2 SUB SWAP1 REVERT JUMPDEST DUP1 PUSH1 0x2 ADD SLOAD TIMESTAMP GT PUSH2 0xF8B JUMPI PUSH1 0x40 MLOAD PUSH4 0xCD7C299 PUSH1 0xE2 SHL DUP2 MSTORE PUSH1 0x4 ADD PUSH1 0x40 MLOAD DUP1 SWAP2 SUB SWAP1 REVERT JUMPDEST PUSH1 0x9 DUP2 ADD SLOAD PUSH2 0x100 SWAP1 DIV PUSH1 0xFF AND ISZERO PUSH2 0xFB6 JUMPI PUSH1 0x40 MLOAD PUSH4 0xCF88C657 PUSH1 0xE0 SHL DUP2 MSTORE PUSH1 0x4 ADD PUSH1 0x40 MLOAD DUP1 SWAP2 SUB SWAP1 REVERT JUMPDEST PUSH1 0x13 SLOAD DUP2 PUSH1 0x5 ADD SLOAD DUP3 PUSH1 0x4 ADD SLOAD PUSH2 0xFCD SWAP2 SWAP1 PUSH2 0x4EC4 JUMP JUMPDEST LT ISZERO PUSH2 0x1045 JUMPI DUP2 PUSH32 0x2A15F4605F8E68CBACCD2234253A8189163D500A6F60C1751405443CA1562BEB PUSH1 0x40 MLOAD PUSH2 0x1024 SWAP1 PUSH1 0x20 DUP1 DUP3 MSTORE PUSH1 0xE SWAP1 DUP3 ADD MSTORE PUSH14 0x145D5BDC9D5B481B9BDD081B595D PUSH1 0x92 SHL PUSH1 0x40 DUP3 ADD MSTORE PUSH1 0x60 ADD SWAP1 JUMP JUMPDEST PUSH1 0x40 MLOAD DUP1 SWAP2 SUB SWAP1 LOG2 PUSH1 0x40 MLOAD PUSH4 0x6BCF4125 PUSH1 0xE1 SHL DUP2 MSTORE PUSH1 0x4 ADD PUSH1 0x40 MLOAD DUP1 SWAP2 SUB SWAP1 REVERT JUMPDEST PUSH0 DUP2 PUSH1 0x5 ADD SLOAD DUP3 PUSH1 0x4 ADD SLOAD PUSH2 0x105A SWAP2 SWAP1 PUSH2 0x4EC4 JUMP JUMPDEST SWAP1 POP PUSH0 DUP2 DUP4 PUSH1 0x4 ADD SLOAD PUSH2 0x2710 PUSH2 0x1070 SWAP2 SWAP1 PUSH2 0x4ED7 JUMP JUMPDEST PUSH2 0x107A SWAP2 SWAP1 PUSH2 0x4EEE JUMP JUMPDEST SWAP1 POP PUSH1 0x14 SLOAD PUSH1 0x64 PUSH2 0x108B SWAP2 SWAP1 PUSH2 0x4ED7 JUMP JUMPDEST DUP2 GT PUSH2 0x110B JUMPI DUP4 PUSH32 0x2A15F4605F8E68CBACCD2234253A8189163D500A6F60C1751405443CA1562BEB PUSH1 0x40 MLOAD PUSH2 0x10EA SWAP1 PUSH1 0x20 DUP1 DUP3 MSTORE PUSH1 0x16 SWAP1 DUP3 ADD MSTORE PUSH22 0x159BDD19481D1A1C995CDA1BDB19081B9BDD081B595D PUSH1 0x52 SHL PUSH1 0x40 DUP3 ADD MSTORE PUSH1 0x60 ADD SWAP1 JUMP JUMPDEST PUSH1 0x40 MLOAD DUP1 SWAP2 SUB SWAP1 LOG2 PUSH1 0x40 MLOAD PUSH4 0x14B87411 PUSH1 0xE1 SHL DUP2 MSTORE PUSH1 0x4 ADD PUSH1 0x40 MLOAD DUP1 SWAP2 SUB SWAP1 REVERT JUMPDEST PUSH1 0x9 DUP4 ADD DUP1 SLOAD PUSH2 0x100 PUSH2 0xFF00 NOT DUP3 AND OR SWAP1 SWAP2 SSTORE PUSH1 0x3 SWAP1 PUSH1 0xFF AND PUSH1 0xB DUP2 GT ISZERO PUSH2 0x1135 JUMPI PUSH2 0x1135 PUSH2 0x4AC2 JUMP JUMPDEST SUB PUSH2 0x121D JUMPI PUSH3 0x9E3400 PUSH1 0x15 SLOAD PUSH2 0x114B SWAP2 SWAP1 PUSH2 0x4EC4 JUMP JUMPDEST TIMESTAMP LT ISZERO PUSH2 0x116B JUMPI PUSH1 0x40 MLOAD PUSH4 0x7A242495 PUSH1 0xE1 SHL DUP2 MSTORE PUSH1 0x4 ADD PUSH1 0x40 MLOAD DUP1 SWAP2 SUB SWAP1 REVERT JUMPDEST PUSH1 0xA SLOAD DUP4 PUSH1 0x3 ADD SLOAD GT ISZERO PUSH2 0x1192 JUMPI PUSH1 0x40 MLOAD PUSH4 0x28B35F21 PUSH1 0xE0 SHL DUP2 MSTORE PUSH1 0x4 ADD PUSH1 0x40 MLOAD DUP1 SWAP2 SUB SWAP1 REVERT JUMPDEST PUSH1 0x6 DUP4 ADD SLOAD PUSH1 0x3 DUP5 ADD SLOAD PUSH2 0x11B3 SWAP2 ADDRESS SWAP2 PUSH1 0x1 PUSH1 0x1 PUSH1 0xA0 SHL SUB SWAP1 SWAP2 AND SWAP1 PUSH2 0x3E64 JUMP JUMPDEST DUP3 PUSH1 0x3 ADD SLOAD PUSH1 0xA PUSH0 DUP3 DUP3 SLOAD PUSH2 0x11C8 SWAP2 SWAP1 PUSH2 0x4F0D JUMP JUMPDEST SWAP1 SWAP2 SSTORE POP POP TIMESTAMP PUSH1 0x15 SSTORE PUSH1 0x3 DUP4 ADD SLOAD PUSH1 0xA SLOAD PUSH1 0x40 MLOAD PUSH32 0xE49DB96A72E85D04778BB78627173221C08F5ACAA50EAEF5B0D94C0A8C1589B1 SWAP3 PUSH2 0x1210 SWAP3 SWAP1 DUP3 MSTORE PUSH1 0x20 DUP3 ADD MSTORE PUSH1 0x40 ADD SWAP1 JUMP JUMPDEST PUSH1 0x40 MLOAD DUP1 SWAP2 SUB SWAP1 LOG1 PUSH2 0x1390 JUMP JUMPDEST PUSH1 0x4 PUSH1 0x9 DUP5 ADD SLOAD PUSH1 0xFF AND PUSH1 0xB DUP2 GT ISZERO PUSH2 0x1238 JUMPI PUSH2 0x1238 PUSH2 0x4AC2 JUMP JUMPDEST SUB PUSH2 0x1277 JUMPI PUSH1 0x3 DUP4 ADD SLOAD PUSH1 0xA DUP2 SWAP1 SSTORE PUSH1 0x40 MLOAD SWAP1 DUP2 MSTORE PUSH32 0x9ED927E3681DE11FBC3FC5547D178D8A2655C3AAAFD6D8704EDC6EE7E70B8389 SWAP1 PUSH1 0x20 ADD PUSH2 0x1210 JUMP JUMPDEST PUSH1 0x5 PUSH1 0x9 DUP5 ADD SLOAD PUSH1 0xFF AND PUSH1 0xB DUP2 GT ISZERO PUSH2 0x1292 JUMPI PUSH2 0x1292 PUSH2 0x4AC2 JUMP JUMPDEST SUB PUSH2 0x12D9 JUMPI DUP3 SLOAD PUSH1 0x40 MLOAD PUSH32 0x56E668E6EAB92A31285F3C1809CE67652B2348579B6C5349BAD3F2E9C00399A1 SWAP1 PUSH2 0x12CC SWAP1 PUSH1 0x8 DUP8 ADD SWAP1 PUSH2 0x4F20 JUMP JUMPDEST PUSH1 0x40 MLOAD DUP1 SWAP2 SUB SWAP1 LOG2 PUSH2 0x1390 JUMP JUMPDEST PUSH1 0x9 DUP1 DUP5 ADD SLOAD PUSH1 0xFF AND PUSH1 0xB DUP2 GT ISZERO PUSH2 0x12F3 JUMPI PUSH2 0x12F3 PUSH2 0x4AC2 JUMP JUMPDEST SUB PUSH2 0x1332 JUMPI PUSH1 0x3 DUP4 ADD SLOAD PUSH1 0x13 DUP2 SWAP1 SSTORE PUSH1 0x40 MLOAD SWAP1 DUP2 MSTORE PUSH32 0xF18F88786AAE85A652AADB99A82462616489A33370C9BCC7B245906812EF7CD1 SWAP1 PUSH1 0x20 ADD PUSH2 0x1210 JUMP JUMPDEST PUSH1 0xA PUSH1 0x9 DUP5 ADD SLOAD PUSH1 0xFF AND PUSH1 0xB DUP2 GT ISZERO PUSH2 0x134D JUMPI PUSH2 0x134D PUSH2 0x4AC2 JUMP JUMPDEST SUB PUSH2 0x1390 JUMPI PUSH1 0x3 DUP4 ADD SLOAD PUSH1 0x14 DUP2 SWAP1 SSTORE PUSH1 0x40 MLOAD SWAP1 DUP2 MSTORE PUSH32 0xC4F218F6E084BEBA806111AE2727CB7AFB13D7647AEF44C4D90B5F3C9CBE59C7 SWAP1 PUSH1 0x20 ADD PUSH1 0x40 MLOAD DUP1 SWAP2 SUB SWAP1 LOG1 JUMPDEST PUSH1 0x9 DUP4 ADD SLOAD PUSH1 0x3 DUP5 ADD SLOAD PUSH1 0x7 DUP6 ADD SLOAD PUSH2 0x13B6 SWAP3 PUSH1 0xFF AND SWAP2 SWAP1 PUSH1 0x1 PUSH1 0x1 PUSH1 0xA0 SHL SUB AND PUSH2 0x3EB6 JUMP JUMPDEST PUSH1 0x40 MLOAD DUP5 DUP2 MSTORE PUSH32 0x75D3599DC8E39A81249F199FEC177D092F6585B12894A2B393D54A28C315785C SWAP1 PUSH1 0x20 ADD PUSH1 0x40 MLOAD DUP1 SWAP2 SUB SWAP1 LOG1 POP POP POP PUSH2 0x13F6 PUSH1 0x1 PUSH1 0x5 SSTORE JUMP JUMPDEST POP JUMP JUMPDEST PUSH1 0x1D SLOAD PUSH1 0x1 PUSH1 0x1 PUSH1 0xA0 SHL SUB AND CALLER EQ DUP1 ISZERO SWAP1 PUSH2 0x141F JUMPI POP PUSH1 0x6 SLOAD PUSH1 0x1 PUSH1 0x1 PUSH1 0xA0 SHL SUB AND CALLER EQ ISZERO JUMPDEST ISZERO PUSH2 0x143D JUMPI PUSH1 0x40 MLOAD PUSH4 0xEA8E4EB5 PUSH1 0xE0 SHL DUP2 MSTORE PUSH1 0x4 ADD PUSH1 0x40 MLOAD DUP1 SWAP2 SUB SWAP1 REVERT JUMPDEST PUSH1 0x1 PUSH1 0x1 PUSH1 0xA0 SHL SUB DUP2 AND PUSH2 0x1464 JUMPI PUSH1 0x40 MLOAD PUSH4 0xE6C4247B PUSH1 0xE0 SHL DUP2 MSTORE PUSH1 0x4 ADD PUSH1 0x40 MLOAD DUP1 SWAP2 SUB SWAP1 REVERT JUMPDEST DUP1 PUSH1 0x1 PUSH1 0x1 PUSH1 0xA0 SHL SUB AND EXTCODESIZE PUSH0 SUB PUSH2 0x148E JUMPI PUSH1 0x40 MLOAD PUSH4 0x6F7C43F1 PUSH1 0xE0 SHL DUP2 MSTORE PUSH1 0x4 ADD PUSH1 0x40 MLOAD DUP1 SWAP2 SUB SWAP1 REVERT JUMPDEST PUSH1 0x1D DUP1 SLOAD PUSH1 0x1 PUSH1 0x1 PUSH1 0xA0 SHL SUB NOT AND PUSH1 0x1 PUSH1 0x1 PUSH1 0xA0 SHL SUB DUP4 AND SWAP1 DUP2 OR SWAP1 SWAP2 SSTORE PUSH1 0x40 MLOAD PUSH32 0xE3CF2B71B55B62FC1A6C7B2F6FF944C1B70048908CFF22F2E08D1144E7CA7EDB SWAP1 PUSH0 SWAP1 LOG2 POP JUMP JUMPDEST PUSH2 0x14DF PUSH2 0x3E3A JUMP JUMPDEST PUSH1 0x9 SLOAD PUSH3 0x10000 SWAP1 DIV PUSH1 0xFF AND ISZERO PUSH2 0x1509 JUMPI PUSH1 0x40 MLOAD PUSH4 0xAB35696F PUSH1 0xE0 SHL DUP2 MSTORE PUSH1 0x4 ADD PUSH1 0x40 MLOAD DUP1 SWAP2 SUB SWAP1 REVERT JUMPDEST CALLER ORIGIN EQ PUSH2 0x1531 JUMPI PUSH1 0x40 MLOAD PUSH3 0x461BCD PUSH1 0xE5 SHL DUP2 MSTORE PUSH1 0x4 ADD PUSH2 0x1528 SWAP1 PUSH2 0x4FA5 JUMP JUMPDEST PUSH1 0x40 MLOAD DUP1 SWAP2 SUB SWAP1 REVERT JUMPDEST PUSH1 0x1D SLOAD PUSH1 0x1 PUSH1 0xA8 SHL SWAP1 DIV PUSH1 0xFF AND PUSH2 0x155B JUMPI PUSH1 0x40 MLOAD PUSH4 0x2FC209F3 PUSH1 0xE0 SHL DUP2 MSTORE PUSH1 0x4 ADD PUSH1 0x40 MLOAD DUP1 SWAP2 SUB SWAP1 REVERT JUMPDEST PUSH1 0x2D SLOAD PUSH2 0x3E8 GT PUSH2 0x157F JUMPI PUSH1 0x40 MLOAD PUSH4 0x6C8C8D21 PUSH1 0xE0 SHL DUP2 MSTORE PUSH1 0x4 ADD PUSH1 0x40 MLOAD DUP1 SWAP2 SUB SWAP1 REVERT JUMPDEST CALLER PUSH0 SWAP1 DUP2 MSTORE PUSH1 0x2A PUSH1 0x20 MSTORE PUSH1 0x40 SWAP1 KECCAK256 SLOAD PUSH1 0xFF AND ISZERO PUSH2 0x15AF JUMPI PUSH1 0x40 MLOAD PUSH4 0xEA075BF PUSH1 0xE2 SHL DUP2 MSTORE PUSH1 0x4 ADD PUSH1 0x40 MLOAD DUP1 SWAP2 SUB SWAP1 REVERT JUMPDEST CALLER PUSH2 0x15CD JUMPI PUSH1 0x40 MLOAD PUSH4 0xE6C4247B PUSH1 0xE0 SHL DUP2 MSTORE PUSH1 0x4 ADD PUSH1 0x40 MLOAD DUP1 SWAP2 SUB SWAP1 REVERT JUMPDEST CALLER PUSH0 DUP2 DUP2 MSTORE PUSH1 0x2A PUSH1 0x20 MSTORE PUSH1 0x40 DUP1 DUP3 KECCAK256 DUP1 SLOAD PUSH1 0xFF NOT AND PUSH1 0x1 SWAP1 DUP2 OR SWAP1 SWAP2 SSTORE PUSH1 0x2D DUP1 SLOAD SWAP2 DUP3 ADD DUP2 SSTORE SWAP3 DUP4 SWAP1 MSTORE PUSH32 0x4A2CC91EE622DA3BC833A54C37FFCB6F3EC23B7793EFC5EAF5E71B7B406C5C06 ADD DUP1 SLOAD PUSH1 0x1 PUSH1 0x1 PUSH1 0xA0 SHL SUB NOT AND DUP5 OR SWAP1 SSTORE SWAP1 SLOAD SWAP1 MLOAD PUSH32 0xF41D185D95FF1E597498C6EFB9F4539BD988FDCCC50F710D8A8184638D604660 SWAP2 PUSH2 0x165C SWAP2 SWAP1 DUP2 MSTORE PUSH1 0x20 ADD SWAP1 JUMP JUMPDEST PUSH1 0x40 MLOAD DUP1 SWAP2 SUB SWAP1 LOG2 PUSH2 0x166E PUSH1 0x1 PUSH1 0x5 SSTORE JUMP JUMPDEST JUMP JUMPDEST PUSH2 0x1678 PUSH2 0x3E3A JUMP JUMPDEST PUSH1 0x9 SLOAD PUSH3 0x10000 SWAP1 DIV PUSH1 0xFF AND ISZERO PUSH2 0x16A2 JUMPI PUSH1 0x40 MLOAD PUSH4 0xAB35696F PUSH1 0xE0 SHL DUP2 MSTORE PUSH1 0x4 ADD PUSH1 0x40 MLOAD DUP1 SWAP2 SUB SWAP1 REVERT JUMPDEST DUP1 CALLER PUSH1 0x1 PUSH1 0x1 PUSH1 0xA0 SHL SUB DUP3 AND EQ DUP1 ISZERO SWAP1 PUSH2 0x16C7 JUMPI POP PUSH1 0x1D SLOAD PUSH1 0x1 PUSH1 0x1 PUSH1 0xA0 SHL SUB AND CALLER EQ ISZERO JUMPDEST ISZERO PUSH2 0x16E5 JUMPI PUSH1 0x40 MLOAD PUSH4 0xEA8E4EB5 PUSH1 0xE0 SHL DUP2 MSTORE PUSH1 0x4 ADD PUSH1 0x40 MLOAD DUP1 SWAP2 SUB SWAP1 REVERT JUMPDEST PUSH2 0x16EE DUP3 PUSH2 0x34DC JUMP JUMPDEST PUSH0 SUB PUSH2 0x170D JUMPI PUSH1 0x40 MLOAD PUSH4 0xE1000181 PUSH1 0xE0 SHL DUP2 MSTORE PUSH1 0x4 ADD PUSH1 0x40 MLOAD DUP1 SWAP2 SUB SWAP1 REVERT JUMPDEST PUSH1 0x1 PUSH1 0x1 PUSH1 0xA0 SHL SUB DUP3 AND PUSH0 SWAP1 DUP2 MSTORE PUSH1 0x25 PUSH1 0x20 MSTORE PUSH1 0x40 SWAP1 KECCAK256 DUP1 SLOAD PUSH1 0x1 PUSH1 0x1 PUSH1 0x80 SHL SUB AND TIMESTAMP DUP2 GT ISZERO PUSH2 0x1750 JUMPI PUSH1 0x40 MLOAD PUSH4 0x26DD1FF PUSH1 0xE5 SHL DUP2 MSTORE PUSH1 0x4 ADD PUSH1 0x40 MLOAD DUP1 SWAP2 SUB SWAP1 REVERT JUMPDEST PUSH0 PUSH2 0x175A DUP6 PUSH2 0x34DC JUMP JUMPDEST PUSH1 0x1 PUSH1 0x1 PUSH1 0xA0 SHL SUB DUP7 AND PUSH0 SWAP1 DUP2 MSTORE PUSH1 0x20 DUP1 MSTORE PUSH1 0x40 SWAP1 KECCAK256 SLOAD SWAP1 SWAP2 POP DUP2 LT ISZERO PUSH2 0x1888 JUMPI PUSH1 0x1 PUSH1 0x1 PUSH1 0xA0 SHL SUB DUP6 AND PUSH0 SWAP1 DUP2 MSTORE PUSH1 0x20 DUP1 MSTORE PUSH1 0x40 DUP2 KECCAK256 SLOAD PUSH2 0x179D SWAP1 DUP4 SWAP1 PUSH2 0x4F0D JUMP JUMPDEST SWAP1 POP PUSH2 0x17A9 DUP7 DUP3 PUSH2 0x4236 JUMP JUMPDEST DUP6 PUSH1 0x1 PUSH1 0x1 PUSH1 0xA0 SHL SUB AND PUSH32 0xE24ABF0A1D8BDC06E382A8FC7157CD6C08495C024CEB329EC6C98F6C795FC26C DUP3 PUSH1 0x40 MLOAD PUSH2 0x17E4 SWAP2 DUP2 MSTORE PUSH1 0x20 ADD SWAP1 JUMP JUMPDEST PUSH1 0x40 MLOAD DUP1 SWAP2 SUB SWAP1 LOG2 PUSH1 0x1 PUSH1 0x1 PUSH1 0xA0 SHL SUB DUP7 DUP2 AND PUSH0 SWAP1 DUP2 MSTORE PUSH1 0x27 PUSH1 0x20 MSTORE PUSH1 0x40 SWAP1 KECCAK256 PUSH1 0x1 ADD SLOAD AND ISZERO PUSH2 0x1886 JUMPI PUSH1 0x1 PUSH1 0x1 PUSH1 0xA0 SHL SUB DUP1 DUP8 AND PUSH0 SWAP1 DUP2 MSTORE PUSH1 0x27 PUSH1 0x20 SWAP1 DUP2 MSTORE PUSH1 0x40 DUP1 DUP4 KECCAK256 PUSH1 0x1 ADD SLOAD SWAP1 SWAP4 AND DUP3 MSTORE PUSH1 0x28 SWAP1 MSTORE SWAP1 DUP2 KECCAK256 DUP1 SLOAD DUP4 SWAP3 SWAP1 PUSH2 0x1849 SWAP1 DUP5 SWAP1 PUSH2 0x4F0D JUMP JUMPDEST SWAP1 SWAP2 SSTORE POP POP PUSH1 0x1 PUSH1 0x1 PUSH1 0xA0 SHL SUB DUP1 DUP8 AND PUSH0 SWAP1 DUP2 MSTORE PUSH1 0x27 PUSH1 0x20 SWAP1 DUP2 MSTORE PUSH1 0x40 DUP1 DUP4 KECCAK256 PUSH1 0x1 ADD SLOAD SWAP1 SWAP4 AND DUP1 DUP4 MSTORE PUSH1 0x28 SWAP1 SWAP2 MSTORE SWAP2 SWAP1 KECCAK256 SLOAD PUSH2 0x1886 SWAP2 SWAP1 PUSH2 0x426A JUMP JUMPDEST POP JUMPDEST DUP2 TIMESTAMP LT PUSH2 0x1996 JUMPI PUSH1 0x1 PUSH1 0x1 PUSH1 0xA0 SHL SUB DUP6 AND PUSH0 SWAP1 DUP2 MSTORE PUSH1 0x25 PUSH1 0x20 MSTORE PUSH1 0x40 DUP2 KECCAK256 SWAP1 DUP2 SSTORE PUSH1 0x1 ADD DUP1 SLOAD PUSH1 0xFF NOT AND SWAP1 SSTORE PUSH2 0x18BE DUP6 DUP3 PUSH2 0x4236 JUMP JUMPDEST PUSH1 0x1 PUSH1 0x1 PUSH1 0xA0 SHL SUB DUP6 DUP2 AND PUSH0 SWAP1 DUP2 MSTORE PUSH1 0x27 PUSH1 0x20 MSTORE PUSH1 0x40 SWAP1 KECCAK256 PUSH1 0x1 ADD SLOAD AND ISZERO PUSH2 0x1996 JUMPI PUSH1 0x1 PUSH1 0x1 PUSH1 0xA0 SHL SUB DUP1 DUP7 AND PUSH0 SWAP1 DUP2 MSTORE PUSH1 0x27 PUSH1 0x20 SWAP1 DUP2 MSTORE PUSH1 0x40 DUP1 DUP4 KECCAK256 PUSH1 0x1 ADD SLOAD SWAP1 SWAP4 AND DUP3 MSTORE PUSH1 0x28 SWAP1 MSTORE SWAP1 DUP2 KECCAK256 DUP1 SLOAD DUP4 SWAP3 SWAP1 PUSH2 0x191B SWAP1 DUP5 SWAP1 PUSH2 0x4F0D JUMP JUMPDEST SWAP1 SWAP2 SSTORE POP POP PUSH1 0x1 PUSH1 0x1 PUSH1 0xA0 SHL SUB DUP1 DUP7 AND PUSH0 SWAP1 DUP2 MSTORE PUSH1 0x27 PUSH1 0x20 SWAP1 DUP2 MSTORE PUSH1 0x40 DUP1 DUP4 KECCAK256 PUSH1 0x1 ADD SLOAD SWAP1 SWAP4 AND DUP1 DUP4 MSTORE PUSH1 0x28 SWAP1 SWAP2 MSTORE SWAP2 SWAP1 KECCAK256 SLOAD PUSH2 0x1958 SWAP2 SWAP1 PUSH2 0x426A JUMP JUMPDEST PUSH1 0x1 PUSH1 0x1 PUSH1 0xA0 SHL SUB DUP6 AND PUSH0 SWAP1 DUP2 MSTORE PUSH1 0x27 PUSH1 0x20 MSTORE PUSH1 0x40 DUP2 KECCAK256 DUP1 SLOAD PUSH1 0x1 PUSH1 0x1 PUSH1 0xA0 SHL SUB NOT SWAP1 DUP2 AND DUP3 SSTORE PUSH1 0x1 DUP3 ADD DUP1 SLOAD SWAP1 SWAP2 AND SWAP1 SSTORE PUSH1 0x2 DUP2 ADD DUP3 SWAP1 SSTORE PUSH1 0x3 ADD SSTORE JUMPDEST POP POP POP POP PUSH2 0x13F6 PUSH1 0x1 PUSH1 0x5 SSTORE JUMP JUMPDEST PUSH1 0x9 SLOAD PUSH0 SWAP1 PUSH3 0x10000 SWAP1 DIV PUSH1 0xFF AND ISZERO PUSH2 0x19D0 JUMPI PUSH1 0x40 MLOAD PUSH4 0xAB35696F PUSH1 0xE0 SHL DUP2 MSTORE PUSH1 0x4 ADD PUSH1 0x40 MLOAD DUP1 SWAP2 SUB SWAP1 REVERT JUMPDEST PUSH1 0x1 PUSH1 0x1 PUSH1 0xA0 SHL SUB DUP5 AND ISZERO DUP1 PUSH2 0x19ED JUMPI POP PUSH1 0x1 PUSH1 0x1 PUSH1 0xA0 SHL SUB DUP4 AND ISZERO JUMPDEST ISZERO PUSH2 0x1A0B JUMPI PUSH1 0x40 MLOAD PUSH4 0xE6C4247B PUSH1 0xE0 SHL DUP2 MSTORE PUSH1 0x4 ADD PUSH1 0x40 MLOAD DUP1 SWAP2 SUB SWAP1 REVERT JUMPDEST PUSH0 PUSH2 0x1A17 DUP6 DUP6 DUP6 PUSH2 0x43D5 JUMP JUMPDEST SWAP1 POP DUP1 DUP1 ISZERO PUSH2 0x1A29 JUMPI POP PUSH1 0x9 SLOAD PUSH1 0xFF AND ISZERO JUMPDEST ISZERO PUSH2 0x1A36 JUMPI PUSH2 0x1A36 PUSH2 0x213D JUMP JUMPDEST SWAP1 POP JUMPDEST SWAP4 SWAP3 POP POP POP JUMP JUMPDEST PUSH1 0x1D SLOAD PUSH1 0x1 PUSH1 0x1 PUSH1 0xA0 SHL SUB AND CALLER EQ DUP1 ISZERO SWAP1 PUSH2 0x1A66 JUMPI POP PUSH1 0x6 SLOAD PUSH1 0x1 PUSH1 0x1 PUSH1 0xA0 SHL SUB AND CALLER EQ ISZERO JUMPDEST ISZERO PUSH2 0x1A84 JUMPI PUSH1 0x40 MLOAD PUSH4 0xEA8E4EB5 PUSH1 0xE0 SHL DUP2 MSTORE PUSH1 0x4 ADD PUSH1 0x40 MLOAD DUP1 SWAP2 SUB SWAP1 REVERT JUMPDEST PUSH1 0x1D DUP1 SLOAD PUSH1 0xFF PUSH1 0xA8 SHL NOT AND PUSH1 0x1 PUSH1 0xA8 SHL DUP4 ISZERO ISZERO SWAP1 DUP2 MUL SWAP2 SWAP1 SWAP2 OR SWAP1 SWAP2 SSTORE PUSH1 0x40 MLOAD PUSH32 0xCA89418516F56A1E463DE3ED0DE4A3795C57FB729015A5C16F20DD1200A29DD SWAP1 PUSH0 SWAP1 LOG2 POP JUMP JUMPDEST PUSH2 0x1AD4 PUSH2 0x3E3A JUMP JUMPDEST PUSH1 0x9 SLOAD PUSH3 0x10000 SWAP1 DIV PUSH1 0xFF AND ISZERO PUSH2 0x1AFE JUMPI PUSH1 0x40 MLOAD PUSH4 0xAB35696F PUSH1 0xE0 SHL DUP2 MSTORE PUSH1 0x4 ADD PUSH1 0x40 MLOAD DUP1 SWAP2 SUB SWAP1 REVERT JUMPDEST PUSH2 0x1B07 CALLER PUSH2 0x43F8 JUMP JUMPDEST PUSH2 0x166E PUSH1 0x1 PUSH1 0x5 SSTORE JUMP JUMPDEST PUSH2 0x1B19 PUSH2 0x3E3A JUMP JUMPDEST PUSH1 0x9 SLOAD PUSH3 0x10000 SWAP1 DIV PUSH1 0xFF AND ISZERO PUSH2 0x1B43 JUMPI PUSH1 0x40 MLOAD PUSH4 0xAB35696F PUSH1 0xE0 SHL DUP2 MSTORE PUSH1 0x4 ADD PUSH1 0x40 MLOAD DUP1 SWAP2 SUB SWAP1 REVERT JUMPDEST CALLER ORIGIN EQ PUSH2 0x1B62 JUMPI PUSH1 0x40 MLOAD PUSH3 0x461BCD PUSH1 0xE5 SHL DUP2 MSTORE PUSH1 0x4 ADD PUSH2 0x1528 SWAP1 PUSH2 0x4FA5 JUMP JUMPDEST CALLER PUSH0 SWAP1 DUP2 MSTORE PUSH1 0x29 PUSH1 0x20 MSTORE PUSH1 0x40 SWAP1 KECCAK256 PUSH1 0x3 DUP2 ADD SLOAD PUSH1 0xFF AND PUSH2 0x1B95 JUMPI PUSH1 0x40 MLOAD PUSH4 0x7D9A44A1 PUSH1 0xE1 SHL DUP2 MSTORE PUSH1 0x4 ADD PUSH1 0x40 MLOAD DUP1 SWAP2 SUB SWAP1 REVERT JUMPDEST PUSH0 DUP2 PUSH1 0x1 ADD SLOAD TIMESTAMP PUSH2 0x1BA6 SWAP2 SWAP1 PUSH2 0x4F0D JUMP JUMPDEST SWAP1 POP PUSH0 PUSH3 0x278D00 PUSH2 0x1BBF DUP4 PUSH8 0xDE0B6B3A7640000 PUSH2 0x4ED7 JUMP JUMPDEST PUSH2 0x1BC9 SWAP2 SWAP1 PUSH2 0x4EEE JUMP JUMPDEST SWAP1 POP PUSH0 PUSH9 0x56BC75E2D63100000 DUP3 PUSH1 0x12 SLOAD DUP7 PUSH0 ADD SLOAD PUSH2 0x1BE8 SWAP2 SWAP1 PUSH2 0x4ED7 JUMP JUMPDEST PUSH2 0x1BF2 SWAP2 SWAP1 PUSH2 0x4ED7 JUMP JUMPDEST PUSH2 0x1BFC SWAP2 SWAP1 PUSH2 0x4EEE JUMP JUMPDEST SWAP1 POP DUP4 PUSH1 0x2 ADD SLOAD PUSH0 EQ PUSH2 0x1C39 JUMPI PUSH8 0x8AC7230489E80000 DUP5 PUSH1 0x2 ADD SLOAD DUP3 PUSH2 0x1C22 SWAP2 SWAP1 PUSH2 0x4ED7 JUMP JUMPDEST PUSH2 0x1C2C SWAP2 SWAP1 PUSH2 0x4EEE JUMP JUMPDEST PUSH2 0x1C36 SWAP1 DUP3 PUSH2 0x4EC4 JUMP JUMPDEST SWAP1 POP JUMPDEST DUP4 SLOAD PUSH2 0x1C48 SWAP1 ADDRESS SWAP1 CALLER SWAP1 PUSH2 0x3E64 JUMP JUMPDEST DUP4 SLOAD PUSH1 0x11 DUP1 SLOAD PUSH0 SWAP1 PUSH2 0x1C5B SWAP1 DUP5 SWAP1 PUSH2 0x4F0D JUMP JUMPDEST SWAP1 SWAP2 SSTORE POP POP DUP1 ISZERO DUP1 ISZERO SWAP1 PUSH2 0x1C76 JUMPI POP PUSH2 0x1C73 CALLER PUSH2 0x34DC JUMP JUMPDEST ISZERO ISZERO JUMPDEST ISZERO PUSH2 0x1CBC JUMPI PUSH2 0x1C86 ADDRESS CALLER DUP4 PUSH2 0x3E64 JUMP JUMPDEST PUSH1 0x40 MLOAD DUP2 DUP2 MSTORE CALLER SWAP1 PUSH32 0x6DD401E61BA732582A5EBA3D54CCC3AFB3609CD3AC1A166D1D36F75FC0AEDCDA SWAP1 PUSH1 0x20 ADD PUSH1 0x40 MLOAD DUP1 SWAP2 SUB SWAP1 LOG2 JUMPDEST CALLER PUSH0 DUP2 DUP2 MSTORE PUSH1 0x29 PUSH1 0x20 MSTORE PUSH1 0x40 DUP1 DUP3 KECCAK256 DUP3 DUP2 SSTORE PUSH1 0x1 DUP2 ADD DUP4 SWAP1 SSTORE PUSH1 0x2 DUP2 ADD SWAP3 SWAP1 SWAP3 SSTORE PUSH1 0x3 SWAP1 SWAP2 ADD DUP1 SLOAD PUSH1 0xFF NOT AND SWAP1 SSTORE DUP6 SLOAD SWAP1 MLOAD PUSH32 0x7FC4727E062E336010F2C282598EF5F14FACB3DE68CF8195C2F23E1454B2B74E SWAP2 PUSH2 0x1D24 SWAP2 TIMESTAMP SWAP1 SWAP2 DUP3 MSTORE PUSH1 0x20 DUP3 ADD MSTORE PUSH1 0x40 ADD SWAP1 JUMP JUMPDEST PUSH1 0x40 MLOAD DUP1 SWAP2 SUB SWAP1 LOG2 POP POP POP POP PUSH2 0x166E PUSH1 0x1 PUSH1 0x5 SSTORE JUMP JUMPDEST PUSH2 0x1D42 PUSH2 0x3E3A JUMP JUMPDEST PUSH1 0x9 SLOAD PUSH3 0x10000 SWAP1 DIV PUSH1 0xFF AND ISZERO PUSH2 0x1D6C JUMPI PUSH1 0x40 MLOAD PUSH4 0xAB35696F PUSH1 0xE0 SHL DUP2 MSTORE PUSH1 0x4 ADD PUSH1 0x40 MLOAD DUP1 SWAP2 SUB SWAP1 REVERT JUMPDEST PUSH1 0x32 DUP2 GT ISZERO PUSH2 0x1D8E JUMPI PUSH1 0x40 MLOAD PUSH4 0xD5931657 PUSH1 0xE0 SHL DUP2 MSTORE PUSH1 0x4 ADD PUSH1 0x40 MLOAD DUP1 SWAP2 SUB SWAP1 REVERT JUMPDEST DUP1 PUSH0 DUP2 PUSH8 0xFFFFFFFFFFFFFFFF DUP2 GT ISZERO PUSH2 0x1DA9 JUMPI PUSH2 0x1DA9 PUSH2 0x4D3E JUMP JUMPDEST PUSH1 0x40 MLOAD SWAP1 DUP1 DUP3 MSTORE DUP1 PUSH1 0x20 MUL PUSH1 0x20 ADD DUP3 ADD PUSH1 0x40 MSTORE DUP1 ISZERO PUSH2 0x1DD2 JUMPI DUP2 PUSH1 0x20 ADD PUSH1 0x20 DUP3 MUL DUP1 CALLDATASIZE DUP4 CALLDATACOPY ADD SWAP1 POP JUMPDEST POP PUSH1 0x10 SLOAD SWAP1 SWAP2 POP PUSH0 JUMPDEST DUP4 DUP2 LT ISZERO PUSH2 0x1FF7 JUMPI PUSH0 DUP7 DUP7 DUP4 DUP2 DUP2 LT PUSH2 0x1DF6 JUMPI PUSH2 0x1DF6 PUSH2 0x4FD4 JUMP JUMPDEST SWAP1 POP PUSH1 0x20 MUL ADD PUSH1 0x20 DUP2 ADD SWAP1 PUSH2 0x1E0B SWAP2 SWAP1 PUSH2 0x4A4F JUMP JUMPDEST SWAP1 POP PUSH1 0x1 PUSH1 0x1 PUSH1 0xA0 SHL SUB DUP2 AND PUSH2 0x1E34 JUMPI PUSH1 0x40 MLOAD PUSH4 0xE6C4247B PUSH1 0xE0 SHL DUP2 MSTORE PUSH1 0x4 ADD PUSH1 0x40 MLOAD DUP1 SWAP2 SUB SWAP1 REVERT JUMPDEST PUSH1 0x1 PUSH1 0x1 PUSH1 0xA0 SHL SUB DUP2 AND PUSH0 SWAP1 DUP2 MSTORE PUSH1 0x20 DUP1 MSTORE PUSH1 0x40 SWAP1 KECCAK256 SLOAD ISZERO DUP1 ISZERO PUSH2 0x1E6E JUMPI POP PUSH1 0x1 PUSH1 0x1 PUSH1 0xA0 SHL SUB DUP2 AND PUSH0 SWAP1 DUP2 MSTORE PUSH1 0x21 PUSH1 0x20 MSTORE PUSH1 0x40 SWAP1 KECCAK256 SLOAD ISZERO ISZERO JUMPDEST ISZERO PUSH2 0x1FE5 JUMPI PUSH1 0x1 PUSH1 0x1 PUSH1 0xA0 SHL SUB DUP2 AND PUSH0 SWAP1 DUP2 MSTORE PUSH1 0x21 PUSH1 0x20 MSTORE PUSH1 0x40 DUP2 KECCAK256 SLOAD PUSH32 0x0 SWAP1 PUSH2 0x1EC4 SWAP1 PUSH12 0x33B2E3C9FD0803CE8000000 SWAP1 PUSH2 0x4ED7 JUMP JUMPDEST PUSH2 0x1ECE SWAP2 SWAP1 PUSH2 0x4EEE JUMP JUMPDEST SWAP1 POP PUSH2 0x3E8 DUP5 LT ISZERO PUSH2 0x1F09 JUMPI PUSH1 0x64 PUSH2 0x1EE7 PUSH1 0xA DUP4 PUSH2 0x4ED7 JUMP JUMPDEST PUSH2 0x1EF1 SWAP2 SWAP1 PUSH2 0x4EEE JUMP JUMPDEST PUSH2 0x1EFB SWAP1 DUP3 PUSH2 0x4EC4 JUMP JUMPDEST SWAP1 POP PUSH2 0x1F06 DUP5 PUSH2 0x4FE8 JUMP JUMPDEST SWAP4 POP JUMPDEST DUP1 PUSH0 SUB PUSH2 0x1F17 JUMPI POP POP PUSH2 0x1FE7 JUMP JUMPDEST PUSH1 0x1 PUSH1 0x1 PUSH1 0xA0 SHL SUB DUP1 DUP4 AND PUSH0 SWAP1 DUP2 MSTORE PUSH1 0x22 PUSH1 0x20 MSTORE PUSH1 0x40 SWAP1 KECCAK256 SLOAD AND DUP1 ISZERO PUSH2 0x1FA0 JUMPI PUSH0 PUSH1 0x64 PUSH2 0x1F45 PUSH1 0x5 DUP6 PUSH2 0x4ED7 JUMP JUMPDEST PUSH2 0x1F4F SWAP2 SWAP1 PUSH2 0x4EEE JUMP JUMPDEST SWAP1 POP PUSH2 0x1F5B DUP3 DUP3 PUSH2 0x464B JUMP JUMPDEST DUP2 PUSH1 0x1 PUSH1 0x1 PUSH1 0xA0 SHL SUB AND PUSH32 0x50BAE3EEEFAC62A4EE36C766F4F426F09EDF96AE8FB3034EBBF961E4ACC78E2 DUP3 PUSH1 0x40 MLOAD PUSH2 0x1F96 SWAP2 DUP2 MSTORE PUSH1 0x20 ADD SWAP1 JUMP JUMPDEST PUSH1 0x40 MLOAD DUP1 SWAP2 SUB SWAP1 LOG2 POP JUMPDEST PUSH1 0x1 PUSH1 0x1 PUSH1 0xA0 SHL SUB DUP4 AND PUSH0 SWAP1 DUP2 MSTORE PUSH1 0x20 DUP1 MSTORE PUSH1 0x40 SWAP1 KECCAK256 DUP3 SWAP1 SSTORE PUSH2 0x1FC3 DUP4 DUP4 PUSH2 0x464B JUMP JUMPDEST DUP2 DUP7 DUP6 DUP2 MLOAD DUP2 LT PUSH2 0x1FD6 JUMPI PUSH2 0x1FD6 PUSH2 0x4FD4 JUMP JUMPDEST PUSH1 0x20 MUL PUSH1 0x20 ADD ADD DUP2 DUP2 MSTORE POP POP POP POP JUMPDEST POP JUMPDEST PUSH2 0x1FF0 DUP2 PUSH2 0x4FE8 JUMP JUMPDEST SWAP1 POP PUSH2 0x1DDB JUMP JUMPDEST POP PUSH1 0x10 DUP2 SWAP1 SSTORE PUSH1 0x40 MLOAD PUSH2 0x200D SWAP1 DUP7 SWAP1 DUP7 SWAP1 PUSH2 0x5000 JUMP JUMPDEST PUSH1 0x40 MLOAD DUP1 SWAP2 SUB SWAP1 KECCAK256 PUSH32 0x6D0C10E0399EF884A3729FE88266E321A043AE7F4D6D12AFB75539720CFAB71B DUP4 PUSH1 0x40 MLOAD PUSH2 0x2044 SWAP2 SWAP1 PUSH2 0x503F JUMP JUMPDEST PUSH1 0x40 MLOAD DUP1 SWAP2 SUB SWAP1 LOG2 POP POP POP PUSH2 0x2059 PUSH1 0x1 PUSH1 0x5 SSTORE JUMP JUMPDEST POP POP JUMP JUMPDEST PUSH1 0x9 SLOAD PUSH0 SWAP1 PUSH1 0xFF AND ISZERO DUP1 PUSH2 0x2093 JUMPI POP PUSH32 0x0 PUSH1 0xB SLOAD LT ISZERO JUMPDEST ISZERO PUSH2 0x209D JUMPI POP PUSH0 SWAP1 JUMP JUMPDEST PUSH0 PUSH32 0x0 PUSH1 0xF SLOAD PUSH1 0xB SLOAD PUSH2 0x20CF SWAP2 SWAP1 PUSH2 0x4EC4 JUMP JUMPDEST GT PUSH2 0x20DC JUMPI PUSH1 0xF SLOAD PUSH2 0x2109 JUMP JUMPDEST PUSH1 0xB SLOAD PUSH2 0x2109 SWAP1 PUSH32 0x0 PUSH2 0x4F0D JUMP JUMPDEST PUSH1 0xD SLOAD PUSH0 SWAP1 DUP2 MSTORE PUSH1 0x1F PUSH1 0x20 MSTORE PUSH1 0x40 SWAP1 KECCAK256 SLOAD SWAP1 SWAP2 POP DUP2 DUP2 LT ISZERO PUSH2 0x2134 JUMPI PUSH2 0x212F DUP2 DUP4 PUSH2 0x4F0D JUMP JUMPDEST PUSH2 0x2136 JUMP JUMPDEST PUSH0 JUMPDEST SWAP3 POP POP POP SWAP1 JUMP JUMPDEST PUSH1 0x9 SLOAD PUSH3 0x10000 SWAP1 DIV PUSH1 0xFF AND ISZERO PUSH2 0x2167 JUMPI PUSH1 0x40 MLOAD PUSH4 0xAB35696F PUSH1 0xE0 SHL DUP2 MSTORE PUSH1 0x4 ADD PUSH1 0x40 MLOAD DUP1 SWAP2 SUB SWAP1 REVERT JUMPDEST PUSH1 0x9 SLOAD PUSH1 0xFF AND PUSH2 0x166E JUMPI PUSH1 0xA SLOAD PUSH0 DUP1 DUP1 MSTORE PUSH1 0x20 DUP2 SWAP1 MSTORE PUSH32 0xAD3228B676F7D3CD4284A5443F17F1962B36E491B30A40B2405849E597BA5FB5 SLOAD SWAP1 SWAP2 SWAP1 PUSH1 0x2 SLOAD PUSH2 0x21AF SWAP2 SWAP1 PUSH2 0x4F0D JUMP JUMPDEST PUSH2 0x21B9 SWAP2 SWAP1 PUSH2 0x4F0D JUMP JUMPDEST SWAP1 POP PUSH32 0x0 DUP2 LT PUSH2 0x13F6 JUMPI PUSH1 0x9 DUP1 SLOAD PUSH1 0xFF NOT AND PUSH1 0x1 OR SWAP1 SSTORE PUSH1 0x40 MLOAD TIMESTAMP SWAP1 PUSH32 0x60DC7136AE550F48CFEB4A0C4E69DE31959531F869BD784A65DBC2C175F0B4A6 SWAP1 PUSH0 SWAP1 LOG2 POP JUMP JUMPDEST PUSH2 0x2224 PUSH2 0x467F JUMP JUMPDEST ADDRESS PUSH0 SWAP1 DUP2 MSTORE PUSH1 0x20 DUP2 SWAP1 MSTORE PUSH1 0x40 SWAP1 KECCAK256 SLOAD PUSH12 0x33B2E3C9FD0803CE8000000 GT ISZERO PUSH2 0x225F JUMPI PUSH1 0x40 MLOAD PUSH4 0x786E0A99 PUSH1 0xE0 SHL DUP2 MSTORE PUSH1 0x4 ADD PUSH1 0x40 MLOAD DUP1 SWAP2 SUB SWAP1 REVERT JUMPDEST PUSH1 0x1D SLOAD PUSH1 0x1 PUSH1 0x1 PUSH1 0xA0 SHL SUB AND PUSH2 0x2288 JUMPI PUSH1 0x40 MLOAD PUSH4 0x51AB8379 PUSH1 0xE0 SHL DUP2 MSTORE PUSH1 0x4 ADD PUSH1 0x40 MLOAD DUP1 SWAP2 SUB SWAP1 REVERT JUMPDEST PUSH1 0x7 SLOAD PUSH2 0x22AC SWAP1 ADDRESS SWAP1 PUSH1 0x1 PUSH1 0x1 PUSH1 0xA0 SHL SUB AND PUSH12 0x33B2E3C9FD0803CE8000000 PUSH2 0x3E64 JUMP JUMPDEST PUSH12 0x33B2E3C9FD0803CE8000000 PUSH1 0xA PUSH0 DUP3 DUP3 SLOAD PUSH2 0x22C9 SWAP2 SWAP1 PUSH2 0x4F0D JUMP JUMPDEST SWAP1 SWAP2 SSTORE POP PUSH2 0x22D8 SWAP1 POP PUSH0 PUSH2 0x46AC JUMP JUMPDEST ADDRESS PUSH0 SWAP1 DUP2 MSTORE PUSH1 0x20 DUP2 DUP2 MSTORE PUSH1 0x40 SWAP2 DUP3 SWAP1 KECCAK256 SLOAD DUP3 MLOAD PUSH12 0x33B2E3C9FD0803CE8000000 DUP2 MSTORE SWAP2 DUP3 ADD MSTORE DUP2 MLOAD PUSH32 0xE49DB96A72E85D04778BB78627173221C08F5ACAA50EAEF5B0D94C0A8C1589B1 SWAP3 SWAP2 DUP2 SWAP1 SUB SWAP1 SWAP2 ADD SWAP1 LOG1 JUMP JUMPDEST PUSH1 0x2E DUP2 DUP2 SLOAD DUP2 LT PUSH2 0x233C JUMPI PUSH0 DUP1 REVERT JUMPDEST PUSH0 SWAP2 DUP3 MSTORE PUSH1 0x20 SWAP1 SWAP2 KECCAK256 ADD SLOAD PUSH1 0x1 PUSH1 0x1 PUSH1 0xA0 SHL SUB AND SWAP1 POP DUP2 JUMP JUMPDEST PUSH1 0x2D DUP2 DUP2 SLOAD DUP2 LT PUSH2 0x233C JUMPI PUSH0 DUP1 REVERT JUMPDEST PUSH2 0x236C PUSH2 0x3E3A JUMP JUMPDEST PUSH1 0x9 SLOAD PUSH3 0x10000 SWAP1 DIV PUSH1 0xFF AND ISZERO PUSH2 0x2396 JUMPI PUSH1 0x40 MLOAD PUSH4 0xAB35696F PUSH1 0xE0 SHL DUP2 MSTORE PUSH1 0x4 ADD PUSH1 0x40 MLOAD DUP1 SWAP2 SUB SWAP1 REVERT JUMPDEST CALLER ORIGIN EQ PUSH2 0x23B5 JUMPI PUSH1 0x40 MLOAD PUSH3 0x461BCD PUSH1 0xE5 SHL DUP2 MSTORE PUSH1 0x4 ADD PUSH2 0x1528 SWAP1 PUSH2 0x4FA5 JUMP JUMPDEST PUSH1 0x9 SLOAD PUSH1 0xFF AND PUSH2 0x23D8 JUMPI PUSH1 0x40 MLOAD PUSH4 0x45232915 PUSH1 0xE0 SHL DUP2 MSTORE PUSH1 0x4 ADD PUSH1 0x40 MLOAD DUP1 SWAP2 SUB SWAP1 REVERT JUMPDEST DUP1 PUSH0 SUB PUSH2 0x23F8 JUMPI PUSH1 0x40 MLOAD PUSH4 0x65E52D51 PUSH1 0xE1 SHL DUP2 MSTORE PUSH1 0x4 ADD PUSH1 0x40 MLOAD DUP1 SWAP2 SUB SWAP1 REVERT JUMPDEST CALLER PUSH0 SWAP1 DUP2 MSTORE PUSH1 0x20 DUP2 SWAP1 MSTORE PUSH1 0x40 SWAP1 KECCAK256 SLOAD DUP2 GT ISZERO PUSH2 0x2427 JUMPI PUSH1 0x40 MLOAD PUSH4 0x1E9ACF17 PUSH1 0xE3 SHL DUP2 MSTORE PUSH1 0x4 ADD PUSH1 0x40 MLOAD DUP1 SWAP2 SUB SWAP1 REVERT JUMPDEST PUSH1 0xC SLOAD TIMESTAMP GT DUP1 ISZERO PUSH2 0x2459 JUMPI POP PUSH32 0x0 PUSH1 0xB SLOAD LT JUMPDEST ISZERO PUSH2 0x2489 JUMPI PUSH1 0xD PUSH0 DUP2 SLOAD PUSH2 0x246C SWAP1 PUSH2 0x4FE8 JUMP JUMPDEST SWAP1 SWAP2 SSTORE POP TIMESTAMP PUSH1 0xE DUP2 SWAP1 SSTORE PUSH2 0x2485 SWAP1 PUSH4 0x1E13380 SWAP1 PUSH2 0x4EC4 JUMP JUMPDEST PUSH1 0xC SSTORE JUMPDEST PUSH1 0xC SLOAD TIMESTAMP GT ISZERO PUSH2 0x24AC JUMPI PUSH1 0x40 MLOAD PUSH4 0xE04B2001 PUSH1 0xE0 SHL DUP2 MSTORE PUSH1 0x4 ADD PUSH1 0x40 MLOAD DUP1 SWAP2 SUB SWAP1 REVERT JUMPDEST PUSH0 PUSH32 0x0 PUSH1 0xF SLOAD PUSH1 0xB SLOAD PUSH2 0x24DE SWAP2 SWAP1 PUSH2 0x4EC4 JUMP JUMPDEST GT PUSH2 0x24EB JUMPI PUSH1 0xF SLOAD PUSH2 0x2518 JUMP JUMPDEST PUSH1 0xB SLOAD PUSH2 0x2518 SWAP1 PUSH32 0x0 PUSH2 0x4F0D JUMP JUMPDEST SWAP1 POP PUSH32 0x0 DUP3 PUSH1 0xB SLOAD PUSH2 0x2549 SWAP2 SWAP1 PUSH2 0x4EC4 JUMP JUMPDEST GT DUP1 PUSH2 0x2570 JUMPI POP PUSH1 0xD SLOAD PUSH0 SWAP1 DUP2 MSTORE PUSH1 0x1F PUSH1 0x20 MSTORE PUSH1 0x40 SWAP1 KECCAK256 SLOAD DUP2 SWAP1 PUSH2 0x256E SWAP1 DUP5 SWAP1 PUSH2 0x4EC4 JUMP JUMPDEST GT JUMPDEST ISZERO PUSH2 0x258E JUMPI PUSH1 0x40 MLOAD PUSH4 0x87D5B4FB PUSH1 0xE0 SHL DUP2 MSTORE PUSH1 0x4 ADD PUSH1 0x40 MLOAD DUP1 SWAP2 SUB SWAP1 REVERT JUMPDEST PUSH0 PUSH2 0x2598 CALLER PUSH2 0x34DC JUMP JUMPDEST PUSH0 SUB PUSH2 0x25A4 JUMPI PUSH0 PUSH2 0x25BB JUMP JUMPDEST PUSH1 0x64 PUSH2 0x25B1 DUP5 PUSH1 0x5 PUSH2 0x4ED7 JUMP JUMPDEST PUSH2 0x25BB SWAP2 SWAP1 PUSH2 0x4EEE JUMP JUMPDEST SWAP1 POP PUSH2 0x25C7 CALLER DUP5 PUSH2 0x4236 JUMP JUMPDEST DUP3 PUSH1 0xB PUSH0 DUP3 DUP3 SLOAD PUSH2 0x25D8 SWAP2 SWAP1 PUSH2 0x4EC4 JUMP JUMPDEST SWAP1 SWAP2 SSTORE POP POP PUSH1 0xD SLOAD PUSH0 SWAP1 DUP2 MSTORE PUSH1 0x1F PUSH1 0x20 MSTORE PUSH1 0x40 DUP2 KECCAK256 DUP1 SLOAD DUP6 SWAP3 SWAP1 PUSH2 0x25FD SWAP1 DUP5 SWAP1 PUSH2 0x4EC4 JUMP JUMPDEST SWAP1 SWAP2 SSTORE POP POP PUSH1 0xD SLOAD PUSH0 SWAP1 DUP2 MSTORE PUSH1 0x1E PUSH1 0x20 SWAP1 DUP2 MSTORE PUSH1 0x40 DUP1 DUP4 KECCAK256 CALLER DUP5 MSTORE SWAP1 SWAP2 MSTORE DUP2 KECCAK256 DUP1 SLOAD DUP6 SWAP3 SWAP1 PUSH2 0x262D SWAP1 DUP5 SWAP1 PUSH2 0x4EC4 JUMP JUMPDEST SWAP1 SWAP2 SSTORE POP POP CALLER PUSH0 SWAP1 DUP2 MSTORE PUSH1 0x21 PUSH1 0x20 MSTORE PUSH1 0x40 DUP2 KECCAK256 DUP1 SLOAD DUP6 SWAP3 SWAP1 PUSH2 0x2650 SWAP1 DUP5 SWAP1 PUSH2 0x4EC4 JUMP JUMPDEST SWAP1 SWAP2 SSTORE POP POP DUP1 ISZERO PUSH2 0x26FE JUMPI DUP1 PUSH1 0xB PUSH0 DUP3 DUP3 SLOAD PUSH2 0x266C SWAP2 SWAP1 PUSH2 0x4EC4 JUMP JUMPDEST SWAP1 SWAP2 SSTORE POP POP PUSH1 0xD SLOAD PUSH0 SWAP1 DUP2 MSTORE PUSH1 0x1F PUSH1 0x20 MSTORE PUSH1 0x40 DUP2 KECCAK256 DUP1 SLOAD DUP4 SWAP3 SWAP1 PUSH2 0x2691 SWAP1 DUP5 SWAP1 PUSH2 0x4EC4 JUMP JUMPDEST SWAP1 SWAP2 SSTORE POP POP CALLER PUSH0 SWAP1 DUP2 MSTORE PUSH1 0x21 PUSH1 0x20 MSTORE PUSH1 0x40 DUP2 KECCAK256 DUP1 SLOAD DUP4 SWAP3 SWAP1 PUSH2 0x26B4 SWAP1 DUP5 SWAP1 PUSH2 0x4EC4 JUMP JUMPDEST SWAP1 SWAP2 SSTORE POP POP PUSH1 0xD SLOAD PUSH1 0x40 MLOAD CALLER SWAP2 PUSH32 0x4C97AE41D96B9D1B707EB19904C08873168D11C83D16D121546EF8213F3C4078 SWAP2 PUSH2 0x26F5 SWAP2 DUP6 DUP3 MSTORE PUSH1 0x20 DUP3 ADD MSTORE PUSH1 0x40 ADD SWAP1 JUMP JUMPDEST PUSH1 0x40 MLOAD DUP1 SWAP2 SUB SWAP1 LOG2 JUMPDEST CALLER PUSH32 0x19783B34589160C168487DC7F9C51AE0BCEFE67A47D6708FBA90F6CE0366D3D1 PUSH2 0x272A DUP4 DUP7 PUSH2 0x4EC4 JUMP JUMPDEST PUSH1 0xB SLOAD PUSH1 0xD SLOAD PUSH1 0x40 DUP1 MLOAD SWAP4 DUP5 MSTORE PUSH1 0x20 DUP5 ADD SWAP3 SWAP1 SWAP3 MSTORE SWAP1 DUP3 ADD MSTORE PUSH1 0x60 ADD PUSH1 0x40 MLOAD DUP1 SWAP2 SUB SWAP1 LOG2 PUSH32 0x0 PUSH1 0xB SLOAD LT ISZERO DUP1 ISZERO PUSH2 0x2788 JUMPI POP PUSH1 0x9 SLOAD PUSH2 0x100 SWAP1 DIV PUSH1 0xFF AND ISZERO JUMPDEST ISZERO PUSH2 0x27C7 JUMPI PUSH1 0x9 DUP1 SLOAD PUSH2 0xFF00 NOT AND PUSH2 0x100 OR SWAP1 SSTORE PUSH1 0x40 MLOAD TIMESTAMP SWAP1 PUSH32 0x487F0D08255B66D07FA5D32380F37FC9845759C2C886EDB198E5A083CC8DFB4A SWAP1 PUSH0 SWAP1 LOG2 JUMPDEST POP POP PUSH2 0x13F6 PUSH1 0x1 PUSH1 0x5 SSTORE JUMP JUMPDEST PUSH2 0x27DC DUP2 PUSH2 0x34DC JUMP JUMPDEST PUSH0 SUB PUSH2 0x27E5 JUMPI POP JUMP JUMPDEST PUSH1 0x1 PUSH1 0x1 PUSH1 0xA0 SHL SUB DUP2 AND PUSH0 SWAP1 DUP2 MSTORE PUSH1 0x25 PUSH1 0x20 MSTORE PUSH1 0x40 SWAP1 KECCAK256 PUSH1 0x1 DUP2 ADD SLOAD PUSH1 0xFF AND ISZERO DUP1 ISZERO PUSH2 0x2822 JUMPI POP PUSH1 0x19 SLOAD DUP2 SLOAD PUSH2 0x281E SWAP2 SWAP1 PUSH1 0x80 SHR PUSH2 0x4EC4 JUMP JUMPDEST TIMESTAMP LT ISZERO JUMPDEST ISZERO PUSH2 0x2059 JUMPI PUSH1 0x1 DUP2 DUP2 ADD DUP1 SLOAD PUSH1 0xFF NOT AND DUP3 OR SWAP1 SSTORE PUSH1 0x40 MLOAD SWAP1 DUP2 MSTORE PUSH1 0x1 PUSH1 0x1 PUSH1 0xA0 SHL SUB DUP4 AND SWAP1 PUSH32 0x901C366748C1200897E79F66EDAD4E674060EBAB48CB1AFF438E4504E79ED67E SWAP1 PUSH1 0x20 ADD JUMPDEST PUSH1 0x40 MLOAD DUP1 SWAP2 SUB SWAP1 LOG2 POP POP JUMP JUMPDEST PUSH2 0x2881 PUSH2 0x3E3A JUMP JUMPDEST PUSH1 0x9 SLOAD PUSH3 0x10000 SWAP1 DIV PUSH1 0xFF AND ISZERO PUSH2 0x28AB JUMPI PUSH1 0x40 MLOAD PUSH4 0xAB35696F PUSH1 0xE0 SHL DUP2 MSTORE PUSH1 0x4 ADD PUSH1 0x40 MLOAD DUP1 SWAP2 SUB SWAP1 REVERT JUMPDEST PUSH1 0x1 PUSH1 0x1 PUSH1 0xA0 SHL SUB DUP3 AND ISZERO DUP1 PUSH2 0x28C9 JUMPI POP PUSH1 0x1 PUSH1 0x1 PUSH1 0xA0 SHL SUB DUP3 AND CALLER EQ JUMPDEST ISZERO PUSH2 0x28E7 JUMPI PUSH1 0x40 MLOAD PUSH4 0x2D618D81 PUSH1 0xE2 SHL DUP2 MSTORE PUSH1 0x4 ADD PUSH1 0x40 MLOAD DUP1 SWAP2 SUB SWAP1 REVERT JUMPDEST DUP1 ISZERO DUP1 PUSH2 0x28FB JUMPI POP PUSH2 0x28F8 CALLER PUSH2 0x34DC JUMP JUMPDEST DUP2 GT JUMPDEST ISZERO PUSH2 0x2919 JUMPI PUSH1 0x40 MLOAD PUSH4 0x65E52D51 PUSH1 0xE1 SHL DUP2 MSTORE PUSH1 0x4 ADD PUSH1 0x40 MLOAD DUP1 SWAP2 SUB SWAP1 REVERT JUMPDEST CALLER PUSH0 SWAP1 DUP2 MSTORE PUSH1 0x27 PUSH1 0x20 MSTORE PUSH1 0x40 SWAP1 KECCAK256 PUSH1 0x1 ADD SLOAD PUSH1 0x1 PUSH1 0x1 PUSH1 0xA0 SHL SUB AND ISZERO PUSH2 0x2952 JUMPI PUSH1 0x40 MLOAD PUSH4 0x6269CF49 PUSH1 0xE0 SHL DUP2 MSTORE PUSH1 0x4 ADD PUSH1 0x40 MLOAD DUP1 SWAP2 SUB SWAP1 REVERT JUMPDEST PUSH2 0x295B CALLER PUSH2 0x27D3 JUMP JUMPDEST CALLER PUSH0 SWAP1 DUP2 MSTORE PUSH1 0x25 PUSH1 0x20 MSTORE PUSH1 0x40 SWAP1 KECCAK256 PUSH1 0x1 ADD SLOAD PUSH1 0xFF AND PUSH2 0x298D JUMPI PUSH1 0x40 MLOAD PUSH4 0x1878F081 PUSH1 0xE0 SHL DUP2 MSTORE PUSH1 0x4 ADD PUSH1 0x40 MLOAD DUP1 SWAP2 SUB SWAP1 REVERT JUMPDEST PUSH0 PUSH1 0x64 PUSH1 0x1C SLOAD PUSH2 0x299C DUP6 PUSH2 0x34DC JUMP JUMPDEST PUSH2 0x29A6 SWAP2 SWAP1 PUSH2 0x4ED7 JUMP JUMPDEST PUSH2 0x29B0 SWAP2 SWAP1 PUSH2 0x4EEE JUMP JUMPDEST PUSH1 0x1 PUSH1 0x1 PUSH1 0xA0 SHL SUB DUP5 AND PUSH0 SWAP1 DUP2 MSTORE PUSH1 0x28 PUSH1 0x20 MSTORE PUSH1 0x40 SWAP1 KECCAK256 SLOAD SWAP1 SWAP2 POP DUP2 SWAP1 PUSH2 0x29D8 SWAP1 DUP5 SWAP1 PUSH2 0x4EC4 JUMP JUMPDEST GT ISZERO PUSH2 0x29F7 JUMPI PUSH1 0x40 MLOAD PUSH4 0x4BD2B19 PUSH1 0xE2 SHL DUP2 MSTORE PUSH1 0x4 ADD PUSH1 0x40 MLOAD DUP1 SWAP2 SUB SWAP1 REVERT JUMPDEST PUSH1 0x40 DUP1 MLOAD PUSH1 0x80 DUP2 ADD DUP3 MSTORE CALLER DUP1 DUP3 MSTORE PUSH1 0x1 PUSH1 0x1 PUSH1 0xA0 SHL SUB DUP7 DUP2 AND PUSH1 0x20 DUP1 DUP6 ADD DUP3 DUP2 MSTORE DUP6 DUP8 ADD DUP10 DUP2 MSTORE TIMESTAMP PUSH1 0x60 DUP9 ADD SWAP1 DUP2 MSTORE PUSH0 SWAP7 DUP8 MSTORE PUSH1 0x27 DUP5 MSTORE DUP9 DUP8 KECCAK256 SWAP8 MLOAD DUP9 SLOAD SWAP1 DUP8 AND PUSH1 0x1 PUSH1 0x1 PUSH1 0xA0 SHL SUB NOT SWAP2 DUP3 AND OR DUP10 SSTORE SWAP3 MLOAD PUSH1 0x1 DUP10 ADD DUP1 SLOAD SWAP2 SWAP1 SWAP8 AND SWAP4 AND SWAP3 SWAP1 SWAP3 OR SWAP1 SWAP5 SSTORE SWAP3 MLOAD PUSH1 0x2 DUP7 ADD SSTORE SWAP2 MLOAD PUSH1 0x3 SWAP1 SWAP5 ADD SWAP4 SWAP1 SWAP4 SSTORE SWAP2 DUP2 MSTORE PUSH1 0x28 SWAP1 SWAP2 MSTORE SWAP1 DUP2 KECCAK256 DUP1 SLOAD DUP5 SWAP3 SWAP1 PUSH2 0x2A89 SWAP1 DUP5 SWAP1 PUSH2 0x4EC4 JUMP JUMPDEST SWAP1 SWAP2 SSTORE POP POP PUSH1 0x1 PUSH1 0x1 PUSH1 0xA0 SHL SUB DUP4 AND PUSH0 SWAP1 DUP2 MSTORE PUSH1 0x28 PUSH1 0x20 MSTORE PUSH1 0x40 SWAP1 KECCAK256 SLOAD PUSH2 0x2AB1 SWAP1 DUP5 SWAP1 PUSH2 0x426A JUMP JUMPDEST PUSH1 0x40 MLOAD DUP3 DUP2 MSTORE PUSH1 0x1 PUSH1 0x1 PUSH1 0xA0 SHL SUB DUP5 AND SWAP1 CALLER SWAP1 PUSH32 0xF5C2B450C3B6C4C3CC8C45E612FFA5CE51CDA974E8B2ECAF58ABDA86D8965847 SWAP1 PUSH1 0x20 ADD PUSH1 0x40 MLOAD DUP1 SWAP2 SUB SWAP1 LOG3 POP PUSH2 0x2059 PUSH1 0x1 PUSH1 0x5 SSTORE JUMP JUMPDEST PUSH1 0x60 PUSH1 0x4 DUP1 SLOAD PUSH2 0xE69 SWAP1 PUSH2 0x4E78 JUMP JUMPDEST PUSH1 0x60 PUSH1 0x2E DUP1 SLOAD DUP1 PUSH1 0x20 MUL PUSH1 0x20 ADD PUSH1 0x40 MLOAD SWAP1 DUP2 ADD PUSH1 0x40 MSTORE DUP1 SWAP3 SWAP2 SWAP1 DUP2 DUP2 MSTORE PUSH1 0x20 ADD DUP3 DUP1 SLOAD DUP1 ISZERO PUSH2 0xEE0 JUMPI PUSH1 0x20 MUL DUP3 ADD SWAP2 SWAP1 PUSH0 MSTORE PUSH1 0x20 PUSH0 KECCAK256 SWAP1 JUMPDEST DUP2 SLOAD PUSH1 0x1 PUSH1 0x1 PUSH1 0xA0 SHL SUB AND DUP2 MSTORE PUSH1 0x1 SWAP1 SWAP2 ADD SWAP1 PUSH1 0x20 ADD DUP1 DUP4 GT PUSH2 0x2B43 JUMPI POP POP POP POP POP SWAP1 POP SWAP1 JUMP JUMPDEST PUSH1 0x1D SLOAD PUSH1 0x1 PUSH1 0x1 PUSH1 0xA0 SHL SUB AND CALLER EQ DUP1 ISZERO SWAP1 PUSH2 0x2B90 JUMPI POP PUSH1 0x6 SLOAD PUSH1 0x1 PUSH1 0x1 PUSH1 0xA0 SHL SUB AND CALLER EQ ISZERO JUMPDEST ISZERO PUSH2 0x2BAE JUMPI PUSH1 0x40 MLOAD PUSH4 0xEA8E4EB5 PUSH1 0xE0 SHL DUP2 MSTORE PUSH1 0x4 ADD PUSH1 0x40 MLOAD DUP1 SWAP2 SUB SWAP1 REVERT JUMPDEST PUSH1 0x1D SLOAD PUSH1 0x1 PUSH1 0xA0 SHL SWAP1 DIV PUSH1 0xFF AND ISZERO PUSH2 0x2BD9 JUMPI PUSH1 0x40 MLOAD PUSH4 0x87CEAB01 PUSH1 0xE0 SHL DUP2 MSTORE PUSH1 0x4 ADD PUSH1 0x40 MLOAD DUP1 SWAP2 SUB SWAP1 REVERT JUMPDEST PUSH32 0x0 PUSH2 0x2C03 PUSH1 0x2 SLOAD SWAP1 JUMP JUMPDEST LT ISZERO PUSH2 0x2C22 JUMPI PUSH1 0x40 MLOAD PUSH4 0x90D0CC47 PUSH1 0xE0 SHL DUP2 MSTORE PUSH1 0x4 ADD PUSH1 0x40 MLOAD DUP1 SWAP2 SUB SWAP1 REVERT JUMPDEST PUSH1 0x2D SLOAD PUSH0 SUB PUSH2 0x2C44 JUMPI PUSH1 0x40 MLOAD PUSH4 0x8B6A473 PUSH1 0xE4 SHL DUP2 MSTORE PUSH1 0x4 ADD PUSH1 0x40 MLOAD DUP1 SWAP2 SUB SWAP1 REVERT JUMPDEST PUSH1 0x1D DUP1 SLOAD PUSH2 0xFFFF PUSH1 0xA0 SHL NOT AND PUSH1 0x1 PUSH1 0xA0 SHL OR SWAP1 SSTORE PUSH1 0x2D SLOAD PUSH0 PUSH2 0x2C86 DUP3 PUSH32 0x0 PUSH2 0x4EEE JUMP JUMPDEST SWAP1 POP PUSH0 JUMPDEST DUP3 DUP2 LT ISZERO PUSH2 0x2D4E JUMPI PUSH0 PUSH1 0x2D DUP3 DUP2 SLOAD DUP2 LT PUSH2 0x2CA6 JUMPI PUSH2 0x2CA6 PUSH2 0x4FD4 JUMP JUMPDEST PUSH0 SWAP2 DUP3 MSTORE PUSH1 0x20 SWAP1 SWAP2 KECCAK256 ADD SLOAD PUSH1 0x1 PUSH1 0x1 PUSH1 0xA0 SHL SUB AND SWAP1 POP DUP1 PUSH2 0x2CDA JUMPI PUSH1 0x40 MLOAD PUSH4 0xE6C4247B PUSH1 0xE0 SHL DUP2 MSTORE PUSH1 0x4 ADD PUSH1 0x40 MLOAD DUP1 SWAP2 SUB SWAP1 REVERT JUMPDEST DUP3 PUSH1 0x64 DUP4 LT ISZERO PUSH2 0x2D02 JUMPI PUSH1 0x64 PUSH2 0x2CF1 DUP3 PUSH1 0x96 PUSH2 0x4ED7 JUMP JUMPDEST PUSH2 0x2CFB SWAP2 SWAP1 PUSH2 0x4EEE JUMP JUMPDEST SWAP1 POP PUSH2 0x2D25 JUMP JUMPDEST PUSH1 0xC8 DUP4 LT ISZERO PUSH2 0x2D25 JUMPI PUSH1 0x64 PUSH2 0x2D18 DUP3 PUSH1 0x7D PUSH2 0x4ED7 JUMP JUMPDEST PUSH2 0x2D22 SWAP2 SWAP1 PUSH2 0x4EEE JUMP JUMPDEST SWAP1 POP JUMPDEST PUSH1 0x1 PUSH1 0x1 PUSH1 0xA0 SHL SUB SWAP1 SWAP2 AND PUSH0 SWAP1 DUP2 MSTORE PUSH1 0x2B PUSH1 0x20 MSTORE PUSH1 0x40 SWAP1 KECCAK256 SSTORE PUSH2 0x2D47 DUP2 PUSH2 0x4FE8 JUMP JUMPDEST SWAP1 POP PUSH2 0x2C8A JUMP JUMPDEST POP TIMESTAMP PUSH32 0x8F775AC6A67A8155177EACF03D476A0ADA0E0DE8671DCDB12B65C6E241D7EA1C DUP4 PUSH1 0x40 MLOAD PUSH2 0x286D SWAP2 DUP2 MSTORE PUSH1 0x20 ADD SWAP1 JUMP JUMPDEST PUSH1 0x9 SLOAD PUSH3 0x10000 SWAP1 DIV PUSH1 0xFF AND ISZERO PUSH2 0x2DAB JUMPI PUSH1 0x40 MLOAD PUSH4 0xAB35696F PUSH1 0xE0 SHL DUP2 MSTORE PUSH1 0x4 ADD PUSH1 0x40 MLOAD DUP1 SWAP2 SUB SWAP1 REVERT JUMPDEST PUSH0 DUP3 DUP2 MSTORE PUSH1 0x24 PUSH1 0x20 MSTORE PUSH1 0x40 DUP2 KECCAK256 PUSH1 0x1 DUP2 ADD SLOAD SWAP1 SWAP2 SUB PUSH2 0x2DDD JUMPI PUSH1 0x40 MLOAD PUSH4 0x6CE3C701 PUSH1 0xE1 SHL DUP2 MSTORE PUSH1 0x4 ADD PUSH1 0x40 MLOAD DUP1 SWAP2 SUB SWAP1 REVERT JUMPDEST DUP1 PUSH1 0x1 ADD SLOAD TIMESTAMP LT DUP1 PUSH2 0x2DF2 JUMPI POP DUP1 PUSH1 0x2 ADD SLOAD TIMESTAMP GT JUMPDEST ISZERO PUSH2 0x2E10 JUMPI PUSH1 0x40 MLOAD PUSH4 0x2DFA5C9B PUSH1 0xE0 SHL DUP2 MSTORE PUSH1 0x4 ADD PUSH1 0x40 MLOAD DUP1 SWAP2 SUB SWAP1 REVERT JUMPDEST CALLER PUSH0 SWAP1 DUP2 MSTORE PUSH1 0xA DUP3 ADD PUSH1 0x20 MSTORE PUSH1 0x40 SWAP1 KECCAK256 SLOAD PUSH1 0xFF AND ISZERO PUSH2 0x2E42 JUMPI PUSH1 0x40 MLOAD PUSH4 0x7C9A1CF9 PUSH1 0xE0 SHL DUP2 MSTORE PUSH1 0x4 ADD PUSH1 0x40 MLOAD DUP1 SWAP2 SUB SWAP1 REVERT JUMPDEST PUSH1 0x9 DUP2 ADD SLOAD PUSH2 0x100 SWAP1 DIV PUSH1 0xFF AND ISZERO PUSH2 0x2E6D JUMPI PUSH1 0x40 MLOAD PUSH4 0xCF88C657 PUSH1 0xE0 SHL DUP2 MSTORE PUSH1 0x4 ADD PUSH1 0x40 MLOAD DUP1 SWAP2 SUB SWAP1 REVERT JUMPDEST CALLER PUSH0 DUP2 DUP2 MSTORE PUSH1 0xB DUP4 ADD PUSH1 0x20 MSTORE PUSH1 0x40 SWAP1 DUP2 SWAP1 KECCAK256 DUP5 SWAP1 SSTORE MLOAD DUP5 SWAP1 PUSH32 0x1F4E2AA7825EF02E85293E2DE66CFBCB326AF2632B558996E546BB1EF3E8764D SWAP1 PUSH2 0x2EB4 SWAP1 DUP7 DUP2 MSTORE PUSH1 0x20 ADD SWAP1 JUMP JUMPDEST PUSH1 0x40 MLOAD DUP1 SWAP2 SUB SWAP1 LOG3 POP POP POP JUMP JUMPDEST PUSH2 0x2EC9 PUSH2 0x3E3A JUMP JUMPDEST PUSH1 0x1D SLOAD PUSH1 0x1 PUSH1 0xA0 SHL SWAP1 DIV PUSH1 0xFF AND PUSH2 0x2EF3 JUMPI PUSH1 0x40 MLOAD PUSH4 0x87CEAB01 PUSH1 0xE0 SHL DUP2 MSTORE PUSH1 0x4 ADD PUSH1 0x40 MLOAD DUP1 SWAP2 SUB SWAP1 REVERT JUMPDEST CALLER PUSH0 SWAP1 DUP2 MSTORE PUSH1 0x2A PUSH1 0x20 MSTORE PUSH1 0x40 SWAP1 KECCAK256 SLOAD PUSH1 0xFF AND PUSH2 0x2F22 JUMPI PUSH1 0x40 MLOAD PUSH4 0xB094F27 PUSH1 0xE3 SHL DUP2 MSTORE PUSH1 0x4 ADD PUSH1 0x40 MLOAD DUP1 SWAP2 SUB SWAP1 REVERT JUMPDEST CALLER PUSH0 SWAP1 DUP2 MSTORE PUSH1 0x2C PUSH1 0x20 MSTORE PUSH1 0x40 SWAP1 KECCAK256 SLOAD PUSH1 0xFF AND ISZERO PUSH2 0x2F52 JUMPI PUSH1 0x40 MLOAD PUSH4 0xC8D9EAB PUSH1 0xE3 SHL DUP2 MSTORE PUSH1 0x4 ADD PUSH1 0x40 MLOAD DUP1 SWAP2 SUB SWAP1 REVERT JUMPDEST CALLER PUSH0 SWAP1 DUP2 MSTORE PUSH1 0x2B PUSH1 0x20 MSTORE PUSH1 0x40 DUP2 KECCAK256 SLOAD SWAP1 SUB PUSH2 0x2F80 JUMPI PUSH1 0x40 MLOAD PUSH4 0x493C1AB7 PUSH1 0xE0 SHL DUP2 MSTORE PUSH1 0x4 ADD PUSH1 0x40 MLOAD DUP1 SWAP2 SUB SWAP1 REVERT JUMPDEST CALLER PUSH0 DUP2 DUP2 MSTORE PUSH1 0x2B PUSH1 0x20 SWAP1 DUP2 MSTORE PUSH1 0x40 DUP1 DUP4 KECCAK256 SLOAD PUSH1 0x2C SWAP1 SWAP3 MSTORE SWAP1 SWAP2 KECCAK256 DUP1 SLOAD PUSH1 0xFF NOT AND PUSH1 0x1 OR SWAP1 SSTORE SWAP1 PUSH2 0x2FB0 SWAP1 DUP3 PUSH2 0x464B JUMP JUMPDEST PUSH1 0x40 MLOAD DUP2 DUP2 MSTORE CALLER SWAP1 PUSH32 0x297D75EB990C12692C7028B6D2CF422C5DE200715CCF4CB9497C7FF567029CDF SWAP1 PUSH1 0x20 ADD PUSH1 0x40 MLOAD DUP1 SWAP2 SUB SWAP1 LOG2 POP PUSH2 0x166E PUSH1 0x1 PUSH1 0x5 SSTORE JUMP JUMPDEST PUSH2 0x2FF8 PUSH2 0x3E3A JUMP JUMPDEST PUSH1 0x9 SLOAD PUSH3 0x10000 SWAP1 DIV PUSH1 0xFF AND ISZERO PUSH2 0x3022 JUMPI PUSH1 0x40 MLOAD PUSH4 0xAB35696F PUSH1 0xE0 SHL DUP2 MSTORE PUSH1 0x4 ADD PUSH1 0x40 MLOAD DUP1 SWAP2 SUB SWAP1 REVERT JUMPDEST CALLER PUSH0 SWAP1 DUP2 MSTORE PUSH1 0x27 PUSH1 0x20 MSTORE PUSH1 0x40 SWAP1 KECCAK256 PUSH1 0x1 ADD SLOAD PUSH1 0x1 PUSH1 0x1 PUSH1 0xA0 SHL SUB AND PUSH2 0x305A JUMPI PUSH1 0x40 MLOAD PUSH4 0xE1E4E59B PUSH1 0xE0 SHL DUP2 MSTORE PUSH1 0x4 ADD PUSH1 0x40 MLOAD DUP1 SWAP2 SUB SWAP1 REVERT JUMPDEST CALLER PUSH0 SWAP1 DUP2 MSTORE PUSH1 0x27 PUSH1 0x20 SWAP1 DUP2 MSTORE PUSH1 0x40 DUP1 DUP4 KECCAK256 PUSH1 0x1 DUP2 ADD SLOAD PUSH1 0x2 SWAP1 SWAP2 ADD SLOAD PUSH1 0x1 PUSH1 0x1 PUSH1 0xA0 SHL SUB SWAP1 SWAP2 AND DUP1 DUP6 MSTORE PUSH1 0x28 SWAP1 SWAP4 MSTORE SWAP1 DUP4 KECCAK256 DUP1 SLOAD SWAP3 SWAP4 SWAP2 SWAP3 DUP4 SWAP3 SWAP1 PUSH2 0x30A0 SWAP1 DUP5 SWAP1 PUSH2 0x4F0D JUMP JUMPDEST SWAP1 SWAP2 SSTORE POP POP CALLER PUSH0 SWAP1 DUP2 MSTORE PUSH1 0x27 PUSH1 0x20 SWAP1 DUP2 MSTORE PUSH1 0x40 DUP1 DUP4 KECCAK256 DUP1 SLOAD PUSH1 0x1 PUSH1 0x1 PUSH1 0xA0 SHL SUB NOT SWAP1 DUP2 AND DUP3 SSTORE PUSH1 0x1 DUP3 ADD DUP1 SLOAD SWAP1 SWAP2 AND SWAP1 SSTORE PUSH1 0x2 DUP2 ADD DUP5 SWAP1 SSTORE PUSH1 0x3 ADD DUP4 SWAP1 SSTORE PUSH1 0x1 PUSH1 0x1 PUSH1 0xA0 SHL SUB DUP6 AND DUP4 MSTORE PUSH1 0x28 SWAP1 SWAP2 MSTORE SWAP1 KECCAK256 SLOAD PUSH2 0x30FD SWAP1 DUP4 SWAP1 PUSH2 0x426A JUMP JUMPDEST PUSH1 0x40 MLOAD CALLER SWAP1 PUSH32 0x6B2E7B08F80AEDC85DFABF602E4CD41CCF8A9CAA2961DD13719C71C3FF65BBC7 SWAP1 PUSH0 SWAP1 LOG2 POP POP PUSH2 0x166E PUSH1 0x1 PUSH1 0x5 SSTORE JUMP JUMPDEST PUSH2 0x313B PUSH2 0x3E3A JUMP JUMPDEST PUSH1 0x9 SLOAD PUSH3 0x10000 SWAP1 DIV PUSH1 0xFF AND ISZERO PUSH2 0x3165 JUMPI PUSH1 0x40 MLOAD PUSH4 0xAB35696F PUSH1 0xE0 SHL DUP2 MSTORE PUSH1 0x4 ADD PUSH1 0x40 MLOAD DUP1 SWAP2 SUB SWAP1 REVERT JUMPDEST CALLER ORIGIN EQ PUSH2 0x3184 JUMPI PUSH1 0x40 MLOAD PUSH3 0x461BCD PUSH1 0xE5 SHL DUP2 MSTORE PUSH1 0x4 ADD PUSH2 0x1528 SWAP1 PUSH2 0x4FA5 JUMP JUMPDEST PUSH9 0x3635C9ADC5DEA00000 DUP2 LT ISZERO PUSH2 0x31AE JUMPI PUSH1 0x40 MLOAD PUSH4 0x8ECF3D03 PUSH1 0xE0 SHL DUP2 MSTORE PUSH1 0x4 ADD PUSH1 0x40 MLOAD DUP1 SWAP2 SUB SWAP1 REVERT JUMPDEST CALLER PUSH0 SWAP1 DUP2 MSTORE PUSH1 0x20 DUP2 SWAP1 MSTORE PUSH1 0x40 SWAP1 KECCAK256 SLOAD DUP2 GT ISZERO PUSH2 0x31DD JUMPI PUSH1 0x40 MLOAD PUSH4 0x1E9ACF17 PUSH1 0xE3 SHL DUP2 MSTORE PUSH1 0x4 ADD PUSH1 0x40 MLOAD DUP1 SWAP2 SUB SWAP1 REVERT JUMPDEST CALLER PUSH0 SWAP1 DUP2 MSTORE PUSH1 0x29 PUSH1 0x20 MSTORE PUSH1 0x40 SWAP1 KECCAK256 PUSH1 0x3 ADD SLOAD PUSH1 0xFF AND ISZERO PUSH2 0x3210 JUMPI PUSH1 0x40 MLOAD PUSH4 0x3E560AFD PUSH1 0xE1 SHL DUP2 MSTORE PUSH1 0x4 ADD PUSH1 0x40 MLOAD DUP1 SWAP2 SUB SWAP1 REVERT JUMPDEST PUSH2 0x321B CALLER ADDRESS DUP4 PUSH2 0x19A4 JUMP JUMPDEST POP PUSH1 0x40 DUP1 MLOAD PUSH1 0x80 DUP2 ADD DUP3 MSTORE DUP3 DUP2 MSTORE TIMESTAMP PUSH1 0x20 DUP1 DUP4 ADD SWAP2 DUP3 MSTORE PUSH0 DUP4 DUP6 ADD DUP2 DUP2 MSTORE PUSH1 0x1 PUSH1 0x60 DUP7 ADD DUP2 DUP2 MSTORE CALLER DUP5 MSTORE PUSH1 0x29 SWAP1 SWAP5 MSTORE SWAP6 DUP3 KECCAK256 SWAP5 MLOAD DUP6 SSTORE SWAP3 MLOAD SWAP5 DUP5 ADD SWAP5 SWAP1 SWAP5 SSTORE SWAP1 MLOAD PUSH1 0x2 DUP4 ADD SSTORE MLOAD PUSH1 0x3 SWAP1 SWAP2 ADD DUP1 SLOAD PUSH1 0xFF NOT AND SWAP2 ISZERO ISZERO SWAP2 SWAP1 SWAP2 OR SWAP1 SSTORE PUSH1 0x11 DUP1 SLOAD DUP4 SWAP3 SWAP1 PUSH2 0x3288 SWAP1 DUP5 SWAP1 PUSH2 0x4EC4 JUMP JUMPDEST SWAP1 SWAP2 SSTORE POP POP PUSH1 0x40 DUP1 MLOAD DUP3 DUP2 MSTORE TIMESTAMP PUSH1 0x20 DUP3 ADD MSTORE CALLER SWAP2 PUSH32 0x1449C6DD7851ABC30ABF37F57715F492010519147CC2652FBC38202C18A6EE90 SWAP2 ADD PUSH1 0x40 MLOAD DUP1 SWAP2 SUB SWAP1 LOG2 PUSH2 0x13F6 PUSH1 0x1 PUSH1 0x5 SSTORE JUMP JUMPDEST PUSH1 0x9 SLOAD PUSH0 SWAP1 PUSH3 0x10000 SWAP1 DIV PUSH1 0xFF AND ISZERO PUSH2 0x32FD JUMPI PUSH1 0x40 MLOAD PUSH4 0xAB35696F PUSH1 0xE0 SHL DUP2 MSTORE PUSH1 0x4 ADD PUSH1 0x40 MLOAD DUP1 SWAP2 SUB SWAP1 REVERT JUMPDEST PUSH1 0x1 PUSH1 0x1 PUSH1 0xA0 SHL SUB DUP4 AND PUSH2 0x3324 JUMPI PUSH1 0x40 MLOAD PUSH4 0x4E469669 PUSH1 0xE1 SHL DUP2 MSTORE PUSH1 0x4 ADD PUSH1 0x40 MLOAD DUP1 SWAP2 SUB SWAP1 REVERT JUMPDEST PUSH0 PUSH2 0x332F DUP5 DUP5 PUSH2 0x46FD JUMP JUMPDEST SWAP1 POP DUP1 DUP1 ISZERO PUSH2 0x3341 JUMPI POP PUSH1 0x9 SLOAD PUSH1 0xFF AND ISZERO JUMPDEST ISZERO PUSH2 0x1A39 JUMPI PUSH2 0x1A39 PUSH2 0x213D JUMP JUMPDEST PUSH1 0x60 PUSH1 0x2D DUP1 SLOAD DUP1 PUSH1 0x20 MUL PUSH1 0x20 ADD PUSH1 0x40 MLOAD SWAP1 DUP2 ADD PUSH1 0x40 MSTORE DUP1 SWAP3 SWAP2 SWAP1 DUP2 DUP2 MSTORE PUSH1 0x20 ADD DUP3 DUP1 SLOAD DUP1 ISZERO PUSH2 0xEE0 JUMPI PUSH1 0x20 MUL DUP3 ADD SWAP2 SWAP1 PUSH0 MSTORE PUSH1 0x20 PUSH0 KECCAK256 SWAP1 DUP2 SLOAD PUSH1 0x1 PUSH1 0x1 PUSH1 0xA0 SHL SUB AND DUP2 MSTORE PUSH1 0x1 SWAP1 SWAP2 ADD SWAP1 PUSH1 0x20 ADD DUP1 DUP4 GT PUSH2 0x2B43 JUMPI POP POP POP POP POP SWAP1 POP SWAP1 JUMP JUMPDEST PUSH2 0x33B4 PUSH2 0x3E3A JUMP JUMPDEST PUSH1 0x9 SLOAD PUSH3 0x10000 SWAP1 DIV PUSH1 0xFF AND ISZERO PUSH2 0x33DE JUMPI PUSH1 0x40 MLOAD PUSH4 0xAB35696F PUSH1 0xE0 SHL DUP2 MSTORE PUSH1 0x4 ADD PUSH1 0x40 MLOAD DUP1 SWAP2 SUB SWAP1 REVERT JUMPDEST PUSH1 0x1 PUSH1 0x1 PUSH1 0xA0 SHL SUB DUP3 AND ISZERO DUP1 PUSH2 0x33FC JUMPI POP PUSH1 0x1 PUSH1 0x1 PUSH1 0xA0 SHL SUB DUP3 AND CALLER EQ JUMPDEST ISZERO PUSH2 0x341A JUMPI PUSH1 0x40 MLOAD PUSH4 0x1437F47 PUSH1 0xE3 SHL DUP2 MSTORE PUSH1 0x4 ADD PUSH1 0x40 MLOAD DUP1 SWAP2 SUB SWAP1 REVERT JUMPDEST DUP1 ISZERO DUP1 PUSH2 0x342E JUMPI POP PUSH2 0x342B CALLER PUSH2 0x34DC JUMP JUMPDEST DUP2 GT JUMPDEST ISZERO PUSH2 0x344C JUMPI PUSH1 0x40 MLOAD PUSH4 0x65E52D51 PUSH1 0xE1 SHL DUP2 MSTORE PUSH1 0x4 ADD PUSH1 0x40 MLOAD DUP1 SWAP2 SUB SWAP1 REVERT JUMPDEST PUSH2 0x3455 CALLER PUSH2 0x27D3 JUMP JUMPDEST CALLER PUSH0 SWAP1 DUP2 MSTORE PUSH1 0x25 PUSH1 0x20 MSTORE PUSH1 0x40 SWAP1 KECCAK256 PUSH1 0x1 ADD SLOAD PUSH1 0xFF AND PUSH2 0x3487 JUMPI PUSH1 0x40 MLOAD PUSH4 0x1878F081 PUSH1 0xE0 SHL DUP2 MSTORE PUSH1 0x4 ADD PUSH1 0x40 MLOAD DUP1 SWAP2 SUB SWAP1 REVERT JUMPDEST PUSH2 0x3492 ADDRESS DUP4 DUP4 PUSH2 0x3E64 JUMP JUMPDEST PUSH1 0x40 MLOAD DUP2 DUP2 MSTORE PUSH1 0x1 PUSH1 0x1 PUSH1 0xA0 SHL SUB DUP4 AND SWAP1 CALLER SWAP1 PUSH32 0x1E50CDF36B7821A0EA2C0889B9A5426558CFFA8EB685D3F224BB788FAAE557B1 SWAP1 PUSH1 0x20 ADD PUSH1 0x40 MLOAD DUP1 SWAP2 SUB SWAP1 LOG3 PUSH2 0x2059 PUSH1 0x1 PUSH1 0x5 SSTORE JUMP JUMPDEST PUSH1 0x9 SLOAD PUSH0 SWAP1 PUSH2 0x100 SWAP1 DIV PUSH1 0xFF AND ISZERO DUP1 PUSH2 0x3509 JUMPI POP PUSH1 0x1 PUSH1 0x1 PUSH1 0xA0 SHL SUB DUP3 AND PUSH0 SWAP1 DUP2 MSTORE PUSH1 0x20 DUP1 MSTORE PUSH1 0x40 SWAP1 KECCAK256 SLOAD ISZERO JUMPDEST ISZERO PUSH2 0x3515 JUMPI POP PUSH0 SWAP2 SWAP1 POP JUMP JUMPDEST PUSH1 0x1 PUSH1 0x1 PUSH1 0xA0 SHL SUB DUP3 AND PUSH0 SWAP1 DUP2 MSTORE PUSH1 0x25 PUSH1 0x20 SWAP1 DUP2 MSTORE PUSH1 0x40 SWAP2 DUP3 SWAP1 KECCAK256 DUP3 MLOAD DUP1 DUP5 ADD SWAP1 SWAP4 MSTORE DUP1 SLOAD DUP1 DUP5 MSTORE PUSH1 0x1 SWAP1 SWAP2 ADD SLOAD PUSH1 0xFF AND ISZERO ISZERO SWAP2 DUP4 ADD SWAP2 SWAP1 SWAP2 MSTORE PUSH1 0x1 PUSH1 0x1 PUSH1 0x80 SHL SUB AND TIMESTAMP DUP2 GT PUSH2 0x3568 JUMPI POP PUSH0 SWAP4 SWAP3 POP POP POP JUMP JUMPDEST PUSH1 0x1 PUSH1 0x1 PUSH1 0xA0 SHL SUB DUP5 AND PUSH0 SWAP1 DUP2 MSTORE PUSH1 0x26 PUSH1 0x20 MSTORE PUSH1 0x40 DUP2 KECCAK256 SLOAD TIMESTAMP GT PUSH2 0x358C JUMPI PUSH0 PUSH2 0x35AE JUMP JUMPDEST PUSH1 0x1 PUSH1 0x1 PUSH1 0xA0 SHL SUB DUP6 AND PUSH0 SWAP1 DUP2 MSTORE PUSH1 0x26 PUSH1 0x20 MSTORE PUSH1 0x40 SWAP1 KECCAK256 SLOAD PUSH2 0x35AE SWAP1 TIMESTAMP PUSH2 0x4F0D JUMP JUMPDEST SWAP1 POP PUSH0 PUSH2 0x3E8 PUSH2 0x35C6 DUP4 PUSH8 0xDE0B6B3A7640000 PUSH2 0x4ED7 JUMP JUMPDEST PUSH2 0x35D0 SWAP2 SWAP1 PUSH2 0x4EEE JUMP JUMPDEST PUSH1 0x1B SLOAD PUSH1 0x1 PUSH1 0x1 PUSH1 0xA0 SHL SUB DUP9 AND PUSH0 SWAP1 DUP2 MSTORE PUSH1 0x20 DUP1 MSTORE PUSH1 0x40 DUP2 KECCAK256 SLOAD SWAP3 SWAP4 POP SWAP2 PUSH9 0x56BC75E2D63100000 SWAP2 DUP5 SWAP2 PUSH2 0x3605 SWAP2 SWAP1 PUSH2 0x4ED7 JUMP JUMPDEST PUSH2 0x360F SWAP2 SWAP1 PUSH2 0x4ED7 JUMP JUMPDEST PUSH2 0x3619 SWAP2 SWAP1 PUSH2 0x4EEE JUMP JUMPDEST PUSH1 0x1 PUSH1 0x1 PUSH1 0xA0 SHL SUB DUP9 AND PUSH0 SWAP1 DUP2 MSTORE PUSH1 0x20 DUP1 MSTORE PUSH1 0x40 SWAP1 KECCAK256 SLOAD SWAP1 SWAP2 POP DUP2 LT PUSH2 0x363F JUMPI PUSH0 PUSH2 0x3661 JUMP JUMPDEST PUSH1 0x1 PUSH1 0x1 PUSH1 0xA0 SHL SUB DUP8 AND PUSH0 SWAP1 DUP2 MSTORE PUSH1 0x20 DUP1 MSTORE PUSH1 0x40 SWAP1 KECCAK256 SLOAD PUSH2 0x3661 SWAP1 DUP3 SWAP1 PUSH2 0x4F0D JUMP JUMPDEST SWAP8 SWAP7 POP POP POP POP POP POP POP JUMP JUMPDEST PUSH1 0x23 PUSH1 0x20 MSTORE PUSH0 SWAP1 DUP2 MSTORE PUSH1 0x40 SWAP1 KECCAK256 DUP1 SLOAD PUSH1 0x1 DUP3 ADD SLOAD PUSH1 0x2 DUP4 ADD DUP1 SLOAD SWAP3 SWAP4 SWAP2 SWAP3 PUSH2 0x3693 SWAP1 PUSH2 0x4E78 JUMP JUMPDEST DUP1 PUSH1 0x1F ADD PUSH1 0x20 DUP1 SWAP2 DIV MUL PUSH1 0x20 ADD PUSH1 0x40 MLOAD SWAP1 DUP2 ADD PUSH1 0x40 MSTORE DUP1 SWAP3 SWAP2 SWAP1 DUP2 DUP2 MSTORE PUSH1 0x20 ADD DUP3 DUP1 SLOAD PUSH2 0x36BF SWAP1 PUSH2 0x4E78 JUMP JUMPDEST DUP1 ISZERO PUSH2 0x370A JUMPI DUP1 PUSH1 0x1F LT PUSH2 0x36E1 JUMPI PUSH2 0x100 DUP1 DUP4 SLOAD DIV MUL DUP4 MSTORE SWAP2 PUSH1 0x20 ADD SWAP2 PUSH2 0x370A JUMP JUMPDEST DUP3 ADD SWAP2 SWAP1 PUSH0 MSTORE PUSH1 0x20 PUSH0 KECCAK256 SWAP1 JUMPDEST DUP2 SLOAD DUP2 MSTORE SWAP1 PUSH1 0x1 ADD SWAP1 PUSH1 0x20 ADD DUP1 DUP4 GT PUSH2 0x36ED JUMPI DUP3 SWAP1 SUB PUSH1 0x1F AND DUP3 ADD SWAP2 JUMPDEST POP POP POP POP POP SWAP1 POP DUP4 JUMP JUMPDEST PUSH2 0x371C PUSH2 0x3E3A JUMP JUMPDEST PUSH1 0x9 SLOAD PUSH3 0x10000 SWAP1 DIV PUSH1 0xFF AND ISZERO PUSH2 0x3746 JUMPI PUSH1 0x40 MLOAD PUSH4 0xAB35696F PUSH1 0xE0 SHL DUP2 MSTORE PUSH1 0x4 ADD PUSH1 0x40 MLOAD DUP1 SWAP2 SUB SWAP1 REVERT JUMPDEST CALLER PUSH0 SWAP1 DUP2 MSTORE PUSH1 0x29 PUSH1 0x20 MSTORE PUSH1 0x40 SWAP1 KECCAK256 PUSH1 0x3 DUP2 ADD SLOAD PUSH1 0xFF AND PUSH2 0x3779 JUMPI PUSH1 0x40 MLOAD PUSH4 0x7D9A44A1 PUSH1 0xE1 SHL DUP2 MSTORE PUSH1 0x4 ADD PUSH1 0x40 MLOAD DUP1 SWAP2 SUB SWAP1 REVERT JUMPDEST DUP2 PUSH0 SUB PUSH2 0x3799 JUMPI PUSH1 0x40 MLOAD PUSH4 0x65E52D51 PUSH1 0xE1 SHL DUP2 MSTORE PUSH1 0x4 ADD PUSH1 0x40 MLOAD DUP1 SWAP2 SUB SWAP1 REVERT JUMPDEST PUSH2 0x37A2 CALLER PUSH2 0x34DC JUMP JUMPDEST DUP3 GT ISZERO PUSH2 0x37C2 JUMPI PUSH1 0x40 MLOAD PUSH4 0x87D5B4FB PUSH1 0xE0 SHL DUP2 MSTORE PUSH1 0x4 ADD PUSH1 0x40 MLOAD DUP1 SWAP2 SUB SWAP1 REVERT JUMPDEST DUP1 SLOAD PUSH2 0x37D0 SWAP1 PUSH1 0xA SWAP1 PUSH2 0x4EEE JUMP JUMPDEST DUP3 GT ISZERO PUSH2 0x37F0 JUMPI PUSH1 0x40 MLOAD PUSH4 0x11C2AB1F PUSH1 0xE3 SHL DUP2 MSTORE PUSH1 0x4 ADD PUSH1 0x40 MLOAD DUP1 SWAP2 SUB SWAP1 REVERT JUMPDEST PUSH2 0x37F9 CALLER PUSH2 0x27D3 JUMP JUMPDEST PUSH0 PUSH2 0x3803 CALLER PUSH2 0x3DDA JUMP JUMPDEST POP SWAP1 POP PUSH1 0x19 SLOAD DUP2 PUSH2 0x3814 SWAP2 SWAP1 PUSH2 0x4EC4 JUMP JUMPDEST TIMESTAMP LT ISZERO PUSH2 0x3834 JUMPI PUSH1 0x40 MLOAD PUSH4 0x1878F081 PUSH1 0xE0 SHL DUP2 MSTORE PUSH1 0x4 ADD PUSH1 0x40 MLOAD DUP1 SWAP2 SUB SWAP1 REVERT JUMPDEST DUP3 DUP3 PUSH1 0x2 ADD PUSH0 DUP3 DUP3 SLOAD PUSH2 0x3847 SWAP2 SWAP1 PUSH2 0x4EC4 JUMP JUMPDEST SWAP1 SWAP2 SSTORE POP POP PUSH1 0x40 MLOAD DUP4 DUP2 MSTORE CALLER SWAP1 PUSH32 0x4A35C8FDE6484ACA5E3C4FD515E9314CA9F4A57266CDEF7622CAC399F20AC32A SWAP1 PUSH1 0x20 ADD PUSH1 0x40 MLOAD DUP1 SWAP2 SUB SWAP1 LOG2 POP POP PUSH2 0x13F6 PUSH1 0x1 PUSH1 0x5 SSTORE JUMP JUMPDEST PUSH1 0x1 PUSH0 DUP3 DUP2 JUMPDEST DUP2 DUP2 LT ISZERO PUSH2 0x3975 JUMPI PUSH0 DUP7 DUP7 DUP4 DUP2 DUP2 LT PUSH2 0x38AE JUMPI PUSH2 0x38AE PUSH2 0x4FD4 JUMP JUMPDEST SWAP1 POP PUSH1 0x20 MUL ADD PUSH1 0x20 DUP2 ADD SWAP1 PUSH2 0x38C3 SWAP2 SWAP1 PUSH2 0x4A4F JUMP JUMPDEST SWAP1 POP PUSH1 0x1 PUSH1 0x1 PUSH1 0xA0 SHL SUB DUP2 AND PUSH2 0x38EC JUMPI PUSH1 0x40 MLOAD PUSH4 0xE6C4247B PUSH1 0xE0 SHL DUP2 MSTORE PUSH1 0x4 ADD PUSH1 0x40 MLOAD DUP1 SWAP2 SUB SWAP1 REVERT JUMPDEST PUSH0 PUSH2 0x38F6 DUP3 PUSH2 0x34DC JUMP JUMPDEST SWAP1 POP PUSH2 0x3902 DUP2 DUP7 PUSH2 0x4EC4 JUMP JUMPDEST PUSH1 0x1 PUSH1 0x1 PUSH1 0xA0 SHL SUB DUP4 AND PUSH0 SWAP1 DUP2 MSTORE PUSH1 0x20 DUP1 MSTORE PUSH1 0x40 SWAP1 KECCAK256 SLOAD SWAP1 SWAP6 POP ISZERO DUP1 ISZERO SWAP1 PUSH2 0x3928 JUMPI POP DUP1 ISZERO JUMPDEST DUP1 ISZERO PUSH2 0x3953 JUMPI POP PUSH1 0x1 PUSH1 0x1 PUSH1 0xA0 SHL SUB DUP3 AND PUSH0 SWAP1 DUP2 MSTORE PUSH1 0x25 PUSH1 0x20 MSTORE PUSH1 0x40 SWAP1 KECCAK256 SLOAD PUSH1 0x1 PUSH1 0x1 PUSH1 0x80 SHL SUB AND TIMESTAMP LT JUMPDEST ISZERO PUSH2 0x3962 JUMPI PUSH0 SWAP6 POP POP POP PUSH2 0x3975 JUMP JUMPDEST POP POP DUP1 PUSH2 0x396E SWAP1 PUSH2 0x4FE8 JUMP JUMPDEST SWAP1 POP PUSH2 0x3893 JUMP JUMPDEST POP POP SWAP3 POP SWAP3 SWAP1 POP JUMP JUMPDEST PUSH1 0x9 SLOAD PUSH3 0x10000 SWAP1 DIV PUSH1 0xFF AND ISZERO PUSH2 0x39A8 JUMPI PUSH1 0x40 MLOAD PUSH4 0xAB35696F PUSH1 0xE0 SHL DUP2 MSTORE PUSH1 0x4 ADD PUSH1 0x40 MLOAD DUP1 SWAP2 SUB SWAP1 REVERT JUMPDEST PUSH10 0x152D02C7E14AF6800000 PUSH2 0x39BC CALLER PUSH2 0x34DC JUMP JUMPDEST LT ISZERO PUSH2 0x39DB JUMPI PUSH1 0x40 MLOAD PUSH4 0x1E9ACF17 PUSH1 0xE3 SHL DUP2 MSTORE PUSH1 0x4 ADD PUSH1 0x40 MLOAD DUP1 SWAP2 SUB SWAP1 REVERT JUMPDEST CALLER PUSH0 SWAP1 DUP2 MSTORE PUSH1 0x8 PUSH1 0x20 MSTORE PUSH1 0x40 SWAP1 KECCAK256 SLOAD PUSH2 0x39F8 SWAP1 PUSH3 0x278D00 SWAP1 PUSH2 0x4EC4 JUMP JUMPDEST TIMESTAMP LT ISZERO PUSH2 0x3A18 JUMPI PUSH1 0x40 MLOAD PUSH4 0xFD7AF65F PUSH1 0xE0 SHL DUP2 MSTORE PUSH1 0x4 ADD PUSH1 0x40 MLOAD DUP1 SWAP2 SUB SWAP1 REVERT JUMPDEST PUSH1 0x2 DUP2 PUSH1 0xB DUP2 GT ISZERO PUSH2 0x3A2C JUMPI PUSH2 0x3A2C PUSH2 0x4AC2 JUMP JUMPDEST EQ DUP1 PUSH2 0x3A49 JUMPI POP PUSH1 0x5 DUP2 PUSH1 0xB DUP2 GT ISZERO PUSH2 0x3A47 JUMPI PUSH2 0x3A47 PUSH2 0x4AC2 JUMP JUMPDEST EQ JUMPDEST PUSH2 0x3A67 JUMPI DUP3 ISZERO DUP1 ISZERO PUSH2 0x3A62 JUMPI POP PUSH1 0x1 PUSH1 0x1 PUSH1 0xA0 SHL SUB DUP3 AND ISZERO JUMPDEST PUSH2 0x3A6B JUMP JUMPDEST DUP4 MLOAD ISZERO JUMPDEST ISZERO PUSH2 0x3A89 JUMPI PUSH1 0x40 MLOAD PUSH4 0x37AD5983 PUSH1 0xE0 SHL DUP2 MSTORE PUSH1 0x4 ADD PUSH1 0x40 MLOAD DUP1 SWAP2 SUB SWAP1 REVERT JUMPDEST PUSH1 0x16 PUSH0 DUP2 SLOAD PUSH2 0x3A97 SWAP1 PUSH2 0x4FE8 JUMP JUMPDEST SWAP1 SWAP2 SSTORE POP PUSH1 0x16 SLOAD PUSH0 DUP2 DUP2 MSTORE PUSH1 0x24 PUSH1 0x20 MSTORE PUSH1 0x40 SWAP1 KECCAK256 SWAP1 DUP2 SSTORE PUSH1 0x6 DUP2 ADD DUP1 SLOAD PUSH1 0x1 PUSH1 0x1 PUSH1 0xA0 SHL SUB NOT AND CALLER OR SWAP1 SSTORE PUSH1 0x8 DUP2 ADD PUSH2 0x3AD0 DUP7 DUP3 PUSH2 0x50C3 JUMP JUMPDEST POP PUSH1 0x3 DUP2 ADD DUP5 SWAP1 SSTORE PUSH1 0x7 DUP2 ADD DUP1 SLOAD PUSH1 0x1 PUSH1 0x1 PUSH1 0xA0 SHL SUB NOT AND PUSH1 0x1 PUSH1 0x1 PUSH1 0xA0 SHL SUB DUP6 AND OR SWAP1 SSTORE PUSH1 0x9 DUP2 ADD DUP1 SLOAD DUP4 SWAP2 SWAP1 PUSH1 0xFF NOT AND PUSH1 0x1 DUP4 PUSH1 0xB DUP2 GT ISZERO PUSH2 0x3B16 JUMPI PUSH2 0x3B16 PUSH2 0x4AC2 JUMP JUMPDEST MUL OR SWAP1 SSTORE POP TIMESTAMP PUSH1 0x1 DUP3 ADD DUP2 SWAP1 SSTORE PUSH2 0x3B31 SWAP1 PUSH3 0x93A80 SWAP1 PUSH2 0x4EC4 JUMP JUMPDEST PUSH1 0x2 DUP3 ADD SSTORE CALLER PUSH0 DUP2 DUP2 MSTORE PUSH1 0x8 PUSH1 0x20 MSTORE PUSH1 0x40 SWAP1 DUP2 SWAP1 KECCAK256 TIMESTAMP SWAP1 SSTORE DUP3 SLOAD SWAP1 MLOAD PUSH32 0x64147B1D4B260DDD199F9E9A7C1D4E444605245A354C18A74FDCC8E9004DA33E SWAP1 PUSH2 0x3B7C SWAP1 DUP10 SWAP1 DUP8 SWAP1 PUSH2 0x517F JUMP JUMPDEST PUSH1 0x40 MLOAD DUP1 SWAP2 SUB SWAP1 LOG3 POP POP POP POP POP JUMP JUMPDEST PUSH2 0x3B93 PUSH2 0x467F JUMP JUMPDEST PUSH1 0x1 PUSH1 0x1 PUSH1 0xA0 SHL SUB DUP2 AND PUSH2 0x3BBC JUMPI PUSH1 0x40 MLOAD PUSH4 0x1E4FBDF7 PUSH1 0xE0 SHL DUP2 MSTORE PUSH0 PUSH1 0x4 DUP3 ADD MSTORE PUSH1 0x24 ADD PUSH2 0x1528 JUMP JUMPDEST PUSH2 0x13F6 DUP2 PUSH2 0x46AC JUMP JUMPDEST PUSH1 0x9 SLOAD PUSH3 0x10000 SWAP1 DIV PUSH1 0xFF AND ISZERO PUSH2 0x3BEF JUMPI PUSH1 0x40 MLOAD PUSH4 0xAB35696F PUSH1 0xE0 SHL DUP2 MSTORE PUSH1 0x4 ADD PUSH1 0x40 MLOAD DUP1 SWAP2 SUB SWAP1 REVERT JUMPDEST PUSH0 DUP4 DUP2 MSTORE PUSH1 0x24 PUSH1 0x20 MSTORE PUSH1 0x40 DUP2 KECCAK256 PUSH1 0x1 DUP2 ADD SLOAD SWAP1 SWAP2 SUB PUSH2 0x3C21 JUMPI PUSH1 0x40 MLOAD PUSH4 0x6CE3C701 PUSH1 0xE1 SHL DUP2 MSTORE PUSH1 0x4 ADD PUSH1 0x40 MLOAD DUP1 SWAP2 SUB SWAP1 REVERT JUMPDEST DUP1 PUSH1 0x1 ADD SLOAD TIMESTAMP LT DUP1 PUSH2 0x3C36 JUMPI POP DUP1 PUSH1 0x2 ADD SLOAD TIMESTAMP GT JUMPDEST ISZERO PUSH2 0x3C54 JUMPI PUSH1 0x40 MLOAD PUSH4 0x2DFA5C9B PUSH1 0xE0 SHL DUP2 MSTORE PUSH1 0x4 ADD PUSH1 0x40 MLOAD DUP1 SWAP2 SUB SWAP1 REVERT JUMPDEST CALLER PUSH0 SWAP1 DUP2 MSTORE PUSH1 0xA DUP3 ADD PUSH1 0x20 MSTORE PUSH1 0x40 SWAP1 KECCAK256 SLOAD PUSH1 0xFF AND ISZERO PUSH2 0x3C86 JUMPI PUSH1 0x40 MLOAD PUSH4 0x7C9A1CF9 PUSH1 0xE0 SHL DUP2 MSTORE PUSH1 0x4 ADD PUSH1 0x40 MLOAD DUP1 SWAP2 SUB SWAP1 REVERT JUMPDEST PUSH1 0x9 DUP2 ADD SLOAD PUSH2 0x100 SWAP1 DIV PUSH1 0xFF AND ISZERO PUSH2 0x3CB1 JUMPI PUSH1 0x40 MLOAD PUSH4 0xCF88C657 PUSH1 0xE0 SHL DUP2 MSTORE PUSH1 0x4 ADD PUSH1 0x40 MLOAD DUP1 SWAP2 SUB SWAP1 REVERT JUMPDEST PUSH1 0x40 DUP1 MLOAD DUP5 ISZERO ISZERO PUSH1 0x20 DUP3 ADD MSTORE SWAP1 DUP2 ADD DUP4 SWAP1 MSTORE CALLER PUSH1 0x60 DUP3 ADD MSTORE PUSH1 0x80 ADD PUSH1 0x40 DUP1 MLOAD PUSH1 0x1F NOT DUP2 DUP5 SUB ADD DUP2 MSTORE SWAP2 DUP2 MSTORE DUP2 MLOAD PUSH1 0x20 SWAP3 DUP4 ADD KECCAK256 CALLER PUSH0 SWAP1 DUP2 MSTORE PUSH1 0xB DUP6 ADD SWAP1 SWAP4 MSTORE SWAP2 KECCAK256 SLOAD EQ PUSH2 0x3D11 JUMPI PUSH1 0x40 MLOAD PUSH4 0xB7B33787 PUSH1 0xE0 SHL DUP2 MSTORE PUSH1 0x4 ADD PUSH1 0x40 MLOAD DUP1 SWAP2 SUB SWAP1 REVERT JUMPDEST PUSH2 0x3D1A CALLER PUSH2 0x27D3 JUMP JUMPDEST PUSH0 PUSH2 0x3D24 CALLER PUSH2 0x34DC JUMP JUMPDEST SWAP1 POP DUP1 PUSH0 SUB PUSH2 0x3D46 JUMPI PUSH1 0x40 MLOAD PUSH4 0xE1000181 PUSH1 0xE0 SHL DUP2 MSTORE PUSH1 0x4 ADD PUSH1 0x40 MLOAD DUP1 SWAP2 SUB SWAP1 REVERT JUMPDEST CALLER PUSH0 SWAP1 DUP2 MSTORE PUSH1 0xA DUP4 ADD PUSH1 0x20 MSTORE PUSH1 0x40 SWAP1 KECCAK256 DUP1 SLOAD PUSH1 0xFF NOT AND PUSH1 0x1 OR SWAP1 SSTORE DUP4 ISZERO PUSH2 0x3D85 JUMPI DUP1 DUP3 PUSH1 0x4 ADD PUSH0 DUP3 DUP3 SLOAD PUSH2 0x3D7A SWAP2 SWAP1 PUSH2 0x4EC4 JUMP JUMPDEST SWAP1 SWAP2 SSTORE POP PUSH2 0x3D9E SWAP1 POP JUMP JUMPDEST DUP1 DUP3 PUSH1 0x5 ADD PUSH0 DUP3 DUP3 SLOAD PUSH2 0x3D98 SWAP2 SWAP1 PUSH2 0x4EC4 JUMP JUMPDEST SWAP1 SWAP2 SSTORE POP POP JUMPDEST PUSH1 0x40 DUP1 MLOAD DUP6 ISZERO ISZERO DUP2 MSTORE PUSH1 0x20 DUP2 ADD DUP4 SWAP1 MSTORE CALLER SWAP2 DUP8 SWAP2 PUSH32 0x96B7E5DBD1A0BB4B34731D1DFCE6EA83EAB3FADBF4710C77AD43106F771F90FB SWAP2 ADD PUSH2 0x3B7C JUMP JUMPDEST PUSH1 0x1 PUSH1 0x1 PUSH1 0xA0 SHL SUB AND PUSH0 SWAP1 DUP2 MSTORE PUSH1 0x25 PUSH1 0x20 SWAP1 DUP2 MSTORE PUSH1 0x40 SWAP2 DUP3 SWAP1 KECCAK256 DUP3 MLOAD DUP1 DUP5 ADD SWAP1 SWAP4 MSTORE DUP1 SLOAD DUP1 DUP5 MSTORE PUSH1 0x1 SWAP1 SWAP2 ADD SLOAD PUSH1 0xFF AND ISZERO ISZERO SWAP3 SWAP1 SWAP2 ADD SWAP2 SWAP1 SWAP2 MSTORE PUSH1 0x80 DUP2 SWAP1 SHR SWAP2 PUSH1 0x1 PUSH1 0x1 PUSH1 0x80 SHL SUB SWAP1 SWAP2 AND SWAP1 JUMP JUMPDEST PUSH2 0x3E35 DUP4 DUP4 DUP4 PUSH1 0x1 PUSH2 0x470A JUMP JUMPDEST POP POP POP JUMP JUMPDEST PUSH1 0x2 PUSH1 0x5 SLOAD SUB PUSH2 0x3E5D JUMPI PUSH1 0x40 MLOAD PUSH4 0x3EE5AEB5 PUSH1 0xE0 SHL DUP2 MSTORE PUSH1 0x4 ADD PUSH1 0x40 MLOAD DUP1 SWAP2 SUB SWAP1 REVERT JUMPDEST PUSH1 0x2 PUSH1 0x5 SSTORE JUMP JUMPDEST PUSH1 0x40 DUP1 MLOAD PUSH1 0x1 PUSH1 0x1 PUSH1 0xA0 SHL SUB DUP5 AND PUSH1 0x24 DUP3 ADD MSTORE PUSH1 0x44 DUP1 DUP3 ADD DUP5 SWAP1 MSTORE DUP3 MLOAD DUP1 DUP4 SUB SWAP1 SWAP2 ADD DUP2 MSTORE PUSH1 0x64 SWAP1 SWAP2 ADD SWAP1 SWAP2 MSTORE PUSH1 0x20 DUP2 ADD DUP1 MLOAD PUSH1 0x1 PUSH1 0x1 PUSH1 0xE0 SHL SUB AND PUSH4 0xA9059CBB PUSH1 0xE0 SHL OR SWAP1 MSTORE PUSH2 0x3E35 SWAP1 DUP5 SWAP1 PUSH2 0x47DC JUMP JUMPDEST PUSH1 0x1D SLOAD PUSH1 0x1 PUSH1 0x1 PUSH1 0xA0 SHL SUB AND CALLER EQ PUSH2 0x3EE1 JUMPI PUSH1 0x40 MLOAD PUSH4 0xEA8E4EB5 PUSH1 0xE0 SHL DUP2 MSTORE PUSH1 0x4 ADD PUSH1 0x40 MLOAD DUP1 SWAP2 SUB SWAP1 REVERT JUMPDEST PUSH1 0x2 DUP4 PUSH1 0xB DUP2 GT ISZERO PUSH2 0x3EF5 JUMPI PUSH2 0x3EF5 PUSH2 0x4AC2 JUMP JUMPDEST SUB PUSH2 0x3F1C JUMPI PUSH1 0x9 DUP1 SLOAD PUSH3 0xFF0000 NOT DUP2 AND PUSH3 0x10000 SWAP2 DUP3 SWAP1 DIV PUSH1 0xFF AND ISZERO SWAP1 SWAP2 MUL OR SWAP1 SSTORE PUSH2 0x41DD JUMP JUMPDEST PUSH0 DUP4 PUSH1 0xB DUP2 GT ISZERO PUSH2 0x3F2F JUMPI PUSH2 0x3F2F PUSH2 0x4AC2 JUMP JUMPDEST SUB PUSH2 0x3F88 JUMPI DUP2 ISZERO DUP1 PUSH2 0x3F60 JUMPI POP PUSH32 0x0 DUP3 GT JUMPDEST ISZERO PUSH2 0x3F7E JUMPI PUSH1 0x40 MLOAD PUSH4 0x2075CC1 PUSH1 0xE4 SHL DUP2 MSTORE PUSH1 0x4 ADD PUSH1 0x40 MLOAD DUP1 SWAP2 SUB SWAP1 REVERT JUMPDEST PUSH1 0xF DUP3 SWAP1 SSTORE PUSH2 0x41DD JUMP JUMPDEST PUSH1 0x1 DUP4 PUSH1 0xB DUP2 GT ISZERO PUSH2 0x3F9C JUMPI PUSH2 0x3F9C PUSH2 0x4AC2 JUMP JUMPDEST SUB PUSH2 0x3FD6 JUMPI DUP2 ISZERO DUP1 PUSH2 0x3FAE JUMPI POP PUSH1 0x64 DUP3 GT JUMPDEST ISZERO PUSH2 0x3FCC JUMPI PUSH1 0x40 MLOAD PUSH4 0x8AF88A1 PUSH1 0xE2 SHL DUP2 MSTORE PUSH1 0x4 ADD PUSH1 0x40 MLOAD DUP1 SWAP2 SUB SWAP1 REVERT JUMPDEST PUSH1 0x12 DUP3 SWAP1 SSTORE PUSH2 0x41DD JUMP JUMPDEST PUSH1 0x6 DUP4 PUSH1 0xB DUP2 GT ISZERO PUSH2 0x3FEA JUMPI PUSH2 0x3FEA PUSH2 0x4AC2 JUMP JUMPDEST SUB PUSH2 0x4029 JUMPI PUSH2 0x3E8 DUP3 LT DUP1 PUSH2 0x4001 JUMPI POP PUSH3 0x989680 DUP3 GT JUMPDEST ISZERO PUSH2 0x401F JUMPI PUSH1 0x40 MLOAD PUSH4 0x53A66D71 PUSH1 0xE0 SHL DUP2 MSTORE PUSH1 0x4 ADD PUSH1 0x40 MLOAD DUP1 SWAP2 SUB SWAP1 REVERT JUMPDEST PUSH1 0x19 DUP3 SWAP1 SSTORE PUSH2 0x41DD JUMP JUMPDEST PUSH1 0x7 DUP4 PUSH1 0xB DUP2 GT ISZERO PUSH2 0x403D JUMPI PUSH2 0x403D PUSH2 0x4AC2 JUMP JUMPDEST SUB PUSH2 0x407D JUMPI PUSH2 0x2710 DUP3 LT DUP1 PUSH2 0x4055 JUMPI POP PUSH4 0x5F5E100 DUP3 GT JUMPDEST ISZERO PUSH2 0x4073 JUMPI PUSH1 0x40 MLOAD PUSH4 0x4EE281D9 PUSH1 0xE0 SHL DUP2 MSTORE PUSH1 0x4 ADD PUSH1 0x40 MLOAD DUP1 SWAP2 SUB SWAP1 REVERT JUMPDEST PUSH1 0x1A DUP3 SWAP1 SSTORE PUSH2 0x41DD JUMP JUMPDEST PUSH1 0x8 DUP4 PUSH1 0xB DUP2 GT ISZERO PUSH2 0x4091 JUMPI PUSH2 0x4091 PUSH2 0x4AC2 JUMP JUMPDEST SUB PUSH2 0x40CB JUMPI DUP2 ISZERO DUP1 PUSH2 0x40A3 JUMPI POP PUSH1 0xA DUP3 GT JUMPDEST ISZERO PUSH2 0x40C1 JUMPI PUSH1 0x40 MLOAD PUSH4 0x5AC789E3 PUSH1 0xE0 SHL DUP2 MSTORE PUSH1 0x4 ADD PUSH1 0x40 MLOAD DUP1 SWAP2 SUB SWAP1 REVERT JUMPDEST PUSH1 0x1B DUP3 SWAP1 SSTORE PUSH2 0x41DD JUMP JUMPDEST PUSH1 0xB DUP4 PUSH1 0xB DUP2 GT ISZERO PUSH2 0x40DF JUMPI PUSH2 0x40DF PUSH2 0x4AC2 JUMP JUMPDEST SUB PUSH2 0x4119 JUMPI DUP2 ISZERO DUP1 PUSH2 0x40F1 JUMPI POP PUSH1 0x32 DUP3 GT JUMPDEST ISZERO PUSH2 0x410F JUMPI PUSH1 0x40 MLOAD PUSH4 0x11D148A5 PUSH1 0xE3 SHL DUP2 MSTORE PUSH1 0x4 ADD PUSH1 0x40 MLOAD DUP1 SWAP2 SUB SWAP1 REVERT JUMPDEST PUSH1 0x1C DUP3 SWAP1 SSTORE PUSH2 0x41DD JUMP JUMPDEST PUSH1 0x9 DUP4 PUSH1 0xB DUP2 GT ISZERO PUSH2 0x412D JUMPI PUSH2 0x412D PUSH2 0x4AC2 JUMP JUMPDEST SUB PUSH2 0x4191 JUMPI PUSH10 0xD3C21BCECCEDA1000000 DUP3 LT DUP1 PUSH2 0x4169 JUMPI POP PUSH32 0x0 DUP3 GT JUMPDEST ISZERO PUSH2 0x4187 JUMPI PUSH1 0x40 MLOAD PUSH4 0xE2D9BBFF PUSH1 0xE0 SHL DUP2 MSTORE PUSH1 0x4 ADD PUSH1 0x40 MLOAD DUP1 SWAP2 SUB SWAP1 REVERT JUMPDEST PUSH1 0x13 DUP3 SWAP1 SSTORE PUSH2 0x41DD JUMP JUMPDEST PUSH1 0xA DUP4 PUSH1 0xB DUP2 GT ISZERO PUSH2 0x41A5 JUMPI PUSH2 0x41A5 PUSH2 0x4AC2 JUMP JUMPDEST SUB PUSH2 0x41DD JUMPI PUSH1 0xA DUP3 LT DUP1 PUSH2 0x41B9 JUMPI POP PUSH1 0x5A DUP3 GT JUMPDEST ISZERO PUSH2 0x41D7 JUMPI PUSH1 0x40 MLOAD PUSH4 0x1F586735 PUSH1 0xE0 SHL DUP2 MSTORE PUSH1 0x4 ADD PUSH1 0x40 MLOAD DUP1 SWAP2 SUB SWAP1 REVERT JUMPDEST PUSH1 0x14 DUP3 SWAP1 SSTORE JUMPDEST DUP3 PUSH1 0xB DUP2 GT ISZERO PUSH2 0x41EF JUMPI PUSH2 0x41EF PUSH2 0x4AC2 JUMP JUMPDEST PUSH1 0x40 DUP1 MLOAD DUP5 DUP2 MSTORE PUSH1 0x1 PUSH1 0x1 PUSH1 0xA0 SHL SUB DUP5 AND PUSH1 0x20 DUP3 ADD MSTORE PUSH32 0xFC0390D67EBDC63D4AED005EA60C5ADC2F760DE6AD9846EDC5B471828A80DD48 SWAP2 ADD JUMPDEST PUSH1 0x40 MLOAD DUP1 SWAP2 SUB SWAP1 LOG2 POP POP POP JUMP JUMPDEST PUSH1 0x1 PUSH1 0x1 PUSH1 0xA0 SHL SUB DUP3 AND PUSH2 0x425F JUMPI PUSH1 0x40 MLOAD PUSH4 0x4B637E8F PUSH1 0xE1 SHL DUP2 MSTORE PUSH0 PUSH1 0x4 DUP3 ADD MSTORE PUSH1 0x24 ADD PUSH2 0x1528 JUMP JUMPDEST PUSH2 0x2059 DUP3 PUSH0 DUP4 PUSH2 0x4848 JUMP JUMPDEST PUSH1 0x2E SLOAD PUSH0 JUMPDEST DUP2 DUP2 LT ISZERO PUSH2 0x436F JUMPI DUP4 PUSH1 0x1 PUSH1 0x1 PUSH1 0xA0 SHL SUB AND PUSH1 0x2E DUP3 DUP2 SLOAD DUP2 LT PUSH2 0x4294 JUMPI PUSH2 0x4294 PUSH2 0x4FD4 JUMP JUMPDEST PUSH0 SWAP2 DUP3 MSTORE PUSH1 0x20 SWAP1 SWAP2 KECCAK256 ADD SLOAD PUSH1 0x1 PUSH1 0x1 PUSH1 0xA0 SHL SUB AND SUB PUSH2 0x435F JUMPI DUP3 PUSH0 SUB PUSH2 0x4359 JUMPI PUSH1 0x2E PUSH2 0x42C1 PUSH1 0x1 DUP5 PUSH2 0x4F0D JUMP JUMPDEST DUP2 SLOAD DUP2 LT PUSH2 0x42D1 JUMPI PUSH2 0x42D1 PUSH2 0x4FD4 JUMP JUMPDEST PUSH0 SWAP2 DUP3 MSTORE PUSH1 0x20 SWAP1 SWAP2 KECCAK256 ADD SLOAD PUSH1 0x2E DUP1 SLOAD PUSH1 0x1 PUSH1 0x1 PUSH1 0xA0 SHL SUB SWAP1 SWAP3 AND SWAP2 DUP4 SWAP1 DUP2 LT PUSH2 0x42FC JUMPI PUSH2 0x42FC PUSH2 0x4FD4 JUMP JUMPDEST SWAP1 PUSH0 MSTORE PUSH1 0x20 PUSH0 KECCAK256 ADD PUSH0 PUSH2 0x100 EXP DUP2 SLOAD DUP2 PUSH1 0x1 PUSH1 0x1 PUSH1 0xA0 SHL SUB MUL NOT AND SWAP1 DUP4 PUSH1 0x1 PUSH1 0x1 PUSH1 0xA0 SHL SUB AND MUL OR SWAP1 SSTORE POP PUSH1 0x2E DUP1 SLOAD DUP1 PUSH2 0x4338 JUMPI PUSH2 0x4338 PUSH2 0x51A0 JUMP JUMPDEST PUSH0 DUP3 DUP2 MSTORE PUSH1 0x20 SWAP1 KECCAK256 DUP2 ADD PUSH0 NOT SWAP1 DUP2 ADD DUP1 SLOAD PUSH1 0x1 PUSH1 0x1 PUSH1 0xA0 SHL SUB NOT AND SWAP1 SSTORE ADD SWAP1 SSTORE JUMPDEST POP POP POP POP JUMP JUMPDEST PUSH2 0x4368 DUP2 PUSH2 0x4FE8 JUMP JUMPDEST SWAP1 POP PUSH2 0x426F JUMP JUMPDEST POP DUP2 ISZERO DUP1 ISZERO SWAP1 PUSH2 0x437F JUMPI POP PUSH1 0xA DUP2 LT JUMPDEST ISZERO PUSH2 0x3E35 JUMPI PUSH1 0x2E DUP1 SLOAD PUSH1 0x1 DUP2 ADD DUP3 SSTORE PUSH0 SWAP2 SWAP1 SWAP2 MSTORE PUSH32 0x37FA166CBDBFBB1561CCD9EA985EC0218B5E68502E230525F544285B2BDF3D7E ADD DUP1 SLOAD PUSH1 0x1 PUSH1 0x1 PUSH1 0xA0 SHL SUB DUP6 AND PUSH1 0x1 PUSH1 0x1 PUSH1 0xA0 SHL SUB NOT SWAP1 SWAP2 AND OR SWAP1 SSTORE POP POP POP JUMP JUMPDEST PUSH0 CALLER PUSH2 0x43E2 DUP6 DUP3 DUP6 PUSH2 0x4961 JUMP JUMPDEST PUSH2 0x43ED DUP6 DUP6 DUP6 PUSH2 0x49D7 JUMP JUMPDEST POP PUSH1 0x1 SWAP5 SWAP4 POP POP POP POP JUMP JUMPDEST PUSH1 0x9 SLOAD PUSH2 0x100 SWAP1 DIV PUSH1 0xFF AND ISZERO DUP1 PUSH2 0x4424 JUMPI POP PUSH1 0x1 PUSH1 0x1 PUSH1 0xA0 SHL SUB DUP2 AND PUSH0 SWAP1 DUP2 MSTORE PUSH1 0x20 DUP1 MSTORE PUSH1 0x40 SWAP1 KECCAK256 SLOAD ISZERO ISZERO JUMPDEST DUP1 PUSH2 0x4444 JUMPI POP PUSH1 0x1 PUSH1 0x1 PUSH1 0xA0 SHL SUB DUP2 AND PUSH0 SWAP1 DUP2 MSTORE PUSH1 0x21 PUSH1 0x20 MSTORE PUSH1 0x40 SWAP1 KECCAK256 SLOAD ISZERO JUMPDEST ISZERO PUSH2 0x4462 JUMPI PUSH1 0x40 MLOAD PUSH4 0x54D87237 PUSH1 0xE0 SHL DUP2 MSTORE PUSH1 0x4 ADD PUSH1 0x40 MLOAD DUP1 SWAP2 SUB SWAP1 REVERT JUMPDEST PUSH32 0x0 PUSH1 0xB SLOAD GT ISZERO PUSH2 0x44A5 JUMPI PUSH1 0x40 MLOAD PUSH4 0x87D5B4FB PUSH1 0xE0 SHL DUP2 MSTORE PUSH1 0x4 ADD PUSH1 0x40 MLOAD DUP1 SWAP2 SUB SWAP1 REVERT JUMPDEST PUSH1 0x1 PUSH1 0x1 PUSH1 0xA0 SHL SUB DUP2 AND PUSH0 SWAP1 DUP2 MSTORE PUSH1 0x21 PUSH1 0x20 MSTORE PUSH1 0x40 DUP2 KECCAK256 SLOAD PUSH32 0x0 SWAP1 PUSH2 0x44F6 SWAP1 PUSH12 0x33B2E3C9FD0803CE8000000 SWAP1 PUSH2 0x4ED7 JUMP JUMPDEST PUSH2 0x4500 SWAP2 SWAP1 PUSH2 0x4EEE JUMP JUMPDEST SWAP1 POP PUSH2 0x3E8 PUSH1 0x10 SLOAD LT ISZERO PUSH2 0x4544 JUMPI PUSH1 0x64 PUSH2 0x451B PUSH1 0xA DUP4 PUSH2 0x4ED7 JUMP JUMPDEST PUSH2 0x4525 SWAP2 SWAP1 PUSH2 0x4EEE JUMP JUMPDEST PUSH2 0x452F SWAP1 DUP3 PUSH2 0x4EC4 JUMP JUMPDEST SWAP1 POP PUSH1 0x10 PUSH0 DUP2 SLOAD PUSH2 0x453F SWAP1 PUSH2 0x4FE8 JUMP JUMPDEST SWAP1 SWAP2 SSTORE POP JUMPDEST DUP1 PUSH0 SUB PUSH2 0x4564 JUMPI PUSH1 0x40 MLOAD PUSH4 0x374C9343 PUSH1 0xE1 SHL DUP2 MSTORE PUSH1 0x4 ADD PUSH1 0x40 MLOAD DUP1 SWAP2 SUB SWAP1 REVERT JUMPDEST PUSH1 0x1 PUSH1 0x1 PUSH1 0xA0 SHL SUB DUP1 DUP4 AND PUSH0 SWAP1 DUP2 MSTORE PUSH1 0x22 PUSH1 0x20 MSTORE PUSH1 0x40 SWAP1 KECCAK256 SLOAD AND DUP1 ISZERO PUSH2 0x45ED JUMPI PUSH0 PUSH1 0x64 PUSH2 0x4592 PUSH1 0x5 DUP6 PUSH2 0x4ED7 JUMP JUMPDEST PUSH2 0x459C SWAP2 SWAP1 PUSH2 0x4EEE JUMP JUMPDEST SWAP1 POP PUSH2 0x45A8 DUP3 DUP3 PUSH2 0x464B JUMP JUMPDEST DUP2 PUSH1 0x1 PUSH1 0x1 PUSH1 0xA0 SHL SUB AND PUSH32 0x50BAE3EEEFAC62A4EE36C766F4F426F09EDF96AE8FB3034EBBF961E4ACC78E2 DUP3 PUSH1 0x40 MLOAD PUSH2 0x45E3 SWAP2 DUP2 MSTORE PUSH1 0x20 ADD SWAP1 JUMP JUMPDEST PUSH1 0x40 MLOAD DUP1 SWAP2 SUB SWAP1 LOG2 POP JUMPDEST PUSH1 0x1 PUSH1 0x1 PUSH1 0xA0 SHL SUB DUP4 AND PUSH0 SWAP1 DUP2 MSTORE PUSH1 0x20 DUP1 MSTORE PUSH1 0x40 SWAP1 KECCAK256 DUP3 SWAP1 SSTORE PUSH2 0x4610 DUP4 DUP4 PUSH2 0x464B JUMP JUMPDEST DUP3 PUSH1 0x1 PUSH1 0x1 PUSH1 0xA0 SHL SUB AND PUSH32 0xB60CCDAD08A990849494CADC2278B346A8742FB757E67C422F71E3E64FB77B45 DUP4 PUSH1 0x40 MLOAD PUSH2 0x4229 SWAP2 DUP2 MSTORE PUSH1 0x20 ADD SWAP1 JUMP JUMPDEST PUSH1 0x1 PUSH1 0x1 PUSH1 0xA0 SHL SUB DUP3 AND PUSH2 0x4674 JUMPI PUSH1 0x40 MLOAD PUSH4 0xEC442F05 PUSH1 0xE0 SHL DUP2 MSTORE PUSH0 PUSH1 0x4 DUP3 ADD MSTORE PUSH1 0x24 ADD PUSH2 0x1528 JUMP JUMPDEST PUSH2 0x2059 PUSH0 DUP4 DUP4 PUSH2 0x4848 JUMP JUMPDEST PUSH1 0x6 SLOAD PUSH1 0x1 PUSH1 0x1 PUSH1 0xA0 SHL SUB AND CALLER EQ PUSH2 0x166E JUMPI PUSH1 0x40 MLOAD PUSH4 0x118CDAA7 PUSH1 0xE0 SHL DUP2 MSTORE CALLER PUSH1 0x4 DUP3 ADD MSTORE PUSH1 0x24 ADD PUSH2 0x1528 JUMP JUMPDEST PUSH1 0x6 DUP1 SLOAD PUSH1 0x1 PUSH1 0x1 PUSH1 0xA0 SHL SUB DUP4 DUP2 AND PUSH1 0x1 PUSH1 0x1 PUSH1 0xA0 SHL SUB NOT DUP4 AND DUP2 OR SWAP1 SWAP4 SSTORE PUSH1 0x40 MLOAD SWAP2 AND SWAP2 SWAP1 DUP3 SWAP1 PUSH32 0x8BE0079C531659141344CD1FD0A4F28419497F9722A3DAAFE3B4186F6B6457E0 SWAP1 PUSH0 SWAP1 LOG3 POP POP JUMP JUMPDEST PUSH0 CALLER PUSH2 0xEF7 DUP2 DUP6 DUP6 PUSH2 0x49D7 JUMP JUMPDEST PUSH1 0x1 PUSH1 0x1 PUSH1 0xA0 SHL SUB DUP5 AND PUSH2 0x4733 JUMPI PUSH1 0x40 MLOAD PUSH4 0xE602DF05 PUSH1 0xE0 SHL DUP2 MSTORE PUSH0 PUSH1 0x4 DUP3 ADD MSTORE PUSH1 0x24 ADD PUSH2 0x1528 JUMP JUMPDEST PUSH1 0x1 PUSH1 0x1 PUSH1 0xA0 SHL SUB DUP4 AND PUSH2 0x475C JUMPI PUSH1 0x40 MLOAD PUSH4 0x4A1406B1 PUSH1 0xE1 SHL DUP2 MSTORE PUSH0 PUSH1 0x4 DUP3 ADD MSTORE PUSH1 0x24 ADD PUSH2 0x1528 JUMP JUMPDEST PUSH1 0x1 PUSH1 0x1 PUSH1 0xA0 SHL SUB DUP1 DUP6 AND PUSH0 SWAP1 DUP2 MSTORE PUSH1 0x1 PUSH1 0x20 SWAP1 DUP2 MSTORE PUSH1 0x40 DUP1 DUP4 KECCAK256 SWAP4 DUP8 AND DUP4 MSTORE SWAP3 SWAP1 MSTORE KECCAK256 DUP3 SWAP1 SSTORE DUP1 ISZERO PUSH2 0x4359 JUMPI DUP3 PUSH1 0x1 PUSH1 0x1 PUSH1 0xA0 SHL SUB AND DUP5 PUSH1 0x1 PUSH1 0x1 PUSH1 0xA0 SHL SUB AND PUSH32 0x8C5BE1E5EBEC7D5BD14F71427D1E84F3DD0314C0F7B2291E5B200AC8C7C3B925 DUP5 PUSH1 0x40 MLOAD PUSH2 0x47CE SWAP2 DUP2 MSTORE PUSH1 0x20 ADD SWAP1 JUMP JUMPDEST PUSH1 0x40 MLOAD DUP1 SWAP2 SUB SWAP1 LOG3 POP POP POP POP JUMP JUMPDEST PUSH0 DUP1 PUSH1 0x20 PUSH0 DUP5 MLOAD PUSH1 0x20 DUP7 ADD PUSH0 DUP9 GAS CALL DUP1 PUSH2 0x47FB JUMPI PUSH1 0x40 MLOAD RETURNDATASIZE PUSH0 DUP3 RETURNDATACOPY RETURNDATASIZE DUP2 REVERT JUMPDEST POP POP PUSH0 MLOAD RETURNDATASIZE SWAP2 POP DUP2 ISZERO PUSH2 0x4812 JUMPI DUP1 PUSH1 0x1 EQ ISZERO PUSH2 0x481F JUMP JUMPDEST PUSH1 0x1 PUSH1 0x1 PUSH1 0xA0 SHL SUB DUP5 AND EXTCODESIZE ISZERO JUMPDEST ISZERO PUSH2 0x4359 JUMPI PUSH1 0x40 MLOAD PUSH4 0x5274AFE7 PUSH1 0xE0 SHL DUP2 MSTORE PUSH1 0x1 PUSH1 0x1 PUSH1 0xA0 SHL SUB DUP6 AND PUSH1 0x4 DUP3 ADD MSTORE PUSH1 0x24 ADD PUSH2 0x1528 JUMP JUMPDEST PUSH1 0x1 PUSH1 0x1 PUSH1 0xA0 SHL SUB DUP4 AND PUSH2 0x4872 JUMPI DUP1 PUSH1 0x2 PUSH0 DUP3 DUP3 SLOAD PUSH2 0x4867 SWAP2 SWAP1 PUSH2 0x4EC4 JUMP JUMPDEST SWAP1 SWAP2 SSTORE POP PUSH2 0x48E2 SWAP1 POP JUMP JUMPDEST PUSH1 0x1 PUSH1 0x1 PUSH1 0xA0 SHL SUB DUP4 AND PUSH0 SWAP1 DUP2 MSTORE PUSH1 0x20 DUP2 SWAP1 MSTORE PUSH1 0x40 SWAP1 KECCAK256 SLOAD DUP2 DUP2 LT ISZERO PUSH2 0x48C4 JUMPI PUSH1 0x40 MLOAD PUSH4 0x391434E3 PUSH1 0xE2 SHL DUP2 MSTORE PUSH1 0x1 PUSH1 0x1 PUSH1 0xA0 SHL SUB DUP6 AND PUSH1 0x4 DUP3 ADD MSTORE PUSH1 0x24 DUP2 ADD DUP3 SWAP1 MSTORE PUSH1 0x44 DUP2 ADD DUP4 SWAP1 MSTORE PUSH1 0x64 ADD PUSH2 0x1528 JUMP JUMPDEST PUSH1 0x1 PUSH1 0x1 PUSH1 0xA0 SHL SUB DUP5 AND PUSH0 SWAP1 DUP2 MSTORE PUSH1 0x20 DUP2 SWAP1 MSTORE PUSH1 0x40 SWAP1 KECCAK256 SWAP1 DUP3 SWAP1 SUB SWAP1 SSTORE JUMPDEST PUSH1 0x1 PUSH1 0x1 PUSH1 0xA0 SHL SUB DUP3 AND PUSH2 0x48FE JUMPI PUSH1 0x2 DUP1 SLOAD DUP3 SWAP1 SUB SWAP1 SSTORE PUSH2 0x491C JUMP JUMPDEST PUSH1 0x1 PUSH1 0x1 PUSH1 0xA0 SHL SUB DUP3 AND PUSH0 SWAP1 DUP2 MSTORE PUSH1 0x20 DUP2 SWAP1 MSTORE PUSH1 0x40 SWAP1 KECCAK256 DUP1 SLOAD DUP3 ADD SWAP1 SSTORE JUMPDEST DUP2 PUSH1 0x1 PUSH1 0x1 PUSH1 0xA0 SHL SUB AND DUP4 PUSH1 0x1 PUSH1 0x1 PUSH1 0xA0 SHL SUB AND PUSH32 0xDDF252AD1BE2C89B69C2B068FC378DAA952BA7F163C4A11628F55A4DF523B3EF DUP4 PUSH1 0x40 MLOAD PUSH2 0x2EB4 SWAP2 DUP2 MSTORE PUSH1 0x20 ADD SWAP1 JUMP JUMPDEST PUSH1 0x1 PUSH1 0x1 PUSH1 0xA0 SHL SUB DUP4 DUP2 AND PUSH0 SWAP1 DUP2 MSTORE PUSH1 0x1 PUSH1 0x20 SWAP1 DUP2 MSTORE PUSH1 0x40 DUP1 DUP4 KECCAK256 SWAP4 DUP7 AND DUP4 MSTORE SWAP3 SWAP1 MSTORE KECCAK256 SLOAD PUSH0 NOT DUP2 LT ISZERO PUSH2 0x4359 JUMPI DUP2 DUP2 LT ISZERO PUSH2 0x49C9 JUMPI PUSH1 0x40 MLOAD PUSH4 0x7DC7A0D9 PUSH1 0xE1 SHL DUP2 MSTORE PUSH1 0x1 PUSH1 0x1 PUSH1 0xA0 SHL SUB DUP5 AND PUSH1 0x4 DUP3 ADD MSTORE PUSH1 0x24 DUP2 ADD DUP3 SWAP1 MSTORE PUSH1 0x44 DUP2 ADD DUP4 SWAP1 MSTORE PUSH1 0x64 ADD PUSH2 0x1528 JUMP JUMPDEST PUSH2 0x4359 DUP5 DUP5 DUP5 DUP5 SUB PUSH0 PUSH2 0x470A JUMP JUMPDEST PUSH1 0x1 PUSH1 0x1 PUSH1 0xA0 SHL SUB DUP4 AND PUSH2 0x4A00 JUMPI PUSH1 0x40 MLOAD PUSH4 0x4B637E8F PUSH1 0xE1 SHL DUP2 MSTORE PUSH0 PUSH1 0x4 DUP3 ADD MSTORE PUSH1 0x24 ADD PUSH2 0x1528 JUMP JUMPDEST PUSH1 0x1 PUSH1 0x1 PUSH1 0xA0 SHL SUB DUP3 AND PUSH2 0x4A29 JUMPI PUSH1 0x40 MLOAD PUSH4 0xEC442F05 PUSH1 0xE0 SHL DUP2 MSTORE PUSH0 PUSH1 0x4 DUP3 ADD MSTORE PUSH1 0x24 ADD PUSH2 0x1528 JUMP JUMPDEST PUSH2 0x3E35 DUP4 DUP4 DUP4 PUSH2 0x4848 JUMP JUMPDEST DUP1 CALLDATALOAD PUSH1 0x1 PUSH1 0x1 PUSH1 0xA0 SHL SUB DUP2 AND DUP2 EQ PUSH2 0x4A4A JUMPI PUSH0 DUP1 REVERT JUMPDEST SWAP2 SWAP1 POP JUMP JUMPDEST PUSH0 PUSH1 0x20 DUP3 DUP5 SUB SLT ISZERO PUSH2 0x4A5F JUMPI PUSH0 DUP1 REVERT JUMPDEST PUSH2 0x1A39 DUP3 PUSH2 0x4A34 JUMP JUMPDEST PUSH0 PUSH1 0x20 DUP3 DUP5 SUB SLT ISZERO PUSH2 0x4A78 JUMPI PUSH0 DUP1 REVERT JUMPDEST POP CALLDATALOAD SWAP2 SWAP1 POP JUMP JUMPDEST PUSH0 DUP2 MLOAD DUP1 DUP5 MSTORE PUSH0 JUMPDEST DUP2 DUP2 LT ISZERO PUSH2 0x4AA3 JUMPI PUSH1 0x20 DUP2 DUP6 ADD DUP2 ADD MLOAD DUP7 DUP4 ADD DUP3 ADD MSTORE ADD PUSH2 0x4A87 JUMP JUMPDEST POP PUSH0 PUSH1 0x20 DUP3 DUP7 ADD ADD MSTORE PUSH1 0x20 PUSH1 0x1F NOT PUSH1 0x1F DUP4 ADD AND DUP6 ADD ADD SWAP2 POP POP SWAP3 SWAP2 POP POP JUMP JUMPDEST PUSH4 0x4E487B71 PUSH1 0xE0 SHL PUSH0 MSTORE PUSH1 0x21 PUSH1 0x4 MSTORE PUSH1 0x24 PUSH0 REVERT JUMPDEST PUSH1 0xC DUP2 LT PUSH2 0x4AF2 JUMPI PUSH4 0x4E487B71 PUSH1 0xE0 SHL PUSH0 MSTORE PUSH1 0x21 PUSH1 0x4 MSTORE PUSH1 0x24 PUSH0 REVERT JUMPDEST SWAP1 MSTORE JUMP JUMPDEST PUSH0 PUSH2 0x160 DUP14 DUP4 MSTORE DUP13 PUSH1 0x20 DUP5 ADD MSTORE DUP12 PUSH1 0x40 DUP5 ADD MSTORE DUP11 PUSH1 0x60 DUP5 ADD MSTORE DUP10 PUSH1 0x80 DUP5 ADD MSTORE DUP9 PUSH1 0xA0 DUP5 ADD MSTORE PUSH1 0x1 DUP1 PUSH1 0xA0 SHL SUB DUP1 DUP10 AND PUSH1 0xC0 DUP6 ADD MSTORE DUP1 DUP9 AND PUSH1 0xE0 DUP6 ADD MSTORE POP DUP1 PUSH2 0x100 DUP5 ADD MSTORE PUSH2 0x4B46 DUP2 DUP5 ADD DUP8 PUSH2 0x4A7F JUMP JUMPDEST SWAP2 POP POP PUSH2 0x4B57 PUSH2 0x120 DUP4 ADD DUP6 PUSH2 0x4AD6 JUMP JUMPDEST DUP3 ISZERO ISZERO PUSH2 0x140 DUP4 ADD MSTORE SWAP13 SWAP12 POP POP POP POP POP POP POP POP POP POP POP POP JUMP JUMPDEST PUSH1 0x20 DUP2 MSTORE PUSH0 PUSH2 0x1A39 PUSH1 0x20 DUP4 ADD DUP5 PUSH2 0x4A7F JUMP JUMPDEST PUSH0 DUP1 PUSH1 0x40 DUP4 DUP6 SUB SLT ISZERO PUSH2 0x4B93 JUMPI PUSH0 DUP1 REVERT JUMPDEST PUSH2 0x4B9C DUP4 PUSH2 0x4A34 JUMP JUMPDEST SWAP5 PUSH1 0x20 SWAP4 SWAP1 SWAP4 ADD CALLDATALOAD SWAP4 POP POP POP JUMP JUMPDEST PUSH0 DUP1 PUSH0 PUSH1 0x60 DUP5 DUP7 SUB SLT ISZERO PUSH2 0x4BBC JUMPI PUSH0 DUP1 REVERT JUMPDEST PUSH2 0x4BC5 DUP5 PUSH2 0x4A34 JUMP JUMPDEST SWAP3 POP PUSH2 0x4BD3 PUSH1 0x20 DUP6 ADD PUSH2 0x4A34 JUMP JUMPDEST SWAP2 POP PUSH1 0x40 DUP5 ADD CALLDATALOAD SWAP1 POP SWAP3 POP SWAP3 POP SWAP3 JUMP JUMPDEST DUP1 CALLDATALOAD DUP1 ISZERO ISZERO DUP2 EQ PUSH2 0x4A4A JUMPI PUSH0 DUP1 REVERT JUMPDEST PUSH0 PUSH1 0x20 DUP3 DUP5 SUB SLT ISZERO PUSH2 0x4C02 JUMPI PUSH0 DUP1 REVERT JUMPDEST PUSH2 0x1A39 DUP3 PUSH2 0x4BE3 JUMP JUMPDEST PUSH0 DUP1 PUSH1 0x20 DUP4 DUP6 SUB SLT ISZERO PUSH2 0x4C1C JUMPI PUSH0 DUP1 REVERT JUMPDEST DUP3 CALLDATALOAD PUSH8 0xFFFFFFFFFFFFFFFF DUP1 DUP3 GT ISZERO PUSH2 0x4C33 JUMPI PUSH0 DUP1 REVERT JUMPDEST DUP2 DUP6 ADD SWAP2 POP DUP6 PUSH1 0x1F DUP4 ADD SLT PUSH2 0x4C46 JUMPI PUSH0 DUP1 REVERT JUMPDEST DUP2 CALLDATALOAD DUP2 DUP2 GT ISZERO PUSH2 0x4C54 JUMPI PUSH0 DUP1 REVERT JUMPDEST DUP7 PUSH1 0x20 DUP3 PUSH1 0x5 SHL DUP6 ADD ADD GT ISZERO PUSH2 0x4C68 JUMPI PUSH0 DUP1 REVERT JUMPDEST PUSH1 0x20 SWAP3 SWAP1 SWAP3 ADD SWAP7 SWAP2 SWAP6 POP SWAP1 SWAP4 POP POP POP POP JUMP JUMPDEST PUSH1 0x20 DUP1 DUP3 MSTORE DUP3 MLOAD DUP3 DUP3 ADD DUP2 SWAP1 MSTORE PUSH0 SWAP2 SWAP1 DUP5 DUP3 ADD SWAP1 PUSH1 0x40 DUP6 ADD SWAP1 DUP5 JUMPDEST DUP2 DUP2 LT ISZERO PUSH2 0x4CBA JUMPI DUP4 MLOAD PUSH1 0x1 PUSH1 0x1 PUSH1 0xA0 SHL SUB AND DUP4 MSTORE SWAP3 DUP5 ADD SWAP3 SWAP2 DUP5 ADD SWAP2 PUSH1 0x1 ADD PUSH2 0x4C95 JUMP JUMPDEST POP SWAP1 SWAP7 SWAP6 POP POP POP POP POP POP JUMP JUMPDEST PUSH0 DUP1 PUSH1 0x40 DUP4 DUP6 SUB SLT ISZERO PUSH2 0x4CD7 JUMPI PUSH0 DUP1 REVERT JUMPDEST POP POP DUP1 CALLDATALOAD SWAP3 PUSH1 0x20 SWAP1 SWAP2 ADD CALLDATALOAD SWAP2 POP JUMP JUMPDEST DUP4 DUP2 MSTORE DUP3 PUSH1 0x20 DUP3 ADD MSTORE PUSH1 0x60 PUSH1 0x40 DUP3 ADD MSTORE PUSH0 PUSH2 0x4D04 PUSH1 0x60 DUP4 ADD DUP5 PUSH2 0x4A7F JUMP JUMPDEST SWAP6 SWAP5 POP POP POP POP POP JUMP JUMPDEST PUSH0 DUP1 PUSH1 0x40 DUP4 DUP6 SUB SLT ISZERO PUSH2 0x4D1E JUMPI PUSH0 DUP1 REVERT JUMPDEST PUSH2 0x4D27 DUP4 PUSH2 0x4A34 JUMP JUMPDEST SWAP2 POP PUSH2 0x4D35 PUSH1 0x20 DUP5 ADD PUSH2 0x4A34 JUMP JUMPDEST SWAP1 POP SWAP3 POP SWAP3 SWAP1 POP JUMP JUMPDEST PUSH4 0x4E487B71 PUSH1 0xE0 SHL PUSH0 MSTORE PUSH1 0x41 PUSH1 0x4 MSTORE PUSH1 0x24 PUSH0 REVERT JUMPDEST DUP1 CALLDATALOAD PUSH1 0xC DUP2 LT PUSH2 0x4A4A JUMPI PUSH0 DUP1 REVERT JUMPDEST PUSH0 DUP1 PUSH0 DUP1 PUSH1 0x80 DUP6 DUP8 SUB SLT ISZERO PUSH2 0x4D73 JUMPI PUSH0 DUP1 REVERT JUMPDEST DUP5 CALLDATALOAD PUSH8 0xFFFFFFFFFFFFFFFF DUP1 DUP3 GT ISZERO PUSH2 0x4D8A JUMPI PUSH0 DUP1 REVERT JUMPDEST DUP2 DUP8 ADD SWAP2 POP DUP8 PUSH1 0x1F DUP4 ADD SLT PUSH2 0x4D9D JUMPI PUSH0 DUP1 REVERT JUMPDEST DUP2 CALLDATALOAD DUP2 DUP2 GT ISZERO PUSH2 0x4DAF JUMPI PUSH2 0x4DAF PUSH2 0x4D3E JUMP JUMPDEST PUSH1 0x40 MLOAD PUSH1 0x1F DUP3 ADD PUSH1 0x1F NOT SWAP1 DUP2 AND PUSH1 0x3F ADD AND DUP2 ADD SWAP1 DUP4 DUP3 GT DUP2 DUP4 LT OR ISZERO PUSH2 0x4DD7 JUMPI PUSH2 0x4DD7 PUSH2 0x4D3E JUMP JUMPDEST DUP2 PUSH1 0x40 MSTORE DUP3 DUP2 MSTORE DUP11 PUSH1 0x20 DUP5 DUP8 ADD ADD GT ISZERO PUSH2 0x4DEF JUMPI PUSH0 DUP1 REVERT JUMPDEST DUP3 PUSH1 0x20 DUP7 ADD PUSH1 0x20 DUP4 ADD CALLDATACOPY PUSH0 PUSH1 0x20 DUP5 DUP4 ADD ADD MSTORE DUP1 SWAP9 POP POP POP POP POP POP PUSH1 0x20 DUP6 ADD CALLDATALOAD SWAP3 POP PUSH2 0x4E1C PUSH1 0x40 DUP7 ADD PUSH2 0x4A34 JUMP JUMPDEST SWAP2 POP PUSH2 0x4E2A PUSH1 0x60 DUP7 ADD PUSH2 0x4D52 JUMP JUMPDEST SWAP1 POP SWAP3 SWAP6 SWAP2 SWAP5 POP SWAP3 POP JUMP JUMPDEST PUSH0 DUP1 PUSH1 0x40 DUP4 DUP6 SUB SLT ISZERO PUSH2 0x4E46 JUMPI PUSH0 DUP1 REVERT JUMPDEST DUP3 CALLDATALOAD SWAP2 POP PUSH2 0x4D35 PUSH1 0x20 DUP5 ADD PUSH2 0x4A34 JUMP JUMPDEST PUSH0 DUP1 PUSH0 PUSH1 0x60 DUP5 DUP7 SUB SLT ISZERO PUSH2 0x4E68 JUMPI PUSH0 DUP1 REVERT JUMPDEST DUP4 CALLDATALOAD SWAP3 POP PUSH2 0x4BD3 PUSH1 0x20 DUP6 ADD PUSH2 0x4BE3 JUMP JUMPDEST PUSH1 0x1 DUP2 DUP2 SHR SWAP1 DUP3 AND DUP1 PUSH2 0x4E8C JUMPI PUSH1 0x7F DUP3 AND SWAP2 POP JUMPDEST PUSH1 0x20 DUP3 LT DUP2 SUB PUSH2 0x4EAA JUMPI PUSH4 0x4E487B71 PUSH1 0xE0 SHL PUSH0 MSTORE PUSH1 0x22 PUSH1 0x4 MSTORE PUSH1 0x24 PUSH0 REVERT JUMPDEST POP SWAP2 SWAP1 POP JUMP JUMPDEST PUSH4 0x4E487B71 PUSH1 0xE0 SHL PUSH0 MSTORE PUSH1 0x11 PUSH1 0x4 MSTORE PUSH1 0x24 PUSH0 REVERT JUMPDEST DUP1 DUP3 ADD DUP1 DUP3 GT ISZERO PUSH2 0xEFD JUMPI PUSH2 0xEFD PUSH2 0x4EB0 JUMP JUMPDEST DUP1 DUP3 MUL DUP2 ISZERO DUP3 DUP3 DIV DUP5 EQ OR PUSH2 0xEFD JUMPI PUSH2 0xEFD PUSH2 0x4EB0 JUMP JUMPDEST PUSH0 DUP3 PUSH2 0x4F08 JUMPI PUSH4 0x4E487B71 PUSH1 0xE0 SHL PUSH0 MSTORE PUSH1 0x12 PUSH1 0x4 MSTORE PUSH1 0x24 PUSH0 REVERT JUMPDEST POP DIV SWAP1 JUMP JUMPDEST DUP2 DUP2 SUB DUP2 DUP2 GT ISZERO PUSH2 0xEFD JUMPI PUSH2 0xEFD PUSH2 0x4EB0 JUMP JUMPDEST PUSH0 PUSH1 0x20 DUP1 DUP4 MSTORE PUSH0 DUP5 SLOAD PUSH2 0x4F32 DUP2 PUSH2 0x4E78 JUMP JUMPDEST DUP1 DUP5 DUP8 ADD MSTORE PUSH1 0x40 PUSH1 0x1 DUP1 DUP5 AND PUSH0 DUP2 EQ PUSH2 0x4F52 JUMPI PUSH1 0x1 DUP2 EQ PUSH2 0x4F6C JUMPI PUSH2 0x4F97 JUMP JUMPDEST PUSH1 0xFF NOT DUP6 AND DUP10 DUP5 ADD MSTORE DUP4 ISZERO ISZERO PUSH1 0x5 SHL DUP10 ADD DUP4 ADD SWAP6 POP PUSH2 0x4F97 JUMP JUMPDEST DUP10 PUSH0 MSTORE DUP7 PUSH0 KECCAK256 PUSH0 JUMPDEST DUP6 DUP2 LT ISZERO PUSH2 0x4F8F JUMPI DUP2 SLOAD DUP12 DUP3 ADD DUP7 ADD MSTORE SWAP1 DUP4 ADD SWAP1 DUP9 ADD PUSH2 0x4F74 JUMP JUMPDEST DUP11 ADD DUP5 ADD SWAP7 POP POP JUMPDEST POP SWAP4 SWAP9 SWAP8 POP POP POP POP POP POP POP POP JUMP JUMPDEST PUSH1 0x20 DUP1 DUP3 MSTORE PUSH1 0x15 SWAP1 DUP3 ADD MSTORE PUSH21 0x10DBDB9D1C9858DD1CC81B9BDD08185B1B1BDDD959 PUSH1 0x5A SHL PUSH1 0x40 DUP3 ADD MSTORE PUSH1 0x60 ADD SWAP1 JUMP JUMPDEST PUSH4 0x4E487B71 PUSH1 0xE0 SHL PUSH0 MSTORE PUSH1 0x32 PUSH1 0x4 MSTORE PUSH1 0x24 PUSH0 REVERT JUMPDEST PUSH0 PUSH1 0x1 DUP3 ADD PUSH2 0x4FF9 JUMPI PUSH2 0x4FF9 PUSH2 0x4EB0 JUMP JUMPDEST POP PUSH1 0x1 ADD SWAP1 JUMP JUMPDEST PUSH0 DUP2 DUP5 DUP3 JUMPDEST DUP6 DUP2 LT ISZERO PUSH2 0x5034 JUMPI PUSH1 0x1 PUSH1 0x1 PUSH1 0xA0 SHL SUB PUSH2 0x501E DUP4 PUSH2 0x4A34 JUMP JUMPDEST AND DUP4 MSTORE PUSH1 0x20 SWAP3 DUP4 ADD SWAP3 SWAP2 SWAP1 SWAP2 ADD SWAP1 PUSH1 0x1 ADD PUSH2 0x5005 JUMP JUMPDEST POP SWAP1 SWAP6 SWAP5 POP POP POP POP POP JUMP JUMPDEST PUSH1 0x20 DUP1 DUP3 MSTORE DUP3 MLOAD DUP3 DUP3 ADD DUP2 SWAP1 MSTORE PUSH0 SWAP2 SWAP1 DUP5 DUP3 ADD SWAP1 PUSH1 0x40 DUP6 ADD SWAP1 DUP5 JUMPDEST DUP2 DUP2 LT ISZERO PUSH2 0x4CBA JUMPI DUP4 MLOAD DUP4 MSTORE SWAP3 DUP5 ADD SWAP3 SWAP2 DUP5 ADD SWAP2 PUSH1 0x1 ADD PUSH2 0x505A JUMP JUMPDEST PUSH1 0x1F DUP3 GT ISZERO PUSH2 0x3E35 JUMPI PUSH0 DUP2 DUP2 MSTORE PUSH1 0x20 DUP2 KECCAK256 PUSH1 0x1F DUP6 ADD PUSH1 0x5 SHR DUP2 ADD PUSH1 0x20 DUP7 LT ISZERO PUSH2 0x509C JUMPI POP DUP1 JUMPDEST PUSH1 0x1F DUP6 ADD PUSH1 0x5 SHR DUP3 ADD SWAP2 POP JUMPDEST DUP2 DUP2 LT ISZERO PUSH2 0x50BB JUMPI DUP3 DUP2 SSTORE PUSH1 0x1 ADD PUSH2 0x50A8 JUMP JUMPDEST POP POP POP POP POP POP JUMP JUMPDEST DUP2 MLOAD PUSH8 0xFFFFFFFFFFFFFFFF DUP2 GT ISZERO PUSH2 0x50DD JUMPI PUSH2 0x50DD PUSH2 0x4D3E JUMP JUMPDEST PUSH2 0x50F1 DUP2 PUSH2 0x50EB DUP5 SLOAD PUSH2 0x4E78 JUMP JUMPDEST DUP5 PUSH2 0x5076 JUMP JUMPDEST PUSH1 0x20 DUP1 PUSH1 0x1F DUP4 GT PUSH1 0x1 DUP2 EQ PUSH2 0x5124 JUMPI PUSH0 DUP5 ISZERO PUSH2 0x510D JUMPI POP DUP6 DUP4 ADD MLOAD JUMPDEST PUSH0 NOT PUSH1 0x3 DUP7 SWAP1 SHL SHR NOT AND PUSH1 0x1 DUP6 SWAP1 SHL OR DUP6 SSTORE PUSH2 0x50BB JUMP JUMPDEST PUSH0 DUP6 DUP2 MSTORE PUSH1 0x20 DUP2 KECCAK256 PUSH1 0x1F NOT DUP7 AND SWAP2 JUMPDEST DUP3 DUP2 LT ISZERO PUSH2 0x5152 JUMPI DUP9 DUP7 ADD MLOAD DUP3 SSTORE SWAP5 DUP5 ADD SWAP5 PUSH1 0x1 SWAP1 SWAP2 ADD SWAP1 DUP5 ADD PUSH2 0x5133 JUMP JUMPDEST POP DUP6 DUP3 LT ISZERO PUSH2 0x516F JUMPI DUP8 DUP6 ADD MLOAD PUSH0 NOT PUSH1 0x3 DUP9 SWAP1 SHL PUSH1 0xF8 AND SHR NOT AND DUP2 SSTORE JUMPDEST POP POP POP POP POP PUSH1 0x1 SWAP1 DUP2 SHL ADD SWAP1 SSTORE POP JUMP JUMPDEST PUSH1 0x40 DUP2 MSTORE PUSH0 PUSH2 0x5191 PUSH1 0x40 DUP4 ADD DUP6 PUSH2 0x4A7F JUMP JUMPDEST SWAP1 POP PUSH2 0x1A39 PUSH1 0x20 DUP4 ADD DUP5 PUSH2 0x4AD6 JUMP JUMPDEST PUSH4 0x4E487B71 PUSH1 0xE0 SHL PUSH0 MSTORE PUSH1 0x31 PUSH1 0x4 MSTORE PUSH1 0x24 PUSH0 REVERT INVALID LOG2 PUSH5 0x6970667358 0x22 SLT KECCAK256 DUP10 0xE1 SWAP13 EXTCODECOPY 0x2C 0xDF PUSH13 0x56166DB24E01F98E1419D1CE8A 0xD6 BLOCKHASH COINBASE SLT DUP7 0xBC DUP5 0x1F CODESIZE 0x27 PUSH19 0xBB64736F6C6343000814003300000000000000 "
	},
	"Assembly": ".code\n  PUSH 120\t\t\tcontract TAAMS is ERC20, Reent...\n  PUSH 40\t\t\tcontract TAAMS is ERC20, Reent...\n  MSTORE \t\t\tcontract TAAMS is ERC20, Reent...\n  PUSH 204FCE5E3E25026110000000\t\t\t10_000_000_000 * 1e18\n  PUSH 80\t\t\tuint256 public immutable MAX_S...\n  MSTORE \t\t\tuint256 public immutable MAX_S...\n  PUSH 169E43A85EB381AA58000000\t\t\t7_000_000_000 * 1e18\n  PUSH A0\t\t\tuint256 public immutable LOCKE...\n  MSTORE \t\t\tuint256 public immutable LOCKE...\n  PUSH 19D971E4FE8401E74000000\t\t\t500_000_000 * 1e18\n  PUSH C0\t\t\tuint256 public immutable IGNIT...\n  MSTORE \t\t\tuint256 public immutable IGNIT...\n  PUSH 33B2E3C9FD0803CE8000000\t\t\t1_000_000_000 * 1e18\n  PUSH E0\t\t\tuint256 public immutable ACTIV...\n  DUP2 \t\t\tuint256 public immutable ACTIV...\n  SWAP1 \t\t\tuint256 public immutable ACTIV...\n  MSTORE \t\t\tuint256 public immutable ACTIV...\n  PUSH 100\t\t\tuint256 public immutable BURN_...\n  MSTORE \t\t\tuint256 public immutable BURN_...\n  PUSH 52B7D2DCC80CD2E4000000\t\t\t100_000_000 * 1e18\n  PUSH F\t\t\tuint256 public ANNUAL_BURN_AMO...\n  SSTORE \t\t\tuint256 public ANNUAL_BURN_AMO...\n  PUSH 5\t\t\t5\n  PUSH 12\t\t\tuint256 public STAKING_REWARD_...\n  SSTORE \t\t\tuint256 public STAKING_REWARD_...\n  PUSH 84595161401484A000000\t\t\t10_000_000 * 1e18\n  PUSH 13\t\t\tuint256 public QUORUM = 10_000...\n  SSTORE \t\t\tuint256 public QUORUM = 10_000...\n  PUSH 32\t\t\t50\n  PUSH 14\t\t\tuint256 public VOTE_THRESHOLD ...\n  SWAP1 \t\t\tuint256 public VOTE_THRESHOLD ...\n  DUP2 \t\t\tuint256 public VOTE_THRESHOLD ...\n  SSTORE \t\t\tuint256 public VOTE_THRESHOLD ...\n  PUSH 2710\t\t\t10000\n  PUSH 19\t\t\tuint256 public maturationPerio...\n  SSTORE \t\t\tuint256 public maturationPerio...\n  PUSH 186A0\t\t\t100000\n  PUSH 1A\t\t\tuint256 public bl2pLifespanBlo...\n  SSTORE \t\t\tuint256 public bl2pLifespanBlo...\n  PUSH 1\t\t\t1\n  PUSH 1B\t\t\tuint256 public inactivityBurnR...\n  SSTORE \t\t\tuint256 public inactivityBurnR...\n  PUSH 1C\t\t\tuint256 public maxDelegatedBL2...\n  SSTORE \t\t\tuint256 public maxDelegatedBL2...\n  PUSH 1D\t\t\tbool public ignitionRegistrati...\n  DUP1 \t\t\tbool public ignitionRegistrati...\n  SLOAD \t\t\tbool public ignitionRegistrati...\n  PUSH FF\t\t\t\n  PUSH A8\t\t\t\n  SHL \t\t\t\n  NOT \t\t\t\n  AND \t\t\tbool public ignitionRegistrati...\n  PUSH 1\t\t\t\n  PUSH A8\t\t\t\n  SHL \t\t\t\n  OR \t\t\tbool public ignitionRegistrati...\n  SWAP1 \t\t\tbool public ignitionRegistrati...\n  SSTORE \t\t\tbool public ignitionRegistrati...\n  CALLVALUE \t\t\tconstructor(address initialOwn...\n  DUP1 \t\t\tconstructor(address initialOwn...\n  ISZERO \t\t\tconstructor(address initialOwn...\n  PUSH [tag] 1\t\t\tconstructor(address initialOwn...\n  JUMPI \t\t\tconstructor(address initialOwn...\n  PUSH 0\t\t\tconstructor(address initialOwn...\n  DUP1 \t\t\tconstructor(address initialOwn...\n  REVERT \t\t\tconstructor(address initialOwn...\ntag 1\t\t\tconstructor(address initialOwn...\n  JUMPDEST \t\t\tconstructor(address initialOwn...\n  POP \t\t\tconstructor(address initialOwn...\n  PUSH 40\t\t\tconstructor(address initialOwn...\n  MLOAD \t\t\tconstructor(address initialOwn...\n  PUSHSIZE \t\t\tconstructor(address initialOwn...\n  CODESIZE \t\t\tconstructor(address initialOwn...\n  SUB \t\t\tconstructor(address initialOwn...\n  DUP1 \t\t\tconstructor(address initialOwn...\n  PUSHSIZE \t\t\tconstructor(address initialOwn...\n  DUP4 \t\t\tconstructor(address initialOwn...\n  CODECOPY \t\t\tconstructor(address initialOwn...\n  DUP2 \t\t\tconstructor(address initialOwn...\n  ADD \t\t\tconstructor(address initialOwn...\n  PUSH 40\t\t\tconstructor(address initialOwn...\n  DUP2 \t\t\tconstructor(address initialOwn...\n  SWAP1 \t\t\tconstructor(address initialOwn...\n  MSTORE \t\t\tconstructor(address initialOwn...\n  PUSH [tag] 2\t\t\tconstructor(address initialOwn...\n  SWAP2 \t\t\tconstructor(address initialOwn...\n  PUSH [tag] 3\t\t\tconstructor(address initialOwn...\n  JUMP \t\t\tconstructor(address initialOwn...\ntag 2\t\t\tconstructor(address initialOwn...\n  JUMPDEST \t\t\tconstructor(address initialOwn...\n  PUSH 40\t\t\t;\\n    error InvalidRewardRate...\n  DUP1 \t\t\t;\\n    error InvalidRewardRate...\n  MLOAD \t\t\t;\\n    error InvalidRewardRate...\n  DUP1 \t\t\t;\\n    error InvalidRewardRate...\n  DUP3 \t\t\t;\\n    error InvalidRewardRate...\n  ADD \t\t\t;\\n    error InvalidRewardRate...\n  DUP3 \t\t\t;\\n    error InvalidRewardRate...\n  MSTORE \t\t\t;\\n    error InvalidRewardRate...\n  PUSH 5\t\t\t;\\n    error InvalidRewardRate...\n  DUP1 \t\t\t;\\n    error InvalidRewardRate...\n  DUP3 \t\t\t;\\n    error InvalidRewardRate...\n  MSTORE \t\t\t;\\n    error InvalidRewardRate...\n  PUSH 5441414D53\t\t\t\n  PUSH D8\t\t\t\n  SHL \t\t\t\n  PUSH 20\t\t\t;\\n    error InvalidRewardRate...\n  DUP1 \t\t\t;\\n    error InvalidRewardRate...\n  DUP5 \t\t\t;\\n    error InvalidRewardRate...\n  ADD \t\t\t;\\n    error InvalidRewardRate...\n  DUP3 \t\t\t;\\n    error InvalidRewardRate...\n  SWAP1 \t\t\t;\\n    error InvalidRewardRate...\n  MSTORE \t\t\t;\\n    error InvalidRewardRate...\n  DUP5 \t\t\t;\\n    error InvalidRewardRate...\n  MLOAD \t\t\t;\\n    error InvalidRewardRate...\n  DUP1 \t\t\t;\\n    error InvalidRewardRate...\n  DUP7 \t\t\t;\\n    error InvalidRewardRate...\n  ADD \t\t\t;\\n    error InvalidRewardRate...\n  SWAP1 \t\t\t;\\n    error InvalidRewardRate...\n  SWAP6 \t\t\t;\\n    error InvalidRewardRate...\n  MSTORE \t\t\t;\\n    error InvalidRewardRate...\n  SWAP2 \t\t\t;\\n    error InvalidRewardRate...\n  DUP5 \t\t\t;\\n    error InvalidRewardRate...\n  MSTORE \t\t\t;\\n    error InvalidRewardRate...\n  SWAP1 \t\t\t;\\n    error InvalidRewardRate...\n  DUP4 \t\t\t;\\n    error InvalidRewardRate...\n  ADD \t\t\t;\\n    error InvalidRewardRate...\n  MSTORE \t\t\t;\\n    error InvalidRewardRate...\n  DUP3 \t\t\tinitialOwner\n  SWAP2 \t\t\tinitialOwner\n  PUSH 3\t\t\t();\\n \n  PUSH [tag] 9\t\t\t();\\n    error\n  DUP4 \t\t\t;\\n    error InvalidRewardRate...\n  DUP3 \t\t\t();\\n \n  PUSH [tag] 10\t\t\t();\\n    error\n  JUMP \t\t\t();\\n    error\ntag 9\t\t\t();\\n    error\n  JUMPDEST \t\t\t();\\n    error\n  POP \t\t\t\n  PUSH 4\t\t\t2PLifes\n  PUSH [tag] 11\t\t\t2PLifespan();\\n   \n  DUP3 \t\t\t();\\n   \n  DUP3 \t\t\t2PLifes\n  PUSH [tag] 10\t\t\t2PLifespan();\\n   \n  JUMP \t\t\t2PLifespan();\\n   \ntag 11\t\t\t2PLifespan();\\n   \n  JUMPDEST \t\t\t2PLifespan();\\n   \n  POP \t\t\t\n  POP \t\t\t\n  PUSH 1\t\t\t \n  PUSH 5\t\t\t error \n  SSTORE \t\t\t error NotWhitelisted\n  POP \t\t\t\n  PUSH 1\t\t\t\n  PUSH 1\t\t\t\n  PUSH A0\t\t\t\n  SHL \t\t\t\n  SUB \t\t\t\n  DUP2 \t\t\tr VoteThresholdNotMet();\\n \n  AND \t\t\tr VoteThresholdNotMet();\\n \n  PUSH [tag] 14\t\t\terror VoteThresholdNotMet();\\n...\n  JUMPI \t\t\terror VoteThresholdNotMet();\\n...\n  PUSH 40\t\t\ttElapsed();\\n    error Insuffi...\n  MLOAD \t\t\ttElapsed();\\n    error Insuffi...\n  PUSH 1E4FBDF7\t\t\t\n  PUSH E0\t\t\t\n  SHL \t\t\t\n  DUP2 \t\t\ttElapsed();\\n    error Insuffi...\n  MSTORE \t\t\ttElapsed();\\n    error Insuffi...\n  PUSH 0\t\t\ti\n  PUSH 4\t\t\ttElapsed();\\n    error Insuffi...\n  DUP3 \t\t\ttElapsed();\\n    error Insuffi...\n  ADD \t\t\ttElapsed();\\n    error Insuffi...\n  MSTORE \t\t\terve,\\n        LockedReserve,\\...\n  PUSH 24\t\t\tncyPause,\\n        \n  ADD \t\t\tncyPause,\\n        \ntag 15\t\t\ttElapsed();\\n    error Insuffi...\n  JUMPDEST \t\t\ttElapsed();\\n    error Insuffi...\n  PUSH 40\t\t\ttElapsed();\\n    error Insuffi...\n  MLOAD \t\t\ttElapsed();\\n    error Insuffi...\n  DUP1 \t\t\ttElapsed();\\n    error Insuffi...\n  SWAP2 \t\t\ttElapsed();\\n    error Insuffi...\n  SUB \t\t\ttElapsed();\\n    error Insuffi...\n  SWAP1 \t\t\ttElapsed();\\n    error Insuffi...\n  REVERT \t\t\ttElapsed();\\n    error Insuffi...\ntag 14\t\t\terror VoteThresholdNotMet();\\n...\n  JUMPDEST \t\t\terror VoteThresholdNotMet();\\n...\n  PUSH [tag] 17\t\t\tror InvalidTransferConditions(...\n  DUP2 \t\t\tConditions()\n  PUSH [tag] 18\t\t\tror InvalidTransfe\n  JUMP \t\t\tror InvalidTransferConditions(...\ntag 17\t\t\tror InvalidTransferConditions(...\n  JUMPDEST \t\t\tror InvalidTransferConditions(...\n  POP \t\t\t\n  PUSH 94F7A6FD45185038DDB85ED43C6707DDAB806FFE\t\t\t0x94f7a6FD45185038DDb85eD43C67...\n  PUSH 4FF3D1D554F080B0682A780C8531178DDD99F546\t\t\t0x4Ff3D1d554f080b0682a780c8531...\n  PUSH 19D971E4FE8401E740000000\t\t\t8_000_000_000 * 1e18\n  PUSH 33B2E3C9FD0803CE8000000\t\t\t1_000_000_000 * 1e18\n  DUP1 \t\t\t1_000_000_000 * 1e18\n  PUSH [tag] 22\t\t\t_mint(address(this), CONTRACT_...\n  ADDRESS \t\t\tthis\n  DUP5 \t\t\t8_000_000_000 * 1e18\n  PUSH [tag] 23\t\t\t_mint\n  JUMP \t\t\t_mint(address(this), CONTRACT_...\ntag 22\t\t\t_mint(address(this), CONTRACT_...\n  JUMPDEST \t\t\t_mint(address(this), CONTRACT_...\n  PUSH [tag] 24\t\t\t_mint(deployerRecipient, DEPLO...\n  DUP5 \t\t\tdeployerRecipient\n  DUP4 \t\t\tDEPLOYER_AMOUNT\n  PUSH [tag] 23\t\t\t_mint\n  JUMP \t\t\t_mint(deployerRecipient, DEPLO...\ntag 24\t\t\t_mint(deployerRecipient, DEPLO...\n  JUMPDEST \t\t\t_mint(deployerRecipient, DEPLO...\n  PUSH [tag] 25\t\t\t_mint(initialRecipient, RECIPI...\n  DUP6 \t\t\tinitialRecipient\n  DUP3 \t\t\tRECIPIENT_AMOUNT\n  PUSH [tag] 23\t\t\t_mint\n  JUMP \t\t\t_mint(initialRecipient, RECIPI...\ntag 25\t\t\t_mint(initialRecipient, RECIPI...\n  JUMPDEST \t\t\t_mint(initialRecipient, RECIPI...\n  POP \t\t\t\n  POP \t\t\t\n  TIMESTAMP \t\t\tblock.timestamp\n  PUSH 17\t\t\tlastAdvertisementTimestamp\n  SSTORE \t\t\tlastAdvertisementTimestamp = b...\n  POP \t\t\t\n  POP \t\t\t\n  PUSH 7\t\t\ttrustedRecipient\n  DUP1 \t\t\ttrustedRecipient = initialReci...\n  SLOAD \t\t\ttrustedRecipient = initialReci...\n  PUSH 1\t\t\t\n  PUSH 1\t\t\t\n  PUSH A0\t\t\t\n  SHL \t\t\t\n  SUB \t\t\t\n  NOT \t\t\t\n  AND \t\t\ttrustedRecipient = initialReci...\n  PUSH 1\t\t\t\n  PUSH 1\t\t\t\n  PUSH A0\t\t\t\n  SHL \t\t\t\n  SUB \t\t\t\n  SWAP3 \t\t\ttrustedRecipient = initialReci...\n  SWAP1 \t\t\ttrustedRecipient = initialReci...\n  SWAP3 \t\t\ttrustedRecipient = initialReci...\n  AND \t\t\ttrustedRecipient = initialReci...\n  SWAP2 \t\t\ttrustedRecipient = initialReci...\n  SWAP1 \t\t\ttrustedRecipient = initialReci...\n  SWAP2 \t\t\ttrustedRecipient = initialReci...\n  OR \t\t\ttrustedRecipient = initialReci...\n  SWAP1 \t\t\ttrustedRecipient = initialReci...\n  SSTORE \t\t\ttrustedRecipient = initialReci...\n  POP \t\t\t\n  PUSH A0\t\t\tLOCKED_RESERVE\n  MLOAD \t\t\tLOCKED_RESERVE\n  PUSH A\t\t\tlockedReserveBalance\n  SSTORE \t\t\tlockedReserveBalance = LOCKED_...\n  PUSH [tag] 50\t\t\tcontract TAAMS is ERC20, Reent...\n  JUMP \t\t\tcontract TAAMS is ERC20, Reent...\ntag 18\t\t\tvert NotAuthorized();\\n       ...\n  JUMPDEST \t\t\tvert NotAuthorized();\\n       ...\n  PUSH 6\t\t\tr != g\n  DUP1 \t\t\tr != g\n  SLOAD \t\t\tr != g\n  PUSH 1\t\t\t\n  PUSH 1\t\t\t\n  PUSH A0\t\t\t\n  SHL \t\t\t\n  SUB \t\t\t\n  DUP4 \t\t\tontract) revert N\n  DUP2 \t\t\tontract) revert N\n  AND \t\t\tontract) revert N\n  PUSH 1\t\t\t\n  PUSH 1\t\t\t\n  PUSH A0\t\t\t\n  SHL \t\t\t\n  SUB \t\t\t\n  NOT \t\t\t\n  DUP4 \t\t\tontract) revert N\n  AND \t\t\tontract) revert N\n  DUP2 \t\t\tontract) revert N\n  OR \t\t\tontract) revert N\n  SWAP1 \t\t\tontract) revert N\n  SWAP4 \t\t\tontract) revert N\n  SSTORE \t\t\tontract) revert N\n  PUSH 40\t\t\t\\n        _;\\n    }\\n\\n    enu...\n  MLOAD \t\t\t\\n        _;\\n    }\\n\\n    enu...\n  SWAP2 \t\t\tr != g\n  AND \t\t\tr != g\n  SWAP2 \t\t\tr != g\n  SWAP1 \t\t\tontract) revert N\n  DUP3 \t\t\tr != g\n  SWAP1 \t\t\tr != g\n  PUSH 8BE0079C531659141344CD1FD0A4F28419497F9722A3DAAFE3B4186F6B6457E0\t\t\t\\n        _;\\n    }\\n\\n    enu...\n  SWAP1 \t\t\t\\n        _;\\n    }\\n\\n    enu...\n  PUSH 0\t\t\t      if (msg.se\n  SWAP1 \t\t\t      if (msg.se\n  LOG3 \t\t\t\\n        _;\\n    }\\n\\n    enu...\n  POP \t\t\tnce() {\\n        if (msg.sende...\n  POP \t\t\tvert NotAuthorized();\\n       ...\n  JUMP \t\t\tvert NotAuthorized();\\n       ...\ntag 23\t\t\t\\n        address source;\\n   ...\n  JUMPDEST \t\t\t\\n        address source;\\n   ...\n  PUSH 1\t\t\t\n  PUSH 1\t\t\t\n  PUSH A0\t\t\t\n  SHL \t\t\t\n  SUB \t\t\t\n  DUP3 \t\t\tpAmount;\\n        uint\n  AND \t\t\tpAmount;\\n        uint\n  PUSH [tag] 29\t\t\t bl2pAmount;\\n        uint256 ...\n  JUMPI \t\t\t bl2pAmount;\\n        uint256 ...\n  PUSH 40\t\t\t  }\\n\\n    event BurnPhaseActi...\n  MLOAD \t\t\t  }\\n\\n    event BurnPhaseActi...\n  PUSH EC442F05\t\t\t\n  PUSH E0\t\t\t\n  SHL \t\t\t\n  DUP2 \t\t\t  }\\n\\n    event BurnPhaseActi...\n  MSTORE \t\t\t  }\\n\\n    event BurnPhaseActi...\n  PUSH 0\t\t\ta\n  PUSH 4\t\t\t  }\\n\\n    event BurnPhaseActi...\n  DUP3 \t\t\t  }\\n\\n    event BurnPhaseActi...\n  ADD \t\t\t  }\\n\\n    event BurnPhaseActi...\n  MSTORE \t\t\terve,\\n        LockedReserve,\\...\n  PUSH 24\t\t\tncyPause,\\n        \n  ADD \t\t\tncyPause,\\n        \n  PUSH [tag] 15\t\t\t  }\\n\\n    event BurnPhaseActi...\n  JUMP \t\t\tevert NotAuthorized();\\n      ...\ntag 29\t\t\t bl2pAmount;\\n        uint256 ...\n  JUMPDEST \t\t\t bl2pAmount;\\n        uint256 ...\n  PUSH [tag] 31\t\t\tmestamp);\\n    event BL2PRevea...\n  PUSH 0\t\t\te\n  DUP4 \t\t\tBL2PRev\n  DUP4 \t\t\tled(u\n  PUSH [tag] 32\t\t\tmestamp\n  JUMP \t\t\tmestamp);\\n    event BL2PRevea...\ntag 31\t\t\tmestamp);\\n    event BL2PRevea...\n  JUMPDEST \t\t\tmestamp);\\n    event BL2PRevea...\n  POP \t\t\t\\n        address source;\\n   ...\n  POP \t\t\t\\n        address source;\\n   ...\n  JUMP \t\t\t\\n        address source;\\n   ...\ntag 32\t\t\tping(address => address) publi...\n  JUMPDEST \t\t\tping(address => address) publi...\n  PUSH 1\t\t\t\n  PUSH 1\t\t\t\n  PUSH A0\t\t\t\n  SHL \t\t\t\n  SUB \t\t\t\n  DUP4 \t\t\tdvertisements;\\n   \n  AND \t\t\tdvertisements;\\n   \n  PUSH [tag] 34\t\t\tic advertisements;\\n    mappin...\n  JUMPI \t\t\tic advertisements;\\n    mappin...\n  DUP1 \t\t\tpubli\n  PUSH 2\t\t\tess => uint2\n  PUSH 0\t\t\tess => uint2\n  DUP3 \t\t\tess => uint256) publi\n  DUP3 \t\t\tess => uint256) publi\n  SLOAD \t\t\tess => uint256) publi\n  PUSH [tag] 35\t\t\tess => uint256) publi\n  SWAP2 \t\t\tess => uint256) publi\n  SWAP1 \t\t\tess => uint256) publi\n  PUSH [tag] 36\t\t\tess => uint256) publi\n  JUMP \t\t\tess => uint256) publi\ntag 35\t\t\tess => uint256) publi\n  JUMPDEST \t\t\tess => uint256) publi\n  SWAP1 \t\t\tess => uint256) publi\n  SWAP2 \t\t\tess => uint256) publi\n  SSTORE \t\t\tess => uint256) publi\n  POP \t\t\t\n  PUSH [tag] 37\t\t\tic advertisements;\\n    mappin...\n  SWAP1 \t\t\tic advertisements;\\n    mappin...\n  POP \t\t\t\n  JUMP \t\t\tic advertisements;\\n    mappin...\ntag 34\t\t\tic advertisements;\\n    mappin...\n  JUMPDEST \t\t\tic advertisements;\\n    mappin...\n  PUSH 1\t\t\t\n  PUSH 1\t\t\t\n  PUSH A0\t\t\t\n  SHL \t\t\t\n  SUB \t\t\t\n  DUP4 \t\t\tnInfo) public a\n  AND \t\t\tnInfo) public a\n  PUSH 0\t\t\tg(address => Delega\n  SWAP1 \t\t\tnInfo) public a\n  DUP2 \t\t\tnInfo) public a\n  MSTORE \t\t\tnInfo) public a\n  PUSH 20\t\t\tnInfo) public a\n  DUP2 \t\t\tnInfo) public a\n  SWAP1 \t\t\tnInfo) public a\n  MSTORE \t\t\tnInfo) public a\n  PUSH 40\t\t\tnInfo) public a\n  SWAP1 \t\t\tnInfo) public a\n  KECCAK256 \t\t\tnInfo) public a\n  SLOAD \t\t\tnInfo) public a\n  DUP2 \t\t\t    mapping(address\n  DUP2 \t\t\t    mapping(address\n  LT \t\t\t    mapping(address\n  ISZERO \t\t\tns;\\n    mapping(address => ui...\n  PUSH [tag] 38\t\t\tns;\\n    mapping(address => ui...\n  JUMPI \t\t\tns;\\n    mapping(address => ui...\n  PUSH 40\t\t\tedBL2PReceived;\\n    mapping(a...\n  MLOAD \t\t\tedBL2PReceived;\\n    mapping(a...\n  PUSH 391434E3\t\t\t\n  PUSH E2\t\t\t\n  SHL \t\t\t\n  DUP2 \t\t\tedBL2PReceived;\\n    mapping(a...\n  MSTORE \t\t\tedBL2PReceived;\\n    mapping(a...\n  PUSH 1\t\t\t\n  PUSH 1\t\t\t\n  PUSH A0\t\t\t\n  SHL \t\t\t\n  SUB \t\t\t\n  DUP6 \t\t\ttable BURN_TARGET = 1_000_000_...\n  AND \t\t\ttable BURN_TARGET = 1_000_000_...\n  PUSH 4\t\t\tedBL2PReceived;\\n    mapping(a...\n  DUP3 \t\t\tedBL2PReceived;\\n    mapping(a...\n  ADD \t\t\tedBL2PReceived;\\n    mapping(a...\n  MSTORE \t\t\tint256 public immutable BURN_T...\n  PUSH 24\t\t\tt256 private const\n  DUP2 \t\t\tt256 private const\n  ADD \t\t\tt256 private const\n  DUP3 \t\t\t    uint256 private constant S...\n  SWAP1 \t\t\t    uint256 private constant S...\n  MSTORE \t\t\t    uint256 private constant S...\n  PUSH 44\t\t\t5 days;\\n    uint25\n  DUP2 \t\t\t5 days;\\n    uint25\n  ADD \t\t\t5 days;\\n    uint25\n  DUP4 \t\t\tAR = 365 days;\\n    uint256 pr...\n  SWAP1 \t\t\tAR = 365 days;\\n    uint256 pr...\n  MSTORE \t\t\tAR = 365 days;\\n    uint256 pr...\n  PUSH 64\t\t\t1_000_000_000 * 1e\n  ADD \t\t\t1_000_000_000 * 1e\n  PUSH [tag] 15\t\t\tedBL2PReceived;\\n    mapping(a...\n  JUMP \t\t\t immutable LOCKED_RESERVE = 7_...\ntag 38\t\t\tns;\\n    mapping(address => ui...\n  JUMPDEST \t\t\tns;\\n    mapping(address => ui...\n  PUSH 1\t\t\t\n  PUSH 1\t\t\t\n  PUSH A0\t\t\t\n  SHL \t\t\t\n  SUB \t\t\t\n  DUP5 \t\t\tapping(address \n  AND \t\t\tapping(address \n  PUSH 0\t\t\tapping(ad\n  SWAP1 \t\t\tapping(address \n  DUP2 \t\t\tapping(address \n  MSTORE \t\t\tapping(address \n  PUSH 20\t\t\tapping(address \n  DUP2 \t\t\tapping(address \n  SWAP1 \t\t\tapping(address \n  MSTORE \t\t\tapping(address \n  PUSH 40\t\t\tapping(address \n  SWAP1 \t\t\tapping(address \n  KECCAK256 \t\t\tapping(address \n  SWAP1 \t\t\tbool) public igniti\n  DUP3 \t\t\tbool) public igniti\n  SWAP1 \t\t\tbool) public igniti\n  SUB \t\t\tbool) public igniti\n  SWAP1 \t\t\tapping(address => bool) public...\n  SSTORE \t\t\tapping(address => bool) public...\ntag 37\t\t\tic advertisements;\\n    mappin...\n  JUMPDEST \t\t\tic advertisements;\\n    mappin...\n  PUSH 1\t\t\t\n  PUSH 1\t\t\t\n  PUSH A0\t\t\t\n  SHL \t\t\t\n  SUB \t\t\t\n  DUP3 \t\t\tnParticipants;\\n \n  AND \t\t\tnParticipants;\\n \n  PUSH [tag] 41\t\t\titionParticipants;\\n    addres...\n  JUMPI \t\t\titionParticipants;\\n    addres...\n  PUSH 2\t\t\truct Proposa\n  DUP1 \t\t\truct Proposal {\\n     \n  SLOAD \t\t\truct Proposal {\\n     \n  DUP3 \t\t\truct Proposal {\\n     \n  SWAP1 \t\t\truct Proposal {\\n     \n  SUB \t\t\truct Proposal {\\n     \n  SWAP1 \t\t\truct Proposal {\\n     \n  SSTORE \t\t\truct Proposal {\\n     \n  PUSH [tag] 42\t\t\titionParticipants;\\n    addres...\n  JUMP \t\t\titionParticipants;\\n    addres...\ntag 41\t\t\titionParticipants;\\n    addres...\n  JUMPDEST \t\t\titionParticipants;\\n    addres...\n  PUSH 1\t\t\t\n  PUSH 1\t\t\t\n  PUSH A0\t\t\t\n  SHL \t\t\t\n  SUB \t\t\t\n  DUP3 \t\t\tss newAddress\n  AND \t\t\tss newAddress\n  PUSH 0\t\t\tss newAdd\n  SWAP1 \t\t\tss newAddress\n  DUP2 \t\t\tss newAddress\n  MSTORE \t\t\tss newAddress\n  PUSH 20\t\t\tss newAddress\n  DUP2 \t\t\tss newAddress\n  SWAP1 \t\t\tss newAddress\n  MSTORE \t\t\tss newAddress\n  PUSH 40\t\t\tss newAddress\n  SWAP1 \t\t\tss newAddress\n  KECCAK256 \t\t\tss newAddress\n  DUP1 \t\t\tss newAddress;\\n       \n  SLOAD \t\t\tss newAddress;\\n       \n  DUP3 \t\t\tss newAddress;\\n       \n  ADD \t\t\tss newAddress;\\n       \n  SWAP1 \t\t\tss newAddress;\\n       \n  SSTORE \t\t\tss newAddress;\\n       \ntag 42\t\t\titionParticipants;\\n    addres...\n  JUMPDEST \t\t\titionParticipants;\\n    addres...\n  DUP2 \t\t\t\\n \n  PUSH 1\t\t\t\n  PUSH 1\t\t\t\n  PUSH A0\t\t\t\n  SHL \t\t\t\n  SUB \t\t\t\n  AND \t\t\te proposalType;\\n        b\n  DUP4 \t\t\tlTyp\n  PUSH 1\t\t\t\n  PUSH 1\t\t\t\n  PUSH A0\t\t\t\n  SHL \t\t\t\n  SUB \t\t\t\n  AND \t\t\te proposalType;\\n        b\n  PUSH DDF252AD1BE2C89B69C2B068FC378DAA952BA7F163C4A11628F55A4DF523B3EF\t\t\te proposalType;\\n        b\n  DUP4 \t\t\t     \n  PUSH 40\t\t\te proposalType;\\n        b\n  MLOAD \t\t\te proposalType;\\n        b\n  PUSH [tag] 43\t\t\te proposalType;\\n        b\n  SWAP2 \t\t\te proposalType;\\n        b\n  DUP2 \t\t\tPTER_LIMIT = 1000;\\n    ui\n  MSTORE \t\t\tPTER_LIMIT = 1000;\\n    ui\n  PUSH 20\t\t\tnt\n  ADD \t\t\t private constant \n  SWAP1 \t\t\t private constant \n  JUMP \t\t\tURN_CYCLE_DURATION = SECONDS_P...\ntag 43\t\t\te proposalType;\\n        b\n  JUMPDEST \t\t\te proposalType;\\n        b\n  PUSH 40\t\t\te proposalType;\\n        b\n  MLOAD \t\t\te proposalType;\\n        b\n  DUP1 \t\t\te proposalType;\\n        b\n  SWAP2 \t\t\te proposalType;\\n        b\n  SUB \t\t\te proposalType;\\n        b\n  SWAP1 \t\t\te proposalType;\\n        b\n  LOG3 \t\t\te proposalType;\\n        b\n  POP \t\t\tping(address => address) publi...\n  POP \t\t\tping(address => address) publi...\n  POP \t\t\tping(address => address) publi...\n  JUMP \t\t\tping(address => address) publi...\ntag 3\t\t\te-Identifier: MIT\\npragma soli...\n  JUMPDEST \t\t\te-Identifier: MIT\\npragma soli...\n  PUSH 0\t\t\tracts/\n  PUSH 20\t\t\ton\n  DUP3 \t\t\tenzeppeli\n  DUP5 \t\t\tport \"@\n  SUB \t\t\t;\\nimport \"@openzeppelin\n  SLT \t\t\tsol\";\\nimport \"@openzeppelin/c...\n  ISZERO \t\t\t20.sol\";\\nimport \"@openzeppeli...\n  PUSH [tag] 52\t\t\t20.sol\";\\nimport \"@openzeppeli...\n  JUMPI \t\t\t20.sol\";\\nimport \"@openzeppeli...\n  PUSH 0\t\t\tR\n  DUP1 \t\t\tn\n  REVERT \t\t\tts/token/ERC\ntag 52\t\t\t20.sol\";\\nimport \"@openzeppeli...\n  JUMPDEST \t\t\t20.sol\";\\nimport \"@openzeppeli...\n  DUP2 \t\t\t\\nimport \"@openze\n  MLOAD \t\t\t\\nimport \"@openze\n  PUSH 1\t\t\t\n  PUSH 1\t\t\t\n  PUSH A0\t\t\t\n  SHL \t\t\t\n  SUB \t\t\t\n  DUP2 \t\t\tancyGuard.sol\";\\nimport \"@open...\n  AND \t\t\tancyGuard.sol\";\\nimport \"@open...\n  DUP2 \t\t\tils/ReentrancyGuard.sol\";\\nimp...\n  EQ \t\t\tils/ReentrancyGuard.sol\";\\nimp...\n  PUSH [tag] 53\t\t\tntracts/utils/ReentrancyGuard....\n  JUMPI \t\t\tntracts/utils/ReentrancyGuard....\n  PUSH 0\t\t\ts\n  DUP1 \t\t\ta\n  REVERT \t\t\tn/contracts/\ntag 53\t\t\tntracts/utils/ReentrancyGuard....\n  JUMPDEST \t\t\tntracts/utils/ReentrancyGuard....\n  SWAP4 \t\t\t\\ncont\n  SWAP3 \t\t\te-Identifier: MIT\\npragma soli...\n  POP \t\t\t\n  POP \t\t\t\n  POP \t\t\t\n  JUMP \t\t\te-Identifier: MIT\\npragma soli...\ntag 45\t\t\tis ERC20, ReentrancyGuard, Own...\n  JUMPDEST \t\t\tis ERC20, ReentrancyGuard, Own...\n  PUSH 4E487B71\t\t\tIERC20;\\n\\n \n  PUSH E0\t\t\t fo\n  SHL \t\t\tRC20 for IERC20;\\n\\n  \n  PUSH 0\t\t\tf\n  MSTORE \t\t\tsing SafeERC20 for IERC20;\\n\\n...\n  PUSH 41\t\t\tr In\n  PUSH 4\t\t\tr\n  MSTORE \t\t\ts\\n    error Inv\n  PUSH 24\t\t\t  er\n  PUSH 0\t\t\t\\n\n  REVERT \t\t\tient();\\n    err\ntag 46\t\t\tL2P();\\n    error Insufficient...\n  JUMPDEST \t\t\tL2P();\\n    error Insufficient...\n  PUSH 1\t\t\t \n  DUP2 \t\t\t);\\n    error\n  DUP2 \t\t\t);\\n    error\n  SHR \t\t\t);\\n    error\n  SWAP1 \t\t\t);\\n    error\n  DUP3 \t\t\ttPaused();\\n \n  AND \t\t\ttPaused();\\n \n  DUP1 \t\t\ttPaused();\\n \n  PUSH [tag] 56\t\t\tInvalidAddress();\\n    error B...\n  JUMPI \t\t\tInvalidAddress();\\n    error B...\n  PUSH 7F\t\t\terro\n  DUP3 \t\t\t();\\n  \n  AND \t\t\ttive();\\n    error\n  SWAP2 \t\t\tPhaseNotActive();\\n    error\n  POP \t\t\tPhaseNotActive();\\n    error\ntag 56\t\t\tInvalidAddress();\\n    error B...\n  JUMPDEST \t\t\tInvalidAddress();\\n    error B...\n  PUSH 20\t\t\t  \n  DUP3 \t\t\tance()\n  LT \t\t\tBalance();\\n   \n  DUP2 \t\t\t  error Insufficie\n  SUB \t\t\t\\n    error InsufficientBalanc...\n  PUSH [tag] 57\t\t\t();\\n    error InsufficientBal...\n  JUMPI \t\t\t();\\n    error InsufficientBal...\n  PUSH 4E487B71\t\t\tycleEnded(\n  PUSH E0\t\t\tBur\n  SHL \t\t\tror BurnCycleEnded()\n  PUSH 0\t\t\t \n  MSTORE \t\t\t();\\n    error BurnCycleEnded(...\n  PUSH 22\t\t\targe\n  PUSH 4\t\t\tr\n  MSTORE \t\t\tceedsBurnTarget\n  PUSH 24\t\t\taimC\n  PUSH 0\t\t\td\n  REVERT \t\t\t InvalidClaimCo\ntag 57\t\t\t();\\n    error InsufficientBal...\n  JUMPDEST \t\t\t();\\n    error InsufficientBal...\n  POP \t\t\t();\\n    error InsufficientBal...\n  SWAP2 \t\t\tL2P();\\n    error Insufficient...\n  SWAP1 \t\t\tL2P();\\n    error Insufficient...\n  POP \t\t\tL2P();\\n    error Insufficient...\n  JUMP \t\t\tL2P();\\n    error Insufficient...\ntag 48\t\t\t);\\n    error ExceedsBL2PBoost...\n  JUMPDEST \t\t\t);\\n    error ExceedsBL2PBoost...\n  PUSH 1F\t\t\t  \n  DUP3 \t\t\td()\n  GT \t\t\tload();\\n   \n  ISZERO \t\t\tPayload();\\n    error Proposal...\n  PUSH [tag] 60\t\t\tPayload();\\n    error Proposal...\n  JUMPI \t\t\tPayload();\\n    error Proposal...\n  PUSH 0\t\t\t \n  DUP2 \t\t\tive()\n  DUP2 \t\t\tna\n  MSTORE \t\t\tPeriodInactive();\n  PUSH 20\t\t\topos\n  DUP2 \t\t\tr \n  KECCAK256 \t\t\t;\\n    error Proposa\n  PUSH 1F\t\t\tEn\n  DUP6 \t\t\tingPeriodN\n  ADD \t\t\t VotingPeriodNotEnd\n  PUSH 5\t\t\tr\n  SHR \t\t\t  error VotingPeriodNotEnde\n  DUP2 \t\t\t();\\n\n  ADD \t\t\tmmit();\\n    error VotingPerio...\n  PUSH 20\t\t\t   e\n  DUP7 \t\t\tmNotMet();\n  LT \t\t\torumNotMet();\\n    er\n  ISZERO \t\t\t QuorumNotMet();\\n    error Vo...\n  PUSH [tag] 61\t\t\t QuorumNotMet();\\n    error Vo...\n  JUMPI \t\t\t QuorumNotMet();\\n    error Vo...\n  POP \t\t\t\n  DUP1 \t\t\totMe\ntag 61\t\t\t QuorumNotMet();\\n    error Vo...\n  JUMPDEST \t\t\t QuorumNotMet();\\n    error Vo...\n  PUSH 1F\t\t\tIn\n  DUP6 \t\t\trro\n  ADD \t\t\t   error Ins\n  PUSH 5\t\t\t;\n  SHR \t\t\ted();\\n    error Insu\n  DUP3 \t\t\ttEla\n  ADD \t\t\todNotElapsed();\\n    error Ins...\n  SWAP2 \t\t\tUnlockPeriodNotElapsed();\\n   ...\n  POP \t\t\tUnlockPeriodNotElapsed();\\n   ...\ntag 62\t\t\tons();\\n    error InvalidDeleg...\n  JUMPDEST \t\t\tons();\\n    error InvalidDeleg...\n  DUP2 \t\t\tnv\n  DUP2 \t\t\terror\n  LT \t\t\t   error Inva\n  ISZERO \t\t\tons();\\n    error InvalidDeleg...\n  PUSH [tag] 64\t\t\tons();\\n    error InvalidDeleg...\n  JUMPI \t\t\tons();\\n    error InvalidDeleg...\n  DUP3 \t\t\t);\\n    error Exce\n  DUP2 \t\t\t);\\n    error Exce\n  SSTORE \t\t\t);\\n    error Exce\n  PUSH 1\t\t\tr\n  ADD \t\t\t);\\n    error \n  PUSH [tag] 62\t\t\tons();\\n    error InvalidDeleg...\n  JUMP \t\t\tons();\\n    error InvalidDeleg...\ntag 64\t\t\tons();\\n    error InvalidDeleg...\n  JUMPDEST \t\t\tons();\\n    error InvalidDeleg...\n  POP \t\t\t);\\n\n  POP \t\t\t);\\n\n  POP \t\t\t);\\n\ntag 60\t\t\tPayload();\\n    error Proposal...\n  JUMPDEST \t\t\tPayload();\\n    error Proposal...\n  POP \t\t\t);\\n    error ExceedsBL2PBoost...\n  POP \t\t\t);\\n    error ExceedsBL2PBoost...\n  POP \t\t\t);\\n    error ExceedsBL2PBoost...\n  JUMP \t\t\t);\\n    error ExceedsBL2PBoost...\ntag 10\t\t\tLifespan();\\n    error Invalid...\n  JUMPDEST \t\t\tLifespan();\\n    error Invalid...\n  DUP2 \t\t\t   error V\n  MLOAD \t\t\t   error V\n  PUSH 1\t\t\t\n  PUSH 1\t\t\t\n  PUSH 40\t\t\t\n  SHL \t\t\t\n  SUB \t\t\t\n  DUP2 \t\t\tOutOfBounds();\\n    error NotC...\n  GT \t\t\tOutOfBounds();\\n    error NotC...\n  ISZERO \t\t\toldOutOfBounds();\\n    error N...\n  PUSH [tag] 68\t\t\toldOutOfBounds();\\n    error N...\n  JUMPI \t\t\toldOutOfBounds();\\n    error N...\n  PUSH [tag] 68\t\t\tact();\\n    error R\n  PUSH [tag] 45\t\t\tact();\\n    error R\n  JUMP \t\t\tact();\\n    error R\ntag 68\t\t\tact();\\n    error R\n  JUMPDEST \t\t\tact();\\n    error R\n  PUSH [tag] 69\t\t\tClosed();\\n    error MaxPartic...\n  DUP2 \t\t\tdropAl\n  PUSH [tag] 70\t\t\terror AlreadyRegistered();\\n  ...\n  DUP5 \t\t\trror\n  SLOAD \t\t\t\\n    error \n  PUSH [tag] 46\t\t\terror AlreadyRegistered();\\n  ...\n  JUMP \t\t\terror AlreadyRegistered();\\n  ...\ntag 70\t\t\terror AlreadyRegistered();\\n  ...\n  JUMPDEST \t\t\terror AlreadyRegistered();\\n  ...\n  DUP5 \t\t\t;\\n  \n  PUSH [tag] 48\t\t\tClosed();\\n    error MaxPartic...\n  JUMP \t\t\tClosed();\\n    error MaxPartic...\ntag 69\t\t\tClosed();\\n    error MaxPartic...\n  JUMPDEST \t\t\tClosed();\\n    error MaxPartic...\n  PUSH 20\t\t\t\\n   \n  DUP1 \t\t\t\\n   \n  PUSH 1F\t\t\tor\n  DUP4 \t\t\t();\\n    error \n  GT \t\t\t();\\n    error \n  PUSH 1\t\t\t(\n  DUP2 \t\t\taimed();\\n    error NoClaimabl...\n  EQ \t\t\taimed();\\n    error NoClaimabl...\n  PUSH [tag] 72\t\t\taimed();\\n    error NoClaimabl...\n  JUMPI \t\t\taimed();\\n    error NoClaimabl...\n  PUSH 0\t\t\t \n  DUP5 \t\t\tOwner(\n  ISZERO \t\t\teOrOwner() {\\n        if (msg....\n  PUSH [tag] 73\t\t\teOrOwner() {\\n        if (msg....\n  JUMPI \t\t\teOrOwner() {\\n        if (msg....\n  POP \t\t\t\n  DUP6 \t\t\tct && msg.sender !=\n  DUP4 \t\t\tct && msg.sender !=\n  ADD \t\t\tct && msg.sender !=\n  MLOAD \t\t\tContract && msg.sender != \ntag 73\t\t\teOrOwner() {\\n        if (msg....\n  JUMPDEST \t\t\teOrOwner() {\\n        if (msg....\n  PUSH 0\t\t\t\n  NOT \t\t\t\n  PUSH 3\t\t\ti\n  DUP7 \t\t\tnvalidMatur\n  SWAP1 \t\t\tnvalidMatur\n  SHL \t\t\tnvalidMatur\n  SHR \t\t\tor InvalidMaturationPeri\n  NOT \t\t\t error InvalidMaturationPerio\n  AND \t\t\tate();\\n    error InvalidMatur...\n  PUSH 1\t\t\t \n  DUP6 \t\t\t;\\n    error\n  SWAP1 \t\t\t;\\n    error\n  SHL \t\t\t;\\n    error\n  OR \t\t\trdRate();\\n    error InvalidMa...\n  DUP6 \t\t\ted();\\n        _;\\n    }\\n    ...\n  SSTORE \t\t\ted();\\n        _;\\n    }\\n    ...\n  PUSH [tag] 64\t\t\telisted();\\n    error AlreadyC...\n  JUMP \t\t\telisted();\\n    error AlreadyC...\ntag 72\t\t\taimed();\\n    error NoClaimabl...\n  JUMPDEST \t\t\taimed();\\n    error NoClaimabl...\n  PUSH 0\t\t\t \n  DUP6 \t\t\t();\\n    error \n  DUP2 \t\t\t();\\n    error \n  MSTORE \t\t\t();\\n    error \n  PUSH 20\t\t\tr No\n  DUP2 \t\t\te();\\n    error NoA\n  KECCAK256 \t\t\te();\\n    error NoA\n  PUSH 1F\t\t\t\n  NOT \t\t\t\n  DUP7 \t\t\t();\\n    error Propos\n  AND \t\t\t();\\n    error Propos\n  SWAP2 \t\t\t();\\n    error Propos\ntag 76\t\t\tublic trustedRecipient; // Add...\n  JUMPDEST \t\t\tublic trustedRecipient; // Add...\n  DUP3 \t\t\tecipien\n  DUP2 \t\t\te\n  LT \t\t\tustedRecipient\n  ISZERO \t\t\tublic trustedRecipient; // Add...\n  PUSH [tag] 78\t\t\tublic trustedRecipient; // Add...\n  JUMPI \t\t\tublic trustedRecipient; // Add...\n  DUP9 \t\t\tlastProposalTimesta\n  DUP7 \t\t\tlastProposalTimesta\n  ADD \t\t\tlastProposalTimesta\n  MLOAD \t\t\tublic lastProposalTimestam\n  DUP3 \t\t\ts => uint256) public lastPropo...\n  SSTORE \t\t\ts => uint256) public lastPropo...\n  SWAP5 \t\t\t\\n        require(msg.sender\n  DUP5 \t\t\t\\n        require(msg.sender\n  ADD \t\t\t\\n        require(msg.sender\n  SWAP5 \t\t\t\\n        require(msg.sender\n  PUSH 1\t\t\t \n  SWAP1 \t\t\tsalTimestamp e\n  SWAP2 \t\t\tsalTimestamp e\n  ADD \t\t\tsalTimestamp e\n  SWAP1 \t\t\tsalTimestamp e\n  DUP5 \t\t\ted to fix trustedRe\n  ADD \t\t\ted to fix trustedRe\n  PUSH [tag] 76\t\t\tublic trustedRecipient; // Add...\n  JUMP \t\t\tublic trustedRecipient; // Add...\ntag 78\t\t\tublic trustedRecipient; // Add...\n  JUMPDEST \t\t\tublic trustedRecipient; // Add...\n  POP \t\t\tc t\n  DUP6 \t\t\t      \n  DUP3 \t\t\towed\");\n  LT \t\t\tallowed\");\\n        \n  ISZERO \t\t\tot allowed\");\\n        _;\\n   ...\n  PUSH [tag] 79\t\t\tot allowed\");\\n        _;\\n   ...\n  JUMPI \t\t\tot allowed\");\\n        _;\\n   ...\n  DUP8 \t\t\tr) {\\n        if (ms\n  DUP6 \t\t\tr) {\\n        if (ms\n  ADD \t\t\tr) {\\n        if (ms\n  MLOAD \t\t\tss user) {\\n        if (msg\n  PUSH 0\t\t\t\n  NOT \t\t\t\n  PUSH 3\t\t\tA\n  DUP9 \t\t\t NotAuthorized\n  SWAP1 \t\t\t NotAuthorized\n  SHL \t\t\t NotAuthorized\n  PUSH F8\t\t\t;\\n \n  AND \t\t\tvert NotAuthorized();\\n  \n  SHR \t\t\t) revert NotAuthorized();\\n   ...\n  NOT \t\t\tract) revert NotAuthorized();\\...\n  AND \t\t\t governanceContract) revert No...\n  DUP2 \t\t\t& msg.sender != governanceCont...\n  SSTORE \t\t\t& msg.sender != governanceCont...\ntag 79\t\t\tot allowed\");\\n        _;\\n   ...\n  JUMPDEST \t\t\tot allowed\");\\n        _;\\n   ...\n  POP \t\t\t\n  POP \t\t\t\n  POP \t\t\t\n  POP \t\t\t\n  POP \t\t\t\n  PUSH 1\t\t\td\n  SWAP1 \t\t\t (emergencyPau\n  DUP2 \t\t\t (emergencyPau\n  SHL \t\t\t (emergencyPau\n  ADD \t\t\t  if (emergencyPaused)\n  SWAP1 \t\t\ted() {\\n        if (emergencyP...\n  SSTORE \t\t\ted() {\\n        if (emergencyP...\n  POP \t\t\t\n  JUMP \t\t\tLifespan();\\n    error Invalid...\ntag 36\t\t\tturationPeriod,\\n        BL2PL...\n  JUMPDEST \t\t\tturationPeriod,\\n        BL2PL...\n  DUP1 \t\t\t\\n        \n  DUP3 \t\t\t\\n        \n  ADD \t\t\t\\n        \n  DUP1 \t\t\t    VoteTh\n  DUP3 \t\t\t    VoteTh\n  GT \t\t\t    VoteTh\n  ISZERO \t\t\t       VoteThreshold,\\n       ...\n  PUSH [tag] 82\t\t\t       VoteThreshold,\\n       ...\n  JUMPI \t\t\t       VoteThreshold,\\n       ...\n  PUSH 4E487B71\t\t\t   }\\n\\n    \n  PUSH E0\t\t\tent\n  SHL \t\t\tPercent\\n    }\\n\\n    u\n  PUSH 0\t\t\tL\n  MSTORE \t\t\tegatedBL2PPercent\\n    }\\n\\n  ...\n  PUSH 11\t\t\tMAX_\n  PUSH 4\t\t\tl\n  MSTORE \t\t\timmutable MAX_S\n  PUSH 24\t\t\t* 1e\n  PUSH 0\t\t\t0\n  REVERT \t\t\t0_000_000 * 1e1\ntag 82\t\t\t       VoteThreshold,\\n       ...\n  JUMPDEST \t\t\t       VoteThreshold,\\n       ...\n  SWAP3 \t\t\tturationPeriod,\\n        BL2PL...\n  SWAP2 \t\t\tturationPeriod,\\n        BL2PL...\n  POP \t\t\tturationPeriod,\\n        BL2PL...\n  POP \t\t\tturationPeriod,\\n        BL2PL...\n  JUMP \t\t\tturationPeriod,\\n        BL2PL...\ntag 50\t\t\tURN_CYCLE_DURATION = SECONDS_P...\n  JUMPDEST \t\t\tURN_CYCLE_DURATION = SECONDS_P...\n  PUSH 80\t\t\tcontract TAAMS is ERC20, Reent...\n  MLOAD \t\t\tcontract TAAMS is ERC20, Reent...\n  PUSH A0\t\t\tcontract TAAMS is ERC20, Reent...\n  MLOAD \t\t\tcontract TAAMS is ERC20, Reent...\n  PUSH C0\t\t\tcontract TAAMS is ERC20, Reent...\n  MLOAD \t\t\tcontract TAAMS is ERC20, Reent...\n  PUSH E0\t\t\tcontract TAAMS is ERC20, Reent...\n  MLOAD \t\t\tcontract TAAMS is ERC20, Reent...\n  PUSH 100\t\t\tcontract TAAMS is ERC20, Reent...\n  MLOAD \t\t\tcontract TAAMS is ERC20, Reent...\n  PUSH #[$] 0000000000000000000000000000000000000000000000000000000000000000\t\t\tcontract TAAMS is ERC20, Reent...\n  PUSH [$] 0000000000000000000000000000000000000000000000000000000000000000\t\t\tcontract TAAMS is ERC20, Reent...\n  PUSH 0\t\t\tcontract TAAMS is ERC20, Reent...\n  CODECOPY \t\t\tcontract TAAMS is ERC20, Reent...\n  PUSH 0\t\t\tcontract TAAMS is ERC20, Reent...\n  ASSIGNIMMUTABLE 1813\t\t\tcontract TAAMS is ERC20, Reent...\n  PUSH 0\t\t\tcontract TAAMS is ERC20, Reent...\n  ASSIGNIMMUTABLE 1808\t\t\tcontract TAAMS is ERC20, Reent...\n  PUSH 0\t\t\tcontract TAAMS is ERC20, Reent...\n  ASSIGNIMMUTABLE 1803\t\t\tcontract TAAMS is ERC20, Reent...\n  PUSH 0\t\t\tcontract TAAMS is ERC20, Reent...\n  ASSIGNIMMUTABLE 1798\t\t\tcontract TAAMS is ERC20, Reent...\n  PUSH 0\t\t\tcontract TAAMS is ERC20, Reent...\n  ASSIGNIMMUTABLE 1793\t\t\tcontract TAAMS is ERC20, Reent...\n  PUSH #[$] 0000000000000000000000000000000000000000000000000000000000000000\t\t\tcontract TAAMS is ERC20, Reent...\n  PUSH 0\t\t\tcontract TAAMS is ERC20, Reent...\n  RETURN \t\t\tcontract TAAMS is ERC20, Reent...\n.data\n  0:\n    .code\n      PUSH 80\t\t\tcontract TAAMS is ERC20, Reent...\n      PUSH 40\t\t\tcontract TAAMS is ERC20, Reent...\n      MSTORE \t\t\tcontract TAAMS is ERC20, Reent...\n      CALLVALUE \t\t\tcontract TAAMS is ERC20, Reent...\n      DUP1 \t\t\tcontract TAAMS is ERC20, Reent...\n      ISZERO \t\t\tcontract TAAMS is ERC20, Reent...\n      PUSH [tag] 1\t\t\tcontract TAAMS is ERC20, Reent...\n      JUMPI \t\t\tcontract TAAMS is ERC20, Reent...\n      PUSH 0\t\t\tcontract TAAMS is ERC20, Reent...\n      DUP1 \t\t\tcontract TAAMS is ERC20, Reent...\n      REVERT \t\t\tcontract TAAMS is ERC20, Reent...\n    tag 1\t\t\tcontract TAAMS is ERC20, Reent...\n      JUMPDEST \t\t\tcontract TAAMS is ERC20, Reent...\n      POP \t\t\tcontract TAAMS is ERC20, Reent...\n      PUSH 4\t\t\tcontract TAAMS is ERC20, Reent...\n      CALLDATASIZE \t\t\tcontract TAAMS is ERC20, Reent...\n      LT \t\t\tcontract TAAMS is ERC20, Reent...\n      PUSH [tag] 2\t\t\tcontract TAAMS is ERC20, Reent...\n      JUMPI \t\t\tcontract TAAMS is ERC20, Reent...\n      PUSH 0\t\t\tcontract TAAMS is ERC20, Reent...\n      CALLDATALOAD \t\t\tcontract TAAMS is ERC20, Reent...\n      PUSH E0\t\t\tcontract TAAMS is ERC20, Reent...\n      SHR \t\t\tcontract TAAMS is ERC20, Reent...\n      DUP1 \t\t\tcontract TAAMS is ERC20, Reent...\n      PUSH 786FF4BE\t\t\tcontract TAAMS is ERC20, Reent...\n      GT \t\t\tcontract TAAMS is ERC20, Reent...\n      PUSH [tag] 94\t\t\tcontract TAAMS is ERC20, Reent...\n      JUMPI \t\t\tcontract TAAMS is ERC20, Reent...\n      DUP1 \t\t\tcontract TAAMS is ERC20, Reent...\n      PUSH A9059CBB\t\t\tcontract TAAMS is ERC20, Reent...\n      GT \t\t\tcontract TAAMS is ERC20, Reent...\n      PUSH [tag] 95\t\t\tcontract TAAMS is ERC20, Reent...\n      JUMPI \t\t\tcontract TAAMS is ERC20, Reent...\n      DUP1 \t\t\tcontract TAAMS is ERC20, Reent...\n      PUSH D89135CD\t\t\tcontract TAAMS is ERC20, Reent...\n      GT \t\t\tcontract TAAMS is ERC20, Reent...\n      PUSH [tag] 96\t\t\tcontract TAAMS is ERC20, Reent...\n      JUMPI \t\t\tcontract TAAMS is ERC20, Reent...\n      DUP1 \t\t\tcontract TAAMS is ERC20, Reent...\n      PUSH E016A04C\t\t\tcontract TAAMS is ERC20, Reent...\n      GT \t\t\tcontract TAAMS is ERC20, Reent...\n      PUSH [tag] 97\t\t\tcontract TAAMS is ERC20, Reent...\n      JUMPI \t\t\tcontract TAAMS is ERC20, Reent...\n      DUP1 \t\t\tcontract TAAMS is ERC20, Reent...\n      PUSH E016A04C\t\t\tcontract TAAMS is ERC20, Reent...\n      EQ \t\t\tcontract TAAMS is ERC20, Reent...\n      PUSH [tag] 88\t\t\tcontract TAAMS is ERC20, Reent...\n      JUMPI \t\t\tcontract TAAMS is ERC20, Reent...\n      DUP1 \t\t\tcontract TAAMS is ERC20, Reent...\n      PUSH E2A6EC78\t\t\tcontract TAAMS is ERC20, Reent...\n      EQ \t\t\tcontract TAAMS is ERC20, Reent...\n      PUSH [tag] 89\t\t\tcontract TAAMS is ERC20, Reent...\n      JUMPI \t\t\tcontract TAAMS is ERC20, Reent...\n      DUP1 \t\t\tcontract TAAMS is ERC20, Reent...\n      PUSH F2FDE38B\t\t\tcontract TAAMS is ERC20, Reent...\n      EQ \t\t\tcontract TAAMS is ERC20, Reent...\n      PUSH [tag] 90\t\t\tcontract TAAMS is ERC20, Reent...\n      JUMPI \t\t\tcontract TAAMS is ERC20, Reent...\n      DUP1 \t\t\tcontract TAAMS is ERC20, Reent...\n      PUSH F5F1E6B0\t\t\tcontract TAAMS is ERC20, Reent...\n      EQ \t\t\tcontract TAAMS is ERC20, Reent...\n      PUSH [tag] 91\t\t\tcontract TAAMS is ERC20, Reent...\n      JUMPI \t\t\tcontract TAAMS is ERC20, Reent...\n      DUP1 \t\t\tcontract TAAMS is ERC20, Reent...\n      PUSH FACC092F\t\t\tcontract TAAMS is ERC20, Reent...\n      EQ \t\t\tcontract TAAMS is ERC20, Reent...\n      PUSH [tag] 92\t\t\tcontract TAAMS is ERC20, Reent...\n      JUMPI \t\t\tcontract TAAMS is ERC20, Reent...\n      DUP1 \t\t\tcontract TAAMS is ERC20, Reent...\n      PUSH FBEA5B3B\t\t\tcontract TAAMS is ERC20, Reent...\n      EQ \t\t\tcontract TAAMS is ERC20, Reent...\n      PUSH [tag] 93\t\t\tcontract TAAMS is ERC20, Reent...\n      JUMPI \t\t\tcontract TAAMS is ERC20, Reent...\n      PUSH 0\t\t\tcontract TAAMS is ERC20, Reent...\n      DUP1 \t\t\tcontract TAAMS is ERC20, Reent...\n      REVERT \t\t\tcontract TAAMS is ERC20, Reent...\n    tag 97\t\t\tcontract TAAMS is ERC20, Reent...\n      JUMPDEST \t\t\tcontract TAAMS is ERC20, Reent...\n      DUP1 \t\t\tcontract TAAMS is ERC20, Reent...\n      PUSH D89135CD\t\t\tcontract TAAMS is ERC20, Reent...\n      EQ \t\t\tcontract TAAMS is ERC20, Reent...\n      PUSH [tag] 82\t\t\tcontract TAAMS is ERC20, Reent...\n      JUMPI \t\t\tcontract TAAMS is ERC20, Reent...\n      DUP1 \t\t\tcontract TAAMS is ERC20, Reent...\n      PUSH DA35C664\t\t\tcontract TAAMS is ERC20, Reent...\n      EQ \t\t\tcontract TAAMS is ERC20, Reent...\n      PUSH [tag] 83\t\t\tcontract TAAMS is ERC20, Reent...\n      JUMPI \t\t\tcontract TAAMS is ERC20, Reent...\n      DUP1 \t\t\tcontract TAAMS is ERC20, Reent...\n      PUSH DCFCF974\t\t\tcontract TAAMS is ERC20, Reent...\n      EQ \t\t\tcontract TAAMS is ERC20, Reent...\n      PUSH [tag] 84\t\t\tcontract TAAMS is ERC20, Reent...\n      JUMPI \t\t\tcontract TAAMS is ERC20, Reent...\n      DUP1 \t\t\tcontract TAAMS is ERC20, Reent...\n      PUSH DD62ED3E\t\t\tcontract TAAMS is ERC20, Reent...\n      EQ \t\t\tcontract TAAMS is ERC20, Reent...\n      PUSH [tag] 85\t\t\tcontract TAAMS is ERC20, Reent...\n      JUMPI \t\t\tcontract TAAMS is ERC20, Reent...\n      DUP1 \t\t\tcontract TAAMS is ERC20, Reent...\n      PUSH DE1CF4AD\t\t\tcontract TAAMS is ERC20, Reent...\n      EQ \t\t\tcontract TAAMS is ERC20, Reent...\n      PUSH [tag] 86\t\t\tcontract TAAMS is ERC20, Reent...\n      JUMPI \t\t\tcontract TAAMS is ERC20, Reent...\n      DUP1 \t\t\tcontract TAAMS is ERC20, Reent...\n      PUSH DFC06C29\t\t\tcontract TAAMS is ERC20, Reent...\n      EQ \t\t\tcontract TAAMS is ERC20, Reent...\n      PUSH [tag] 87\t\t\tcontract TAAMS is ERC20, Reent...\n      JUMPI \t\t\tcontract TAAMS is ERC20, Reent...\n      PUSH 0\t\t\tcontract TAAMS is ERC20, Reent...\n      DUP1 \t\t\tcontract TAAMS is ERC20, Reent...\n      REVERT \t\t\tcontract TAAMS is ERC20, Reent...\n    tag 96\t\t\tcontract TAAMS is ERC20, Reent...\n      JUMPDEST \t\t\tcontract TAAMS is ERC20, Reent...\n      DUP1 \t\t\tcontract TAAMS is ERC20, Reent...\n      PUSH BA59931D\t\t\tcontract TAAMS is ERC20, Reent...\n      GT \t\t\tcontract TAAMS is ERC20, Reent...\n      PUSH [tag] 98\t\t\tcontract TAAMS is ERC20, Reent...\n      JUMPI \t\t\tcontract TAAMS is ERC20, Reent...\n      DUP1 \t\t\tcontract TAAMS is ERC20, Reent...\n      PUSH BA59931D\t\t\tcontract TAAMS is ERC20, Reent...\n      EQ \t\t\tcontract TAAMS is ERC20, Reent...\n      PUSH [tag] 76\t\t\tcontract TAAMS is ERC20, Reent...\n      JUMPI \t\t\tcontract TAAMS is ERC20, Reent...\n      DUP1 \t\t\tcontract TAAMS is ERC20, Reent...\n      PUSH BCEA610E\t\t\tcontract TAAMS is ERC20, Reent...\n      EQ \t\t\tcontract TAAMS is ERC20, Reent...\n      PUSH [tag] 77\t\t\tcontract TAAMS is ERC20, Reent...\n      JUMPI \t\t\tcontract TAAMS is ERC20, Reent...\n      DUP1 \t\t\tcontract TAAMS is ERC20, Reent...\n      PUSH C998C53F\t\t\tcontract TAAMS is ERC20, Reent...\n      EQ \t\t\tcontract TAAMS is ERC20, Reent...\n      PUSH [tag] 78\t\t\tcontract TAAMS is ERC20, Reent...\n      JUMPI \t\t\tcontract TAAMS is ERC20, Reent...\n      DUP1 \t\t\tcontract TAAMS is ERC20, Reent...\n      PUSH CA409D81\t\t\tcontract TAAMS is ERC20, Reent...\n      EQ \t\t\tcontract TAAMS is ERC20, Reent...\n      PUSH [tag] 79\t\t\tcontract TAAMS is ERC20, Reent...\n      JUMPI \t\t\tcontract TAAMS is ERC20, Reent...\n      DUP1 \t\t\tcontract TAAMS is ERC20, Reent...\n      PUSH CCD82CD6\t\t\tcontract TAAMS is ERC20, Reent...\n      EQ \t\t\tcontract TAAMS is ERC20, Reent...\n      PUSH [tag] 80\t\t\tcontract TAAMS is ERC20, Reent...\n      JUMPI \t\t\tcontract TAAMS is ERC20, Reent...\n      DUP1 \t\t\tcontract TAAMS is ERC20, Reent...\n      PUSH D2E518C5\t\t\tcontract TAAMS is ERC20, Reent...\n      EQ \t\t\tcontract TAAMS is ERC20, Reent...\n      PUSH [tag] 81\t\t\tcontract TAAMS is ERC20, Reent...\n      JUMPI \t\t\tcontract TAAMS is ERC20, Reent...\n      PUSH 0\t\t\tcontract TAAMS is ERC20, Reent...\n      DUP1 \t\t\tcontract TAAMS is ERC20, Reent...\n      REVERT \t\t\tcontract TAAMS is ERC20, Reent...\n    tag 98\t\t\tcontract TAAMS is ERC20, Reent...\n      JUMPDEST \t\t\tcontract TAAMS is ERC20, Reent...\n      DUP1 \t\t\tcontract TAAMS is ERC20, Reent...\n      PUSH A9059CBB\t\t\tcontract TAAMS is ERC20, Reent...\n      EQ \t\t\tcontract TAAMS is ERC20, Reent...\n      PUSH [tag] 71\t\t\tcontract TAAMS is ERC20, Reent...\n      JUMPI \t\t\tcontract TAAMS is ERC20, Reent...\n      DUP1 \t\t\tcontract TAAMS is ERC20, Reent...\n      PUSH B08E181E\t\t\tcontract TAAMS is ERC20, Reent...\n      EQ \t\t\tcontract TAAMS is ERC20, Reent...\n      PUSH [tag] 72\t\t\tcontract TAAMS is ERC20, Reent...\n      JUMPI \t\t\tcontract TAAMS is ERC20, Reent...\n      DUP1 \t\t\tcontract TAAMS is ERC20, Reent...\n      PUSH B172B222\t\t\tcontract TAAMS is ERC20, Reent...\n      EQ \t\t\tcontract TAAMS is ERC20, Reent...\n      PUSH [tag] 73\t\t\tcontract TAAMS is ERC20, Reent...\n      JUMPI \t\t\tcontract TAAMS is ERC20, Reent...\n      DUP1 \t\t\tcontract TAAMS is ERC20, Reent...\n      PUSH B4AC4536\t\t\tcontract TAAMS is ERC20, Reent...\n      EQ \t\t\tcontract TAAMS is ERC20, Reent...\n      PUSH [tag] 74\t\t\tcontract TAAMS is ERC20, Reent...\n      JUMPI \t\t\tcontract TAAMS is ERC20, Reent...\n      DUP1 \t\t\tcontract TAAMS is ERC20, Reent...\n      PUSH B8FCA4FC\t\t\tcontract TAAMS is ERC20, Reent...\n      EQ \t\t\tcontract TAAMS is ERC20, Reent...\n      PUSH [tag] 75\t\t\tcontract TAAMS is ERC20, Reent...\n      JUMPI \t\t\tcontract TAAMS is ERC20, Reent...\n      PUSH 0\t\t\tcontract TAAMS is ERC20, Reent...\n      DUP1 \t\t\tcontract TAAMS is ERC20, Reent...\n      REVERT \t\t\tcontract TAAMS is ERC20, Reent...\n    tag 95\t\t\tcontract TAAMS is ERC20, Reent...\n      JUMPDEST \t\t\tcontract TAAMS is ERC20, Reent...\n      DUP1 \t\t\tcontract TAAMS is ERC20, Reent...\n      PUSH 95D89B41\t\t\tcontract TAAMS is ERC20, Reent...\n      GT \t\t\tcontract TAAMS is ERC20, Reent...\n      PUSH [tag] 99\t\t\tcontract TAAMS is ERC20, Reent...\n      JUMPI \t\t\tcontract TAAMS is ERC20, Reent...\n      DUP1 \t\t\tcontract TAAMS is ERC20, Reent...\n      PUSH 9CA423B3\t\t\tcontract TAAMS is ERC20, Reent...\n      GT \t\t\tcontract TAAMS is ERC20, Reent...\n      PUSH [tag] 100\t\t\tcontract TAAMS is ERC20, Reent...\n      JUMPI \t\t\tcontract TAAMS is ERC20, Reent...\n      DUP1 \t\t\tcontract TAAMS is ERC20, Reent...\n      PUSH 9CA423B3\t\t\tcontract TAAMS is ERC20, Reent...\n      EQ \t\t\tcontract TAAMS is ERC20, Reent...\n      PUSH [tag] 65\t\t\tcontract TAAMS is ERC20, Reent...\n      JUMPI \t\t\tcontract TAAMS is ERC20, Reent...\n      DUP1 \t\t\tcontract TAAMS is ERC20, Reent...\n      PUSH 9DA69180\t\t\tcontract TAAMS is ERC20, Reent...\n      EQ \t\t\tcontract TAAMS is ERC20, Reent...\n      PUSH [tag] 66\t\t\tcontract TAAMS is ERC20, Reent...\n      JUMPI \t\t\tcontract TAAMS is ERC20, Reent...\n      DUP1 \t\t\tcontract TAAMS is ERC20, Reent...\n      PUSH A0EF4D0E\t\t\tcontract TAAMS is ERC20, Reent...\n      EQ \t\t\tcontract TAAMS is ERC20, Reent...\n      PUSH [tag] 67\t\t\tcontract TAAMS is ERC20, Reent...\n      JUMPI \t\t\tcontract TAAMS is ERC20, Reent...\n      DUP1 \t\t\tcontract TAAMS is ERC20, Reent...\n      PUSH A2906FD0\t\t\tcontract TAAMS is ERC20, Reent...\n      EQ \t\t\tcontract TAAMS is ERC20, Reent...\n      PUSH [tag] 68\t\t\tcontract TAAMS is ERC20, Reent...\n      JUMPI \t\t\tcontract TAAMS is ERC20, Reent...\n      DUP1 \t\t\tcontract TAAMS is ERC20, Reent...\n      PUSH A4D31805\t\t\tcontract TAAMS is ERC20, Reent...\n      EQ \t\t\tcontract TAAMS is ERC20, Reent...\n      PUSH [tag] 69\t\t\tcontract TAAMS is ERC20, Reent...\n      JUMPI \t\t\tcontract TAAMS is ERC20, Reent...\n      DUP1 \t\t\tcontract TAAMS is ERC20, Reent...\n      PUSH A694FC3A\t\t\tcontract TAAMS is ERC20, Reent...\n      EQ \t\t\tcontract TAAMS is ERC20, Reent...\n      PUSH [tag] 70\t\t\tcontract TAAMS is ERC20, Reent...\n      JUMPI \t\t\tcontract TAAMS is ERC20, Reent...\n      PUSH 0\t\t\tcontract TAAMS is ERC20, Reent...\n      DUP1 \t\t\tcontract TAAMS is ERC20, Reent...\n      REVERT \t\t\tcontract TAAMS is ERC20, Reent...\n    tag 100\t\t\tcontract TAAMS is ERC20, Reent...\n      JUMPDEST \t\t\tcontract TAAMS is ERC20, Reent...\n      DUP1 \t\t\tcontract TAAMS is ERC20, Reent...\n      PUSH 95D89B41\t\t\tcontract TAAMS is ERC20, Reent...\n      EQ \t\t\tcontract TAAMS is ERC20, Reent...\n      PUSH [tag] 59\t\t\tcontract TAAMS is ERC20, Reent...\n      JUMPI \t\t\tcontract TAAMS is ERC20, Reent...\n      DUP1 \t\t\tcontract TAAMS is ERC20, Reent...\n      PUSH 96ADBF8C\t\t\tcontract TAAMS is ERC20, Reent...\n      EQ \t\t\tcontract TAAMS is ERC20, Reent...\n      PUSH [tag] 60\t\t\tcontract TAAMS is ERC20, Reent...\n      JUMPI \t\t\tcontract TAAMS is ERC20, Reent...\n      DUP1 \t\t\tcontract TAAMS is ERC20, Reent...\n      PUSH 9885B7E1\t\t\tcontract TAAMS is ERC20, Reent...\n      EQ \t\t\tcontract TAAMS is ERC20, Reent...\n      PUSH [tag] 61\t\t\tcontract TAAMS is ERC20, Reent...\n      JUMPI \t\t\tcontract TAAMS is ERC20, Reent...\n      DUP1 \t\t\tcontract TAAMS is ERC20, Reent...\n      PUSH 99AA12BB\t\t\tcontract TAAMS is ERC20, Reent...\n      EQ \t\t\tcontract TAAMS is ERC20, Reent...\n      PUSH [tag] 62\t\t\tcontract TAAMS is ERC20, Reent...\n      JUMPI \t\t\tcontract TAAMS is ERC20, Reent...\n      DUP1 \t\t\tcontract TAAMS is ERC20, Reent...\n      PUSH 9A63F604\t\t\tcontract TAAMS is ERC20, Reent...\n      EQ \t\t\tcontract TAAMS is ERC20, Reent...\n      PUSH [tag] 63\t\t\tcontract TAAMS is ERC20, Reent...\n      JUMPI \t\t\tcontract TAAMS is ERC20, Reent...\n      DUP1 \t\t\tcontract TAAMS is ERC20, Reent...\n      PUSH 9BFDAE5E\t\t\tcontract TAAMS is ERC20, Reent...\n      EQ \t\t\tcontract TAAMS is ERC20, Reent...\n      PUSH [tag] 64\t\t\tcontract TAAMS is ERC20, Reent...\n      JUMPI \t\t\tcontract TAAMS is ERC20, Reent...\n      PUSH 0\t\t\tcontract TAAMS is ERC20, Reent...\n      DUP1 \t\t\tcontract TAAMS is ERC20, Reent...\n      REVERT \t\t\tcontract TAAMS is ERC20, Reent...\n    tag 99\t\t\tcontract TAAMS is ERC20, Reent...\n      JUMPDEST \t\t\tcontract TAAMS is ERC20, Reent...\n      DUP1 \t\t\tcontract TAAMS is ERC20, Reent...\n      PUSH 7F09DC31\t\t\tcontract TAAMS is ERC20, Reent...\n      GT \t\t\tcontract TAAMS is ERC20, Reent...\n      PUSH [tag] 101\t\t\tcontract TAAMS is ERC20, Reent...\n      JUMPI \t\t\tcontract TAAMS is ERC20, Reent...\n      DUP1 \t\t\tcontract TAAMS is ERC20, Reent...\n      PUSH 7F09DC31\t\t\tcontract TAAMS is ERC20, Reent...\n      EQ \t\t\tcontract TAAMS is ERC20, Reent...\n      PUSH [tag] 53\t\t\tcontract TAAMS is ERC20, Reent...\n      JUMPI \t\t\tcontract TAAMS is ERC20, Reent...\n      DUP1 \t\t\tcontract TAAMS is ERC20, Reent...\n      PUSH 80A78549\t\t\tcontract TAAMS is ERC20, Reent...\n      EQ \t\t\tcontract TAAMS is ERC20, Reent...\n      PUSH [tag] 54\t\t\tcontract TAAMS is ERC20, Reent...\n      JUMPI \t\t\tcontract TAAMS is ERC20, Reent...\n      DUP1 \t\t\tcontract TAAMS is ERC20, Reent...\n      PUSH 817B1CD2\t\t\tcontract TAAMS is ERC20, Reent...\n      EQ \t\t\tcontract TAAMS is ERC20, Reent...\n      PUSH [tag] 55\t\t\tcontract TAAMS is ERC20, Reent...\n      JUMPI \t\t\tcontract TAAMS is ERC20, Reent...\n      DUP1 \t\t\tcontract TAAMS is ERC20, Reent...\n      PUSH 8DA5CB5B\t\t\tcontract TAAMS is ERC20, Reent...\n      EQ \t\t\tcontract TAAMS is ERC20, Reent...\n      PUSH [tag] 56\t\t\tcontract TAAMS is ERC20, Reent...\n      JUMPI \t\t\tcontract TAAMS is ERC20, Reent...\n      DUP1 \t\t\tcontract TAAMS is ERC20, Reent...\n      PUSH 926F7327\t\t\tcontract TAAMS is ERC20, Reent...\n      EQ \t\t\tcontract TAAMS is ERC20, Reent...\n      PUSH [tag] 57\t\t\tcontract TAAMS is ERC20, Reent...\n      JUMPI \t\t\tcontract TAAMS is ERC20, Reent...\n      DUP1 \t\t\tcontract TAAMS is ERC20, Reent...\n      PUSH 938D40E8\t\t\tcontract TAAMS is ERC20, Reent...\n      EQ \t\t\tcontract TAAMS is ERC20, Reent...\n      PUSH [tag] 58\t\t\tcontract TAAMS is ERC20, Reent...\n      JUMPI \t\t\tcontract TAAMS is ERC20, Reent...\n      PUSH 0\t\t\tcontract TAAMS is ERC20, Reent...\n      DUP1 \t\t\tcontract TAAMS is ERC20, Reent...\n      REVERT \t\t\tcontract TAAMS is ERC20, Reent...\n    tag 101\t\t\tcontract TAAMS is ERC20, Reent...\n      JUMPDEST \t\t\tcontract TAAMS is ERC20, Reent...\n      DUP1 \t\t\tcontract TAAMS is ERC20, Reent...\n      PUSH 786FF4BE\t\t\tcontract TAAMS is ERC20, Reent...\n      EQ \t\t\tcontract TAAMS is ERC20, Reent...\n      PUSH [tag] 48\t\t\tcontract TAAMS is ERC20, Reent...\n      JUMPI \t\t\tcontract TAAMS is ERC20, Reent...\n      DUP1 \t\t\tcontract TAAMS is ERC20, Reent...\n      PUSH 7BDE5DF8\t\t\tcontract TAAMS is ERC20, Reent...\n      EQ \t\t\tcontract TAAMS is ERC20, Reent...\n      PUSH [tag] 49\t\t\tcontract TAAMS is ERC20, Reent...\n      JUMPI \t\t\tcontract TAAMS is ERC20, Reent...\n      DUP1 \t\t\tcontract TAAMS is ERC20, Reent...\n      PUSH 7C7E62E5\t\t\tcontract TAAMS is ERC20, Reent...\n      EQ \t\t\tcontract TAAMS is ERC20, Reent...\n      PUSH [tag] 50\t\t\tcontract TAAMS is ERC20, Reent...\n      JUMPI \t\t\tcontract TAAMS is ERC20, Reent...\n      DUP1 \t\t\tcontract TAAMS is ERC20, Reent...\n      PUSH 7D58AEB6\t\t\tcontract TAAMS is ERC20, Reent...\n      EQ \t\t\tcontract TAAMS is ERC20, Reent...\n      PUSH [tag] 51\t\t\tcontract TAAMS is ERC20, Reent...\n      JUMPI \t\t\tcontract TAAMS is ERC20, Reent...\n      DUP1 \t\t\tcontract TAAMS is ERC20, Reent...\n      PUSH 7ED3DEBA\t\t\tcontract TAAMS is ERC20, Reent...\n      EQ \t\t\tcontract TAAMS is ERC20, Reent...\n      PUSH [tag] 52\t\t\tcontract TAAMS is ERC20, Reent...\n      JUMPI \t\t\tcontract TAAMS is ERC20, Reent...\n      PUSH 0\t\t\tcontract TAAMS is ERC20, Reent...\n      DUP1 \t\t\tcontract TAAMS is ERC20, Reent...\n      REVERT \t\t\tcontract TAAMS is ERC20, Reent...\n    tag 94\t\t\tcontract TAAMS is ERC20, Reent...\n      JUMPDEST \t\t\tcontract TAAMS is ERC20, Reent...\n      DUP1 \t\t\tcontract TAAMS is ERC20, Reent...\n      PUSH 302A6528\t\t\tcontract TAAMS is ERC20, Reent...\n      GT \t\t\tcontract TAAMS is ERC20, Reent...\n      PUSH [tag] 102\t\t\tcontract TAAMS is ERC20, Reent...\n      JUMPI \t\t\tcontract TAAMS is ERC20, Reent...\n      DUP1 \t\t\tcontract TAAMS is ERC20, Reent...\n      PUSH 5162F626\t\t\tcontract TAAMS is ERC20, Reent...\n      GT \t\t\tcontract TAAMS is ERC20, Reent...\n      PUSH [tag] 103\t\t\tcontract TAAMS is ERC20, Reent...\n      JUMPI \t\t\tcontract TAAMS is ERC20, Reent...\n      DUP1 \t\t\tcontract TAAMS is ERC20, Reent...\n      PUSH 715018A6\t\t\tcontract TAAMS is ERC20, Reent...\n      GT \t\t\tcontract TAAMS is ERC20, Reent...\n      PUSH [tag] 104\t\t\tcontract TAAMS is ERC20, Reent...\n      JUMPI \t\t\tcontract TAAMS is ERC20, Reent...\n      DUP1 \t\t\tcontract TAAMS is ERC20, Reent...\n      PUSH 715018A6\t\t\tcontract TAAMS is ERC20, Reent...\n      EQ \t\t\tcontract TAAMS is ERC20, Reent...\n      PUSH [tag] 42\t\t\tcontract TAAMS is ERC20, Reent...\n      JUMPI \t\t\tcontract TAAMS is ERC20, Reent...\n      DUP1 \t\t\tcontract TAAMS is ERC20, Reent...\n      PUSH 72677D3C\t\t\tcontract TAAMS is ERC20, Reent...\n      EQ \t\t\tcontract TAAMS is ERC20, Reent...\n      PUSH [tag] 43\t\t\tcontract TAAMS is ERC20, Reent...\n      JUMPI \t\t\tcontract TAAMS is ERC20, Reent...\n      DUP1 \t\t\tcontract TAAMS is ERC20, Reent...\n      PUSH 72DFE348\t\t\tcontract TAAMS is ERC20, Reent...\n      EQ \t\t\tcontract TAAMS is ERC20, Reent...\n      PUSH [tag] 44\t\t\tcontract TAAMS is ERC20, Reent...\n      JUMPI \t\t\tcontract TAAMS is ERC20, Reent...\n      DUP1 \t\t\tcontract TAAMS is ERC20, Reent...\n      PUSH 72F721AC\t\t\tcontract TAAMS is ERC20, Reent...\n      EQ \t\t\tcontract TAAMS is ERC20, Reent...\n      PUSH [tag] 45\t\t\tcontract TAAMS is ERC20, Reent...\n      JUMPI \t\t\tcontract TAAMS is ERC20, Reent...\n      DUP1 \t\t\tcontract TAAMS is ERC20, Reent...\n      PUSH 76C8F6D1\t\t\tcontract TAAMS is ERC20, Reent...\n      EQ \t\t\tcontract TAAMS is ERC20, Reent...\n      PUSH [tag] 46\t\t\tcontract TAAMS is ERC20, Reent...\n      JUMPI \t\t\tcontract TAAMS is ERC20, Reent...\n      DUP1 \t\t\tcontract TAAMS is ERC20, Reent...\n      PUSH 77D217ED\t\t\tcontract TAAMS is ERC20, Reent...\n      EQ \t\t\tcontract TAAMS is ERC20, Reent...\n      PUSH [tag] 47\t\t\tcontract TAAMS is ERC20, Reent...\n      JUMPI \t\t\tcontract TAAMS is ERC20, Reent...\n      PUSH 0\t\t\tcontract TAAMS is ERC20, Reent...\n      DUP1 \t\t\tcontract TAAMS is ERC20, Reent...\n      REVERT \t\t\tcontract TAAMS is ERC20, Reent...\n    tag 104\t\t\tcontract TAAMS is ERC20, Reent...\n      JUMPDEST \t\t\tcontract TAAMS is ERC20, Reent...\n      DUP1 \t\t\tcontract TAAMS is ERC20, Reent...\n      PUSH 5162F626\t\t\tcontract TAAMS is ERC20, Reent...\n      EQ \t\t\tcontract TAAMS is ERC20, Reent...\n      PUSH [tag] 36\t\t\tcontract TAAMS is ERC20, Reent...\n      JUMPI \t\t\tcontract TAAMS is ERC20, Reent...\n      DUP1 \t\t\tcontract TAAMS is ERC20, Reent...\n      PUSH 5778712C\t\t\tcontract TAAMS is ERC20, Reent...\n      EQ \t\t\tcontract TAAMS is ERC20, Reent...\n      PUSH [tag] 37\t\t\tcontract TAAMS is ERC20, Reent...\n      JUMPI \t\t\tcontract TAAMS is ERC20, Reent...\n      DUP1 \t\t\tcontract TAAMS is ERC20, Reent...\n      PUSH 6A9B1FBF\t\t\tcontract TAAMS is ERC20, Reent...\n      EQ \t\t\tcontract TAAMS is ERC20, Reent...\n      PUSH [tag] 38\t\t\tcontract TAAMS is ERC20, Reent...\n      JUMPI \t\t\tcontract TAAMS is ERC20, Reent...\n      DUP1 \t\t\tcontract TAAMS is ERC20, Reent...\n      PUSH 6D0E4378\t\t\tcontract TAAMS is ERC20, Reent...\n      EQ \t\t\tcontract TAAMS is ERC20, Reent...\n      PUSH [tag] 39\t\t\tcontract TAAMS is ERC20, Reent...\n      JUMPI \t\t\tcontract TAAMS is ERC20, Reent...\n      DUP1 \t\t\tcontract TAAMS is ERC20, Reent...\n      PUSH 6DBFAD91\t\t\tcontract TAAMS is ERC20, Reent...\n      EQ \t\t\tcontract TAAMS is ERC20, Reent...\n      PUSH [tag] 40\t\t\tcontract TAAMS is ERC20, Reent...\n      JUMPI \t\t\tcontract TAAMS is ERC20, Reent...\n      DUP1 \t\t\tcontract TAAMS is ERC20, Reent...\n      PUSH 70A08231\t\t\tcontract TAAMS is ERC20, Reent...\n      EQ \t\t\tcontract TAAMS is ERC20, Reent...\n      PUSH [tag] 41\t\t\tcontract TAAMS is ERC20, Reent...\n      JUMPI \t\t\tcontract TAAMS is ERC20, Reent...\n      PUSH 0\t\t\tcontract TAAMS is ERC20, Reent...\n      DUP1 \t\t\tcontract TAAMS is ERC20, Reent...\n      REVERT \t\t\tcontract TAAMS is ERC20, Reent...\n    tag 103\t\t\tcontract TAAMS is ERC20, Reent...\n      JUMPDEST \t\t\tcontract TAAMS is ERC20, Reent...\n      DUP1 \t\t\tcontract TAAMS is ERC20, Reent...\n      PUSH 3667CA1B\t\t\tcontract TAAMS is ERC20, Reent...\n      GT \t\t\tcontract TAAMS is ERC20, Reent...\n      PUSH [tag] 105\t\t\tcontract TAAMS is ERC20, Reent...\n      JUMPI \t\t\tcontract TAAMS is ERC20, Reent...\n      DUP1 \t\t\tcontract TAAMS is ERC20, Reent...\n      PUSH 3667CA1B\t\t\tcontract TAAMS is ERC20, Reent...\n      EQ \t\t\tcontract TAAMS is ERC20, Reent...\n      PUSH [tag] 30\t\t\tcontract TAAMS is ERC20, Reent...\n      JUMPI \t\t\tcontract TAAMS is ERC20, Reent...\n      DUP1 \t\t\tcontract TAAMS is ERC20, Reent...\n      PUSH 3CC39F16\t\t\tcontract TAAMS is ERC20, Reent...\n      EQ \t\t\tcontract TAAMS is ERC20, Reent...\n      PUSH [tag] 31\t\t\tcontract TAAMS is ERC20, Reent...\n      JUMPI \t\t\tcontract TAAMS is ERC20, Reent...\n      DUP1 \t\t\tcontract TAAMS is ERC20, Reent...\n      PUSH 40D74F18\t\t\tcontract TAAMS is ERC20, Reent...\n      EQ \t\t\tcontract TAAMS is ERC20, Reent...\n      PUSH [tag] 32\t\t\tcontract TAAMS is ERC20, Reent...\n      JUMPI \t\t\tcontract TAAMS is ERC20, Reent...\n      DUP1 \t\t\tcontract TAAMS is ERC20, Reent...\n      PUSH 413236F7\t\t\tcontract TAAMS is ERC20, Reent...\n      EQ \t\t\tcontract TAAMS is ERC20, Reent...\n      PUSH [tag] 33\t\t\tcontract TAAMS is ERC20, Reent...\n      JUMPI \t\t\tcontract TAAMS is ERC20, Reent...\n      DUP1 \t\t\tcontract TAAMS is ERC20, Reent...\n      PUSH 44512CA6\t\t\tcontract TAAMS is ERC20, Reent...\n      EQ \t\t\tcontract TAAMS is ERC20, Reent...\n      PUSH [tag] 34\t\t\tcontract TAAMS is ERC20, Reent...\n      JUMPI \t\t\tcontract TAAMS is ERC20, Reent...\n      DUP1 \t\t\tcontract TAAMS is ERC20, Reent...\n      PUSH 467F67F9\t\t\tcontract TAAMS is ERC20, Reent...\n      EQ \t\t\tcontract TAAMS is ERC20, Reent...\n      PUSH [tag] 35\t\t\tcontract TAAMS is ERC20, Reent...\n      JUMPI \t\t\tcontract TAAMS is ERC20, Reent...\n      PUSH 0\t\t\tcontract TAAMS is ERC20, Reent...\n      DUP1 \t\t\tcontract TAAMS is ERC20, Reent...\n      REVERT \t\t\tcontract TAAMS is ERC20, Reent...\n    tag 105\t\t\tcontract TAAMS is ERC20, Reent...\n      JUMPDEST \t\t\tcontract TAAMS is ERC20, Reent...\n      DUP1 \t\t\tcontract TAAMS is ERC20, Reent...\n      PUSH 302A6528\t\t\tcontract TAAMS is ERC20, Reent...\n      EQ \t\t\tcontract TAAMS is ERC20, Reent...\n      PUSH [tag] 25\t\t\tcontract TAAMS is ERC20, Reent...\n      JUMPI \t\t\tcontract TAAMS is ERC20, Reent...\n      DUP1 \t\t\tcontract TAAMS is ERC20, Reent...\n      PUSH 30373133\t\t\tcontract TAAMS is ERC20, Reent...\n      EQ \t\t\tcontract TAAMS is ERC20, Reent...\n      PUSH [tag] 26\t\t\tcontract TAAMS is ERC20, Reent...\n      JUMPI \t\t\tcontract TAAMS is ERC20, Reent...\n      DUP1 \t\t\tcontract TAAMS is ERC20, Reent...\n      PUSH 313CE567\t\t\tcontract TAAMS is ERC20, Reent...\n      EQ \t\t\tcontract TAAMS is ERC20, Reent...\n      PUSH [tag] 27\t\t\tcontract TAAMS is ERC20, Reent...\n      JUMPI \t\t\tcontract TAAMS is ERC20, Reent...\n      DUP1 \t\t\tcontract TAAMS is ERC20, Reent...\n      PUSH 32CB6B0C\t\t\tcontract TAAMS is ERC20, Reent...\n      EQ \t\t\tcontract TAAMS is ERC20, Reent...\n      PUSH [tag] 28\t\t\tcontract TAAMS is ERC20, Reent...\n      JUMPI \t\t\tcontract TAAMS is ERC20, Reent...\n      DUP1 \t\t\tcontract TAAMS is ERC20, Reent...\n      PUSH 3426EA46\t\t\tcontract TAAMS is ERC20, Reent...\n      EQ \t\t\tcontract TAAMS is ERC20, Reent...\n      PUSH [tag] 29\t\t\tcontract TAAMS is ERC20, Reent...\n      JUMPI \t\t\tcontract TAAMS is ERC20, Reent...\n      PUSH 0\t\t\tcontract TAAMS is ERC20, Reent...\n      DUP1 \t\t\tcontract TAAMS is ERC20, Reent...\n      REVERT \t\t\tcontract TAAMS is ERC20, Reent...\n    tag 102\t\t\tcontract TAAMS is ERC20, Reent...\n      JUMPDEST \t\t\tcontract TAAMS is ERC20, Reent...\n      DUP1 \t\t\tcontract TAAMS is ERC20, Reent...\n      PUSH 1AECC93A\t\t\tcontract TAAMS is ERC20, Reent...\n      GT \t\t\tcontract TAAMS is ERC20, Reent...\n      PUSH [tag] 106\t\t\tcontract TAAMS is ERC20, Reent...\n      JUMPI \t\t\tcontract TAAMS is ERC20, Reent...\n      DUP1 \t\t\tcontract TAAMS is ERC20, Reent...\n      PUSH 25AC2B92\t\t\tcontract TAAMS is ERC20, Reent...\n      GT \t\t\tcontract TAAMS is ERC20, Reent...\n      PUSH [tag] 107\t\t\tcontract TAAMS is ERC20, Reent...\n      JUMPI \t\t\tcontract TAAMS is ERC20, Reent...\n      DUP1 \t\t\tcontract TAAMS is ERC20, Reent...\n      PUSH 25AC2B92\t\t\tcontract TAAMS is ERC20, Reent...\n      EQ \t\t\tcontract TAAMS is ERC20, Reent...\n      PUSH [tag] 19\t\t\tcontract TAAMS is ERC20, Reent...\n      JUMPI \t\t\tcontract TAAMS is ERC20, Reent...\n      DUP1 \t\t\tcontract TAAMS is ERC20, Reent...\n      PUSH 27A489E3\t\t\tcontract TAAMS is ERC20, Reent...\n      EQ \t\t\tcontract TAAMS is ERC20, Reent...\n      PUSH [tag] 20\t\t\tcontract TAAMS is ERC20, Reent...\n      JUMPI \t\t\tcontract TAAMS is ERC20, Reent...\n      DUP1 \t\t\tcontract TAAMS is ERC20, Reent...\n      PUSH 27C830A9\t\t\tcontract TAAMS is ERC20, Reent...\n      EQ \t\t\tcontract TAAMS is ERC20, Reent...\n      PUSH [tag] 21\t\t\tcontract TAAMS is ERC20, Reent...\n      JUMPI \t\t\tcontract TAAMS is ERC20, Reent...\n      DUP1 \t\t\tcontract TAAMS is ERC20, Reent...\n      PUSH 297A97D7\t\t\tcontract TAAMS is ERC20, Reent...\n      EQ \t\t\tcontract TAAMS is ERC20, Reent...\n      PUSH [tag] 22\t\t\tcontract TAAMS is ERC20, Reent...\n      JUMPI \t\t\tcontract TAAMS is ERC20, Reent...\n      DUP1 \t\t\tcontract TAAMS is ERC20, Reent...\n      PUSH 2DEF6620\t\t\tcontract TAAMS is ERC20, Reent...\n      EQ \t\t\tcontract TAAMS is ERC20, Reent...\n      PUSH [tag] 23\t\t\tcontract TAAMS is ERC20, Reent...\n      JUMPI \t\t\tcontract TAAMS is ERC20, Reent...\n      DUP1 \t\t\tcontract TAAMS is ERC20, Reent...\n      PUSH 2E80D9B6\t\t\tcontract TAAMS is ERC20, Reent...\n      EQ \t\t\tcontract TAAMS is ERC20, Reent...\n      PUSH [tag] 24\t\t\tcontract TAAMS is ERC20, Reent...\n      JUMPI \t\t\tcontract TAAMS is ERC20, Reent...\n      PUSH 0\t\t\tcontract TAAMS is ERC20, Reent...\n      DUP1 \t\t\tcontract TAAMS is ERC20, Reent...\n      REVERT \t\t\tcontract TAAMS is ERC20, Reent...\n    tag 107\t\t\tcontract TAAMS is ERC20, Reent...\n      JUMPDEST \t\t\tcontract TAAMS is ERC20, Reent...\n      DUP1 \t\t\tcontract TAAMS is ERC20, Reent...\n      PUSH 1AECC93A\t\t\tcontract TAAMS is ERC20, Reent...\n      EQ \t\t\tcontract TAAMS is ERC20, Reent...\n      PUSH [tag] 14\t\t\tcontract TAAMS is ERC20, Reent...\n      JUMPI \t\t\tcontract TAAMS is ERC20, Reent...\n      DUP1 \t\t\tcontract TAAMS is ERC20, Reent...\n      PUSH 1E409127\t\t\tcontract TAAMS is ERC20, Reent...\n      EQ \t\t\tcontract TAAMS is ERC20, Reent...\n      PUSH [tag] 15\t\t\tcontract TAAMS is ERC20, Reent...\n      JUMPI \t\t\tcontract TAAMS is ERC20, Reent...\n      DUP1 \t\t\tcontract TAAMS is ERC20, Reent...\n      PUSH 20095760\t\t\tcontract TAAMS is ERC20, Reent...\n      EQ \t\t\tcontract TAAMS is ERC20, Reent...\n      PUSH [tag] 16\t\t\tcontract TAAMS is ERC20, Reent...\n      JUMPI \t\t\tcontract TAAMS is ERC20, Reent...\n      DUP1 \t\t\tcontract TAAMS is ERC20, Reent...\n      PUSH 21226F40\t\t\tcontract TAAMS is ERC20, Reent...\n      EQ \t\t\tcontract TAAMS is ERC20, Reent...\n      PUSH [tag] 17\t\t\tcontract TAAMS is ERC20, Reent...\n      JUMPI \t\t\tcontract TAAMS is ERC20, Reent...\n      DUP1 \t\t\tcontract TAAMS is ERC20, Reent...\n      PUSH 23B872DD\t\t\tcontract TAAMS is ERC20, Reent...\n      EQ \t\t\tcontract TAAMS is ERC20, Reent...\n      PUSH [tag] 18\t\t\tcontract TAAMS is ERC20, Reent...\n      JUMPI \t\t\tcontract TAAMS is ERC20, Reent...\n      PUSH 0\t\t\tcontract TAAMS is ERC20, Reent...\n      DUP1 \t\t\tcontract TAAMS is ERC20, Reent...\n      REVERT \t\t\tcontract TAAMS is ERC20, Reent...\n    tag 106\t\t\tcontract TAAMS is ERC20, Reent...\n      JUMPDEST \t\t\tcontract TAAMS is ERC20, Reent...\n      DUP1 \t\t\tcontract TAAMS is ERC20, Reent...\n      PUSH F1A2905\t\t\tcontract TAAMS is ERC20, Reent...\n      GT \t\t\tcontract TAAMS is ERC20, Reent...\n      PUSH [tag] 108\t\t\tcontract TAAMS is ERC20, Reent...\n      JUMPI \t\t\tcontract TAAMS is ERC20, Reent...\n      DUP1 \t\t\tcontract TAAMS is ERC20, Reent...\n      PUSH F1A2905\t\t\tcontract TAAMS is ERC20, Reent...\n      EQ \t\t\tcontract TAAMS is ERC20, Reent...\n      PUSH [tag] 8\t\t\tcontract TAAMS is ERC20, Reent...\n      JUMPI \t\t\tcontract TAAMS is ERC20, Reent...\n      DUP1 \t\t\tcontract TAAMS is ERC20, Reent...\n      PUSH 1129753F\t\t\tcontract TAAMS is ERC20, Reent...\n      EQ \t\t\tcontract TAAMS is ERC20, Reent...\n      PUSH [tag] 9\t\t\tcontract TAAMS is ERC20, Reent...\n      JUMPI \t\t\tcontract TAAMS is ERC20, Reent...\n      DUP1 \t\t\tcontract TAAMS is ERC20, Reent...\n      PUSH 1247D4F7\t\t\tcontract TAAMS is ERC20, Reent...\n      EQ \t\t\tcontract TAAMS is ERC20, Reent...\n      PUSH [tag] 10\t\t\tcontract TAAMS is ERC20, Reent...\n      JUMPI \t\t\tcontract TAAMS is ERC20, Reent...\n      DUP1 \t\t\tcontract TAAMS is ERC20, Reent...\n      PUSH 16934FC4\t\t\tcontract TAAMS is ERC20, Reent...\n      EQ \t\t\tcontract TAAMS is ERC20, Reent...\n      PUSH [tag] 11\t\t\tcontract TAAMS is ERC20, Reent...\n      JUMPI \t\t\tcontract TAAMS is ERC20, Reent...\n      DUP1 \t\t\tcontract TAAMS is ERC20, Reent...\n      PUSH 18160DDD\t\t\tcontract TAAMS is ERC20, Reent...\n      EQ \t\t\tcontract TAAMS is ERC20, Reent...\n      PUSH [tag] 12\t\t\tcontract TAAMS is ERC20, Reent...\n      JUMPI \t\t\tcontract TAAMS is ERC20, Reent...\n      DUP1 \t\t\tcontract TAAMS is ERC20, Reent...\n      PUSH 184D1B93\t\t\tcontract TAAMS is ERC20, Reent...\n      EQ \t\t\tcontract TAAMS is ERC20, Reent...\n      PUSH [tag] 13\t\t\tcontract TAAMS is ERC20, Reent...\n      JUMPI \t\t\tcontract TAAMS is ERC20, Reent...\n      PUSH 0\t\t\tcontract TAAMS is ERC20, Reent...\n      DUP1 \t\t\tcontract TAAMS is ERC20, Reent...\n      REVERT \t\t\tcontract TAAMS is ERC20, Reent...\n    tag 108\t\t\tcontract TAAMS is ERC20, Reent...\n      JUMPDEST \t\t\tcontract TAAMS is ERC20, Reent...\n      DUP1 \t\t\tcontract TAAMS is ERC20, Reent...\n      PUSH 429BD1\t\t\tcontract TAAMS is ERC20, Reent...\n      EQ \t\t\tcontract TAAMS is ERC20, Reent...\n      PUSH [tag] 3\t\t\tcontract TAAMS is ERC20, Reent...\n      JUMPI \t\t\tcontract TAAMS is ERC20, Reent...\n      DUP1 \t\t\tcontract TAAMS is ERC20, Reent...\n      PUSH 13CF08B\t\t\tcontract TAAMS is ERC20, Reent...\n      EQ \t\t\tcontract TAAMS is ERC20, Reent...\n      PUSH [tag] 4\t\t\tcontract TAAMS is ERC20, Reent...\n      JUMPI \t\t\tcontract TAAMS is ERC20, Reent...\n      DUP1 \t\t\tcontract TAAMS is ERC20, Reent...\n      PUSH 6FDDE03\t\t\tcontract TAAMS is ERC20, Reent...\n      EQ \t\t\tcontract TAAMS is ERC20, Reent...\n      PUSH [tag] 5\t\t\tcontract TAAMS is ERC20, Reent...\n      JUMPI \t\t\tcontract TAAMS is ERC20, Reent...\n      DUP1 \t\t\tcontract TAAMS is ERC20, Reent...\n      PUSH 95EA7B3\t\t\tcontract TAAMS is ERC20, Reent...\n      EQ \t\t\tcontract TAAMS is ERC20, Reent...\n      PUSH [tag] 6\t\t\tcontract TAAMS is ERC20, Reent...\n      JUMPI \t\t\tcontract TAAMS is ERC20, Reent...\n      DUP1 \t\t\tcontract TAAMS is ERC20, Reent...\n      PUSH D61B519\t\t\tcontract TAAMS is ERC20, Reent...\n      EQ \t\t\tcontract TAAMS is ERC20, Reent...\n      PUSH [tag] 7\t\t\tcontract TAAMS is ERC20, Reent...\n      JUMPI \t\t\tcontract TAAMS is ERC20, Reent...\n    tag 2\t\t\tcontract TAAMS is ERC20, Reent...\n      JUMPDEST \t\t\tcontract TAAMS is ERC20, Reent...\n      PUSH 0\t\t\tcontract TAAMS is ERC20, Reent...\n      DUP1 \t\t\tcontract TAAMS is ERC20, Reent...\n      REVERT \t\t\tcontract TAAMS is ERC20, Reent...\n    tag 3\t\t\tmapping(address => uint256) pu...\n      JUMPDEST \t\t\tmapping(address => uint256) pu...\n      PUSH [tag] 109\t\t\tmapping(address => uint256) pu...\n      PUSH [tag] 110\t\t\tmapping(address => uint256) pu...\n      CALLDATASIZE \t\t\tmapping(address => uint256) pu...\n      PUSH 4\t\t\tmapping(address => uint256) pu...\n      PUSH [tag] 111\t\t\tmapping(address => uint256) pu...\n      JUMP \t\t\tmapping(address => uint256) pu...\n    tag 110\t\t\tmapping(address => uint256) pu...\n      JUMPDEST \t\t\tmapping(address => uint256) pu...\n      PUSH 20\t\t\tmapping(address => uint256) pu...\n      DUP1 \t\t\tmapping(address => uint256) pu...\n      MSTORE \t\t\tmapping(address => uint256) pu...\n      PUSH 0\t\t\tmapping(address => uint256) pu...\n      SWAP1 \t\t\tmapping(address => uint256) pu...\n      DUP2 \t\t\tmapping(address => uint256) pu...\n      MSTORE \t\t\tmapping(address => uint256) pu...\n      PUSH 40\t\t\tmapping(address => uint256) pu...\n      SWAP1 \t\t\tmapping(address => uint256) pu...\n      KECCAK256 \t\t\tmapping(address => uint256) pu...\n      SLOAD \t\t\tmapping(address => uint256) pu...\n      DUP2 \t\t\tmapping(address => uint256) pu...\n      JUMP \t\t\tmapping(address => uint256) pu...\n    tag 109\t\t\tmapping(address => uint256) pu...\n      JUMPDEST \t\t\tmapping(address => uint256) pu...\n      PUSH 40\t\t\tmapping(address => uint256) pu...\n      MLOAD \t\t\tmapping(address => uint256) pu...\n      SWAP1 \t\t\tNotAuthorized();\\n    erro\n      DUP2 \t\t\tNotAuthorized();\\n    erro\n      MSTORE \t\t\tNotAuthorized();\\n    erro\n      PUSH 20\t\t\t;\\n\n      ADD \t\t\ternanceNotSet();\\n \n    tag 113\t\t\tmapping(address => uint256) pu...\n      JUMPDEST \t\t\tmapping(address => uint256) pu...\n      PUSH 40\t\t\tmapping(address => uint256) pu...\n      MLOAD \t\t\tmapping(address => uint256) pu...\n      DUP1 \t\t\tmapping(address => uint256) pu...\n      SWAP2 \t\t\tmapping(address => uint256) pu...\n      SUB \t\t\tmapping(address => uint256) pu...\n      SWAP1 \t\t\tmapping(address => uint256) pu...\n      RETURN \t\t\tmapping(address => uint256) pu...\n    tag 4\t\t\tmapping(uint256 => Proposal) p...\n      JUMPDEST \t\t\tmapping(uint256 => Proposal) p...\n      PUSH [tag] 115\t\t\tmapping(uint256 => Proposal) p...\n      PUSH [tag] 116\t\t\tmapping(uint256 => Proposal) p...\n      CALLDATASIZE \t\t\tmapping(uint256 => Proposal) p...\n      PUSH 4\t\t\tmapping(uint256 => Proposal) p...\n      PUSH [tag] 117\t\t\tmapping(uint256 => Proposal) p...\n      JUMP \t\t\tmapping(uint256 => Proposal) p...\n    tag 116\t\t\tmapping(uint256 => Proposal) p...\n      JUMPDEST \t\t\tmapping(uint256 => Proposal) p...\n      PUSH [tag] 118\t\t\tmapping(uint256 => Proposal) p...\n      JUMP \t\t\tmapping(uint256 => Proposal) p...\n    tag 115\t\t\tmapping(uint256 => Proposal) p...\n      JUMPDEST \t\t\tmapping(uint256 => Proposal) p...\n      PUSH 40\t\t\tmapping(uint256 => Proposal) p...\n      MLOAD \t\t\tmapping(uint256 => Proposal) p...\n      PUSH [tag] 113\t\t\tmapping(uint256 => Proposal) p...\n      SWAP12 \t\t\tmapping(uint256 => Proposal) p...\n      SWAP11 \t\t\tmapping(uint256 => Proposal) p...\n      SWAP10 \t\t\tmapping(uint256 => Proposal) p...\n      SWAP9 \t\t\tmapping(uint256 => Proposal) p...\n      SWAP8 \t\t\tmapping(uint256 => Proposal) p...\n      SWAP7 \t\t\tmapping(uint256 => Proposal) p...\n      SWAP6 \t\t\tmapping(uint256 => Proposal) p...\n      SWAP5 \t\t\tmapping(uint256 => Proposal) p...\n      SWAP4 \t\t\tmapping(uint256 => Proposal) p...\n      SWAP3 \t\t\tmapping(uint256 => Proposal) p...\n      SWAP2 \t\t\tmapping(uint256 => Proposal) p...\n      SWAP1 \t\t\tmapping(uint256 => Proposal) p...\n      PUSH [tag] 120\t\t\tmapping(uint256 => Proposal) p...\n      JUMP \t\t\tmapping(uint256 => Proposal) p...\n    tag 5\t\t\t\\n    error QuorumOutOfBounds(...\n      JUMPDEST \t\t\t\\n    error QuorumOutOfBounds(...\n      PUSH [tag] 121\t\t\t\\n    error QuorumOutOfBounds(...\n      PUSH [tag] 122\t\t\t\\n    error QuorumOutOfBounds(...\n      JUMP \t\t\t\\n    error QuorumOutOfBounds(...\n    tag 121\t\t\t\\n    error QuorumOutOfBounds(...\n      JUMPDEST \t\t\t\\n    error QuorumOutOfBounds(...\n      PUSH 40\t\t\t\\n    error QuorumOutOfBounds(...\n      MLOAD \t\t\t\\n    error QuorumOutOfBounds(...\n      PUSH [tag] 113\t\t\t\\n    error QuorumOutOfBounds(...\n      SWAP2 \t\t\t\\n    error QuorumOutOfBounds(...\n      SWAP1 \t\t\t\\n    error QuorumOutOfBounds(...\n      PUSH [tag] 124\t\t\t\\n    error QuorumOutOfBounds(...\n      JUMP \t\t\t\\n    error QuorumOutOfBounds(...\n    tag 6\t\t\t_000_000_000 * 1e18;\\n    uint...\n      JUMPDEST \t\t\t_000_000_000 * 1e18;\\n    uint...\n      PUSH [tag] 125\t\t\t_000_000_000 * 1e18;\\n    uint...\n      PUSH [tag] 126\t\t\t_000_000_000 * 1e18;\\n    uint...\n      CALLDATASIZE \t\t\t_000_000_000 * 1e18;\\n    uint...\n      PUSH 4\t\t\t_000_000_000 * 1e18;\\n    uint...\n      PUSH [tag] 127\t\t\t_000_000_000 * 1e18;\\n    uint...\n      JUMP \t\t\t_000_000_000 * 1e18;\\n    uint...\n    tag 126\t\t\t_000_000_000 * 1e18;\\n    uint...\n      JUMPDEST \t\t\t_000_000_000 * 1e18;\\n    uint...\n      PUSH [tag] 128\t\t\t_000_000_000 * 1e18;\\n    uint...\n      JUMP \t\t\t_000_000_000 * 1e18;\\n    uint...\n    tag 125\t\t\t_000_000_000 * 1e18;\\n    uint...\n      JUMPDEST \t\t\t_000_000_000 * 1e18;\\n    uint...\n      PUSH 40\t\t\t_000_000_000 * 1e18;\\n    uint...\n      MLOAD \t\t\t_000_000_000 * 1e18;\\n    uint...\n      SWAP1 \t\t\t,\\n        Inac\n      ISZERO \t\t\t,\\n        Inac\n      ISZERO \t\t\tifespan,\\n        Inact\n      DUP2 \t\t\tiod,\\n        BL2PLifespan,\\n ...\n      MSTORE \t\t\tiod,\\n        BL2PLifespan,\\n ...\n      PUSH 20\t\t\tat\n      ADD \t\t\tment,\\n        Matu\n      PUSH [tag] 113\t\t\t_000_000_000 * 1e18;\\n    uint...\n      JUMP \t\t\tount,\\n        RewardRate,\\n  ...\n    tag 7\t\t\tfunction executeProposal(uint2...\n      JUMPDEST \t\t\tfunction executeProposal(uint2...\n      PUSH [tag] 131\t\t\tfunction executeProposal(uint2...\n      PUSH [tag] 132\t\t\tfunction executeProposal(uint2...\n      CALLDATASIZE \t\t\tfunction executeProposal(uint2...\n      PUSH 4\t\t\tfunction executeProposal(uint2...\n      PUSH [tag] 117\t\t\tfunction executeProposal(uint2...\n      JUMP \t\t\tfunction executeProposal(uint2...\n    tag 132\t\t\tfunction executeProposal(uint2...\n      JUMPDEST \t\t\tfunction executeProposal(uint2...\n      PUSH [tag] 133\t\t\tfunction executeProposal(uint2...\n      JUMP \t\t\tfunction executeProposal(uint2...\n    tag 131\t\t\tfunction executeProposal(uint2...\n      JUMPDEST \t\t\tfunction executeProposal(uint2...\n      STOP \t\t\tfunction executeProposal(uint2...\n    tag 8\t\t\tuint256 public STAKING_REWARD_...\n      JUMPDEST \t\t\tuint256 public STAKING_REWARD_...\n      PUSH [tag] 109\t\t\tuint256 public STAKING_REWARD_...\n      PUSH 12\t\t\tuint256 public STAKING_REWARD_...\n      SLOAD \t\t\tuint256 public STAKING_REWARD_...\n      DUP2 \t\t\tuint256 public STAKING_REWARD_...\n      JUMP \t\t\tuint256 public STAKING_REWARD_...\n    tag 9\t\t\tfunction setGovernanceContract...\n      JUMPDEST \t\t\tfunction setGovernanceContract...\n      PUSH [tag] 131\t\t\tfunction setGovernanceContract...\n      PUSH [tag] 138\t\t\tfunction setGovernanceContract...\n      CALLDATASIZE \t\t\tfunction setGovernanceContract...\n      PUSH 4\t\t\tfunction setGovernanceContract...\n      PUSH [tag] 111\t\t\tfunction setGovernanceContract...\n      JUMP \t\t\tfunction setGovernanceContract...\n    tag 138\t\t\tfunction setGovernanceContract...\n      JUMPDEST \t\t\tfunction setGovernanceContract...\n      PUSH [tag] 139\t\t\tfunction setGovernanceContract...\n      JUMP \t\t\tfunction setGovernanceContract...\n    tag 10\t\t\tmapping(uint256 => uint256) pu...\n      JUMPDEST \t\t\tmapping(uint256 => uint256) pu...\n      PUSH [tag] 109\t\t\tmapping(uint256 => uint256) pu...\n      PUSH [tag] 141\t\t\tmapping(uint256 => uint256) pu...\n      CALLDATASIZE \t\t\tmapping(uint256 => uint256) pu...\n      PUSH 4\t\t\tmapping(uint256 => uint256) pu...\n      PUSH [tag] 117\t\t\tmapping(uint256 => uint256) pu...\n      JUMP \t\t\tmapping(uint256 => uint256) pu...\n    tag 141\t\t\tmapping(uint256 => uint256) pu...\n      JUMPDEST \t\t\tmapping(uint256 => uint256) pu...\n      PUSH 1F\t\t\tmapping(uint256 => uint256) pu...\n      PUSH 20\t\t\tmapping(uint256 => uint256) pu...\n      MSTORE \t\t\tmapping(uint256 => uint256) pu...\n      PUSH 0\t\t\tmapping(uint256 => uint256) pu...\n      SWAP1 \t\t\tmapping(uint256 => uint256) pu...\n      DUP2 \t\t\tmapping(uint256 => uint256) pu...\n      MSTORE \t\t\tmapping(uint256 => uint256) pu...\n      PUSH 40\t\t\tmapping(uint256 => uint256) pu...\n      SWAP1 \t\t\tmapping(uint256 => uint256) pu...\n      KECCAK256 \t\t\tmapping(uint256 => uint256) pu...\n      SLOAD \t\t\tmapping(uint256 => uint256) pu...\n      DUP2 \t\t\tmapping(uint256 => uint256) pu...\n      JUMP \t\t\tmapping(uint256 => uint256) pu...\n    tag 11\t\t\tmapping(address => Stake) publ...\n      JUMPDEST \t\t\tmapping(address => Stake) publ...\n      PUSH [tag] 144\t\t\tmapping(address => Stake) publ...\n      PUSH [tag] 145\t\t\tmapping(address => Stake) publ...\n      CALLDATASIZE \t\t\tmapping(address => Stake) publ...\n      PUSH 4\t\t\tmapping(address => Stake) publ...\n      PUSH [tag] 111\t\t\tmapping(address => Stake) publ...\n      JUMP \t\t\tmapping(address => Stake) publ...\n    tag 145\t\t\tmapping(address => Stake) publ...\n      JUMPDEST \t\t\tmapping(address => Stake) publ...\n      PUSH 29\t\t\tmapping(address => Stake) publ...\n      PUSH 20\t\t\tmapping(address => Stake) publ...\n      MSTORE \t\t\tmapping(address => Stake) publ...\n      PUSH 0\t\t\tmapping(address => Stake) publ...\n      SWAP1 \t\t\tmapping(address => Stake) publ...\n      DUP2 \t\t\tmapping(address => Stake) publ...\n      MSTORE \t\t\tmapping(address => Stake) publ...\n      PUSH 40\t\t\tmapping(address => Stake) publ...\n      SWAP1 \t\t\tmapping(address => Stake) publ...\n      KECCAK256 \t\t\tmapping(address => Stake) publ...\n      DUP1 \t\t\tmapping(address => Stake) publ...\n      SLOAD \t\t\tmapping(address => Stake) publ...\n      PUSH 1\t\t\tmapping(address => Stake) publ...\n      DUP3 \t\t\tmapping(address => Stake) publ...\n      ADD \t\t\tmapping(address => Stake) publ...\n      SLOAD \t\t\tmapping(address => Stake) publ...\n      PUSH 2\t\t\tmapping(address => Stake) publ...\n      DUP4 \t\t\tmapping(address => Stake) publ...\n      ADD \t\t\tmapping(address => Stake) publ...\n      SLOAD \t\t\tmapping(address => Stake) publ...\n      PUSH 3\t\t\tmapping(address => Stake) publ...\n      SWAP1 \t\t\tmapping(address => Stake) publ...\n      SWAP4 \t\t\tmapping(address => Stake) publ...\n      ADD \t\t\tmapping(address => Stake) publ...\n      SLOAD \t\t\tmapping(address => Stake) publ...\n      SWAP2 \t\t\tmapping(address => Stake) publ...\n      SWAP3 \t\t\tmapping(address => Stake) publ...\n      SWAP1 \t\t\tmapping(address => Stake) publ...\n      SWAP2 \t\t\tmapping(address => Stake) publ...\n      PUSH FF\t\t\tmapping(address => Stake) publ...\n      AND \t\t\tmapping(address => Stake) publ...\n      DUP5 \t\t\tmapping(address => Stake) publ...\n      JUMP \t\t\tmapping(address => Stake) publ...\n    tag 144\t\t\tmapping(address => Stake) publ...\n      JUMPDEST \t\t\tmapping(address => Stake) publ...\n      PUSH 40\t\t\tmapping(address => Stake) publ...\n      DUP1 \t\t\tmapping(address => Stake) publ...\n      MLOAD \t\t\tmapping(address => Stake) publ...\n      SWAP5 \t\t\t public immutable IGNITIO\n      DUP6 \t\t\t public immutable IGNITIO\n      MSTORE \t\t\t public immutable IGNITIO\n      PUSH 20\t\t\t1e\n      DUP6 \t\t\t 500_000_000 * 1e1\n      ADD \t\t\t 500_000_000 * 1e1\n      SWAP4 \t\t\t_POOL = 500_000_000 * 1e18;\\n ...\n      SWAP1 \t\t\t_POOL = 500_000_000 * 1e18;\\n ...\n      SWAP4 \t\t\t_POOL = 500_000_000 * 1e18;\\n ...\n      MSTORE \t\t\t_POOL = 500_000_000 * 1e18;\\n ...\n      SWAP2 \t\t\tutable ACTIVATION_\n      DUP4 \t\t\tutable ACTIVATION_\n      ADD \t\t\tutable ACTIVATION_\n      MSTORE \t\t\tlic immutable ACTIVATION_THRES...\n      ISZERO \t\t\t immutable BUR\n      ISZERO \t\t\t public immutable BURN\n      PUSH 60\t\t\tnt\n      DUP3 \t\t\t * 1e18;\\n    uint2\n      ADD \t\t\t * 1e18;\\n    uint2\n      MSTORE \t\t\t000_000 * 1e18;\\n    uint256 p...\n      PUSH 80\t\t\t;\\n \n      ADD \t\t\t_000_000 * 1e18;\\n  \n      PUSH [tag] 113\t\t\tmapping(address => Stake) publ...\n      JUMP \t\t\te,\\n        Quorum,\\n        V...\n    tag 12\t\t\t modifier onlyGovernanceOrOwne...\n      JUMPDEST \t\t\t modifier onlyGovernanceOrOwne...\n      PUSH 2\t\t\tct && msg.se\n      SLOAD \t\t\tct && msg.se\n      PUSH [tag] 109\t\t\t modifier onlyGovernanceOrOwne...\n      JUMP \t\t\t modifier onlyGovernanceOrOwne...\n    tag 13\t\t\tuint256 public bl2pLifespanBlo...\n      JUMPDEST \t\t\tuint256 public bl2pLifespanBlo...\n      PUSH [tag] 109\t\t\tuint256 public bl2pLifespanBlo...\n      PUSH 1A\t\t\tuint256 public bl2pLifespanBlo...\n      SLOAD \t\t\tuint256 public bl2pLifespanBlo...\n      DUP2 \t\t\tuint256 public bl2pLifespanBlo...\n      JUMP \t\t\tuint256 public bl2pLifespanBlo...\n    tag 14\t\t\tfunction registerForIgnitionAi...\n      JUMPDEST \t\t\tfunction registerForIgnitionAi...\n      PUSH [tag] 131\t\t\tfunction registerForIgnitionAi...\n      PUSH [tag] 156\t\t\tfunction registerForIgnitionAi...\n      JUMP \t\t\tfunction registerForIgnitionAi...\n    tag 15\t\t\tmapping(address => uint256) pu...\n      JUMPDEST \t\t\tmapping(address => uint256) pu...\n      PUSH [tag] 109\t\t\tmapping(address => uint256) pu...\n      PUSH [tag] 158\t\t\tmapping(address => uint256) pu...\n      CALLDATASIZE \t\t\tmapping(address => uint256) pu...\n      PUSH 4\t\t\tmapping(address => uint256) pu...\n      PUSH [tag] 111\t\t\tmapping(address => uint256) pu...\n      JUMP \t\t\tmapping(address => uint256) pu...\n    tag 158\t\t\tmapping(address => uint256) pu...\n      JUMPDEST \t\t\tmapping(address => uint256) pu...\n      PUSH 28\t\t\tmapping(address => uint256) pu...\n      PUSH 20\t\t\tmapping(address => uint256) pu...\n      MSTORE \t\t\tmapping(address => uint256) pu...\n      PUSH 0\t\t\tmapping(address => uint256) pu...\n      SWAP1 \t\t\tmapping(address => uint256) pu...\n      DUP2 \t\t\tmapping(address => uint256) pu...\n      MSTORE \t\t\tmapping(address => uint256) pu...\n      PUSH 40\t\t\tmapping(address => uint256) pu...\n      SWAP1 \t\t\tmapping(address => uint256) pu...\n      KECCAK256 \t\t\tmapping(address => uint256) pu...\n      SLOAD \t\t\tmapping(address => uint256) pu...\n      DUP2 \t\t\tmapping(address => uint256) pu...\n      JUMP \t\t\tmapping(address => uint256) pu...\n    tag 16\t\t\tfunction burnInactiveBL2P(addr...\n      JUMPDEST \t\t\tfunction burnInactiveBL2P(addr...\n      PUSH [tag] 131\t\t\tfunction burnInactiveBL2P(addr...\n      PUSH [tag] 162\t\t\tfunction burnInactiveBL2P(addr...\n      CALLDATASIZE \t\t\tfunction burnInactiveBL2P(addr...\n      PUSH 4\t\t\tfunction burnInactiveBL2P(addr...\n      PUSH [tag] 111\t\t\tfunction burnInactiveBL2P(addr...\n      JUMP \t\t\tfunction burnInactiveBL2P(addr...\n    tag 162\t\t\tfunction burnInactiveBL2P(addr...\n      JUMPDEST \t\t\tfunction burnInactiveBL2P(addr...\n      PUSH [tag] 163\t\t\tfunction burnInactiveBL2P(addr...\n      JUMP \t\t\tfunction burnInactiveBL2P(addr...\n    tag 17\t\t\tuint256 public lastUnlockTimes...\n      JUMPDEST \t\t\tuint256 public lastUnlockTimes...\n      PUSH [tag] 109\t\t\tuint256 public lastUnlockTimes...\n      PUSH 15\t\t\tuint256 public lastUnlockTimes...\n      SLOAD \t\t\tuint256 public lastUnlockTimes...\n      DUP2 \t\t\tuint256 public lastUnlockTimes...\n      JUMP \t\t\tuint256 public lastUnlockTimes...\n    tag 18\t\t\tfunction transferFrom(address ...\n      JUMPDEST \t\t\tfunction transferFrom(address ...\n      PUSH [tag] 125\t\t\tfunction transferFrom(address ...\n      PUSH [tag] 168\t\t\tfunction transferFrom(address ...\n      CALLDATASIZE \t\t\tfunction transferFrom(address ...\n      PUSH 4\t\t\tfunction transferFrom(address ...\n      PUSH [tag] 169\t\t\tfunction transferFrom(address ...\n      JUMP \t\t\tfunction transferFrom(address ...\n    tag 168\t\t\tfunction transferFrom(address ...\n      JUMPDEST \t\t\tfunction transferFrom(address ...\n      PUSH [tag] 170\t\t\tfunction transferFrom(address ...\n      JUMP \t\t\tfunction transferFrom(address ...\n    tag 19\t\t\tfunction setIgnitionRegistrati...\n      JUMPDEST \t\t\tfunction setIgnitionRegistrati...\n      PUSH [tag] 131\t\t\tfunction setIgnitionRegistrati...\n      PUSH [tag] 173\t\t\tfunction setIgnitionRegistrati...\n      CALLDATASIZE \t\t\tfunction setIgnitionRegistrati...\n      PUSH 4\t\t\tfunction setIgnitionRegistrati...\n      PUSH [tag] 174\t\t\tfunction setIgnitionRegistrati...\n      JUMP \t\t\tfunction setIgnitionRegistrati...\n    tag 173\t\t\tfunction setIgnitionRegistrati...\n      JUMPDEST \t\t\tfunction setIgnitionRegistrati...\n      PUSH [tag] 175\t\t\tfunction setIgnitionRegistrati...\n      JUMP \t\t\tfunction setIgnitionRegistrati...\n    tag 20\t\t\tfunction claimBL2PReward() pub...\n      JUMPDEST \t\t\tfunction claimBL2PReward() pub...\n      PUSH [tag] 131\t\t\tfunction claimBL2PReward() pub...\n      PUSH [tag] 177\t\t\tfunction claimBL2PReward() pub...\n      JUMP \t\t\tfunction claimBL2PReward() pub...\n    tag 21\t\t\tbool public emergencyPaused\n      JUMPDEST \t\t\tbool public emergencyPaused\n      PUSH 9\t\t\tbool public emergencyPaused\n      SLOAD \t\t\tbool public emergencyPaused\n      PUSH [tag] 125\t\t\tbool public emergencyPaused\n      SWAP1 \t\t\tbool public emergencyPaused\n      PUSH 10000\t\t\tbool public emergencyPaused\n      SWAP1 \t\t\tbool public emergencyPaused\n      DIV \t\t\tbool public emergencyPaused\n      PUSH FF\t\t\tbool public emergencyPaused\n      AND \t\t\tbool public emergencyPaused\n      DUP2 \t\t\tbool public emergencyPaused\n      JUMP \t\t\tbool public emergencyPaused\n    tag 22\t\t\tuint256 public lastAdvertiseme...\n      JUMPDEST \t\t\tuint256 public lastAdvertiseme...\n      PUSH [tag] 109\t\t\tuint256 public lastAdvertiseme...\n      PUSH 17\t\t\tuint256 public lastAdvertiseme...\n      SLOAD \t\t\tuint256 public lastAdvertiseme...\n      DUP2 \t\t\tuint256 public lastAdvertiseme...\n      JUMP \t\t\tuint256 public lastAdvertiseme...\n    tag 23\t\t\tfunction unstake() external no...\n      JUMPDEST \t\t\tfunction unstake() external no...\n      PUSH [tag] 131\t\t\tfunction unstake() external no...\n      PUSH [tag] 185\t\t\tfunction unstake() external no...\n      JUMP \t\t\tfunction unstake() external no...\n    tag 24\t\t\tuint256 public QUORUM = 10_000...\n      JUMPDEST \t\t\tuint256 public QUORUM = 10_000...\n      PUSH [tag] 109\t\t\tuint256 public QUORUM = 10_000...\n      PUSH 13\t\t\tuint256 public QUORUM = 10_000...\n      SLOAD \t\t\tuint256 public QUORUM = 10_000...\n      DUP2 \t\t\tuint256 public QUORUM = 10_000...\n      JUMP \t\t\tuint256 public QUORUM = 10_000...\n    tag 25\t\t\tuint256 public currentBurnCycl...\n      JUMPDEST \t\t\tuint256 public currentBurnCycl...\n      PUSH [tag] 109\t\t\tuint256 public currentBurnCycl...\n      PUSH D\t\t\tuint256 public currentBurnCycl...\n      SLOAD \t\t\tuint256 public currentBurnCycl...\n      DUP2 \t\t\tuint256 public currentBurnCycl...\n      JUMP \t\t\tuint256 public currentBurnCycl...\n    tag 26\t\t\tfunction batchClaimBL2PReward(...\n      JUMPDEST \t\t\tfunction batchClaimBL2PReward(...\n      PUSH [tag] 131\t\t\tfunction batchClaimBL2PReward(...\n      PUSH [tag] 193\t\t\tfunction batchClaimBL2PReward(...\n      CALLDATASIZE \t\t\tfunction batchClaimBL2PReward(...\n      PUSH 4\t\t\tfunction batchClaimBL2PReward(...\n      PUSH [tag] 194\t\t\tfunction batchClaimBL2PReward(...\n      JUMP \t\t\tfunction batchClaimBL2PReward(...\n    tag 193\t\t\tfunction batchClaimBL2PReward(...\n      JUMPDEST \t\t\tfunction batchClaimBL2PReward(...\n      PUSH [tag] 195\t\t\tfunction batchClaimBL2PReward(...\n      JUMP \t\t\tfunction batchClaimBL2PReward(...\n    tag 27\t\t\t _;\\n    }\\n    modifier whenN...\n      JUMPDEST \t\t\t _;\\n    }\\n    modifier whenN...\n      PUSH 40\t\t\t _;\\n    }\\n    modifier whenN...\n      MLOAD \t\t\t _;\\n    }\\n    modifier whenN...\n      PUSH 12\t\t\ter\n      DUP2 \t\t\tlic VOTE_THRESHOLD = 50;\\n    ...\n      MSTORE \t\t\tlic VOTE_THRESHOLD = 50;\\n    ...\n      PUSH 20\t\t\t u\n      ADD \t\t\t000 * 1e18;\\n    ui\n      PUSH [tag] 113\t\t\t _;\\n    }\\n    modifier whenN...\n      JUMP \t\t\tnt;\\n    uint256 public totalS...\n    tag 28\t\t\tuint256 public immutable MAX_S...\n      JUMPDEST \t\t\tuint256 public immutable MAX_S...\n      PUSH [tag] 109\t\t\tuint256 public immutable MAX_S...\n      PUSHIMMUTABLE 1793\t\t\tuint256 public immutable MAX_S...\n      DUP2 \t\t\tuint256 public immutable MAX_S...\n      JUMP \t\t\tuint256 public immutable MAX_S...\n    tag 29\t\t\tfunction getRemainingBurnable(...\n      JUMPDEST \t\t\tfunction getRemainingBurnable(...\n      PUSH [tag] 109\t\t\tfunction getRemainingBurnable(...\n      PUSH [tag] 204\t\t\tfunction getRemainingBurnable(...\n      JUMP \t\t\tfunction getRemainingBurnable(...\n    tag 30\t\t\tuint256 public immutable LOCKE...\n      JUMPDEST \t\t\tuint256 public immutable LOCKE...\n      PUSH [tag] 109\t\t\tuint256 public immutable LOCKE...\n      PUSHIMMUTABLE 1798\t\t\tuint256 public immutable LOCKE...\n      DUP2 \t\t\tuint256 public immutable LOCKE...\n      JUMP \t\t\tuint256 public immutable LOCKE...\n    tag 31\t\t\tmapping(address => bool) publi...\n      JUMPDEST \t\t\tmapping(address => bool) publi...\n      PUSH [tag] 125\t\t\tmapping(address => bool) publi...\n      PUSH [tag] 210\t\t\tmapping(address => bool) publi...\n      CALLDATASIZE \t\t\tmapping(address => bool) publi...\n      PUSH 4\t\t\tmapping(address => bool) publi...\n      PUSH [tag] 111\t\t\tmapping(address => bool) publi...\n      JUMP \t\t\tmapping(address => bool) publi...\n    tag 210\t\t\tmapping(address => bool) publi...\n      JUMPDEST \t\t\tmapping(address => bool) publi...\n      PUSH 2C\t\t\tmapping(address => bool) publi...\n      PUSH 20\t\t\tmapping(address => bool) publi...\n      MSTORE \t\t\tmapping(address => bool) publi...\n      PUSH 0\t\t\tmapping(address => bool) publi...\n      SWAP1 \t\t\tmapping(address => bool) publi...\n      DUP2 \t\t\tmapping(address => bool) publi...\n      MSTORE \t\t\tmapping(address => bool) publi...\n      PUSH 40\t\t\tmapping(address => bool) publi...\n      SWAP1 \t\t\tmapping(address => bool) publi...\n      KECCAK256 \t\t\tmapping(address => bool) publi...\n      SLOAD \t\t\tmapping(address => bool) publi...\n      PUSH FF\t\t\tmapping(address => bool) publi...\n      AND \t\t\tmapping(address => bool) publi...\n      DUP2 \t\t\tmapping(address => bool) publi...\n      JUMP \t\t\tmapping(address => bool) publi...\n    tag 32\t\t\tfunction getIgnitionInfo() ext...\n      JUMPDEST \t\t\tfunction getIgnitionInfo() ext...\n      PUSH 1D\t\t\tignitionAirdropTriggered\n      SLOAD \t\t\tignitionAirdropTriggered\n      PUSH 2D\t\t\tignitionParticipants\n      SLOAD \t\t\tignitionParticipants.length\n      CALLER \t\t\tmsg.sender\n      PUSH 0\t\t\tbool triggered\n      SWAP1 \t\t\tignitionWhitelist[msg.sender]\n      DUP2 \t\t\tignitionWhitelist[msg.sender]\n      MSTORE \t\t\tignitionWhitelist[msg.sender]\n      PUSH 2A\t\t\tignitionWhitelist\n      PUSH 20\t\t\tignitionWhitelist[msg.sender]\n      SWAP1 \t\t\tignitionWhitelist[msg.sender]\n      DUP2 \t\t\tignitionWhitelist[msg.sender]\n      MSTORE \t\t\tignitionWhitelist[msg.sender]\n      PUSH 40\t\t\tignitionWhitelist[msg.sender]\n      DUP1 \t\t\tignitionWhitelist[msg.sender]\n      DUP4 \t\t\tignitionWhitelist[msg.sender]\n      KECCAK256 \t\t\tignitionWhitelist[msg.sender]\n      SLOAD \t\t\tignitionWhitelist[msg.sender]\n      PUSH 2B\t\t\tignitionClaimableAmount\n      DUP4 \t\t\tignitionClaimableAmount[msg.se...\n      MSTORE \t\t\tignitionClaimableAmount[msg.se...\n      DUP2 \t\t\tignitionClaimableAmount[msg.se...\n      DUP5 \t\t\tignitionClaimableAmount[msg.se...\n      KECCAK256 \t\t\tignitionClaimableAmount[msg.se...\n      SLOAD \t\t\tignitionClaimableAmount[msg.se...\n      PUSH 2C\t\t\tignitionClaimed\n      DUP5 \t\t\tignitionClaimed[msg.sender]\n      MSTORE \t\t\tignitionClaimed[msg.sender]\n      SWAP4 \t\t\tignitionClaimed[msg.sender]\n      DUP3 \t\t\tignitionClaimed[msg.sender]\n      SWAP1 \t\t\tignitionClaimed[msg.sender]\n      KECCAK256 \t\t\tignitionClaimed[msg.sender]\n      SLOAD \t\t\tignitionClaimed[msg.sender]\n      DUP3 \t\t\tfunction getIgnitionInfo() ext...\n      MLOAD \t\t\tfunction getIgnitionInfo() ext...\n      PUSH FF\t\t\tignitionAirdropTriggered\n      PUSH 1\t\t\t\n      PUSH A0\t\t\t\n      SHL \t\t\t\n      DUP10 \t\t\tignitionAirdropTriggered\n      DIV \t\t\tignitionAirdropTriggered\n      DUP2 \t\t\tignitionAirdropTriggered\n      AND \t\t\tignitionAirdropTriggered\n      ISZERO \t\t\tercent = 20;\\n \n      ISZERO \t\t\tedBL2PPercent = 20;\\n  \n      DUP3 \t\t\t public maxDelegatedBL2PPercen...\n      MSTORE \t\t\t public maxDelegatedBL2PPercen...\n      PUSH 1\t\t\t\n      PUSH A8\t\t\t\n      SHL \t\t\t\n      SWAP1 \t\t\tignitionRegistrationOpen\n      SWAP9 \t\t\tignitionRegistrationOpen\n      DIV \t\t\tignitionRegistrationOpen\n      DUP9 \t\t\tignitionRegistrationOpen\n      AND \t\t\tignitionRegistrationOpen\n      ISZERO \t\t\tl public ignit\n      ISZERO \t\t\t    bool public igniti\n      SWAP5 \t\t\tgovernanceContract\n      DUP2 \t\t\tgovernanceContract\n      ADD \t\t\tgovernanceContract\n      SWAP5 \t\t\tpublic governanceContract;\\n  ...\n      SWAP1 \t\t\tpublic governanceContract;\\n  ...\n      SWAP5 \t\t\tpublic governanceContract;\\n  ...\n      MSTORE \t\t\tpublic governanceContract;\\n  ...\n      SWAP2 \t\t\td;\\n    bool public\n      DUP4 \t\t\td;\\n    bool public\n      ADD \t\t\td;\\n    bool public\n      SWAP5 \t\t\triggered;\\n    bool public ign...\n      SWAP1 \t\t\triggered;\\n    bool public ign...\n      SWAP5 \t\t\triggered;\\n    bool public ign...\n      MSTORE \t\t\triggered;\\n    bool public ign...\n      PUSH 3E8\t\t\t1000\n      PUSH 60\t\t\tap\n      DUP4 \t\t\t = true;\\n\\n    mapp\n      ADD \t\t\t = true;\\n\\n    mapp\n      MSTORE \t\t\tionOpen = true;\\n\\n    mapping...\n      SWAP3 \t\t\tignitionWhitelist[msg.sender]\n      DUP5 \t\t\tignitionWhitelist[msg.sender]\n      AND \t\t\tignitionWhitelist[msg.sender]\n      ISZERO \t\t\trnContribution\n      ISZERO \t\t\tblic burnContributions\n      PUSH 80\t\t\t6))\n      DUP3 \t\t\tdress => uint256)) \n      ADD \t\t\tdress => uint256)) \n      MSTORE \t\t\tping(address => uint256)) publ...\n      PUSH A0\t\t\t) p\n      DUP2 \t\t\tt256 => uint256) pu\n      ADD \t\t\tt256 => uint256) pu\n      SWAP2 \t\t\ting(uint256 => uint256) public...\n      SWAP1 \t\t\ting(uint256 => uint256) public...\n      SWAP2 \t\t\ting(uint256 => uint256) public...\n      MSTORE \t\t\ting(uint256 => uint256) public...\n      SWAP2 \t\t\tignitionClaimed[msg.sender]\n      AND \t\t\tignitionClaimed[msg.sender]\n      ISZERO \t\t\t) public bl2pC\n      ISZERO \t\t\tuint256) public bl2pCl\n      PUSH C0\t\t\tss \n      DUP3 \t\t\t  mapping(address =\n      ADD \t\t\t  mapping(address =\n      MSTORE \t\t\ttal;\\n    mapping(address => u...\n      PUSH E0\t\t\t;\\n \n      ADD \t\t\tityBurnRate = 1;\\n  \n      PUSH [tag] 113\t\t\tfunction getIgnitionInfo() ext...\n      JUMP \t\t\ttUnlockTimestamp;\\n    uint256...\n    tag 33\t\t\tuint256 public maxDelegatedBL2...\n      JUMPDEST \t\t\tuint256 public maxDelegatedBL2...\n      PUSH [tag] 109\t\t\tuint256 public maxDelegatedBL2...\n      PUSH 1C\t\t\tuint256 public maxDelegatedBL2...\n      SLOAD \t\t\tuint256 public maxDelegatedBL2...\n      DUP2 \t\t\tuint256 public maxDelegatedBL2...\n      JUMP \t\t\tuint256 public maxDelegatedBL2...\n    tag 34\t\t\tuint256 public burnDeadlineTim...\n      JUMPDEST \t\t\tuint256 public burnDeadlineTim...\n      PUSH [tag] 109\t\t\tuint256 public burnDeadlineTim...\n      PUSH C\t\t\tuint256 public burnDeadlineTim...\n      SLOAD \t\t\tuint256 public burnDeadlineTim...\n      DUP2 \t\t\tuint256 public burnDeadlineTim...\n      JUMP \t\t\tuint256 public burnDeadlineTim...\n    tag 35\t\t\tuint256 public constant PROPOS...\n      JUMPDEST \t\t\tuint256 public constant PROPOS...\n      PUSH [tag] 109\t\t\tuint256 public constant PROPOS...\n      PUSH 278D00\t\t\t30 days\n      DUP2 \t\t\tuint256 public constant PROPOS...\n      JUMP \t\t\tuint256 public constant PROPOS...\n    tag 36\t\t\tfunction checkActivation() pub...\n      JUMPDEST \t\t\tfunction checkActivation() pub...\n      PUSH [tag] 131\t\t\tfunction checkActivation() pub...\n      PUSH [tag] 227\t\t\tfunction checkActivation() pub...\n      JUMP \t\t\tfunction checkActivation() pub...\n    tag 37\t\t\tbool public ignitionAirdropTri...\n      JUMPDEST \t\t\tbool public ignitionAirdropTri...\n      PUSH 1D\t\t\tbool public ignitionAirdropTri...\n      SLOAD \t\t\tbool public ignitionAirdropTri...\n      PUSH [tag] 125\t\t\tbool public ignitionAirdropTri...\n      SWAP1 \t\t\tbool public ignitionAirdropTri...\n      PUSH 1\t\t\t\n      PUSH A0\t\t\t\n      SHL \t\t\t\n      SWAP1 \t\t\tbool public ignitionAirdropTri...\n      DIV \t\t\tbool public ignitionAirdropTri...\n      PUSH FF\t\t\tbool public ignitionAirdropTri...\n      AND \t\t\tbool public ignitionAirdropTri...\n      DUP2 \t\t\tbool public ignitionAirdropTri...\n      JUMP \t\t\tbool public ignitionAirdropTri...\n    tag 38\t\t\tuint256 public lockedReserveBa...\n      JUMPDEST \t\t\tuint256 public lockedReserveBa...\n      PUSH [tag] 109\t\t\tuint256 public lockedReserveBa...\n      PUSH A\t\t\tuint256 public lockedReserveBa...\n      SLOAD \t\t\tuint256 public lockedReserveBa...\n      DUP2 \t\t\tuint256 public lockedReserveBa...\n      JUMP \t\t\tuint256 public lockedReserveBa...\n    tag 39\t\t\tuint256 public immutable BURN_...\n      JUMPDEST \t\t\tuint256 public immutable BURN_...\n      PUSH [tag] 109\t\t\tuint256 public immutable BURN_...\n      PUSHIMMUTABLE 1813\t\t\tuint256 public immutable BURN_...\n      DUP2 \t\t\tuint256 public immutable BURN_...\n      JUMP \t\t\tuint256 public immutable BURN_...\n    tag 40\t\t\tuint256 public lastBurnCycleSt...\n      JUMPDEST \t\t\tuint256 public lastBurnCycleSt...\n      PUSH [tag] 109\t\t\tuint256 public lastBurnCycleSt...\n      PUSH E\t\t\tuint256 public lastBurnCycleSt...\n      SLOAD \t\t\tuint256 public lastBurnCycleSt...\n      DUP2 \t\t\tuint256 public lastBurnCycleSt...\n      JUMP \t\t\tuint256 public lastBurnCycleSt...\n    tag 41\t\t\t\\n        _;\\n    }\\n    modif...\n      JUMPDEST \t\t\t\\n        _;\\n    }\\n    modif...\n      PUSH [tag] 109\t\t\t\\n        _;\\n    }\\n    modif...\n      PUSH [tag] 241\t\t\t\\n        _;\\n    }\\n    modif...\n      CALLDATASIZE \t\t\t\\n        _;\\n    }\\n    modif...\n      PUSH 4\t\t\t\\n        _;\\n    }\\n    modif...\n      PUSH [tag] 111\t\t\t\\n        _;\\n    }\\n    modif...\n      JUMP \t\t\t\\n        _;\\n    }\\n    modif...\n    tag 241\t\t\t\\n        _;\\n    }\\n    modif...\n      JUMPDEST \t\t\t\\n        _;\\n    }\\n    modif...\n      PUSH 1\t\t\t\n      PUSH 1\t\t\t\n      PUSH A0\t\t\t\n      SHL \t\t\t\n      SUB \t\t\t\n      AND \t\t\tact) revert NotAut\n      PUSH 0\t\t\t.sender\n      SWAP1 \t\t\tact) revert NotAut\n      DUP2 \t\t\tact) revert NotAut\n      MSTORE \t\t\tact) revert NotAut\n      PUSH 20\t\t\tact) revert NotAut\n      DUP2 \t\t\tact) revert NotAut\n      SWAP1 \t\t\tact) revert NotAut\n      MSTORE \t\t\tact) revert NotAut\n      PUSH 40\t\t\tact) revert NotAut\n      SWAP1 \t\t\tact) revert NotAut\n      KECCAK256 \t\t\tact) revert NotAut\n      SLOAD \t\t\tact) revert NotAut\n      SWAP1 \t\t\tact) revert NotAut\n      JUMP \t\t\t\\n        _;\\n    }\\n    modif...\n    tag 42\t\t\tfunction renounceOwnership() p...\n      JUMPDEST \t\t\tfunction renounceOwnership() p...\n      PUSH [tag] 131\t\t\tfunction renounceOwnership() p...\n      PUSH [tag] 245\t\t\tfunction renounceOwnership() p...\n      JUMP \t\t\tfunction renounceOwnership() p...\n    tag 43\t\t\tbool public bl2pRevealed\n      JUMPDEST \t\t\tbool public bl2pRevealed\n      PUSH 9\t\t\tbool public bl2pRevealed\n      SLOAD \t\t\tbool public bl2pRevealed\n      PUSH [tag] 125\t\t\tbool public bl2pRevealed\n      SWAP1 \t\t\tbool public bl2pRevealed\n      PUSH 100\t\t\tbool public bl2pRevealed\n      SWAP1 \t\t\tbool public bl2pRevealed\n      DIV \t\t\tbool public bl2pRevealed\n      PUSH FF\t\t\tbool public bl2pRevealed\n      AND \t\t\tbool public bl2pRevealed\n      DUP2 \t\t\tbool public bl2pRevealed\n      JUMP \t\t\tbool public bl2pRevealed\n    tag 44\t\t\tmapping(address => uint256) pu...\n      JUMPDEST \t\t\tmapping(address => uint256) pu...\n      PUSH [tag] 109\t\t\tmapping(address => uint256) pu...\n      PUSH [tag] 250\t\t\tmapping(address => uint256) pu...\n      CALLDATASIZE \t\t\tmapping(address => uint256) pu...\n      PUSH 4\t\t\tmapping(address => uint256) pu...\n      PUSH [tag] 111\t\t\tmapping(address => uint256) pu...\n      JUMP \t\t\tmapping(address => uint256) pu...\n    tag 250\t\t\tmapping(address => uint256) pu...\n      JUMPDEST \t\t\tmapping(address => uint256) pu...\n      PUSH 8\t\t\tmapping(address => uint256) pu...\n      PUSH 20\t\t\tmapping(address => uint256) pu...\n      MSTORE \t\t\tmapping(address => uint256) pu...\n      PUSH 0\t\t\tmapping(address => uint256) pu...\n      SWAP1 \t\t\tmapping(address => uint256) pu...\n      DUP2 \t\t\tmapping(address => uint256) pu...\n      MSTORE \t\t\tmapping(address => uint256) pu...\n      PUSH 40\t\t\tmapping(address => uint256) pu...\n      SWAP1 \t\t\tmapping(address => uint256) pu...\n      KECCAK256 \t\t\tmapping(address => uint256) pu...\n      SLOAD \t\t\tmapping(address => uint256) pu...\n      DUP2 \t\t\tmapping(address => uint256) pu...\n      JUMP \t\t\tmapping(address => uint256) pu...\n    tag 45\t\t\tuint256 public maturationPerio...\n      JUMPDEST \t\t\tuint256 public maturationPerio...\n      PUSH [tag] 109\t\t\tuint256 public maturationPerio...\n      PUSH 19\t\t\tuint256 public maturationPerio...\n      SLOAD \t\t\tuint256 public maturationPerio...\n      DUP2 \t\t\tuint256 public maturationPerio...\n      JUMP \t\t\tuint256 public maturationPerio...\n    tag 46\t\t\tbool public ignitionRegistrati...\n      JUMPDEST \t\t\tbool public ignitionRegistrati...\n      PUSH 1D\t\t\tbool public ignitionRegistrati...\n      SLOAD \t\t\tbool public ignitionRegistrati...\n      PUSH [tag] 125\t\t\tbool public ignitionRegistrati...\n      SWAP1 \t\t\tbool public ignitionRegistrati...\n      PUSH 1\t\t\t\n      PUSH A8\t\t\t\n      SHL \t\t\t\n      SWAP1 \t\t\tbool public ignitionRegistrati...\n      DIV \t\t\tbool public ignitionRegistrati...\n      PUSH FF\t\t\tbool public ignitionRegistrati...\n      AND \t\t\tbool public ignitionRegistrati...\n      DUP2 \t\t\tbool public ignitionRegistrati...\n      JUMP \t\t\tbool public ignitionRegistrati...\n    tag 47\t\t\taddress[] public topDelegates\n      JUMPDEST \t\t\taddress[] public topDelegates\n      PUSH [tag] 259\t\t\taddress[] public topDelegates\n      PUSH [tag] 260\t\t\taddress[] public topDelegates\n      CALLDATASIZE \t\t\taddress[] public topDelegates\n      PUSH 4\t\t\taddress[] public topDelegates\n      PUSH [tag] 117\t\t\taddress[] public topDelegates\n      JUMP \t\t\taddress[] public topDelegates\n    tag 260\t\t\taddress[] public topDelegates\n      JUMPDEST \t\t\taddress[] public topDelegates\n      PUSH [tag] 261\t\t\taddress[] public topDelegates\n      JUMP \t\t\taddress[] public topDelegates\n    tag 259\t\t\taddress[] public topDelegates\n      JUMPDEST \t\t\taddress[] public topDelegates\n      PUSH 40\t\t\taddress[] public topDelegates\n      MLOAD \t\t\taddress[] public topDelegates\n      PUSH 1\t\t\t\n      PUSH 1\t\t\t\n      PUSH A0\t\t\t\n      SHL \t\t\t\n      SUB \t\t\t\n      SWAP1 \t\t\t\\n    mapping(uint256 => Propo...\n      SWAP2 \t\t\t\\n    mapping(uint256 => Propo...\n      AND \t\t\t\\n    mapping(uint256 => Propo...\n      DUP2 \t\t\tic advertisements;\\n    mappin...\n      MSTORE \t\t\tic advertisements;\\n    mappin...\n      PUSH 20\t\t\tse\n      ADD \t\t\tt256 => Advertisem\n      PUSH [tag] 113\t\t\taddress[] public topDelegates\n      JUMP \t\t\tapping(address => uint256) pub...\n    tag 48\t\t\taddress[] public ignitionParti...\n      JUMPDEST \t\t\taddress[] public ignitionParti...\n      PUSH [tag] 259\t\t\taddress[] public ignitionParti...\n      PUSH [tag] 265\t\t\taddress[] public ignitionParti...\n      CALLDATASIZE \t\t\taddress[] public ignitionParti...\n      PUSH 4\t\t\taddress[] public ignitionParti...\n      PUSH [tag] 117\t\t\taddress[] public ignitionParti...\n      JUMP \t\t\taddress[] public ignitionParti...\n    tag 265\t\t\taddress[] public ignitionParti...\n      JUMPDEST \t\t\taddress[] public ignitionParti...\n      PUSH [tag] 266\t\t\taddress[] public ignitionParti...\n      JUMP \t\t\taddress[] public ignitionParti...\n    tag 49\t\t\tfunction participateInBurn(uin...\n      JUMPDEST \t\t\tfunction participateInBurn(uin...\n      PUSH [tag] 131\t\t\tfunction participateInBurn(uin...\n      PUSH [tag] 269\t\t\tfunction participateInBurn(uin...\n      CALLDATASIZE \t\t\tfunction participateInBurn(uin...\n      PUSH 4\t\t\tfunction participateInBurn(uin...\n      PUSH [tag] 117\t\t\tfunction participateInBurn(uin...\n      JUMP \t\t\tfunction participateInBurn(uin...\n    tag 269\t\t\tfunction participateInBurn(uin...\n      JUMPDEST \t\t\tfunction participateInBurn(uin...\n      PUSH [tag] 270\t\t\tfunction participateInBurn(uin...\n      JUMP \t\t\tfunction participateInBurn(uin...\n    tag 50\t\t\tmapping(address => bool) publi...\n      JUMPDEST \t\t\tmapping(address => bool) publi...\n      PUSH [tag] 125\t\t\tmapping(address => bool) publi...\n      PUSH [tag] 272\t\t\tmapping(address => bool) publi...\n      CALLDATASIZE \t\t\tmapping(address => bool) publi...\n      PUSH 4\t\t\tmapping(address => bool) publi...\n      PUSH [tag] 111\t\t\tmapping(address => bool) publi...\n      JUMP \t\t\tmapping(address => bool) publi...\n    tag 272\t\t\tmapping(address => bool) publi...\n      JUMPDEST \t\t\tmapping(address => bool) publi...\n      PUSH 2A\t\t\tmapping(address => bool) publi...\n      PUSH 20\t\t\tmapping(address => bool) publi...\n      MSTORE \t\t\tmapping(address => bool) publi...\n      PUSH 0\t\t\tmapping(address => bool) publi...\n      SWAP1 \t\t\tmapping(address => bool) publi...\n      DUP2 \t\t\tmapping(address => bool) publi...\n      MSTORE \t\t\tmapping(address => bool) publi...\n      PUSH 40\t\t\tmapping(address => bool) publi...\n      SWAP1 \t\t\tmapping(address => bool) publi...\n      KECCAK256 \t\t\tmapping(address => bool) publi...\n      SLOAD \t\t\tmapping(address => bool) publi...\n      PUSH FF\t\t\tmapping(address => bool) publi...\n      AND \t\t\tmapping(address => bool) publi...\n      DUP2 \t\t\tmapping(address => bool) publi...\n      JUMP \t\t\tmapping(address => bool) publi...\n    tag 51\t\t\tfunction getLastProposer() pub...\n      JUMPDEST \t\t\tfunction getLastProposer() pub...\n      PUSH 16\t\t\tproposalCount\n      SLOAD \t\t\tproposalCount\n      PUSH 0\t\t\taddress\n      SWAP1 \t\t\tproposals[proposalCount]\n      DUP2 \t\t\tproposals[proposalCount]\n      MSTORE \t\t\tproposals[proposalCount]\n      PUSH 24\t\t\tproposals\n      PUSH 20\t\t\tproposals[proposalCount]\n      MSTORE \t\t\tproposals[proposalCount]\n      PUSH 40\t\t\tproposals[proposalCount]\n      SWAP1 \t\t\tproposals[proposalCount]\n      KECCAK256 \t\t\tproposals[proposalCount]\n      PUSH 6\t\t\tproposals[proposalCount].propo...\n      ADD \t\t\tproposals[proposalCount].propo...\n      SLOAD \t\t\tproposals[proposalCount].propo...\n      PUSH 1\t\t\t\n      PUSH 1\t\t\t\n      PUSH A0\t\t\t\n      SHL \t\t\t\n      SUB \t\t\t\n      AND \t\t\tproposals[proposalCount].propo...\n      PUSH [tag] 259\t\t\tfunction getLastProposer() pub...\n      JUMP \t\t\tfunction getLastProposer() pub...\n    tag 52\t\t\tmapping(address => uint256) pu...\n      JUMPDEST \t\t\tmapping(address => uint256) pu...\n      PUSH [tag] 109\t\t\tmapping(address => uint256) pu...\n      PUSH [tag] 279\t\t\tmapping(address => uint256) pu...\n      CALLDATASIZE \t\t\tmapping(address => uint256) pu...\n      PUSH 4\t\t\tmapping(address => uint256) pu...\n      PUSH [tag] 111\t\t\tmapping(address => uint256) pu...\n      JUMP \t\t\tmapping(address => uint256) pu...\n    tag 279\t\t\tmapping(address => uint256) pu...\n      JUMPDEST \t\t\tmapping(address => uint256) pu...\n      PUSH 21\t\t\tmapping(address => uint256) pu...\n      PUSH 20\t\t\tmapping(address => uint256) pu...\n      MSTORE \t\t\tmapping(address => uint256) pu...\n      PUSH 0\t\t\tmapping(address => uint256) pu...\n      SWAP1 \t\t\tmapping(address => uint256) pu...\n      DUP2 \t\t\tmapping(address => uint256) pu...\n      MSTORE \t\t\tmapping(address => uint256) pu...\n      PUSH 40\t\t\tmapping(address => uint256) pu...\n      SWAP1 \t\t\tmapping(address => uint256) pu...\n      KECCAK256 \t\t\tmapping(address => uint256) pu...\n      SLOAD \t\t\tmapping(address => uint256) pu...\n      DUP2 \t\t\tmapping(address => uint256) pu...\n      JUMP \t\t\tmapping(address => uint256) pu...\n    tag 53\t\t\tfunction updateBL2PMaturity(ad...\n      JUMPDEST \t\t\tfunction updateBL2PMaturity(ad...\n      PUSH [tag] 131\t\t\tfunction updateBL2PMaturity(ad...\n      PUSH [tag] 283\t\t\tfunction updateBL2PMaturity(ad...\n      CALLDATASIZE \t\t\tfunction updateBL2PMaturity(ad...\n      PUSH 4\t\t\tfunction updateBL2PMaturity(ad...\n      PUSH [tag] 111\t\t\tfunction updateBL2PMaturity(ad...\n      JUMP \t\t\tfunction updateBL2PMaturity(ad...\n    tag 283\t\t\tfunction updateBL2PMaturity(ad...\n      JUMPDEST \t\t\tfunction updateBL2PMaturity(ad...\n      PUSH [tag] 284\t\t\tfunction updateBL2PMaturity(ad...\n      JUMP \t\t\tfunction updateBL2PMaturity(ad...\n    tag 54\t\t\tuint256 public advertisementCo...\n      JUMPDEST \t\t\tuint256 public advertisementCo...\n      PUSH [tag] 109\t\t\tuint256 public advertisementCo...\n      PUSH 18\t\t\tuint256 public advertisementCo...\n      SLOAD \t\t\tuint256 public advertisementCo...\n      DUP2 \t\t\tuint256 public advertisementCo...\n      JUMP \t\t\tuint256 public advertisementCo...\n    tag 55\t\t\tuint256 public totalStaked\n      JUMPDEST \t\t\tuint256 public totalStaked\n      PUSH [tag] 109\t\t\tuint256 public totalStaked\n      PUSH 11\t\t\tuint256 public totalStaked\n      SLOAD \t\t\tuint256 public totalStaked\n      DUP2 \t\t\tuint256 public totalStaked\n      JUMP \t\t\tuint256 public totalStaked\n    tag 56\t\t\ttionPeriod();\\n    error Inval...\n      JUMPDEST \t\t\ttionPeriod();\\n    error Inval...\n      PUSH 6\t\t\ttyBurn\n      SLOAD \t\t\ttyBurn\n      PUSH 1\t\t\t\n      PUSH 1\t\t\t\n      PUSH A0\t\t\t\n      SHL \t\t\t\n      SUB \t\t\t\n      AND \t\t\ttyBurn\n      PUSH [tag] 259\t\t\ttionPeriod();\\n    error Inval...\n      JUMP \t\t\ttionPeriod();\\n    error Inval...\n    tag 57\t\t\tfunction delegateVote(address ...\n      JUMPDEST \t\t\tfunction delegateVote(address ...\n      PUSH [tag] 131\t\t\tfunction delegateVote(address ...\n      PUSH [tag] 295\t\t\tfunction delegateVote(address ...\n      CALLDATASIZE \t\t\tfunction delegateVote(address ...\n      PUSH 4\t\t\tfunction delegateVote(address ...\n      PUSH [tag] 127\t\t\tfunction delegateVote(address ...\n      JUMP \t\t\tfunction delegateVote(address ...\n    tag 295\t\t\tfunction delegateVote(address ...\n      JUMPDEST \t\t\tfunction delegateVote(address ...\n      PUSH [tag] 296\t\t\tfunction delegateVote(address ...\n      JUMP \t\t\tfunction delegateVote(address ...\n    tag 58\t\t\tuint256 public ANNUAL_BURN_AMO...\n      JUMPDEST \t\t\tuint256 public ANNUAL_BURN_AMO...\n      PUSH [tag] 109\t\t\tuint256 public ANNUAL_BURN_AMO...\n      PUSH F\t\t\tuint256 public ANNUAL_BURN_AMO...\n      SLOAD \t\t\tuint256 public ANNUAL_BURN_AMO...\n      DUP2 \t\t\tuint256 public ANNUAL_BURN_AMO...\n      JUMP \t\t\tuint256 public ANNUAL_BURN_AMO...\n    tag 59\t\t\tr AirdropAlreadyTriggered();\\n...\n      JUMPDEST \t\t\tr AirdropAlreadyTriggered();\\n...\n      PUSH [tag] 121\t\t\tr AirdropAlreadyTriggered();\\n...\n      PUSH [tag] 301\t\t\tr AirdropAlreadyTriggered();\\n...\n      JUMP \t\t\tr AirdropAlreadyTriggered();\\n...\n    tag 60\t\t\tbool public burnPhaseActive\n      JUMPDEST \t\t\tbool public burnPhaseActive\n      PUSH 9\t\t\tbool public burnPhaseActive\n      SLOAD \t\t\tbool public burnPhaseActive\n      PUSH [tag] 125\t\t\tbool public burnPhaseActive\n      SWAP1 \t\t\tbool public burnPhaseActive\n      PUSH FF\t\t\tbool public burnPhaseActive\n      AND \t\t\tbool public burnPhaseActive\n      DUP2 \t\t\tbool public burnPhaseActive\n      JUMP \t\t\tbool public burnPhaseActive\n    tag 61\t\t\tfunction getTopDelegates() ext...\n      JUMPDEST \t\t\tfunction getTopDelegates() ext...\n      PUSH [tag] 306\t\t\tfunction getTopDelegates() ext...\n      PUSH [tag] 307\t\t\tfunction getTopDelegates() ext...\n      JUMP \t\t\tfunction getTopDelegates() ext...\n    tag 306\t\t\tfunction getTopDelegates() ext...\n      JUMPDEST \t\t\tfunction getTopDelegates() ext...\n      PUSH 40\t\t\tfunction getTopDelegates() ext...\n      MLOAD \t\t\tfunction getTopDelegates() ext...\n      PUSH [tag] 113\t\t\tfunction getTopDelegates() ext...\n      SWAP2 \t\t\tfunction getTopDelegates() ext...\n      SWAP1 \t\t\tfunction getTopDelegates() ext...\n      PUSH [tag] 309\t\t\tfunction getTopDelegates() ext...\n      JUMP \t\t\tfunction getTopDelegates() ext...\n    tag 62\t\t\tmapping(address => DelegationI...\n      JUMPDEST \t\t\tmapping(address => DelegationI...\n      PUSH [tag] 310\t\t\tmapping(address => DelegationI...\n      PUSH [tag] 311\t\t\tmapping(address => DelegationI...\n      CALLDATASIZE \t\t\tmapping(address => DelegationI...\n      PUSH 4\t\t\tmapping(address => DelegationI...\n      PUSH [tag] 111\t\t\tmapping(address => DelegationI...\n      JUMP \t\t\tmapping(address => DelegationI...\n    tag 311\t\t\tmapping(address => DelegationI...\n      JUMPDEST \t\t\tmapping(address => DelegationI...\n      PUSH 27\t\t\tmapping(address => DelegationI...\n      PUSH 20\t\t\tmapping(address => DelegationI...\n      MSTORE \t\t\tmapping(address => DelegationI...\n      PUSH 0\t\t\tmapping(address => DelegationI...\n      SWAP1 \t\t\tmapping(address => DelegationI...\n      DUP2 \t\t\tmapping(address => DelegationI...\n      MSTORE \t\t\tmapping(address => DelegationI...\n      PUSH 40\t\t\tmapping(address => DelegationI...\n      SWAP1 \t\t\tmapping(address => DelegationI...\n      KECCAK256 \t\t\tmapping(address => DelegationI...\n      DUP1 \t\t\tmapping(address => DelegationI...\n      SLOAD \t\t\tmapping(address => DelegationI...\n      PUSH 1\t\t\tmapping(address => DelegationI...\n      DUP3 \t\t\tmapping(address => DelegationI...\n      ADD \t\t\tmapping(address => DelegationI...\n      SLOAD \t\t\tmapping(address => DelegationI...\n      PUSH 2\t\t\tmapping(address => DelegationI...\n      DUP4 \t\t\tmapping(address => DelegationI...\n      ADD \t\t\tmapping(address => DelegationI...\n      SLOAD \t\t\tmapping(address => DelegationI...\n      PUSH 3\t\t\tmapping(address => DelegationI...\n      SWAP1 \t\t\tmapping(address => DelegationI...\n      SWAP4 \t\t\tmapping(address => DelegationI...\n      ADD \t\t\tmapping(address => DelegationI...\n      SLOAD \t\t\tmapping(address => DelegationI...\n      PUSH 1\t\t\t\n      PUSH 1\t\t\t\n      PUSH A0\t\t\t\n      SHL \t\t\t\n      SUB \t\t\t\n      SWAP3 \t\t\tmapping(address => DelegationI...\n      DUP4 \t\t\tmapping(address => DelegationI...\n      AND \t\t\tmapping(address => DelegationI...\n      SWAP4 \t\t\tmapping(address => DelegationI...\n      SWAP2 \t\t\tmapping(address => DelegationI...\n      SWAP1 \t\t\tmapping(address => DelegationI...\n      SWAP3 \t\t\tmapping(address => DelegationI...\n      AND \t\t\tmapping(address => DelegationI...\n      SWAP2 \t\t\tmapping(address => DelegationI...\n      DUP5 \t\t\tmapping(address => DelegationI...\n      JUMP \t\t\tmapping(address => DelegationI...\n    tag 310\t\t\tmapping(address => DelegationI...\n      JUMPDEST \t\t\tmapping(address => DelegationI...\n      PUSH 40\t\t\tmapping(address => DelegationI...\n      DUP1 \t\t\tmapping(address => DelegationI...\n      MLOAD \t\t\tmapping(address => DelegationI...\n      PUSH 1\t\t\t\n      PUSH 1\t\t\t\n      PUSH A0\t\t\t\n      SHL \t\t\t\n      SUB \t\t\t\n      SWAP6 \t\t\t  bool executed\n      DUP7 \t\t\t  bool executed\n      AND \t\t\t  bool executed\n      DUP2 \t\t\toposalType;\\n        bool exec...\n      MSTORE \t\t\toposalType;\\n        bool exec...\n      SWAP5 \t\t\tsVoted;\\n       \n      SWAP1 \t\t\tsVoted;\\n       \n      SWAP4 \t\t\tsVoted;\\n       \n      AND \t\t\tsVoted;\\n       \n      PUSH 20\t\t\tl)\n      DUP6 \t\t\t(address => bool) \n      ADD \t\t\t(address => bool) \n      MSTORE \t\t\tmapping(address => bool) hasVo...\n      SWAP2 \t\t\t=> bytes32) voteCo\n      DUP4 \t\t\t=> bytes32) voteCo\n      ADD \t\t\t=> bytes32) voteCo\n      MSTORE \t\t\tddress => bytes32) voteCommits...\n      PUSH 60\t\t\t  \n      DUP3 \t\t\tL2PMetadata {\\n    \n      ADD \t\t\tL2PMetadata {\\n    \n      MSTORE \t\t\ttruct BL2PMetadata {\\n        ...\n      PUSH 80\t\t\t   \n      ADD \t\t\tss newAddress;\\n    \n      PUSH [tag] 113\t\t\tmapping(address => DelegationI...\n      JUMP \t\t\tposal {\\n        uint256 id;\\n...\n    tag 63\t\t\tfunction triggerIgnitionAirdro...\n      JUMPDEST \t\t\tfunction triggerIgnitionAirdro...\n      PUSH [tag] 131\t\t\tfunction triggerIgnitionAirdro...\n      PUSH [tag] 316\t\t\tfunction triggerIgnitionAirdro...\n      JUMP \t\t\tfunction triggerIgnitionAirdro...\n    tag 64\t\t\tuint256 public earlyAdopterCou...\n      JUMPDEST \t\t\tuint256 public earlyAdopterCou...\n      PUSH [tag] 109\t\t\tuint256 public earlyAdopterCou...\n      PUSH 10\t\t\tuint256 public earlyAdopterCou...\n      SLOAD \t\t\tuint256 public earlyAdopterCou...\n      DUP2 \t\t\tuint256 public earlyAdopterCou...\n      JUMP \t\t\tuint256 public earlyAdopterCou...\n    tag 65\t\t\tmapping(address => address) pu...\n      JUMPDEST \t\t\tmapping(address => address) pu...\n      PUSH [tag] 259\t\t\tmapping(address => address) pu...\n      PUSH [tag] 321\t\t\tmapping(address => address) pu...\n      CALLDATASIZE \t\t\tmapping(address => address) pu...\n      PUSH 4\t\t\tmapping(address => address) pu...\n      PUSH [tag] 111\t\t\tmapping(address => address) pu...\n      JUMP \t\t\tmapping(address => address) pu...\n    tag 321\t\t\tmapping(address => address) pu...\n      JUMPDEST \t\t\tmapping(address => address) pu...\n      PUSH 22\t\t\tmapping(address => address) pu...\n      PUSH 20\t\t\tmapping(address => address) pu...\n      MSTORE \t\t\tmapping(address => address) pu...\n      PUSH 0\t\t\tmapping(address => address) pu...\n      SWAP1 \t\t\tmapping(address => address) pu...\n      DUP2 \t\t\tmapping(address => address) pu...\n      MSTORE \t\t\tmapping(address => address) pu...\n      PUSH 40\t\t\tmapping(address => address) pu...\n      SWAP1 \t\t\tmapping(address => address) pu...\n      KECCAK256 \t\t\tmapping(address => address) pu...\n      SLOAD \t\t\tmapping(address => address) pu...\n      PUSH 1\t\t\t\n      PUSH 1\t\t\t\n      PUSH A0\t\t\t\n      SHL \t\t\t\n      SUB \t\t\t\n      AND \t\t\tmapping(address => address) pu...\n      DUP2 \t\t\tmapping(address => address) pu...\n      JUMP \t\t\tmapping(address => address) pu...\n    tag 66\t\t\tfunction commitVote(uint256 id...\n      JUMPDEST \t\t\tfunction commitVote(uint256 id...\n      PUSH [tag] 131\t\t\tfunction commitVote(uint256 id...\n      PUSH [tag] 325\t\t\tfunction commitVote(uint256 id...\n      CALLDATASIZE \t\t\tfunction commitVote(uint256 id...\n      PUSH 4\t\t\tfunction commitVote(uint256 id...\n      PUSH [tag] 326\t\t\tfunction commitVote(uint256 id...\n      JUMP \t\t\tfunction commitVote(uint256 id...\n    tag 325\t\t\tfunction commitVote(uint256 id...\n      JUMPDEST \t\t\tfunction commitVote(uint256 id...\n      PUSH [tag] 327\t\t\tfunction commitVote(uint256 id...\n      JUMP \t\t\tfunction commitVote(uint256 id...\n    tag 67\t\t\tuint256 public VOTE_THRESHOLD ...\n      JUMPDEST \t\t\tuint256 public VOTE_THRESHOLD ...\n      PUSH [tag] 109\t\t\tuint256 public VOTE_THRESHOLD ...\n      PUSH 14\t\t\tuint256 public VOTE_THRESHOLD ...\n      SLOAD \t\t\tuint256 public VOTE_THRESHOLD ...\n      DUP2 \t\t\tuint256 public VOTE_THRESHOLD ...\n      JUMP \t\t\tuint256 public VOTE_THRESHOLD ...\n    tag 68\t\t\tfunction claimIgnitionAirdrop(...\n      JUMPDEST \t\t\tfunction claimIgnitionAirdrop(...\n      PUSH [tag] 131\t\t\tfunction claimIgnitionAirdrop(...\n      PUSH [tag] 332\t\t\tfunction claimIgnitionAirdrop(...\n      JUMP \t\t\tfunction claimIgnitionAirdrop(...\n    tag 69\t\t\tfunction revokeDelegation() ex...\n      JUMPDEST \t\t\tfunction revokeDelegation() ex...\n      PUSH [tag] 131\t\t\tfunction revokeDelegation() ex...\n      PUSH [tag] 334\t\t\tfunction revokeDelegation() ex...\n      JUMP \t\t\tfunction revokeDelegation() ex...\n    tag 70\t\t\tfunction stake(uint256 amount)...\n      JUMPDEST \t\t\tfunction stake(uint256 amount)...\n      PUSH [tag] 131\t\t\tfunction stake(uint256 amount)...\n      PUSH [tag] 336\t\t\tfunction stake(uint256 amount)...\n      CALLDATASIZE \t\t\tfunction stake(uint256 amount)...\n      PUSH 4\t\t\tfunction stake(uint256 amount)...\n      PUSH [tag] 117\t\t\tfunction stake(uint256 amount)...\n      JUMP \t\t\tfunction stake(uint256 amount)...\n    tag 336\t\t\tfunction stake(uint256 amount)...\n      JUMPDEST \t\t\tfunction stake(uint256 amount)...\n      PUSH [tag] 337\t\t\tfunction stake(uint256 amount)...\n      JUMP \t\t\tfunction stake(uint256 amount)...\n    tag 71\t\t\tfunction transfer(address reci...\n      JUMPDEST \t\t\tfunction transfer(address reci...\n      PUSH [tag] 125\t\t\tfunction transfer(address reci...\n      PUSH [tag] 339\t\t\tfunction transfer(address reci...\n      CALLDATASIZE \t\t\tfunction transfer(address reci...\n      PUSH 4\t\t\tfunction transfer(address reci...\n      PUSH [tag] 127\t\t\tfunction transfer(address reci...\n      JUMP \t\t\tfunction transfer(address reci...\n    tag 339\t\t\tfunction transfer(address reci...\n      JUMPDEST \t\t\tfunction transfer(address reci...\n      PUSH [tag] 340\t\t\tfunction transfer(address reci...\n      JUMP \t\t\tfunction transfer(address reci...\n    tag 72\t\t\tfunction getIgnitionParticipan...\n      JUMPDEST \t\t\tfunction getIgnitionParticipan...\n      PUSH [tag] 306\t\t\tfunction getIgnitionParticipan...\n      PUSH [tag] 343\t\t\tfunction getIgnitionParticipan...\n      JUMP \t\t\tfunction getIgnitionParticipan...\n    tag 73\t\t\taddress public governanceContr...\n      JUMPDEST \t\t\taddress public governanceContr...\n      PUSH 1D\t\t\taddress public governanceContr...\n      SLOAD \t\t\taddress public governanceContr...\n      PUSH [tag] 259\t\t\taddress public governanceContr...\n      SWAP1 \t\t\taddress public governanceContr...\n      PUSH 1\t\t\t\n      PUSH 1\t\t\t\n      PUSH A0\t\t\t\n      SHL \t\t\t\n      SUB \t\t\t\n      AND \t\t\taddress public governanceContr...\n      DUP2 \t\t\taddress public governanceContr...\n      JUMP \t\t\taddress public governanceContr...\n    tag 74\t\t\tuint256 public immutable ACTIV...\n      JUMPDEST \t\t\tuint256 public immutable ACTIV...\n      PUSH [tag] 109\t\t\tuint256 public immutable ACTIV...\n      PUSHIMMUTABLE 1808\t\t\tuint256 public immutable ACTIV...\n      DUP2 \t\t\tuint256 public immutable ACTIV...\n      JUMP \t\t\tuint256 public immutable ACTIV...\n    tag 75\t\t\tfunction transferBL2P(address ...\n      JUMPDEST \t\t\tfunction transferBL2P(address ...\n      PUSH [tag] 131\t\t\tfunction transferBL2P(address ...\n      PUSH [tag] 352\t\t\tfunction transferBL2P(address ...\n      CALLDATASIZE \t\t\tfunction transferBL2P(address ...\n      PUSH 4\t\t\tfunction transferBL2P(address ...\n      PUSH [tag] 127\t\t\tfunction transferBL2P(address ...\n      JUMP \t\t\tfunction transferBL2P(address ...\n    tag 352\t\t\tfunction transferBL2P(address ...\n      JUMPDEST \t\t\tfunction transferBL2P(address ...\n      PUSH [tag] 353\t\t\tfunction transferBL2P(address ...\n      JUMP \t\t\tfunction transferBL2P(address ...\n    tag 76\t\t\tfunction getRemainingValidBL2P...\n      JUMPDEST \t\t\tfunction getRemainingValidBL2P...\n      PUSH [tag] 109\t\t\tfunction getRemainingValidBL2P...\n      PUSH [tag] 355\t\t\tfunction getRemainingValidBL2P...\n      CALLDATASIZE \t\t\tfunction getRemainingValidBL2P...\n      PUSH 4\t\t\tfunction getRemainingValidBL2P...\n      PUSH [tag] 111\t\t\tfunction getRemainingValidBL2P...\n      JUMP \t\t\tfunction getRemainingValidBL2P...\n    tag 355\t\t\tfunction getRemainingValidBL2P...\n      JUMPDEST \t\t\tfunction getRemainingValidBL2P...\n      PUSH [tag] 356\t\t\tfunction getRemainingValidBL2P...\n      JUMP \t\t\tfunction getRemainingValidBL2P...\n    tag 77\t\t\tmapping(uint256 => Advertiseme...\n      JUMPDEST \t\t\tmapping(uint256 => Advertiseme...\n      PUSH [tag] 358\t\t\tmapping(uint256 => Advertiseme...\n      PUSH [tag] 359\t\t\tmapping(uint256 => Advertiseme...\n      CALLDATASIZE \t\t\tmapping(uint256 => Advertiseme...\n      PUSH 4\t\t\tmapping(uint256 => Advertiseme...\n      PUSH [tag] 117\t\t\tmapping(uint256 => Advertiseme...\n      JUMP \t\t\tmapping(uint256 => Advertiseme...\n    tag 359\t\t\tmapping(uint256 => Advertiseme...\n      JUMPDEST \t\t\tmapping(uint256 => Advertiseme...\n      PUSH [tag] 360\t\t\tmapping(uint256 => Advertiseme...\n      JUMP \t\t\tmapping(uint256 => Advertiseme...\n    tag 358\t\t\tmapping(uint256 => Advertiseme...\n      JUMPDEST \t\t\tmapping(uint256 => Advertiseme...\n      PUSH 40\t\t\tmapping(uint256 => Advertiseme...\n      MLOAD \t\t\tmapping(uint256 => Advertiseme...\n      PUSH [tag] 113\t\t\tmapping(uint256 => Advertiseme...\n      SWAP4 \t\t\tmapping(uint256 => Advertiseme...\n      SWAP3 \t\t\tmapping(uint256 => Advertiseme...\n      SWAP2 \t\t\tmapping(uint256 => Advertiseme...\n      SWAP1 \t\t\tmapping(uint256 => Advertiseme...\n      PUSH [tag] 362\t\t\tmapping(uint256 => Advertiseme...\n      JUMP \t\t\tmapping(uint256 => Advertiseme...\n    tag 78\t\t\tmapping(address => BL2PMetadat...\n      JUMPDEST \t\t\tmapping(address => BL2PMetadat...\n      PUSH [tag] 363\t\t\tmapping(address => BL2PMetadat...\n      PUSH [tag] 364\t\t\tmapping(address => BL2PMetadat...\n      CALLDATASIZE \t\t\tmapping(address => BL2PMetadat...\n      PUSH 4\t\t\tmapping(address => BL2PMetadat...\n      PUSH [tag] 111\t\t\tmapping(address => BL2PMetadat...\n      JUMP \t\t\tmapping(address => BL2PMetadat...\n    tag 364\t\t\tmapping(address => BL2PMetadat...\n      JUMPDEST \t\t\tmapping(address => BL2PMetadat...\n      PUSH 25\t\t\tmapping(address => BL2PMetadat...\n      PUSH 20\t\t\tmapping(address => BL2PMetadat...\n      MSTORE \t\t\tmapping(address => BL2PMetadat...\n      PUSH 0\t\t\tmapping(address => BL2PMetadat...\n      SWAP1 \t\t\tmapping(address => BL2PMetadat...\n      DUP2 \t\t\tmapping(address => BL2PMetadat...\n      MSTORE \t\t\tmapping(address => BL2PMetadat...\n      PUSH 40\t\t\tmapping(address => BL2PMetadat...\n      SWAP1 \t\t\tmapping(address => BL2PMetadat...\n      KECCAK256 \t\t\tmapping(address => BL2PMetadat...\n      DUP1 \t\t\tmapping(address => BL2PMetadat...\n      SLOAD \t\t\tmapping(address => BL2PMetadat...\n      PUSH 1\t\t\tmapping(address => BL2PMetadat...\n      SWAP1 \t\t\tmapping(address => BL2PMetadat...\n      SWAP2 \t\t\tmapping(address => BL2PMetadat...\n      ADD \t\t\tmapping(address => BL2PMetadat...\n      SLOAD \t\t\tmapping(address => BL2PMetadat...\n      PUSH FF\t\t\tmapping(address => BL2PMetadat...\n      AND \t\t\tmapping(address => BL2PMetadat...\n      DUP3 \t\t\tmapping(address => BL2PMetadat...\n      JUMP \t\t\tmapping(address => BL2PMetadat...\n    tag 363\t\t\tmapping(address => BL2PMetadat...\n      JUMPDEST \t\t\tmapping(address => BL2PMetadat...\n      PUSH 40\t\t\tmapping(address => BL2PMetadat...\n      DUP1 \t\t\tmapping(address => BL2PMetadat...\n      MLOAD \t\t\tmapping(address => BL2PMetadat...\n      SWAP3 \t\t\t referrer, uint256 bonus)\n      DUP4 \t\t\t referrer, uint256 bonus)\n      MSTORE \t\t\t referrer, uint256 bonus)\n      SWAP1 \t\t\tnt256 amount, \n      ISZERO \t\t\tnt256 amount, \n      ISZERO \t\t\tser, uint256 amount, u\n      PUSH 20\t\t\txe\n      DUP4 \t\t\ted(address indexed\n      ADD \t\t\ted(address indexed\n      MSTORE \t\t\tnt Staked(address indexed user...\n      ADD \t\t\talBonusPaid(addres\n      PUSH [tag] 113\t\t\tmapping(address => BL2PMetadat...\n      JUMP \t\t\tClaimed(address indexed user, ...\n    tag 79\t\t\tfunction useBL2PForStaking(uin...\n      JUMPDEST \t\t\tfunction useBL2PForStaking(uin...\n      PUSH [tag] 131\t\t\tfunction useBL2PForStaking(uin...\n      PUSH [tag] 369\t\t\tfunction useBL2PForStaking(uin...\n      CALLDATASIZE \t\t\tfunction useBL2PForStaking(uin...\n      PUSH 4\t\t\tfunction useBL2PForStaking(uin...\n      PUSH [tag] 117\t\t\tfunction useBL2PForStaking(uin...\n      JUMP \t\t\tfunction useBL2PForStaking(uin...\n    tag 369\t\t\tfunction useBL2PForStaking(uin...\n      JUMPDEST \t\t\tfunction useBL2PForStaking(uin...\n      PUSH [tag] 370\t\t\tfunction useBL2PForStaking(uin...\n      JUMP \t\t\tfunction useBL2PForStaking(uin...\n    tag 80\t\t\tuint256 public inactivityBurnR...\n      JUMPDEST \t\t\tuint256 public inactivityBurnR...\n      PUSH [tag] 109\t\t\tuint256 public inactivityBurnR...\n      PUSH 1B\t\t\tuint256 public inactivityBurnR...\n      SLOAD \t\t\tuint256 public inactivityBurnR...\n      DUP2 \t\t\tuint256 public inactivityBurnR...\n      JUMP \t\t\tuint256 public inactivityBurnR...\n    tag 81\t\t\taddress public trustedRecipien...\n      JUMPDEST \t\t\taddress public trustedRecipien...\n      PUSH 7\t\t\taddress public trustedRecipien...\n      SLOAD \t\t\taddress public trustedRecipien...\n      PUSH [tag] 259\t\t\taddress public trustedRecipien...\n      SWAP1 \t\t\taddress public trustedRecipien...\n      PUSH 1\t\t\t\n      PUSH 1\t\t\t\n      PUSH A0\t\t\t\n      SHL \t\t\t\n      SUB \t\t\t\n      AND \t\t\taddress public trustedRecipien...\n      DUP2 \t\t\taddress public trustedRecipien...\n      JUMP \t\t\taddress public trustedRecipien...\n    tag 82\t\t\tuint256 public totalBurned\n      JUMPDEST \t\t\tuint256 public totalBurned\n      PUSH [tag] 109\t\t\tuint256 public totalBurned\n      PUSH B\t\t\tuint256 public totalBurned\n      SLOAD \t\t\tuint256 public totalBurned\n      DUP2 \t\t\tuint256 public totalBurned\n      JUMP \t\t\tuint256 public totalBurned\n    tag 83\t\t\tuint256 public proposalCount\n      JUMPDEST \t\t\tuint256 public proposalCount\n      PUSH [tag] 109\t\t\tuint256 public proposalCount\n      PUSH 16\t\t\tuint256 public proposalCount\n      SLOAD \t\t\tuint256 public proposalCount\n      DUP2 \t\t\tuint256 public proposalCount\n      JUMP \t\t\tuint256 public proposalCount\n    tag 84\t\t\tfunction verifyBL2PIntegrity(a...\n      JUMPDEST \t\t\tfunction verifyBL2PIntegrity(a...\n      PUSH [tag] 383\t\t\tfunction verifyBL2PIntegrity(a...\n      PUSH [tag] 384\t\t\tfunction verifyBL2PIntegrity(a...\n      CALLDATASIZE \t\t\tfunction verifyBL2PIntegrity(a...\n      PUSH 4\t\t\tfunction verifyBL2PIntegrity(a...\n      PUSH [tag] 194\t\t\tfunction verifyBL2PIntegrity(a...\n      JUMP \t\t\tfunction verifyBL2PIntegrity(a...\n    tag 384\t\t\tfunction verifyBL2PIntegrity(a...\n      JUMPDEST \t\t\tfunction verifyBL2PIntegrity(a...\n      PUSH [tag] 385\t\t\tfunction verifyBL2PIntegrity(a...\n      JUMP \t\t\tfunction verifyBL2PIntegrity(a...\n    tag 383\t\t\tfunction verifyBL2PIntegrity(a...\n      JUMPDEST \t\t\tfunction verifyBL2PIntegrity(a...\n      PUSH 40\t\t\tfunction verifyBL2PIntegrity(a...\n      DUP1 \t\t\tfunction verifyBL2PIntegrity(a...\n      MLOAD \t\t\tfunction verifyBL2PIntegrity(a...\n      SWAP3 \t\t\ter, uint256 bl\n      ISZERO \t\t\ter, uint256 bl\n      ISZERO \t\t\texed user, uint256 bl2\n      DUP4 \t\t\tStaked(address indexed user, u...\n      MSTORE \t\t\tStaked(address indexed user, u...\n      PUSH 20\t\t\tit\n      DUP4 \t\t\tnt ProposalSubmitt\n      ADD \t\t\tnt ProposalSubmitt\n      SWAP2 \t\t\t    event ProposalSubmitted(ui...\n      SWAP1 \t\t\t    event ProposalSubmitted(ui...\n      SWAP2 \t\t\t    event ProposalSubmitted(ui...\n      MSTORE \t\t\t    event ProposalSubmitted(ui...\n      ADD \t\t\t256 reward);\\n    e\n      PUSH [tag] 113\t\t\tfunction verifyBL2PIntegrity(a...\n      JUMP \t\t\ttamp);\\n    event Unstaked(add...\n    tag 85\t\t\t256 public immutable LOCKED_RE...\n      JUMPDEST \t\t\t256 public immutable LOCKED_RE...\n      PUSH [tag] 109\t\t\t256 public immutable LOCKED_RE...\n      PUSH [tag] 389\t\t\t256 public immutable LOCKED_RE...\n      CALLDATASIZE \t\t\t256 public immutable LOCKED_RE...\n      PUSH 4\t\t\t256 public immutable LOCKED_RE...\n      PUSH [tag] 390\t\t\t256 public immutable LOCKED_RE...\n      JUMP \t\t\t256 public immutable LOCKED_RE...\n    tag 389\t\t\t256 public immutable LOCKED_RE...\n      JUMPDEST \t\t\t256 public immutable LOCKED_RE...\n      PUSH 1\t\t\t\n      PUSH 1\t\t\t\n      PUSH A0\t\t\t\n      SHL \t\t\t\n      SUB \t\t\t\n      SWAP2 \t\t\tPOOL = 500_000_000\n      DUP3 \t\t\tPOOL = 500_000_000\n      AND \t\t\tPOOL = 500_000_000\n      PUSH 0\t\t\tmmutabl\n      SWAP1 \t\t\tPOOL = 500_000_000\n      DUP2 \t\t\tPOOL = 500_000_000\n      MSTORE \t\t\tPOOL = 500_000_000\n      PUSH 1\t\t\tPOOL = 500_\n      PUSH 20\t\t\tPOOL = 500_000_000\n      SWAP1 \t\t\tPOOL = 500_000_000\n      DUP2 \t\t\tPOOL = 500_000_000\n      MSTORE \t\t\tPOOL = 500_000_000\n      PUSH 40\t\t\tPOOL = 500_000_000\n      DUP1 \t\t\tPOOL = 500_000_000\n      DUP4 \t\t\tPOOL = 500_000_000\n      KECCAK256 \t\t\tPOOL = 500_000_000\n      SWAP4 \t\t\tPOOL = 500_000_000 * 1e18;\\n\n      SWAP1 \t\t\tPOOL = 500_000_000 * 1e18;\\n\n      SWAP5 \t\t\tPOOL = 500_000_000 * 1e18;\\n\n      AND \t\t\tPOOL = 500_000_000 * 1e18;\\n\n      DUP3 \t\t\tPOOL = 500_000_000 * 1e18;\\n\n      MSTORE \t\t\tPOOL = 500_000_000 * 1e18;\\n\n      SWAP2 \t\t\tPOOL = 500_000_000 * 1e18;\\n\n      SWAP1 \t\t\tPOOL = 500_000_000 * 1e18;\\n\n      SWAP2 \t\t\tPOOL = 500_000_000 * 1e18;\\n\n      MSTORE \t\t\tPOOL = 500_000_000 * 1e18;\\n\n      KECCAK256 \t\t\tPOOL = 500_000_000 * 1e18;\\n\n      SLOAD \t\t\tPOOL = 500_000_000 * 1e18;\\n\n      SWAP1 \t\t\tPOOL = 500_000_000 * 1e18;\\n\n      JUMP \t\t\t256 public immutable LOCKED_RE...\n    tag 86\t\t\tmapping(address => uint256) pu...\n      JUMPDEST \t\t\tmapping(address => uint256) pu...\n      PUSH [tag] 109\t\t\tmapping(address => uint256) pu...\n      PUSH [tag] 394\t\t\tmapping(address => uint256) pu...\n      CALLDATASIZE \t\t\tmapping(address => uint256) pu...\n      PUSH 4\t\t\tmapping(address => uint256) pu...\n      PUSH [tag] 111\t\t\tmapping(address => uint256) pu...\n      JUMP \t\t\tmapping(address => uint256) pu...\n    tag 394\t\t\tmapping(address => uint256) pu...\n      JUMPDEST \t\t\tmapping(address => uint256) pu...\n      PUSH 26\t\t\tmapping(address => uint256) pu...\n      PUSH 20\t\t\tmapping(address => uint256) pu...\n      MSTORE \t\t\tmapping(address => uint256) pu...\n      PUSH 0\t\t\tmapping(address => uint256) pu...\n      SWAP1 \t\t\tmapping(address => uint256) pu...\n      DUP2 \t\t\tmapping(address => uint256) pu...\n      MSTORE \t\t\tmapping(address => uint256) pu...\n      PUSH 40\t\t\tmapping(address => uint256) pu...\n      SWAP1 \t\t\tmapping(address => uint256) pu...\n      KECCAK256 \t\t\tmapping(address => uint256) pu...\n      SLOAD \t\t\tmapping(address => uint256) pu...\n      DUP2 \t\t\tmapping(address => uint256) pu...\n      JUMP \t\t\tmapping(address => uint256) pu...\n    tag 87\t\t\tuint256 public immutable IGNIT...\n      JUMPDEST \t\t\tuint256 public immutable IGNIT...\n      PUSH [tag] 109\t\t\tuint256 public immutable IGNIT...\n      PUSHIMMUTABLE 1803\t\t\tuint256 public immutable IGNIT...\n      DUP2 \t\t\tuint256 public immutable IGNIT...\n      JUMP \t\t\tuint256 public immutable IGNIT...\n    tag 88\t\t\tfunction submitProposal(string...\n      JUMPDEST \t\t\tfunction submitProposal(string...\n      PUSH [tag] 131\t\t\tfunction submitProposal(string...\n      PUSH [tag] 401\t\t\tfunction submitProposal(string...\n      CALLDATASIZE \t\t\tfunction submitProposal(string...\n      PUSH 4\t\t\tfunction submitProposal(string...\n      PUSH [tag] 402\t\t\tfunction submitProposal(string...\n      JUMP \t\t\tfunction submitProposal(string...\n    tag 401\t\t\tfunction submitProposal(string...\n      JUMPDEST \t\t\tfunction submitProposal(string...\n      PUSH [tag] 403\t\t\tfunction submitProposal(string...\n      JUMP \t\t\tfunction submitProposal(string...\n    tag 89\t\t\tmapping(address => uint256) pu...\n      JUMPDEST \t\t\tmapping(address => uint256) pu...\n      PUSH [tag] 109\t\t\tmapping(address => uint256) pu...\n      PUSH [tag] 405\t\t\tmapping(address => uint256) pu...\n      CALLDATASIZE \t\t\tmapping(address => uint256) pu...\n      PUSH 4\t\t\tmapping(address => uint256) pu...\n      PUSH [tag] 111\t\t\tmapping(address => uint256) pu...\n      JUMP \t\t\tmapping(address => uint256) pu...\n    tag 405\t\t\tmapping(address => uint256) pu...\n      JUMPDEST \t\t\tmapping(address => uint256) pu...\n      PUSH 2B\t\t\tmapping(address => uint256) pu...\n      PUSH 20\t\t\tmapping(address => uint256) pu...\n      MSTORE \t\t\tmapping(address => uint256) pu...\n      PUSH 0\t\t\tmapping(address => uint256) pu...\n      SWAP1 \t\t\tmapping(address => uint256) pu...\n      DUP2 \t\t\tmapping(address => uint256) pu...\n      MSTORE \t\t\tmapping(address => uint256) pu...\n      PUSH 40\t\t\tmapping(address => uint256) pu...\n      SWAP1 \t\t\tmapping(address => uint256) pu...\n      KECCAK256 \t\t\tmapping(address => uint256) pu...\n      SLOAD \t\t\tmapping(address => uint256) pu...\n      DUP2 \t\t\tmapping(address => uint256) pu...\n      JUMP \t\t\tmapping(address => uint256) pu...\n    tag 90\t\t\tmodifier onlyGovernanceOrUser(...\n      JUMPDEST \t\t\tmodifier onlyGovernanceOrUser(...\n      PUSH [tag] 131\t\t\tmodifier onlyGovernanceOrUser(...\n      PUSH [tag] 409\t\t\tmodifier onlyGovernanceOrUser(...\n      CALLDATASIZE \t\t\tmodifier onlyGovernanceOrUser(...\n      PUSH 4\t\t\tmodifier onlyGovernanceOrUser(...\n      PUSH [tag] 111\t\t\tmodifier onlyGovernanceOrUser(...\n      JUMP \t\t\tmodifier onlyGovernanceOrUser(...\n    tag 409\t\t\tmodifier onlyGovernanceOrUser(...\n      JUMPDEST \t\t\tmodifier onlyGovernanceOrUser(...\n      PUSH [tag] 410\t\t\tmodifier onlyGovernanceOrUser(...\n      JUMP \t\t\tmodifier onlyGovernanceOrUser(...\n    tag 91\t\t\tmapping(uint256 => mapping(add...\n      JUMPDEST \t\t\tmapping(uint256 => mapping(add...\n      PUSH [tag] 109\t\t\tmapping(uint256 => mapping(add...\n      PUSH [tag] 412\t\t\tmapping(uint256 => mapping(add...\n      CALLDATASIZE \t\t\tmapping(uint256 => mapping(add...\n      PUSH 4\t\t\tmapping(uint256 => mapping(add...\n      PUSH [tag] 413\t\t\tmapping(uint256 => mapping(add...\n      JUMP \t\t\tmapping(uint256 => mapping(add...\n    tag 412\t\t\tmapping(uint256 => mapping(add...\n      JUMPDEST \t\t\tmapping(uint256 => mapping(add...\n      PUSH 1E\t\t\tmapping(uint256 => mapping(add...\n      PUSH 20\t\t\tmapping(uint256 => mapping(add...\n      SWAP1 \t\t\tmapping(uint256 => mapping(add...\n      DUP2 \t\t\tmapping(uint256 => mapping(add...\n      MSTORE \t\t\tmapping(uint256 => mapping(add...\n      PUSH 0\t\t\tmapping(uint256 => mapping(add...\n      SWAP3 \t\t\tmapping(uint256 => mapping(add...\n      DUP4 \t\t\tmapping(uint256 => mapping(add...\n      MSTORE \t\t\tmapping(uint256 => mapping(add...\n      PUSH 40\t\t\tmapping(uint256 => mapping(add...\n      DUP1 \t\t\tmapping(uint256 => mapping(add...\n      DUP5 \t\t\tmapping(uint256 => mapping(add...\n      KECCAK256 \t\t\tmapping(uint256 => mapping(add...\n      SWAP1 \t\t\tmapping(uint256 => mapping(add...\n      SWAP2 \t\t\tmapping(uint256 => mapping(add...\n      MSTORE \t\t\tmapping(uint256 => mapping(add...\n      SWAP1 \t\t\tmapping(uint256 => mapping(add...\n      DUP3 \t\t\tmapping(uint256 => mapping(add...\n      MSTORE \t\t\tmapping(uint256 => mapping(add...\n      SWAP1 \t\t\tmapping(uint256 => mapping(add...\n      KECCAK256 \t\t\tmapping(uint256 => mapping(add...\n      SLOAD \t\t\tmapping(uint256 => mapping(add...\n      DUP2 \t\t\tmapping(uint256 => mapping(add...\n      JUMP \t\t\tmapping(uint256 => mapping(add...\n    tag 92\t\t\tfunction revealVote(uint256 id...\n      JUMPDEST \t\t\tfunction revealVote(uint256 id...\n      PUSH [tag] 131\t\t\tfunction revealVote(uint256 id...\n      PUSH [tag] 417\t\t\tfunction revealVote(uint256 id...\n      CALLDATASIZE \t\t\tfunction revealVote(uint256 id...\n      PUSH 4\t\t\tfunction revealVote(uint256 id...\n      PUSH [tag] 418\t\t\tfunction revealVote(uint256 id...\n      JUMP \t\t\tfunction revealVote(uint256 id...\n    tag 417\t\t\tfunction revealVote(uint256 id...\n      JUMPDEST \t\t\tfunction revealVote(uint256 id...\n      PUSH [tag] 419\t\t\tfunction revealVote(uint256 id...\n      JUMP \t\t\tfunction revealVote(uint256 id...\n    tag 93\t\t\tfunction getBL2PLifetime(addre...\n      JUMPDEST \t\t\tfunction getBL2PLifetime(addre...\n      PUSH [tag] 420\t\t\tfunction getBL2PLifetime(addre...\n      PUSH [tag] 421\t\t\tfunction getBL2PLifetime(addre...\n      CALLDATASIZE \t\t\tfunction getBL2PLifetime(addre...\n      PUSH 4\t\t\tfunction getBL2PLifetime(addre...\n      PUSH [tag] 111\t\t\tfunction getBL2PLifetime(addre...\n      JUMP \t\t\tfunction getBL2PLifetime(addre...\n    tag 421\t\t\tfunction getBL2PLifetime(addre...\n      JUMPDEST \t\t\tfunction getBL2PLifetime(addre...\n      PUSH [tag] 422\t\t\tfunction getBL2PLifetime(addre...\n      JUMP \t\t\tfunction getBL2PLifetime(addre...\n    tag 420\t\t\tfunction getBL2PLifetime(addre...\n      JUMPDEST \t\t\tfunction getBL2PLifetime(addre...\n      PUSH 40\t\t\tfunction getBL2PLifetime(addre...\n      DUP1 \t\t\tfunction getBL2PLifetime(addre...\n      MLOAD \t\t\tfunction getBL2PLifetime(addre...\n      SWAP3 \t\t\t1_000_000_000 * 1e18) rev\n      DUP4 \t\t\t1_000_000_000 * 1e18) rev\n      MSTORE \t\t\t1_000_000_000 * 1e18) rev\n      PUSH 20\t\t\t()\n      DUP4 \t\t\tContractBalance();\n      ADD \t\t\tContractBalance();\n      SWAP2 \t\t\tficientContractBalance();\\n   ...\n      SWAP1 \t\t\tficientContractBalance();\\n   ...\n      SWAP2 \t\t\tficientContractBalance();\\n   ...\n      MSTORE \t\t\tficientContractBalance();\\n   ...\n      ADD \t\t\tbalanceOf(address(\n      PUSH [tag] 113\t\t\tfunction getBL2PLifetime(addre...\n      JUMP \t\t\tlRecipient;\\n        lockedRes...\n    tag 118\t\t\tmapping(uint256 => Proposal) p...\n      JUMPDEST \t\t\tmapping(uint256 => Proposal) p...\n      PUSH 24\t\t\tmapping(uint256 => Proposal) p...\n      PUSH 20\t\t\tmapping(uint256 => Proposal) p...\n      MSTORE \t\t\tmapping(uint256 => Proposal) p...\n      PUSH 0\t\t\tmapping(uint256 => Proposal) p...\n      SWAP1 \t\t\tmapping(uint256 => Proposal) p...\n      DUP2 \t\t\tmapping(uint256 => Proposal) p...\n      MSTORE \t\t\tmapping(uint256 => Proposal) p...\n      PUSH 40\t\t\tmapping(uint256 => Proposal) p...\n      SWAP1 \t\t\tmapping(uint256 => Proposal) p...\n      KECCAK256 \t\t\tmapping(uint256 => Proposal) p...\n      DUP1 \t\t\tmapping(uint256 => Proposal) p...\n      SLOAD \t\t\tmapping(uint256 => Proposal) p...\n      PUSH 1\t\t\tmapping(uint256 => Proposal) p...\n      DUP3 \t\t\tmapping(uint256 => Proposal) p...\n      ADD \t\t\tmapping(uint256 => Proposal) p...\n      SLOAD \t\t\tmapping(uint256 => Proposal) p...\n      PUSH 2\t\t\tmapping(uint256 => Proposal) p...\n      DUP4 \t\t\tmapping(uint256 => Proposal) p...\n      ADD \t\t\tmapping(uint256 => Proposal) p...\n      SLOAD \t\t\tmapping(uint256 => Proposal) p...\n      PUSH 3\t\t\tmapping(uint256 => Proposal) p...\n      DUP5 \t\t\tmapping(uint256 => Proposal) p...\n      ADD \t\t\tmapping(uint256 => Proposal) p...\n      SLOAD \t\t\tmapping(uint256 => Proposal) p...\n      PUSH 4\t\t\tmapping(uint256 => Proposal) p...\n      DUP6 \t\t\tmapping(uint256 => Proposal) p...\n      ADD \t\t\tmapping(uint256 => Proposal) p...\n      SLOAD \t\t\tmapping(uint256 => Proposal) p...\n      PUSH 5\t\t\tmapping(uint256 => Proposal) p...\n      DUP7 \t\t\tmapping(uint256 => Proposal) p...\n      ADD \t\t\tmapping(uint256 => Proposal) p...\n      SLOAD \t\t\tmapping(uint256 => Proposal) p...\n      PUSH 6\t\t\tmapping(uint256 => Proposal) p...\n      DUP8 \t\t\tmapping(uint256 => Proposal) p...\n      ADD \t\t\tmapping(uint256 => Proposal) p...\n      SLOAD \t\t\tmapping(uint256 => Proposal) p...\n      PUSH 7\t\t\tmapping(uint256 => Proposal) p...\n      DUP9 \t\t\tmapping(uint256 => Proposal) p...\n      ADD \t\t\tmapping(uint256 => Proposal) p...\n      SLOAD \t\t\tmapping(uint256 => Proposal) p...\n      PUSH 8\t\t\tmapping(uint256 => Proposal) p...\n      DUP10 \t\t\tmapping(uint256 => Proposal) p...\n      ADD \t\t\tmapping(uint256 => Proposal) p...\n      DUP1 \t\t\tmapping(uint256 => Proposal) p...\n      SLOAD \t\t\tmapping(uint256 => Proposal) p...\n      SWAP9 \t\t\tmapping(uint256 => Proposal) p...\n      SWAP10 \t\t\tmapping(uint256 => Proposal) p...\n      SWAP8 \t\t\tmapping(uint256 => Proposal) p...\n      SWAP9 \t\t\tmapping(uint256 => Proposal) p...\n      SWAP7 \t\t\tmapping(uint256 => Proposal) p...\n      SWAP8 \t\t\tmapping(uint256 => Proposal) p...\n      SWAP6 \t\t\tmapping(uint256 => Proposal) p...\n      SWAP7 \t\t\tmapping(uint256 => Proposal) p...\n      SWAP5 \t\t\tmapping(uint256 => Proposal) p...\n      SWAP6 \t\t\tmapping(uint256 => Proposal) p...\n      SWAP4 \t\t\tmapping(uint256 => Proposal) p...\n      SWAP5 \t\t\tmapping(uint256 => Proposal) p...\n      PUSH 1\t\t\t\n      PUSH 1\t\t\t\n      PUSH A0\t\t\t\n      SHL \t\t\t\n      SUB \t\t\t\n      SWAP4 \t\t\tmapping(uint256 => Proposal) p...\n      DUP5 \t\t\tmapping(uint256 => Proposal) p...\n      AND \t\t\tmapping(uint256 => Proposal) p...\n      SWAP5 \t\t\tmapping(uint256 => Proposal) p...\n      SWAP3 \t\t\tmapping(uint256 => Proposal) p...\n      SWAP1 \t\t\tmapping(uint256 => Proposal) p...\n      SWAP4 \t\t\tmapping(uint256 => Proposal) p...\n      AND \t\t\tmapping(uint256 => Proposal) p...\n      SWAP3 \t\t\tmapping(uint256 => Proposal) p...\n      PUSH [tag] 425\t\t\tmapping(uint256 => Proposal) p...\n      SWAP1 \t\t\tmapping(uint256 => Proposal) p...\n      PUSH [tag] 426\t\t\tmapping(uint256 => Proposal) p...\n      JUMP \t\t\tmapping(uint256 => Proposal) p...\n    tag 425\t\t\tmapping(uint256 => Proposal) p...\n      JUMPDEST \t\t\tmapping(uint256 => Proposal) p...\n      DUP1 \t\t\tmapping(uint256 => Proposal) p...\n      PUSH 1F\t\t\tmapping(uint256 => Proposal) p...\n      ADD \t\t\tmapping(uint256 => Proposal) p...\n      PUSH 20\t\t\tmapping(uint256 => Proposal) p...\n      DUP1 \t\t\tmapping(uint256 => Proposal) p...\n      SWAP2 \t\t\tmapping(uint256 => Proposal) p...\n      DIV \t\t\tmapping(uint256 => Proposal) p...\n      MUL \t\t\tmapping(uint256 => Proposal) p...\n      PUSH 20\t\t\tmapping(uint256 => Proposal) p...\n      ADD \t\t\tmapping(uint256 => Proposal) p...\n      PUSH 40\t\t\tmapping(uint256 => Proposal) p...\n      MLOAD \t\t\tmapping(uint256 => Proposal) p...\n      SWAP1 \t\t\tmapping(uint256 => Proposal) p...\n      DUP2 \t\t\tmapping(uint256 => Proposal) p...\n      ADD \t\t\tmapping(uint256 => Proposal) p...\n      PUSH 40\t\t\tmapping(uint256 => Proposal) p...\n      MSTORE \t\t\tmapping(uint256 => Proposal) p...\n      DUP1 \t\t\tmapping(uint256 => Proposal) p...\n      SWAP3 \t\t\tmapping(uint256 => Proposal) p...\n      SWAP2 \t\t\tmapping(uint256 => Proposal) p...\n      SWAP1 \t\t\tmapping(uint256 => Proposal) p...\n      DUP2 \t\t\tmapping(uint256 => Proposal) p...\n      DUP2 \t\t\tmapping(uint256 => Proposal) p...\n      MSTORE \t\t\tmapping(uint256 => Proposal) p...\n      PUSH 20\t\t\tmapping(uint256 => Proposal) p...\n      ADD \t\t\tmapping(uint256 => Proposal) p...\n      DUP3 \t\t\tmapping(uint256 => Proposal) p...\n      DUP1 \t\t\tmapping(uint256 => Proposal) p...\n      SLOAD \t\t\tmapping(uint256 => Proposal) p...\n      PUSH [tag] 427\t\t\tmapping(uint256 => Proposal) p...\n      SWAP1 \t\t\tmapping(uint256 => Proposal) p...\n      PUSH [tag] 426\t\t\tmapping(uint256 => Proposal) p...\n      JUMP \t\t\tmapping(uint256 => Proposal) p...\n    tag 427\t\t\tmapping(uint256 => Proposal) p...\n      JUMPDEST \t\t\tmapping(uint256 => Proposal) p...\n      DUP1 \t\t\tmapping(uint256 => Proposal) p...\n      ISZERO \t\t\tmapping(uint256 => Proposal) p...\n      PUSH [tag] 428\t\t\tmapping(uint256 => Proposal) p...\n      JUMPI \t\t\tmapping(uint256 => Proposal) p...\n      DUP1 \t\t\tmapping(uint256 => Proposal) p...\n      PUSH 1F\t\t\tmapping(uint256 => Proposal) p...\n      LT \t\t\tmapping(uint256 => Proposal) p...\n      PUSH [tag] 429\t\t\tmapping(uint256 => Proposal) p...\n      JUMPI \t\t\tmapping(uint256 => Proposal) p...\n      PUSH 100\t\t\tmapping(uint256 => Proposal) p...\n      DUP1 \t\t\tmapping(uint256 => Proposal) p...\n      DUP4 \t\t\tmapping(uint256 => Proposal) p...\n      SLOAD \t\t\tmapping(uint256 => Proposal) p...\n      DIV \t\t\tmapping(uint256 => Proposal) p...\n      MUL \t\t\tmapping(uint256 => Proposal) p...\n      DUP4 \t\t\tmapping(uint256 => Proposal) p...\n      MSTORE \t\t\tmapping(uint256 => Proposal) p...\n      SWAP2 \t\t\tmapping(uint256 => Proposal) p...\n      PUSH 20\t\t\tmapping(uint256 => Proposal) p...\n      ADD \t\t\tmapping(uint256 => Proposal) p...\n      SWAP2 \t\t\tmapping(uint256 => Proposal) p...\n      PUSH [tag] 428\t\t\tmapping(uint256 => Proposal) p...\n      JUMP \t\t\tmapping(uint256 => Proposal) p...\n    tag 429\t\t\tmapping(uint256 => Proposal) p...\n      JUMPDEST \t\t\tmapping(uint256 => Proposal) p...\n      DUP3 \t\t\tmapping(uint256 => Proposal) p...\n      ADD \t\t\tmapping(uint256 => Proposal) p...\n      SWAP2 \t\t\tmapping(uint256 => Proposal) p...\n      SWAP1 \t\t\tmapping(uint256 => Proposal) p...\n      PUSH 0\t\t\tmapping(uint256 => Proposal) p...\n      MSTORE \t\t\tmapping(uint256 => Proposal) p...\n      PUSH 20\t\t\tmapping(uint256 => Proposal) p...\n      PUSH 0\t\t\tmapping(uint256 => Proposal) p...\n      KECCAK256 \t\t\tmapping(uint256 => Proposal) p...\n      SWAP1 \t\t\tmapping(uint256 => Proposal) p...\n    tag 430\t\t\tmapping(uint256 => Proposal) p...\n      JUMPDEST \t\t\tmapping(uint256 => Proposal) p...\n      DUP2 \t\t\tmapping(uint256 => Proposal) p...\n      SLOAD \t\t\tmapping(uint256 => Proposal) p...\n      DUP2 \t\t\tmapping(uint256 => Proposal) p...\n      MSTORE \t\t\tmapping(uint256 => Proposal) p...\n      SWAP1 \t\t\tmapping(uint256 => Proposal) p...\n      PUSH 1\t\t\tmapping(uint256 => Proposal) p...\n      ADD \t\t\tmapping(uint256 => Proposal) p...\n      SWAP1 \t\t\tmapping(uint256 => Proposal) p...\n      PUSH 20\t\t\tmapping(uint256 => Proposal) p...\n      ADD \t\t\tmapping(uint256 => Proposal) p...\n      DUP1 \t\t\tmapping(uint256 => Proposal) p...\n      DUP4 \t\t\tmapping(uint256 => Proposal) p...\n      GT \t\t\tmapping(uint256 => Proposal) p...\n      PUSH [tag] 430\t\t\tmapping(uint256 => Proposal) p...\n      JUMPI \t\t\tmapping(uint256 => Proposal) p...\n      DUP3 \t\t\tmapping(uint256 => Proposal) p...\n      SWAP1 \t\t\tmapping(uint256 => Proposal) p...\n      SUB \t\t\tmapping(uint256 => Proposal) p...\n      PUSH 1F\t\t\tmapping(uint256 => Proposal) p...\n      AND \t\t\tmapping(uint256 => Proposal) p...\n      DUP3 \t\t\tmapping(uint256 => Proposal) p...\n      ADD \t\t\tmapping(uint256 => Proposal) p...\n      SWAP2 \t\t\tmapping(uint256 => Proposal) p...\n    tag 428\t\t\tmapping(uint256 => Proposal) p...\n      JUMPDEST \t\t\tmapping(uint256 => Proposal) p...\n      POP \t\t\t\n      POP \t\t\t\n      POP \t\t\t\n      PUSH 9\t\t\tmapping(uint256 => Proposal) p...\n      SWAP1 \t\t\tmapping(uint256 => Proposal) p...\n      SWAP4 \t\t\tmapping(uint256 => Proposal) p...\n      ADD \t\t\tmapping(uint256 => Proposal) p...\n      SLOAD \t\t\tmapping(uint256 => Proposal) p...\n      SWAP2 \t\t\tmapping(uint256 => Proposal) p...\n      SWAP3 \t\t\tmapping(uint256 => Proposal) p...\n      POP \t\t\t\n      POP \t\t\t\n      PUSH FF\t\t\tmapping(uint256 => Proposal) p...\n      DUP1 \t\t\tmapping(uint256 => Proposal) p...\n      DUP3 \t\t\tmapping(uint256 => Proposal) p...\n      AND \t\t\tmapping(uint256 => Proposal) p...\n      SWAP2 \t\t\tmapping(uint256 => Proposal) p...\n      PUSH 100\t\t\tmapping(uint256 => Proposal) p...\n      SWAP1 \t\t\tmapping(uint256 => Proposal) p...\n      DIV \t\t\tmapping(uint256 => Proposal) p...\n      AND \t\t\tmapping(uint256 => Proposal) p...\n      DUP12 \t\t\tmapping(uint256 => Proposal) p...\n      JUMP \t\t\tmapping(uint256 => Proposal) p...\n    tag 122\t\t\t\\n    error QuorumOutOfBounds(...\n      JUMPDEST \t\t\t\\n    error QuorumOutOfBounds(...\n      PUSH 60\t\t\teThresholdOut\n      PUSH 3\t\t\tor No\n      DUP1 \t\t\t    error No\n      SLOAD \t\t\t    error No\n      PUSH [tag] 432\t\t\t    error No\n      SWAP1 \t\t\t    error No\n      PUSH [tag] 426\t\t\t    error No\n      JUMP \t\t\t    error No\n    tag 432\t\t\t    error No\n      JUMPDEST \t\t\t    error No\n      DUP1 \t\t\t    error No\n      PUSH 1F\t\t\t    error No\n      ADD \t\t\t    error No\n      PUSH 20\t\t\t    error No\n      DUP1 \t\t\t    error No\n      SWAP2 \t\t\t    error No\n      DIV \t\t\t    error No\n      MUL \t\t\t    error No\n      PUSH 20\t\t\t    error No\n      ADD \t\t\t    error No\n      PUSH 40\t\t\t    error No\n      MLOAD \t\t\t    error No\n      SWAP1 \t\t\t    error No\n      DUP2 \t\t\t    error No\n      ADD \t\t\t    error No\n      PUSH 40\t\t\t    error No\n      MSTORE \t\t\t    error No\n      DUP1 \t\t\t    error No\n      SWAP3 \t\t\t    error No\n      SWAP2 \t\t\t    error No\n      SWAP1 \t\t\t    error No\n      DUP2 \t\t\t    error No\n      DUP2 \t\t\t    error No\n      MSTORE \t\t\t    error No\n      PUSH 20\t\t\t    error No\n      ADD \t\t\t    error No\n      DUP3 \t\t\t    error No\n      DUP1 \t\t\t    error No\n      SLOAD \t\t\t    error No\n      PUSH [tag] 433\t\t\t    error No\n      SWAP1 \t\t\t    error No\n      PUSH [tag] 426\t\t\t    error No\n      JUMP \t\t\t    error No\n    tag 433\t\t\t    error No\n      JUMPDEST \t\t\t    error No\n      DUP1 \t\t\t    error No\n      ISZERO \t\t\t    error No\n      PUSH [tag] 434\t\t\t    error No\n      JUMPI \t\t\t    error No\n      DUP1 \t\t\t    error No\n      PUSH 1F\t\t\t    error No\n      LT \t\t\t    error No\n      PUSH [tag] 435\t\t\t    error No\n      JUMPI \t\t\t    error No\n      PUSH 100\t\t\t    error No\n      DUP1 \t\t\t    error No\n      DUP4 \t\t\t    error No\n      SLOAD \t\t\t    error No\n      DIV \t\t\t    error No\n      MUL \t\t\t    error No\n      DUP4 \t\t\t    error No\n      MSTORE \t\t\t    error No\n      SWAP2 \t\t\t    error No\n      PUSH 20\t\t\t    error No\n      ADD \t\t\t    error No\n      SWAP2 \t\t\t    error No\n      PUSH [tag] 434\t\t\t    error No\n      JUMP \t\t\t    error No\n    tag 435\t\t\t    error No\n      JUMPDEST \t\t\t    error No\n      DUP3 \t\t\t    error No\n      ADD \t\t\t    error No\n      SWAP2 \t\t\t    error No\n      SWAP1 \t\t\t    error No\n      PUSH 0\t\t\t    error No\n      MSTORE \t\t\t    error No\n      PUSH 20\t\t\t    error No\n      PUSH 0\t\t\t    error No\n      KECCAK256 \t\t\t    error No\n      SWAP1 \t\t\t    error No\n    tag 436\t\t\t    error No\n      JUMPDEST \t\t\t    error No\n      DUP2 \t\t\t    error No\n      SLOAD \t\t\t    error No\n      DUP2 \t\t\t    error No\n      MSTORE \t\t\t    error No\n      SWAP1 \t\t\t    error No\n      PUSH 1\t\t\t    error No\n      ADD \t\t\t    error No\n      SWAP1 \t\t\t    error No\n      PUSH 20\t\t\t    error No\n      ADD \t\t\t    error No\n      DUP1 \t\t\t    error No\n      DUP4 \t\t\t    error No\n      GT \t\t\t    error No\n      PUSH [tag] 436\t\t\t    error No\n      JUMPI \t\t\t    error No\n      DUP3 \t\t\t    error No\n      SWAP1 \t\t\t    error No\n      SUB \t\t\t    error No\n      PUSH 1F\t\t\t    error No\n      AND \t\t\t    error No\n      DUP3 \t\t\t    error No\n      ADD \t\t\t    error No\n      SWAP2 \t\t\t    error No\n    tag 434\t\t\t    error No\n      JUMPDEST \t\t\t    error No\n      POP \t\t\t    error No\n      POP \t\t\t    error No\n      POP \t\t\t    error No\n      POP \t\t\t    error No\n      POP \t\t\t    error No\n      SWAP1 \t\t\t    error No\n      POP \t\t\t    error No\n      SWAP1 \t\t\t\\n    error QuorumOutOfBounds(...\n      JUMP \t\t\t\\n    error QuorumOutOfBounds(...\n    tag 128\t\t\t_000_000_000 * 1e18;\\n    uint...\n      JUMPDEST \t\t\t_000_000_000 * 1e18;\\n    uint...\n      PUSH 0\t\t\t000;\n      CALLER \t\t\tnCycleEnde\n      PUSH [tag] 440\t\t\tRATE = 10;\\n    uint256 privat...\n      DUP2 \t\t\tnCycleEnde\n      DUP6 \t\t\tint256 \n      DUP6 \t\t\tivate\n      PUSH [tag] 441\t\t\tRATE = 1\n      JUMP \t\t\tRATE = 10;\\n    uint256 privat...\n    tag 440\t\t\tRATE = 10;\\n    uint256 privat...\n      JUMPDEST \t\t\tRATE = 10;\\n    uint256 privat...\n      PUSH 1\t\t\t_BON\n      SWAP2 \t\t\tEFERRAL_BON\n      POP \t\t\tEFERRAL_BON\n      POP \t\t\tEFERRAL_BON\n    tag 437\t\t\t_000_000_000 * 1e18;\\n    uint...\n      JUMPDEST \t\t\t_000_000_000 * 1e18;\\n    uint...\n      SWAP3 \t\t\t_000_000_000 * 1e18;\\n    uint...\n      SWAP2 \t\t\t_000_000_000 * 1e18;\\n    uint...\n      POP \t\t\t_000_000_000 * 1e18;\\n    uint...\n      POP \t\t\t_000_000_000 * 1e18;\\n    uint...\n      JUMP \t\t\t_000_000_000 * 1e18;\\n    uint...\n    tag 133\t\t\tfunction executeProposal(uint2...\n      JUMPDEST \t\t\tfunction executeProposal(uint2...\n      PUSH [tag] 443\t\t\ttracts not allowed\");\n      PUSH [tag] 444\t\t\ttracts not allowed\"\n      JUMP \t\t\ttracts not allowed\");\n    tag 443\t\t\ttracts not allowed\");\n      JUMPDEST \t\t\ttracts not allowed\");\n      PUSH 9\t\t\temergencyPaused\n      SLOAD \t\t\temergencyPaused\n      PUSH 10000\t\t\temergencyPaused\n      SWAP1 \t\t\temergencyPaused\n      DIV \t\t\temergencyPaused\n      PUSH FF\t\t\temergencyPaused\n      AND \t\t\temergencyPaused\n      ISZERO \t\t\tif (emergencyPaused) revert Co...\n      PUSH [tag] 446\t\t\tif (emergencyPaused) revert Co...\n      JUMPI \t\t\tif (emergencyPaused) revert Co...\n      PUSH 40\t\t\tContractPaused()\n      MLOAD \t\t\tContractPaused()\n      PUSH AB35696F\t\t\t\n      PUSH E0\t\t\t\n      SHL \t\t\t\n      DUP2 \t\t\tContractPaused()\n      MSTORE \t\t\tContractPaused()\n      PUSH 4\t\t\tContractPaused()\n      ADD \t\t\tContractPaused()\n      PUSH 40\t\t\tContractPaused()\n      MLOAD \t\t\tContractPaused()\n      DUP1 \t\t\tContractPaused()\n      SWAP2 \t\t\tContractPaused()\n      SUB \t\t\tContractPaused()\n      SWAP1 \t\t\tContractPaused()\n      REVERT \t\t\tContractPaused()\n    tag 446\t\t\tif (emergencyPaused) revert Co...\n      JUMPDEST \t\t\tif (emergencyPaused) revert Co...\n      PUSH 0\t\t\tProposal storage p\n      DUP2 \t\t\tproposals[id]\n      DUP2 \t\t\tproposals[id]\n      MSTORE \t\t\tproposals[id]\n      PUSH 24\t\t\tproposals\n      PUSH 20\t\t\tproposals[id]\n      MSTORE \t\t\tproposals[id]\n      PUSH 40\t\t\tproposals[id]\n      DUP2 \t\t\tproposals[id]\n      KECCAK256 \t\t\tproposals[id]\n      PUSH 1\t\t\tp.startBlock\n      DUP2 \t\t\tp.startBlock\n      ADD \t\t\tp.startBlock\n      SLOAD \t\t\tp.startBlock\n      SWAP1 \t\t\tproposals[id]\n      SWAP2 \t\t\tproposals[id]\n      SUB \t\t\tp.startBlock == 0\n      PUSH [tag] 448\t\t\tif (p.startBlock == 0) revert ...\n      JUMPI \t\t\tif (p.startBlock == 0) revert ...\n      PUSH 40\t\t\tProposalDoesNotExist()\n      MLOAD \t\t\tProposalDoesNotExist()\n      PUSH 6CE3C701\t\t\t\n      PUSH E1\t\t\t\n      SHL \t\t\t\n      DUP2 \t\t\tProposalDoesNotExist()\n      MSTORE \t\t\tProposalDoesNotExist()\n      PUSH 4\t\t\tProposalDoesNotExist()\n      ADD \t\t\tProposalDoesNotExist()\n      PUSH 40\t\t\tProposalDoesNotExist()\n      MLOAD \t\t\tProposalDoesNotExist()\n      DUP1 \t\t\tProposalDoesNotExist()\n      SWAP2 \t\t\tProposalDoesNotExist()\n      SUB \t\t\tProposalDoesNotExist()\n      SWAP1 \t\t\tProposalDoesNotExist()\n      REVERT \t\t\tProposalDoesNotExist()\n    tag 448\t\t\tif (p.startBlock == 0) revert ...\n      JUMPDEST \t\t\tif (p.startBlock == 0) revert ...\n      DUP1 \t\t\tp\n      PUSH 2\t\t\tp.endBlock\n      ADD \t\t\tp.endBlock\n      SLOAD \t\t\tp.endBlock\n      TIMESTAMP \t\t\tblock.timestamp\n      GT \t\t\tblock.timestamp <= p.endBlock\n      PUSH [tag] 449\t\t\tif (block.timestamp <= p.endBl...\n      JUMPI \t\t\tif (block.timestamp <= p.endBl...\n      PUSH 40\t\t\tVotingPeriodNotEnded()\n      MLOAD \t\t\tVotingPeriodNotEnded()\n      PUSH CD7C299\t\t\t\n      PUSH E2\t\t\t\n      SHL \t\t\t\n      DUP2 \t\t\tVotingPeriodNotEnded()\n      MSTORE \t\t\tVotingPeriodNotEnded()\n      PUSH 4\t\t\tVotingPeriodNotEnded()\n      ADD \t\t\tVotingPeriodNotEnded()\n      PUSH 40\t\t\tVotingPeriodNotEnded()\n      MLOAD \t\t\tVotingPeriodNotEnded()\n      DUP1 \t\t\tVotingPeriodNotEnded()\n      SWAP2 \t\t\tVotingPeriodNotEnded()\n      SUB \t\t\tVotingPeriodNotEnded()\n      SWAP1 \t\t\tVotingPeriodNotEnded()\n      REVERT \t\t\tVotingPeriodNotEnded()\n    tag 449\t\t\tif (block.timestamp <= p.endBl...\n      JUMPDEST \t\t\tif (block.timestamp <= p.endBl...\n      PUSH 9\t\t\tp.executed\n      DUP2 \t\t\tp.executed\n      ADD \t\t\tp.executed\n      SLOAD \t\t\tp.executed\n      PUSH 100\t\t\tp.executed\n      SWAP1 \t\t\tp.executed\n      DIV \t\t\tp.executed\n      PUSH FF\t\t\tp.executed\n      AND \t\t\tp.executed\n      ISZERO \t\t\tif (p.executed) revert Proposa...\n      PUSH [tag] 450\t\t\tif (p.executed) revert Proposa...\n      JUMPI \t\t\tif (p.executed) revert Proposa...\n      PUSH 40\t\t\tProposalExecuted()\n      MLOAD \t\t\tProposalExecuted()\n      PUSH CF88C657\t\t\t\n      PUSH E0\t\t\t\n      SHL \t\t\t\n      DUP2 \t\t\tProposalExecuted()\n      MSTORE \t\t\tProposalExecuted()\n      PUSH 4\t\t\tProposalExecuted()\n      ADD \t\t\tProposalExecuted()\n      PUSH 40\t\t\tProposalExecuted()\n      MLOAD \t\t\tProposalExecuted()\n      DUP1 \t\t\tProposalExecuted()\n      SWAP2 \t\t\tProposalExecuted()\n      SUB \t\t\tProposalExecuted()\n      SWAP1 \t\t\tProposalExecuted()\n      REVERT \t\t\tProposalExecuted()\n    tag 450\t\t\tif (p.executed) revert Proposa...\n      JUMPDEST \t\t\tif (p.executed) revert Proposa...\n      PUSH 13\t\t\tQUORUM\n      SLOAD \t\t\tQUORUM\n      DUP2 \t\t\tp\n      PUSH 5\t\t\tp.againstVotes\n      ADD \t\t\tp.againstVotes\n      SLOAD \t\t\tp.againstVotes\n      DUP3 \t\t\tp\n      PUSH 4\t\t\tp.forVotes\n      ADD \t\t\tp.forVotes\n      SLOAD \t\t\tp.forVotes\n      PUSH [tag] 451\t\t\tp.forVotes + p.againstVotes\n      SWAP2 \t\t\tp.forVotes + p.againstVotes\n      SWAP1 \t\t\tp.forVotes + p.againstVotes\n      PUSH [tag] 452\t\t\tp.forVotes + p.againstVotes\n      JUMP \t\t\tp.forVotes + p.againstVotes\n    tag 451\t\t\tp.forVotes + p.againstVotes\n      JUMPDEST \t\t\tp.forVotes + p.againstVotes\n      LT \t\t\tp.forVotes + p.againstVotes < ...\n      ISZERO \t\t\tif (p.forVotes + p.againstVote...\n      PUSH [tag] 453\t\t\tif (p.forVotes + p.againstVote...\n      JUMPI \t\t\tif (p.forVotes + p.againstVote...\n      DUP2 \t\t\tid\n      PUSH 2A15F4605F8E68CBACCD2234253A8189163D500A6F60C1751405443CA1562BEB\t\t\tProposalFailed(id, \"Quorum not...\n      PUSH 40\t\t\tProposalFailed(id, \"Quorum not...\n      MLOAD \t\t\tProposalFailed(id, \"Quorum not...\n      PUSH [tag] 454\t\t\tProposalFailed(id, \"Quorum not...\n      SWAP1 \t\t\tProposalFailed(id, \"Quorum not...\n      PUSH 20\t\t\tsu\n      DUP1 \t\t\t   bool success = sup\n      DUP3 \t\t\t   bool success = sup\n      MSTORE \t\t\t   bool success = sup\n      PUSH E\t\t\t  \n      SWAP1 \t\t\tpient, amount);\\n  \n      DUP3 \t\t\tpient, amount);\\n  \n      ADD \t\t\tpient, amount);\\n  \n      MSTORE \t\t\ter(recipient, amount);\\n      ...\n      PUSH 145D5BDC9D5B481B9BDD081B595D\t\t\t\n      PUSH 92\t\t\t\n      SHL \t\t\t\n      PUSH 40\t\t\te)\n      DUP3 \t\t\t!burnPhaseActive) \n      ADD \t\t\t!burnPhaseActive) \n      MSTORE \t\t\tess && !burnPhaseActive) check...\n      PUSH 60\t\t\t  \n      ADD \t\t\tccess;\\n    }\\n\\n    \n      SWAP1 \t\t\tccess;\\n    }\\n\\n    \n      JUMP \t\t\t  }\\n    }\\n\\n    function tra...\n    tag 454\t\t\tProposalFailed(id, \"Quorum not...\n      JUMPDEST \t\t\tProposalFailed(id, \"Quorum not...\n      PUSH 40\t\t\tProposalFailed(id, \"Quorum not...\n      MLOAD \t\t\tProposalFailed(id, \"Quorum not...\n      DUP1 \t\t\tProposalFailed(id, \"Quorum not...\n      SWAP2 \t\t\tProposalFailed(id, \"Quorum not...\n      SUB \t\t\tProposalFailed(id, \"Quorum not...\n      SWAP1 \t\t\tProposalFailed(id, \"Quorum not...\n      LOG2 \t\t\tProposalFailed(id, \"Quorum not...\n      PUSH 40\t\t\tQuorumNotMet()\n      MLOAD \t\t\tQuorumNotMet()\n      PUSH 6BCF4125\t\t\t\n      PUSH E1\t\t\t\n      SHL \t\t\t\n      DUP2 \t\t\tQuorumNotMet()\n      MSTORE \t\t\tQuorumNotMet()\n      PUSH 4\t\t\tQuorumNotMet()\n      ADD \t\t\tQuorumNotMet()\n      PUSH 40\t\t\tQuorumNotMet()\n      MLOAD \t\t\tQuorumNotMet()\n      DUP1 \t\t\tQuorumNotMet()\n      SWAP2 \t\t\tQuorumNotMet()\n      SUB \t\t\tQuorumNotMet()\n      SWAP1 \t\t\tQuorumNotMet()\n      REVERT \t\t\tQuorumNotMet()\n    tag 453\t\t\tif (p.forVotes + p.againstVote...\n      JUMPDEST \t\t\tif (p.forVotes + p.againstVote...\n      PUSH 0\t\t\tuint256 totalVotes\n      DUP2 \t\t\tp\n      PUSH 5\t\t\tp.againstVotes\n      ADD \t\t\tp.againstVotes\n      SLOAD \t\t\tp.againstVotes\n      DUP3 \t\t\tp\n      PUSH 4\t\t\tp.forVotes\n      ADD \t\t\tp.forVotes\n      SLOAD \t\t\tp.forVotes\n      PUSH [tag] 456\t\t\tp.forVotes + p.againstVotes\n      SWAP2 \t\t\tp.forVotes + p.againstVotes\n      SWAP1 \t\t\tp.forVotes + p.againstVotes\n      PUSH [tag] 452\t\t\tp.forVotes + p.againstVotes\n      JUMP \t\t\tp.forVotes + p.againstVotes\n    tag 456\t\t\tp.forVotes + p.againstVotes\n      JUMPDEST \t\t\tp.forVotes + p.againstVotes\n      SWAP1 \t\t\tuint256 totalVotes = p.forVote...\n      POP \t\t\tuint256 totalVotes = p.forVote...\n      PUSH 0\t\t\tuint256 forPercentage\n      DUP2 \t\t\ttotalVotes\n      DUP4 \t\t\tp\n      PUSH 4\t\t\tp.forVotes\n      ADD \t\t\tp.forVotes\n      SLOAD \t\t\tp.forVotes\n      PUSH 2710\t\t\t10000\n      PUSH [tag] 457\t\t\tp.forVotes * 10000\n      SWAP2 \t\t\tp.forVotes * 10000\n      SWAP1 \t\t\tp.forVotes * 10000\n      PUSH [tag] 458\t\t\tp.forVotes * 10000\n      JUMP \t\t\tp.forVotes * 10000\n    tag 457\t\t\tp.forVotes * 10000\n      JUMPDEST \t\t\tp.forVotes * 10000\n      PUSH [tag] 459\t\t\t(p.forVotes * 10000) / totalVo...\n      SWAP2 \t\t\t(p.forVotes * 10000) / totalVo...\n      SWAP1 \t\t\t(p.forVotes * 10000) / totalVo...\n      PUSH [tag] 460\t\t\t(p.forVotes * 10000) / totalVo...\n      JUMP \t\t\t(p.forVotes * 10000) / totalVo...\n    tag 459\t\t\t(p.forVotes * 10000) / totalVo...\n      JUMPDEST \t\t\t(p.forVotes * 10000) / totalVo...\n      SWAP1 \t\t\tuint256 forPercentage = (p.for...\n      POP \t\t\tuint256 forPercentage = (p.for...\n      PUSH 14\t\t\tVOTE_THRESHOLD\n      SLOAD \t\t\tVOTE_THRESHOLD\n      PUSH 64\t\t\t100\n      PUSH [tag] 461\t\t\tVOTE_THRESHOLD * 100\n      SWAP2 \t\t\tVOTE_THRESHOLD * 100\n      SWAP1 \t\t\tVOTE_THRESHOLD * 100\n      PUSH [tag] 458\t\t\tVOTE_THRESHOLD * 100\n      JUMP \t\t\tVOTE_THRESHOLD * 100\n    tag 461\t\t\tVOTE_THRESHOLD * 100\n      JUMPDEST \t\t\tVOTE_THRESHOLD * 100\n      DUP2 \t\t\tforPercentage\n      GT \t\t\tforPercentage <= VOTE_THRESHOL...\n      PUSH [tag] 462\t\t\tif (forPercentage <= VOTE_THRE...\n      JUMPI \t\t\tif (forPercentage <= VOTE_THRE...\n      DUP4 \t\t\tid\n      PUSH 2A15F4605F8E68CBACCD2234253A8189163D500A6F60C1751405443CA1562BEB\t\t\tProposalFailed(id, \"Vote thres...\n      PUSH 40\t\t\tProposalFailed(id, \"Vote thres...\n      MLOAD \t\t\tProposalFailed(id, \"Vote thres...\n      PUSH [tag] 463\t\t\tProposalFailed(id, \"Vote thres...\n      SWAP1 \t\t\tProposalFailed(id, \"Vote thres...\n      PUSH 20\t\t\tev\n      DUP1 \t\t\tender) < amount) reve\n      DUP3 \t\t\tender) < amount) reve\n      MSTORE \t\t\tender) < amount) reve\n      PUSH 16\t\t\t (\n      SWAP1 \t\t\talance();\\n        \n      DUP3 \t\t\talance();\\n        \n      ADD \t\t\talance();\\n        \n      MSTORE \t\t\ticientBalance();\\n        if (...\n      PUSH 159BDD19481D1A1C995CDA1BDB19081B9BDD081B595D\t\t\t\n      PUSH 52\t\t\t\n      SHL \t\t\t\n      PUSH 40\t\t\tme\n      DUP3 \t\t\t burnDeadlineTimes\n      ADD \t\t\t burnDeadlineTimes\n      MSTORE \t\t\tstamp > burnDeadlineTimestamp ...\n      PUSH 60\t\t\tur\n      ADD \t\t\t     ++currentBurn\n      SWAP1 \t\t\t     ++currentBurn\n      JUMP \t\t\tamount) public nonReentrant wh...\n    tag 463\t\t\tProposalFailed(id, \"Vote thres...\n      JUMPDEST \t\t\tProposalFailed(id, \"Vote thres...\n      PUSH 40\t\t\tProposalFailed(id, \"Vote thres...\n      MLOAD \t\t\tProposalFailed(id, \"Vote thres...\n      DUP1 \t\t\tProposalFailed(id, \"Vote thres...\n      SWAP2 \t\t\tProposalFailed(id, \"Vote thres...\n      SUB \t\t\tProposalFailed(id, \"Vote thres...\n      SWAP1 \t\t\tProposalFailed(id, \"Vote thres...\n      LOG2 \t\t\tProposalFailed(id, \"Vote thres...\n      PUSH 40\t\t\tVoteThresholdNotMet()\n      MLOAD \t\t\tVoteThresholdNotMet()\n      PUSH 14B87411\t\t\t\n      PUSH E1\t\t\t\n      SHL \t\t\t\n      DUP2 \t\t\tVoteThresholdNotMet()\n      MSTORE \t\t\tVoteThresholdNotMet()\n      PUSH 4\t\t\tVoteThresholdNotMet()\n      ADD \t\t\tVoteThresholdNotMet()\n      PUSH 40\t\t\tVoteThresholdNotMet()\n      MLOAD \t\t\tVoteThresholdNotMet()\n      DUP1 \t\t\tVoteThresholdNotMet()\n      SWAP2 \t\t\tVoteThresholdNotMet()\n      SUB \t\t\tVoteThresholdNotMet()\n      SWAP1 \t\t\tVoteThresholdNotMet()\n      REVERT \t\t\tVoteThresholdNotMet()\n    tag 462\t\t\tif (forPercentage <= VOTE_THRE...\n      JUMPDEST \t\t\tif (forPercentage <= VOTE_THRE...\n      PUSH 9\t\t\tp.executed\n      DUP4 \t\t\tp.executed\n      ADD \t\t\tp.executed\n      DUP1 \t\t\tp.executed = true\n      SLOAD \t\t\tp.executed = true\n      PUSH 100\t\t\tp.executed = true\n      PUSH FF00\t\t\t\n      NOT \t\t\t\n      DUP3 \t\t\tp.executed = true\n      AND \t\t\tp.executed = true\n      OR \t\t\tp.executed = true\n      SWAP1 \t\t\tp.executed = true\n      SWAP2 \t\t\tp.executed = true\n      SSTORE \t\t\tp.executed = true\n      PUSH 3\t\t\tProposalType.UnlockReserve\n      SWAP1 \t\t\tProposalType.UnlockReserve\n      PUSH FF\t\t\tp.proposalType\n      AND \t\t\tp.proposalType\n      PUSH B\t\t\tp.proposalType == ProposalType...\n      DUP2 \t\t\tp.proposalType == ProposalType...\n      GT \t\t\tp.proposalType == ProposalType...\n      ISZERO \t\t\tp.proposalType == ProposalType...\n      PUSH [tag] 469\t\t\tp.proposalType == ProposalType...\n      JUMPI \t\t\tp.proposalType == ProposalType...\n      PUSH [tag] 469\t\t\tp.proposalType == ProposalType...\n      PUSH [tag] 467\t\t\tp.proposalType == ProposalType...\n      JUMP \t\t\tp.proposalType == ProposalType...\n    tag 469\t\t\tp.proposalType == ProposalType...\n      JUMPDEST \t\t\tp.proposalType == ProposalType...\n      SUB \t\t\tp.proposalType == ProposalType...\n      PUSH [tag] 470\t\t\tif (p.proposalType == Proposal...\n      JUMPI \t\t\tif (p.proposalType == Proposal...\n      PUSH 9E3400\t\t\t120 days\n      PUSH 15\t\t\tlastUnlockTimestamp\n      SLOAD \t\t\tlastUnlockTimestamp\n      PUSH [tag] 471\t\t\tlastUnlockTimestamp + UNLOCK_P...\n      SWAP2 \t\t\tlastUnlockTimestamp + UNLOCK_P...\n      SWAP1 \t\t\tlastUnlockTimestamp + UNLOCK_P...\n      PUSH [tag] 452\t\t\tlastUnlockTimestamp + UNLOCK_P...\n      JUMP \t\t\tlastUnlockTimestamp + UNLOCK_P...\n    tag 471\t\t\tlastUnlockTimestamp + UNLOCK_P...\n      JUMPDEST \t\t\tlastUnlockTimestamp + UNLOCK_P...\n      TIMESTAMP \t\t\tblock.timestamp\n      LT \t\t\tblock.timestamp < lastUnlockTi...\n      ISZERO \t\t\tif (block.timestamp < lastUnlo...\n      PUSH [tag] 472\t\t\tif (block.timestamp < lastUnlo...\n      JUMPI \t\t\tif (block.timestamp < lastUnlo...\n      PUSH 40\t\t\tUnlockPeriodNotElapsed()\n      MLOAD \t\t\tUnlockPeriodNotElapsed()\n      PUSH 7A242495\t\t\t\n      PUSH E1\t\t\t\n      SHL \t\t\t\n      DUP2 \t\t\tUnlockPeriodNotElapsed()\n      MSTORE \t\t\tUnlockPeriodNotElapsed()\n      PUSH 4\t\t\tUnlockPeriodNotElapsed()\n      ADD \t\t\tUnlockPeriodNotElapsed()\n      PUSH 40\t\t\tUnlockPeriodNotElapsed()\n      MLOAD \t\t\tUnlockPeriodNotElapsed()\n      DUP1 \t\t\tUnlockPeriodNotElapsed()\n      SWAP2 \t\t\tUnlockPeriodNotElapsed()\n      SUB \t\t\tUnlockPeriodNotElapsed()\n      SWAP1 \t\t\tUnlockPeriodNotElapsed()\n      REVERT \t\t\tUnlockPeriodNotElapsed()\n    tag 472\t\t\tif (block.timestamp < lastUnlo...\n      JUMPDEST \t\t\tif (block.timestamp < lastUnlo...\n      PUSH A\t\t\tlockedReserveBalance\n      SLOAD \t\t\tlockedReserveBalance\n      DUP4 \t\t\tp\n      PUSH 3\t\t\tp.newValue\n      ADD \t\t\tp.newValue\n      SLOAD \t\t\tp.newValue\n      GT \t\t\tp.newValue > lockedReserveBala...\n      ISZERO \t\t\tif (p.newValue > lockedReserve...\n      PUSH [tag] 473\t\t\tif (p.newValue > lockedReserve...\n      JUMPI \t\t\tif (p.newValue > lockedReserve...\n      PUSH 40\t\t\tInsufficientReserve()\n      MLOAD \t\t\tInsufficientReserve()\n      PUSH 28B35F21\t\t\t\n      PUSH E0\t\t\t\n      SHL \t\t\t\n      DUP2 \t\t\tInsufficientReserve()\n      MSTORE \t\t\tInsufficientReserve()\n      PUSH 4\t\t\tInsufficientReserve()\n      ADD \t\t\tInsufficientReserve()\n      PUSH 40\t\t\tInsufficientReserve()\n      MLOAD \t\t\tInsufficientReserve()\n      DUP1 \t\t\tInsufficientReserve()\n      SWAP2 \t\t\tInsufficientReserve()\n      SUB \t\t\tInsufficientReserve()\n      SWAP1 \t\t\tInsufficientReserve()\n      REVERT \t\t\tInsufficientReserve()\n    tag 473\t\t\tif (p.newValue > lockedReserve...\n      JUMPDEST \t\t\tif (p.newValue > lockedReserve...\n      PUSH 6\t\t\tp.proposer\n      DUP4 \t\t\tp.proposer\n      ADD \t\t\tp.proposer\n      SLOAD \t\t\tp.proposer\n      PUSH 3\t\t\tp.newValue\n      DUP5 \t\t\tp.newValue\n      ADD \t\t\tp.newValue\n      SLOAD \t\t\tp.newValue\n      PUSH [tag] 474\t\t\tIERC20(address(this)).safeTran...\n      SWAP2 \t\t\tIERC20(address(this)).safeTran...\n      ADDRESS \t\t\tthis\n      SWAP2 \t\t\tthis\n      PUSH 1\t\t\t\n      PUSH 1\t\t\t\n      PUSH A0\t\t\t\n      SHL \t\t\t\n      SUB \t\t\t\n      SWAP1 \t\t\tp.proposer\n      SWAP2 \t\t\tp.proposer\n      AND \t\t\tp.proposer\n      SWAP1 \t\t\tp.proposer\n      PUSH [tag] 475\t\t\tIERC20(address(this)).safeTran...\n      JUMP \t\t\tIERC20(address(this)).safeTran...\n    tag 474\t\t\tIERC20(address(this)).safeTran...\n      JUMPDEST \t\t\tIERC20(address(this)).safeTran...\n      DUP3 \t\t\tp\n      PUSH 3\t\t\tp.newValue\n      ADD \t\t\tp.newValue\n      SLOAD \t\t\tp.newValue\n      PUSH A\t\t\tlockedReserveBalance\n      PUSH 0\t\t\tlockedReserveBalance\n      DUP3 \t\t\tlockedReserveBalance -= p.newV...\n      DUP3 \t\t\tlockedReserveBalance -= p.newV...\n      SLOAD \t\t\tlockedReserveBalance -= p.newV...\n      PUSH [tag] 476\t\t\tlockedReserveBalance -= p.newV...\n      SWAP2 \t\t\tlockedReserveBalance -= p.newV...\n      SWAP1 \t\t\tlockedReserveBalance -= p.newV...\n      PUSH [tag] 477\t\t\tlockedReserveBalance -= p.newV...\n      JUMP \t\t\tlockedReserveBalance -= p.newV...\n    tag 476\t\t\tlockedReserveBalance -= p.newV...\n      JUMPDEST \t\t\tlockedReserveBalance -= p.newV...\n      SWAP1 \t\t\tlockedReserveBalance -= p.newV...\n      SWAP2 \t\t\tlockedReserveBalance -= p.newV...\n      SSTORE \t\t\tlockedReserveBalance -= p.newV...\n      POP \t\t\t\n      POP \t\t\t\n      TIMESTAMP \t\t\tblock.timestamp\n      PUSH 15\t\t\tlastUnlockTimestamp\n      SSTORE \t\t\tlastUnlockTimestamp = block.ti...\n      PUSH 3\t\t\tp.newValue\n      DUP4 \t\t\tp.newValue\n      ADD \t\t\tp.newValue\n      SLOAD \t\t\tp.newValue\n      PUSH A\t\t\tlockedReserveBalance\n      SLOAD \t\t\tlockedReserveBalance\n      PUSH 40\t\t\tReserveUnlocked(p.newValue, lo...\n      MLOAD \t\t\tReserveUnlocked(p.newValue, lo...\n      PUSH E49DB96A72E85D04778BB78627173221C08F5ACAA50EAEF5B0D94C0A8C1589B1\t\t\tReserveUnlocked(p.newValue, lo...\n      SWAP3 \t\t\tReserveUnlocked(p.newValue, lo...\n      PUSH [tag] 478\t\t\tReserveUnlocked(p.newValue, lo...\n      SWAP3 \t\t\tReserveUnlocked(p.newValue, lo...\n      SWAP1 \t\t\tp.newValue\n      DUP3 \t\t\t1_000_000_000 * 1e18) rev\n      MSTORE \t\t\t1_000_000_000 * 1e18) rev\n      PUSH 20\t\t\t()\n      DUP3 \t\t\tContractBalance();\n      ADD \t\t\tContractBalance();\n      MSTORE \t\t\tficientContractBalance();\\n   ...\n      PUSH 40\t\t\tss\n      ADD \t\t\tbalanceOf(address(\n      SWAP1 \t\t\tbalanceOf(address(\n      JUMP \t\t\tlRecipient;\\n        lockedRes...\n    tag 478\t\t\tReserveUnlocked(p.newValue, lo...\n      JUMPDEST \t\t\tReserveUnlocked(p.newValue, lo...\n      PUSH 40\t\t\tReserveUnlocked(p.newValue, lo...\n      MLOAD \t\t\tReserveUnlocked(p.newValue, lo...\n      DUP1 \t\t\tReserveUnlocked(p.newValue, lo...\n      SWAP2 \t\t\tReserveUnlocked(p.newValue, lo...\n      SUB \t\t\tReserveUnlocked(p.newValue, lo...\n      SWAP1 \t\t\tReserveUnlocked(p.newValue, lo...\n      LOG1 \t\t\tReserveUnlocked(p.newValue, lo...\n      PUSH [tag] 506\t\t\tif (p.proposalType == Proposal...\n      JUMP \t\t\tif (p.proposalType == Proposal...\n    tag 470\t\t\tif (p.proposalType == Proposal...\n      JUMPDEST \t\t\tif (p.proposalType == Proposal...\n      PUSH 4\t\t\tProposalType.LockedReserve\n      PUSH 9\t\t\tp.proposalType\n      DUP5 \t\t\tp.proposalType\n      ADD \t\t\tp.proposalType\n      SLOAD \t\t\tp.proposalType\n      PUSH FF\t\t\tp.proposalType\n      AND \t\t\tp.proposalType\n      PUSH B\t\t\tp.proposalType == ProposalType...\n      DUP2 \t\t\tp.proposalType == ProposalType...\n      GT \t\t\tp.proposalType == ProposalType...\n      ISZERO \t\t\tp.proposalType == ProposalType...\n      PUSH [tag] 483\t\t\tp.proposalType == ProposalType...\n      JUMPI \t\t\tp.proposalType == ProposalType...\n      PUSH [tag] 483\t\t\tp.proposalType == ProposalType...\n      PUSH [tag] 467\t\t\tp.proposalType == ProposalType...\n      JUMP \t\t\tp.proposalType == ProposalType...\n    tag 483\t\t\tp.proposalType == ProposalType...\n      JUMPDEST \t\t\tp.proposalType == ProposalType...\n      SUB \t\t\tp.proposalType == ProposalType...\n      PUSH [tag] 484\t\t\tif (p.proposalType == Proposal...\n      JUMPI \t\t\tif (p.proposalType == Proposal...\n      PUSH 3\t\t\tp.newValue\n      DUP4 \t\t\tp.newValue\n      ADD \t\t\tp.newValue\n      SLOAD \t\t\tp.newValue\n      PUSH A\t\t\tlockedReserveBalance\n      DUP2 \t\t\tlockedReserveBalance = p.newVa...\n      SWAP1 \t\t\tlockedReserveBalance = p.newVa...\n      SSTORE \t\t\tlockedReserveBalance = p.newVa...\n      PUSH 40\t\t\tLockedReserveUpdated(p.newValu...\n      MLOAD \t\t\tLockedReserveUpdated(p.newValu...\n      SWAP1 \t\t\tNotAuthorized();\\n    erro\n      DUP2 \t\t\tNotAuthorized();\\n    erro\n      MSTORE \t\t\tNotAuthorized();\\n    erro\n      PUSH 9ED927E3681DE11FBC3FC5547D178D8A2655C3AAAFD6D8704EDC6EE7E70B8389\t\t\tLockedReserveUpdated(p.newValu...\n      SWAP1 \t\t\tLockedReserveUpdated(p.newValu...\n      PUSH 20\t\t\t;\\n\n      ADD \t\t\ternanceNotSet();\\n \n      PUSH [tag] 478\t\t\tLockedReserveUpdated(p.newValu...\n      JUMP \t\t\t// Errors\\n    error InvalidRe...\n    tag 484\t\t\tif (p.proposalType == Proposal...\n      JUMPDEST \t\t\tif (p.proposalType == Proposal...\n      PUSH 5\t\t\tProposalType.Advertisement\n      PUSH 9\t\t\tp.proposalType\n      DUP5 \t\t\tp.proposalType\n      ADD \t\t\tp.proposalType\n      SLOAD \t\t\tp.proposalType\n      PUSH FF\t\t\tp.proposalType\n      AND \t\t\tp.proposalType\n      PUSH B\t\t\tp.proposalType == ProposalType...\n      DUP2 \t\t\tp.proposalType == ProposalType...\n      GT \t\t\tp.proposalType == ProposalType...\n      ISZERO \t\t\tp.proposalType == ProposalType...\n      PUSH [tag] 490\t\t\tp.proposalType == ProposalType...\n      JUMPI \t\t\tp.proposalType == ProposalType...\n      PUSH [tag] 490\t\t\tp.proposalType == ProposalType...\n      PUSH [tag] 467\t\t\tp.proposalType == ProposalType...\n      JUMP \t\t\tp.proposalType == ProposalType...\n    tag 490\t\t\tp.proposalType == ProposalType...\n      JUMPDEST \t\t\tp.proposalType == ProposalType...\n      SUB \t\t\tp.proposalType == ProposalType...\n      PUSH [tag] 491\t\t\tif (p.proposalType == Proposal...\n      JUMPI \t\t\tif (p.proposalType == Proposal...\n      DUP3 \t\t\tp.id\n      SLOAD \t\t\tp.id\n      PUSH 40\t\t\tAdvertisementPosted(p.id, p.de...\n      MLOAD \t\t\tAdvertisementPosted(p.id, p.de...\n      PUSH 56E668E6EAB92A31285F3C1809CE67652B2348579B6C5349BAD3F2E9C00399A1\t\t\tAdvertisementPosted(p.id, p.de...\n      SWAP1 \t\t\tAdvertisementPosted(p.id, p.de...\n      PUSH [tag] 492\t\t\tAdvertisementPosted(p.id, p.de...\n      SWAP1 \t\t\tAdvertisementPosted(p.id, p.de...\n      PUSH 8\t\t\tp.description\n      DUP8 \t\t\tp.description\n      ADD \t\t\tp.description\n      SWAP1 \t\t\tp.description\n      PUSH [tag] 493\t\t\tAdvertisementPosted(p.id, p.de...\n      JUMP \t\t\tAdvertisementPosted(p.id, p.de...\n    tag 492\t\t\tAdvertisementPosted(p.id, p.de...\n      JUMPDEST \t\t\tAdvertisementPosted(p.id, p.de...\n      PUSH 40\t\t\tAdvertisementPosted(p.id, p.de...\n      MLOAD \t\t\tAdvertisementPosted(p.id, p.de...\n      DUP1 \t\t\tAdvertisementPosted(p.id, p.de...\n      SWAP2 \t\t\tAdvertisementPosted(p.id, p.de...\n      SUB \t\t\tAdvertisementPosted(p.id, p.de...\n      SWAP1 \t\t\tAdvertisementPosted(p.id, p.de...\n      LOG2 \t\t\tAdvertisementPosted(p.id, p.de...\n      PUSH [tag] 506\t\t\tif (p.proposalType == Proposal...\n      JUMP \t\t\tif (p.proposalType == Proposal...\n    tag 491\t\t\tif (p.proposalType == Proposal...\n      JUMPDEST \t\t\tif (p.proposalType == Proposal...\n      PUSH 9\t\t\tProposalType.Quorum\n      DUP1 \t\t\tp.proposalType\n      DUP5 \t\t\tp.proposalType\n      ADD \t\t\tp.proposalType\n      SLOAD \t\t\tp.proposalType\n      PUSH FF\t\t\tp.proposalType\n      AND \t\t\tp.proposalType\n      PUSH B\t\t\tp.proposalType == ProposalType...\n      DUP2 \t\t\tp.proposalType == ProposalType...\n      GT \t\t\tp.proposalType == ProposalType...\n      ISZERO \t\t\tp.proposalType == ProposalType...\n      PUSH [tag] 498\t\t\tp.proposalType == ProposalType...\n      JUMPI \t\t\tp.proposalType == ProposalType...\n      PUSH [tag] 498\t\t\tp.proposalType == ProposalType...\n      PUSH [tag] 467\t\t\tp.proposalType == ProposalType...\n      JUMP \t\t\tp.proposalType == ProposalType...\n    tag 498\t\t\tp.proposalType == ProposalType...\n      JUMPDEST \t\t\tp.proposalType == ProposalType...\n      SUB \t\t\tp.proposalType == ProposalType...\n      PUSH [tag] 499\t\t\tif (p.proposalType == Proposal...\n      JUMPI \t\t\tif (p.proposalType == Proposal...\n      PUSH 3\t\t\tp.newValue\n      DUP4 \t\t\tp.newValue\n      ADD \t\t\tp.newValue\n      SLOAD \t\t\tp.newValue\n      PUSH 13\t\t\tQUORUM\n      DUP2 \t\t\tQUORUM = p.newValue\n      SWAP1 \t\t\tQUORUM = p.newValue\n      SSTORE \t\t\tQUORUM = p.newValue\n      PUSH 40\t\t\tQuorumUpdated(p.newValue)\n      MLOAD \t\t\tQuorumUpdated(p.newValue)\n      SWAP1 \t\t\tNotAuthorized();\\n    erro\n      DUP2 \t\t\tNotAuthorized();\\n    erro\n      MSTORE \t\t\tNotAuthorized();\\n    erro\n      PUSH F18F88786AAE85A652AADB99A82462616489A33370C9BCC7B245906812EF7CD1\t\t\tQuorumUpdated(p.newValue)\n      SWAP1 \t\t\tQuorumUpdated(p.newValue)\n      PUSH 20\t\t\t;\\n\n      ADD \t\t\ternanceNotSet();\\n \n      PUSH [tag] 478\t\t\tQuorumUpdated(p.newValue)\n      JUMP \t\t\t// Errors\\n    error InvalidRe...\n    tag 499\t\t\tif (p.proposalType == Proposal...\n      JUMPDEST \t\t\tif (p.proposalType == Proposal...\n      PUSH A\t\t\tProposalType.VoteThreshold\n      PUSH 9\t\t\tp.proposalType\n      DUP5 \t\t\tp.proposalType\n      ADD \t\t\tp.proposalType\n      SLOAD \t\t\tp.proposalType\n      PUSH FF\t\t\tp.proposalType\n      AND \t\t\tp.proposalType\n      PUSH B\t\t\tp.proposalType == ProposalType...\n      DUP2 \t\t\tp.proposalType == ProposalType...\n      GT \t\t\tp.proposalType == ProposalType...\n      ISZERO \t\t\tp.proposalType == ProposalType...\n      PUSH [tag] 505\t\t\tp.proposalType == ProposalType...\n      JUMPI \t\t\tp.proposalType == ProposalType...\n      PUSH [tag] 505\t\t\tp.proposalType == ProposalType...\n      PUSH [tag] 467\t\t\tp.proposalType == ProposalType...\n      JUMP \t\t\tp.proposalType == ProposalType...\n    tag 505\t\t\tp.proposalType == ProposalType...\n      JUMPDEST \t\t\tp.proposalType == ProposalType...\n      SUB \t\t\tp.proposalType == ProposalType...\n      PUSH [tag] 506\t\t\tif (p.proposalType == Proposal...\n      JUMPI \t\t\tif (p.proposalType == Proposal...\n      PUSH 3\t\t\tp.newValue\n      DUP4 \t\t\tp.newValue\n      ADD \t\t\tp.newValue\n      SLOAD \t\t\tp.newValue\n      PUSH 14\t\t\tVOTE_THRESHOLD\n      DUP2 \t\t\tVOTE_THRESHOLD = p.newValue\n      SWAP1 \t\t\tVOTE_THRESHOLD = p.newValue\n      SSTORE \t\t\tVOTE_THRESHOLD = p.newValue\n      PUSH 40\t\t\tVoteThresholdUpdated(p.newValu...\n      MLOAD \t\t\tVoteThresholdUpdated(p.newValu...\n      SWAP1 \t\t\tNotAuthorized();\\n    erro\n      DUP2 \t\t\tNotAuthorized();\\n    erro\n      MSTORE \t\t\tNotAuthorized();\\n    erro\n      PUSH C4F218F6E084BEBA806111AE2727CB7AFB13D7647AEF44C4D90B5F3C9CBE59C7\t\t\tVoteThresholdUpdated(p.newValu...\n      SWAP1 \t\t\tVoteThresholdUpdated(p.newValu...\n      PUSH 20\t\t\t;\\n\n      ADD \t\t\ternanceNotSet();\\n \n      PUSH 40\t\t\tVoteThresholdUpdated(p.newValu...\n      MLOAD \t\t\tVoteThresholdUpdated(p.newValu...\n      DUP1 \t\t\tVoteThresholdUpdated(p.newValu...\n      SWAP2 \t\t\tVoteThresholdUpdated(p.newValu...\n      SUB \t\t\tVoteThresholdUpdated(p.newValu...\n      SWAP1 \t\t\tVoteThresholdUpdated(p.newValu...\n      LOG1 \t\t\tVoteThresholdUpdated(p.newValu...\n    tag 506\t\t\tif (p.proposalType == Proposal...\n      JUMPDEST \t\t\tif (p.proposalType == Proposal...\n      PUSH 9\t\t\tp.proposalType\n      DUP4 \t\t\tp.proposalType\n      ADD \t\t\tp.proposalType\n      SLOAD \t\t\tp.proposalType\n      PUSH 3\t\t\tp.newValue\n      DUP5 \t\t\tp.newValue\n      ADD \t\t\tp.newValue\n      SLOAD \t\t\tp.newValue\n      PUSH 7\t\t\tp.newAddress\n      DUP6 \t\t\tp.newAddress\n      ADD \t\t\tp.newAddress\n      SLOAD \t\t\tp.newAddress\n      PUSH [tag] 508\t\t\tupdateParameter(p.proposalType...\n      SWAP3 \t\t\tupdateParameter(p.proposalType...\n      PUSH FF\t\t\tp.proposalType\n      AND \t\t\tp.proposalType\n      SWAP2 \t\t\tp.proposalType\n      SWAP1 \t\t\tp.newValue\n      PUSH 1\t\t\t\n      PUSH 1\t\t\t\n      PUSH A0\t\t\t\n      SHL \t\t\t\n      SUB \t\t\t\n      AND \t\t\tp.newAddress\n      PUSH [tag] 509\t\t\tupdateParameter\n      JUMP \t\t\tupdateParameter(p.proposalType...\n    tag 508\t\t\tupdateParameter(p.proposalType...\n      JUMPDEST \t\t\tupdateParameter(p.proposalType...\n      PUSH 40\t\t\tProposalWasExecuted(id)\n      MLOAD \t\t\tProposalWasExecuted(id)\n      DUP5 \t\t\tNotAuthorized();\\n    erro\n      DUP2 \t\t\tNotAuthorized();\\n    erro\n      MSTORE \t\t\tNotAuthorized();\\n    erro\n      PUSH 75D3599DC8E39A81249F199FEC177D092F6585B12894A2B393D54A28C315785C\t\t\tProposalWasExecuted(id)\n      SWAP1 \t\t\tProposalWasExecuted(id)\n      PUSH 20\t\t\t;\\n\n      ADD \t\t\ternanceNotSet();\\n \n      PUSH 40\t\t\tProposalWasExecuted(id)\n      MLOAD \t\t\tProposalWasExecuted(id)\n      DUP1 \t\t\tProposalWasExecuted(id)\n      SWAP2 \t\t\tProposalWasExecuted(id)\n      SUB \t\t\tProposalWasExecuted(id)\n      SWAP1 \t\t\tProposalWasExecuted(id)\n      LOG1 \t\t\tProposalWasExecuted(id)\n      POP \t\t\t{\\n        Proposal storage p ...\n      POP \t\t\t{\\n        Proposal storage p ...\n      POP \t\t\t{\\n        Proposal storage p ...\n      PUSH [tag] 511\t\t\t modifier onlyGovern\n      PUSH 1\t\t\t \n      PUSH 5\t\t\t}\\n\\n    \n      SSTORE \t\t\t}\\n\\n    enum ProposalT\n      JUMP \t\t\tsg.sender != owner()) revert N...\n    tag 511\t\t\t modifier onlyGovern\n      JUMPDEST \t\t\t modifier onlyGovern\n      POP \t\t\tfunction executeProposal(uint2...\n      JUMP \t\t\tfunction executeProposal(uint2...\n    tag 139\t\t\tfunction setGovernanceContract...\n      JUMPDEST \t\t\tfunction setGovernanceContract...\n      PUSH 1D\t\t\tgovernanceContract\n      SLOAD \t\t\tgovernanceContract\n      PUSH 1\t\t\t\n      PUSH 1\t\t\t\n      PUSH A0\t\t\t\n      SHL \t\t\t\n      SUB \t\t\t\n      AND \t\t\tgovernanceContract\n      CALLER \t\t\tmsg.sender\n      EQ \t\t\tmsg.sender != governanceContra...\n      DUP1 \t\t\tmsg.sender != governanceContra...\n      ISZERO \t\t\tmsg.sender != governanceContra...\n      SWAP1 \t\t\tmsg.sender != governanceContra...\n      PUSH [tag] 514\t\t\tmsg.sender != governanceContra...\n      JUMPI \t\t\tmsg.sender != governanceContra...\n      POP \t\t\t\n      PUSH 6\t\t\ttyBurn\n      SLOAD \t\t\ttyBurn\n      PUSH 1\t\t\t\n      PUSH 1\t\t\t\n      PUSH A0\t\t\t\n      SHL \t\t\t\n      SUB \t\t\t\n      AND \t\t\ttyBurn\n      CALLER \t\t\tmsg.sender\n      EQ \t\t\tmsg.sender != owner()\n      ISZERO \t\t\tmsg.sender != owner()\n    tag 514\t\t\tmsg.sender != governanceContra...\n      JUMPDEST \t\t\tmsg.sender != governanceContra...\n      ISZERO \t\t\tif (msg.sender != governanceCo...\n      PUSH [tag] 516\t\t\tif (msg.sender != governanceCo...\n      JUMPI \t\t\tif (msg.sender != governanceCo...\n      PUSH 40\t\t\tNotAuthorized()\n      MLOAD \t\t\tNotAuthorized()\n      PUSH EA8E4EB5\t\t\t\n      PUSH E0\t\t\t\n      SHL \t\t\t\n      DUP2 \t\t\tNotAuthorized()\n      MSTORE \t\t\tNotAuthorized()\n      PUSH 4\t\t\tNotAuthorized()\n      ADD \t\t\tNotAuthorized()\n      PUSH 40\t\t\tNotAuthorized()\n      MLOAD \t\t\tNotAuthorized()\n      DUP1 \t\t\tNotAuthorized()\n      SWAP2 \t\t\tNotAuthorized()\n      SUB \t\t\tNotAuthorized()\n      SWAP1 \t\t\tNotAuthorized()\n      REVERT \t\t\tNotAuthorized()\n    tag 516\t\t\tif (msg.sender != governanceCo...\n      JUMPDEST \t\t\tif (msg.sender != governanceCo...\n      PUSH 1\t\t\t\n      PUSH 1\t\t\t\n      PUSH A0\t\t\t\n      SHL \t\t\t\n      SUB \t\t\t\n      DUP2 \t\t\tnewContract == address(0)\n      AND \t\t\tnewContract == address(0)\n      PUSH [tag] 518\t\t\tif (newContract == address(0))...\n      JUMPI \t\t\tif (newContract == address(0))...\n      PUSH 40\t\t\tInvalidAddress()\n      MLOAD \t\t\tInvalidAddress()\n      PUSH E6C4247B\t\t\t\n      PUSH E0\t\t\t\n      SHL \t\t\t\n      DUP2 \t\t\tInvalidAddress()\n      MSTORE \t\t\tInvalidAddress()\n      PUSH 4\t\t\tInvalidAddress()\n      ADD \t\t\tInvalidAddress()\n      PUSH 40\t\t\tInvalidAddress()\n      MLOAD \t\t\tInvalidAddress()\n      DUP1 \t\t\tInvalidAddress()\n      SWAP2 \t\t\tInvalidAddress()\n      SUB \t\t\tInvalidAddress()\n      SWAP1 \t\t\tInvalidAddress()\n      REVERT \t\t\tInvalidAddress()\n    tag 518\t\t\tif (newContract == address(0))...\n      JUMPDEST \t\t\tif (newContract == address(0))...\n      DUP1 \t\t\tnewContract\n      PUSH 1\t\t\t\n      PUSH 1\t\t\t\n      PUSH A0\t\t\t\n      SHL \t\t\t\n      SUB \t\t\t\n      AND \t\t\tnewContract.code.length\n      EXTCODESIZE \t\t\tnewContract.code.length\n      PUSH 0\t\t\t0\n      SUB \t\t\tnewContract.code.length == 0\n      PUSH [tag] 519\t\t\tif (newContract.code.length ==...\n      JUMPI \t\t\tif (newContract.code.length ==...\n      PUSH 40\t\t\tNotContract()\n      MLOAD \t\t\tNotContract()\n      PUSH 6F7C43F1\t\t\t\n      PUSH E0\t\t\t\n      SHL \t\t\t\n      DUP2 \t\t\tNotContract()\n      MSTORE \t\t\tNotContract()\n      PUSH 4\t\t\tNotContract()\n      ADD \t\t\tNotContract()\n      PUSH 40\t\t\tNotContract()\n      MLOAD \t\t\tNotContract()\n      DUP1 \t\t\tNotContract()\n      SWAP2 \t\t\tNotContract()\n      SUB \t\t\tNotContract()\n      SWAP1 \t\t\tNotContract()\n      REVERT \t\t\tNotContract()\n    tag 519\t\t\tif (newContract.code.length ==...\n      JUMPDEST \t\t\tif (newContract.code.length ==...\n      PUSH 1D\t\t\tgovernanceContract\n      DUP1 \t\t\tgovernanceContract = newContra...\n      SLOAD \t\t\tgovernanceContract = newContra...\n      PUSH 1\t\t\t\n      PUSH 1\t\t\t\n      PUSH A0\t\t\t\n      SHL \t\t\t\n      SUB \t\t\t\n      NOT \t\t\t\n      AND \t\t\tgovernanceContract = newContra...\n      PUSH 1\t\t\t\n      PUSH 1\t\t\t\n      PUSH A0\t\t\t\n      SHL \t\t\t\n      SUB \t\t\t\n      DUP4 \t\t\tgovernanceContract = newContra...\n      AND \t\t\tgovernanceContract = newContra...\n      SWAP1 \t\t\tgovernanceContract = newContra...\n      DUP2 \t\t\tgovernanceContract = newContra...\n      OR \t\t\tgovernanceContract = newContra...\n      SWAP1 \t\t\tgovernanceContract = newContra...\n      SWAP2 \t\t\tgovernanceContract = newContra...\n      SSTORE \t\t\tgovernanceContract = newContra...\n      PUSH 40\t\t\tGovernanceContractUpdated(newC...\n      MLOAD \t\t\tGovernanceContractUpdated(newC...\n      PUSH E3CF2B71B55B62FC1A6C7B2F6FF944C1B70048908CFF22F2E08D1144E7CA7EDB\t\t\tGovernanceContractUpdated(newC...\n      SWAP1 \t\t\tGovernanceContractUpdated(newC...\n      PUSH 0\t\t\t\n      SWAP1 \t\t\t\n      LOG2 \t\t\tGovernanceContractUpdated(newC...\n      POP \t\t\tfunction setGovernanceContract...\n      JUMP \t\t\tfunction setGovernanceContract...\n    tag 156\t\t\tfunction registerForIgnitionAi...\n      JUMPDEST \t\t\tfunction registerForIgnitionAi...\n      PUSH [tag] 522\t\t\ttracts not allowed\");\n      PUSH [tag] 444\t\t\ttracts not allowed\"\n      JUMP \t\t\ttracts not allowed\");\n    tag 522\t\t\ttracts not allowed\");\n      JUMPDEST \t\t\ttracts not allowed\");\n      PUSH 9\t\t\temergencyPaused\n      SLOAD \t\t\temergencyPaused\n      PUSH 10000\t\t\temergencyPaused\n      SWAP1 \t\t\temergencyPaused\n      DIV \t\t\temergencyPaused\n      PUSH FF\t\t\temergencyPaused\n      AND \t\t\temergencyPaused\n      ISZERO \t\t\tif (emergencyPaused) revert Co...\n      PUSH [tag] 524\t\t\tif (emergencyPaused) revert Co...\n      JUMPI \t\t\tif (emergencyPaused) revert Co...\n      PUSH 40\t\t\tContractPaused()\n      MLOAD \t\t\tContractPaused()\n      PUSH AB35696F\t\t\t\n      PUSH E0\t\t\t\n      SHL \t\t\t\n      DUP2 \t\t\tContractPaused()\n      MSTORE \t\t\tContractPaused()\n      PUSH 4\t\t\tContractPaused()\n      ADD \t\t\tContractPaused()\n      PUSH 40\t\t\tContractPaused()\n      MLOAD \t\t\tContractPaused()\n      DUP1 \t\t\tContractPaused()\n      SWAP2 \t\t\tContractPaused()\n      SUB \t\t\tContractPaused()\n      SWAP1 \t\t\tContractPaused()\n      REVERT \t\t\tContractPaused()\n    tag 524\t\t\tif (emergencyPaused) revert Co...\n      JUMPDEST \t\t\tif (emergencyPaused) revert Co...\n      CALLER \t\t\tmsg.sender\n      ORIGIN \t\t\ttx.origin\n      EQ \t\t\tmsg.sender == tx.origin\n      PUSH [tag] 526\t\t\trequire(msg.sender == tx.origi...\n      JUMPI \t\t\trequire(msg.sender == tx.origi...\n      PUSH 40\t\t\trequire(msg.sender == tx.origi...\n      MLOAD \t\t\trequire(msg.sender == tx.origi...\n      PUSH 461BCD\t\t\t\n      PUSH E5\t\t\t\n      SHL \t\t\t\n      DUP2 \t\t\trequire(msg.sender == tx.origi...\n      MSTORE \t\t\trequire(msg.sender == tx.origi...\n      PUSH 4\t\t\trequire(msg.sender == tx.origi...\n      ADD \t\t\trequire(msg.sender == tx.origi...\n      PUSH [tag] 527\t\t\trequire(msg.sender == tx.origi...\n      SWAP1 \t\t\trequire(msg.sender == tx.origi...\n      PUSH [tag] 528\t\t\trequire(msg.sender == tx.origi...\n      JUMP \t\t\trequire(msg.sender == tx.origi...\n    tag 527\t\t\trequire(msg.sender == tx.origi...\n      JUMPDEST \t\t\trequire(msg.sender == tx.origi...\n      PUSH 40\t\t\trequire(msg.sender == tx.origi...\n      MLOAD \t\t\trequire(msg.sender == tx.origi...\n      DUP1 \t\t\trequire(msg.sender == tx.origi...\n      SWAP2 \t\t\trequire(msg.sender == tx.origi...\n      SUB \t\t\trequire(msg.sender == tx.origi...\n      SWAP1 \t\t\trequire(msg.sender == tx.origi...\n      REVERT \t\t\trequire(msg.sender == tx.origi...\n    tag 526\t\t\trequire(msg.sender == tx.origi...\n      JUMPDEST \t\t\trequire(msg.sender == tx.origi...\n      PUSH 1D\t\t\tignitionRegistrationOpen\n      SLOAD \t\t\tignitionRegistrationOpen\n      PUSH 1\t\t\t\n      PUSH A8\t\t\t\n      SHL \t\t\t\n      SWAP1 \t\t\tignitionRegistrationOpen\n      DIV \t\t\tignitionRegistrationOpen\n      PUSH FF\t\t\tignitionRegistrationOpen\n      AND \t\t\tignitionRegistrationOpen\n      PUSH [tag] 530\t\t\tif (!ignitionRegistrationOpen)...\n      JUMPI \t\t\tif (!ignitionRegistrationOpen)...\n      PUSH 40\t\t\tRegistrationClosed()\n      MLOAD \t\t\tRegistrationClosed()\n      PUSH 2FC209F3\t\t\t\n      PUSH E0\t\t\t\n      SHL \t\t\t\n      DUP2 \t\t\tRegistrationClosed()\n      MSTORE \t\t\tRegistrationClosed()\n      PUSH 4\t\t\tRegistrationClosed()\n      ADD \t\t\tRegistrationClosed()\n      PUSH 40\t\t\tRegistrationClosed()\n      MLOAD \t\t\tRegistrationClosed()\n      DUP1 \t\t\tRegistrationClosed()\n      SWAP2 \t\t\tRegistrationClosed()\n      SUB \t\t\tRegistrationClosed()\n      SWAP1 \t\t\tRegistrationClosed()\n      REVERT \t\t\tRegistrationClosed()\n    tag 530\t\t\tif (!ignitionRegistrationOpen)...\n      JUMPDEST \t\t\tif (!ignitionRegistrationOpen)...\n      PUSH 2D\t\t\tignitionParticipants\n      SLOAD \t\t\tignitionParticipants.length\n      PUSH 3E8\t\t\t1000\n      GT \t\t\t\n      PUSH [tag] 531\t\t\tif (ignitionParticipants.lengt...\n      JUMPI \t\t\tif (ignitionParticipants.lengt...\n      PUSH 40\t\t\tMaxParticipantsReached()\n      MLOAD \t\t\tMaxParticipantsReached()\n      PUSH 6C8C8D21\t\t\t\n      PUSH E0\t\t\t\n      SHL \t\t\t\n      DUP2 \t\t\tMaxParticipantsReached()\n      MSTORE \t\t\tMaxParticipantsReached()\n      PUSH 4\t\t\tMaxParticipantsReached()\n      ADD \t\t\tMaxParticipantsReached()\n      PUSH 40\t\t\tMaxParticipantsReached()\n      MLOAD \t\t\tMaxParticipantsReached()\n      DUP1 \t\t\tMaxParticipantsReached()\n      SWAP2 \t\t\tMaxParticipantsReached()\n      SUB \t\t\tMaxParticipantsReached()\n      SWAP1 \t\t\tMaxParticipantsReached()\n      REVERT \t\t\tMaxParticipantsReached()\n    tag 531\t\t\tif (ignitionParticipants.lengt...\n      JUMPDEST \t\t\tif (ignitionParticipants.lengt...\n      CALLER \t\t\tmsg.sender\n      PUSH 0\t\t\tignitionWhitelist[msg.sender]\n      SWAP1 \t\t\tignitionWhitelist[msg.sender]\n      DUP2 \t\t\tignitionWhitelist[msg.sender]\n      MSTORE \t\t\tignitionWhitelist[msg.sender]\n      PUSH 2A\t\t\tignitionWhitelist\n      PUSH 20\t\t\tignitionWhitelist[msg.sender]\n      MSTORE \t\t\tignitionWhitelist[msg.sender]\n      PUSH 40\t\t\tignitionWhitelist[msg.sender]\n      SWAP1 \t\t\tignitionWhitelist[msg.sender]\n      KECCAK256 \t\t\tignitionWhitelist[msg.sender]\n      SLOAD \t\t\tignitionWhitelist[msg.sender]\n      PUSH FF\t\t\tignitionWhitelist[msg.sender]\n      AND \t\t\tignitionWhitelist[msg.sender]\n      ISZERO \t\t\tif (ignitionWhitelist[msg.send...\n      PUSH [tag] 532\t\t\tif (ignitionWhitelist[msg.send...\n      JUMPI \t\t\tif (ignitionWhitelist[msg.send...\n      PUSH 40\t\t\tAlreadyRegistered()\n      MLOAD \t\t\tAlreadyRegistered()\n      PUSH EA075BF\t\t\t\n      PUSH E2\t\t\t\n      SHL \t\t\t\n      DUP2 \t\t\tAlreadyRegistered()\n      MSTORE \t\t\tAlreadyRegistered()\n      PUSH 4\t\t\tAlreadyRegistered()\n      ADD \t\t\tAlreadyRegistered()\n      PUSH 40\t\t\tAlreadyRegistered()\n      MLOAD \t\t\tAlreadyRegistered()\n      DUP1 \t\t\tAlreadyRegistered()\n      SWAP2 \t\t\tAlreadyRegistered()\n      SUB \t\t\tAlreadyRegistered()\n      SWAP1 \t\t\tAlreadyRegistered()\n      REVERT \t\t\tAlreadyRegistered()\n    tag 532\t\t\tif (ignitionWhitelist[msg.send...\n      JUMPDEST \t\t\tif (ignitionWhitelist[msg.send...\n      CALLER \t\t\tmsg.sender\n      PUSH [tag] 533\t\t\tif (msg.sender == address(0)) ...\n      JUMPI \t\t\tif (msg.sender == address(0)) ...\n      PUSH 40\t\t\tInvalidAddress()\n      MLOAD \t\t\tInvalidAddress()\n      PUSH E6C4247B\t\t\t\n      PUSH E0\t\t\t\n      SHL \t\t\t\n      DUP2 \t\t\tInvalidAddress()\n      MSTORE \t\t\tInvalidAddress()\n      PUSH 4\t\t\tInvalidAddress()\n      ADD \t\t\tInvalidAddress()\n      PUSH 40\t\t\tInvalidAddress()\n      MLOAD \t\t\tInvalidAddress()\n      DUP1 \t\t\tInvalidAddress()\n      SWAP2 \t\t\tInvalidAddress()\n      SUB \t\t\tInvalidAddress()\n      SWAP1 \t\t\tInvalidAddress()\n      REVERT \t\t\tInvalidAddress()\n    tag 533\t\t\tif (msg.sender == address(0)) ...\n      JUMPDEST \t\t\tif (msg.sender == address(0)) ...\n      CALLER \t\t\tmsg.sender\n      PUSH 0\t\t\tignitionWhitelist[msg.sender]\n      DUP2 \t\t\tignitionWhitelist[msg.sender]\n      DUP2 \t\t\tignitionWhitelist[msg.sender]\n      MSTORE \t\t\tignitionWhitelist[msg.sender]\n      PUSH 2A\t\t\tignitionWhitelist\n      PUSH 20\t\t\tignitionWhitelist[msg.sender]\n      MSTORE \t\t\tignitionWhitelist[msg.sender]\n      PUSH 40\t\t\tignitionWhitelist[msg.sender]\n      DUP1 \t\t\tignitionWhitelist[msg.sender]\n      DUP3 \t\t\tignitionWhitelist[msg.sender]\n      KECCAK256 \t\t\tignitionWhitelist[msg.sender]\n      DUP1 \t\t\tignitionWhitelist[msg.sender] ...\n      SLOAD \t\t\tignitionWhitelist[msg.sender] ...\n      PUSH FF\t\t\t\n      NOT \t\t\t\n      AND \t\t\tignitionWhitelist[msg.sender] ...\n      PUSH 1\t\t\ttrue\n      SWAP1 \t\t\tignitionWhitelist[msg.sender] ...\n      DUP2 \t\t\tignitionWhitelist[msg.sender] ...\n      OR \t\t\tignitionWhitelist[msg.sender] ...\n      SWAP1 \t\t\tignitionWhitelist[msg.sender] ...\n      SWAP2 \t\t\tignitionWhitelist[msg.sender] ...\n      SSTORE \t\t\tignitionWhitelist[msg.sender] ...\n      PUSH 2D\t\t\tignitionParticipants\n      DUP1 \t\t\tignitionParticipants.push(msg....\n      SLOAD \t\t\tignitionParticipants.push(msg....\n      SWAP2 \t\t\tignitionParticipants.push(msg....\n      DUP3 \t\t\tignitionParticipants.push(msg....\n      ADD \t\t\tignitionParticipants.push(msg....\n      DUP2 \t\t\tignitionParticipants.push(msg....\n      SSTORE \t\t\tignitionParticipants.push(msg....\n      SWAP3 \t\t\tignitionParticipants.push(msg....\n      DUP4 \t\t\tignitionParticipants.push(msg....\n      SWAP1 \t\t\tignitionParticipants.push(msg....\n      MSTORE \t\t\tignitionParticipants.push(msg....\n      PUSH 4A2CC91EE622DA3BC833A54C37FFCB6F3EC23B7793EFC5EAF5E71B7B406C5C06\t\t\tignitionParticipants.push(msg....\n      ADD \t\t\tignitionParticipants.push(msg....\n      DUP1 \t\t\tignitionParticipants.push(msg....\n      SLOAD \t\t\tignitionParticipants.push(msg....\n      PUSH 1\t\t\t\n      PUSH 1\t\t\t\n      PUSH A0\t\t\t\n      SHL \t\t\t\n      SUB \t\t\t\n      NOT \t\t\t\n      AND \t\t\tignitionParticipants.push(msg....\n      DUP5 \t\t\tignitionParticipants.push(msg....\n      OR \t\t\tignitionParticipants.push(msg....\n      SWAP1 \t\t\tignitionParticipants.push(msg....\n      SSTORE \t\t\tignitionParticipants.push(msg....\n      SWAP1 \t\t\tignitionParticipants.length\n      SLOAD \t\t\tignitionParticipants.length\n      SWAP1 \t\t\tIgnitionParticipantRegistered(...\n      MLOAD \t\t\tIgnitionParticipantRegistered(...\n      PUSH F41D185D95FF1E597498C6EFB9F4539BD988FDCCC50F710D8A8184638D604660\t\t\tIgnitionParticipantRegistered(...\n      SWAP2 \t\t\tIgnitionParticipantRegistered(...\n      PUSH [tag] 535\t\t\tIgnitionParticipantRegistered(...\n      SWAP2 \t\t\tIgnitionParticipantRegistered(...\n      SWAP1 \t\t\tNotAuthorized();\\n    erro\n      DUP2 \t\t\tNotAuthorized();\\n    erro\n      MSTORE \t\t\tNotAuthorized();\\n    erro\n      PUSH 20\t\t\t;\\n\n      ADD \t\t\ternanceNotSet();\\n \n      SWAP1 \t\t\ternanceNotSet();\\n \n      JUMP \t\t\t// Errors\\n    error InvalidRe...\n    tag 535\t\t\tIgnitionParticipantRegistered(...\n      JUMPDEST \t\t\tIgnitionParticipantRegistered(...\n      PUSH 40\t\t\tIgnitionParticipantRegistered(...\n      MLOAD \t\t\tIgnitionParticipantRegistered(...\n      DUP1 \t\t\tIgnitionParticipantRegistered(...\n      SWAP2 \t\t\tIgnitionParticipantRegistered(...\n      SUB \t\t\tIgnitionParticipantRegistered(...\n      SWAP1 \t\t\tIgnitionParticipantRegistered(...\n      LOG2 \t\t\tIgnitionParticipantRegistered(...\n      PUSH [tag] 536\t\t\t modifier onlyGovern\n      PUSH 1\t\t\t \n      PUSH 5\t\t\t}\\n\\n    \n      SSTORE \t\t\t}\\n\\n    enum ProposalT\n      JUMP \t\t\tsg.sender != owner()) revert N...\n    tag 536\t\t\t modifier onlyGovern\n      JUMPDEST \t\t\t modifier onlyGovern\n      JUMP \t\t\tfunction registerForIgnitionAi...\n    tag 163\t\t\tfunction burnInactiveBL2P(addr...\n      JUMPDEST \t\t\tfunction burnInactiveBL2P(addr...\n      PUSH [tag] 538\t\t\ttracts not allowed\");\n      PUSH [tag] 444\t\t\ttracts not allowed\"\n      JUMP \t\t\ttracts not allowed\");\n    tag 538\t\t\ttracts not allowed\");\n      JUMPDEST \t\t\ttracts not allowed\");\n      PUSH 9\t\t\temergencyPaused\n      SLOAD \t\t\temergencyPaused\n      PUSH 10000\t\t\temergencyPaused\n      SWAP1 \t\t\temergencyPaused\n      DIV \t\t\temergencyPaused\n      PUSH FF\t\t\temergencyPaused\n      AND \t\t\temergencyPaused\n      ISZERO \t\t\tif (emergencyPaused) revert Co...\n      PUSH [tag] 540\t\t\tif (emergencyPaused) revert Co...\n      JUMPI \t\t\tif (emergencyPaused) revert Co...\n      PUSH 40\t\t\tContractPaused()\n      MLOAD \t\t\tContractPaused()\n      PUSH AB35696F\t\t\t\n      PUSH E0\t\t\t\n      SHL \t\t\t\n      DUP2 \t\t\tContractPaused()\n      MSTORE \t\t\tContractPaused()\n      PUSH 4\t\t\tContractPaused()\n      ADD \t\t\tContractPaused()\n      PUSH 40\t\t\tContractPaused()\n      MLOAD \t\t\tContractPaused()\n      DUP1 \t\t\tContractPaused()\n      SWAP2 \t\t\tContractPaused()\n      SUB \t\t\tContractPaused()\n      SWAP1 \t\t\tContractPaused()\n      REVERT \t\t\tContractPaused()\n    tag 540\t\t\tif (emergencyPaused) revert Co...\n      JUMPDEST \t\t\tif (emergencyPaused) revert Co...\n      DUP1 \t\t\tuser\n      CALLER \t\t\tmsg.sender\n      PUSH 1\t\t\t\n      PUSH 1\t\t\t\n      PUSH A0\t\t\t\n      SHL \t\t\t\n      SUB \t\t\t\n      DUP3 \t\t\tmsg.sender != user\n      AND \t\t\tmsg.sender != user\n      EQ \t\t\tmsg.sender != user\n      DUP1 \t\t\tmsg.sender != user\n      ISZERO \t\t\tmsg.sender != user\n      SWAP1 \t\t\tmsg.sender != user\n      PUSH [tag] 542\t\t\tmsg.sender != user && msg.send...\n      JUMPI \t\t\tmsg.sender != user && msg.send...\n      POP \t\t\t\n      PUSH 1D\t\t\tgovernanceContract\n      SLOAD \t\t\tgovernanceContract\n      PUSH 1\t\t\t\n      PUSH 1\t\t\t\n      PUSH A0\t\t\t\n      SHL \t\t\t\n      SUB \t\t\t\n      AND \t\t\tgovernanceContract\n      CALLER \t\t\tmsg.sender\n      EQ \t\t\tmsg.sender != governanceContra...\n      ISZERO \t\t\tmsg.sender != governanceContra...\n    tag 542\t\t\tmsg.sender != user && msg.send...\n      JUMPDEST \t\t\tmsg.sender != user && msg.send...\n      ISZERO \t\t\tif (msg.sender != user && msg....\n      PUSH [tag] 543\t\t\tif (msg.sender != user && msg....\n      JUMPI \t\t\tif (msg.sender != user && msg....\n      PUSH 40\t\t\tNotAuthorized()\n      MLOAD \t\t\tNotAuthorized()\n      PUSH EA8E4EB5\t\t\t\n      PUSH E0\t\t\t\n      SHL \t\t\t\n      DUP2 \t\t\tNotAuthorized()\n      MSTORE \t\t\tNotAuthorized()\n      PUSH 4\t\t\tNotAuthorized()\n      ADD \t\t\tNotAuthorized()\n      PUSH 40\t\t\tNotAuthorized()\n      MLOAD \t\t\tNotAuthorized()\n      DUP1 \t\t\tNotAuthorized()\n      SWAP2 \t\t\tNotAuthorized()\n      SUB \t\t\tNotAuthorized()\n      SWAP1 \t\t\tNotAuthorized()\n      REVERT \t\t\tNotAuthorized()\n    tag 543\t\t\tif (msg.sender != user && msg....\n      JUMPDEST \t\t\tif (msg.sender != user && msg....\n      PUSH [tag] 545\t\t\tgetRemainingValidBL2P(user)\n      DUP3 \t\t\tuser\n      PUSH [tag] 356\t\t\tgetRemainingValidBL2P\n      JUMP \t\t\tgetRemainingValidBL2P(user)\n    tag 545\t\t\tgetRemainingValidBL2P(user)\n      JUMPDEST \t\t\tgetRemainingValidBL2P(user)\n      PUSH 0\t\t\t0\n      SUB \t\t\tgetRemainingValidBL2P(user) ==...\n      PUSH [tag] 546\t\t\tif (getRemainingValidBL2P(user...\n      JUMPI \t\t\tif (getRemainingValidBL2P(user...\n      PUSH 40\t\t\tNoValidBL2P()\n      MLOAD \t\t\tNoValidBL2P()\n      PUSH E1000181\t\t\t\n      PUSH E0\t\t\t\n      SHL \t\t\t\n      DUP2 \t\t\tNoValidBL2P()\n      MSTORE \t\t\tNoValidBL2P()\n      PUSH 4\t\t\tNoValidBL2P()\n      ADD \t\t\tNoValidBL2P()\n      PUSH 40\t\t\tNoValidBL2P()\n      MLOAD \t\t\tNoValidBL2P()\n      DUP1 \t\t\tNoValidBL2P()\n      SWAP2 \t\t\tNoValidBL2P()\n      SUB \t\t\tNoValidBL2P()\n      SWAP1 \t\t\tNoValidBL2P()\n      REVERT \t\t\tNoValidBL2P()\n    tag 546\t\t\tif (getRemainingValidBL2P(user...\n      JUMPDEST \t\t\tif (getRemainingValidBL2P(user...\n      PUSH 1\t\t\t\n      PUSH 1\t\t\t\n      PUSH A0\t\t\t\n      SHL \t\t\t\n      SUB \t\t\t\n      DUP3 \t\t\tbl2pMeta[user]\n      AND \t\t\tbl2pMeta[user]\n      PUSH 0\t\t\tBL2PMetadata storage meta\n      SWAP1 \t\t\tbl2pMeta[user]\n      DUP2 \t\t\tbl2pMeta[user]\n      MSTORE \t\t\tbl2pMeta[user]\n      PUSH 25\t\t\tbl2pMeta\n      PUSH 20\t\t\tbl2pMeta[user]\n      MSTORE \t\t\tbl2pMeta[user]\n      PUSH 40\t\t\tbl2pMeta[user]\n      SWAP1 \t\t\tbl2pMeta[user]\n      KECCAK256 \t\t\tbl2pMeta[user]\n      DUP1 \t\t\tmeta.birthAndExpiry\n      SLOAD \t\t\tmeta.birthAndExpiry\n      PUSH 1\t\t\t\n      PUSH 1\t\t\t\n      PUSH 80\t\t\t\n      SHL \t\t\t\n      SUB \t\t\t\n      AND \t\t\tmeta.birthAndExpiry & ((1 << 1...\n      TIMESTAMP \t\t\tblock.timestamp\n      DUP2 \t\t\tblock.timestamp < expiryBlock\n      GT \t\t\t\n      ISZERO \t\t\tif (block.timestamp < expiryBl...\n      PUSH [tag] 547\t\t\tif (block.timestamp < expiryBl...\n      JUMPI \t\t\tif (block.timestamp < expiryBl...\n      PUSH 40\t\t\tBL2PNotExpired()\n      MLOAD \t\t\tBL2PNotExpired()\n      PUSH 26DD1FF\t\t\t\n      PUSH E5\t\t\t\n      SHL \t\t\t\n      DUP2 \t\t\tBL2PNotExpired()\n      MSTORE \t\t\tBL2PNotExpired()\n      PUSH 4\t\t\tBL2PNotExpired()\n      ADD \t\t\tBL2PNotExpired()\n      PUSH 40\t\t\tBL2PNotExpired()\n      MLOAD \t\t\tBL2PNotExpired()\n      DUP1 \t\t\tBL2PNotExpired()\n      SWAP2 \t\t\tBL2PNotExpired()\n      SUB \t\t\tBL2PNotExpired()\n      SWAP1 \t\t\tBL2PNotExpired()\n      REVERT \t\t\tBL2PNotExpired()\n    tag 547\t\t\tif (block.timestamp < expiryBl...\n      JUMPDEST \t\t\tif (block.timestamp < expiryBl...\n      PUSH 0\t\t\tuint256 remainingBL2P\n      PUSH [tag] 548\t\t\tgetRemainingValidBL2P(user)\n      DUP6 \t\t\tuser\n      PUSH [tag] 356\t\t\tgetRemainingValidBL2P\n      JUMP \t\t\tgetRemainingValidBL2P(user)\n    tag 548\t\t\tgetRemainingValidBL2P(user)\n      JUMPDEST \t\t\tgetRemainingValidBL2P(user)\n      PUSH 1\t\t\t\n      PUSH 1\t\t\t\n      PUSH A0\t\t\t\n      SHL \t\t\t\n      SUB \t\t\t\n      DUP7 \t\t\tbl2pClaimed[user]\n      AND \t\t\tbl2pClaimed[user]\n      PUSH 0\t\t\tbl2pClaimed[user]\n      SWAP1 \t\t\tbl2pClaimed[user]\n      DUP2 \t\t\tbl2pClaimed[user]\n      MSTORE \t\t\tbl2pClaimed[user]\n      PUSH 20\t\t\tbl2pClaimed\n      DUP1 \t\t\tbl2pClaimed[user]\n      MSTORE \t\t\tbl2pClaimed[user]\n      PUSH 40\t\t\tbl2pClaimed[user]\n      SWAP1 \t\t\tbl2pClaimed[user]\n      KECCAK256 \t\t\tbl2pClaimed[user]\n      SLOAD \t\t\tbl2pClaimed[user]\n      SWAP1 \t\t\tuint256 remainingBL2P = getRem...\n      SWAP2 \t\t\tuint256 remainingBL2P = getRem...\n      POP \t\t\t\n      DUP2 \t\t\tremainingBL2P < bl2pClaimed[us...\n      LT \t\t\tremainingBL2P < bl2pClaimed[us...\n      ISZERO \t\t\tif (remainingBL2P < bl2pClaime...\n      PUSH [tag] 549\t\t\tif (remainingBL2P < bl2pClaime...\n      JUMPI \t\t\tif (remainingBL2P < bl2pClaime...\n      PUSH 1\t\t\t\n      PUSH 1\t\t\t\n      PUSH A0\t\t\t\n      SHL \t\t\t\n      SUB \t\t\t\n      DUP6 \t\t\tbl2pClaimed[user]\n      AND \t\t\tbl2pClaimed[user]\n      PUSH 0\t\t\tuint256 toBurn\n      SWAP1 \t\t\tbl2pClaimed[user]\n      DUP2 \t\t\tbl2pClaimed[user]\n      MSTORE \t\t\tbl2pClaimed[user]\n      PUSH 20\t\t\tbl2pClaimed\n      DUP1 \t\t\tbl2pClaimed[user]\n      MSTORE \t\t\tbl2pClaimed[user]\n      PUSH 40\t\t\tbl2pClaimed[user]\n      DUP2 \t\t\tbl2pClaimed[user]\n      KECCAK256 \t\t\tbl2pClaimed[user]\n      SLOAD \t\t\tbl2pClaimed[user]\n      PUSH [tag] 550\t\t\tbl2pClaimed[user] - remainingB...\n      SWAP1 \t\t\tbl2pClaimed[user] - remainingB...\n      DUP4 \t\t\tremainingBL2P\n      SWAP1 \t\t\tremainingBL2P\n      PUSH [tag] 477\t\t\tbl2pClaimed[user] - remainingB...\n      JUMP \t\t\tbl2pClaimed[user] - remainingB...\n    tag 550\t\t\tbl2pClaimed[user] - remainingB...\n      JUMPDEST \t\t\tbl2pClaimed[user] - remainingB...\n      SWAP1 \t\t\tuint256 toBurn = bl2pClaimed[u...\n      POP \t\t\tuint256 toBurn = bl2pClaimed[u...\n      PUSH [tag] 551\t\t\t_burn(user, toBurn)\n      DUP7 \t\t\tuser\n      DUP3 \t\t\ttoBurn\n      PUSH [tag] 552\t\t\t_burn\n      JUMP \t\t\t_burn(user, toBurn)\n    tag 551\t\t\t_burn(user, toBurn)\n      JUMPDEST \t\t\t_burn(user, toBurn)\n      DUP6 \t\t\tuser\n      PUSH 1\t\t\t\n      PUSH 1\t\t\t\n      PUSH A0\t\t\t\n      SHL \t\t\t\n      SUB \t\t\t\n      AND \t\t\tInactiveBL2PBurned(user, toBur...\n      PUSH E24ABF0A1D8BDC06E382A8FC7157CD6C08495C024CEB329EC6C98F6C795FC26C\t\t\tInactiveBL2PBurned(user, toBur...\n      DUP3 \t\t\ttoBurn\n      PUSH 40\t\t\tInactiveBL2PBurned(user, toBur...\n      MLOAD \t\t\tInactiveBL2PBurned(user, toBur...\n      PUSH [tag] 553\t\t\tInactiveBL2PBurned(user, toBur...\n      SWAP2 \t\t\tInactiveBL2PBurned(user, toBur...\n      DUP2 \t\t\tNotAuthorized();\\n    erro\n      MSTORE \t\t\tNotAuthorized();\\n    erro\n      PUSH 20\t\t\t;\\n\n      ADD \t\t\ternanceNotSet();\\n \n      SWAP1 \t\t\ternanceNotSet();\\n \n      JUMP \t\t\t// Errors\\n    error InvalidRe...\n    tag 553\t\t\tInactiveBL2PBurned(user, toBur...\n      JUMPDEST \t\t\tInactiveBL2PBurned(user, toBur...\n      PUSH 40\t\t\tInactiveBL2PBurned(user, toBur...\n      MLOAD \t\t\tInactiveBL2PBurned(user, toBur...\n      DUP1 \t\t\tInactiveBL2PBurned(user, toBur...\n      SWAP2 \t\t\tInactiveBL2PBurned(user, toBur...\n      SUB \t\t\tInactiveBL2PBurned(user, toBur...\n      SWAP1 \t\t\tInactiveBL2PBurned(user, toBur...\n      LOG2 \t\t\tInactiveBL2PBurned(user, toBur...\n      PUSH 1\t\t\t\n      PUSH 1\t\t\t\n      PUSH A0\t\t\t\n      SHL \t\t\t\n      SUB \t\t\t\n      DUP7 \t\t\tactiveDelegations[user]\n      DUP2 \t\t\tactiveDelegations[user]\n      AND \t\t\tactiveDelegations[user]\n      PUSH 0\t\t\t0\n      SWAP1 \t\t\tactiveDelegations[user]\n      DUP2 \t\t\tactiveDelegations[user]\n      MSTORE \t\t\tactiveDelegations[user]\n      PUSH 27\t\t\tactiveDelegations\n      PUSH 20\t\t\tactiveDelegations[user]\n      MSTORE \t\t\tactiveDelegations[user]\n      PUSH 40\t\t\tactiveDelegations[user]\n      SWAP1 \t\t\tactiveDelegations[user]\n      KECCAK256 \t\t\tactiveDelegations[user]\n      PUSH 1\t\t\tactiveDelegations[user].delega...\n      ADD \t\t\tactiveDelegations[user].delega...\n      SLOAD \t\t\tactiveDelegations[user].delega...\n      AND \t\t\tactiveDelegations[user].delega...\n      ISZERO \t\t\tactiveDelegations[user].delega...\n      PUSH [tag] 556\t\t\tif (activeDelegations[user].de...\n      JUMPI \t\t\tif (activeDelegations[user].de...\n      PUSH 1\t\t\t\n      PUSH 1\t\t\t\n      PUSH A0\t\t\t\n      SHL \t\t\t\n      SUB \t\t\t\n      DUP1 \t\t\tactiveDelegations[user]\n      DUP8 \t\t\tactiveDelegations[user]\n      AND \t\t\tactiveDelegations[user]\n      PUSH 0\t\t\tdelegatedBL2PReceived[activeDe...\n      SWAP1 \t\t\tactiveDelegations[user]\n      DUP2 \t\t\tactiveDelegations[user]\n      MSTORE \t\t\tactiveDelegations[user]\n      PUSH 27\t\t\tactiveDelegations\n      PUSH 20\t\t\tactiveDelegations[user]\n      SWAP1 \t\t\tactiveDelegations[user]\n      DUP2 \t\t\tactiveDelegations[user]\n      MSTORE \t\t\tactiveDelegations[user]\n      PUSH 40\t\t\tactiveDelegations[user]\n      DUP1 \t\t\tactiveDelegations[user]\n      DUP4 \t\t\tactiveDelegations[user]\n      KECCAK256 \t\t\tactiveDelegations[user]\n      PUSH 1\t\t\tactiveDelegations[user].delega...\n      ADD \t\t\tactiveDelegations[user].delega...\n      SLOAD \t\t\tactiveDelegations[user].delega...\n      SWAP1 \t\t\tactiveDelegations[user].delega...\n      SWAP4 \t\t\tactiveDelegations[user].delega...\n      AND \t\t\tactiveDelegations[user].delega...\n      DUP3 \t\t\tdelegatedBL2PReceived[activeDe...\n      MSTORE \t\t\tdelegatedBL2PReceived[activeDe...\n      PUSH 28\t\t\tdelegatedBL2PReceived\n      SWAP1 \t\t\tdelegatedBL2PReceived[activeDe...\n      MSTORE \t\t\tdelegatedBL2PReceived[activeDe...\n      SWAP1 \t\t\tdelegatedBL2PReceived[activeDe...\n      DUP2 \t\t\tdelegatedBL2PReceived[activeDe...\n      KECCAK256 \t\t\tdelegatedBL2PReceived[activeDe...\n      DUP1 \t\t\tdelegatedBL2PReceived[activeDe...\n      SLOAD \t\t\tdelegatedBL2PReceived[activeDe...\n      DUP4 \t\t\ttoBurn\n      SWAP3 \t\t\ttoBurn\n      SWAP1 \t\t\tdelegatedBL2PReceived[activeDe...\n      PUSH [tag] 555\t\t\tdelegatedBL2PReceived[activeDe...\n      SWAP1 \t\t\tdelegatedBL2PReceived[activeDe...\n      DUP5 \t\t\ttoBurn\n      SWAP1 \t\t\ttoBurn\n      PUSH [tag] 477\t\t\tdelegatedBL2PReceived[activeDe...\n      JUMP \t\t\tdelegatedBL2PReceived[activeDe...\n    tag 555\t\t\tdelegatedBL2PReceived[activeDe...\n      JUMPDEST \t\t\tdelegatedBL2PReceived[activeDe...\n      SWAP1 \t\t\tdelegatedBL2PReceived[activeDe...\n      SWAP2 \t\t\tdelegatedBL2PReceived[activeDe...\n      SSTORE \t\t\tdelegatedBL2PReceived[activeDe...\n      POP \t\t\t\n      POP \t\t\t\n      PUSH 1\t\t\t\n      PUSH 1\t\t\t\n      PUSH A0\t\t\t\n      SHL \t\t\t\n      SUB \t\t\t\n      DUP1 \t\t\tactiveDelegations[user]\n      DUP8 \t\t\tactiveDelegations[user]\n      AND \t\t\tactiveDelegations[user]\n      PUSH 0\t\t\tactiveDelegations[user]\n      SWAP1 \t\t\tactiveDelegations[user]\n      DUP2 \t\t\tactiveDelegations[user]\n      MSTORE \t\t\tactiveDelegations[user]\n      PUSH 27\t\t\tactiveDelegations\n      PUSH 20\t\t\tactiveDelegations[user]\n      SWAP1 \t\t\tactiveDelegations[user]\n      DUP2 \t\t\tactiveDelegations[user]\n      MSTORE \t\t\tactiveDelegations[user]\n      PUSH 40\t\t\tactiveDelegations[user]\n      DUP1 \t\t\tactiveDelegations[user]\n      DUP4 \t\t\tactiveDelegations[user]\n      KECCAK256 \t\t\tactiveDelegations[user]\n      PUSH 1\t\t\tactiveDelegations[user].delega...\n      ADD \t\t\tactiveDelegations[user].delega...\n      SLOAD \t\t\tactiveDelegations[user].delega...\n      SWAP1 \t\t\tactiveDelegations[user].delega...\n      SWAP4 \t\t\tactiveDelegations[user].delega...\n      AND \t\t\tactiveDelegations[user].delega...\n      DUP1 \t\t\tdelegatedBL2PReceived[activeDe...\n      DUP4 \t\t\tdelegatedBL2PReceived[activeDe...\n      MSTORE \t\t\tdelegatedBL2PReceived[activeDe...\n      PUSH 28\t\t\tdelegatedBL2PReceived\n      SWAP1 \t\t\tdelegatedBL2PReceived[activeDe...\n      SWAP2 \t\t\tdelegatedBL2PReceived[activeDe...\n      MSTORE \t\t\tdelegatedBL2PReceived[activeDe...\n      SWAP2 \t\t\tdelegatedBL2PReceived[activeDe...\n      SWAP1 \t\t\tdelegatedBL2PReceived[activeDe...\n      KECCAK256 \t\t\tdelegatedBL2PReceived[activeDe...\n      SLOAD \t\t\tdelegatedBL2PReceived[activeDe...\n      PUSH [tag] 556\t\t\t_updateTopDelegates(activeDele...\n      SWAP2 \t\t\t_updateTopDelegates(activeDele...\n      SWAP1 \t\t\tactiveDelegations[user].delega...\n      PUSH [tag] 557\t\t\t_updateTopDelegates\n      JUMP \t\t\t_updateTopDelegates(activeDele...\n    tag 556\t\t\t_updateTopDelegates(activeDele...\n      JUMPDEST \t\t\t_updateTopDelegates(activeDele...\n      POP \t\t\t{\\n            uint256 toBurn ...\n    tag 549\t\t\tif (remainingBL2P < bl2pClaime...\n      JUMPDEST \t\t\tif (remainingBL2P < bl2pClaime...\n      DUP2 \t\t\texpiryBlock\n      TIMESTAMP \t\t\tblock.timestamp\n      LT \t\t\tblock.timestamp >= expiryBlock\n      PUSH [tag] 560\t\t\tif (block.timestamp >= expiryB...\n      JUMPI \t\t\tif (block.timestamp >= expiryB...\n      PUSH 1\t\t\t\n      PUSH 1\t\t\t\n      PUSH A0\t\t\t\n      SHL \t\t\t\n      SUB \t\t\t\n      DUP6 \t\t\tbl2pMeta[user]\n      AND \t\t\tbl2pMeta[user]\n      PUSH 0\t\t\tbl2pMeta[user]\n      SWAP1 \t\t\tbl2pMeta[user]\n      DUP2 \t\t\tbl2pMeta[user]\n      MSTORE \t\t\tbl2pMeta[user]\n      PUSH 25\t\t\tbl2pMeta\n      PUSH 20\t\t\tbl2pMeta[user]\n      MSTORE \t\t\tbl2pMeta[user]\n      PUSH 40\t\t\tbl2pMeta[user]\n      DUP2 \t\t\tbl2pMeta[user]\n      KECCAK256 \t\t\tbl2pMeta[user]\n      SWAP1 \t\t\tdelete bl2pMeta[user]\n      DUP2 \t\t\tdelete bl2pMeta[user]\n      SSTORE \t\t\tdelete bl2pMeta[user]\n      PUSH 1\t\t\tdelete bl2pMeta[user]\n      ADD \t\t\tdelete bl2pMeta[user]\n      DUP1 \t\t\tdelete bl2pMeta[user]\n      SLOAD \t\t\tdelete bl2pMeta[user]\n      PUSH FF\t\t\t\n      NOT \t\t\t\n      AND \t\t\tdelete bl2pMeta[user]\n      SWAP1 \t\t\tdelete bl2pMeta[user]\n      SSTORE \t\t\tdelete bl2pMeta[user]\n      PUSH [tag] 559\t\t\t_burn(user, remainingBL2P)\n      DUP6 \t\t\tuser\n      DUP3 \t\t\tremainingBL2P\n      PUSH [tag] 552\t\t\t_burn\n      JUMP \t\t\t_burn(user, remainingBL2P)\n    tag 559\t\t\t_burn(user, remainingBL2P)\n      JUMPDEST \t\t\t_burn(user, remainingBL2P)\n      PUSH 1\t\t\t\n      PUSH 1\t\t\t\n      PUSH A0\t\t\t\n      SHL \t\t\t\n      SUB \t\t\t\n      DUP6 \t\t\tactiveDelegations[user]\n      DUP2 \t\t\tactiveDelegations[user]\n      AND \t\t\tactiveDelegations[user]\n      PUSH 0\t\t\t0\n      SWAP1 \t\t\tactiveDelegations[user]\n      DUP2 \t\t\tactiveDelegations[user]\n      MSTORE \t\t\tactiveDelegations[user]\n      PUSH 27\t\t\tactiveDelegations\n      PUSH 20\t\t\tactiveDelegations[user]\n      MSTORE \t\t\tactiveDelegations[user]\n      PUSH 40\t\t\tactiveDelegations[user]\n      SWAP1 \t\t\tactiveDelegations[user]\n      KECCAK256 \t\t\tactiveDelegations[user]\n      PUSH 1\t\t\tactiveDelegations[user].delega...\n      ADD \t\t\tactiveDelegations[user].delega...\n      SLOAD \t\t\tactiveDelegations[user].delega...\n      AND \t\t\tactiveDelegations[user].delega...\n      ISZERO \t\t\tactiveDelegations[user].delega...\n      PUSH [tag] 560\t\t\tif (activeDelegations[user].de...\n      JUMPI \t\t\tif (activeDelegations[user].de...\n      PUSH 1\t\t\t\n      PUSH 1\t\t\t\n      PUSH A0\t\t\t\n      SHL \t\t\t\n      SUB \t\t\t\n      DUP1 \t\t\tactiveDelegations[user]\n      DUP7 \t\t\tactiveDelegations[user]\n      AND \t\t\tactiveDelegations[user]\n      PUSH 0\t\t\tdelegatedBL2PReceived[activeDe...\n      SWAP1 \t\t\tactiveDelegations[user]\n      DUP2 \t\t\tactiveDelegations[user]\n      MSTORE \t\t\tactiveDelegations[user]\n      PUSH 27\t\t\tactiveDelegations\n      PUSH 20\t\t\tactiveDelegations[user]\n      SWAP1 \t\t\tactiveDelegations[user]\n      DUP2 \t\t\tactiveDelegations[user]\n      MSTORE \t\t\tactiveDelegations[user]\n      PUSH 40\t\t\tactiveDelegations[user]\n      DUP1 \t\t\tactiveDelegations[user]\n      DUP4 \t\t\tactiveDelegations[user]\n      KECCAK256 \t\t\tactiveDelegations[user]\n      PUSH 1\t\t\tactiveDelegations[user].delega...\n      ADD \t\t\tactiveDelegations[user].delega...\n      SLOAD \t\t\tactiveDelegations[user].delega...\n      SWAP1 \t\t\tactiveDelegations[user].delega...\n      SWAP4 \t\t\tactiveDelegations[user].delega...\n      AND \t\t\tactiveDelegations[user].delega...\n      DUP3 \t\t\tdelegatedBL2PReceived[activeDe...\n      MSTORE \t\t\tdelegatedBL2PReceived[activeDe...\n      PUSH 28\t\t\tdelegatedBL2PReceived\n      SWAP1 \t\t\tdelegatedBL2PReceived[activeDe...\n      MSTORE \t\t\tdelegatedBL2PReceived[activeDe...\n      SWAP1 \t\t\tdelegatedBL2PReceived[activeDe...\n      DUP2 \t\t\tdelegatedBL2PReceived[activeDe...\n      KECCAK256 \t\t\tdelegatedBL2PReceived[activeDe...\n      DUP1 \t\t\tdelegatedBL2PReceived[activeDe...\n      SLOAD \t\t\tdelegatedBL2PReceived[activeDe...\n      DUP4 \t\t\tremainingBL2P\n      SWAP3 \t\t\tremainingBL2P\n      SWAP1 \t\t\tdelegatedBL2PReceived[activeDe...\n      PUSH [tag] 561\t\t\tdelegatedBL2PReceived[activeDe...\n      SWAP1 \t\t\tdelegatedBL2PReceived[activeDe...\n      DUP5 \t\t\tremainingBL2P\n      SWAP1 \t\t\tremainingBL2P\n      PUSH [tag] 477\t\t\tdelegatedBL2PReceived[activeDe...\n      JUMP \t\t\tdelegatedBL2PReceived[activeDe...\n    tag 561\t\t\tdelegatedBL2PReceived[activeDe...\n      JUMPDEST \t\t\tdelegatedBL2PReceived[activeDe...\n      SWAP1 \t\t\tdelegatedBL2PReceived[activeDe...\n      SWAP2 \t\t\tdelegatedBL2PReceived[activeDe...\n      SSTORE \t\t\tdelegatedBL2PReceived[activeDe...\n      POP \t\t\t\n      POP \t\t\t\n      PUSH 1\t\t\t\n      PUSH 1\t\t\t\n      PUSH A0\t\t\t\n      SHL \t\t\t\n      SUB \t\t\t\n      DUP1 \t\t\tactiveDelegations[user]\n      DUP7 \t\t\tactiveDelegations[user]\n      AND \t\t\tactiveDelegations[user]\n      PUSH 0\t\t\tactiveDelegations[user]\n      SWAP1 \t\t\tactiveDelegations[user]\n      DUP2 \t\t\tactiveDelegations[user]\n      MSTORE \t\t\tactiveDelegations[user]\n      PUSH 27\t\t\tactiveDelegations\n      PUSH 20\t\t\tactiveDelegations[user]\n      SWAP1 \t\t\tactiveDelegations[user]\n      DUP2 \t\t\tactiveDelegations[user]\n      MSTORE \t\t\tactiveDelegations[user]\n      PUSH 40\t\t\tactiveDelegations[user]\n      DUP1 \t\t\tactiveDelegations[user]\n      DUP4 \t\t\tactiveDelegations[user]\n      KECCAK256 \t\t\tactiveDelegations[user]\n      PUSH 1\t\t\tactiveDelegations[user].delega...\n      ADD \t\t\tactiveDelegations[user].delega...\n      SLOAD \t\t\tactiveDelegations[user].delega...\n      SWAP1 \t\t\tactiveDelegations[user].delega...\n      SWAP4 \t\t\tactiveDelegations[user].delega...\n      AND \t\t\tactiveDelegations[user].delega...\n      DUP1 \t\t\tdelegatedBL2PReceived[activeDe...\n      DUP4 \t\t\tdelegatedBL2PReceived[activeDe...\n      MSTORE \t\t\tdelegatedBL2PReceived[activeDe...\n      PUSH 28\t\t\tdelegatedBL2PReceived\n      SWAP1 \t\t\tdelegatedBL2PReceived[activeDe...\n      SWAP2 \t\t\tdelegatedBL2PReceived[activeDe...\n      MSTORE \t\t\tdelegatedBL2PReceived[activeDe...\n      SWAP2 \t\t\tdelegatedBL2PReceived[activeDe...\n      SWAP1 \t\t\tdelegatedBL2PReceived[activeDe...\n      KECCAK256 \t\t\tdelegatedBL2PReceived[activeDe...\n      SLOAD \t\t\tdelegatedBL2PReceived[activeDe...\n      PUSH [tag] 562\t\t\t_updateTopDelegates(activeDele...\n      SWAP2 \t\t\t_updateTopDelegates(activeDele...\n      SWAP1 \t\t\tactiveDelegations[user].delega...\n      PUSH [tag] 557\t\t\t_updateTopDelegates\n      JUMP \t\t\t_updateTopDelegates(activeDele...\n    tag 562\t\t\t_updateTopDelegates(activeDele...\n      JUMPDEST \t\t\t_updateTopDelegates(activeDele...\n      PUSH 1\t\t\t\n      PUSH 1\t\t\t\n      PUSH A0\t\t\t\n      SHL \t\t\t\n      SUB \t\t\t\n      DUP6 \t\t\tactiveDelegations[user]\n      AND \t\t\tactiveDelegations[user]\n      PUSH 0\t\t\tactiveDelegations[user]\n      SWAP1 \t\t\tactiveDelegations[user]\n      DUP2 \t\t\tactiveDelegations[user]\n      MSTORE \t\t\tactiveDelegations[user]\n      PUSH 27\t\t\tactiveDelegations\n      PUSH 20\t\t\tactiveDelegations[user]\n      MSTORE \t\t\tactiveDelegations[user]\n      PUSH 40\t\t\tactiveDelegations[user]\n      DUP2 \t\t\tactiveDelegations[user]\n      KECCAK256 \t\t\tactiveDelegations[user]\n      DUP1 \t\t\tdelete activeDelegations[user]\n      SLOAD \t\t\tdelete activeDelegations[user]\n      PUSH 1\t\t\t\n      PUSH 1\t\t\t\n      PUSH A0\t\t\t\n      SHL \t\t\t\n      SUB \t\t\t\n      NOT \t\t\t\n      SWAP1 \t\t\tdelete activeDelegations[user]\n      DUP2 \t\t\tdelete activeDelegations[user]\n      AND \t\t\tdelete activeDelegations[user]\n      DUP3 \t\t\tdelete activeDelegations[user]\n      SSTORE \t\t\tdelete activeDelegations[user]\n      PUSH 1\t\t\tdelete activeDelegations[user]\n      DUP3 \t\t\tdelete activeDelegations[user]\n      ADD \t\t\tdelete activeDelegations[user]\n      DUP1 \t\t\tdelete activeDelegations[user]\n      SLOAD \t\t\tdelete activeDelegations[user]\n      SWAP1 \t\t\tdelete activeDelegations[user]\n      SWAP2 \t\t\tdelete activeDelegations[user]\n      AND \t\t\tdelete activeDelegations[user]\n      SWAP1 \t\t\tdelete activeDelegations[user]\n      SSTORE \t\t\tdelete activeDelegations[user]\n      PUSH 2\t\t\tdelete activeDelegations[user]\n      DUP2 \t\t\tdelete activeDelegations[user]\n      ADD \t\t\tdelete activeDelegations[user]\n      DUP3 \t\t\tdelete activeDelegations[user]\n      SWAP1 \t\t\tdelete activeDelegations[user]\n      SSTORE \t\t\tdelete activeDelegations[user]\n      PUSH 3\t\t\tdelete activeDelegations[user]\n      ADD \t\t\tdelete activeDelegations[user]\n      SSTORE \t\t\tdelete activeDelegations[user]\n    tag 560\t\t\tif (activeDelegations[user].de...\n      JUMPDEST \t\t\tif (activeDelegations[user].de...\n      POP \t\t\t{\\n        if (getRemainingVal...\n      POP \t\t\t{\\n        if (getRemainingVal...\n      POP \t\t\t{\\n        if (getRemainingVal...\n      POP \t\t\t_\n      PUSH [tag] 511\t\t\t modifier onlyGovern\n      PUSH 1\t\t\t \n      PUSH 5\t\t\t}\\n\\n    \n      SSTORE \t\t\t}\\n\\n    enum ProposalT\n      JUMP \t\t\tsg.sender != owner()) revert N...\n    tag 170\t\t\tfunction transferFrom(address ...\n      JUMPDEST \t\t\tfunction transferFrom(address ...\n      PUSH 9\t\t\temergencyPaused\n      SLOAD \t\t\temergencyPaused\n      PUSH 0\t\t\tbool\n      SWAP1 \t\t\tbool\n      PUSH 10000\t\t\temergencyPaused\n      SWAP1 \t\t\temergencyPaused\n      DIV \t\t\temergencyPaused\n      PUSH FF\t\t\temergencyPaused\n      AND \t\t\temergencyPaused\n      ISZERO \t\t\tif (emergencyPaused) revert Co...\n      PUSH [tag] 565\t\t\tif (emergencyPaused) revert Co...\n      JUMPI \t\t\tif (emergencyPaused) revert Co...\n      PUSH 40\t\t\tContractPaused()\n      MLOAD \t\t\tContractPaused()\n      PUSH AB35696F\t\t\t\n      PUSH E0\t\t\t\n      SHL \t\t\t\n      DUP2 \t\t\tContractPaused()\n      MSTORE \t\t\tContractPaused()\n      PUSH 4\t\t\tContractPaused()\n      ADD \t\t\tContractPaused()\n      PUSH 40\t\t\tContractPaused()\n      MLOAD \t\t\tContractPaused()\n      DUP1 \t\t\tContractPaused()\n      SWAP2 \t\t\tContractPaused()\n      SUB \t\t\tContractPaused()\n      SWAP1 \t\t\tContractPaused()\n      REVERT \t\t\tContractPaused()\n    tag 565\t\t\tif (emergencyPaused) revert Co...\n      JUMPDEST \t\t\tif (emergencyPaused) revert Co...\n      PUSH 1\t\t\t\n      PUSH 1\t\t\t\n      PUSH A0\t\t\t\n      SHL \t\t\t\n      SUB \t\t\t\n      DUP5 \t\t\tsender == address(0)\n      AND \t\t\tsender == address(0)\n      ISZERO \t\t\tsender == address(0)\n      DUP1 \t\t\tsender == address(0)\n      PUSH [tag] 567\t\t\tsender == address(0) || recipi...\n      JUMPI \t\t\tsender == address(0) || recipi...\n      POP \t\t\t\n      PUSH 1\t\t\t\n      PUSH 1\t\t\t\n      PUSH A0\t\t\t\n      SHL \t\t\t\n      SUB \t\t\t\n      DUP4 \t\t\trecipient == address(0)\n      AND \t\t\trecipient == address(0)\n      ISZERO \t\t\trecipient == address(0)\n    tag 567\t\t\tsender == address(0) || recipi...\n      JUMPDEST \t\t\tsender == address(0) || recipi...\n      ISZERO \t\t\tif (sender == address(0) || re...\n      PUSH [tag] 568\t\t\tif (sender == address(0) || re...\n      JUMPI \t\t\tif (sender == address(0) || re...\n      PUSH 40\t\t\tInvalidAddress()\n      MLOAD \t\t\tInvalidAddress()\n      PUSH E6C4247B\t\t\t\n      PUSH E0\t\t\t\n      SHL \t\t\t\n      DUP2 \t\t\tInvalidAddress()\n      MSTORE \t\t\tInvalidAddress()\n      PUSH 4\t\t\tInvalidAddress()\n      ADD \t\t\tInvalidAddress()\n      PUSH 40\t\t\tInvalidAddress()\n      MLOAD \t\t\tInvalidAddress()\n      DUP1 \t\t\tInvalidAddress()\n      SWAP2 \t\t\tInvalidAddress()\n      SUB \t\t\tInvalidAddress()\n      SWAP1 \t\t\tInvalidAddress()\n      REVERT \t\t\tInvalidAddress()\n    tag 568\t\t\tif (sender == address(0) || re...\n      JUMPDEST \t\t\tif (sender == address(0) || re...\n      PUSH 0\t\t\tbool success\n      PUSH [tag] 569\t\t\tsuper.transferFrom(sender, rec...\n      DUP6 \t\t\tsender\n      DUP6 \t\t\trecipient\n      DUP6 \t\t\tamount\n      PUSH [tag] 570\t\t\tsuper.transferFrom\n      JUMP \t\t\tsuper.transferFrom(sender, rec...\n    tag 569\t\t\tsuper.transferFrom(sender, rec...\n      JUMPDEST \t\t\tsuper.transferFrom(sender, rec...\n      SWAP1 \t\t\tbool success = super.transferF...\n      POP \t\t\tbool success = super.transferF...\n      DUP1 \t\t\tsuccess\n      DUP1 \t\t\tsuccess && !burnPhaseActive\n      ISZERO \t\t\tsuccess && !burnPhaseActive\n      PUSH [tag] 571\t\t\tsuccess && !burnPhaseActive\n      JUMPI \t\t\tsuccess && !burnPhaseActive\n      POP \t\t\t\n      PUSH 9\t\t\tburnPhaseActive\n      SLOAD \t\t\tburnPhaseActive\n      PUSH FF\t\t\tburnPhaseActive\n      AND \t\t\tburnPhaseActive\n      ISZERO \t\t\t!burnPhaseActive\n    tag 571\t\t\tsuccess && !burnPhaseActive\n      JUMPDEST \t\t\tsuccess && !burnPhaseActive\n      ISZERO \t\t\tif (success && !burnPhaseActiv...\n      PUSH [tag] 573\t\t\tif (success && !burnPhaseActiv...\n      JUMPI \t\t\tif (success && !burnPhaseActiv...\n      PUSH [tag] 573\t\t\tcheckActivation()\n      PUSH [tag] 227\t\t\tcheckActivation\n      JUMP \t\t\tcheckActivation()\n    tag 573\t\t\tcheckActivation()\n      JUMPDEST \t\t\tcheckActivation()\n      SWAP1 \t\t\tsuccess\n      POP \t\t\t\n    tag 566\t\t\t_\n      JUMPDEST \t\t\t_\n      SWAP4 \t\t\tfunction transferFrom(address ...\n      SWAP3 \t\t\tfunction transferFrom(address ...\n      POP \t\t\tfunction transferFrom(address ...\n      POP \t\t\tfunction transferFrom(address ...\n      POP \t\t\tfunction transferFrom(address ...\n      JUMP \t\t\tfunction transferFrom(address ...\n    tag 175\t\t\tfunction setIgnitionRegistrati...\n      JUMPDEST \t\t\tfunction setIgnitionRegistrati...\n      PUSH 1D\t\t\tgovernanceContract\n      SLOAD \t\t\tgovernanceContract\n      PUSH 1\t\t\t\n      PUSH 1\t\t\t\n      PUSH A0\t\t\t\n      SHL \t\t\t\n      SUB \t\t\t\n      AND \t\t\tgovernanceContract\n      CALLER \t\t\tmsg.sender\n      EQ \t\t\tmsg.sender != governanceContra...\n      DUP1 \t\t\tmsg.sender != governanceContra...\n      ISZERO \t\t\tmsg.sender != governanceContra...\n      SWAP1 \t\t\tmsg.sender != governanceContra...\n      PUSH [tag] 575\t\t\tmsg.sender != governanceContra...\n      JUMPI \t\t\tmsg.sender != governanceContra...\n      POP \t\t\t\n      PUSH 6\t\t\ttyBurn\n      SLOAD \t\t\ttyBurn\n      PUSH 1\t\t\t\n      PUSH 1\t\t\t\n      PUSH A0\t\t\t\n      SHL \t\t\t\n      SUB \t\t\t\n      AND \t\t\ttyBurn\n      CALLER \t\t\tmsg.sender\n      EQ \t\t\tmsg.sender != owner()\n      ISZERO \t\t\tmsg.sender != owner()\n    tag 575\t\t\tmsg.sender != governanceContra...\n      JUMPDEST \t\t\tmsg.sender != governanceContra...\n      ISZERO \t\t\tif (msg.sender != governanceCo...\n      PUSH [tag] 577\t\t\tif (msg.sender != governanceCo...\n      JUMPI \t\t\tif (msg.sender != governanceCo...\n      PUSH 40\t\t\tNotAuthorized()\n      MLOAD \t\t\tNotAuthorized()\n      PUSH EA8E4EB5\t\t\t\n      PUSH E0\t\t\t\n      SHL \t\t\t\n      DUP2 \t\t\tNotAuthorized()\n      MSTORE \t\t\tNotAuthorized()\n      PUSH 4\t\t\tNotAuthorized()\n      ADD \t\t\tNotAuthorized()\n      PUSH 40\t\t\tNotAuthorized()\n      MLOAD \t\t\tNotAuthorized()\n      DUP1 \t\t\tNotAuthorized()\n      SWAP2 \t\t\tNotAuthorized()\n      SUB \t\t\tNotAuthorized()\n      SWAP1 \t\t\tNotAuthorized()\n      REVERT \t\t\tNotAuthorized()\n    tag 577\t\t\tif (msg.sender != governanceCo...\n      JUMPDEST \t\t\tif (msg.sender != governanceCo...\n      PUSH 1D\t\t\tignitionRegistrationOpen\n      DUP1 \t\t\tignitionRegistrationOpen = isO...\n      SLOAD \t\t\tignitionRegistrationOpen = isO...\n      PUSH FF\t\t\t\n      PUSH A8\t\t\t\n      SHL \t\t\t\n      NOT \t\t\t\n      AND \t\t\tignitionRegistrationOpen = isO...\n      PUSH 1\t\t\t\n      PUSH A8\t\t\t\n      SHL \t\t\t\n      DUP4 \t\t\tignitionRegistrationOpen = isO...\n      ISZERO \t\t\tignitionRegistrationOpen = isO...\n      ISZERO \t\t\tignitionRegistrationOpen = isO...\n      SWAP1 \t\t\tignitionRegistrationOpen = isO...\n      DUP2 \t\t\tignitionRegistrationOpen = isO...\n      MUL \t\t\tignitionRegistrationOpen = isO...\n      SWAP2 \t\t\tignitionRegistrationOpen = isO...\n      SWAP1 \t\t\tignitionRegistrationOpen = isO...\n      SWAP2 \t\t\tignitionRegistrationOpen = isO...\n      OR \t\t\tignitionRegistrationOpen = isO...\n      SWAP1 \t\t\tignitionRegistrationOpen = isO...\n      SWAP2 \t\t\tignitionRegistrationOpen = isO...\n      SSTORE \t\t\tignitionRegistrationOpen = isO...\n      PUSH 40\t\t\tIgnitionRegistrationStatusChan...\n      MLOAD \t\t\tIgnitionRegistrationStatusChan...\n      PUSH CA89418516F56A1E463DE3ED0DE4A3795C57FB729015A5C16F20DD1200A29DD\t\t\tIgnitionRegistrationStatusChan...\n      SWAP1 \t\t\tIgnitionRegistrationStatusChan...\n      PUSH 0\t\t\t\n      SWAP1 \t\t\t\n      LOG2 \t\t\tIgnitionRegistrationStatusChan...\n      POP \t\t\tfunction setIgnitionRegistrati...\n      JUMP \t\t\tfunction setIgnitionRegistrati...\n    tag 177\t\t\tfunction claimBL2PReward() pub...\n      JUMPDEST \t\t\tfunction claimBL2PReward() pub...\n      PUSH [tag] 580\t\t\ttracts not allowed\");\n      PUSH [tag] 444\t\t\ttracts not allowed\"\n      JUMP \t\t\ttracts not allowed\");\n    tag 580\t\t\ttracts not allowed\");\n      JUMPDEST \t\t\ttracts not allowed\");\n      PUSH 9\t\t\temergencyPaused\n      SLOAD \t\t\temergencyPaused\n      PUSH 10000\t\t\temergencyPaused\n      SWAP1 \t\t\temergencyPaused\n      DIV \t\t\temergencyPaused\n      PUSH FF\t\t\temergencyPaused\n      AND \t\t\temergencyPaused\n      ISZERO \t\t\tif (emergencyPaused) revert Co...\n      PUSH [tag] 582\t\t\tif (emergencyPaused) revert Co...\n      JUMPI \t\t\tif (emergencyPaused) revert Co...\n      PUSH 40\t\t\tContractPaused()\n      MLOAD \t\t\tContractPaused()\n      PUSH AB35696F\t\t\t\n      PUSH E0\t\t\t\n      SHL \t\t\t\n      DUP2 \t\t\tContractPaused()\n      MSTORE \t\t\tContractPaused()\n      PUSH 4\t\t\tContractPaused()\n      ADD \t\t\tContractPaused()\n      PUSH 40\t\t\tContractPaused()\n      MLOAD \t\t\tContractPaused()\n      DUP1 \t\t\tContractPaused()\n      SWAP2 \t\t\tContractPaused()\n      SUB \t\t\tContractPaused()\n      SWAP1 \t\t\tContractPaused()\n      REVERT \t\t\tContractPaused()\n    tag 582\t\t\tif (emergencyPaused) revert Co...\n      JUMPDEST \t\t\tif (emergencyPaused) revert Co...\n      PUSH [tag] 584\t\t\t_claimBL2PReward(msg.sender)\n      CALLER \t\t\tmsg.sender\n      PUSH [tag] 585\t\t\t_claimBL2PReward\n      JUMP \t\t\t_claimBL2PReward(msg.sender)\n    tag 584\t\t\t_claimBL2PReward(msg.sender)\n      JUMPDEST \t\t\t_claimBL2PReward(msg.sender)\n      PUSH [tag] 536\t\t\t modifier onlyGovern\n      PUSH 1\t\t\t \n      PUSH 5\t\t\t}\\n\\n    \n      SSTORE \t\t\t}\\n\\n    enum ProposalT\n      JUMP \t\t\tsg.sender != owner()) revert N...\n    tag 185\t\t\tfunction unstake() external no...\n      JUMPDEST \t\t\tfunction unstake() external no...\n      PUSH [tag] 588\t\t\ttracts not allowed\");\n      PUSH [tag] 444\t\t\ttracts not allowed\"\n      JUMP \t\t\ttracts not allowed\");\n    tag 588\t\t\ttracts not allowed\");\n      JUMPDEST \t\t\ttracts not allowed\");\n      PUSH 9\t\t\temergencyPaused\n      SLOAD \t\t\temergencyPaused\n      PUSH 10000\t\t\temergencyPaused\n      SWAP1 \t\t\temergencyPaused\n      DIV \t\t\temergencyPaused\n      PUSH FF\t\t\temergencyPaused\n      AND \t\t\temergencyPaused\n      ISZERO \t\t\tif (emergencyPaused) revert Co...\n      PUSH [tag] 590\t\t\tif (emergencyPaused) revert Co...\n      JUMPI \t\t\tif (emergencyPaused) revert Co...\n      PUSH 40\t\t\tContractPaused()\n      MLOAD \t\t\tContractPaused()\n      PUSH AB35696F\t\t\t\n      PUSH E0\t\t\t\n      SHL \t\t\t\n      DUP2 \t\t\tContractPaused()\n      MSTORE \t\t\tContractPaused()\n      PUSH 4\t\t\tContractPaused()\n      ADD \t\t\tContractPaused()\n      PUSH 40\t\t\tContractPaused()\n      MLOAD \t\t\tContractPaused()\n      DUP1 \t\t\tContractPaused()\n      SWAP2 \t\t\tContractPaused()\n      SUB \t\t\tContractPaused()\n      SWAP1 \t\t\tContractPaused()\n      REVERT \t\t\tContractPaused()\n    tag 590\t\t\tif (emergencyPaused) revert Co...\n      JUMPDEST \t\t\tif (emergencyPaused) revert Co...\n      CALLER \t\t\tmsg.sender\n      ORIGIN \t\t\ttx.origin\n      EQ \t\t\tmsg.sender == tx.origin\n      PUSH [tag] 592\t\t\trequire(msg.sender == tx.origi...\n      JUMPI \t\t\trequire(msg.sender == tx.origi...\n      PUSH 40\t\t\trequire(msg.sender == tx.origi...\n      MLOAD \t\t\trequire(msg.sender == tx.origi...\n      PUSH 461BCD\t\t\t\n      PUSH E5\t\t\t\n      SHL \t\t\t\n      DUP2 \t\t\trequire(msg.sender == tx.origi...\n      MSTORE \t\t\trequire(msg.sender == tx.origi...\n      PUSH 4\t\t\trequire(msg.sender == tx.origi...\n      ADD \t\t\trequire(msg.sender == tx.origi...\n      PUSH [tag] 527\t\t\trequire(msg.sender == tx.origi...\n      SWAP1 \t\t\trequire(msg.sender == tx.origi...\n      PUSH [tag] 528\t\t\trequire(msg.sender == tx.origi...\n      JUMP \t\t\trequire(msg.sender == tx.origi...\n    tag 592\t\t\trequire(msg.sender == tx.origi...\n      JUMPDEST \t\t\trequire(msg.sender == tx.origi...\n      CALLER \t\t\tmsg.sender\n      PUSH 0\t\t\tStake storage userStake\n      SWAP1 \t\t\tstakes[msg.sender]\n      DUP2 \t\t\tstakes[msg.sender]\n      MSTORE \t\t\tstakes[msg.sender]\n      PUSH 29\t\t\tstakes\n      PUSH 20\t\t\tstakes[msg.sender]\n      MSTORE \t\t\tstakes[msg.sender]\n      PUSH 40\t\t\tstakes[msg.sender]\n      SWAP1 \t\t\tstakes[msg.sender]\n      KECCAK256 \t\t\tstakes[msg.sender]\n      PUSH 3\t\t\tuserStake.active\n      DUP2 \t\t\tuserStake.active\n      ADD \t\t\tuserStake.active\n      SLOAD \t\t\tuserStake.active\n      PUSH FF\t\t\tuserStake.active\n      AND \t\t\tuserStake.active\n      PUSH [tag] 595\t\t\tif (!userStake.active) revert ...\n      JUMPI \t\t\tif (!userStake.active) revert ...\n      PUSH 40\t\t\tNoActiveStake()\n      MLOAD \t\t\tNoActiveStake()\n      PUSH 7D9A44A1\t\t\t\n      PUSH E1\t\t\t\n      SHL \t\t\t\n      DUP2 \t\t\tNoActiveStake()\n      MSTORE \t\t\tNoActiveStake()\n      PUSH 4\t\t\tNoActiveStake()\n      ADD \t\t\tNoActiveStake()\n      PUSH 40\t\t\tNoActiveStake()\n      MLOAD \t\t\tNoActiveStake()\n      DUP1 \t\t\tNoActiveStake()\n      SWAP2 \t\t\tNoActiveStake()\n      SUB \t\t\tNoActiveStake()\n      SWAP1 \t\t\tNoActiveStake()\n      REVERT \t\t\tNoActiveStake()\n    tag 595\t\t\tif (!userStake.active) revert ...\n      JUMPDEST \t\t\tif (!userStake.active) revert ...\n      PUSH 0\t\t\tuint256 timeStaked\n      DUP2 \t\t\tuserStake\n      PUSH 1\t\t\tuserStake.startBlock\n      ADD \t\t\tuserStake.startBlock\n      SLOAD \t\t\tuserStake.startBlock\n      TIMESTAMP \t\t\tblock.timestamp\n      PUSH [tag] 596\t\t\tblock.timestamp - userStake.st...\n      SWAP2 \t\t\tblock.timestamp - userStake.st...\n      SWAP1 \t\t\tblock.timestamp - userStake.st...\n      PUSH [tag] 477\t\t\tblock.timestamp - userStake.st...\n      JUMP \t\t\tblock.timestamp - userStake.st...\n    tag 596\t\t\tblock.timestamp - userStake.st...\n      JUMPDEST \t\t\tblock.timestamp - userStake.st...\n      SWAP1 \t\t\tuint256 timeStaked = block.tim...\n      POP \t\t\t\n      PUSH 0\t\t\tuint256 stakingPeriods\n      PUSH 278D00\t\t\t30 days\n      PUSH [tag] 597\t\t\ttimeStaked * 1e18\n      DUP4 \t\t\tuint256 timeStaked = block.tim...\n      PUSH DE0B6B3A7640000\t\t\t1e18\n      PUSH [tag] 458\t\t\ttimeStaked * 1e18\n      JUMP \t\t\ttimeStaked * 1e18\n    tag 597\t\t\ttimeStaked * 1e18\n      JUMPDEST \t\t\ttimeStaked * 1e18\n      PUSH [tag] 598\t\t\t(timeStaked * 1e18) / STAKING_...\n      SWAP2 \t\t\t(timeStaked * 1e18) / STAKING_...\n      SWAP1 \t\t\t(timeStaked * 1e18) / STAKING_...\n      PUSH [tag] 460\t\t\t(timeStaked * 1e18) / STAKING_...\n      JUMP \t\t\t(timeStaked * 1e18) / STAKING_...\n    tag 598\t\t\t(timeStaked * 1e18) / STAKING_...\n      JUMPDEST \t\t\t(timeStaked * 1e18) / STAKING_...\n      SWAP1 \t\t\tuint256 stakingPeriods = (time...\n      POP \t\t\tuint256 stakingPeriods = (time...\n      PUSH 0\t\t\tuint256 reward\n      PUSH 56BC75E2D63100000\t\t\t100 * 1e18\n      DUP3 \t\t\tstakingPeriods\n      PUSH 12\t\t\tSTAKING_REWARD_RATE\n      SLOAD \t\t\tSTAKING_REWARD_RATE\n      DUP7 \t\t\tuserStake\n      PUSH 0\t\t\tuserStake.amount\n      ADD \t\t\tuserStake.amount\n      SLOAD \t\t\tuserStake.amount\n      PUSH [tag] 599\t\t\tuserStake.amount * STAKING_REW...\n      SWAP2 \t\t\tuserStake.amount * STAKING_REW...\n      SWAP1 \t\t\tuserStake.amount * STAKING_REW...\n      PUSH [tag] 458\t\t\tuserStake.amount * STAKING_REW...\n      JUMP \t\t\tuserStake.amount * STAKING_REW...\n    tag 599\t\t\tuserStake.amount * STAKING_REW...\n      JUMPDEST \t\t\tuserStake.amount * STAKING_REW...\n      PUSH [tag] 600\t\t\tuserStake.amount * STAKING_REW...\n      SWAP2 \t\t\tuserStake.amount * STAKING_REW...\n      SWAP1 \t\t\tuserStake.amount * STAKING_REW...\n      PUSH [tag] 458\t\t\tuserStake.amount * STAKING_REW...\n      JUMP \t\t\tuserStake.amount * STAKING_REW...\n    tag 600\t\t\tuserStake.amount * STAKING_REW...\n      JUMPDEST \t\t\tuserStake.amount * STAKING_REW...\n      PUSH [tag] 601\t\t\t(userStake.amount * STAKING_RE...\n      SWAP2 \t\t\t(userStake.amount * STAKING_RE...\n      SWAP1 \t\t\t(userStake.amount * STAKING_RE...\n      PUSH [tag] 460\t\t\t(userStake.amount * STAKING_RE...\n      JUMP \t\t\t(userStake.amount * STAKING_RE...\n    tag 601\t\t\t(userStake.amount * STAKING_RE...\n      JUMPDEST \t\t\t(userStake.amount * STAKING_RE...\n      SWAP1 \t\t\tuint256 reward = (userStake.am...\n      POP \t\t\tuint256 reward = (userStake.am...\n      DUP4 \t\t\tuserStake\n      PUSH 2\t\t\tuserStake.bl2pBoost\n      ADD \t\t\tuserStake.bl2pBoost\n      SLOAD \t\t\tuserStake.bl2pBoost\n      PUSH 0\t\t\t0\n      EQ \t\t\tuserStake.bl2pBoost != 0\n      PUSH [tag] 602\t\t\tif (userStake.bl2pBoost != 0) ...\n      JUMPI \t\t\tif (userStake.bl2pBoost != 0) ...\n      PUSH 8AC7230489E80000\t\t\t10 * 1e18\n      DUP5 \t\t\tuserStake\n      PUSH 2\t\t\tuserStake.bl2pBoost\n      ADD \t\t\tuserStake.bl2pBoost\n      SLOAD \t\t\tuserStake.bl2pBoost\n      DUP3 \t\t\treward\n      PUSH [tag] 603\t\t\treward * userStake.bl2pBoost\n      SWAP2 \t\t\treward * userStake.bl2pBoost\n      SWAP1 \t\t\treward * userStake.bl2pBoost\n      PUSH [tag] 458\t\t\treward * userStake.bl2pBoost\n      JUMP \t\t\treward * userStake.bl2pBoost\n    tag 603\t\t\treward * userStake.bl2pBoost\n      JUMPDEST \t\t\treward * userStake.bl2pBoost\n      PUSH [tag] 604\t\t\t(reward * userStake.bl2pBoost)...\n      SWAP2 \t\t\t(reward * userStake.bl2pBoost)...\n      SWAP1 \t\t\t(reward * userStake.bl2pBoost)...\n      PUSH [tag] 460\t\t\t(reward * userStake.bl2pBoost)...\n      JUMP \t\t\t(reward * userStake.bl2pBoost)...\n    tag 604\t\t\t(reward * userStake.bl2pBoost)...\n      JUMPDEST \t\t\t(reward * userStake.bl2pBoost)...\n      PUSH [tag] 605\t\t\treward += (reward * userStake....\n      SWAP1 \t\t\treward += (reward * userStake....\n      DUP3 \t\t\treward += (reward * userStake....\n      PUSH [tag] 452\t\t\treward += (reward * userStake....\n      JUMP \t\t\treward += (reward * userStake....\n    tag 605\t\t\treward += (reward * userStake....\n      JUMPDEST \t\t\treward += (reward * userStake....\n      SWAP1 \t\t\treward += (reward * userStake....\n      POP \t\t\treward += (reward * userStake....\n    tag 602\t\t\tif (userStake.bl2pBoost != 0) ...\n      JUMPDEST \t\t\tif (userStake.bl2pBoost != 0) ...\n      DUP4 \t\t\tuserStake.amount\n      SLOAD \t\t\tuserStake.amount\n      PUSH [tag] 606\t\t\tIERC20(address(this)).safeTran...\n      SWAP1 \t\t\tIERC20(address(this)).safeTran...\n      ADDRESS \t\t\tthis\n      SWAP1 \t\t\tthis\n      CALLER \t\t\tmsg.sender\n      SWAP1 \t\t\tmsg.sender\n      PUSH [tag] 475\t\t\tIERC20(address(this)).safeTran...\n      JUMP \t\t\tIERC20(address(this)).safeTran...\n    tag 606\t\t\tIERC20(address(this)).safeTran...\n      JUMPDEST \t\t\tIERC20(address(this)).safeTran...\n      DUP4 \t\t\tuserStake.amount\n      SLOAD \t\t\tuserStake.amount\n      PUSH 11\t\t\ttotalStaked\n      DUP1 \t\t\ttotalStaked -= userStake.amoun...\n      SLOAD \t\t\ttotalStaked -= userStake.amoun...\n      PUSH 0\t\t\tuserStake.amount\n      SWAP1 \t\t\tuserStake.amount\n      PUSH [tag] 607\t\t\ttotalStaked -= userStake.amoun...\n      SWAP1 \t\t\ttotalStaked -= userStake.amoun...\n      DUP5 \t\t\tuserStake.amount\n      SWAP1 \t\t\tuserStake.amount\n      PUSH [tag] 477\t\t\ttotalStaked -= userStake.amoun...\n      JUMP \t\t\ttotalStaked -= userStake.amoun...\n    tag 607\t\t\ttotalStaked -= userStake.amoun...\n      JUMPDEST \t\t\ttotalStaked -= userStake.amoun...\n      SWAP1 \t\t\ttotalStaked -= userStake.amoun...\n      SWAP2 \t\t\ttotalStaked -= userStake.amoun...\n      SSTORE \t\t\ttotalStaked -= userStake.amoun...\n      POP \t\t\t\n      POP \t\t\t\n      DUP1 \t\t\treward != 0\n      ISZERO \t\t\treward != 0\n      DUP1 \t\t\treward != 0\n      ISZERO \t\t\treward != 0\n      SWAP1 \t\t\treward != 0\n      PUSH [tag] 608\t\t\treward != 0 && getRemainingVal...\n      JUMPI \t\t\treward != 0 && getRemainingVal...\n      POP \t\t\treward != 0 && getRemainingVal...\n      PUSH [tag] 609\t\t\tgetRemainingValidBL2P(msg.send...\n      CALLER \t\t\tmsg.sender\n      PUSH [tag] 356\t\t\tgetRemainingValidBL2P\n      JUMP \t\t\tgetRemainingValidBL2P(msg.send...\n    tag 609\t\t\tgetRemainingValidBL2P(msg.send...\n      JUMPDEST \t\t\tgetRemainingValidBL2P(msg.send...\n      ISZERO \t\t\tgetRemainingValidBL2P(msg.send...\n      ISZERO \t\t\tgetRemainingValidBL2P(msg.send...\n    tag 608\t\t\treward != 0 && getRemainingVal...\n      JUMPDEST \t\t\treward != 0 && getRemainingVal...\n      ISZERO \t\t\tif (reward != 0 && getRemainin...\n      PUSH [tag] 610\t\t\tif (reward != 0 && getRemainin...\n      JUMPI \t\t\tif (reward != 0 && getRemainin...\n      PUSH [tag] 611\t\t\tIERC20(address(this)).safeTran...\n      ADDRESS \t\t\tthis\n      CALLER \t\t\tmsg.sender\n      DUP4 \t\t\treward\n      PUSH [tag] 475\t\t\tIERC20(address(this)).safeTran...\n      JUMP \t\t\tIERC20(address(this)).safeTran...\n    tag 611\t\t\tIERC20(address(this)).safeTran...\n      JUMPDEST \t\t\tIERC20(address(this)).safeTran...\n      PUSH 40\t\t\tStakingRewardClaimed(msg.sende...\n      MLOAD \t\t\tStakingRewardClaimed(msg.sende...\n      DUP2 \t\t\tNotAuthorized();\\n    erro\n      DUP2 \t\t\tNotAuthorized();\\n    erro\n      MSTORE \t\t\tNotAuthorized();\\n    erro\n      CALLER \t\t\tmsg.sender\n      SWAP1 \t\t\tmsg.sender\n      PUSH 6DD401E61BA732582A5EBA3D54CCC3AFB3609CD3AC1A166D1D36F75FC0AEDCDA\t\t\tStakingRewardClaimed(msg.sende...\n      SWAP1 \t\t\tStakingRewardClaimed(msg.sende...\n      PUSH 20\t\t\t;\\n\n      ADD \t\t\ternanceNotSet();\\n \n      PUSH 40\t\t\tStakingRewardClaimed(msg.sende...\n      MLOAD \t\t\tStakingRewardClaimed(msg.sende...\n      DUP1 \t\t\tStakingRewardClaimed(msg.sende...\n      SWAP2 \t\t\tStakingRewardClaimed(msg.sende...\n      SUB \t\t\tStakingRewardClaimed(msg.sende...\n      SWAP1 \t\t\tStakingRewardClaimed(msg.sende...\n      LOG2 \t\t\tStakingRewardClaimed(msg.sende...\n    tag 610\t\t\tif (reward != 0 && getRemainin...\n      JUMPDEST \t\t\tif (reward != 0 && getRemainin...\n      CALLER \t\t\tmsg.sender\n      PUSH 0\t\t\tstakes[msg.sender]\n      DUP2 \t\t\tstakes[msg.sender]\n      DUP2 \t\t\tstakes[msg.sender]\n      MSTORE \t\t\tstakes[msg.sender]\n      PUSH 29\t\t\tstakes\n      PUSH 20\t\t\tstakes[msg.sender]\n      MSTORE \t\t\tstakes[msg.sender]\n      PUSH 40\t\t\tstakes[msg.sender]\n      DUP1 \t\t\tstakes[msg.sender]\n      DUP3 \t\t\tstakes[msg.sender]\n      KECCAK256 \t\t\tstakes[msg.sender]\n      DUP3 \t\t\tdelete stakes[msg.sender]\n      DUP2 \t\t\tdelete stakes[msg.sender]\n      SSTORE \t\t\tdelete stakes[msg.sender]\n      PUSH 1\t\t\tdelete stakes[msg.sender]\n      DUP2 \t\t\tdelete stakes[msg.sender]\n      ADD \t\t\tdelete stakes[msg.sender]\n      DUP4 \t\t\tdelete stakes[msg.sender]\n      SWAP1 \t\t\tdelete stakes[msg.sender]\n      SSTORE \t\t\tdelete stakes[msg.sender]\n      PUSH 2\t\t\tdelete stakes[msg.sender]\n      DUP2 \t\t\tdelete stakes[msg.sender]\n      ADD \t\t\tdelete stakes[msg.sender]\n      SWAP3 \t\t\tdelete stakes[msg.sender]\n      SWAP1 \t\t\tdelete stakes[msg.sender]\n      SWAP3 \t\t\tdelete stakes[msg.sender]\n      SSTORE \t\t\tdelete stakes[msg.sender]\n      PUSH 3\t\t\tdelete stakes[msg.sender]\n      SWAP1 \t\t\tdelete stakes[msg.sender]\n      SWAP2 \t\t\tdelete stakes[msg.sender]\n      ADD \t\t\tdelete stakes[msg.sender]\n      DUP1 \t\t\tdelete stakes[msg.sender]\n      SLOAD \t\t\tdelete stakes[msg.sender]\n      PUSH FF\t\t\t\n      NOT \t\t\t\n      AND \t\t\tdelete stakes[msg.sender]\n      SWAP1 \t\t\tdelete stakes[msg.sender]\n      SSTORE \t\t\tdelete stakes[msg.sender]\n      DUP6 \t\t\tuserStake.amount\n      SLOAD \t\t\tuserStake.amount\n      SWAP1 \t\t\tUnstaked(msg.sender, userStake...\n      MLOAD \t\t\tUnstaked(msg.sender, userStake...\n      PUSH 7FC4727E062E336010F2C282598EF5F14FACB3DE68CF8195C2F23E1454B2B74E\t\t\tUnstaked(msg.sender, userStake...\n      SWAP2 \t\t\tUnstaked(msg.sender, userStake...\n      PUSH [tag] 613\t\t\tUnstaked(msg.sender, userStake...\n      SWAP2 \t\t\tUnstaked(msg.sender, userStake...\n      TIMESTAMP \t\t\tblock.timestamp\n      SWAP1 \t\t\tblock.timestamp\n      SWAP2 \t\t\t1_000_000_000 * 1e18) rev\n      DUP3 \t\t\t1_000_000_000 * 1e18) rev\n      MSTORE \t\t\t1_000_000_000 * 1e18) rev\n      PUSH 20\t\t\t()\n      DUP3 \t\t\tContractBalance();\n      ADD \t\t\tContractBalance();\n      MSTORE \t\t\tficientContractBalance();\\n   ...\n      PUSH 40\t\t\tss\n      ADD \t\t\tbalanceOf(address(\n      SWAP1 \t\t\tbalanceOf(address(\n      JUMP \t\t\tlRecipient;\\n        lockedRes...\n    tag 613\t\t\tUnstaked(msg.sender, userStake...\n      JUMPDEST \t\t\tUnstaked(msg.sender, userStake...\n      PUSH 40\t\t\tUnstaked(msg.sender, userStake...\n      MLOAD \t\t\tUnstaked(msg.sender, userStake...\n      DUP1 \t\t\tUnstaked(msg.sender, userStake...\n      SWAP2 \t\t\tUnstaked(msg.sender, userStake...\n      SUB \t\t\tUnstaked(msg.sender, userStake...\n      SWAP1 \t\t\tUnstaked(msg.sender, userStake...\n      LOG2 \t\t\tUnstaked(msg.sender, userStake...\n      POP \t\t\t{\\n        Stake storage userS...\n      POP \t\t\t{\\n        Stake storage userS...\n      POP \t\t\t{\\n        Stake storage userS...\n      POP \t\t\t{\\n        Stake storage userS...\n      PUSH [tag] 536\t\t\t modifier onlyGovern\n      PUSH 1\t\t\t \n      PUSH 5\t\t\t}\\n\\n    \n      SSTORE \t\t\t}\\n\\n    enum ProposalT\n      JUMP \t\t\tsg.sender != owner()) revert N...\n    tag 195\t\t\tfunction batchClaimBL2PReward(...\n      JUMPDEST \t\t\tfunction batchClaimBL2PReward(...\n      PUSH [tag] 616\t\t\ttracts not allowed\");\n      PUSH [tag] 444\t\t\ttracts not allowed\"\n      JUMP \t\t\ttracts not allowed\");\n    tag 616\t\t\ttracts not allowed\");\n      JUMPDEST \t\t\ttracts not allowed\");\n      PUSH 9\t\t\temergencyPaused\n      SLOAD \t\t\temergencyPaused\n      PUSH 10000\t\t\temergencyPaused\n      SWAP1 \t\t\temergencyPaused\n      DIV \t\t\temergencyPaused\n      PUSH FF\t\t\temergencyPaused\n      AND \t\t\temergencyPaused\n      ISZERO \t\t\tif (emergencyPaused) revert Co...\n      PUSH [tag] 618\t\t\tif (emergencyPaused) revert Co...\n      JUMPI \t\t\tif (emergencyPaused) revert Co...\n      PUSH 40\t\t\tContractPaused()\n      MLOAD \t\t\tContractPaused()\n      PUSH AB35696F\t\t\t\n      PUSH E0\t\t\t\n      SHL \t\t\t\n      DUP2 \t\t\tContractPaused()\n      MSTORE \t\t\tContractPaused()\n      PUSH 4\t\t\tContractPaused()\n      ADD \t\t\tContractPaused()\n      PUSH 40\t\t\tContractPaused()\n      MLOAD \t\t\tContractPaused()\n      DUP1 \t\t\tContractPaused()\n      SWAP2 \t\t\tContractPaused()\n      SUB \t\t\tContractPaused()\n      SWAP1 \t\t\tContractPaused()\n      REVERT \t\t\tContractPaused()\n    tag 618\t\t\tif (emergencyPaused) revert Co...\n      JUMPDEST \t\t\tif (emergencyPaused) revert Co...\n      PUSH 32\t\t\t50\n      DUP2 \t\t\tusers.length > 50\n      GT \t\t\tusers.length > 50\n      ISZERO \t\t\tif (users.length > 50) revert ...\n      PUSH [tag] 620\t\t\tif (users.length > 50) revert ...\n      JUMPI \t\t\tif (users.length > 50) revert ...\n      PUSH 40\t\t\tTooManyUsers()\n      MLOAD \t\t\tTooManyUsers()\n      PUSH D5931657\t\t\t\n      PUSH E0\t\t\t\n      SHL \t\t\t\n      DUP2 \t\t\tTooManyUsers()\n      MSTORE \t\t\tTooManyUsers()\n      PUSH 4\t\t\tTooManyUsers()\n      ADD \t\t\tTooManyUsers()\n      PUSH 40\t\t\tTooManyUsers()\n      MLOAD \t\t\tTooManyUsers()\n      DUP1 \t\t\tTooManyUsers()\n      SWAP2 \t\t\tTooManyUsers()\n      SUB \t\t\tTooManyUsers()\n      SWAP1 \t\t\tTooManyUsers()\n      REVERT \t\t\tTooManyUsers()\n    tag 620\t\t\tif (users.length > 50) revert ...\n      JUMPDEST \t\t\tif (users.length > 50) revert ...\n      DUP1 \t\t\tusers\n      PUSH 0\t\t\tuint256 len\n      DUP2 \t\t\tusers\n      PUSH FFFFFFFFFFFFFFFF\t\t\tnew uint256[](len)\n      DUP2 \t\t\tnew uint256[](len)\n      GT \t\t\tnew uint256[](len)\n      ISZERO \t\t\tnew uint256[](len)\n      PUSH [tag] 622\t\t\tnew uint256[](len)\n      JUMPI \t\t\tnew uint256[](len)\n      PUSH [tag] 622\t\t\tnew uint256[](len)\n      PUSH [tag] 623\t\t\tnew uint256[](len)\n      JUMP \t\t\tnew uint256[](len)\n    tag 622\t\t\tnew uint256[](len)\n      JUMPDEST \t\t\tnew uint256[](len)\n      PUSH 40\t\t\tnew uint256[](len)\n      MLOAD \t\t\tnew uint256[](len)\n      SWAP1 \t\t\tnew uint256[](len)\n      DUP1 \t\t\tnew uint256[](len)\n      DUP3 \t\t\tnew uint256[](len)\n      MSTORE \t\t\tnew uint256[](len)\n      DUP1 \t\t\tnew uint256[](len)\n      PUSH 20\t\t\tnew uint256[](len)\n      MUL \t\t\tnew uint256[](len)\n      PUSH 20\t\t\tnew uint256[](len)\n      ADD \t\t\tnew uint256[](len)\n      DUP3 \t\t\tnew uint256[](len)\n      ADD \t\t\tnew uint256[](len)\n      PUSH 40\t\t\tnew uint256[](len)\n      MSTORE \t\t\tnew uint256[](len)\n      DUP1 \t\t\tnew uint256[](len)\n      ISZERO \t\t\tnew uint256[](len)\n      PUSH [tag] 624\t\t\tnew uint256[](len)\n      JUMPI \t\t\tnew uint256[](len)\n      DUP2 \t\t\tnew uint256[](len)\n      PUSH 20\t\t\tnew uint256[](len)\n      ADD \t\t\tnew uint256[](len)\n      PUSH 20\t\t\tnew uint256[](len)\n      DUP3 \t\t\tnew uint256[](len)\n      MUL \t\t\tnew uint256[](len)\n      DUP1 \t\t\tnew uint256[](len)\n      CALLDATASIZE \t\t\tnew uint256[](len)\n      DUP4 \t\t\tnew uint256[](len)\n      CALLDATACOPY \t\t\tnew uint256[](len)\n      ADD \t\t\tnew uint256[](len)\n      SWAP1 \t\t\tnew uint256[](len)\n      POP \t\t\t\n    tag 624\t\t\tnew uint256[](len)\n      JUMPDEST \t\t\tnew uint256[](len)\n      POP \t\t\t\n      PUSH 10\t\t\tearlyAdopterCount\n      SLOAD \t\t\tearlyAdopterCount\n      SWAP1 \t\t\tuint256[] memory rewards = new...\n      SWAP2 \t\t\tuint256[] memory rewards = new...\n      POP \t\t\t\n      PUSH 0\t\t\tuint256 _earlyAdopterCount\n    tag 625\t\t\tfor (uint256 i = 0; i < len; +...\n      JUMPDEST \t\t\tfor (uint256 i = 0; i < len; +...\n      DUP4 \t\t\tlen\n      DUP2 \t\t\ti\n      LT \t\t\ti < len\n      ISZERO \t\t\tfor (uint256 i = 0; i < len; +...\n      PUSH [tag] 626\t\t\tfor (uint256 i = 0; i < len; +...\n      JUMPI \t\t\tfor (uint256 i = 0; i < len; +...\n      PUSH 0\t\t\taddress user\n      DUP7 \t\t\tusers\n      DUP7 \t\t\tusers\n      DUP4 \t\t\ti\n      DUP2 \t\t\tusers[i]\n      DUP2 \t\t\tusers[i]\n      LT \t\t\tusers[i]\n      PUSH [tag] 629\t\t\tusers[i]\n      JUMPI \t\t\tusers[i]\n      PUSH [tag] 629\t\t\tusers[i]\n      PUSH [tag] 630\t\t\tusers[i]\n      JUMP \t\t\tusers[i]\n    tag 629\t\t\tusers[i]\n      JUMPDEST \t\t\tusers[i]\n      SWAP1 \t\t\tusers[i]\n      POP \t\t\tusers[i]\n      PUSH 20\t\t\tusers[i]\n      MUL \t\t\tusers[i]\n      ADD \t\t\tusers[i]\n      PUSH 20\t\t\tusers[i]\n      DUP2 \t\t\tusers[i]\n      ADD \t\t\tusers[i]\n      SWAP1 \t\t\tusers[i]\n      PUSH [tag] 631\t\t\tusers[i]\n      SWAP2 \t\t\tusers[i]\n      SWAP1 \t\t\tusers[i]\n      PUSH [tag] 111\t\t\tusers[i]\n      JUMP \t\t\tusers[i]\n    tag 631\t\t\tusers[i]\n      JUMPDEST \t\t\tusers[i]\n      SWAP1 \t\t\taddress user = users[i]\n      POP \t\t\t\n      PUSH 1\t\t\t\n      PUSH 1\t\t\t\n      PUSH A0\t\t\t\n      SHL \t\t\t\n      SUB \t\t\t\n      DUP2 \t\t\tuser == address(0)\n      AND \t\t\tuser == address(0)\n      PUSH [tag] 632\t\t\tif (user == address(0)) revert...\n      JUMPI \t\t\tif (user == address(0)) revert...\n      PUSH 40\t\t\tInvalidAddress()\n      MLOAD \t\t\tInvalidAddress()\n      PUSH E6C4247B\t\t\t\n      PUSH E0\t\t\t\n      SHL \t\t\t\n      DUP2 \t\t\tInvalidAddress()\n      MSTORE \t\t\tInvalidAddress()\n      PUSH 4\t\t\tInvalidAddress()\n      ADD \t\t\tInvalidAddress()\n      PUSH 40\t\t\tInvalidAddress()\n      MLOAD \t\t\tInvalidAddress()\n      DUP1 \t\t\tInvalidAddress()\n      SWAP2 \t\t\tInvalidAddress()\n      SUB \t\t\tInvalidAddress()\n      SWAP1 \t\t\tInvalidAddress()\n      REVERT \t\t\tInvalidAddress()\n    tag 632\t\t\tif (user == address(0)) revert...\n      JUMPDEST \t\t\tif (user == address(0)) revert...\n      PUSH 1\t\t\t\n      PUSH 1\t\t\t\n      PUSH A0\t\t\t\n      SHL \t\t\t\n      SUB \t\t\t\n      DUP2 \t\t\tbl2pClaimed[user]\n      AND \t\t\tbl2pClaimed[user]\n      PUSH 0\t\t\tbl2pClaimed[user]\n      SWAP1 \t\t\tbl2pClaimed[user]\n      DUP2 \t\t\tbl2pClaimed[user]\n      MSTORE \t\t\tbl2pClaimed[user]\n      PUSH 20\t\t\tbl2pClaimed\n      DUP1 \t\t\tbl2pClaimed[user]\n      MSTORE \t\t\tbl2pClaimed[user]\n      PUSH 40\t\t\tbl2pClaimed[user]\n      SWAP1 \t\t\tbl2pClaimed[user]\n      KECCAK256 \t\t\tbl2pClaimed[user]\n      SLOAD \t\t\tbl2pClaimed[user]\n      ISZERO \t\t\tbl2pClaimed[user] == 0\n      DUP1 \t\t\tbl2pClaimed[user] == 0 && tota...\n      ISZERO \t\t\tbl2pClaimed[user] == 0 && tota...\n      PUSH [tag] 633\t\t\tbl2pClaimed[user] == 0 && tota...\n      JUMPI \t\t\tbl2pClaimed[user] == 0 && tota...\n      POP \t\t\t\n      PUSH 1\t\t\t\n      PUSH 1\t\t\t\n      PUSH A0\t\t\t\n      SHL \t\t\t\n      SUB \t\t\t\n      DUP2 \t\t\ttotalContributions[user]\n      AND \t\t\ttotalContributions[user]\n      PUSH 0\t\t\ttotalContributions[user]\n      SWAP1 \t\t\ttotalContributions[user]\n      DUP2 \t\t\ttotalContributions[user]\n      MSTORE \t\t\ttotalContributions[user]\n      PUSH 21\t\t\ttotalContributions\n      PUSH 20\t\t\ttotalContributions[user]\n      MSTORE \t\t\ttotalContributions[user]\n      PUSH 40\t\t\ttotalContributions[user]\n      SWAP1 \t\t\ttotalContributions[user]\n      KECCAK256 \t\t\ttotalContributions[user]\n      SLOAD \t\t\ttotalContributions[user]\n      ISZERO \t\t\ttotalContributions[user] != 0\n      ISZERO \t\t\ttotalContributions[user] != 0\n    tag 633\t\t\tbl2pClaimed[user] == 0 && tota...\n      JUMPDEST \t\t\tbl2pClaimed[user] == 0 && tota...\n      ISZERO \t\t\tif (bl2pClaimed[user] == 0 && ...\n      PUSH [tag] 634\t\t\tif (bl2pClaimed[user] == 0 && ...\n      JUMPI \t\t\tif (bl2pClaimed[user] == 0 && ...\n      PUSH 1\t\t\t\n      PUSH 1\t\t\t\n      PUSH A0\t\t\t\n      SHL \t\t\t\n      SUB \t\t\t\n      DUP2 \t\t\ttotalContributions[user]\n      AND \t\t\ttotalContributions[user]\n      PUSH 0\t\t\tuint256 reward\n      SWAP1 \t\t\ttotalContributions[user]\n      DUP2 \t\t\ttotalContributions[user]\n      MSTORE \t\t\ttotalContributions[user]\n      PUSH 21\t\t\ttotalContributions\n      PUSH 20\t\t\ttotalContributions[user]\n      MSTORE \t\t\ttotalContributions[user]\n      PUSH 40\t\t\ttotalContributions[user]\n      DUP2 \t\t\ttotalContributions[user]\n      KECCAK256 \t\t\ttotalContributions[user]\n      SLOAD \t\t\ttotalContributions[user]\n      PUSHIMMUTABLE 1813\t\t\tBURN_TARGET\n      SWAP1 \t\t\tBURN_TARGET\n      PUSH [tag] 635\t\t\ttotalContributions[user] * BL2...\n      SWAP1 \t\t\ttotalContributions[user] * BL2...\n      PUSH 33B2E3C9FD0803CE8000000\t\t\t1_000_000_000 * 1e18\n      SWAP1 \t\t\t1_000_000_000 * 1e18\n      PUSH [tag] 458\t\t\ttotalContributions[user] * BL2...\n      JUMP \t\t\ttotalContributions[user] * BL2...\n    tag 635\t\t\ttotalContributions[user] * BL2...\n      JUMPDEST \t\t\ttotalContributions[user] * BL2...\n      PUSH [tag] 636\t\t\t(totalContributions[user] * BL...\n      SWAP2 \t\t\t(totalContributions[user] * BL...\n      SWAP1 \t\t\t(totalContributions[user] * BL...\n      PUSH [tag] 460\t\t\t(totalContributions[user] * BL...\n      JUMP \t\t\t(totalContributions[user] * BL...\n    tag 636\t\t\t(totalContributions[user] * BL...\n      JUMPDEST \t\t\t(totalContributions[user] * BL...\n      SWAP1 \t\t\tuint256 reward = (totalContrib...\n      POP \t\t\tuint256 reward = (totalContrib...\n      PUSH 3E8\t\t\t1000\n      DUP5 \t\t\t_earlyAdopterCount\n      LT \t\t\t_earlyAdopterCount < EARLY_ADO...\n      ISZERO \t\t\tif (_earlyAdopterCount < EARLY...\n      PUSH [tag] 637\t\t\tif (_earlyAdopterCount < EARLY...\n      JUMPI \t\t\tif (_earlyAdopterCount < EARLY...\n      PUSH 64\t\t\t100\n      PUSH [tag] 638\t\t\treward * EARLY_ADOPTER_BONUS_R...\n      PUSH A\t\t\t10\n      DUP4 \t\t\treward\n      PUSH [tag] 458\t\t\treward * EARLY_ADOPTER_BONUS_R...\n      JUMP \t\t\treward * EARLY_ADOPTER_BONUS_R...\n    tag 638\t\t\treward * EARLY_ADOPTER_BONUS_R...\n      JUMPDEST \t\t\treward * EARLY_ADOPTER_BONUS_R...\n      PUSH [tag] 639\t\t\t(reward * EARLY_ADOPTER_BONUS_...\n      SWAP2 \t\t\t(reward * EARLY_ADOPTER_BONUS_...\n      SWAP1 \t\t\t(reward * EARLY_ADOPTER_BONUS_...\n      PUSH [tag] 460\t\t\t(reward * EARLY_ADOPTER_BONUS_...\n      JUMP \t\t\t(reward * EARLY_ADOPTER_BONUS_...\n    tag 639\t\t\t(reward * EARLY_ADOPTER_BONUS_...\n      JUMPDEST \t\t\t(reward * EARLY_ADOPTER_BONUS_...\n      PUSH [tag] 640\t\t\treward += (reward * EARLY_ADOP...\n      SWAP1 \t\t\treward += (reward * EARLY_ADOP...\n      DUP3 \t\t\treward += (reward * EARLY_ADOP...\n      PUSH [tag] 452\t\t\treward += (reward * EARLY_ADOP...\n      JUMP \t\t\treward += (reward * EARLY_ADOP...\n    tag 640\t\t\treward += (reward * EARLY_ADOP...\n      JUMPDEST \t\t\treward += (reward * EARLY_ADOP...\n      SWAP1 \t\t\treward += (reward * EARLY_ADOP...\n      POP \t\t\t\n      PUSH [tag] 641\t\t\t++_earlyAdopterCount\n      DUP5 \t\t\t++_earlyAdopterCount\n      PUSH [tag] 642\t\t\t++_earlyAdopterCount\n      JUMP \t\t\t++_earlyAdopterCount\n    tag 641\t\t\t++_earlyAdopterCount\n      JUMPDEST \t\t\t++_earlyAdopterCount\n      SWAP4 \t\t\t++_earlyAdopterCount\n      POP \t\t\t++_earlyAdopterCount\n    tag 637\t\t\tif (_earlyAdopterCount < EARLY...\n      JUMPDEST \t\t\tif (_earlyAdopterCount < EARLY...\n      DUP1 \t\t\treward\n      PUSH 0\t\t\t0\n      SUB \t\t\treward == 0\n      PUSH [tag] 643\t\t\tif (reward == 0) continue\n      JUMPI \t\t\tif (reward == 0) continue\n      POP \t\t\tcontinue\n      POP \t\t\tcontinue\n      PUSH [tag] 627\t\t\tcontinue\n      JUMP \t\t\tcontinue\n    tag 643\t\t\tif (reward == 0) continue\n      JUMPDEST \t\t\tif (reward == 0) continue\n      PUSH 1\t\t\t\n      PUSH 1\t\t\t\n      PUSH A0\t\t\t\n      SHL \t\t\t\n      SUB \t\t\t\n      DUP1 \t\t\treferrals[user]\n      DUP4 \t\t\treferrals[user]\n      AND \t\t\treferrals[user]\n      PUSH 0\t\t\taddress referrer\n      SWAP1 \t\t\treferrals[user]\n      DUP2 \t\t\treferrals[user]\n      MSTORE \t\t\treferrals[user]\n      PUSH 22\t\t\treferrals\n      PUSH 20\t\t\treferrals[user]\n      MSTORE \t\t\treferrals[user]\n      PUSH 40\t\t\treferrals[user]\n      SWAP1 \t\t\treferrals[user]\n      KECCAK256 \t\t\treferrals[user]\n      SLOAD \t\t\treferrals[user]\n      AND \t\t\treferrals[user]\n      DUP1 \t\t\treferrer != address(0)\n      ISZERO \t\t\treferrer != address(0)\n      PUSH [tag] 644\t\t\tif (referrer != address(0)) {\\...\n      JUMPI \t\t\tif (referrer != address(0)) {\\...\n      PUSH 0\t\t\tuint256 referralBonus\n      PUSH 64\t\t\t100\n      PUSH [tag] 645\t\t\treward * REFERRAL_BONUS_RATE\n      PUSH 5\t\t\t5\n      DUP6 \t\t\treward\n      PUSH [tag] 458\t\t\treward * REFERRAL_BONUS_RATE\n      JUMP \t\t\treward * REFERRAL_BONUS_RATE\n    tag 645\t\t\treward * REFERRAL_BONUS_RATE\n      JUMPDEST \t\t\treward * REFERRAL_BONUS_RATE\n      PUSH [tag] 646\t\t\t(reward * REFERRAL_BONUS_RATE)...\n      SWAP2 \t\t\t(reward * REFERRAL_BONUS_RATE)...\n      SWAP1 \t\t\t(reward * REFERRAL_BONUS_RATE)...\n      PUSH [tag] 460\t\t\t(reward * REFERRAL_BONUS_RATE)...\n      JUMP \t\t\t(reward * REFERRAL_BONUS_RATE)...\n    tag 646\t\t\t(reward * REFERRAL_BONUS_RATE)...\n      JUMPDEST \t\t\t(reward * REFERRAL_BONUS_RATE)...\n      SWAP1 \t\t\tuint256 referralBonus = (rewar...\n      POP \t\t\tuint256 referralBonus = (rewar...\n      PUSH [tag] 647\t\t\t_mint(referrer, referralBonus)\n      DUP3 \t\t\treferrer\n      DUP3 \t\t\treferralBonus\n      PUSH [tag] 648\t\t\t_mint\n      JUMP \t\t\t_mint(referrer, referralBonus)\n    tag 647\t\t\t_mint(referrer, referralBonus)\n      JUMPDEST \t\t\t_mint(referrer, referralBonus)\n      DUP2 \t\t\treferrer\n      PUSH 1\t\t\t\n      PUSH 1\t\t\t\n      PUSH A0\t\t\t\n      SHL \t\t\t\n      SUB \t\t\t\n      AND \t\t\tReferralBonusPaid(referrer, re...\n      PUSH 50BAE3EEEFAC62A4EE36C766F4F426F09EDF96AE8FB3034EBBF961E4ACC78E2\t\t\tReferralBonusPaid(referrer, re...\n      DUP3 \t\t\treferralBonus\n      PUSH 40\t\t\tReferralBonusPaid(referrer, re...\n      MLOAD \t\t\tReferralBonusPaid(referrer, re...\n      PUSH [tag] 649\t\t\tReferralBonusPaid(referrer, re...\n      SWAP2 \t\t\tReferralBonusPaid(referrer, re...\n      DUP2 \t\t\tNotAuthorized();\\n    erro\n      MSTORE \t\t\tNotAuthorized();\\n    erro\n      PUSH 20\t\t\t;\\n\n      ADD \t\t\ternanceNotSet();\\n \n      SWAP1 \t\t\ternanceNotSet();\\n \n      JUMP \t\t\t// Errors\\n    error InvalidRe...\n    tag 649\t\t\tReferralBonusPaid(referrer, re...\n      JUMPDEST \t\t\tReferralBonusPaid(referrer, re...\n      PUSH 40\t\t\tReferralBonusPaid(referrer, re...\n      MLOAD \t\t\tReferralBonusPaid(referrer, re...\n      DUP1 \t\t\tReferralBonusPaid(referrer, re...\n      SWAP2 \t\t\tReferralBonusPaid(referrer, re...\n      SUB \t\t\tReferralBonusPaid(referrer, re...\n      SWAP1 \t\t\tReferralBonusPaid(referrer, re...\n      LOG2 \t\t\tReferralBonusPaid(referrer, re...\n      POP \t\t\t{\\n                    uint256...\n    tag 644\t\t\tif (referrer != address(0)) {\\...\n      JUMPDEST \t\t\tif (referrer != address(0)) {\\...\n      PUSH 1\t\t\t\n      PUSH 1\t\t\t\n      PUSH A0\t\t\t\n      SHL \t\t\t\n      SUB \t\t\t\n      DUP4 \t\t\tbl2pClaimed[user]\n      AND \t\t\tbl2pClaimed[user]\n      PUSH 0\t\t\tbl2pClaimed[user]\n      SWAP1 \t\t\tbl2pClaimed[user]\n      DUP2 \t\t\tbl2pClaimed[user]\n      MSTORE \t\t\tbl2pClaimed[user]\n      PUSH 20\t\t\tbl2pClaimed\n      DUP1 \t\t\tbl2pClaimed[user]\n      MSTORE \t\t\tbl2pClaimed[user]\n      PUSH 40\t\t\tbl2pClaimed[user]\n      SWAP1 \t\t\tbl2pClaimed[user]\n      KECCAK256 \t\t\tbl2pClaimed[user]\n      DUP3 \t\t\tbl2pClaimed[user] = reward\n      SWAP1 \t\t\tbl2pClaimed[user] = reward\n      SSTORE \t\t\tbl2pClaimed[user] = reward\n      PUSH [tag] 650\t\t\t_mint(user, reward)\n      DUP4 \t\t\tuser\n      DUP4 \t\t\treward\n      PUSH [tag] 648\t\t\t_mint\n      JUMP \t\t\t_mint(user, reward)\n    tag 650\t\t\t_mint(user, reward)\n      JUMPDEST \t\t\t_mint(user, reward)\n      DUP2 \t\t\treward\n      DUP7 \t\t\trewards\n      DUP6 \t\t\ti\n      DUP2 \t\t\trewards[i]\n      MLOAD \t\t\trewards[i]\n      DUP2 \t\t\trewards[i]\n      LT \t\t\trewards[i]\n      PUSH [tag] 652\t\t\trewards[i]\n      JUMPI \t\t\trewards[i]\n      PUSH [tag] 652\t\t\trewards[i]\n      PUSH [tag] 630\t\t\trewards[i]\n      JUMP \t\t\trewards[i]\n    tag 652\t\t\trewards[i]\n      JUMPDEST \t\t\trewards[i]\n      PUSH 20\t\t\trewards[i]\n      MUL \t\t\trewards[i]\n      PUSH 20\t\t\trewards[i]\n      ADD \t\t\trewards[i]\n      ADD \t\t\trewards[i]\n      DUP2 \t\t\trewards[i] = reward\n      DUP2 \t\t\trewards[i] = reward\n      MSTORE \t\t\trewards[i] = reward\n      POP \t\t\trewards[i] = reward\n      POP \t\t\trewards[i] = reward\n      POP \t\t\t{\\n                uint256 rew...\n      POP \t\t\t{\\n                uint256 rew...\n    tag 634\t\t\tif (bl2pClaimed[user] == 0 && ...\n      JUMPDEST \t\t\tif (bl2pClaimed[user] == 0 && ...\n      POP \t\t\t{\\n            address user = ...\n    tag 627\t\t\tfor (uint256 i = 0; i < len; +...\n      JUMPDEST \t\t\tfor (uint256 i = 0; i < len; +...\n      PUSH [tag] 653\t\t\t++i\n      DUP2 \t\t\t++i\n      PUSH [tag] 642\t\t\t++i\n      JUMP \t\t\t++i\n    tag 653\t\t\t++i\n      JUMPDEST \t\t\t++i\n      SWAP1 \t\t\t++i\n      POP \t\t\t++i\n      PUSH [tag] 625\t\t\tfor (uint256 i = 0; i < len; +...\n      JUMP \t\t\tfor (uint256 i = 0; i < len; +...\n    tag 626\t\t\tfor (uint256 i = 0; i < len; +...\n      JUMPDEST \t\t\tfor (uint256 i = 0; i < len; +...\n      POP \t\t\t\n      PUSH 10\t\t\tearlyAdopterCount\n      DUP2 \t\t\tearlyAdopterCount = _earlyAdop...\n      SWAP1 \t\t\tearlyAdopterCount = _earlyAdop...\n      SSTORE \t\t\tearlyAdopterCount = _earlyAdop...\n      PUSH 40\t\t\tBatchBL2PRewardClaimed(users, ...\n      MLOAD \t\t\tBatchBL2PRewardClaimed(users, ...\n      PUSH [tag] 654\t\t\tBatchBL2PRewardClaimed(users, ...\n      SWAP1 \t\t\tBatchBL2PRewardClaimed(users, ...\n      DUP7 \t\t\tusers\n      SWAP1 \t\t\tusers\n      DUP7 \t\t\tusers\n      SWAP1 \t\t\tusers\n      PUSH [tag] 655\t\t\tBatchBL2PRewardClaimed(users, ...\n      JUMP \t\t\tBatchBL2PRewardClaimed(users, ...\n    tag 654\t\t\tBatchBL2PRewardClaimed(users, ...\n      JUMPDEST \t\t\tBatchBL2PRewardClaimed(users, ...\n      PUSH 40\t\t\tBatchBL2PRewardClaimed(users, ...\n      MLOAD \t\t\tBatchBL2PRewardClaimed(users, ...\n      DUP1 \t\t\tBatchBL2PRewardClaimed(users, ...\n      SWAP2 \t\t\tBatchBL2PRewardClaimed(users, ...\n      SUB \t\t\tBatchBL2PRewardClaimed(users, ...\n      SWAP1 \t\t\tBatchBL2PRewardClaimed(users, ...\n      KECCAK256 \t\t\tBatchBL2PRewardClaimed(users, ...\n      PUSH 6D0C10E0399EF884A3729FE88266E321A043AE7F4D6D12AFB75539720CFAB71B\t\t\tBatchBL2PRewardClaimed(users, ...\n      DUP4 \t\t\trewards\n      PUSH 40\t\t\tBatchBL2PRewardClaimed(users, ...\n      MLOAD \t\t\tBatchBL2PRewardClaimed(users, ...\n      PUSH [tag] 656\t\t\tBatchBL2PRewardClaimed(users, ...\n      SWAP2 \t\t\tBatchBL2PRewardClaimed(users, ...\n      SWAP1 \t\t\tBatchBL2PRewardClaimed(users, ...\n      PUSH [tag] 657\t\t\tBatchBL2PRewardClaimed(users, ...\n      JUMP \t\t\tBatchBL2PRewardClaimed(users, ...\n    tag 656\t\t\tBatchBL2PRewardClaimed(users, ...\n      JUMPDEST \t\t\tBatchBL2PRewardClaimed(users, ...\n      PUSH 40\t\t\tBatchBL2PRewardClaimed(users, ...\n      MLOAD \t\t\tBatchBL2PRewardClaimed(users, ...\n      DUP1 \t\t\tBatchBL2PRewardClaimed(users, ...\n      SWAP2 \t\t\tBatchBL2PRewardClaimed(users, ...\n      SUB \t\t\tBatchBL2PRewardClaimed(users, ...\n      SWAP1 \t\t\tBatchBL2PRewardClaimed(users, ...\n      LOG2 \t\t\tBatchBL2PRewardClaimed(users, ...\n      POP \t\t\t{\\n        if (users.length > ...\n      POP \t\t\t{\\n        if (users.length > ...\n      POP \t\t\t{\\n        if (users.length > ...\n      PUSH [tag] 658\t\t\t modifier onlyGovern\n      PUSH 1\t\t\t \n      PUSH 5\t\t\t}\\n\\n    \n      SSTORE \t\t\t}\\n\\n    enum ProposalT\n      JUMP \t\t\tsg.sender != owner()) revert N...\n    tag 658\t\t\t modifier onlyGovern\n      JUMPDEST \t\t\t modifier onlyGovern\n      POP \t\t\tfunction batchClaimBL2PReward(...\n      POP \t\t\tfunction batchClaimBL2PReward(...\n      JUMP \t\t\tfunction batchClaimBL2PReward(...\n    tag 204\t\t\tfunction getRemainingBurnable(...\n      JUMPDEST \t\t\tfunction getRemainingBurnable(...\n      PUSH 9\t\t\tburnPhaseActive\n      SLOAD \t\t\tburnPhaseActive\n      PUSH 0\t\t\tuint256\n      SWAP1 \t\t\tuint256\n      PUSH FF\t\t\tburnPhaseActive\n      AND \t\t\tburnPhaseActive\n      ISZERO \t\t\t!burnPhaseActive\n      DUP1 \t\t\t!burnPhaseActive\n      PUSH [tag] 661\t\t\t!burnPhaseActive || totalBurne...\n      JUMPI \t\t\t!burnPhaseActive || totalBurne...\n      POP \t\t\t!burnPhaseActive || totalBurne...\n      PUSHIMMUTABLE 1813\t\t\tBURN_TARGET\n      PUSH B\t\t\ttotalBurned\n      SLOAD \t\t\ttotalBurned\n      LT \t\t\ttotalBurned >= BURN_TARGET\n      ISZERO \t\t\ttotalBurned >= BURN_TARGET\n    tag 661\t\t\t!burnPhaseActive || totalBurne...\n      JUMPDEST \t\t\t!burnPhaseActive || totalBurne...\n      ISZERO \t\t\tif (!burnPhaseActive || totalB...\n      PUSH [tag] 662\t\t\tif (!burnPhaseActive || totalB...\n      JUMPI \t\t\tif (!burnPhaseActive || totalB...\n      POP \t\t\t\n      PUSH 0\t\t\t0\n      SWAP1 \t\t\t0\n      JUMP \t\t\tfunction getRemainingBurnable(...\n    tag 662\t\t\tif (!burnPhaseActive || totalB...\n      JUMPDEST \t\t\tif (!burnPhaseActive || totalB...\n      PUSH 0\t\t\tuint256 cycleTarget\n      PUSHIMMUTABLE 1813\t\t\tBURN_TARGET\n      PUSH F\t\t\tANNUAL_BURN_AMOUNT\n      SLOAD \t\t\tANNUAL_BURN_AMOUNT\n      PUSH B\t\t\ttotalBurned\n      SLOAD \t\t\ttotalBurned\n      PUSH [tag] 663\t\t\ttotalBurned + ANNUAL_BURN_AMOU...\n      SWAP2 \t\t\ttotalBurned + ANNUAL_BURN_AMOU...\n      SWAP1 \t\t\ttotalBurned + ANNUAL_BURN_AMOU...\n      PUSH [tag] 452\t\t\ttotalBurned + ANNUAL_BURN_AMOU...\n      JUMP \t\t\ttotalBurned + ANNUAL_BURN_AMOU...\n    tag 663\t\t\ttotalBurned + ANNUAL_BURN_AMOU...\n      JUMPDEST \t\t\ttotalBurned + ANNUAL_BURN_AMOU...\n      GT \t\t\ttotalBurned + ANNUAL_BURN_AMOU...\n      PUSH [tag] 664\t\t\ttotalBurned + ANNUAL_BURN_AMOU...\n      JUMPI \t\t\ttotalBurned + ANNUAL_BURN_AMOU...\n      PUSH F\t\t\tANNUAL_BURN_AMOUNT\n      SLOAD \t\t\tANNUAL_BURN_AMOUNT\n      PUSH [tag] 666\t\t\ttotalBurned + ANNUAL_BURN_AMOU...\n      JUMP \t\t\ttotalBurned + ANNUAL_BURN_AMOU...\n    tag 664\t\t\ttotalBurned + ANNUAL_BURN_AMOU...\n      JUMPDEST \t\t\ttotalBurned + ANNUAL_BURN_AMOU...\n      PUSH B\t\t\ttotalBurned\n      SLOAD \t\t\ttotalBurned\n      PUSH [tag] 666\t\t\tBURN_TARGET - totalBurned\n      SWAP1 \t\t\tBURN_TARGET - totalBurned\n      PUSHIMMUTABLE 1813\t\t\tBURN_TARGET\n      PUSH [tag] 477\t\t\tBURN_TARGET - totalBurned\n      JUMP \t\t\tBURN_TARGET - totalBurned\n    tag 666\t\t\tBURN_TARGET - totalBurned\n      JUMPDEST \t\t\tBURN_TARGET - totalBurned\n      PUSH D\t\t\tcurrentBurnCycle\n      SLOAD \t\t\tcurrentBurnCycle\n      PUSH 0\t\t\tuint256 cycleBurned\n      SWAP1 \t\t\tcycleBurnedTotal[currentBurnCy...\n      DUP2 \t\t\tcycleBurnedTotal[currentBurnCy...\n      MSTORE \t\t\tcycleBurnedTotal[currentBurnCy...\n      PUSH 1F\t\t\tcycleBurnedTotal\n      PUSH 20\t\t\tcycleBurnedTotal[currentBurnCy...\n      MSTORE \t\t\tcycleBurnedTotal[currentBurnCy...\n      PUSH 40\t\t\tcycleBurnedTotal[currentBurnCy...\n      SWAP1 \t\t\tcycleBurnedTotal[currentBurnCy...\n      KECCAK256 \t\t\tcycleBurnedTotal[currentBurnCy...\n      SLOAD \t\t\tcycleBurnedTotal[currentBurnCy...\n      SWAP1 \t\t\tuint256 cycleTarget = totalBur...\n      SWAP2 \t\t\tuint256 cycleTarget = totalBur...\n      POP \t\t\t\n      DUP2 \t\t\tcycleBurned >= cycleTarget\n      DUP2 \t\t\tcycleBurned >= cycleTarget\n      LT \t\t\tcycleBurned >= cycleTarget\n      ISZERO \t\t\tcycleBurned >= cycleTarget\n      PUSH [tag] 667\t\t\tcycleBurned >= cycleTarget ? 0...\n      JUMPI \t\t\tcycleBurned >= cycleTarget ? 0...\n      PUSH [tag] 668\t\t\tcycleTarget - cycleBurned\n      DUP2 \t\t\tcycleBurned\n      DUP4 \t\t\tcycleTarget\n      PUSH [tag] 477\t\t\tcycleTarget - cycleBurned\n      JUMP \t\t\tcycleTarget - cycleBurned\n    tag 668\t\t\tcycleTarget - cycleBurned\n      JUMPDEST \t\t\tcycleTarget - cycleBurned\n      PUSH [tag] 669\t\t\tcycleBurned >= cycleTarget ? 0...\n      JUMP \t\t\tcycleBurned >= cycleTarget ? 0...\n    tag 667\t\t\tcycleBurned >= cycleTarget ? 0...\n      JUMPDEST \t\t\tcycleBurned >= cycleTarget ? 0...\n      PUSH 0\t\t\t0\n    tag 669\t\t\tcycleBurned >= cycleTarget ? 0...\n      JUMPDEST \t\t\tcycleBurned >= cycleTarget ? 0...\n      SWAP3 \t\t\treturn cycleBurned >= cycleTar...\n      POP \t\t\treturn cycleBurned >= cycleTar...\n      POP \t\t\treturn cycleBurned >= cycleTar...\n      POP \t\t\treturn cycleBurned >= cycleTar...\n      SWAP1 \t\t\tfunction getRemainingBurnable(...\n      JUMP \t\t\tfunction getRemainingBurnable(...\n    tag 227\t\t\tfunction checkActivation() pub...\n      JUMPDEST \t\t\tfunction checkActivation() pub...\n      PUSH 9\t\t\temergencyPaused\n      SLOAD \t\t\temergencyPaused\n      PUSH 10000\t\t\temergencyPaused\n      SWAP1 \t\t\temergencyPaused\n      DIV \t\t\temergencyPaused\n      PUSH FF\t\t\temergencyPaused\n      AND \t\t\temergencyPaused\n      ISZERO \t\t\tif (emergencyPaused) revert Co...\n      PUSH [tag] 672\t\t\tif (emergencyPaused) revert Co...\n      JUMPI \t\t\tif (emergencyPaused) revert Co...\n      PUSH 40\t\t\tContractPaused()\n      MLOAD \t\t\tContractPaused()\n      PUSH AB35696F\t\t\t\n      PUSH E0\t\t\t\n      SHL \t\t\t\n      DUP2 \t\t\tContractPaused()\n      MSTORE \t\t\tContractPaused()\n      PUSH 4\t\t\tContractPaused()\n      ADD \t\t\tContractPaused()\n      PUSH 40\t\t\tContractPaused()\n      MLOAD \t\t\tContractPaused()\n      DUP1 \t\t\tContractPaused()\n      SWAP2 \t\t\tContractPaused()\n      SUB \t\t\tContractPaused()\n      SWAP1 \t\t\tContractPaused()\n      REVERT \t\t\tContractPaused()\n    tag 672\t\t\tif (emergencyPaused) revert Co...\n      JUMPDEST \t\t\tif (emergencyPaused) revert Co...\n      PUSH 9\t\t\tburnPhaseActive\n      SLOAD \t\t\tburnPhaseActive\n      PUSH FF\t\t\tburnPhaseActive\n      AND \t\t\tburnPhaseActive\n      PUSH [tag] 536\t\t\treturn;\n      JUMPI \t\t\tif (burnPhaseActive) return;\n      PUSH A\t\t\tlockedReserveBalance\n      SLOAD \t\t\tlockedReserveBalance\n      PUSH 0\t\t\tuint256 circulating\n      DUP1 \t\t\tact) revert NotAut\n      DUP1 \t\t\tact) revert NotAut\n      MSTORE \t\t\tact) revert NotAut\n      PUSH 20\t\t\tact) revert NotAut\n      DUP2 \t\t\tact) revert NotAut\n      SWAP1 \t\t\tact) revert NotAut\n      MSTORE \t\t\tact) revert NotAut\n      PUSH AD3228B676F7D3CD4284A5443F17F1962B36E491B30A40B2405849E597BA5FB5\t\t\tact) revert NotAut\n      SLOAD \t\t\tact) revert NotAut\n      SWAP1 \t\t\tuint256 circulating\n      SWAP2 \t\t\tuint256 circulating\n      SWAP1 \t\t\tlockedReserveBalance\n      PUSH 2\t\t\tct && msg.se\n      SLOAD \t\t\tct && msg.se\n      PUSH [tag] 677\t\t\ttotalSupply() - balanceOf(addr...\n      SWAP2 \t\t\ttotalSupply() - balanceOf(addr...\n      SWAP1 \t\t\ttotalSupply() - balanceOf(addr...\n      PUSH [tag] 477\t\t\ttotalSupply() - balanceOf(addr...\n      JUMP \t\t\ttotalSupply() - balanceOf(addr...\n    tag 677\t\t\ttotalSupply() - balanceOf(addr...\n      JUMPDEST \t\t\ttotalSupply() - balanceOf(addr...\n      PUSH [tag] 678\t\t\ttotalSupply() - balanceOf(addr...\n      SWAP2 \t\t\ttotalSupply() - balanceOf(addr...\n      SWAP1 \t\t\ttotalSupply() - balanceOf(addr...\n      PUSH [tag] 477\t\t\ttotalSupply() - balanceOf(addr...\n      JUMP \t\t\ttotalSupply() - balanceOf(addr...\n    tag 678\t\t\ttotalSupply() - balanceOf(addr...\n      JUMPDEST \t\t\ttotalSupply() - balanceOf(addr...\n      SWAP1 \t\t\tuint256 circulating = totalSup...\n      POP \t\t\tuint256 circulating = totalSup...\n      PUSHIMMUTABLE 1808\t\t\tACTIVATION_THRESHOLD\n      DUP2 \t\t\tcirculating\n      LT \t\t\tcirculating >= ACTIVATION_THRE...\n      PUSH [tag] 511\t\t\tif (circulating >= ACTIVATION_...\n      JUMPI \t\t\tif (circulating >= ACTIVATION_...\n      PUSH 9\t\t\tburnPhaseActive\n      DUP1 \t\t\tburnPhaseActive = true\n      SLOAD \t\t\tburnPhaseActive = true\n      PUSH FF\t\t\t\n      NOT \t\t\t\n      AND \t\t\tburnPhaseActive = true\n      PUSH 1\t\t\ttrue\n      OR \t\t\tburnPhaseActive = true\n      SWAP1 \t\t\tburnPhaseActive = true\n      SSTORE \t\t\tburnPhaseActive = true\n      PUSH 40\t\t\tBurnPhaseActivated(block.times...\n      MLOAD \t\t\tBurnPhaseActivated(block.times...\n      TIMESTAMP \t\t\tblock.timestamp\n      SWAP1 \t\t\tblock.timestamp\n      PUSH 60DC7136AE550F48CFEB4A0C4E69DE31959531F869BD784A65DBC2C175F0B4A6\t\t\tBurnPhaseActivated(block.times...\n      SWAP1 \t\t\tBurnPhaseActivated(block.times...\n      PUSH 0\t\t\tburnPhaseActive\n      SWAP1 \t\t\tburnPhaseActive\n      LOG2 \t\t\tBurnPhaseActivated(block.times...\n      POP \t\t\t{\\n        if (burnPhaseActive...\n      JUMP \t\t\tfunction checkActivation() pub...\n    tag 245\t\t\tfunction renounceOwnership() p...\n      JUMPDEST \t\t\tfunction renounceOwnership() p...\n      PUSH [tag] 682\t\t\tror BL2PNotEx\n      PUSH [tag] 683\t\t\tror BL2PNot\n      JUMP \t\t\tror BL2PNotEx\n    tag 682\t\t\tror BL2PNotEx\n      JUMPDEST \t\t\tror BL2PNotEx\n      ADDRESS \t\t\tthis\n      PUSH 0\t\t\t.sender\n      SWAP1 \t\t\tact) revert NotAut\n      DUP2 \t\t\tact) revert NotAut\n      MSTORE \t\t\tact) revert NotAut\n      PUSH 20\t\t\tact) revert NotAut\n      DUP2 \t\t\tact) revert NotAut\n      SWAP1 \t\t\tact) revert NotAut\n      MSTORE \t\t\tact) revert NotAut\n      PUSH 40\t\t\tact) revert NotAut\n      SWAP1 \t\t\tact) revert NotAut\n      KECCAK256 \t\t\tact) revert NotAut\n      SLOAD \t\t\tact) revert NotAut\n      PUSH 33B2E3C9FD0803CE8000000\t\t\t1_000_000_000 * 1e18\n      GT \t\t\t\n      ISZERO \t\t\tif (balanceOf(address(this)) <...\n      PUSH [tag] 686\t\t\tif (balanceOf(address(this)) <...\n      JUMPI \t\t\tif (balanceOf(address(this)) <...\n      PUSH 40\t\t\tInsufficientContractBalance()\n      MLOAD \t\t\tInsufficientContractBalance()\n      PUSH 786E0A99\t\t\t\n      PUSH E0\t\t\t\n      SHL \t\t\t\n      DUP2 \t\t\tInsufficientContractBalance()\n      MSTORE \t\t\tInsufficientContractBalance()\n      PUSH 4\t\t\tInsufficientContractBalance()\n      ADD \t\t\tInsufficientContractBalance()\n      PUSH 40\t\t\tInsufficientContractBalance()\n      MLOAD \t\t\tInsufficientContractBalance()\n      DUP1 \t\t\tInsufficientContractBalance()\n      SWAP2 \t\t\tInsufficientContractBalance()\n      SUB \t\t\tInsufficientContractBalance()\n      SWAP1 \t\t\tInsufficientContractBalance()\n      REVERT \t\t\tInsufficientContractBalance()\n    tag 686\t\t\tif (balanceOf(address(this)) <...\n      JUMPDEST \t\t\tif (balanceOf(address(this)) <...\n      PUSH 1D\t\t\tgovernanceContract\n      SLOAD \t\t\tgovernanceContract\n      PUSH 1\t\t\t\n      PUSH 1\t\t\t\n      PUSH A0\t\t\t\n      SHL \t\t\t\n      SUB \t\t\t\n      AND \t\t\tgovernanceContract\n      PUSH [tag] 687\t\t\tif (governanceContract == addr...\n      JUMPI \t\t\tif (governanceContract == addr...\n      PUSH 40\t\t\tGovernanceNotSet()\n      MLOAD \t\t\tGovernanceNotSet()\n      PUSH 51AB8379\t\t\t\n      PUSH E0\t\t\t\n      SHL \t\t\t\n      DUP2 \t\t\tGovernanceNotSet()\n      MSTORE \t\t\tGovernanceNotSet()\n      PUSH 4\t\t\tGovernanceNotSet()\n      ADD \t\t\tGovernanceNotSet()\n      PUSH 40\t\t\tGovernanceNotSet()\n      MLOAD \t\t\tGovernanceNotSet()\n      DUP1 \t\t\tGovernanceNotSet()\n      SWAP2 \t\t\tGovernanceNotSet()\n      SUB \t\t\tGovernanceNotSet()\n      SWAP1 \t\t\tGovernanceNotSet()\n      REVERT \t\t\tGovernanceNotSet()\n    tag 687\t\t\tif (governanceContract == addr...\n      JUMPDEST \t\t\tif (governanceContract == addr...\n      PUSH 7\t\t\ttrustedRecipient\n      SLOAD \t\t\ttrustedRecipient\n      PUSH [tag] 688\t\t\tIERC20(address(this)).safeTran...\n      SWAP1 \t\t\tIERC20(address(this)).safeTran...\n      ADDRESS \t\t\tthis\n      SWAP1 \t\t\tthis\n      PUSH 1\t\t\t\n      PUSH 1\t\t\t\n      PUSH A0\t\t\t\n      SHL \t\t\t\n      SUB \t\t\t\n      AND \t\t\ttrustedRecipient\n      PUSH 33B2E3C9FD0803CE8000000\t\t\t1_000_000_000 * 1e18\n      PUSH [tag] 475\t\t\tIERC20(address(this)).safeTran...\n      JUMP \t\t\tIERC20(address(this)).safeTran...\n    tag 688\t\t\tIERC20(address(this)).safeTran...\n      JUMPDEST \t\t\tIERC20(address(this)).safeTran...\n      PUSH 33B2E3C9FD0803CE8000000\t\t\t1_000_000_000 * 1e18\n      PUSH A\t\t\tlockedReserveBalance\n      PUSH 0\t\t\tlockedReserveBalance\n      DUP3 \t\t\tlockedReserveBalance -= 1_000_...\n      DUP3 \t\t\tlockedReserveBalance -= 1_000_...\n      SLOAD \t\t\tlockedReserveBalance -= 1_000_...\n      PUSH [tag] 689\t\t\tlockedReserveBalance -= 1_000_...\n      SWAP2 \t\t\tlockedReserveBalance -= 1_000_...\n      SWAP1 \t\t\tlockedReserveBalance -= 1_000_...\n      PUSH [tag] 477\t\t\tlockedReserveBalance -= 1_000_...\n      JUMP \t\t\tlockedReserveBalance -= 1_000_...\n    tag 689\t\t\tlockedReserveBalance -= 1_000_...\n      JUMPDEST \t\t\tlockedReserveBalance -= 1_000_...\n      SWAP1 \t\t\tlockedReserveBalance -= 1_000_...\n      SWAP2 \t\t\tlockedReserveBalance -= 1_000_...\n      SSTORE \t\t\tlockedReserveBalance -= 1_000_...\n      POP \t\t\t\n      PUSH [tag] 690\t\t\t_transferOwnership(address(0))\n      SWAP1 \t\t\t_transferOwnership(address(0))\n      POP \t\t\t\n      PUSH 0\t\t\t0\n      PUSH [tag] 691\t\t\t_transferOwnership\n      JUMP \t\t\t_transferOwnership(address(0))\n    tag 690\t\t\t_transferOwnership(address(0))\n      JUMPDEST \t\t\t_transferOwnership(address(0))\n      ADDRESS \t\t\tthis\n      PUSH 0\t\t\t.sender\n      SWAP1 \t\t\tact) revert NotAut\n      DUP2 \t\t\tact) revert NotAut\n      MSTORE \t\t\tact) revert NotAut\n      PUSH 20\t\t\tact) revert NotAut\n      DUP2 \t\t\tact) revert NotAut\n      DUP2 \t\t\tact) revert NotAut\n      MSTORE \t\t\tact) revert NotAut\n      PUSH 40\t\t\tact) revert NotAut\n      SWAP2 \t\t\tact) revert NotAut\n      DUP3 \t\t\tact) revert NotAut\n      SWAP1 \t\t\tact) revert NotAut\n      KECCAK256 \t\t\tact) revert NotAut\n      SLOAD \t\t\tact) revert NotAut\n      DUP3 \t\t\tReserveUnlocked(1_000_000_000 ...\n      MLOAD \t\t\tReserveUnlocked(1_000_000_000 ...\n      PUSH 33B2E3C9FD0803CE8000000\t\t\t1_000_000_000 * 1e18\n      DUP2 \t\t\t1_000_000_000 * 1e18) rev\n      MSTORE \t\t\t1_000_000_000 * 1e18) rev\n      SWAP2 \t\t\tContractBalance();\n      DUP3 \t\t\tContractBalance();\n      ADD \t\t\tContractBalance();\n      MSTORE \t\t\tficientContractBalance();\\n   ...\n      DUP2 \t\t\tReserveUnlocked(1_000_000_000 ...\n      MLOAD \t\t\tReserveUnlocked(1_000_000_000 ...\n      PUSH E49DB96A72E85D04778BB78627173221C08F5ACAA50EAEF5B0D94C0A8C1589B1\t\t\tReserveUnlocked(1_000_000_000 ...\n      SWAP3 \t\t\tReserveUnlocked(1_000_000_000 ...\n      SWAP2 \t\t\tReserveUnlocked(1_000_000_000 ...\n      DUP2 \t\t\tReserveUnlocked(1_000_000_000 ...\n      SWAP1 \t\t\tReserveUnlocked(1_000_000_000 ...\n      SUB \t\t\tReserveUnlocked(1_000_000_000 ...\n      SWAP1 \t\t\tReserveUnlocked(1_000_000_000 ...\n      SWAP2 \t\t\tReserveUnlocked(1_000_000_000 ...\n      ADD \t\t\tReserveUnlocked(1_000_000_000 ...\n      SWAP1 \t\t\tReserveUnlocked(1_000_000_000 ...\n      LOG1 \t\t\tReserveUnlocked(1_000_000_000 ...\n      JUMP \t\t\tfunction renounceOwnership() p...\n    tag 261\t\t\taddress[] public topDelegates\n      JUMPDEST \t\t\taddress[] public topDelegates\n      PUSH 2E\t\t\taddress[] public topDelegates\n      DUP2 \t\t\taddress[] public topDelegates\n      DUP2 \t\t\taddress[] public topDelegates\n      SLOAD \t\t\taddress[] public topDelegates\n      DUP2 \t\t\taddress[] public topDelegates\n      LT \t\t\taddress[] public topDelegates\n      PUSH [tag] 695\t\t\taddress[] public topDelegates\n      JUMPI \t\t\taddress[] public topDelegates\n      PUSH 0\t\t\taddress[] public topDelegates\n      DUP1 \t\t\taddress[] public topDelegates\n      REVERT \t\t\taddress[] public topDelegates\n    tag 695\t\t\taddress[] public topDelegates\n      JUMPDEST \t\t\taddress[] public topDelegates\n      PUSH 0\t\t\taddress[] public topDelegates\n      SWAP2 \t\t\taddress[] public topDelegates\n      DUP3 \t\t\taddress[] public topDelegates\n      MSTORE \t\t\taddress[] public topDelegates\n      PUSH 20\t\t\taddress[] public topDelegates\n      SWAP1 \t\t\taddress[] public topDelegates\n      SWAP2 \t\t\taddress[] public topDelegates\n      KECCAK256 \t\t\taddress[] public topDelegates\n      ADD \t\t\taddress[] public topDelegates\n      SLOAD \t\t\taddress[] public topDelegates\n      PUSH 1\t\t\t\n      PUSH 1\t\t\t\n      PUSH A0\t\t\t\n      SHL \t\t\t\n      SUB \t\t\t\n      AND \t\t\taddress[] public topDelegates\n      SWAP1 \t\t\taddress[] public topDelegates\n      POP \t\t\t\n      DUP2 \t\t\taddress[] public topDelegates\n      JUMP \t\t\taddress[] public topDelegates\n    tag 266\t\t\taddress[] public ignitionParti...\n      JUMPDEST \t\t\taddress[] public ignitionParti...\n      PUSH 2D\t\t\taddress[] public ignitionParti...\n      DUP2 \t\t\taddress[] public ignitionParti...\n      DUP2 \t\t\taddress[] public ignitionParti...\n      SLOAD \t\t\taddress[] public ignitionParti...\n      DUP2 \t\t\taddress[] public ignitionParti...\n      LT \t\t\taddress[] public ignitionParti...\n      PUSH [tag] 695\t\t\taddress[] public ignitionParti...\n      JUMPI \t\t\taddress[] public ignitionParti...\n      PUSH 0\t\t\taddress[] public ignitionParti...\n      DUP1 \t\t\taddress[] public ignitionParti...\n      REVERT \t\t\taddress[] public ignitionParti...\n    tag 270\t\t\tfunction participateInBurn(uin...\n      JUMPDEST \t\t\tfunction participateInBurn(uin...\n      PUSH [tag] 700\t\t\ttracts not allowed\");\n      PUSH [tag] 444\t\t\ttracts not allowed\"\n      JUMP \t\t\ttracts not allowed\");\n    tag 700\t\t\ttracts not allowed\");\n      JUMPDEST \t\t\ttracts not allowed\");\n      PUSH 9\t\t\temergencyPaused\n      SLOAD \t\t\temergencyPaused\n      PUSH 10000\t\t\temergencyPaused\n      SWAP1 \t\t\temergencyPaused\n      DIV \t\t\temergencyPaused\n      PUSH FF\t\t\temergencyPaused\n      AND \t\t\temergencyPaused\n      ISZERO \t\t\tif (emergencyPaused) revert Co...\n      PUSH [tag] 702\t\t\tif (emergencyPaused) revert Co...\n      JUMPI \t\t\tif (emergencyPaused) revert Co...\n      PUSH 40\t\t\tContractPaused()\n      MLOAD \t\t\tContractPaused()\n      PUSH AB35696F\t\t\t\n      PUSH E0\t\t\t\n      SHL \t\t\t\n      DUP2 \t\t\tContractPaused()\n      MSTORE \t\t\tContractPaused()\n      PUSH 4\t\t\tContractPaused()\n      ADD \t\t\tContractPaused()\n      PUSH 40\t\t\tContractPaused()\n      MLOAD \t\t\tContractPaused()\n      DUP1 \t\t\tContractPaused()\n      SWAP2 \t\t\tContractPaused()\n      SUB \t\t\tContractPaused()\n      SWAP1 \t\t\tContractPaused()\n      REVERT \t\t\tContractPaused()\n    tag 702\t\t\tif (emergencyPaused) revert Co...\n      JUMPDEST \t\t\tif (emergencyPaused) revert Co...\n      CALLER \t\t\tmsg.sender\n      ORIGIN \t\t\ttx.origin\n      EQ \t\t\tmsg.sender == tx.origin\n      PUSH [tag] 704\t\t\trequire(msg.sender == tx.origi...\n      JUMPI \t\t\trequire(msg.sender == tx.origi...\n      PUSH 40\t\t\trequire(msg.sender == tx.origi...\n      MLOAD \t\t\trequire(msg.sender == tx.origi...\n      PUSH 461BCD\t\t\t\n      PUSH E5\t\t\t\n      SHL \t\t\t\n      DUP2 \t\t\trequire(msg.sender == tx.origi...\n      MSTORE \t\t\trequire(msg.sender == tx.origi...\n      PUSH 4\t\t\trequire(msg.sender == tx.origi...\n      ADD \t\t\trequire(msg.sender == tx.origi...\n      PUSH [tag] 527\t\t\trequire(msg.sender == tx.origi...\n      SWAP1 \t\t\trequire(msg.sender == tx.origi...\n      PUSH [tag] 528\t\t\trequire(msg.sender == tx.origi...\n      JUMP \t\t\trequire(msg.sender == tx.origi...\n    tag 704\t\t\trequire(msg.sender == tx.origi...\n      JUMPDEST \t\t\trequire(msg.sender == tx.origi...\n      PUSH 9\t\t\tburnPhaseActive\n      SLOAD \t\t\tburnPhaseActive\n      PUSH FF\t\t\tburnPhaseActive\n      AND \t\t\tburnPhaseActive\n      PUSH [tag] 707\t\t\tif (!burnPhaseActive) revert B...\n      JUMPI \t\t\tif (!burnPhaseActive) revert B...\n      PUSH 40\t\t\tBurnPhaseNotActive()\n      MLOAD \t\t\tBurnPhaseNotActive()\n      PUSH 45232915\t\t\t\n      PUSH E0\t\t\t\n      SHL \t\t\t\n      DUP2 \t\t\tBurnPhaseNotActive()\n      MSTORE \t\t\tBurnPhaseNotActive()\n      PUSH 4\t\t\tBurnPhaseNotActive()\n      ADD \t\t\tBurnPhaseNotActive()\n      PUSH 40\t\t\tBurnPhaseNotActive()\n      MLOAD \t\t\tBurnPhaseNotActive()\n      DUP1 \t\t\tBurnPhaseNotActive()\n      SWAP2 \t\t\tBurnPhaseNotActive()\n      SUB \t\t\tBurnPhaseNotActive()\n      SWAP1 \t\t\tBurnPhaseNotActive()\n      REVERT \t\t\tBurnPhaseNotActive()\n    tag 707\t\t\tif (!burnPhaseActive) revert B...\n      JUMPDEST \t\t\tif (!burnPhaseActive) revert B...\n      DUP1 \t\t\tamount\n      PUSH 0\t\t\t0\n      SUB \t\t\tamount == 0\n      PUSH [tag] 708\t\t\tif (amount == 0) revert Amount...\n      JUMPI \t\t\tif (amount == 0) revert Amount...\n      PUSH 40\t\t\tAmountZero()\n      MLOAD \t\t\tAmountZero()\n      PUSH 65E52D51\t\t\t\n      PUSH E1\t\t\t\n      SHL \t\t\t\n      DUP2 \t\t\tAmountZero()\n      MSTORE \t\t\tAmountZero()\n      PUSH 4\t\t\tAmountZero()\n      ADD \t\t\tAmountZero()\n      PUSH 40\t\t\tAmountZero()\n      MLOAD \t\t\tAmountZero()\n      DUP1 \t\t\tAmountZero()\n      SWAP2 \t\t\tAmountZero()\n      SUB \t\t\tAmountZero()\n      SWAP1 \t\t\tAmountZero()\n      REVERT \t\t\tAmountZero()\n    tag 708\t\t\tif (amount == 0) revert Amount...\n      JUMPDEST \t\t\tif (amount == 0) revert Amount...\n      CALLER \t\t\tmsg.sender\n      PUSH 0\t\t\t.sender\n      SWAP1 \t\t\tact) revert NotAut\n      DUP2 \t\t\tact) revert NotAut\n      MSTORE \t\t\tact) revert NotAut\n      PUSH 20\t\t\tact) revert NotAut\n      DUP2 \t\t\tact) revert NotAut\n      SWAP1 \t\t\tact) revert NotAut\n      MSTORE \t\t\tact) revert NotAut\n      PUSH 40\t\t\tact) revert NotAut\n      SWAP1 \t\t\tact) revert NotAut\n      KECCAK256 \t\t\tact) revert NotAut\n      SLOAD \t\t\tact) revert NotAut\n      DUP2 \t\t\tamount\n      GT \t\t\t\n      ISZERO \t\t\tif (balanceOf(msg.sender) < am...\n      PUSH [tag] 710\t\t\tif (balanceOf(msg.sender) < am...\n      JUMPI \t\t\tif (balanceOf(msg.sender) < am...\n      PUSH 40\t\t\tInsufficientBalance()\n      MLOAD \t\t\tInsufficientBalance()\n      PUSH 1E9ACF17\t\t\t\n      PUSH E3\t\t\t\n      SHL \t\t\t\n      DUP2 \t\t\tInsufficientBalance()\n      MSTORE \t\t\tInsufficientBalance()\n      PUSH 4\t\t\tInsufficientBalance()\n      ADD \t\t\tInsufficientBalance()\n      PUSH 40\t\t\tInsufficientBalance()\n      MLOAD \t\t\tInsufficientBalance()\n      DUP1 \t\t\tInsufficientBalance()\n      SWAP2 \t\t\tInsufficientBalance()\n      SUB \t\t\tInsufficientBalance()\n      SWAP1 \t\t\tInsufficientBalance()\n      REVERT \t\t\tInsufficientBalance()\n    tag 710\t\t\tif (balanceOf(msg.sender) < am...\n      JUMPDEST \t\t\tif (balanceOf(msg.sender) < am...\n      PUSH C\t\t\tburnDeadlineTimestamp\n      SLOAD \t\t\tburnDeadlineTimestamp\n      TIMESTAMP \t\t\tblock.timestamp\n      GT \t\t\tblock.timestamp > burnDeadline...\n      DUP1 \t\t\tblock.timestamp > burnDeadline...\n      ISZERO \t\t\tblock.timestamp > burnDeadline...\n      PUSH [tag] 711\t\t\tblock.timestamp > burnDeadline...\n      JUMPI \t\t\tblock.timestamp > burnDeadline...\n      POP \t\t\tblock.timestamp > burnDeadline...\n      PUSHIMMUTABLE 1813\t\t\tBURN_TARGET\n      PUSH B\t\t\ttotalBurned\n      SLOAD \t\t\ttotalBurned\n      LT \t\t\ttotalBurned < BURN_TARGET\n    tag 711\t\t\tblock.timestamp > burnDeadline...\n      JUMPDEST \t\t\tblock.timestamp > burnDeadline...\n      ISZERO \t\t\tif (block.timestamp > burnDead...\n      PUSH [tag] 712\t\t\tif (block.timestamp > burnDead...\n      JUMPI \t\t\tif (block.timestamp > burnDead...\n      PUSH D\t\t\tcurrentBurnCycle\n      PUSH 0\t\t\tcurrentBurnCycle\n      DUP2 \t\t\t++currentBurnCycle\n      SLOAD \t\t\t++currentBurnCycle\n      PUSH [tag] 713\t\t\t++currentBurnCycle\n      SWAP1 \t\t\t++currentBurnCycle\n      PUSH [tag] 642\t\t\t++currentBurnCycle\n      JUMP \t\t\t++currentBurnCycle\n    tag 713\t\t\t++currentBurnCycle\n      JUMPDEST \t\t\t++currentBurnCycle\n      SWAP1 \t\t\t++currentBurnCycle\n      SWAP2 \t\t\t++currentBurnCycle\n      SSTORE \t\t\t++currentBurnCycle\n      POP \t\t\t\n      TIMESTAMP \t\t\tblock.timestamp\n      PUSH E\t\t\tlastBurnCycleStartTimestamp\n      DUP2 \t\t\tlastBurnCycleStartTimestamp = ...\n      SWAP1 \t\t\tlastBurnCycleStartTimestamp = ...\n      SSTORE \t\t\tlastBurnCycleStartTimestamp = ...\n      PUSH [tag] 714\t\t\tblock.timestamp + BURN_CYCLE_D...\n      SWAP1 \t\t\tblock.timestamp + BURN_CYCLE_D...\n      PUSH 1E13380\t\t\t365 days\n      SWAP1 \t\t\t365 days\n      PUSH [tag] 452\t\t\tblock.timestamp + BURN_CYCLE_D...\n      JUMP \t\t\tblock.timestamp + BURN_CYCLE_D...\n    tag 714\t\t\tblock.timestamp + BURN_CYCLE_D...\n      JUMPDEST \t\t\tblock.timestamp + BURN_CYCLE_D...\n      PUSH C\t\t\tburnDeadlineTimestamp\n      SSTORE \t\t\tburnDeadlineTimestamp = block....\n    tag 712\t\t\tif (block.timestamp > burnDead...\n      JUMPDEST \t\t\tif (block.timestamp > burnDead...\n      PUSH C\t\t\tburnDeadlineTimestamp\n      SLOAD \t\t\tburnDeadlineTimestamp\n      TIMESTAMP \t\t\tblock.timestamp\n      GT \t\t\tblock.timestamp > burnDeadline...\n      ISZERO \t\t\tif (block.timestamp > burnDead...\n      PUSH [tag] 715\t\t\tif (block.timestamp > burnDead...\n      JUMPI \t\t\tif (block.timestamp > burnDead...\n      PUSH 40\t\t\tBurnCycleEnded()\n      MLOAD \t\t\tBurnCycleEnded()\n      PUSH E04B2001\t\t\t\n      PUSH E0\t\t\t\n      SHL \t\t\t\n      DUP2 \t\t\tBurnCycleEnded()\n      MSTORE \t\t\tBurnCycleEnded()\n      PUSH 4\t\t\tBurnCycleEnded()\n      ADD \t\t\tBurnCycleEnded()\n      PUSH 40\t\t\tBurnCycleEnded()\n      MLOAD \t\t\tBurnCycleEnded()\n      DUP1 \t\t\tBurnCycleEnded()\n      SWAP2 \t\t\tBurnCycleEnded()\n      SUB \t\t\tBurnCycleEnded()\n      SWAP1 \t\t\tBurnCycleEnded()\n      REVERT \t\t\tBurnCycleEnded()\n    tag 715\t\t\tif (block.timestamp > burnDead...\n      JUMPDEST \t\t\tif (block.timestamp > burnDead...\n      PUSH 0\t\t\tuint256 cycleTarget\n      PUSHIMMUTABLE 1813\t\t\tBURN_TARGET\n      PUSH F\t\t\tANNUAL_BURN_AMOUNT\n      SLOAD \t\t\tANNUAL_BURN_AMOUNT\n      PUSH B\t\t\ttotalBurned\n      SLOAD \t\t\ttotalBurned\n      PUSH [tag] 716\t\t\ttotalBurned + ANNUAL_BURN_AMOU...\n      SWAP2 \t\t\ttotalBurned + ANNUAL_BURN_AMOU...\n      SWAP1 \t\t\ttotalBurned + ANNUAL_BURN_AMOU...\n      PUSH [tag] 452\t\t\ttotalBurned + ANNUAL_BURN_AMOU...\n      JUMP \t\t\ttotalBurned + ANNUAL_BURN_AMOU...\n    tag 716\t\t\ttotalBurned + ANNUAL_BURN_AMOU...\n      JUMPDEST \t\t\ttotalBurned + ANNUAL_BURN_AMOU...\n      GT \t\t\ttotalBurned + ANNUAL_BURN_AMOU...\n      PUSH [tag] 717\t\t\ttotalBurned + ANNUAL_BURN_AMOU...\n      JUMPI \t\t\ttotalBurned + ANNUAL_BURN_AMOU...\n      PUSH F\t\t\tANNUAL_BURN_AMOUNT\n      SLOAD \t\t\tANNUAL_BURN_AMOUNT\n      PUSH [tag] 719\t\t\ttotalBurned + ANNUAL_BURN_AMOU...\n      JUMP \t\t\ttotalBurned + ANNUAL_BURN_AMOU...\n    tag 717\t\t\ttotalBurned + ANNUAL_BURN_AMOU...\n      JUMPDEST \t\t\ttotalBurned + ANNUAL_BURN_AMOU...\n      PUSH B\t\t\ttotalBurned\n      SLOAD \t\t\ttotalBurned\n      PUSH [tag] 719\t\t\tBURN_TARGET - totalBurned\n      SWAP1 \t\t\tBURN_TARGET - totalBurned\n      PUSHIMMUTABLE 1813\t\t\tBURN_TARGET\n      PUSH [tag] 477\t\t\tBURN_TARGET - totalBurned\n      JUMP \t\t\tBURN_TARGET - totalBurned\n    tag 719\t\t\tBURN_TARGET - totalBurned\n      JUMPDEST \t\t\tBURN_TARGET - totalBurned\n      SWAP1 \t\t\tuint256 cycleTarget = totalBur...\n      POP \t\t\tuint256 cycleTarget = totalBur...\n      PUSHIMMUTABLE 1813\t\t\tBURN_TARGET\n      DUP3 \t\t\tamount\n      PUSH B\t\t\ttotalBurned\n      SLOAD \t\t\ttotalBurned\n      PUSH [tag] 720\t\t\ttotalBurned + amount\n      SWAP2 \t\t\ttotalBurned + amount\n      SWAP1 \t\t\ttotalBurned + amount\n      PUSH [tag] 452\t\t\ttotalBurned + amount\n      JUMP \t\t\ttotalBurned + amount\n    tag 720\t\t\ttotalBurned + amount\n      JUMPDEST \t\t\ttotalBurned + amount\n      GT \t\t\ttotalBurned + amount > BURN_TA...\n      DUP1 \t\t\ttotalBurned + amount > BURN_TA...\n      PUSH [tag] 721\t\t\ttotalBurned + amount > BURN_TA...\n      JUMPI \t\t\ttotalBurned + amount > BURN_TA...\n      POP \t\t\t\n      PUSH D\t\t\tcurrentBurnCycle\n      SLOAD \t\t\tcurrentBurnCycle\n      PUSH 0\t\t\tcycleBurnedTotal[currentBurnCy...\n      SWAP1 \t\t\tcycleBurnedTotal[currentBurnCy...\n      DUP2 \t\t\tcycleBurnedTotal[currentBurnCy...\n      MSTORE \t\t\tcycleBurnedTotal[currentBurnCy...\n      PUSH 1F\t\t\tcycleBurnedTotal\n      PUSH 20\t\t\tcycleBurnedTotal[currentBurnCy...\n      MSTORE \t\t\tcycleBurnedTotal[currentBurnCy...\n      PUSH 40\t\t\tcycleBurnedTotal[currentBurnCy...\n      SWAP1 \t\t\tcycleBurnedTotal[currentBurnCy...\n      KECCAK256 \t\t\tcycleBurnedTotal[currentBurnCy...\n      SLOAD \t\t\tcycleBurnedTotal[currentBurnCy...\n      DUP2 \t\t\tcycleTarget\n      SWAP1 \t\t\tcycleTarget\n      PUSH [tag] 722\t\t\tcycleBurnedTotal[currentBurnCy...\n      SWAP1 \t\t\tcycleBurnedTotal[currentBurnCy...\n      DUP5 \t\t\tamount\n      SWAP1 \t\t\tamount\n      PUSH [tag] 452\t\t\tcycleBurnedTotal[currentBurnCy...\n      JUMP \t\t\tcycleBurnedTotal[currentBurnCy...\n    tag 722\t\t\tcycleBurnedTotal[currentBurnCy...\n      JUMPDEST \t\t\tcycleBurnedTotal[currentBurnCy...\n      GT \t\t\tcycleBurnedTotal[currentBurnCy...\n    tag 721\t\t\ttotalBurned + amount > BURN_TA...\n      JUMPDEST \t\t\ttotalBurned + amount > BURN_TA...\n      ISZERO \t\t\tif (totalBurned + amount > BUR...\n      PUSH [tag] 723\t\t\tif (totalBurned + amount > BUR...\n      JUMPI \t\t\tif (totalBurned + amount > BUR...\n      PUSH 40\t\t\tExceedsBurnTarget()\n      MLOAD \t\t\tExceedsBurnTarget()\n      PUSH 87D5B4FB\t\t\t\n      PUSH E0\t\t\t\n      SHL \t\t\t\n      DUP2 \t\t\tExceedsBurnTarget()\n      MSTORE \t\t\tExceedsBurnTarget()\n      PUSH 4\t\t\tExceedsBurnTarget()\n      ADD \t\t\tExceedsBurnTarget()\n      PUSH 40\t\t\tExceedsBurnTarget()\n      MLOAD \t\t\tExceedsBurnTarget()\n      DUP1 \t\t\tExceedsBurnTarget()\n      SWAP2 \t\t\tExceedsBurnTarget()\n      SUB \t\t\tExceedsBurnTarget()\n      SWAP1 \t\t\tExceedsBurnTarget()\n      REVERT \t\t\tExceedsBurnTarget()\n    tag 723\t\t\tif (totalBurned + amount > BUR...\n      JUMPDEST \t\t\tif (totalBurned + amount > BUR...\n      PUSH 0\t\t\tuint256 bl2pBonus\n      PUSH [tag] 724\t\t\tgetRemainingValidBL2P(msg.send...\n      CALLER \t\t\tmsg.sender\n      PUSH [tag] 356\t\t\tgetRemainingValidBL2P\n      JUMP \t\t\tgetRemainingValidBL2P(msg.send...\n    tag 724\t\t\tgetRemainingValidBL2P(msg.send...\n      JUMPDEST \t\t\tgetRemainingValidBL2P(msg.send...\n      PUSH 0\t\t\t0\n      SUB \t\t\tgetRemainingValidBL2P(msg.send...\n      PUSH [tag] 725\t\t\tgetRemainingValidBL2P(msg.send...\n      JUMPI \t\t\tgetRemainingValidBL2P(msg.send...\n      PUSH 0\t\t\t0\n      PUSH [tag] 728\t\t\tgetRemainingValidBL2P(msg.send...\n      JUMP \t\t\tgetRemainingValidBL2P(msg.send...\n    tag 725\t\t\tgetRemainingValidBL2P(msg.send...\n      JUMPDEST \t\t\tgetRemainingValidBL2P(msg.send...\n      PUSH 64\t\t\t100\n      PUSH [tag] 727\t\t\tamount * 5\n      DUP5 \t\t\tamount\n      PUSH 5\t\t\t5\n      PUSH [tag] 458\t\t\tamount * 5\n      JUMP \t\t\tamount * 5\n    tag 727\t\t\tamount * 5\n      JUMPDEST \t\t\tamount * 5\n      PUSH [tag] 728\t\t\t(amount * 5) / 100\n      SWAP2 \t\t\t(amount * 5) / 100\n      SWAP1 \t\t\t(amount * 5) / 100\n      PUSH [tag] 460\t\t\t(amount * 5) / 100\n      JUMP \t\t\t(amount * 5) / 100\n    tag 728\t\t\t(amount * 5) / 100\n      JUMPDEST \t\t\t(amount * 5) / 100\n      SWAP1 \t\t\tuint256 bl2pBonus = getRemaini...\n      POP \t\t\tuint256 bl2pBonus = getRemaini...\n      PUSH [tag] 729\t\t\t_burn(msg.sender, amount)\n      CALLER \t\t\tmsg.sender\n      DUP5 \t\t\tamount\n      PUSH [tag] 552\t\t\t_burn\n      JUMP \t\t\t_burn(msg.sender, amount)\n    tag 729\t\t\t_burn(msg.sender, amount)\n      JUMPDEST \t\t\t_burn(msg.sender, amount)\n      DUP3 \t\t\tamount\n      PUSH B\t\t\ttotalBurned\n      PUSH 0\t\t\ttotalBurned\n      DUP3 \t\t\ttotalBurned += amount\n      DUP3 \t\t\ttotalBurned += amount\n      SLOAD \t\t\ttotalBurned += amount\n      PUSH [tag] 730\t\t\ttotalBurned += amount\n      SWAP2 \t\t\ttotalBurned += amount\n      SWAP1 \t\t\ttotalBurned += amount\n      PUSH [tag] 452\t\t\ttotalBurned += amount\n      JUMP \t\t\ttotalBurned += amount\n    tag 730\t\t\ttotalBurned += amount\n      JUMPDEST \t\t\ttotalBurned += amount\n      SWAP1 \t\t\ttotalBurned += amount\n      SWAP2 \t\t\ttotalBurned += amount\n      SSTORE \t\t\ttotalBurned += amount\n      POP \t\t\t\n      POP \t\t\t\n      PUSH D\t\t\tcurrentBurnCycle\n      SLOAD \t\t\tcurrentBurnCycle\n      PUSH 0\t\t\tcycleBurnedTotal[currentBurnCy...\n      SWAP1 \t\t\tcycleBurnedTotal[currentBurnCy...\n      DUP2 \t\t\tcycleBurnedTotal[currentBurnCy...\n      MSTORE \t\t\tcycleBurnedTotal[currentBurnCy...\n      PUSH 1F\t\t\tcycleBurnedTotal\n      PUSH 20\t\t\tcycleBurnedTotal[currentBurnCy...\n      MSTORE \t\t\tcycleBurnedTotal[currentBurnCy...\n      PUSH 40\t\t\tcycleBurnedTotal[currentBurnCy...\n      DUP2 \t\t\tcycleBurnedTotal[currentBurnCy...\n      KECCAK256 \t\t\tcycleBurnedTotal[currentBurnCy...\n      DUP1 \t\t\tcycleBurnedTotal[currentBurnCy...\n      SLOAD \t\t\tcycleBurnedTotal[currentBurnCy...\n      DUP6 \t\t\tamount\n      SWAP3 \t\t\tamount\n      SWAP1 \t\t\tcycleBurnedTotal[currentBurnCy...\n      PUSH [tag] 731\t\t\tcycleBurnedTotal[currentBurnCy...\n      SWAP1 \t\t\tcycleBurnedTotal[currentBurnCy...\n      DUP5 \t\t\tamount\n      SWAP1 \t\t\tamount\n      PUSH [tag] 452\t\t\tcycleBurnedTotal[currentBurnCy...\n      JUMP \t\t\tcycleBurnedTotal[currentBurnCy...\n    tag 731\t\t\tcycleBurnedTotal[currentBurnCy...\n      JUMPDEST \t\t\tcycleBurnedTotal[currentBurnCy...\n      SWAP1 \t\t\tcycleBurnedTotal[currentBurnCy...\n      SWAP2 \t\t\tcycleBurnedTotal[currentBurnCy...\n      SSTORE \t\t\tcycleBurnedTotal[currentBurnCy...\n      POP \t\t\t\n      POP \t\t\t\n      PUSH D\t\t\tcurrentBurnCycle\n      SLOAD \t\t\tcurrentBurnCycle\n      PUSH 0\t\t\tburnContributions[currentBurnC...\n      SWAP1 \t\t\tburnContributions[currentBurnC...\n      DUP2 \t\t\tburnContributions[currentBurnC...\n      MSTORE \t\t\tburnContributions[currentBurnC...\n      PUSH 1E\t\t\tburnContributions\n      PUSH 20\t\t\tburnContributions[currentBurnC...\n      SWAP1 \t\t\tburnContributions[currentBurnC...\n      DUP2 \t\t\tburnContributions[currentBurnC...\n      MSTORE \t\t\tburnContributions[currentBurnC...\n      PUSH 40\t\t\tburnContributions[currentBurnC...\n      DUP1 \t\t\tburnContributions[currentBurnC...\n      DUP4 \t\t\tburnContributions[currentBurnC...\n      KECCAK256 \t\t\tburnContributions[currentBurnC...\n      CALLER \t\t\tmsg.sender\n      DUP5 \t\t\tburnContributions[currentBurnC...\n      MSTORE \t\t\tburnContributions[currentBurnC...\n      SWAP1 \t\t\tburnContributions[currentBurnC...\n      SWAP2 \t\t\tburnContributions[currentBurnC...\n      MSTORE \t\t\tburnContributions[currentBurnC...\n      DUP2 \t\t\tburnContributions[currentBurnC...\n      KECCAK256 \t\t\tburnContributions[currentBurnC...\n      DUP1 \t\t\tburnContributions[currentBurnC...\n      SLOAD \t\t\tburnContributions[currentBurnC...\n      DUP6 \t\t\tamount\n      SWAP3 \t\t\tamount\n      SWAP1 \t\t\tburnContributions[currentBurnC...\n      PUSH [tag] 732\t\t\tburnContributions[currentBurnC...\n      SWAP1 \t\t\tburnContributions[currentBurnC...\n      DUP5 \t\t\tamount\n      SWAP1 \t\t\tamount\n      PUSH [tag] 452\t\t\tburnContributions[currentBurnC...\n      JUMP \t\t\tburnContributions[currentBurnC...\n    tag 732\t\t\tburnContributions[currentBurnC...\n      JUMPDEST \t\t\tburnContributions[currentBurnC...\n      SWAP1 \t\t\tburnContributions[currentBurnC...\n      SWAP2 \t\t\tburnContributions[currentBurnC...\n      SSTORE \t\t\tburnContributions[currentBurnC...\n      POP \t\t\t\n      POP \t\t\t\n      CALLER \t\t\tmsg.sender\n      PUSH 0\t\t\ttotalContributions[msg.sender]\n      SWAP1 \t\t\ttotalContributions[msg.sender]\n      DUP2 \t\t\ttotalContributions[msg.sender]\n      MSTORE \t\t\ttotalContributions[msg.sender]\n      PUSH 21\t\t\ttotalContributions\n      PUSH 20\t\t\ttotalContributions[msg.sender]\n      MSTORE \t\t\ttotalContributions[msg.sender]\n      PUSH 40\t\t\ttotalContributions[msg.sender]\n      DUP2 \t\t\ttotalContributions[msg.sender]\n      KECCAK256 \t\t\ttotalContributions[msg.sender]\n      DUP1 \t\t\ttotalContributions[msg.sender]...\n      SLOAD \t\t\ttotalContributions[msg.sender]...\n      DUP6 \t\t\tamount\n      SWAP3 \t\t\tamount\n      SWAP1 \t\t\ttotalContributions[msg.sender]\n      PUSH [tag] 733\t\t\ttotalContributions[msg.sender]...\n      SWAP1 \t\t\ttotalContributions[msg.sender]...\n      DUP5 \t\t\tamount\n      SWAP1 \t\t\tamount\n      PUSH [tag] 452\t\t\ttotalContributions[msg.sender]...\n      JUMP \t\t\ttotalContributions[msg.sender]...\n    tag 733\t\t\ttotalContributions[msg.sender]...\n      JUMPDEST \t\t\ttotalContributions[msg.sender]...\n      SWAP1 \t\t\ttotalContributions[msg.sender]...\n      SWAP2 \t\t\ttotalContributions[msg.sender]...\n      SSTORE \t\t\ttotalContributions[msg.sender]...\n      POP \t\t\t\n      POP \t\t\t\n      DUP1 \t\t\tbl2pBonus != 0\n      ISZERO \t\t\tbl2pBonus != 0\n      PUSH [tag] 734\t\t\tif (bl2pBonus != 0) {\\n       ...\n      JUMPI \t\t\tif (bl2pBonus != 0) {\\n       ...\n      DUP1 \t\t\tbl2pBonus\n      PUSH B\t\t\ttotalBurned\n      PUSH 0\t\t\ttotalBurned\n      DUP3 \t\t\ttotalBurned += bl2pBonus\n      DUP3 \t\t\ttotalBurned += bl2pBonus\n      SLOAD \t\t\ttotalBurned += bl2pBonus\n      PUSH [tag] 735\t\t\ttotalBurned += bl2pBonus\n      SWAP2 \t\t\ttotalBurned += bl2pBonus\n      SWAP1 \t\t\ttotalBurned += bl2pBonus\n      PUSH [tag] 452\t\t\ttotalBurned += bl2pBonus\n      JUMP \t\t\ttotalBurned += bl2pBonus\n    tag 735\t\t\ttotalBurned += bl2pBonus\n      JUMPDEST \t\t\ttotalBurned += bl2pBonus\n      SWAP1 \t\t\ttotalBurned += bl2pBonus\n      SWAP2 \t\t\ttotalBurned += bl2pBonus\n      SSTORE \t\t\ttotalBurned += bl2pBonus\n      POP \t\t\t\n      POP \t\t\t\n      PUSH D\t\t\tcurrentBurnCycle\n      SLOAD \t\t\tcurrentBurnCycle\n      PUSH 0\t\t\tcycleBurnedTotal[currentBurnCy...\n      SWAP1 \t\t\tcycleBurnedTotal[currentBurnCy...\n      DUP2 \t\t\tcycleBurnedTotal[currentBurnCy...\n      MSTORE \t\t\tcycleBurnedTotal[currentBurnCy...\n      PUSH 1F\t\t\tcycleBurnedTotal\n      PUSH 20\t\t\tcycleBurnedTotal[currentBurnCy...\n      MSTORE \t\t\tcycleBurnedTotal[currentBurnCy...\n      PUSH 40\t\t\tcycleBurnedTotal[currentBurnCy...\n      DUP2 \t\t\tcycleBurnedTotal[currentBurnCy...\n      KECCAK256 \t\t\tcycleBurnedTotal[currentBurnCy...\n      DUP1 \t\t\tcycleBurnedTotal[currentBurnCy...\n      SLOAD \t\t\tcycleBurnedTotal[currentBurnCy...\n      DUP4 \t\t\tbl2pBonus\n      SWAP3 \t\t\tbl2pBonus\n      SWAP1 \t\t\tcycleBurnedTotal[currentBurnCy...\n      PUSH [tag] 736\t\t\tcycleBurnedTotal[currentBurnCy...\n      SWAP1 \t\t\tcycleBurnedTotal[currentBurnCy...\n      DUP5 \t\t\tbl2pBonus\n      SWAP1 \t\t\tbl2pBonus\n      PUSH [tag] 452\t\t\tcycleBurnedTotal[currentBurnCy...\n      JUMP \t\t\tcycleBurnedTotal[currentBurnCy...\n    tag 736\t\t\tcycleBurnedTotal[currentBurnCy...\n      JUMPDEST \t\t\tcycleBurnedTotal[currentBurnCy...\n      SWAP1 \t\t\tcycleBurnedTotal[currentBurnCy...\n      SWAP2 \t\t\tcycleBurnedTotal[currentBurnCy...\n      SSTORE \t\t\tcycleBurnedTotal[currentBurnCy...\n      POP \t\t\t\n      POP \t\t\t\n      CALLER \t\t\tmsg.sender\n      PUSH 0\t\t\ttotalContributions[msg.sender]\n      SWAP1 \t\t\ttotalContributions[msg.sender]\n      DUP2 \t\t\ttotalContributions[msg.sender]\n      MSTORE \t\t\ttotalContributions[msg.sender]\n      PUSH 21\t\t\ttotalContributions\n      PUSH 20\t\t\ttotalContributions[msg.sender]\n      MSTORE \t\t\ttotalContributions[msg.sender]\n      PUSH 40\t\t\ttotalContributions[msg.sender]\n      DUP2 \t\t\ttotalContributions[msg.sender]\n      KECCAK256 \t\t\ttotalContributions[msg.sender]\n      DUP1 \t\t\ttotalContributions[msg.sender]...\n      SLOAD \t\t\ttotalContributions[msg.sender]...\n      DUP4 \t\t\tbl2pBonus\n      SWAP3 \t\t\tbl2pBonus\n      SWAP1 \t\t\ttotalContributions[msg.sender]\n      PUSH [tag] 737\t\t\ttotalContributions[msg.sender]...\n      SWAP1 \t\t\ttotalContributions[msg.sender]...\n      DUP5 \t\t\tbl2pBonus\n      SWAP1 \t\t\tbl2pBonus\n      PUSH [tag] 452\t\t\ttotalContributions[msg.sender]...\n      JUMP \t\t\ttotalContributions[msg.sender]...\n    tag 737\t\t\ttotalContributions[msg.sender]...\n      JUMPDEST \t\t\ttotalContributions[msg.sender]...\n      SWAP1 \t\t\ttotalContributions[msg.sender]...\n      SWAP2 \t\t\ttotalContributions[msg.sender]...\n      SSTORE \t\t\ttotalContributions[msg.sender]...\n      POP \t\t\t\n      POP \t\t\t\n      PUSH D\t\t\tcurrentBurnCycle\n      SLOAD \t\t\tcurrentBurnCycle\n      PUSH 40\t\t\tBL2PBonusBurned(msg.sender, bl...\n      MLOAD \t\t\tBL2PBonusBurned(msg.sender, bl...\n      CALLER \t\t\tmsg.sender\n      SWAP2 \t\t\tmsg.sender\n      PUSH 4C97AE41D96B9D1B707EB19904C08873168D11C83D16D121546EF8213F3C4078\t\t\tBL2PBonusBurned(msg.sender, bl...\n      SWAP2 \t\t\tBL2PBonusBurned(msg.sender, bl...\n      PUSH [tag] 738\t\t\tBL2PBonusBurned(msg.sender, bl...\n      SWAP2 \t\t\tBL2PBonusBurned(msg.sender, bl...\n      DUP6 \t\t\tbl2pBonus\n      DUP3 \t\t\t1_000_000_000 * 1e18) rev\n      MSTORE \t\t\t1_000_000_000 * 1e18) rev\n      PUSH 20\t\t\t()\n      DUP3 \t\t\tContractBalance();\n      ADD \t\t\tContractBalance();\n      MSTORE \t\t\tficientContractBalance();\\n   ...\n      PUSH 40\t\t\tss\n      ADD \t\t\tbalanceOf(address(\n      SWAP1 \t\t\tbalanceOf(address(\n      JUMP \t\t\tlRecipient;\\n        lockedRes...\n    tag 738\t\t\tBL2PBonusBurned(msg.sender, bl...\n      JUMPDEST \t\t\tBL2PBonusBurned(msg.sender, bl...\n      PUSH 40\t\t\tBL2PBonusBurned(msg.sender, bl...\n      MLOAD \t\t\tBL2PBonusBurned(msg.sender, bl...\n      DUP1 \t\t\tBL2PBonusBurned(msg.sender, bl...\n      SWAP2 \t\t\tBL2PBonusBurned(msg.sender, bl...\n      SUB \t\t\tBL2PBonusBurned(msg.sender, bl...\n      SWAP1 \t\t\tBL2PBonusBurned(msg.sender, bl...\n      LOG2 \t\t\tBL2PBonusBurned(msg.sender, bl...\n    tag 734\t\t\tif (bl2pBonus != 0) {\\n       ...\n      JUMPDEST \t\t\tif (bl2pBonus != 0) {\\n       ...\n      CALLER \t\t\tmsg.sender\n      PUSH 19783B34589160C168487DC7F9C51AE0BCEFE67A47D6708FBA90F6CE0366D3D1\t\t\tTokensBurned(msg.sender, amoun...\n      PUSH [tag] 739\t\t\tamount + bl2pBonus\n      DUP4 \t\t\tbl2pBonus\n      DUP7 \t\t\tamount\n      PUSH [tag] 452\t\t\tamount + bl2pBonus\n      JUMP \t\t\tamount + bl2pBonus\n    tag 739\t\t\tamount + bl2pBonus\n      JUMPDEST \t\t\tamount + bl2pBonus\n      PUSH B\t\t\ttotalBurned\n      SLOAD \t\t\ttotalBurned\n      PUSH D\t\t\tcurrentBurnCycle\n      SLOAD \t\t\tcurrentBurnCycle\n      PUSH 40\t\t\tTokensBurned(msg.sender, amoun...\n      DUP1 \t\t\tTokensBurned(msg.sender, amoun...\n      MLOAD \t\t\tTokensBurned(msg.sender, amoun...\n      SWAP4 \t\t\t                bl2pClaim\n      DUP5 \t\t\t                bl2pClaim\n      MSTORE \t\t\t                bl2pClaim\n      PUSH 20\t\t\t  \n      DUP5 \t\t\td;\\n               \n      ADD \t\t\td;\\n               \n      SWAP3 \t\t\t= reward;\\n                _mi...\n      SWAP1 \t\t\t= reward;\\n                _mi...\n      SWAP3 \t\t\t= reward;\\n                _mi...\n      MSTORE \t\t\t= reward;\\n                _mi...\n      SWAP1 \t\t\t             rewar\n      DUP3 \t\t\t             rewar\n      ADD \t\t\t             rewar\n      MSTORE \t\t\td);\\n                rewards[i...\n      PUSH 60\t\t\t  \n      ADD \t\t\tlBonus);\\n         \n      PUSH 40\t\t\tTokensBurned(msg.sender, amoun...\n      MLOAD \t\t\tTokensBurned(msg.sender, amoun...\n      DUP1 \t\t\tTokensBurned(msg.sender, amoun...\n      SWAP2 \t\t\tTokensBurned(msg.sender, amoun...\n      SUB \t\t\tTokensBurned(msg.sender, amoun...\n      SWAP1 \t\t\tTokensBurned(msg.sender, amoun...\n      LOG2 \t\t\tTokensBurned(msg.sender, amoun...\n      PUSHIMMUTABLE 1813\t\t\tBURN_TARGET\n      PUSH B\t\t\ttotalBurned\n      SLOAD \t\t\ttotalBurned\n      LT \t\t\ttotalBurned >= BURN_TARGET\n      ISZERO \t\t\ttotalBurned >= BURN_TARGET\n      DUP1 \t\t\ttotalBurned >= BURN_TARGET && ...\n      ISZERO \t\t\ttotalBurned >= BURN_TARGET && ...\n      PUSH [tag] 742\t\t\ttotalBurned >= BURN_TARGET && ...\n      JUMPI \t\t\ttotalBurned >= BURN_TARGET && ...\n      POP \t\t\t\n      PUSH 9\t\t\tbl2pRevealed\n      SLOAD \t\t\tbl2pRevealed\n      PUSH 100\t\t\tbl2pRevealed\n      SWAP1 \t\t\tbl2pRevealed\n      DIV \t\t\tbl2pRevealed\n      PUSH FF\t\t\tbl2pRevealed\n      AND \t\t\tbl2pRevealed\n      ISZERO \t\t\t!bl2pRevealed\n    tag 742\t\t\ttotalBurned >= BURN_TARGET && ...\n      JUMPDEST \t\t\ttotalBurned >= BURN_TARGET && ...\n      ISZERO \t\t\tif (totalBurned >= BURN_TARGET...\n      PUSH [tag] 743\t\t\tif (totalBurned >= BURN_TARGET...\n      JUMPI \t\t\tif (totalBurned >= BURN_TARGET...\n      PUSH 9\t\t\tbl2pRevealed\n      DUP1 \t\t\tbl2pRevealed = true\n      SLOAD \t\t\tbl2pRevealed = true\n      PUSH FF00\t\t\t\n      NOT \t\t\t\n      AND \t\t\tbl2pRevealed = true\n      PUSH 100\t\t\tbl2pRevealed = true\n      OR \t\t\tbl2pRevealed = true\n      SWAP1 \t\t\tbl2pRevealed = true\n      SSTORE \t\t\tbl2pRevealed = true\n      PUSH 40\t\t\tBL2PRevealed(block.timestamp)\n      MLOAD \t\t\tBL2PRevealed(block.timestamp)\n      TIMESTAMP \t\t\tblock.timestamp\n      SWAP1 \t\t\tblock.timestamp\n      PUSH 487F0D08255B66D07FA5D32380F37FC9845759C2C886EDB198E5A083CC8DFB4A\t\t\tBL2PRevealed(block.timestamp)\n      SWAP1 \t\t\tBL2PRevealed(block.timestamp)\n      PUSH 0\t\t\tbl2pRevealed = true\n      SWAP1 \t\t\tbl2pRevealed = true\n      LOG2 \t\t\tBL2PRevealed(block.timestamp)\n    tag 743\t\t\tif (totalBurned >= BURN_TARGET...\n      JUMPDEST \t\t\tif (totalBurned >= BURN_TARGET...\n      POP \t\t\t{\\n        if (!burnPhaseActiv...\n      POP \t\t\t{\\n        if (!burnPhaseActiv...\n      PUSH [tag] 511\t\t\t modifier onlyGovern\n      PUSH 1\t\t\t \n      PUSH 5\t\t\t}\\n\\n    \n      SSTORE \t\t\t}\\n\\n    enum ProposalT\n      JUMP \t\t\tsg.sender != owner()) revert N...\n    tag 284\t\t\tfunction updateBL2PMaturity(ad...\n      JUMPDEST \t\t\tfunction updateBL2PMaturity(ad...\n      PUSH [tag] 747\t\t\tgetRemainingValidBL2P(user)\n      DUP2 \t\t\tuser\n      PUSH [tag] 356\t\t\tgetRemainingValidBL2P\n      JUMP \t\t\tgetRemainingValidBL2P(user)\n    tag 747\t\t\tgetRemainingValidBL2P(user)\n      JUMPDEST \t\t\tgetRemainingValidBL2P(user)\n      PUSH 0\t\t\t0\n      SUB \t\t\tgetRemainingValidBL2P(user) ==...\n      PUSH [tag] 748\t\t\tif (getRemainingValidBL2P(user...\n      JUMPI \t\t\tif (getRemainingValidBL2P(user...\n      POP \t\t\tfunction updateBL2PMaturity(ad...\n      JUMP \t\t\tfunction updateBL2PMaturity(ad...\n    tag 748\t\t\tif (getRemainingValidBL2P(user...\n      JUMPDEST \t\t\tif (getRemainingValidBL2P(user...\n      PUSH 1\t\t\t\n      PUSH 1\t\t\t\n      PUSH A0\t\t\t\n      SHL \t\t\t\n      SUB \t\t\t\n      DUP2 \t\t\tbl2pMeta[user]\n      AND \t\t\tbl2pMeta[user]\n      PUSH 0\t\t\tBL2PMetadata storage meta\n      SWAP1 \t\t\tbl2pMeta[user]\n      DUP2 \t\t\tbl2pMeta[user]\n      MSTORE \t\t\tbl2pMeta[user]\n      PUSH 25\t\t\tbl2pMeta\n      PUSH 20\t\t\tbl2pMeta[user]\n      MSTORE \t\t\tbl2pMeta[user]\n      PUSH 40\t\t\tbl2pMeta[user]\n      SWAP1 \t\t\tbl2pMeta[user]\n      KECCAK256 \t\t\tbl2pMeta[user]\n      PUSH 1\t\t\tmeta.matured\n      DUP2 \t\t\tmeta.matured\n      ADD \t\t\tmeta.matured\n      SLOAD \t\t\tmeta.matured\n      PUSH FF\t\t\tmeta.matured\n      AND \t\t\tmeta.matured\n      ISZERO \t\t\t!meta.matured\n      DUP1 \t\t\t!meta.matured && block.timesta...\n      ISZERO \t\t\t!meta.matured && block.timesta...\n      PUSH [tag] 749\t\t\t!meta.matured && block.timesta...\n      JUMPI \t\t\t!meta.matured && block.timesta...\n      POP \t\t\t\n      PUSH 19\t\t\tmaturationPeriodBlocks\n      SLOAD \t\t\tmaturationPeriodBlocks\n      DUP2 \t\t\tmeta.birthAndExpiry\n      SLOAD \t\t\tmeta.birthAndExpiry\n      PUSH [tag] 750\t\t\t(meta.birthAndExpiry >> 128) +...\n      SWAP2 \t\t\t(meta.birthAndExpiry >> 128) +...\n      SWAP1 \t\t\tmaturationPeriodBlocks\n      PUSH 80\t\t\t128\n      SHR \t\t\tmeta.birthAndExpiry >> 128\n      PUSH [tag] 452\t\t\t(meta.birthAndExpiry >> 128) +...\n      JUMP \t\t\t(meta.birthAndExpiry >> 128) +...\n    tag 750\t\t\t(meta.birthAndExpiry >> 128) +...\n      JUMPDEST \t\t\t(meta.birthAndExpiry >> 128) +...\n      TIMESTAMP \t\t\tblock.timestamp\n      LT \t\t\tblock.timestamp >= (meta.birth...\n      ISZERO \t\t\tblock.timestamp >= (meta.birth...\n    tag 749\t\t\t!meta.matured && block.timesta...\n      JUMPDEST \t\t\t!meta.matured && block.timesta...\n      ISZERO \t\t\tif (!meta.matured && block.tim...\n      PUSH [tag] 658\t\t\tif (!meta.matured && block.tim...\n      JUMPI \t\t\tif (!meta.matured && block.tim...\n      PUSH 1\t\t\ttrue\n      DUP2 \t\t\tmeta.matured\n      DUP2 \t\t\tmeta.matured\n      ADD \t\t\tmeta.matured\n      DUP1 \t\t\tmeta.matured = true\n      SLOAD \t\t\tmeta.matured = true\n      PUSH FF\t\t\t\n      NOT \t\t\t\n      AND \t\t\tmeta.matured = true\n      DUP3 \t\t\tmeta.matured = true\n      OR \t\t\tmeta.matured = true\n      SWAP1 \t\t\tmeta.matured = true\n      SSTORE \t\t\tmeta.matured = true\n      PUSH 40\t\t\tBL2PMaturityUpdated(user, true...\n      MLOAD \t\t\tBL2PMaturityUpdated(user, true...\n      SWAP1 \t\t\tiod,\\n        BL2PLifespan,\\n ...\n      DUP2 \t\t\tiod,\\n        BL2PLifespan,\\n ...\n      MSTORE \t\t\tiod,\\n        BL2PLifespan,\\n ...\n      PUSH 1\t\t\t\n      PUSH 1\t\t\t\n      PUSH A0\t\t\t\n      SHL \t\t\t\n      SUB \t\t\t\n      DUP4 \t\t\tBL2PMaturityUpdated(user, true...\n      AND \t\t\tBL2PMaturityUpdated(user, true...\n      SWAP1 \t\t\tBL2PMaturityUpdated(user, true...\n      PUSH 901C366748C1200897E79F66EDAD4E674060EBAB48CB1AFF438E4504E79ED67E\t\t\tBL2PMaturityUpdated(user, true...\n      SWAP1 \t\t\tBL2PMaturityUpdated(user, true...\n      PUSH 20\t\t\tat\n      ADD \t\t\tment,\\n        Matu\n    tag 752\t\t\tBL2PMaturityUpdated(user, true...\n      JUMPDEST \t\t\tBL2PMaturityUpdated(user, true...\n      PUSH 40\t\t\tBL2PMaturityUpdated(user, true...\n      MLOAD \t\t\tBL2PMaturityUpdated(user, true...\n      DUP1 \t\t\tBL2PMaturityUpdated(user, true...\n      SWAP2 \t\t\tBL2PMaturityUpdated(user, true...\n      SUB \t\t\tBL2PMaturityUpdated(user, true...\n      SWAP1 \t\t\tBL2PMaturityUpdated(user, true...\n      LOG2 \t\t\tBL2PMaturityUpdated(user, true...\n      POP \t\t\t{\\n        if (getRemainingVal...\n      POP \t\t\tfunction updateBL2PMaturity(ad...\n      JUMP \t\t\tfunction updateBL2PMaturity(ad...\n    tag 296\t\t\tfunction delegateVote(address ...\n      JUMPDEST \t\t\tfunction delegateVote(address ...\n      PUSH [tag] 755\t\t\ttracts not allowed\");\n      PUSH [tag] 444\t\t\ttracts not allowed\"\n      JUMP \t\t\ttracts not allowed\");\n    tag 755\t\t\ttracts not allowed\");\n      JUMPDEST \t\t\ttracts not allowed\");\n      PUSH 9\t\t\temergencyPaused\n      SLOAD \t\t\temergencyPaused\n      PUSH 10000\t\t\temergencyPaused\n      SWAP1 \t\t\temergencyPaused\n      DIV \t\t\temergencyPaused\n      PUSH FF\t\t\temergencyPaused\n      AND \t\t\temergencyPaused\n      ISZERO \t\t\tif (emergencyPaused) revert Co...\n      PUSH [tag] 757\t\t\tif (emergencyPaused) revert Co...\n      JUMPI \t\t\tif (emergencyPaused) revert Co...\n      PUSH 40\t\t\tContractPaused()\n      MLOAD \t\t\tContractPaused()\n      PUSH AB35696F\t\t\t\n      PUSH E0\t\t\t\n      SHL \t\t\t\n      DUP2 \t\t\tContractPaused()\n      MSTORE \t\t\tContractPaused()\n      PUSH 4\t\t\tContractPaused()\n      ADD \t\t\tContractPaused()\n      PUSH 40\t\t\tContractPaused()\n      MLOAD \t\t\tContractPaused()\n      DUP1 \t\t\tContractPaused()\n      SWAP2 \t\t\tContractPaused()\n      SUB \t\t\tContractPaused()\n      SWAP1 \t\t\tContractPaused()\n      REVERT \t\t\tContractPaused()\n    tag 757\t\t\tif (emergencyPaused) revert Co...\n      JUMPDEST \t\t\tif (emergencyPaused) revert Co...\n      PUSH 1\t\t\t\n      PUSH 1\t\t\t\n      PUSH A0\t\t\t\n      SHL \t\t\t\n      SUB \t\t\t\n      DUP3 \t\t\tdelegate == address(0)\n      AND \t\t\tdelegate == address(0)\n      ISZERO \t\t\tdelegate == address(0)\n      DUP1 \t\t\tdelegate == address(0)\n      PUSH [tag] 759\t\t\tdelegate == address(0) || dele...\n      JUMPI \t\t\tdelegate == address(0) || dele...\n      POP \t\t\t\n      PUSH 1\t\t\t\n      PUSH 1\t\t\t\n      PUSH A0\t\t\t\n      SHL \t\t\t\n      SUB \t\t\t\n      DUP3 \t\t\tdelegate == msg.sender\n      AND \t\t\tdelegate == msg.sender\n      CALLER \t\t\tmsg.sender\n      EQ \t\t\tdelegate == msg.sender\n    tag 759\t\t\tdelegate == address(0) || dele...\n      JUMPDEST \t\t\tdelegate == address(0) || dele...\n      ISZERO \t\t\tif (delegate == address(0) || ...\n      PUSH [tag] 760\t\t\tif (delegate == address(0) || ...\n      JUMPI \t\t\tif (delegate == address(0) || ...\n      PUSH 40\t\t\tInvalidDelegate()\n      MLOAD \t\t\tInvalidDelegate()\n      PUSH 2D618D81\t\t\t\n      PUSH E2\t\t\t\n      SHL \t\t\t\n      DUP2 \t\t\tInvalidDelegate()\n      MSTORE \t\t\tInvalidDelegate()\n      PUSH 4\t\t\tInvalidDelegate()\n      ADD \t\t\tInvalidDelegate()\n      PUSH 40\t\t\tInvalidDelegate()\n      MLOAD \t\t\tInvalidDelegate()\n      DUP1 \t\t\tInvalidDelegate()\n      SWAP2 \t\t\tInvalidDelegate()\n      SUB \t\t\tInvalidDelegate()\n      SWAP1 \t\t\tInvalidDelegate()\n      REVERT \t\t\tInvalidDelegate()\n    tag 760\t\t\tif (delegate == address(0) || ...\n      JUMPDEST \t\t\tif (delegate == address(0) || ...\n      DUP1 \t\t\tamount == 0\n      ISZERO \t\t\tamount == 0\n      DUP1 \t\t\tamount == 0\n      PUSH [tag] 761\t\t\tamount == 0 || amount > getRem...\n      JUMPI \t\t\tamount == 0 || amount > getRem...\n      POP \t\t\tamount == 0 || amount > getRem...\n      PUSH [tag] 762\t\t\tgetRemainingValidBL2P(msg.send...\n      CALLER \t\t\tmsg.sender\n      PUSH [tag] 356\t\t\tgetRemainingValidBL2P\n      JUMP \t\t\tgetRemainingValidBL2P(msg.send...\n    tag 762\t\t\tgetRemainingValidBL2P(msg.send...\n      JUMPDEST \t\t\tgetRemainingValidBL2P(msg.send...\n      DUP2 \t\t\tamount\n      GT \t\t\tamount > getRemainingValidBL2P...\n    tag 761\t\t\tamount == 0 || amount > getRem...\n      JUMPDEST \t\t\tamount == 0 || amount > getRem...\n      ISZERO \t\t\tif (amount == 0 || amount > ge...\n      PUSH [tag] 763\t\t\tif (amount == 0 || amount > ge...\n      JUMPI \t\t\tif (amount == 0 || amount > ge...\n      PUSH 40\t\t\tAmountZero()\n      MLOAD \t\t\tAmountZero()\n      PUSH 65E52D51\t\t\t\n      PUSH E1\t\t\t\n      SHL \t\t\t\n      DUP2 \t\t\tAmountZero()\n      MSTORE \t\t\tAmountZero()\n      PUSH 4\t\t\tAmountZero()\n      ADD \t\t\tAmountZero()\n      PUSH 40\t\t\tAmountZero()\n      MLOAD \t\t\tAmountZero()\n      DUP1 \t\t\tAmountZero()\n      SWAP2 \t\t\tAmountZero()\n      SUB \t\t\tAmountZero()\n      SWAP1 \t\t\tAmountZero()\n      REVERT \t\t\tAmountZero()\n    tag 763\t\t\tif (amount == 0 || amount > ge...\n      JUMPDEST \t\t\tif (amount == 0 || amount > ge...\n      CALLER \t\t\tmsg.sender\n      PUSH 0\t\t\t0\n      SWAP1 \t\t\tactiveDelegations[msg.sender]\n      DUP2 \t\t\tactiveDelegations[msg.sender]\n      MSTORE \t\t\tactiveDelegations[msg.sender]\n      PUSH 27\t\t\tactiveDelegations\n      PUSH 20\t\t\tactiveDelegations[msg.sender]\n      MSTORE \t\t\tactiveDelegations[msg.sender]\n      PUSH 40\t\t\tactiveDelegations[msg.sender]\n      SWAP1 \t\t\tactiveDelegations[msg.sender]\n      KECCAK256 \t\t\tactiveDelegations[msg.sender]\n      PUSH 1\t\t\tactiveDelegations[msg.sender]....\n      ADD \t\t\tactiveDelegations[msg.sender]....\n      SLOAD \t\t\tactiveDelegations[msg.sender]....\n      PUSH 1\t\t\t\n      PUSH 1\t\t\t\n      PUSH A0\t\t\t\n      SHL \t\t\t\n      SUB \t\t\t\n      AND \t\t\tactiveDelegations[msg.sender]....\n      ISZERO \t\t\tactiveDelegations[msg.sender]....\n      PUSH [tag] 764\t\t\tif (activeDelegations[msg.send...\n      JUMPI \t\t\tif (activeDelegations[msg.send...\n      PUSH 40\t\t\tDelegationActive()\n      MLOAD \t\t\tDelegationActive()\n      PUSH 6269CF49\t\t\t\n      PUSH E0\t\t\t\n      SHL \t\t\t\n      DUP2 \t\t\tDelegationActive()\n      MSTORE \t\t\tDelegationActive()\n      PUSH 4\t\t\tDelegationActive()\n      ADD \t\t\tDelegationActive()\n      PUSH 40\t\t\tDelegationActive()\n      MLOAD \t\t\tDelegationActive()\n      DUP1 \t\t\tDelegationActive()\n      SWAP2 \t\t\tDelegationActive()\n      SUB \t\t\tDelegationActive()\n      SWAP1 \t\t\tDelegationActive()\n      REVERT \t\t\tDelegationActive()\n    tag 764\t\t\tif (activeDelegations[msg.send...\n      JUMPDEST \t\t\tif (activeDelegations[msg.send...\n      PUSH [tag] 765\t\t\tupdateBL2PMaturity(msg.sender)\n      CALLER \t\t\tmsg.sender\n      PUSH [tag] 284\t\t\tupdateBL2PMaturity\n      JUMP \t\t\tupdateBL2PMaturity(msg.sender)\n    tag 765\t\t\tupdateBL2PMaturity(msg.sender)\n      JUMPDEST \t\t\tupdateBL2PMaturity(msg.sender)\n      CALLER \t\t\tmsg.sender\n      PUSH 0\t\t\tbl2pMeta[msg.sender]\n      SWAP1 \t\t\tbl2pMeta[msg.sender]\n      DUP2 \t\t\tbl2pMeta[msg.sender]\n      MSTORE \t\t\tbl2pMeta[msg.sender]\n      PUSH 25\t\t\tbl2pMeta\n      PUSH 20\t\t\tbl2pMeta[msg.sender]\n      MSTORE \t\t\tbl2pMeta[msg.sender]\n      PUSH 40\t\t\tbl2pMeta[msg.sender]\n      SWAP1 \t\t\tbl2pMeta[msg.sender]\n      KECCAK256 \t\t\tbl2pMeta[msg.sender]\n      PUSH 1\t\t\tbl2pMeta[msg.sender].matured\n      ADD \t\t\tbl2pMeta[msg.sender].matured\n      SLOAD \t\t\tbl2pMeta[msg.sender].matured\n      PUSH FF\t\t\tbl2pMeta[msg.sender].matured\n      AND \t\t\tbl2pMeta[msg.sender].matured\n      PUSH [tag] 766\t\t\tif (!bl2pMeta[msg.sender].matu...\n      JUMPI \t\t\tif (!bl2pMeta[msg.sender].matu...\n      PUSH 40\t\t\tBL2PNotMatured()\n      MLOAD \t\t\tBL2PNotMatured()\n      PUSH 1878F081\t\t\t\n      PUSH E0\t\t\t\n      SHL \t\t\t\n      DUP2 \t\t\tBL2PNotMatured()\n      MSTORE \t\t\tBL2PNotMatured()\n      PUSH 4\t\t\tBL2PNotMatured()\n      ADD \t\t\tBL2PNotMatured()\n      PUSH 40\t\t\tBL2PNotMatured()\n      MLOAD \t\t\tBL2PNotMatured()\n      DUP1 \t\t\tBL2PNotMatured()\n      SWAP2 \t\t\tBL2PNotMatured()\n      SUB \t\t\tBL2PNotMatured()\n      SWAP1 \t\t\tBL2PNotMatured()\n      REVERT \t\t\tBL2PNotMatured()\n    tag 766\t\t\tif (!bl2pMeta[msg.sender].matu...\n      JUMPDEST \t\t\tif (!bl2pMeta[msg.sender].matu...\n      PUSH 0\t\t\tuint256 maxAllowed\n      PUSH 64\t\t\t100\n      PUSH 1C\t\t\tmaxDelegatedBL2PPercent\n      SLOAD \t\t\tmaxDelegatedBL2PPercent\n      PUSH [tag] 767\t\t\tgetRemainingValidBL2P(delegate...\n      DUP6 \t\t\tdelegate\n      PUSH [tag] 356\t\t\tgetRemainingValidBL2P\n      JUMP \t\t\tgetRemainingValidBL2P(delegate...\n    tag 767\t\t\tgetRemainingValidBL2P(delegate...\n      JUMPDEST \t\t\tgetRemainingValidBL2P(delegate...\n      PUSH [tag] 768\t\t\tgetRemainingValidBL2P(delegate...\n      SWAP2 \t\t\tgetRemainingValidBL2P(delegate...\n      SWAP1 \t\t\tgetRemainingValidBL2P(delegate...\n      PUSH [tag] 458\t\t\tgetRemainingValidBL2P(delegate...\n      JUMP \t\t\tgetRemainingValidBL2P(delegate...\n    tag 768\t\t\tgetRemainingValidBL2P(delegate...\n      JUMPDEST \t\t\tgetRemainingValidBL2P(delegate...\n      PUSH [tag] 769\t\t\t(getRemainingValidBL2P(delegat...\n      SWAP2 \t\t\t(getRemainingValidBL2P(delegat...\n      SWAP1 \t\t\t(getRemainingValidBL2P(delegat...\n      PUSH [tag] 460\t\t\t(getRemainingValidBL2P(delegat...\n      JUMP \t\t\t(getRemainingValidBL2P(delegat...\n    tag 769\t\t\t(getRemainingValidBL2P(delegat...\n      JUMPDEST \t\t\t(getRemainingValidBL2P(delegat...\n      PUSH 1\t\t\t\n      PUSH 1\t\t\t\n      PUSH A0\t\t\t\n      SHL \t\t\t\n      SUB \t\t\t\n      DUP5 \t\t\tdelegatedBL2PReceived[delegate...\n      AND \t\t\tdelegatedBL2PReceived[delegate...\n      PUSH 0\t\t\tdelegatedBL2PReceived[delegate...\n      SWAP1 \t\t\tdelegatedBL2PReceived[delegate...\n      DUP2 \t\t\tdelegatedBL2PReceived[delegate...\n      MSTORE \t\t\tdelegatedBL2PReceived[delegate...\n      PUSH 28\t\t\tdelegatedBL2PReceived\n      PUSH 20\t\t\tdelegatedBL2PReceived[delegate...\n      MSTORE \t\t\tdelegatedBL2PReceived[delegate...\n      PUSH 40\t\t\tdelegatedBL2PReceived[delegate...\n      SWAP1 \t\t\tdelegatedBL2PReceived[delegate...\n      KECCAK256 \t\t\tdelegatedBL2PReceived[delegate...\n      SLOAD \t\t\tdelegatedBL2PReceived[delegate...\n      SWAP1 \t\t\tuint256 maxAllowed = (getRemai...\n      SWAP2 \t\t\tuint256 maxAllowed = (getRemai...\n      POP \t\t\t\n      DUP2 \t\t\tuint256 maxAllowed = (getRemai...\n      SWAP1 \t\t\tuint256 maxAllowed = (getRemai...\n      PUSH [tag] 770\t\t\tdelegatedBL2PReceived[delegate...\n      SWAP1 \t\t\tdelegatedBL2PReceived[delegate...\n      DUP5 \t\t\tamount\n      SWAP1 \t\t\tamount\n      PUSH [tag] 452\t\t\tdelegatedBL2PReceived[delegate...\n      JUMP \t\t\tdelegatedBL2PReceived[delegate...\n    tag 770\t\t\tdelegatedBL2PReceived[delegate...\n      JUMPDEST \t\t\tdelegatedBL2PReceived[delegate...\n      GT \t\t\tdelegatedBL2PReceived[delegate...\n      ISZERO \t\t\tif (delegatedBL2PReceived[dele...\n      PUSH [tag] 771\t\t\tif (delegatedBL2PReceived[dele...\n      JUMPI \t\t\tif (delegatedBL2PReceived[dele...\n      PUSH 40\t\t\tExceedsDelegateLimit()\n      MLOAD \t\t\tExceedsDelegateLimit()\n      PUSH 4BD2B19\t\t\t\n      PUSH E2\t\t\t\n      SHL \t\t\t\n      DUP2 \t\t\tExceedsDelegateLimit()\n      MSTORE \t\t\tExceedsDelegateLimit()\n      PUSH 4\t\t\tExceedsDelegateLimit()\n      ADD \t\t\tExceedsDelegateLimit()\n      PUSH 40\t\t\tExceedsDelegateLimit()\n      MLOAD \t\t\tExceedsDelegateLimit()\n      DUP1 \t\t\tExceedsDelegateLimit()\n      SWAP2 \t\t\tExceedsDelegateLimit()\n      SUB \t\t\tExceedsDelegateLimit()\n      SWAP1 \t\t\tExceedsDelegateLimit()\n      REVERT \t\t\tExceedsDelegateLimit()\n    tag 771\t\t\tif (delegatedBL2PReceived[dele...\n      JUMPDEST \t\t\tif (delegatedBL2PReceived[dele...\n      PUSH 40\t\t\tDelegationInfo(msg.sender, del...\n      DUP1 \t\t\tDelegationInfo(msg.sender, del...\n      MLOAD \t\t\tDelegationInfo(msg.sender, del...\n      PUSH 80\t\t\tDelegationInfo(msg.sender, del...\n      DUP2 \t\t\tDelegationInfo(msg.sender, del...\n      ADD \t\t\tDelegationInfo(msg.sender, del...\n      DUP3 \t\t\tDelegationInfo(msg.sender, del...\n      MSTORE \t\t\tDelegationInfo(msg.sender, del...\n      CALLER \t\t\tmsg.sender\n      DUP1 \t\t\tDelegationInfo(msg.sender, del...\n      DUP3 \t\t\tDelegationInfo(msg.sender, del...\n      MSTORE \t\t\tDelegationInfo(msg.sender, del...\n      PUSH 1\t\t\t\n      PUSH 1\t\t\t\n      PUSH A0\t\t\t\n      SHL \t\t\t\n      SUB \t\t\t\n      DUP7 \t\t\tDelegationInfo(msg.sender, del...\n      DUP2 \t\t\tDelegationInfo(msg.sender, del...\n      AND \t\t\tDelegationInfo(msg.sender, del...\n      PUSH 20\t\t\tDelegationInfo(msg.sender, del...\n      DUP1 \t\t\tDelegationInfo(msg.sender, del...\n      DUP6 \t\t\tDelegationInfo(msg.sender, del...\n      ADD \t\t\tDelegationInfo(msg.sender, del...\n      DUP3 \t\t\tDelegationInfo(msg.sender, del...\n      DUP2 \t\t\tDelegationInfo(msg.sender, del...\n      MSTORE \t\t\tDelegationInfo(msg.sender, del...\n      DUP6 \t\t\tDelegationInfo(msg.sender, del...\n      DUP8 \t\t\tDelegationInfo(msg.sender, del...\n      ADD \t\t\tDelegationInfo(msg.sender, del...\n      DUP10 \t\t\tDelegationInfo(msg.sender, del...\n      DUP2 \t\t\tDelegationInfo(msg.sender, del...\n      MSTORE \t\t\tDelegationInfo(msg.sender, del...\n      TIMESTAMP \t\t\tblock.timestamp\n      PUSH 60\t\t\tDelegationInfo(msg.sender, del...\n      DUP9 \t\t\tDelegationInfo(msg.sender, del...\n      ADD \t\t\tDelegationInfo(msg.sender, del...\n      SWAP1 \t\t\tDelegationInfo(msg.sender, del...\n      DUP2 \t\t\tDelegationInfo(msg.sender, del...\n      MSTORE \t\t\tDelegationInfo(msg.sender, del...\n      PUSH 0\t\t\t\n      SWAP7 \t\t\tactiveDelegations[msg.sender]\n      DUP8 \t\t\tactiveDelegations[msg.sender]\n      MSTORE \t\t\tactiveDelegations[msg.sender]\n      PUSH 27\t\t\tactiveDelegations\n      DUP5 \t\t\tactiveDelegations[msg.sender]\n      MSTORE \t\t\tactiveDelegations[msg.sender]\n      DUP9 \t\t\tactiveDelegations[msg.sender]\n      DUP8 \t\t\tactiveDelegations[msg.sender]\n      KECCAK256 \t\t\tactiveDelegations[msg.sender]\n      SWAP8 \t\t\tactiveDelegations[msg.sender] ...\n      MLOAD \t\t\tactiveDelegations[msg.sender] ...\n      DUP9 \t\t\tactiveDelegations[msg.sender] ...\n      SLOAD \t\t\tactiveDelegations[msg.sender] ...\n      SWAP1 \t\t\tactiveDelegations[msg.sender] ...\n      DUP8 \t\t\tactiveDelegations[msg.sender] ...\n      AND \t\t\tactiveDelegations[msg.sender] ...\n      PUSH 1\t\t\t\n      PUSH 1\t\t\t\n      PUSH A0\t\t\t\n      SHL \t\t\t\n      SUB \t\t\t\n      NOT \t\t\t\n      SWAP2 \t\t\tactiveDelegations[msg.sender] ...\n      DUP3 \t\t\tactiveDelegations[msg.sender] ...\n      AND \t\t\tactiveDelegations[msg.sender] ...\n      OR \t\t\tactiveDelegations[msg.sender] ...\n      DUP10 \t\t\tactiveDelegations[msg.sender] ...\n      SSTORE \t\t\tactiveDelegations[msg.sender] ...\n      SWAP3 \t\t\tactiveDelegations[msg.sender] ...\n      MLOAD \t\t\tactiveDelegations[msg.sender] ...\n      PUSH 1\t\t\tactiveDelegations[msg.sender] ...\n      DUP10 \t\t\tactiveDelegations[msg.sender] ...\n      ADD \t\t\tactiveDelegations[msg.sender] ...\n      DUP1 \t\t\tactiveDelegations[msg.sender] ...\n      SLOAD \t\t\tactiveDelegations[msg.sender] ...\n      SWAP2 \t\t\tactiveDelegations[msg.sender] ...\n      SWAP1 \t\t\tactiveDelegations[msg.sender] ...\n      SWAP8 \t\t\tactiveDelegations[msg.sender] ...\n      AND \t\t\tactiveDelegations[msg.sender] ...\n      SWAP4 \t\t\tactiveDelegations[msg.sender] ...\n      AND \t\t\tactiveDelegations[msg.sender] ...\n      SWAP3 \t\t\tactiveDelegations[msg.sender] ...\n      SWAP1 \t\t\tactiveDelegations[msg.sender] ...\n      SWAP3 \t\t\tactiveDelegations[msg.sender] ...\n      OR \t\t\tactiveDelegations[msg.sender] ...\n      SWAP1 \t\t\tactiveDelegations[msg.sender] ...\n      SWAP5 \t\t\tactiveDelegations[msg.sender] ...\n      SSTORE \t\t\tactiveDelegations[msg.sender] ...\n      SWAP3 \t\t\tactiveDelegations[msg.sender] ...\n      MLOAD \t\t\tactiveDelegations[msg.sender] ...\n      PUSH 2\t\t\tactiveDelegations[msg.sender] ...\n      DUP7 \t\t\tactiveDelegations[msg.sender] ...\n      ADD \t\t\tactiveDelegations[msg.sender] ...\n      SSTORE \t\t\tactiveDelegations[msg.sender] ...\n      SWAP2 \t\t\tactiveDelegations[msg.sender] ...\n      MLOAD \t\t\tactiveDelegations[msg.sender] ...\n      PUSH 3\t\t\tactiveDelegations[msg.sender] ...\n      SWAP1 \t\t\tactiveDelegations[msg.sender] ...\n      SWAP5 \t\t\tactiveDelegations[msg.sender] ...\n      ADD \t\t\tactiveDelegations[msg.sender] ...\n      SWAP4 \t\t\tactiveDelegations[msg.sender] ...\n      SWAP1 \t\t\tactiveDelegations[msg.sender] ...\n      SWAP4 \t\t\tactiveDelegations[msg.sender] ...\n      SSTORE \t\t\tactiveDelegations[msg.sender] ...\n      SWAP2 \t\t\tdelegatedBL2PReceived[delegate...\n      DUP2 \t\t\tdelegatedBL2PReceived[delegate...\n      MSTORE \t\t\tdelegatedBL2PReceived[delegate...\n      PUSH 28\t\t\tdelegatedBL2PReceived\n      SWAP1 \t\t\tdelegatedBL2PReceived[delegate...\n      SWAP2 \t\t\tdelegatedBL2PReceived[delegate...\n      MSTORE \t\t\tdelegatedBL2PReceived[delegate...\n      SWAP1 \t\t\tdelegatedBL2PReceived[delegate...\n      DUP2 \t\t\tdelegatedBL2PReceived[delegate...\n      KECCAK256 \t\t\tdelegatedBL2PReceived[delegate...\n      DUP1 \t\t\tdelegatedBL2PReceived[delegate...\n      SLOAD \t\t\tdelegatedBL2PReceived[delegate...\n      DUP5 \t\t\tamount\n      SWAP3 \t\t\tamount\n      SWAP1 \t\t\t\n      PUSH [tag] 772\t\t\tdelegatedBL2PReceived[delegate...\n      SWAP1 \t\t\tdelegatedBL2PReceived[delegate...\n      DUP5 \t\t\tamount\n      SWAP1 \t\t\tamount\n      PUSH [tag] 452\t\t\tdelegatedBL2PReceived[delegate...\n      JUMP \t\t\tdelegatedBL2PReceived[delegate...\n    tag 772\t\t\tdelegatedBL2PReceived[delegate...\n      JUMPDEST \t\t\tdelegatedBL2PReceived[delegate...\n      SWAP1 \t\t\tdelegatedBL2PReceived[delegate...\n      SWAP2 \t\t\tdelegatedBL2PReceived[delegate...\n      SSTORE \t\t\tdelegatedBL2PReceived[delegate...\n      POP \t\t\t\n      POP \t\t\t\n      PUSH 1\t\t\t\n      PUSH 1\t\t\t\n      PUSH A0\t\t\t\n      SHL \t\t\t\n      SUB \t\t\t\n      DUP4 \t\t\tdelegatedBL2PReceived[delegate...\n      AND \t\t\tdelegatedBL2PReceived[delegate...\n      PUSH 0\t\t\tdelegatedBL2PReceived[delegate...\n      SWAP1 \t\t\tdelegatedBL2PReceived[delegate...\n      DUP2 \t\t\tdelegatedBL2PReceived[delegate...\n      MSTORE \t\t\tdelegatedBL2PReceived[delegate...\n      PUSH 28\t\t\tdelegatedBL2PReceived\n      PUSH 20\t\t\tdelegatedBL2PReceived[delegate...\n      MSTORE \t\t\tdelegatedBL2PReceived[delegate...\n      PUSH 40\t\t\tdelegatedBL2PReceived[delegate...\n      SWAP1 \t\t\tdelegatedBL2PReceived[delegate...\n      KECCAK256 \t\t\tdelegatedBL2PReceived[delegate...\n      SLOAD \t\t\tdelegatedBL2PReceived[delegate...\n      PUSH [tag] 773\t\t\t_updateTopDelegates(delegate, ...\n      SWAP1 \t\t\t_updateTopDelegates(delegate, ...\n      DUP5 \t\t\tdelegate\n      SWAP1 \t\t\tdelegate\n      PUSH [tag] 557\t\t\t_updateTopDelegates\n      JUMP \t\t\t_updateTopDelegates(delegate, ...\n    tag 773\t\t\t_updateTopDelegates(delegate, ...\n      JUMPDEST \t\t\t_updateTopDelegates(delegate, ...\n      PUSH 40\t\t\tVoteDelegated(msg.sender, dele...\n      MLOAD \t\t\tVoteDelegated(msg.sender, dele...\n      DUP3 \t\t\tNotAuthorized();\\n    erro\n      DUP2 \t\t\tNotAuthorized();\\n    erro\n      MSTORE \t\t\tNotAuthorized();\\n    erro\n      PUSH 1\t\t\t\n      PUSH 1\t\t\t\n      PUSH A0\t\t\t\n      SHL \t\t\t\n      SUB \t\t\t\n      DUP5 \t\t\tVoteDelegated(msg.sender, dele...\n      AND \t\t\tVoteDelegated(msg.sender, dele...\n      SWAP1 \t\t\tVoteDelegated(msg.sender, dele...\n      CALLER \t\t\tmsg.sender\n      SWAP1 \t\t\tmsg.sender\n      PUSH F5C2B450C3B6C4C3CC8C45E612FFA5CE51CDA974E8B2ECAF58ABDA86D8965847\t\t\tVoteDelegated(msg.sender, dele...\n      SWAP1 \t\t\tVoteDelegated(msg.sender, dele...\n      PUSH 20\t\t\t;\\n\n      ADD \t\t\ternanceNotSet();\\n \n      PUSH 40\t\t\tVoteDelegated(msg.sender, dele...\n      MLOAD \t\t\tVoteDelegated(msg.sender, dele...\n      DUP1 \t\t\tVoteDelegated(msg.sender, dele...\n      SWAP2 \t\t\tVoteDelegated(msg.sender, dele...\n      SUB \t\t\tVoteDelegated(msg.sender, dele...\n      SWAP1 \t\t\tVoteDelegated(msg.sender, dele...\n      LOG3 \t\t\tVoteDelegated(msg.sender, dele...\n      POP \t\t\t{\\n        if (delegate == add...\n      PUSH [tag] 658\t\t\t modifier onlyGovern\n      PUSH 1\t\t\t \n      PUSH 5\t\t\t}\\n\\n    \n      SSTORE \t\t\t}\\n\\n    enum ProposalT\n      JUMP \t\t\tsg.sender != owner()) revert N...\n    tag 301\t\t\tr AirdropAlreadyTriggered();\\n...\n      JUMPDEST \t\t\tr AirdropAlreadyTriggered();\\n...\n      PUSH 60\t\t\tonThresholdNo\n      PUSH 4\t\t\toPartic\n      DUP1 \t\t\terror NoPartic\n      SLOAD \t\t\terror NoPartic\n      PUSH [tag] 432\t\t\terror NoPartic\n      SWAP1 \t\t\terror NoPartic\n      PUSH [tag] 426\t\t\terror NoPartic\n      JUMP \t\t\terror NoPartic\n    tag 307\t\t\tfunction getTopDelegates() ext...\n      JUMPDEST \t\t\tfunction getTopDelegates() ext...\n      PUSH 60\t\t\taddress[] memory\n      PUSH 2E\t\t\ttopDelegates\n      DUP1 \t\t\treturn topDelegates\n      SLOAD \t\t\treturn topDelegates\n      DUP1 \t\t\treturn topDelegates\n      PUSH 20\t\t\treturn topDelegates\n      MUL \t\t\treturn topDelegates\n      PUSH 20\t\t\treturn topDelegates\n      ADD \t\t\treturn topDelegates\n      PUSH 40\t\t\treturn topDelegates\n      MLOAD \t\t\treturn topDelegates\n      SWAP1 \t\t\treturn topDelegates\n      DUP2 \t\t\treturn topDelegates\n      ADD \t\t\treturn topDelegates\n      PUSH 40\t\t\treturn topDelegates\n      MSTORE \t\t\treturn topDelegates\n      DUP1 \t\t\treturn topDelegates\n      SWAP3 \t\t\treturn topDelegates\n      SWAP2 \t\t\treturn topDelegates\n      SWAP1 \t\t\treturn topDelegates\n      DUP2 \t\t\treturn topDelegates\n      DUP2 \t\t\treturn topDelegates\n      MSTORE \t\t\treturn topDelegates\n      PUSH 20\t\t\treturn topDelegates\n      ADD \t\t\treturn topDelegates\n      DUP3 \t\t\treturn topDelegates\n      DUP1 \t\t\treturn topDelegates\n      SLOAD \t\t\treturn topDelegates\n      DUP1 \t\t\treturn topDelegates\n      ISZERO \t\t\treturn topDelegates\n      PUSH [tag] 434\t\t\treturn topDelegates\n      JUMPI \t\t\treturn topDelegates\n      PUSH 20\t\t\treturn topDelegates\n      MUL \t\t\treturn topDelegates\n      DUP3 \t\t\treturn topDelegates\n      ADD \t\t\treturn topDelegates\n      SWAP2 \t\t\treturn topDelegates\n      SWAP1 \t\t\treturn topDelegates\n      PUSH 0\t\t\treturn topDelegates\n      MSTORE \t\t\treturn topDelegates\n      PUSH 20\t\t\treturn topDelegates\n      PUSH 0\t\t\treturn topDelegates\n      KECCAK256 \t\t\treturn topDelegates\n      SWAP1 \t\t\treturn topDelegates\n    tag 784\t\t\treturn topDelegates\n      JUMPDEST \t\t\treturn topDelegates\n      DUP2 \t\t\treturn topDelegates\n      SLOAD \t\t\treturn topDelegates\n      PUSH 1\t\t\t\n      PUSH 1\t\t\t\n      PUSH A0\t\t\t\n      SHL \t\t\t\n      SUB \t\t\t\n      AND \t\t\treturn topDelegates\n      DUP2 \t\t\treturn topDelegates\n      MSTORE \t\t\treturn topDelegates\n      PUSH 1\t\t\treturn topDelegates\n      SWAP1 \t\t\treturn topDelegates\n      SWAP2 \t\t\treturn topDelegates\n      ADD \t\t\treturn topDelegates\n      SWAP1 \t\t\treturn topDelegates\n      PUSH 20\t\t\treturn topDelegates\n      ADD \t\t\treturn topDelegates\n      DUP1 \t\t\treturn topDelegates\n      DUP4 \t\t\treturn topDelegates\n      GT \t\t\treturn topDelegates\n      PUSH [tag] 784\t\t\treturn topDelegates\n      JUMPI \t\t\treturn topDelegates\n      POP \t\t\treturn topDelegates\n      POP \t\t\treturn topDelegates\n      POP \t\t\treturn topDelegates\n      POP \t\t\treturn topDelegates\n      POP \t\t\treturn topDelegates\n      SWAP1 \t\t\treturn topDelegates\n      POP \t\t\treturn topDelegates\n      SWAP1 \t\t\tfunction getTopDelegates() ext...\n      JUMP \t\t\tfunction getTopDelegates() ext...\n    tag 316\t\t\tfunction triggerIgnitionAirdro...\n      JUMPDEST \t\t\tfunction triggerIgnitionAirdro...\n      PUSH 1D\t\t\tgovernanceContract\n      SLOAD \t\t\tgovernanceContract\n      PUSH 1\t\t\t\n      PUSH 1\t\t\t\n      PUSH A0\t\t\t\n      SHL \t\t\t\n      SUB \t\t\t\n      AND \t\t\tgovernanceContract\n      CALLER \t\t\tmsg.sender\n      EQ \t\t\tmsg.sender != governanceContra...\n      DUP1 \t\t\tmsg.sender != governanceContra...\n      ISZERO \t\t\tmsg.sender != governanceContra...\n      SWAP1 \t\t\tmsg.sender != governanceContra...\n      PUSH [tag] 786\t\t\tmsg.sender != governanceContra...\n      JUMPI \t\t\tmsg.sender != governanceContra...\n      POP \t\t\t\n      PUSH 6\t\t\ttyBurn\n      SLOAD \t\t\ttyBurn\n      PUSH 1\t\t\t\n      PUSH 1\t\t\t\n      PUSH A0\t\t\t\n      SHL \t\t\t\n      SUB \t\t\t\n      AND \t\t\ttyBurn\n      CALLER \t\t\tmsg.sender\n      EQ \t\t\tmsg.sender != owner()\n      ISZERO \t\t\tmsg.sender != owner()\n    tag 786\t\t\tmsg.sender != governanceContra...\n      JUMPDEST \t\t\tmsg.sender != governanceContra...\n      ISZERO \t\t\tif (msg.sender != governanceCo...\n      PUSH [tag] 788\t\t\tif (msg.sender != governanceCo...\n      JUMPI \t\t\tif (msg.sender != governanceCo...\n      PUSH 40\t\t\tNotAuthorized()\n      MLOAD \t\t\tNotAuthorized()\n      PUSH EA8E4EB5\t\t\t\n      PUSH E0\t\t\t\n      SHL \t\t\t\n      DUP2 \t\t\tNotAuthorized()\n      MSTORE \t\t\tNotAuthorized()\n      PUSH 4\t\t\tNotAuthorized()\n      ADD \t\t\tNotAuthorized()\n      PUSH 40\t\t\tNotAuthorized()\n      MLOAD \t\t\tNotAuthorized()\n      DUP1 \t\t\tNotAuthorized()\n      SWAP2 \t\t\tNotAuthorized()\n      SUB \t\t\tNotAuthorized()\n      SWAP1 \t\t\tNotAuthorized()\n      REVERT \t\t\tNotAuthorized()\n    tag 788\t\t\tif (msg.sender != governanceCo...\n      JUMPDEST \t\t\tif (msg.sender != governanceCo...\n      PUSH 1D\t\t\tignitionAirdropTriggered\n      SLOAD \t\t\tignitionAirdropTriggered\n      PUSH 1\t\t\t\n      PUSH A0\t\t\t\n      SHL \t\t\t\n      SWAP1 \t\t\tignitionAirdropTriggered\n      DIV \t\t\tignitionAirdropTriggered\n      PUSH FF\t\t\tignitionAirdropTriggered\n      AND \t\t\tignitionAirdropTriggered\n      ISZERO \t\t\tif (ignitionAirdropTriggered) ...\n      PUSH [tag] 790\t\t\tif (ignitionAirdropTriggered) ...\n      JUMPI \t\t\tif (ignitionAirdropTriggered) ...\n      PUSH 40\t\t\tAirdropAlreadyTriggered()\n      MLOAD \t\t\tAirdropAlreadyTriggered()\n      PUSH 87CEAB01\t\t\t\n      PUSH E0\t\t\t\n      SHL \t\t\t\n      DUP2 \t\t\tAirdropAlreadyTriggered()\n      MSTORE \t\t\tAirdropAlreadyTriggered()\n      PUSH 4\t\t\tAirdropAlreadyTriggered()\n      ADD \t\t\tAirdropAlreadyTriggered()\n      PUSH 40\t\t\tAirdropAlreadyTriggered()\n      MLOAD \t\t\tAirdropAlreadyTriggered()\n      DUP1 \t\t\tAirdropAlreadyTriggered()\n      SWAP2 \t\t\tAirdropAlreadyTriggered()\n      SUB \t\t\tAirdropAlreadyTriggered()\n      SWAP1 \t\t\tAirdropAlreadyTriggered()\n      REVERT \t\t\tAirdropAlreadyTriggered()\n    tag 790\t\t\tif (ignitionAirdropTriggered) ...\n      JUMPDEST \t\t\tif (ignitionAirdropTriggered) ...\n      PUSHIMMUTABLE 1808\t\t\tACTIVATION_THRESHOLD\n      PUSH [tag] 791\t\t\ttotalSupply()\n      PUSH 2\t\t\tct && msg.se\n      SLOAD \t\t\tct && msg.se\n      SWAP1 \t\t\tct && msg.se\n      JUMP \t\t\t modifier onlyGovernanceOrOwne...\n    tag 791\t\t\ttotalSupply()\n      JUMPDEST \t\t\ttotalSupply()\n      LT \t\t\ttotalSupply() < ACTIVATION_THR...\n      ISZERO \t\t\tif (totalSupply() < ACTIVATION...\n      PUSH [tag] 792\t\t\tif (totalSupply() < ACTIVATION...\n      JUMPI \t\t\tif (totalSupply() < ACTIVATION...\n      PUSH 40\t\t\tActivationThresholdNotMet()\n      MLOAD \t\t\tActivationThresholdNotMet()\n      PUSH 90D0CC47\t\t\t\n      PUSH E0\t\t\t\n      SHL \t\t\t\n      DUP2 \t\t\tActivationThresholdNotMet()\n      MSTORE \t\t\tActivationThresholdNotMet()\n      PUSH 4\t\t\tActivationThresholdNotMet()\n      ADD \t\t\tActivationThresholdNotMet()\n      PUSH 40\t\t\tActivationThresholdNotMet()\n      MLOAD \t\t\tActivationThresholdNotMet()\n      DUP1 \t\t\tActivationThresholdNotMet()\n      SWAP2 \t\t\tActivationThresholdNotMet()\n      SUB \t\t\tActivationThresholdNotMet()\n      SWAP1 \t\t\tActivationThresholdNotMet()\n      REVERT \t\t\tActivationThresholdNotMet()\n    tag 792\t\t\tif (totalSupply() < ACTIVATION...\n      JUMPDEST \t\t\tif (totalSupply() < ACTIVATION...\n      PUSH 2D\t\t\tignitionParticipants\n      SLOAD \t\t\tignitionParticipants.length\n      PUSH 0\t\t\t0\n      SUB \t\t\tignitionParticipants.length ==...\n      PUSH [tag] 793\t\t\tif (ignitionParticipants.lengt...\n      JUMPI \t\t\tif (ignitionParticipants.lengt...\n      PUSH 40\t\t\tNoParticipants()\n      MLOAD \t\t\tNoParticipants()\n      PUSH 8B6A473\t\t\t\n      PUSH E4\t\t\t\n      SHL \t\t\t\n      DUP2 \t\t\tNoParticipants()\n      MSTORE \t\t\tNoParticipants()\n      PUSH 4\t\t\tNoParticipants()\n      ADD \t\t\tNoParticipants()\n      PUSH 40\t\t\tNoParticipants()\n      MLOAD \t\t\tNoParticipants()\n      DUP1 \t\t\tNoParticipants()\n      SWAP2 \t\t\tNoParticipants()\n      SUB \t\t\tNoParticipants()\n      SWAP1 \t\t\tNoParticipants()\n      REVERT \t\t\tNoParticipants()\n    tag 793\t\t\tif (ignitionParticipants.lengt...\n      JUMPDEST \t\t\tif (ignitionParticipants.lengt...\n      PUSH 1D\t\t\tignitionAirdropTriggered\n      DUP1 \t\t\tignitionAirdropTriggered = tru...\n      SLOAD \t\t\tignitionAirdropTriggered = tru...\n      PUSH FFFF\t\t\t\n      PUSH A0\t\t\t\n      SHL \t\t\t\n      NOT \t\t\t\n      AND \t\t\tignitionRegistrationOpen = fal...\n      PUSH 1\t\t\t\n      PUSH A0\t\t\t\n      SHL \t\t\t\n      OR \t\t\tignitionRegistrationOpen = fal...\n      SWAP1 \t\t\tignitionRegistrationOpen = fal...\n      SSTORE \t\t\tignitionRegistrationOpen = fal...\n      PUSH 2D\t\t\tignitionParticipants\n      SLOAD \t\t\tignitionParticipants.length\n      PUSH 0\t\t\tignitionAirdropTriggered = tru...\n      PUSH [tag] 794\t\t\tIGNITION_AIRDROP_POOL / len\n      DUP3 \t\t\tignitionParticipants.length\n      PUSHIMMUTABLE 1803\t\t\tIGNITION_AIRDROP_POOL\n      PUSH [tag] 460\t\t\tIGNITION_AIRDROP_POOL / len\n      JUMP \t\t\tIGNITION_AIRDROP_POOL / len\n    tag 794\t\t\tIGNITION_AIRDROP_POOL / len\n      JUMPDEST \t\t\tIGNITION_AIRDROP_POOL / len\n      SWAP1 \t\t\tuint256 baseAmount = IGNITION_...\n      POP \t\t\tuint256 baseAmount = IGNITION_...\n      PUSH 0\t\t\tuint256 i\n    tag 795\t\t\tfor (uint256 i = 0; i < len; +...\n      JUMPDEST \t\t\tfor (uint256 i = 0; i < len; +...\n      DUP3 \t\t\tlen\n      DUP2 \t\t\ti\n      LT \t\t\ti < len\n      ISZERO \t\t\tfor (uint256 i = 0; i < len; +...\n      PUSH [tag] 796\t\t\tfor (uint256 i = 0; i < len; +...\n      JUMPI \t\t\tfor (uint256 i = 0; i < len; +...\n      PUSH 0\t\t\taddress participant\n      PUSH 2D\t\t\tignitionParticipants\n      DUP3 \t\t\ti\n      DUP2 \t\t\tignitionParticipants[i]\n      SLOAD \t\t\tignitionParticipants[i]\n      DUP2 \t\t\tignitionParticipants[i]\n      LT \t\t\tignitionParticipants[i]\n      PUSH [tag] 799\t\t\tignitionParticipants[i]\n      JUMPI \t\t\tignitionParticipants[i]\n      PUSH [tag] 799\t\t\tignitionParticipants[i]\n      PUSH [tag] 630\t\t\tignitionParticipants[i]\n      JUMP \t\t\tignitionParticipants[i]\n    tag 799\t\t\tignitionParticipants[i]\n      JUMPDEST \t\t\tignitionParticipants[i]\n      PUSH 0\t\t\tignitionParticipants[i]\n      SWAP2 \t\t\tignitionParticipants[i]\n      DUP3 \t\t\tignitionParticipants[i]\n      MSTORE \t\t\tignitionParticipants[i]\n      PUSH 20\t\t\tignitionParticipants[i]\n      SWAP1 \t\t\tignitionParticipants[i]\n      SWAP2 \t\t\tignitionParticipants[i]\n      KECCAK256 \t\t\tignitionParticipants[i]\n      ADD \t\t\tignitionParticipants[i]\n      SLOAD \t\t\tignitionParticipants[i]\n      PUSH 1\t\t\t\n      PUSH 1\t\t\t\n      PUSH A0\t\t\t\n      SHL \t\t\t\n      SUB \t\t\t\n      AND \t\t\tignitionParticipants[i]\n      SWAP1 \t\t\tignitionParticipants[i]\n      POP \t\t\t\n      DUP1 \t\t\tignitionParticipants[i]\n      PUSH [tag] 801\t\t\tif (participant == address(0))...\n      JUMPI \t\t\tif (participant == address(0))...\n      PUSH 40\t\t\tInvalidAddress()\n      MLOAD \t\t\tInvalidAddress()\n      PUSH E6C4247B\t\t\t\n      PUSH E0\t\t\t\n      SHL \t\t\t\n      DUP2 \t\t\tInvalidAddress()\n      MSTORE \t\t\tInvalidAddress()\n      PUSH 4\t\t\tInvalidAddress()\n      ADD \t\t\tInvalidAddress()\n      PUSH 40\t\t\tInvalidAddress()\n      MLOAD \t\t\tInvalidAddress()\n      DUP1 \t\t\tInvalidAddress()\n      SWAP2 \t\t\tInvalidAddress()\n      SUB \t\t\tInvalidAddress()\n      SWAP1 \t\t\tInvalidAddress()\n      REVERT \t\t\tInvalidAddress()\n    tag 801\t\t\tif (participant == address(0))...\n      JUMPDEST \t\t\tif (participant == address(0))...\n      DUP3 \t\t\tbaseAmount\n      PUSH 64\t\t\t100\n      DUP4 \t\t\ti < 100\n      LT \t\t\ti < 100\n      ISZERO \t\t\tif (i < 100) amount = (amount ...\n      PUSH [tag] 802\t\t\tif (i < 100) amount = (amount ...\n      JUMPI \t\t\tif (i < 100) amount = (amount ...\n      PUSH 64\t\t\t100\n      PUSH [tag] 803\t\t\tamount * 150\n      DUP3 \t\t\tamount\n      PUSH 96\t\t\t150\n      PUSH [tag] 458\t\t\tamount * 150\n      JUMP \t\t\tamount * 150\n    tag 803\t\t\tamount * 150\n      JUMPDEST \t\t\tamount * 150\n      PUSH [tag] 804\t\t\t(amount * 150) / 100\n      SWAP2 \t\t\t(amount * 150) / 100\n      SWAP1 \t\t\t(amount * 150) / 100\n      PUSH [tag] 460\t\t\t(amount * 150) / 100\n      JUMP \t\t\t(amount * 150) / 100\n    tag 804\t\t\t(amount * 150) / 100\n      JUMPDEST \t\t\t(amount * 150) / 100\n      SWAP1 \t\t\tamount = (amount * 150) / 100\n      POP \t\t\tamount = (amount * 150) / 100\n      PUSH [tag] 806\t\t\tif (i < 100) amount = (amount ...\n      JUMP \t\t\tif (i < 100) amount = (amount ...\n    tag 802\t\t\tif (i < 100) amount = (amount ...\n      JUMPDEST \t\t\tif (i < 100) amount = (amount ...\n      PUSH C8\t\t\t200\n      DUP4 \t\t\ti\n      LT \t\t\ti < 200\n      ISZERO \t\t\tif (i < 200) amount = (amount ...\n      PUSH [tag] 806\t\t\tif (i < 200) amount = (amount ...\n      JUMPI \t\t\tif (i < 200) amount = (amount ...\n      PUSH 64\t\t\t100\n      PUSH [tag] 807\t\t\tamount * 125\n      DUP3 \t\t\tamount\n      PUSH 7D\t\t\t125\n      PUSH [tag] 458\t\t\tamount * 125\n      JUMP \t\t\tamount * 125\n    tag 807\t\t\tamount * 125\n      JUMPDEST \t\t\tamount * 125\n      PUSH [tag] 808\t\t\t(amount * 125) / 100\n      SWAP2 \t\t\t(amount * 125) / 100\n      SWAP1 \t\t\t(amount * 125) / 100\n      PUSH [tag] 460\t\t\t(amount * 125) / 100\n      JUMP \t\t\t(amount * 125) / 100\n    tag 808\t\t\t(amount * 125) / 100\n      JUMPDEST \t\t\t(amount * 125) / 100\n      SWAP1 \t\t\tamount = (amount * 125) / 100\n      POP \t\t\tamount = (amount * 125) / 100\n    tag 806\t\t\tif (i < 200) amount = (amount ...\n      JUMPDEST \t\t\tif (i < 200) amount = (amount ...\n      PUSH 1\t\t\t\n      PUSH 1\t\t\t\n      PUSH A0\t\t\t\n      SHL \t\t\t\n      SUB \t\t\t\n      SWAP1 \t\t\tignitionClaimableAmount[partic...\n      SWAP2 \t\t\tignitionClaimableAmount[partic...\n      AND \t\t\tignitionClaimableAmount[partic...\n      PUSH 0\t\t\tignitionClaimableAmount[partic...\n      SWAP1 \t\t\tignitionClaimableAmount[partic...\n      DUP2 \t\t\tignitionClaimableAmount[partic...\n      MSTORE \t\t\tignitionClaimableAmount[partic...\n      PUSH 2B\t\t\tignitionClaimableAmount\n      PUSH 20\t\t\tignitionClaimableAmount[partic...\n      MSTORE \t\t\tignitionClaimableAmount[partic...\n      PUSH 40\t\t\tignitionClaimableAmount[partic...\n      SWAP1 \t\t\tignitionClaimableAmount[partic...\n      KECCAK256 \t\t\tignitionClaimableAmount[partic...\n      SSTORE \t\t\tignitionClaimableAmount[partic...\n      PUSH [tag] 809\t\t\t++i\n      DUP2 \t\t\t++i\n      PUSH [tag] 642\t\t\t++i\n      JUMP \t\t\t++i\n    tag 809\t\t\t++i\n      JUMPDEST \t\t\t++i\n      SWAP1 \t\t\t++i\n      POP \t\t\t++i\n      PUSH [tag] 795\t\t\tfor (uint256 i = 0; i < len; +...\n      JUMP \t\t\tfor (uint256 i = 0; i < len; +...\n    tag 796\t\t\tfor (uint256 i = 0; i < len; +...\n      JUMPDEST \t\t\tfor (uint256 i = 0; i < len; +...\n      POP \t\t\tfor (uint256 i = 0; i < len; +...\n      TIMESTAMP \t\t\tblock.timestamp\n      PUSH 8F775AC6A67A8155177EACF03D476A0ADA0E0DE8671DCDB12B65C6E241D7EA1C\t\t\tIgnitionAirdropTriggered(block...\n      DUP4 \t\t\tlen\n      PUSH 40\t\t\tIgnitionAirdropTriggered(block...\n      MLOAD \t\t\tIgnitionAirdropTriggered(block...\n      PUSH [tag] 752\t\t\tIgnitionAirdropTriggered(block...\n      SWAP2 \t\t\tIgnitionAirdropTriggered(block...\n      DUP2 \t\t\tNotAuthorized();\\n    erro\n      MSTORE \t\t\tNotAuthorized();\\n    erro\n      PUSH 20\t\t\t;\\n\n      ADD \t\t\ternanceNotSet();\\n \n      SWAP1 \t\t\ternanceNotSet();\\n \n      JUMP \t\t\t// Errors\\n    error InvalidRe...\n    tag 327\t\t\tfunction commitVote(uint256 id...\n      JUMPDEST \t\t\tfunction commitVote(uint256 id...\n      PUSH 9\t\t\temergencyPaused\n      SLOAD \t\t\temergencyPaused\n      PUSH 10000\t\t\temergencyPaused\n      SWAP1 \t\t\temergencyPaused\n      DIV \t\t\temergencyPaused\n      PUSH FF\t\t\temergencyPaused\n      AND \t\t\temergencyPaused\n      ISZERO \t\t\tif (emergencyPaused) revert Co...\n      PUSH [tag] 812\t\t\tif (emergencyPaused) revert Co...\n      JUMPI \t\t\tif (emergencyPaused) revert Co...\n      PUSH 40\t\t\tContractPaused()\n      MLOAD \t\t\tContractPaused()\n      PUSH AB35696F\t\t\t\n      PUSH E0\t\t\t\n      SHL \t\t\t\n      DUP2 \t\t\tContractPaused()\n      MSTORE \t\t\tContractPaused()\n      PUSH 4\t\t\tContractPaused()\n      ADD \t\t\tContractPaused()\n      PUSH 40\t\t\tContractPaused()\n      MLOAD \t\t\tContractPaused()\n      DUP1 \t\t\tContractPaused()\n      SWAP2 \t\t\tContractPaused()\n      SUB \t\t\tContractPaused()\n      SWAP1 \t\t\tContractPaused()\n      REVERT \t\t\tContractPaused()\n    tag 812\t\t\tif (emergencyPaused) revert Co...\n      JUMPDEST \t\t\tif (emergencyPaused) revert Co...\n      PUSH 0\t\t\tProposal storage p\n      DUP3 \t\t\tproposals[id]\n      DUP2 \t\t\tproposals[id]\n      MSTORE \t\t\tproposals[id]\n      PUSH 24\t\t\tproposals\n      PUSH 20\t\t\tproposals[id]\n      MSTORE \t\t\tproposals[id]\n      PUSH 40\t\t\tproposals[id]\n      DUP2 \t\t\tproposals[id]\n      KECCAK256 \t\t\tproposals[id]\n      PUSH 1\t\t\tp.startBlock\n      DUP2 \t\t\tp.startBlock\n      ADD \t\t\tp.startBlock\n      SLOAD \t\t\tp.startBlock\n      SWAP1 \t\t\tproposals[id]\n      SWAP2 \t\t\tproposals[id]\n      SUB \t\t\tp.startBlock == 0\n      PUSH [tag] 814\t\t\tif (p.startBlock == 0) revert ...\n      JUMPI \t\t\tif (p.startBlock == 0) revert ...\n      PUSH 40\t\t\tProposalDoesNotExist()\n      MLOAD \t\t\tProposalDoesNotExist()\n      PUSH 6CE3C701\t\t\t\n      PUSH E1\t\t\t\n      SHL \t\t\t\n      DUP2 \t\t\tProposalDoesNotExist()\n      MSTORE \t\t\tProposalDoesNotExist()\n      PUSH 4\t\t\tProposalDoesNotExist()\n      ADD \t\t\tProposalDoesNotExist()\n      PUSH 40\t\t\tProposalDoesNotExist()\n      MLOAD \t\t\tProposalDoesNotExist()\n      DUP1 \t\t\tProposalDoesNotExist()\n      SWAP2 \t\t\tProposalDoesNotExist()\n      SUB \t\t\tProposalDoesNotExist()\n      SWAP1 \t\t\tProposalDoesNotExist()\n      REVERT \t\t\tProposalDoesNotExist()\n    tag 814\t\t\tif (p.startBlock == 0) revert ...\n      JUMPDEST \t\t\tif (p.startBlock == 0) revert ...\n      DUP1 \t\t\tp\n      PUSH 1\t\t\tp.startBlock\n      ADD \t\t\tp.startBlock\n      SLOAD \t\t\tp.startBlock\n      TIMESTAMP \t\t\tblock.timestamp\n      LT \t\t\tblock.timestamp < p.startBlock\n      DUP1 \t\t\tblock.timestamp < p.startBlock...\n      PUSH [tag] 815\t\t\tblock.timestamp < p.startBlock...\n      JUMPI \t\t\tblock.timestamp < p.startBlock...\n      POP \t\t\tblock.timestamp < p.startBlock...\n      DUP1 \t\t\tp\n      PUSH 2\t\t\tp.endBlock\n      ADD \t\t\tp.endBlock\n      SLOAD \t\t\tp.endBlock\n      TIMESTAMP \t\t\tblock.timestamp\n      GT \t\t\tblock.timestamp > p.endBlock\n    tag 815\t\t\tblock.timestamp < p.startBlock...\n      JUMPDEST \t\t\tblock.timestamp < p.startBlock...\n      ISZERO \t\t\tif (block.timestamp < p.startB...\n      PUSH [tag] 816\t\t\tif (block.timestamp < p.startB...\n      JUMPI \t\t\tif (block.timestamp < p.startB...\n      PUSH 40\t\t\tVotingPeriodInactive()\n      MLOAD \t\t\tVotingPeriodInactive()\n      PUSH 2DFA5C9B\t\t\t\n      PUSH E0\t\t\t\n      SHL \t\t\t\n      DUP2 \t\t\tVotingPeriodInactive()\n      MSTORE \t\t\tVotingPeriodInactive()\n      PUSH 4\t\t\tVotingPeriodInactive()\n      ADD \t\t\tVotingPeriodInactive()\n      PUSH 40\t\t\tVotingPeriodInactive()\n      MLOAD \t\t\tVotingPeriodInactive()\n      DUP1 \t\t\tVotingPeriodInactive()\n      SWAP2 \t\t\tVotingPeriodInactive()\n      SUB \t\t\tVotingPeriodInactive()\n      SWAP1 \t\t\tVotingPeriodInactive()\n      REVERT \t\t\tVotingPeriodInactive()\n    tag 816\t\t\tif (block.timestamp < p.startB...\n      JUMPDEST \t\t\tif (block.timestamp < p.startB...\n      CALLER \t\t\tmsg.sender\n      PUSH 0\t\t\tp.hasVoted[msg.sender]\n      SWAP1 \t\t\tp.hasVoted[msg.sender]\n      DUP2 \t\t\tp.hasVoted[msg.sender]\n      MSTORE \t\t\tp.hasVoted[msg.sender]\n      PUSH A\t\t\tp.hasVoted\n      DUP3 \t\t\tp.hasVoted\n      ADD \t\t\tp.hasVoted\n      PUSH 20\t\t\tp.hasVoted[msg.sender]\n      MSTORE \t\t\tp.hasVoted[msg.sender]\n      PUSH 40\t\t\tp.hasVoted[msg.sender]\n      SWAP1 \t\t\tp.hasVoted[msg.sender]\n      KECCAK256 \t\t\tp.hasVoted[msg.sender]\n      SLOAD \t\t\tp.hasVoted[msg.sender]\n      PUSH FF\t\t\tp.hasVoted[msg.sender]\n      AND \t\t\tp.hasVoted[msg.sender]\n      ISZERO \t\t\tif (p.hasVoted[msg.sender]) re...\n      PUSH [tag] 817\t\t\tif (p.hasVoted[msg.sender]) re...\n      JUMPI \t\t\tif (p.hasVoted[msg.sender]) re...\n      PUSH 40\t\t\tAlreadyVoted()\n      MLOAD \t\t\tAlreadyVoted()\n      PUSH 7C9A1CF9\t\t\t\n      PUSH E0\t\t\t\n      SHL \t\t\t\n      DUP2 \t\t\tAlreadyVoted()\n      MSTORE \t\t\tAlreadyVoted()\n      PUSH 4\t\t\tAlreadyVoted()\n      ADD \t\t\tAlreadyVoted()\n      PUSH 40\t\t\tAlreadyVoted()\n      MLOAD \t\t\tAlreadyVoted()\n      DUP1 \t\t\tAlreadyVoted()\n      SWAP2 \t\t\tAlreadyVoted()\n      SUB \t\t\tAlreadyVoted()\n      SWAP1 \t\t\tAlreadyVoted()\n      REVERT \t\t\tAlreadyVoted()\n    tag 817\t\t\tif (p.hasVoted[msg.sender]) re...\n      JUMPDEST \t\t\tif (p.hasVoted[msg.sender]) re...\n      PUSH 9\t\t\tp.executed\n      DUP2 \t\t\tp.executed\n      ADD \t\t\tp.executed\n      SLOAD \t\t\tp.executed\n      PUSH 100\t\t\tp.executed\n      SWAP1 \t\t\tp.executed\n      DIV \t\t\tp.executed\n      PUSH FF\t\t\tp.executed\n      AND \t\t\tp.executed\n      ISZERO \t\t\tif (p.executed) revert Proposa...\n      PUSH [tag] 818\t\t\tif (p.executed) revert Proposa...\n      JUMPI \t\t\tif (p.executed) revert Proposa...\n      PUSH 40\t\t\tProposalExecuted()\n      MLOAD \t\t\tProposalExecuted()\n      PUSH CF88C657\t\t\t\n      PUSH E0\t\t\t\n      SHL \t\t\t\n      DUP2 \t\t\tProposalExecuted()\n      MSTORE \t\t\tProposalExecuted()\n      PUSH 4\t\t\tProposalExecuted()\n      ADD \t\t\tProposalExecuted()\n      PUSH 40\t\t\tProposalExecuted()\n      MLOAD \t\t\tProposalExecuted()\n      DUP1 \t\t\tProposalExecuted()\n      SWAP2 \t\t\tProposalExecuted()\n      SUB \t\t\tProposalExecuted()\n      SWAP1 \t\t\tProposalExecuted()\n      REVERT \t\t\tProposalExecuted()\n    tag 818\t\t\tif (p.executed) revert Proposa...\n      JUMPDEST \t\t\tif (p.executed) revert Proposa...\n      CALLER \t\t\tmsg.sender\n      PUSH 0\t\t\tp.voteCommits[msg.sender]\n      DUP2 \t\t\tp.voteCommits[msg.sender]\n      DUP2 \t\t\tp.voteCommits[msg.sender]\n      MSTORE \t\t\tp.voteCommits[msg.sender]\n      PUSH B\t\t\tp.voteCommits\n      DUP4 \t\t\tp.voteCommits\n      ADD \t\t\tp.voteCommits\n      PUSH 20\t\t\tp.voteCommits[msg.sender]\n      MSTORE \t\t\tp.voteCommits[msg.sender]\n      PUSH 40\t\t\tp.voteCommits[msg.sender]\n      SWAP1 \t\t\tp.voteCommits[msg.sender]\n      DUP2 \t\t\tp.voteCommits[msg.sender]\n      SWAP1 \t\t\tp.voteCommits[msg.sender]\n      KECCAK256 \t\t\tp.voteCommits[msg.sender]\n      DUP5 \t\t\tp.voteCommits[msg.sender] = co...\n      SWAP1 \t\t\tp.voteCommits[msg.sender] = co...\n      SSTORE \t\t\tp.voteCommits[msg.sender] = co...\n      MLOAD \t\t\tVoteCommitted(id, msg.sender, ...\n      DUP5 \t\t\tid\n      SWAP1 \t\t\tid\n      PUSH 1F4E2AA7825EF02E85293E2DE66CFBCB326AF2632B558996E546BB1EF3E8764D\t\t\tVoteCommitted(id, msg.sender, ...\n      SWAP1 \t\t\tVoteCommitted(id, msg.sender, ...\n      PUSH [tag] 819\t\t\tVoteCommitted(id, msg.sender, ...\n      SWAP1 \t\t\tVoteCommitted(id, msg.sender, ...\n      DUP7 \t\t\tcommitHash\n      DUP2 \t\t\tNotAuthorized();\\n    erro\n      MSTORE \t\t\tNotAuthorized();\\n    erro\n      PUSH 20\t\t\t;\\n\n      ADD \t\t\ternanceNotSet();\\n \n      SWAP1 \t\t\ternanceNotSet();\\n \n      JUMP \t\t\t// Errors\\n    error InvalidRe...\n    tag 819\t\t\tVoteCommitted(id, msg.sender, ...\n      JUMPDEST \t\t\tVoteCommitted(id, msg.sender, ...\n      PUSH 40\t\t\tVoteCommitted(id, msg.sender, ...\n      MLOAD \t\t\tVoteCommitted(id, msg.sender, ...\n      DUP1 \t\t\tVoteCommitted(id, msg.sender, ...\n      SWAP2 \t\t\tVoteCommitted(id, msg.sender, ...\n      SUB \t\t\tVoteCommitted(id, msg.sender, ...\n      SWAP1 \t\t\tVoteCommitted(id, msg.sender, ...\n      LOG3 \t\t\tVoteCommitted(id, msg.sender, ...\n      POP \t\t\t{\\n        Proposal storage p ...\n      POP \t\t\tfunction commitVote(uint256 id...\n      POP \t\t\tfunction commitVote(uint256 id...\n      JUMP \t\t\tfunction commitVote(uint256 id...\n    tag 332\t\t\tfunction claimIgnitionAirdrop(...\n      JUMPDEST \t\t\tfunction claimIgnitionAirdrop(...\n      PUSH [tag] 822\t\t\ttracts not allowed\");\n      PUSH [tag] 444\t\t\ttracts not allowed\"\n      JUMP \t\t\ttracts not allowed\");\n    tag 822\t\t\ttracts not allowed\");\n      JUMPDEST \t\t\ttracts not allowed\");\n      PUSH 1D\t\t\tignitionAirdropTriggered\n      SLOAD \t\t\tignitionAirdropTriggered\n      PUSH 1\t\t\t\n      PUSH A0\t\t\t\n      SHL \t\t\t\n      SWAP1 \t\t\tignitionAirdropTriggered\n      DIV \t\t\tignitionAirdropTriggered\n      PUSH FF\t\t\tignitionAirdropTriggered\n      AND \t\t\tignitionAirdropTriggered\n      PUSH [tag] 824\t\t\tif (!ignitionAirdropTriggered)...\n      JUMPI \t\t\tif (!ignitionAirdropTriggered)...\n      PUSH 40\t\t\tAirdropAlreadyTriggered()\n      MLOAD \t\t\tAirdropAlreadyTriggered()\n      PUSH 87CEAB01\t\t\t\n      PUSH E0\t\t\t\n      SHL \t\t\t\n      DUP2 \t\t\tAirdropAlreadyTriggered()\n      MSTORE \t\t\tAirdropAlreadyTriggered()\n      PUSH 4\t\t\tAirdropAlreadyTriggered()\n      ADD \t\t\tAirdropAlreadyTriggered()\n      PUSH 40\t\t\tAirdropAlreadyTriggered()\n      MLOAD \t\t\tAirdropAlreadyTriggered()\n      DUP1 \t\t\tAirdropAlreadyTriggered()\n      SWAP2 \t\t\tAirdropAlreadyTriggered()\n      SUB \t\t\tAirdropAlreadyTriggered()\n      SWAP1 \t\t\tAirdropAlreadyTriggered()\n      REVERT \t\t\tAirdropAlreadyTriggered()\n    tag 824\t\t\tif (!ignitionAirdropTriggered)...\n      JUMPDEST \t\t\tif (!ignitionAirdropTriggered)...\n      CALLER \t\t\tmsg.sender\n      PUSH 0\t\t\tignitionWhitelist[msg.sender]\n      SWAP1 \t\t\tignitionWhitelist[msg.sender]\n      DUP2 \t\t\tignitionWhitelist[msg.sender]\n      MSTORE \t\t\tignitionWhitelist[msg.sender]\n      PUSH 2A\t\t\tignitionWhitelist\n      PUSH 20\t\t\tignitionWhitelist[msg.sender]\n      MSTORE \t\t\tignitionWhitelist[msg.sender]\n      PUSH 40\t\t\tignitionWhitelist[msg.sender]\n      SWAP1 \t\t\tignitionWhitelist[msg.sender]\n      KECCAK256 \t\t\tignitionWhitelist[msg.sender]\n      SLOAD \t\t\tignitionWhitelist[msg.sender]\n      PUSH FF\t\t\tignitionWhitelist[msg.sender]\n      AND \t\t\tignitionWhitelist[msg.sender]\n      PUSH [tag] 825\t\t\tif (!ignitionWhitelist[msg.sen...\n      JUMPI \t\t\tif (!ignitionWhitelist[msg.sen...\n      PUSH 40\t\t\tNotWhitelisted()\n      MLOAD \t\t\tNotWhitelisted()\n      PUSH B094F27\t\t\t\n      PUSH E3\t\t\t\n      SHL \t\t\t\n      DUP2 \t\t\tNotWhitelisted()\n      MSTORE \t\t\tNotWhitelisted()\n      PUSH 4\t\t\tNotWhitelisted()\n      ADD \t\t\tNotWhitelisted()\n      PUSH 40\t\t\tNotWhitelisted()\n      MLOAD \t\t\tNotWhitelisted()\n      DUP1 \t\t\tNotWhitelisted()\n      SWAP2 \t\t\tNotWhitelisted()\n      SUB \t\t\tNotWhitelisted()\n      SWAP1 \t\t\tNotWhitelisted()\n      REVERT \t\t\tNotWhitelisted()\n    tag 825\t\t\tif (!ignitionWhitelist[msg.sen...\n      JUMPDEST \t\t\tif (!ignitionWhitelist[msg.sen...\n      CALLER \t\t\tmsg.sender\n      PUSH 0\t\t\tignitionClaimed[msg.sender]\n      SWAP1 \t\t\tignitionClaimed[msg.sender]\n      DUP2 \t\t\tignitionClaimed[msg.sender]\n      MSTORE \t\t\tignitionClaimed[msg.sender]\n      PUSH 2C\t\t\tignitionClaimed\n      PUSH 20\t\t\tignitionClaimed[msg.sender]\n      MSTORE \t\t\tignitionClaimed[msg.sender]\n      PUSH 40\t\t\tignitionClaimed[msg.sender]\n      SWAP1 \t\t\tignitionClaimed[msg.sender]\n      KECCAK256 \t\t\tignitionClaimed[msg.sender]\n      SLOAD \t\t\tignitionClaimed[msg.sender]\n      PUSH FF\t\t\tignitionClaimed[msg.sender]\n      AND \t\t\tignitionClaimed[msg.sender]\n      ISZERO \t\t\tif (ignitionClaimed[msg.sender...\n      PUSH [tag] 826\t\t\tif (ignitionClaimed[msg.sender...\n      JUMPI \t\t\tif (ignitionClaimed[msg.sender...\n      PUSH 40\t\t\tAlreadyClaimed()\n      MLOAD \t\t\tAlreadyClaimed()\n      PUSH C8D9EAB\t\t\t\n      PUSH E3\t\t\t\n      SHL \t\t\t\n      DUP2 \t\t\tAlreadyClaimed()\n      MSTORE \t\t\tAlreadyClaimed()\n      PUSH 4\t\t\tAlreadyClaimed()\n      ADD \t\t\tAlreadyClaimed()\n      PUSH 40\t\t\tAlreadyClaimed()\n      MLOAD \t\t\tAlreadyClaimed()\n      DUP1 \t\t\tAlreadyClaimed()\n      SWAP2 \t\t\tAlreadyClaimed()\n      SUB \t\t\tAlreadyClaimed()\n      SWAP1 \t\t\tAlreadyClaimed()\n      REVERT \t\t\tAlreadyClaimed()\n    tag 826\t\t\tif (ignitionClaimed[msg.sender...\n      JUMPDEST \t\t\tif (ignitionClaimed[msg.sender...\n      CALLER \t\t\tmsg.sender\n      PUSH 0\t\t\tignitionClaimableAmount[msg.se...\n      SWAP1 \t\t\tignitionClaimableAmount[msg.se...\n      DUP2 \t\t\tignitionClaimableAmount[msg.se...\n      MSTORE \t\t\tignitionClaimableAmount[msg.se...\n      PUSH 2B\t\t\tignitionClaimableAmount\n      PUSH 20\t\t\tignitionClaimableAmount[msg.se...\n      MSTORE \t\t\tignitionClaimableAmount[msg.se...\n      PUSH 40\t\t\tignitionClaimableAmount[msg.se...\n      DUP2 \t\t\tignitionClaimableAmount[msg.se...\n      KECCAK256 \t\t\tignitionClaimableAmount[msg.se...\n      SLOAD \t\t\tignitionClaimableAmount[msg.se...\n      SWAP1 \t\t\tignitionClaimableAmount[msg.se...\n      SUB \t\t\tignitionClaimableAmount[msg.se...\n      PUSH [tag] 827\t\t\tif (ignitionClaimableAmount[ms...\n      JUMPI \t\t\tif (ignitionClaimableAmount[ms...\n      PUSH 40\t\t\tNoClaimableAmount()\n      MLOAD \t\t\tNoClaimableAmount()\n      PUSH 493C1AB7\t\t\t\n      PUSH E0\t\t\t\n      SHL \t\t\t\n      DUP2 \t\t\tNoClaimableAmount()\n      MSTORE \t\t\tNoClaimableAmount()\n      PUSH 4\t\t\tNoClaimableAmount()\n      ADD \t\t\tNoClaimableAmount()\n      PUSH 40\t\t\tNoClaimableAmount()\n      MLOAD \t\t\tNoClaimableAmount()\n      DUP1 \t\t\tNoClaimableAmount()\n      SWAP2 \t\t\tNoClaimableAmount()\n      SUB \t\t\tNoClaimableAmount()\n      SWAP1 \t\t\tNoClaimableAmount()\n      REVERT \t\t\tNoClaimableAmount()\n    tag 827\t\t\tif (ignitionClaimableAmount[ms...\n      JUMPDEST \t\t\tif (ignitionClaimableAmount[ms...\n      CALLER \t\t\tmsg.sender\n      PUSH 0\t\t\tuint256 amount\n      DUP2 \t\t\tignitionClaimableAmount[msg.se...\n      DUP2 \t\t\tignitionClaimableAmount[msg.se...\n      MSTORE \t\t\tignitionClaimableAmount[msg.se...\n      PUSH 2B\t\t\tignitionClaimableAmount\n      PUSH 20\t\t\tignitionClaimableAmount[msg.se...\n      SWAP1 \t\t\tignitionClaimableAmount[msg.se...\n      DUP2 \t\t\tignitionClaimableAmount[msg.se...\n      MSTORE \t\t\tignitionClaimableAmount[msg.se...\n      PUSH 40\t\t\tignitionClaimableAmount[msg.se...\n      DUP1 \t\t\tignitionClaimableAmount[msg.se...\n      DUP4 \t\t\tignitionClaimableAmount[msg.se...\n      KECCAK256 \t\t\tignitionClaimableAmount[msg.se...\n      SLOAD \t\t\tignitionClaimableAmount[msg.se...\n      PUSH 2C\t\t\tignitionClaimed\n      SWAP1 \t\t\tignitionClaimed[msg.sender]\n      SWAP3 \t\t\tignitionClaimed[msg.sender]\n      MSTORE \t\t\tignitionClaimed[msg.sender]\n      SWAP1 \t\t\tignitionClaimed[msg.sender]\n      SWAP2 \t\t\tignitionClaimed[msg.sender]\n      KECCAK256 \t\t\tignitionClaimed[msg.sender]\n      DUP1 \t\t\tignitionClaimed[msg.sender] = ...\n      SLOAD \t\t\tignitionClaimed[msg.sender] = ...\n      PUSH FF\t\t\t\n      NOT \t\t\t\n      AND \t\t\tignitionClaimed[msg.sender] = ...\n      PUSH 1\t\t\ttrue\n      OR \t\t\tignitionClaimed[msg.sender] = ...\n      SWAP1 \t\t\tignitionClaimed[msg.sender] = ...\n      SSTORE \t\t\tignitionClaimed[msg.sender] = ...\n      SWAP1 \t\t\tignitionClaimableAmount[msg.se...\n      PUSH [tag] 828\t\t\t_mint(msg.sender, amount)\n      SWAP1 \t\t\t_mint(msg.sender, amount)\n      DUP3 \t\t\tignitionClaimableAmount[msg.se...\n      PUSH [tag] 648\t\t\t_mint\n      JUMP \t\t\t_mint(msg.sender, amount)\n    tag 828\t\t\t_mint(msg.sender, amount)\n      JUMPDEST \t\t\t_mint(msg.sender, amount)\n      PUSH 40\t\t\tIgnitionAirdropClaimed(msg.sen...\n      MLOAD \t\t\tIgnitionAirdropClaimed(msg.sen...\n      DUP2 \t\t\tNotAuthorized();\\n    erro\n      DUP2 \t\t\tNotAuthorized();\\n    erro\n      MSTORE \t\t\tNotAuthorized();\\n    erro\n      CALLER \t\t\tmsg.sender\n      SWAP1 \t\t\tmsg.sender\n      PUSH 297D75EB990C12692C7028B6D2CF422C5DE200715CCF4CB9497C7FF567029CDF\t\t\tIgnitionAirdropClaimed(msg.sen...\n      SWAP1 \t\t\tIgnitionAirdropClaimed(msg.sen...\n      PUSH 20\t\t\t;\\n\n      ADD \t\t\ternanceNotSet();\\n \n      PUSH 40\t\t\tIgnitionAirdropClaimed(msg.sen...\n      MLOAD \t\t\tIgnitionAirdropClaimed(msg.sen...\n      DUP1 \t\t\tIgnitionAirdropClaimed(msg.sen...\n      SWAP2 \t\t\tIgnitionAirdropClaimed(msg.sen...\n      SUB \t\t\tIgnitionAirdropClaimed(msg.sen...\n      SWAP1 \t\t\tIgnitionAirdropClaimed(msg.sen...\n      LOG2 \t\t\tIgnitionAirdropClaimed(msg.sen...\n      POP \t\t\t{\\n        if (!ignitionAirdro...\n      PUSH [tag] 536\t\t\t modifier onlyGovern\n      PUSH 1\t\t\t \n      PUSH 5\t\t\t}\\n\\n    \n      SSTORE \t\t\t}\\n\\n    enum ProposalT\n      JUMP \t\t\tsg.sender != owner()) revert N...\n    tag 334\t\t\tfunction revokeDelegation() ex...\n      JUMPDEST \t\t\tfunction revokeDelegation() ex...\n      PUSH [tag] 832\t\t\ttracts not allowed\");\n      PUSH [tag] 444\t\t\ttracts not allowed\"\n      JUMP \t\t\ttracts not allowed\");\n    tag 832\t\t\ttracts not allowed\");\n      JUMPDEST \t\t\ttracts not allowed\");\n      PUSH 9\t\t\temergencyPaused\n      SLOAD \t\t\temergencyPaused\n      PUSH 10000\t\t\temergencyPaused\n      SWAP1 \t\t\temergencyPaused\n      DIV \t\t\temergencyPaused\n      PUSH FF\t\t\temergencyPaused\n      AND \t\t\temergencyPaused\n      ISZERO \t\t\tif (emergencyPaused) revert Co...\n      PUSH [tag] 834\t\t\tif (emergencyPaused) revert Co...\n      JUMPI \t\t\tif (emergencyPaused) revert Co...\n      PUSH 40\t\t\tContractPaused()\n      MLOAD \t\t\tContractPaused()\n      PUSH AB35696F\t\t\t\n      PUSH E0\t\t\t\n      SHL \t\t\t\n      DUP2 \t\t\tContractPaused()\n      MSTORE \t\t\tContractPaused()\n      PUSH 4\t\t\tContractPaused()\n      ADD \t\t\tContractPaused()\n      PUSH 40\t\t\tContractPaused()\n      MLOAD \t\t\tContractPaused()\n      DUP1 \t\t\tContractPaused()\n      SWAP2 \t\t\tContractPaused()\n      SUB \t\t\tContractPaused()\n      SWAP1 \t\t\tContractPaused()\n      REVERT \t\t\tContractPaused()\n    tag 834\t\t\tif (emergencyPaused) revert Co...\n      JUMPDEST \t\t\tif (emergencyPaused) revert Co...\n      CALLER \t\t\tmsg.sender\n      PUSH 0\t\t\t0\n      SWAP1 \t\t\tactiveDelegations[msg.sender]\n      DUP2 \t\t\tactiveDelegations[msg.sender]\n      MSTORE \t\t\tactiveDelegations[msg.sender]\n      PUSH 27\t\t\tactiveDelegations\n      PUSH 20\t\t\tactiveDelegations[msg.sender]\n      MSTORE \t\t\tactiveDelegations[msg.sender]\n      PUSH 40\t\t\tactiveDelegations[msg.sender]\n      SWAP1 \t\t\tactiveDelegations[msg.sender]\n      KECCAK256 \t\t\tactiveDelegations[msg.sender]\n      PUSH 1\t\t\tactiveDelegations[msg.sender]....\n      ADD \t\t\tactiveDelegations[msg.sender]....\n      SLOAD \t\t\tactiveDelegations[msg.sender]....\n      PUSH 1\t\t\t\n      PUSH 1\t\t\t\n      PUSH A0\t\t\t\n      SHL \t\t\t\n      SUB \t\t\t\n      AND \t\t\tactiveDelegations[msg.sender]....\n      PUSH [tag] 836\t\t\tif (activeDelegations[msg.send...\n      JUMPI \t\t\tif (activeDelegations[msg.send...\n      PUSH 40\t\t\tNoDelegation()\n      MLOAD \t\t\tNoDelegation()\n      PUSH E1E4E59B\t\t\t\n      PUSH E0\t\t\t\n      SHL \t\t\t\n      DUP2 \t\t\tNoDelegation()\n      MSTORE \t\t\tNoDelegation()\n      PUSH 4\t\t\tNoDelegation()\n      ADD \t\t\tNoDelegation()\n      PUSH 40\t\t\tNoDelegation()\n      MLOAD \t\t\tNoDelegation()\n      DUP1 \t\t\tNoDelegation()\n      SWAP2 \t\t\tNoDelegation()\n      SUB \t\t\tNoDelegation()\n      SWAP1 \t\t\tNoDelegation()\n      REVERT \t\t\tNoDelegation()\n    tag 836\t\t\tif (activeDelegations[msg.send...\n      JUMPDEST \t\t\tif (activeDelegations[msg.send...\n      CALLER \t\t\tmsg.sender\n      PUSH 0\t\t\taddress delegate\n      SWAP1 \t\t\tactiveDelegations[msg.sender]\n      DUP2 \t\t\tactiveDelegations[msg.sender]\n      MSTORE \t\t\tactiveDelegations[msg.sender]\n      PUSH 27\t\t\tactiveDelegations\n      PUSH 20\t\t\tactiveDelegations[msg.sender]\n      SWAP1 \t\t\tactiveDelegations[msg.sender]\n      DUP2 \t\t\tactiveDelegations[msg.sender]\n      MSTORE \t\t\tactiveDelegations[msg.sender]\n      PUSH 40\t\t\tactiveDelegations[msg.sender]\n      DUP1 \t\t\tactiveDelegations[msg.sender]\n      DUP4 \t\t\tactiveDelegations[msg.sender]\n      KECCAK256 \t\t\tactiveDelegations[msg.sender]\n      PUSH 1\t\t\tactiveDelegations[msg.sender]....\n      DUP2 \t\t\tactiveDelegations[msg.sender]....\n      ADD \t\t\tactiveDelegations[msg.sender]....\n      SLOAD \t\t\tactiveDelegations[msg.sender]....\n      PUSH 2\t\t\tactiveDelegations[msg.sender]....\n      SWAP1 \t\t\tactiveDelegations[msg.sender]....\n      SWAP2 \t\t\tactiveDelegations[msg.sender]....\n      ADD \t\t\tactiveDelegations[msg.sender]....\n      SLOAD \t\t\tactiveDelegations[msg.sender]....\n      PUSH 1\t\t\t\n      PUSH 1\t\t\t\n      PUSH A0\t\t\t\n      SHL \t\t\t\n      SUB \t\t\t\n      SWAP1 \t\t\tactiveDelegations[msg.sender]....\n      SWAP2 \t\t\tactiveDelegations[msg.sender]....\n      AND \t\t\tactiveDelegations[msg.sender]....\n      DUP1 \t\t\tdelegatedBL2PReceived[delegate...\n      DUP6 \t\t\tdelegatedBL2PReceived[delegate...\n      MSTORE \t\t\tdelegatedBL2PReceived[delegate...\n      PUSH 28\t\t\tdelegatedBL2PReceived\n      SWAP1 \t\t\tdelegatedBL2PReceived[delegate...\n      SWAP4 \t\t\tdelegatedBL2PReceived[delegate...\n      MSTORE \t\t\tdelegatedBL2PReceived[delegate...\n      SWAP1 \t\t\tdelegatedBL2PReceived[delegate...\n      DUP4 \t\t\tdelegatedBL2PReceived[delegate...\n      KECCAK256 \t\t\tdelegatedBL2PReceived[delegate...\n      DUP1 \t\t\tdelegatedBL2PReceived[delegate...\n      SLOAD \t\t\tdelegatedBL2PReceived[delegate...\n      SWAP3 \t\t\tactiveDelegations[msg.sender]....\n      SWAP4 \t\t\tactiveDelegations[msg.sender]....\n      SWAP2 \t\t\tactiveDelegations[msg.sender]....\n      SWAP3 \t\t\tactiveDelegations[msg.sender]....\n      DUP4 \t\t\tactiveDelegations[msg.sender]....\n      SWAP3 \t\t\tactiveDelegations[msg.sender]....\n      SWAP1 \t\t\taddress delegate\n      PUSH [tag] 837\t\t\tdelegatedBL2PReceived[delegate...\n      SWAP1 \t\t\tdelegatedBL2PReceived[delegate...\n      DUP5 \t\t\tactiveDelegations[msg.sender]....\n      SWAP1 \t\t\tactiveDelegations[msg.sender]....\n      PUSH [tag] 477\t\t\tdelegatedBL2PReceived[delegate...\n      JUMP \t\t\tdelegatedBL2PReceived[delegate...\n    tag 837\t\t\tdelegatedBL2PReceived[delegate...\n      JUMPDEST \t\t\tdelegatedBL2PReceived[delegate...\n      SWAP1 \t\t\tdelegatedBL2PReceived[delegate...\n      SWAP2 \t\t\tdelegatedBL2PReceived[delegate...\n      SSTORE \t\t\tdelegatedBL2PReceived[delegate...\n      POP \t\t\t\n      POP \t\t\t\n      CALLER \t\t\tmsg.sender\n      PUSH 0\t\t\tactiveDelegations[msg.sender]\n      SWAP1 \t\t\tactiveDelegations[msg.sender]\n      DUP2 \t\t\tactiveDelegations[msg.sender]\n      MSTORE \t\t\tactiveDelegations[msg.sender]\n      PUSH 27\t\t\tactiveDelegations\n      PUSH 20\t\t\tactiveDelegations[msg.sender]\n      SWAP1 \t\t\tactiveDelegations[msg.sender]\n      DUP2 \t\t\tactiveDelegations[msg.sender]\n      MSTORE \t\t\tactiveDelegations[msg.sender]\n      PUSH 40\t\t\tactiveDelegations[msg.sender]\n      DUP1 \t\t\tactiveDelegations[msg.sender]\n      DUP4 \t\t\tactiveDelegations[msg.sender]\n      KECCAK256 \t\t\tactiveDelegations[msg.sender]\n      DUP1 \t\t\tdelete activeDelegations[msg.s...\n      SLOAD \t\t\tdelete activeDelegations[msg.s...\n      PUSH 1\t\t\t\n      PUSH 1\t\t\t\n      PUSH A0\t\t\t\n      SHL \t\t\t\n      SUB \t\t\t\n      NOT \t\t\t\n      SWAP1 \t\t\tdelete activeDelegations[msg.s...\n      DUP2 \t\t\tdelete activeDelegations[msg.s...\n      AND \t\t\tdelete activeDelegations[msg.s...\n      DUP3 \t\t\tdelete activeDelegations[msg.s...\n      SSTORE \t\t\tdelete activeDelegations[msg.s...\n      PUSH 1\t\t\tdelete activeDelegations[msg.s...\n      DUP3 \t\t\tdelete activeDelegations[msg.s...\n      ADD \t\t\tdelete activeDelegations[msg.s...\n      DUP1 \t\t\tdelete activeDelegations[msg.s...\n      SLOAD \t\t\tdelete activeDelegations[msg.s...\n      SWAP1 \t\t\tdelete activeDelegations[msg.s...\n      SWAP2 \t\t\tdelete activeDelegations[msg.s...\n      AND \t\t\tdelete activeDelegations[msg.s...\n      SWAP1 \t\t\tdelete activeDelegations[msg.s...\n      SSTORE \t\t\tdelete activeDelegations[msg.s...\n      PUSH 2\t\t\tdelete activeDelegations[msg.s...\n      DUP2 \t\t\tdelete activeDelegations[msg.s...\n      ADD \t\t\tdelete activeDelegations[msg.s...\n      DUP5 \t\t\tdelete activeDelegations[msg.s...\n      SWAP1 \t\t\tdelete activeDelegations[msg.s...\n      SSTORE \t\t\tdelete activeDelegations[msg.s...\n      PUSH 3\t\t\tdelete activeDelegations[msg.s...\n      ADD \t\t\tdelete activeDelegations[msg.s...\n      DUP4 \t\t\tdelete activeDelegations[msg.s...\n      SWAP1 \t\t\tdelete activeDelegations[msg.s...\n      SSTORE \t\t\tdelete activeDelegations[msg.s...\n      PUSH 1\t\t\t\n      PUSH 1\t\t\t\n      PUSH A0\t\t\t\n      SHL \t\t\t\n      SUB \t\t\t\n      DUP6 \t\t\tdelegatedBL2PReceived[delegate...\n      AND \t\t\tdelegatedBL2PReceived[delegate...\n      DUP4 \t\t\tdelegatedBL2PReceived[delegate...\n      MSTORE \t\t\tdelegatedBL2PReceived[delegate...\n      PUSH 28\t\t\tdelegatedBL2PReceived\n      SWAP1 \t\t\tdelegatedBL2PReceived[delegate...\n      SWAP2 \t\t\tdelegatedBL2PReceived[delegate...\n      MSTORE \t\t\tdelegatedBL2PReceived[delegate...\n      SWAP1 \t\t\tdelegatedBL2PReceived[delegate...\n      KECCAK256 \t\t\tdelegatedBL2PReceived[delegate...\n      SLOAD \t\t\tdelegatedBL2PReceived[delegate...\n      PUSH [tag] 838\t\t\t_updateTopDelegates(delegate, ...\n      SWAP1 \t\t\t_updateTopDelegates(delegate, ...\n      DUP4 \t\t\tdelegate\n      SWAP1 \t\t\tdelegate\n      PUSH [tag] 557\t\t\t_updateTopDelegates\n      JUMP \t\t\t_updateTopDelegates(delegate, ...\n    tag 838\t\t\t_updateTopDelegates(delegate, ...\n      JUMPDEST \t\t\t_updateTopDelegates(delegate, ...\n      PUSH 40\t\t\tDelegationRevoked(msg.sender)\n      MLOAD \t\t\tDelegationRevoked(msg.sender)\n      CALLER \t\t\tmsg.sender\n      SWAP1 \t\t\tmsg.sender\n      PUSH 6B2E7B08F80AEDC85DFABF602E4CD41CCF8A9CAA2961DD13719C71C3FF65BBC7\t\t\tDelegationRevoked(msg.sender)\n      SWAP1 \t\t\tDelegationRevoked(msg.sender)\n      PUSH 0\t\t\tDelegationRevoked(msg.sender)\n      SWAP1 \t\t\tDelegationRevoked(msg.sender)\n      LOG2 \t\t\tDelegationRevoked(msg.sender)\n      POP \t\t\t{\\n        if (activeDelegatio...\n      POP \t\t\t{\\n        if (activeDelegatio...\n      PUSH [tag] 536\t\t\t modifier onlyGovern\n      PUSH 1\t\t\t \n      PUSH 5\t\t\t}\\n\\n    \n      SSTORE \t\t\t}\\n\\n    enum ProposalT\n      JUMP \t\t\tsg.sender != owner()) revert N...\n    tag 337\t\t\tfunction stake(uint256 amount)...\n      JUMPDEST \t\t\tfunction stake(uint256 amount)...\n      PUSH [tag] 841\t\t\ttracts not allowed\");\n      PUSH [tag] 444\t\t\ttracts not allowed\"\n      JUMP \t\t\ttracts not allowed\");\n    tag 841\t\t\ttracts not allowed\");\n      JUMPDEST \t\t\ttracts not allowed\");\n      PUSH 9\t\t\temergencyPaused\n      SLOAD \t\t\temergencyPaused\n      PUSH 10000\t\t\temergencyPaused\n      SWAP1 \t\t\temergencyPaused\n      DIV \t\t\temergencyPaused\n      PUSH FF\t\t\temergencyPaused\n      AND \t\t\temergencyPaused\n      ISZERO \t\t\tif (emergencyPaused) revert Co...\n      PUSH [tag] 843\t\t\tif (emergencyPaused) revert Co...\n      JUMPI \t\t\tif (emergencyPaused) revert Co...\n      PUSH 40\t\t\tContractPaused()\n      MLOAD \t\t\tContractPaused()\n      PUSH AB35696F\t\t\t\n      PUSH E0\t\t\t\n      SHL \t\t\t\n      DUP2 \t\t\tContractPaused()\n      MSTORE \t\t\tContractPaused()\n      PUSH 4\t\t\tContractPaused()\n      ADD \t\t\tContractPaused()\n      PUSH 40\t\t\tContractPaused()\n      MLOAD \t\t\tContractPaused()\n      DUP1 \t\t\tContractPaused()\n      SWAP2 \t\t\tContractPaused()\n      SUB \t\t\tContractPaused()\n      SWAP1 \t\t\tContractPaused()\n      REVERT \t\t\tContractPaused()\n    tag 843\t\t\tif (emergencyPaused) revert Co...\n      JUMPDEST \t\t\tif (emergencyPaused) revert Co...\n      CALLER \t\t\tmsg.sender\n      ORIGIN \t\t\ttx.origin\n      EQ \t\t\tmsg.sender == tx.origin\n      PUSH [tag] 845\t\t\trequire(msg.sender == tx.origi...\n      JUMPI \t\t\trequire(msg.sender == tx.origi...\n      PUSH 40\t\t\trequire(msg.sender == tx.origi...\n      MLOAD \t\t\trequire(msg.sender == tx.origi...\n      PUSH 461BCD\t\t\t\n      PUSH E5\t\t\t\n      SHL \t\t\t\n      DUP2 \t\t\trequire(msg.sender == tx.origi...\n      MSTORE \t\t\trequire(msg.sender == tx.origi...\n      PUSH 4\t\t\trequire(msg.sender == tx.origi...\n      ADD \t\t\trequire(msg.sender == tx.origi...\n      PUSH [tag] 527\t\t\trequire(msg.sender == tx.origi...\n      SWAP1 \t\t\trequire(msg.sender == tx.origi...\n      PUSH [tag] 528\t\t\trequire(msg.sender == tx.origi...\n      JUMP \t\t\trequire(msg.sender == tx.origi...\n    tag 845\t\t\trequire(msg.sender == tx.origi...\n      JUMPDEST \t\t\trequire(msg.sender == tx.origi...\n      PUSH 3635C9ADC5DEA00000\t\t\t1000 * 1e18\n      DUP2 \t\t\tamount\n      LT \t\t\tamount < STAKING_MIN_AMOUNT\n      ISZERO \t\t\tif (amount < STAKING_MIN_AMOUN...\n      PUSH [tag] 848\t\t\tif (amount < STAKING_MIN_AMOUN...\n      JUMPI \t\t\tif (amount < STAKING_MIN_AMOUN...\n      PUSH 40\t\t\tBelowMinimumStake()\n      MLOAD \t\t\tBelowMinimumStake()\n      PUSH 8ECF3D03\t\t\t\n      PUSH E0\t\t\t\n      SHL \t\t\t\n      DUP2 \t\t\tBelowMinimumStake()\n      MSTORE \t\t\tBelowMinimumStake()\n      PUSH 4\t\t\tBelowMinimumStake()\n      ADD \t\t\tBelowMinimumStake()\n      PUSH 40\t\t\tBelowMinimumStake()\n      MLOAD \t\t\tBelowMinimumStake()\n      DUP1 \t\t\tBelowMinimumStake()\n      SWAP2 \t\t\tBelowMinimumStake()\n      SUB \t\t\tBelowMinimumStake()\n      SWAP1 \t\t\tBelowMinimumStake()\n      REVERT \t\t\tBelowMinimumStake()\n    tag 848\t\t\tif (amount < STAKING_MIN_AMOUN...\n      JUMPDEST \t\t\tif (amount < STAKING_MIN_AMOUN...\n      CALLER \t\t\tmsg.sender\n      PUSH 0\t\t\t.sender\n      SWAP1 \t\t\tact) revert NotAut\n      DUP2 \t\t\tact) revert NotAut\n      MSTORE \t\t\tact) revert NotAut\n      PUSH 20\t\t\tact) revert NotAut\n      DUP2 \t\t\tact) revert NotAut\n      SWAP1 \t\t\tact) revert NotAut\n      MSTORE \t\t\tact) revert NotAut\n      PUSH 40\t\t\tact) revert NotAut\n      SWAP1 \t\t\tact) revert NotAut\n      KECCAK256 \t\t\tact) revert NotAut\n      SLOAD \t\t\tact) revert NotAut\n      DUP2 \t\t\tamount\n      GT \t\t\t\n      ISZERO \t\t\tif (balanceOf(msg.sender) < am...\n      PUSH [tag] 850\t\t\tif (balanceOf(msg.sender) < am...\n      JUMPI \t\t\tif (balanceOf(msg.sender) < am...\n      PUSH 40\t\t\tInsufficientBalance()\n      MLOAD \t\t\tInsufficientBalance()\n      PUSH 1E9ACF17\t\t\t\n      PUSH E3\t\t\t\n      SHL \t\t\t\n      DUP2 \t\t\tInsufficientBalance()\n      MSTORE \t\t\tInsufficientBalance()\n      PUSH 4\t\t\tInsufficientBalance()\n      ADD \t\t\tInsufficientBalance()\n      PUSH 40\t\t\tInsufficientBalance()\n      MLOAD \t\t\tInsufficientBalance()\n      DUP1 \t\t\tInsufficientBalance()\n      SWAP2 \t\t\tInsufficientBalance()\n      SUB \t\t\tInsufficientBalance()\n      SWAP1 \t\t\tInsufficientBalance()\n      REVERT \t\t\tInsufficientBalance()\n    tag 850\t\t\tif (balanceOf(msg.sender) < am...\n      JUMPDEST \t\t\tif (balanceOf(msg.sender) < am...\n      CALLER \t\t\tmsg.sender\n      PUSH 0\t\t\tstakes[msg.sender]\n      SWAP1 \t\t\tstakes[msg.sender]\n      DUP2 \t\t\tstakes[msg.sender]\n      MSTORE \t\t\tstakes[msg.sender]\n      PUSH 29\t\t\tstakes\n      PUSH 20\t\t\tstakes[msg.sender]\n      MSTORE \t\t\tstakes[msg.sender]\n      PUSH 40\t\t\tstakes[msg.sender]\n      SWAP1 \t\t\tstakes[msg.sender]\n      KECCAK256 \t\t\tstakes[msg.sender]\n      PUSH 3\t\t\tstakes[msg.sender].active\n      ADD \t\t\tstakes[msg.sender].active\n      SLOAD \t\t\tstakes[msg.sender].active\n      PUSH FF\t\t\tstakes[msg.sender].active\n      AND \t\t\tstakes[msg.sender].active\n      ISZERO \t\t\tif (stakes[msg.sender].active)...\n      PUSH [tag] 851\t\t\tif (stakes[msg.sender].active)...\n      JUMPI \t\t\tif (stakes[msg.sender].active)...\n      PUSH 40\t\t\tStakeAlreadyActive()\n      MLOAD \t\t\tStakeAlreadyActive()\n      PUSH 3E560AFD\t\t\t\n      PUSH E1\t\t\t\n      SHL \t\t\t\n      DUP2 \t\t\tStakeAlreadyActive()\n      MSTORE \t\t\tStakeAlreadyActive()\n      PUSH 4\t\t\tStakeAlreadyActive()\n      ADD \t\t\tStakeAlreadyActive()\n      PUSH 40\t\t\tStakeAlreadyActive()\n      MLOAD \t\t\tStakeAlreadyActive()\n      DUP1 \t\t\tStakeAlreadyActive()\n      SWAP2 \t\t\tStakeAlreadyActive()\n      SUB \t\t\tStakeAlreadyActive()\n      SWAP1 \t\t\tStakeAlreadyActive()\n      REVERT \t\t\tStakeAlreadyActive()\n    tag 851\t\t\tif (stakes[msg.sender].active)...\n      JUMPDEST \t\t\tif (stakes[msg.sender].active)...\n      PUSH [tag] 852\t\t\ttransferFrom(msg.sender, addre...\n      CALLER \t\t\tmsg.sender\n      ADDRESS \t\t\tthis\n      DUP4 \t\t\tamount\n      PUSH [tag] 170\t\t\ttransferFrom\n      JUMP \t\t\ttransferFrom(msg.sender, addre...\n    tag 852\t\t\ttransferFrom(msg.sender, addre...\n      JUMPDEST \t\t\ttransferFrom(msg.sender, addre...\n      POP \t\t\t\n      PUSH 40\t\t\tStake(amount, block.timestamp,...\n      DUP1 \t\t\tStake(amount, block.timestamp,...\n      MLOAD \t\t\tStake(amount, block.timestamp,...\n      PUSH 80\t\t\tStake(amount, block.timestamp,...\n      DUP2 \t\t\tStake(amount, block.timestamp,...\n      ADD \t\t\tStake(amount, block.timestamp,...\n      DUP3 \t\t\tStake(amount, block.timestamp,...\n      MSTORE \t\t\tStake(amount, block.timestamp,...\n      DUP3 \t\t\tStake(amount, block.timestamp,...\n      DUP2 \t\t\tStake(amount, block.timestamp,...\n      MSTORE \t\t\tStake(amount, block.timestamp,...\n      TIMESTAMP \t\t\tblock.timestamp\n      PUSH 20\t\t\tStake(amount, block.timestamp,...\n      DUP1 \t\t\tStake(amount, block.timestamp,...\n      DUP4 \t\t\tStake(amount, block.timestamp,...\n      ADD \t\t\tStake(amount, block.timestamp,...\n      SWAP2 \t\t\tStake(amount, block.timestamp,...\n      DUP3 \t\t\tStake(amount, block.timestamp,...\n      MSTORE \t\t\tStake(amount, block.timestamp,...\n      PUSH 0\t\t\t\n      DUP4 \t\t\tStake(amount, block.timestamp,...\n      DUP6 \t\t\tStake(amount, block.timestamp,...\n      ADD \t\t\tStake(amount, block.timestamp,...\n      DUP2 \t\t\tStake(amount, block.timestamp,...\n      DUP2 \t\t\tStake(amount, block.timestamp,...\n      MSTORE \t\t\tStake(amount, block.timestamp,...\n      PUSH 1\t\t\ttrue\n      PUSH 60\t\t\tStake(amount, block.timestamp,...\n      DUP7 \t\t\tStake(amount, block.timestamp,...\n      ADD \t\t\tStake(amount, block.timestamp,...\n      DUP2 \t\t\tStake(amount, block.timestamp,...\n      DUP2 \t\t\tStake(amount, block.timestamp,...\n      MSTORE \t\t\tStake(amount, block.timestamp,...\n      CALLER \t\t\tmsg.sender\n      DUP5 \t\t\tstakes[msg.sender]\n      MSTORE \t\t\tstakes[msg.sender]\n      PUSH 29\t\t\tstakes\n      SWAP1 \t\t\tstakes[msg.sender]\n      SWAP5 \t\t\tstakes[msg.sender]\n      MSTORE \t\t\tstakes[msg.sender]\n      SWAP6 \t\t\tstakes[msg.sender]\n      DUP3 \t\t\tstakes[msg.sender]\n      KECCAK256 \t\t\tstakes[msg.sender]\n      SWAP5 \t\t\tstakes[msg.sender] = Stake(amo...\n      MLOAD \t\t\tstakes[msg.sender] = Stake(amo...\n      DUP6 \t\t\tstakes[msg.sender] = Stake(amo...\n      SSTORE \t\t\tstakes[msg.sender] = Stake(amo...\n      SWAP3 \t\t\tstakes[msg.sender] = Stake(amo...\n      MLOAD \t\t\tstakes[msg.sender] = Stake(amo...\n      SWAP5 \t\t\tstakes[msg.sender] = Stake(amo...\n      DUP5 \t\t\tstakes[msg.sender] = Stake(amo...\n      ADD \t\t\tstakes[msg.sender] = Stake(amo...\n      SWAP5 \t\t\tstakes[msg.sender] = Stake(amo...\n      SWAP1 \t\t\tstakes[msg.sender] = Stake(amo...\n      SWAP5 \t\t\tstakes[msg.sender] = Stake(amo...\n      SSTORE \t\t\tstakes[msg.sender] = Stake(amo...\n      SWAP1 \t\t\tstakes[msg.sender] = Stake(amo...\n      MLOAD \t\t\tstakes[msg.sender] = Stake(amo...\n      PUSH 2\t\t\tstakes[msg.sender] = Stake(amo...\n      DUP4 \t\t\tstakes[msg.sender] = Stake(amo...\n      ADD \t\t\tstakes[msg.sender] = Stake(amo...\n      SSTORE \t\t\tstakes[msg.sender] = Stake(amo...\n      MLOAD \t\t\tstakes[msg.sender] = Stake(amo...\n      PUSH 3\t\t\tstakes[msg.sender] = Stake(amo...\n      SWAP1 \t\t\tstakes[msg.sender] = Stake(amo...\n      SWAP2 \t\t\tstakes[msg.sender] = Stake(amo...\n      ADD \t\t\tstakes[msg.sender] = Stake(amo...\n      DUP1 \t\t\tstakes[msg.sender] = Stake(amo...\n      SLOAD \t\t\tstakes[msg.sender] = Stake(amo...\n      PUSH FF\t\t\t\n      NOT \t\t\t\n      AND \t\t\tstakes[msg.sender] = Stake(amo...\n      SWAP2 \t\t\tstakes[msg.sender] = Stake(amo...\n      ISZERO \t\t\tstakes[msg.sender] = Stake(amo...\n      ISZERO \t\t\tstakes[msg.sender] = Stake(amo...\n      SWAP2 \t\t\tstakes[msg.sender] = Stake(amo...\n      SWAP1 \t\t\tstakes[msg.sender] = Stake(amo...\n      SWAP2 \t\t\tstakes[msg.sender] = Stake(amo...\n      OR \t\t\tstakes[msg.sender] = Stake(amo...\n      SWAP1 \t\t\tstakes[msg.sender] = Stake(amo...\n      SSTORE \t\t\tstakes[msg.sender] = Stake(amo...\n      PUSH 11\t\t\ttotalStaked\n      DUP1 \t\t\ttotalStaked += amount\n      SLOAD \t\t\ttotalStaked += amount\n      DUP4 \t\t\tStake(amount, block.timestamp,...\n      SWAP3 \t\t\tStake(amount, block.timestamp,...\n      SWAP1 \t\t\t\n      PUSH [tag] 853\t\t\ttotalStaked += amount\n      SWAP1 \t\t\ttotalStaked += amount\n      DUP5 \t\t\tStake(amount, block.timestamp,...\n      SWAP1 \t\t\tStake(amount, block.timestamp,...\n      PUSH [tag] 452\t\t\ttotalStaked += amount\n      JUMP \t\t\ttotalStaked += amount\n    tag 853\t\t\ttotalStaked += amount\n      JUMPDEST \t\t\ttotalStaked += amount\n      SWAP1 \t\t\ttotalStaked += amount\n      SWAP2 \t\t\ttotalStaked += amount\n      SSTORE \t\t\ttotalStaked += amount\n      POP \t\t\t\n      POP \t\t\t\n      PUSH 40\t\t\tStaked(msg.sender, amount, blo...\n      DUP1 \t\t\tStaked(msg.sender, amount, blo...\n      MLOAD \t\t\tStaked(msg.sender, amount, blo...\n      DUP3 \t\t\t1_000_000_000 * 1e18) rev\n      DUP2 \t\t\t1_000_000_000 * 1e18) rev\n      MSTORE \t\t\t1_000_000_000 * 1e18) rev\n      TIMESTAMP \t\t\tblock.timestamp\n      PUSH 20\t\t\t()\n      DUP3 \t\t\tContractBalance();\n      ADD \t\t\tContractBalance();\n      MSTORE \t\t\tficientContractBalance();\\n   ...\n      CALLER \t\t\tmsg.sender\n      SWAP2 \t\t\tmsg.sender\n      PUSH 1449C6DD7851ABC30ABF37F57715F492010519147CC2652FBC38202C18A6EE90\t\t\tStaked(msg.sender, amount, blo...\n      SWAP2 \t\t\tStaked(msg.sender, amount, blo...\n      ADD \t\t\tbalanceOf(address(\n      PUSH 40\t\t\tStaked(msg.sender, amount, blo...\n      MLOAD \t\t\tStaked(msg.sender, amount, blo...\n      DUP1 \t\t\tStaked(msg.sender, amount, blo...\n      SWAP2 \t\t\tStaked(msg.sender, amount, blo...\n      SUB \t\t\tStaked(msg.sender, amount, blo...\n      SWAP1 \t\t\tStaked(msg.sender, amount, blo...\n      LOG2 \t\t\tStaked(msg.sender, amount, blo...\n      PUSH [tag] 511\t\t\t modifier onlyGovern\n      PUSH 1\t\t\t \n      PUSH 5\t\t\t}\\n\\n    \n      SSTORE \t\t\t}\\n\\n    enum ProposalT\n      JUMP \t\t\tsg.sender != owner()) revert N...\n    tag 340\t\t\tfunction transfer(address reci...\n      JUMPDEST \t\t\tfunction transfer(address reci...\n      PUSH 9\t\t\temergencyPaused\n      SLOAD \t\t\temergencyPaused\n      PUSH 0\t\t\tbool\n      SWAP1 \t\t\tbool\n      PUSH 10000\t\t\temergencyPaused\n      SWAP1 \t\t\temergencyPaused\n      DIV \t\t\temergencyPaused\n      PUSH FF\t\t\temergencyPaused\n      AND \t\t\temergencyPaused\n      ISZERO \t\t\tif (emergencyPaused) revert Co...\n      PUSH [tag] 857\t\t\tif (emergencyPaused) revert Co...\n      JUMPI \t\t\tif (emergencyPaused) revert Co...\n      PUSH 40\t\t\tContractPaused()\n      MLOAD \t\t\tContractPaused()\n      PUSH AB35696F\t\t\t\n      PUSH E0\t\t\t\n      SHL \t\t\t\n      DUP2 \t\t\tContractPaused()\n      MSTORE \t\t\tContractPaused()\n      PUSH 4\t\t\tContractPaused()\n      ADD \t\t\tContractPaused()\n      PUSH 40\t\t\tContractPaused()\n      MLOAD \t\t\tContractPaused()\n      DUP1 \t\t\tContractPaused()\n      SWAP2 \t\t\tContractPaused()\n      SUB \t\t\tContractPaused()\n      SWAP1 \t\t\tContractPaused()\n      REVERT \t\t\tContractPaused()\n    tag 857\t\t\tif (emergencyPaused) revert Co...\n      JUMPDEST \t\t\tif (emergencyPaused) revert Co...\n      PUSH 1\t\t\t\n      PUSH 1\t\t\t\n      PUSH A0\t\t\t\n      SHL \t\t\t\n      SUB \t\t\t\n      DUP4 \t\t\trecipient == address(0)\n      AND \t\t\trecipient == address(0)\n      PUSH [tag] 859\t\t\tif (recipient == address(0)) r...\n      JUMPI \t\t\tif (recipient == address(0)) r...\n      PUSH 40\t\t\tInvalidRecipient()\n      MLOAD \t\t\tInvalidRecipient()\n      PUSH 4E469669\t\t\t\n      PUSH E1\t\t\t\n      SHL \t\t\t\n      DUP2 \t\t\tInvalidRecipient()\n      MSTORE \t\t\tInvalidRecipient()\n      PUSH 4\t\t\tInvalidRecipient()\n      ADD \t\t\tInvalidRecipient()\n      PUSH 40\t\t\tInvalidRecipient()\n      MLOAD \t\t\tInvalidRecipient()\n      DUP1 \t\t\tInvalidRecipient()\n      SWAP2 \t\t\tInvalidRecipient()\n      SUB \t\t\tInvalidRecipient()\n      SWAP1 \t\t\tInvalidRecipient()\n      REVERT \t\t\tInvalidRecipient()\n    tag 859\t\t\tif (recipient == address(0)) r...\n      JUMPDEST \t\t\tif (recipient == address(0)) r...\n      PUSH 0\t\t\tbool success\n      PUSH [tag] 860\t\t\tsuper.transfer(recipient, amou...\n      DUP5 \t\t\trecipient\n      DUP5 \t\t\tamount\n      PUSH [tag] 861\t\t\tsuper.transfer\n      JUMP \t\t\tsuper.transfer(recipient, amou...\n    tag 860\t\t\tsuper.transfer(recipient, amou...\n      JUMPDEST \t\t\tsuper.transfer(recipient, amou...\n      SWAP1 \t\t\tbool success = super.transfer(...\n      POP \t\t\tbool success = super.transfer(...\n      DUP1 \t\t\tsuccess\n      DUP1 \t\t\tsuccess && !burnPhaseActive\n      ISZERO \t\t\tsuccess && !burnPhaseActive\n      PUSH [tag] 862\t\t\tsuccess && !burnPhaseActive\n      JUMPI \t\t\tsuccess && !burnPhaseActive\n      POP \t\t\t\n      PUSH 9\t\t\tburnPhaseActive\n      SLOAD \t\t\tburnPhaseActive\n      PUSH FF\t\t\tburnPhaseActive\n      AND \t\t\tburnPhaseActive\n      ISZERO \t\t\t!burnPhaseActive\n    tag 862\t\t\tsuccess && !burnPhaseActive\n      JUMPDEST \t\t\tsuccess && !burnPhaseActive\n      ISZERO \t\t\tif (success && !burnPhaseActiv...\n      PUSH [tag] 566\t\t\tif (success && !burnPhaseActiv...\n      JUMPI \t\t\tif (success && !burnPhaseActiv...\n      PUSH [tag] 566\t\t\tcheckActivation()\n      PUSH [tag] 227\t\t\tcheckActivation\n      JUMP \t\t\tcheckActivation()\n    tag 343\t\t\tfunction getIgnitionParticipan...\n      JUMPDEST \t\t\tfunction getIgnitionParticipan...\n      PUSH 60\t\t\taddress[] memory\n      PUSH 2D\t\t\tignitionParticipants\n      DUP1 \t\t\treturn ignitionParticipants\n      SLOAD \t\t\treturn ignitionParticipants\n      DUP1 \t\t\treturn ignitionParticipants\n      PUSH 20\t\t\treturn ignitionParticipants\n      MUL \t\t\treturn ignitionParticipants\n      PUSH 20\t\t\treturn ignitionParticipants\n      ADD \t\t\treturn ignitionParticipants\n      PUSH 40\t\t\treturn ignitionParticipants\n      MLOAD \t\t\treturn ignitionParticipants\n      SWAP1 \t\t\treturn ignitionParticipants\n      DUP2 \t\t\treturn ignitionParticipants\n      ADD \t\t\treturn ignitionParticipants\n      PUSH 40\t\t\treturn ignitionParticipants\n      MSTORE \t\t\treturn ignitionParticipants\n      DUP1 \t\t\treturn ignitionParticipants\n      SWAP3 \t\t\treturn ignitionParticipants\n      SWAP2 \t\t\treturn ignitionParticipants\n      SWAP1 \t\t\treturn ignitionParticipants\n      DUP2 \t\t\treturn ignitionParticipants\n      DUP2 \t\t\treturn ignitionParticipants\n      MSTORE \t\t\treturn ignitionParticipants\n      PUSH 20\t\t\treturn ignitionParticipants\n      ADD \t\t\treturn ignitionParticipants\n      DUP3 \t\t\treturn ignitionParticipants\n      DUP1 \t\t\treturn ignitionParticipants\n      SLOAD \t\t\treturn ignitionParticipants\n      DUP1 \t\t\treturn ignitionParticipants\n      ISZERO \t\t\treturn ignitionParticipants\n      PUSH [tag] 434\t\t\treturn ignitionParticipants\n      JUMPI \t\t\treturn ignitionParticipants\n      PUSH 20\t\t\treturn ignitionParticipants\n      MUL \t\t\treturn ignitionParticipants\n      DUP3 \t\t\treturn ignitionParticipants\n      ADD \t\t\treturn ignitionParticipants\n      SWAP2 \t\t\treturn ignitionParticipants\n      SWAP1 \t\t\treturn ignitionParticipants\n      PUSH 0\t\t\treturn ignitionParticipants\n      MSTORE \t\t\treturn ignitionParticipants\n      PUSH 20\t\t\treturn ignitionParticipants\n      PUSH 0\t\t\treturn ignitionParticipants\n      KECCAK256 \t\t\treturn ignitionParticipants\n      SWAP1 \t\t\treturn ignitionParticipants\n      DUP2 \t\t\treturn ignitionParticipants\n      SLOAD \t\t\treturn ignitionParticipants\n      PUSH 1\t\t\t\n      PUSH 1\t\t\t\n      PUSH A0\t\t\t\n      SHL \t\t\t\n      SUB \t\t\t\n      AND \t\t\treturn ignitionParticipants\n      DUP2 \t\t\treturn ignitionParticipants\n      MSTORE \t\t\treturn ignitionParticipants\n      PUSH 1\t\t\treturn ignitionParticipants\n      SWAP1 \t\t\treturn ignitionParticipants\n      SWAP2 \t\t\treturn ignitionParticipants\n      ADD \t\t\treturn ignitionParticipants\n      SWAP1 \t\t\treturn ignitionParticipants\n      PUSH 20\t\t\treturn ignitionParticipants\n      ADD \t\t\treturn ignitionParticipants\n      DUP1 \t\t\treturn ignitionParticipants\n      DUP4 \t\t\treturn ignitionParticipants\n      GT \t\t\treturn ignitionParticipants\n      PUSH [tag] 784\t\t\treturn ignitionParticipants\n      JUMPI \t\t\treturn ignitionParticipants\n      POP \t\t\treturn ignitionParticipants\n      POP \t\t\treturn ignitionParticipants\n      POP \t\t\treturn ignitionParticipants\n      POP \t\t\treturn ignitionParticipants\n      POP \t\t\treturn ignitionParticipants\n      SWAP1 \t\t\treturn ignitionParticipants\n      POP \t\t\treturn ignitionParticipants\n      SWAP1 \t\t\tfunction getIgnitionParticipan...\n      JUMP \t\t\tfunction getIgnitionParticipan...\n    tag 353\t\t\tfunction transferBL2P(address ...\n      JUMPDEST \t\t\tfunction transferBL2P(address ...\n      PUSH [tag] 869\t\t\ttracts not allowed\");\n      PUSH [tag] 444\t\t\ttracts not allowed\"\n      JUMP \t\t\ttracts not allowed\");\n    tag 869\t\t\ttracts not allowed\");\n      JUMPDEST \t\t\ttracts not allowed\");\n      PUSH 9\t\t\temergencyPaused\n      SLOAD \t\t\temergencyPaused\n      PUSH 10000\t\t\temergencyPaused\n      SWAP1 \t\t\temergencyPaused\n      DIV \t\t\temergencyPaused\n      PUSH FF\t\t\temergencyPaused\n      AND \t\t\temergencyPaused\n      ISZERO \t\t\tif (emergencyPaused) revert Co...\n      PUSH [tag] 871\t\t\tif (emergencyPaused) revert Co...\n      JUMPI \t\t\tif (emergencyPaused) revert Co...\n      PUSH 40\t\t\tContractPaused()\n      MLOAD \t\t\tContractPaused()\n      PUSH AB35696F\t\t\t\n      PUSH E0\t\t\t\n      SHL \t\t\t\n      DUP2 \t\t\tContractPaused()\n      MSTORE \t\t\tContractPaused()\n      PUSH 4\t\t\tContractPaused()\n      ADD \t\t\tContractPaused()\n      PUSH 40\t\t\tContractPaused()\n      MLOAD \t\t\tContractPaused()\n      DUP1 \t\t\tContractPaused()\n      SWAP2 \t\t\tContractPaused()\n      SUB \t\t\tContractPaused()\n      SWAP1 \t\t\tContractPaused()\n      REVERT \t\t\tContractPaused()\n    tag 871\t\t\tif (emergencyPaused) revert Co...\n      JUMPDEST \t\t\tif (emergencyPaused) revert Co...\n      PUSH 1\t\t\t\n      PUSH 1\t\t\t\n      PUSH A0\t\t\t\n      SHL \t\t\t\n      SUB \t\t\t\n      DUP3 \t\t\tto == address(0)\n      AND \t\t\tto == address(0)\n      ISZERO \t\t\tto == address(0)\n      DUP1 \t\t\tto == address(0)\n      PUSH [tag] 873\t\t\tto == address(0) || to == msg....\n      JUMPI \t\t\tto == address(0) || to == msg....\n      POP \t\t\t\n      PUSH 1\t\t\t\n      PUSH 1\t\t\t\n      PUSH A0\t\t\t\n      SHL \t\t\t\n      SUB \t\t\t\n      DUP3 \t\t\tto == msg.sender\n      AND \t\t\tto == msg.sender\n      CALLER \t\t\tmsg.sender\n      EQ \t\t\tto == msg.sender\n    tag 873\t\t\tto == address(0) || to == msg....\n      JUMPDEST \t\t\tto == address(0) || to == msg....\n      ISZERO \t\t\tif (to == address(0) || to == ...\n      PUSH [tag] 874\t\t\tif (to == address(0) || to == ...\n      JUMPI \t\t\tif (to == address(0) || to == ...\n      PUSH 40\t\t\tInvalidTransferConditions()\n      MLOAD \t\t\tInvalidTransferConditions()\n      PUSH 1437F47\t\t\t\n      PUSH E3\t\t\t\n      SHL \t\t\t\n      DUP2 \t\t\tInvalidTransferConditions()\n      MSTORE \t\t\tInvalidTransferConditions()\n      PUSH 4\t\t\tInvalidTransferConditions()\n      ADD \t\t\tInvalidTransferConditions()\n      PUSH 40\t\t\tInvalidTransferConditions()\n      MLOAD \t\t\tInvalidTransferConditions()\n      DUP1 \t\t\tInvalidTransferConditions()\n      SWAP2 \t\t\tInvalidTransferConditions()\n      SUB \t\t\tInvalidTransferConditions()\n      SWAP1 \t\t\tInvalidTransferConditions()\n      REVERT \t\t\tInvalidTransferConditions()\n    tag 874\t\t\tif (to == address(0) || to == ...\n      JUMPDEST \t\t\tif (to == address(0) || to == ...\n      DUP1 \t\t\tamount == 0\n      ISZERO \t\t\tamount == 0\n      DUP1 \t\t\tamount == 0\n      PUSH [tag] 875\t\t\tamount == 0 || amount > getRem...\n      JUMPI \t\t\tamount == 0 || amount > getRem...\n      POP \t\t\tamount == 0 || amount > getRem...\n      PUSH [tag] 876\t\t\tgetRemainingValidBL2P(msg.send...\n      CALLER \t\t\tmsg.sender\n      PUSH [tag] 356\t\t\tgetRemainingValidBL2P\n      JUMP \t\t\tgetRemainingValidBL2P(msg.send...\n    tag 876\t\t\tgetRemainingValidBL2P(msg.send...\n      JUMPDEST \t\t\tgetRemainingValidBL2P(msg.send...\n      DUP2 \t\t\tamount\n      GT \t\t\tamount > getRemainingValidBL2P...\n    tag 875\t\t\tamount == 0 || amount > getRem...\n      JUMPDEST \t\t\tamount == 0 || amount > getRem...\n      ISZERO \t\t\tif (amount == 0 || amount > ge...\n      PUSH [tag] 877\t\t\tif (amount == 0 || amount > ge...\n      JUMPI \t\t\tif (amount == 0 || amount > ge...\n      PUSH 40\t\t\tAmountZero()\n      MLOAD \t\t\tAmountZero()\n      PUSH 65E52D51\t\t\t\n      PUSH E1\t\t\t\n      SHL \t\t\t\n      DUP2 \t\t\tAmountZero()\n      MSTORE \t\t\tAmountZero()\n      PUSH 4\t\t\tAmountZero()\n      ADD \t\t\tAmountZero()\n      PUSH 40\t\t\tAmountZero()\n      MLOAD \t\t\tAmountZero()\n      DUP1 \t\t\tAmountZero()\n      SWAP2 \t\t\tAmountZero()\n      SUB \t\t\tAmountZero()\n      SWAP1 \t\t\tAmountZero()\n      REVERT \t\t\tAmountZero()\n    tag 877\t\t\tif (amount == 0 || amount > ge...\n      JUMPDEST \t\t\tif (amount == 0 || amount > ge...\n      PUSH [tag] 878\t\t\tupdateBL2PMaturity(msg.sender)\n      CALLER \t\t\tmsg.sender\n      PUSH [tag] 284\t\t\tupdateBL2PMaturity\n      JUMP \t\t\tupdateBL2PMaturity(msg.sender)\n    tag 878\t\t\tupdateBL2PMaturity(msg.sender)\n      JUMPDEST \t\t\tupdateBL2PMaturity(msg.sender)\n      CALLER \t\t\tmsg.sender\n      PUSH 0\t\t\tbl2pMeta[msg.sender]\n      SWAP1 \t\t\tbl2pMeta[msg.sender]\n      DUP2 \t\t\tbl2pMeta[msg.sender]\n      MSTORE \t\t\tbl2pMeta[msg.sender]\n      PUSH 25\t\t\tbl2pMeta\n      PUSH 20\t\t\tbl2pMeta[msg.sender]\n      MSTORE \t\t\tbl2pMeta[msg.sender]\n      PUSH 40\t\t\tbl2pMeta[msg.sender]\n      SWAP1 \t\t\tbl2pMeta[msg.sender]\n      KECCAK256 \t\t\tbl2pMeta[msg.sender]\n      PUSH 1\t\t\tbl2pMeta[msg.sender].matured\n      ADD \t\t\tbl2pMeta[msg.sender].matured\n      SLOAD \t\t\tbl2pMeta[msg.sender].matured\n      PUSH FF\t\t\tbl2pMeta[msg.sender].matured\n      AND \t\t\tbl2pMeta[msg.sender].matured\n      PUSH [tag] 879\t\t\tif (!bl2pMeta[msg.sender].matu...\n      JUMPI \t\t\tif (!bl2pMeta[msg.sender].matu...\n      PUSH 40\t\t\tBL2PNotMatured()\n      MLOAD \t\t\tBL2PNotMatured()\n      PUSH 1878F081\t\t\t\n      PUSH E0\t\t\t\n      SHL \t\t\t\n      DUP2 \t\t\tBL2PNotMatured()\n      MSTORE \t\t\tBL2PNotMatured()\n      PUSH 4\t\t\tBL2PNotMatured()\n      ADD \t\t\tBL2PNotMatured()\n      PUSH 40\t\t\tBL2PNotMatured()\n      MLOAD \t\t\tBL2PNotMatured()\n      DUP1 \t\t\tBL2PNotMatured()\n      SWAP2 \t\t\tBL2PNotMatured()\n      SUB \t\t\tBL2PNotMatured()\n      SWAP1 \t\t\tBL2PNotMatured()\n      REVERT \t\t\tBL2PNotMatured()\n    tag 879\t\t\tif (!bl2pMeta[msg.sender].matu...\n      JUMPDEST \t\t\tif (!bl2pMeta[msg.sender].matu...\n      PUSH [tag] 880\t\t\tIERC20(address(this)).safeTran...\n      ADDRESS \t\t\tthis\n      DUP4 \t\t\tto\n      DUP4 \t\t\tamount\n      PUSH [tag] 475\t\t\tIERC20(address(this)).safeTran...\n      JUMP \t\t\tIERC20(address(this)).safeTran...\n    tag 880\t\t\tIERC20(address(this)).safeTran...\n      JUMPDEST \t\t\tIERC20(address(this)).safeTran...\n      PUSH 40\t\t\tBL2PTransferred(msg.sender, to...\n      MLOAD \t\t\tBL2PTransferred(msg.sender, to...\n      DUP2 \t\t\tNotAuthorized();\\n    erro\n      DUP2 \t\t\tNotAuthorized();\\n    erro\n      MSTORE \t\t\tNotAuthorized();\\n    erro\n      PUSH 1\t\t\t\n      PUSH 1\t\t\t\n      PUSH A0\t\t\t\n      SHL \t\t\t\n      SUB \t\t\t\n      DUP4 \t\t\tBL2PTransferred(msg.sender, to...\n      AND \t\t\tBL2PTransferred(msg.sender, to...\n      SWAP1 \t\t\tBL2PTransferred(msg.sender, to...\n      CALLER \t\t\tmsg.sender\n      SWAP1 \t\t\tmsg.sender\n      PUSH 1E50CDF36B7821A0EA2C0889B9A5426558CFFA8EB685D3F224BB788FAAE557B1\t\t\tBL2PTransferred(msg.sender, to...\n      SWAP1 \t\t\tBL2PTransferred(msg.sender, to...\n      PUSH 20\t\t\t;\\n\n      ADD \t\t\ternanceNotSet();\\n \n      PUSH 40\t\t\tBL2PTransferred(msg.sender, to...\n      MLOAD \t\t\tBL2PTransferred(msg.sender, to...\n      DUP1 \t\t\tBL2PTransferred(msg.sender, to...\n      SWAP2 \t\t\tBL2PTransferred(msg.sender, to...\n      SUB \t\t\tBL2PTransferred(msg.sender, to...\n      SWAP1 \t\t\tBL2PTransferred(msg.sender, to...\n      LOG3 \t\t\tBL2PTransferred(msg.sender, to...\n      PUSH [tag] 658\t\t\t modifier onlyGovern\n      PUSH 1\t\t\t \n      PUSH 5\t\t\t}\\n\\n    \n      SSTORE \t\t\t}\\n\\n    enum ProposalT\n      JUMP \t\t\tsg.sender != owner()) revert N...\n    tag 356\t\t\tfunction getRemainingValidBL2P...\n      JUMPDEST \t\t\tfunction getRemainingValidBL2P...\n      PUSH 9\t\t\tbl2pRevealed\n      SLOAD \t\t\tbl2pRevealed\n      PUSH 0\t\t\tuint256\n      SWAP1 \t\t\tuint256\n      PUSH 100\t\t\tbl2pRevealed\n      SWAP1 \t\t\tbl2pRevealed\n      DIV \t\t\tbl2pRevealed\n      PUSH FF\t\t\tbl2pRevealed\n      AND \t\t\tbl2pRevealed\n      ISZERO \t\t\t!bl2pRevealed\n      DUP1 \t\t\t!bl2pRevealed\n      PUSH [tag] 884\t\t\t!bl2pRevealed || bl2pClaimed[u...\n      JUMPI \t\t\t!bl2pRevealed || bl2pClaimed[u...\n      POP \t\t\t\n      PUSH 1\t\t\t\n      PUSH 1\t\t\t\n      PUSH A0\t\t\t\n      SHL \t\t\t\n      SUB \t\t\t\n      DUP3 \t\t\tbl2pClaimed[user]\n      AND \t\t\tbl2pClaimed[user]\n      PUSH 0\t\t\tbl2pClaimed[user]\n      SWAP1 \t\t\tbl2pClaimed[user]\n      DUP2 \t\t\tbl2pClaimed[user]\n      MSTORE \t\t\tbl2pClaimed[user]\n      PUSH 20\t\t\tbl2pClaimed\n      DUP1 \t\t\tbl2pClaimed[user]\n      MSTORE \t\t\tbl2pClaimed[user]\n      PUSH 40\t\t\tbl2pClaimed[user]\n      SWAP1 \t\t\tbl2pClaimed[user]\n      KECCAK256 \t\t\tbl2pClaimed[user]\n      SLOAD \t\t\tbl2pClaimed[user]\n      ISZERO \t\t\tbl2pClaimed[user] == 0\n    tag 884\t\t\t!bl2pRevealed || bl2pClaimed[u...\n      JUMPDEST \t\t\t!bl2pRevealed || bl2pClaimed[u...\n      ISZERO \t\t\tif (!bl2pRevealed || bl2pClaim...\n      PUSH [tag] 885\t\t\tif (!bl2pRevealed || bl2pClaim...\n      JUMPI \t\t\tif (!bl2pRevealed || bl2pClaim...\n      POP \t\t\t\n      PUSH 0\t\t\t0\n      SWAP2 \t\t\t0\n      SWAP1 \t\t\tfunction getRemainingValidBL2P...\n      POP \t\t\t\n      JUMP \t\t\tfunction getRemainingValidBL2P...\n    tag 885\t\t\tif (!bl2pRevealed || bl2pClaim...\n      JUMPDEST \t\t\tif (!bl2pRevealed || bl2pClaim...\n      PUSH 1\t\t\t\n      PUSH 1\t\t\t\n      PUSH A0\t\t\t\n      SHL \t\t\t\n      SUB \t\t\t\n      DUP3 \t\t\tbl2pMeta[user]\n      AND \t\t\tbl2pMeta[user]\n      PUSH 0\t\t\tBL2PMetadata memory meta\n      SWAP1 \t\t\tbl2pMeta[user]\n      DUP2 \t\t\tbl2pMeta[user]\n      MSTORE \t\t\tbl2pMeta[user]\n      PUSH 25\t\t\tbl2pMeta\n      PUSH 20\t\t\tbl2pMeta[user]\n      SWAP1 \t\t\tbl2pMeta[user]\n      DUP2 \t\t\tbl2pMeta[user]\n      MSTORE \t\t\tbl2pMeta[user]\n      PUSH 40\t\t\tbl2pMeta[user]\n      SWAP2 \t\t\tbl2pMeta[user]\n      DUP3 \t\t\tbl2pMeta[user]\n      SWAP1 \t\t\tbl2pMeta[user]\n      KECCAK256 \t\t\tbl2pMeta[user]\n      DUP3 \t\t\tBL2PMetadata memory meta = bl2...\n      MLOAD \t\t\tBL2PMetadata memory meta = bl2...\n      DUP1 \t\t\tBL2PMetadata memory meta = bl2...\n      DUP5 \t\t\tBL2PMetadata memory meta = bl2...\n      ADD \t\t\tBL2PMetadata memory meta = bl2...\n      SWAP1 \t\t\tBL2PMetadata memory meta = bl2...\n      SWAP4 \t\t\tBL2PMetadata memory meta = bl2...\n      MSTORE \t\t\tBL2PMetadata memory meta = bl2...\n      DUP1 \t\t\tBL2PMetadata memory meta = bl2...\n      SLOAD \t\t\tBL2PMetadata memory meta = bl2...\n      DUP1 \t\t\tBL2PMetadata memory meta = bl2...\n      DUP5 \t\t\tBL2PMetadata memory meta = bl2...\n      MSTORE \t\t\tBL2PMetadata memory meta = bl2...\n      PUSH 1\t\t\tBL2PMetadata memory meta = bl2...\n      SWAP1 \t\t\tBL2PMetadata memory meta = bl2...\n      SWAP2 \t\t\tBL2PMetadata memory meta = bl2...\n      ADD \t\t\tBL2PMetadata memory meta = bl2...\n      SLOAD \t\t\tBL2PMetadata memory meta = bl2...\n      PUSH FF\t\t\tBL2PMetadata memory meta = bl2...\n      AND \t\t\tBL2PMetadata memory meta = bl2...\n      ISZERO \t\t\tBL2PMetadata memory meta = bl2...\n      ISZERO \t\t\tBL2PMetadata memory meta = bl2...\n      SWAP2 \t\t\tBL2PMetadata memory meta = bl2...\n      DUP4 \t\t\tBL2PMetadata memory meta = bl2...\n      ADD \t\t\tBL2PMetadata memory meta = bl2...\n      SWAP2 \t\t\tBL2PMetadata memory meta = bl2...\n      SWAP1 \t\t\tBL2PMetadata memory meta = bl2...\n      SWAP2 \t\t\tBL2PMetadata memory meta = bl2...\n      MSTORE \t\t\tBL2PMetadata memory meta = bl2...\n      PUSH 1\t\t\t\n      PUSH 1\t\t\t\n      PUSH 80\t\t\t\n      SHL \t\t\t\n      SUB \t\t\t\n      AND \t\t\tmeta.birthAndExpiry & ((1 << 1...\n      TIMESTAMP \t\t\tblock.timestamp\n      DUP2 \t\t\tblock.timestamp >= expiryBlock\n      GT \t\t\t\n      PUSH [tag] 886\t\t\tif (block.timestamp >= expiryB...\n      JUMPI \t\t\tif (block.timestamp >= expiryB...\n      POP \t\t\t\n      PUSH 0\t\t\t0\n      SWAP4 \t\t\t0\n      SWAP3 \t\t\tfunction getRemainingValidBL2P...\n      POP \t\t\t\n      POP \t\t\t\n      POP \t\t\t\n      JUMP \t\t\tfunction getRemainingValidBL2P...\n    tag 886\t\t\tif (block.timestamp >= expiryB...\n      JUMPDEST \t\t\tif (block.timestamp >= expiryB...\n      PUSH 1\t\t\t\n      PUSH 1\t\t\t\n      PUSH A0\t\t\t\n      SHL \t\t\t\n      SUB \t\t\t\n      DUP5 \t\t\tlastVoteTimestamp[user]\n      AND \t\t\tlastVoteTimestamp[user]\n      PUSH 0\t\t\tuint256 inactivityBlocks\n      SWAP1 \t\t\tlastVoteTimestamp[user]\n      DUP2 \t\t\tlastVoteTimestamp[user]\n      MSTORE \t\t\tlastVoteTimestamp[user]\n      PUSH 26\t\t\tlastVoteTimestamp\n      PUSH 20\t\t\tlastVoteTimestamp[user]\n      MSTORE \t\t\tlastVoteTimestamp[user]\n      PUSH 40\t\t\tlastVoteTimestamp[user]\n      DUP2 \t\t\tlastVoteTimestamp[user]\n      KECCAK256 \t\t\tlastVoteTimestamp[user]\n      SLOAD \t\t\tlastVoteTimestamp[user]\n      TIMESTAMP \t\t\tblock.timestamp\n      GT \t\t\tblock.timestamp > lastVoteTime...\n      PUSH [tag] 887\t\t\tblock.timestamp > lastVoteTime...\n      JUMPI \t\t\tblock.timestamp > lastVoteTime...\n      PUSH 0\t\t\t0\n      PUSH [tag] 889\t\t\tblock.timestamp > lastVoteTime...\n      JUMP \t\t\tblock.timestamp > lastVoteTime...\n    tag 887\t\t\tblock.timestamp > lastVoteTime...\n      JUMPDEST \t\t\tblock.timestamp > lastVoteTime...\n      PUSH 1\t\t\t\n      PUSH 1\t\t\t\n      PUSH A0\t\t\t\n      SHL \t\t\t\n      SUB \t\t\t\n      DUP6 \t\t\tlastVoteTimestamp[user]\n      AND \t\t\tlastVoteTimestamp[user]\n      PUSH 0\t\t\tlastVoteTimestamp[user]\n      SWAP1 \t\t\tlastVoteTimestamp[user]\n      DUP2 \t\t\tlastVoteTimestamp[user]\n      MSTORE \t\t\tlastVoteTimestamp[user]\n      PUSH 26\t\t\tlastVoteTimestamp\n      PUSH 20\t\t\tlastVoteTimestamp[user]\n      MSTORE \t\t\tlastVoteTimestamp[user]\n      PUSH 40\t\t\tlastVoteTimestamp[user]\n      SWAP1 \t\t\tlastVoteTimestamp[user]\n      KECCAK256 \t\t\tlastVoteTimestamp[user]\n      SLOAD \t\t\tlastVoteTimestamp[user]\n      PUSH [tag] 889\t\t\tblock.timestamp - lastVoteTime...\n      SWAP1 \t\t\tblock.timestamp - lastVoteTime...\n      TIMESTAMP \t\t\tblock.timestamp\n      PUSH [tag] 477\t\t\tblock.timestamp - lastVoteTime...\n      JUMP \t\t\tblock.timestamp - lastVoteTime...\n    tag 889\t\t\tblock.timestamp - lastVoteTime...\n      JUMPDEST \t\t\tblock.timestamp - lastVoteTime...\n      SWAP1 \t\t\tuint256 inactivityBlocks = blo...\n      POP \t\t\t\n      PUSH 0\t\t\tuint256 burnPeriods\n      PUSH 3E8\t\t\t1000\n      PUSH [tag] 890\t\t\tinactivityBlocks * 1e18\n      DUP4 \t\t\tuint256 inactivityBlocks = blo...\n      PUSH DE0B6B3A7640000\t\t\t1e18\n      PUSH [tag] 458\t\t\tinactivityBlocks * 1e18\n      JUMP \t\t\tinactivityBlocks * 1e18\n    tag 890\t\t\tinactivityBlocks * 1e18\n      JUMPDEST \t\t\tinactivityBlocks * 1e18\n      PUSH [tag] 891\t\t\t(inactivityBlocks * 1e18) / 10...\n      SWAP2 \t\t\t(inactivityBlocks * 1e18) / 10...\n      SWAP1 \t\t\t(inactivityBlocks * 1e18) / 10...\n      PUSH [tag] 460\t\t\t(inactivityBlocks * 1e18) / 10...\n      JUMP \t\t\t(inactivityBlocks * 1e18) / 10...\n    tag 891\t\t\t(inactivityBlocks * 1e18) / 10...\n      JUMPDEST \t\t\t(inactivityBlocks * 1e18) / 10...\n      PUSH 1B\t\t\tinactivityBurnRate\n      SLOAD \t\t\tinactivityBurnRate\n      PUSH 1\t\t\t\n      PUSH 1\t\t\t\n      PUSH A0\t\t\t\n      SHL \t\t\t\n      SUB \t\t\t\n      DUP9 \t\t\tbl2pClaimed[user]\n      AND \t\t\tbl2pClaimed[user]\n      PUSH 0\t\t\tuint256 burnedAmount\n      SWAP1 \t\t\tbl2pClaimed[user]\n      DUP2 \t\t\tbl2pClaimed[user]\n      MSTORE \t\t\tbl2pClaimed[user]\n      PUSH 20\t\t\tbl2pClaimed\n      DUP1 \t\t\tbl2pClaimed[user]\n      MSTORE \t\t\tbl2pClaimed[user]\n      PUSH 40\t\t\tbl2pClaimed[user]\n      DUP2 \t\t\tbl2pClaimed[user]\n      KECCAK256 \t\t\tbl2pClaimed[user]\n      SLOAD \t\t\tbl2pClaimed[user]\n      SWAP3 \t\t\tuint256 burnPeriods = (inactiv...\n      SWAP4 \t\t\tuint256 burnPeriods = (inactiv...\n      POP \t\t\t\n      SWAP2 \t\t\tuint256 burnedAmount\n      PUSH 56BC75E2D63100000\t\t\t100 * 1e18\n      SWAP2 \t\t\t100 * 1e18\n      DUP5 \t\t\tuint256 burnPeriods = (inactiv...\n      SWAP2 \t\t\tuint256 burnPeriods = (inactiv...\n      PUSH [tag] 892\t\t\tbl2pClaimed[user] * inactivity...\n      SWAP2 \t\t\tbl2pClaimed[user] * inactivity...\n      SWAP1 \t\t\tinactivityBurnRate\n      PUSH [tag] 458\t\t\tbl2pClaimed[user] * inactivity...\n      JUMP \t\t\tbl2pClaimed[user] * inactivity...\n    tag 892\t\t\tbl2pClaimed[user] * inactivity...\n      JUMPDEST \t\t\tbl2pClaimed[user] * inactivity...\n      PUSH [tag] 893\t\t\tbl2pClaimed[user] * inactivity...\n      SWAP2 \t\t\tbl2pClaimed[user] * inactivity...\n      SWAP1 \t\t\tbl2pClaimed[user] * inactivity...\n      PUSH [tag] 458\t\t\tbl2pClaimed[user] * inactivity...\n      JUMP \t\t\tbl2pClaimed[user] * inactivity...\n    tag 893\t\t\tbl2pClaimed[user] * inactivity...\n      JUMPDEST \t\t\tbl2pClaimed[user] * inactivity...\n      PUSH [tag] 894\t\t\t(bl2pClaimed[user] * inactivit...\n      SWAP2 \t\t\t(bl2pClaimed[user] * inactivit...\n      SWAP1 \t\t\t(bl2pClaimed[user] * inactivit...\n      PUSH [tag] 460\t\t\t(bl2pClaimed[user] * inactivit...\n      JUMP \t\t\t(bl2pClaimed[user] * inactivit...\n    tag 894\t\t\t(bl2pClaimed[user] * inactivit...\n      JUMPDEST \t\t\t(bl2pClaimed[user] * inactivit...\n      PUSH 1\t\t\t\n      PUSH 1\t\t\t\n      PUSH A0\t\t\t\n      SHL \t\t\t\n      SUB \t\t\t\n      DUP9 \t\t\tbl2pClaimed[user]\n      AND \t\t\tbl2pClaimed[user]\n      PUSH 0\t\t\tbl2pClaimed[user]\n      SWAP1 \t\t\tbl2pClaimed[user]\n      DUP2 \t\t\tbl2pClaimed[user]\n      MSTORE \t\t\tbl2pClaimed[user]\n      PUSH 20\t\t\tbl2pClaimed\n      DUP1 \t\t\tbl2pClaimed[user]\n      MSTORE \t\t\tbl2pClaimed[user]\n      PUSH 40\t\t\tbl2pClaimed[user]\n      SWAP1 \t\t\tbl2pClaimed[user]\n      KECCAK256 \t\t\tbl2pClaimed[user]\n      SLOAD \t\t\tbl2pClaimed[user]\n      SWAP1 \t\t\tuint256 burnedAmount = (bl2pCl...\n      SWAP2 \t\t\tuint256 burnedAmount = (bl2pCl...\n      POP \t\t\t\n      DUP2 \t\t\tbl2pClaimed[user] > burnedAmou...\n      LT \t\t\t\n      PUSH [tag] 895\t\t\tbl2pClaimed[user] > burnedAmou...\n      JUMPI \t\t\tbl2pClaimed[user] > burnedAmou...\n      PUSH 0\t\t\t0\n      PUSH [tag] 897\t\t\tbl2pClaimed[user] > burnedAmou...\n      JUMP \t\t\tbl2pClaimed[user] > burnedAmou...\n    tag 895\t\t\tbl2pClaimed[user] > burnedAmou...\n      JUMPDEST \t\t\tbl2pClaimed[user] > burnedAmou...\n      PUSH 1\t\t\t\n      PUSH 1\t\t\t\n      PUSH A0\t\t\t\n      SHL \t\t\t\n      SUB \t\t\t\n      DUP8 \t\t\tbl2pClaimed[user]\n      AND \t\t\tbl2pClaimed[user]\n      PUSH 0\t\t\tbl2pClaimed[user]\n      SWAP1 \t\t\tbl2pClaimed[user]\n      DUP2 \t\t\tbl2pClaimed[user]\n      MSTORE \t\t\tbl2pClaimed[user]\n      PUSH 20\t\t\tbl2pClaimed\n      DUP1 \t\t\tbl2pClaimed[user]\n      MSTORE \t\t\tbl2pClaimed[user]\n      PUSH 40\t\t\tbl2pClaimed[user]\n      SWAP1 \t\t\tbl2pClaimed[user]\n      KECCAK256 \t\t\tbl2pClaimed[user]\n      SLOAD \t\t\tbl2pClaimed[user]\n      PUSH [tag] 897\t\t\tbl2pClaimed[user] - burnedAmou...\n      SWAP1 \t\t\tbl2pClaimed[user] - burnedAmou...\n      DUP3 \t\t\tburnedAmount\n      SWAP1 \t\t\tburnedAmount\n      PUSH [tag] 477\t\t\tbl2pClaimed[user] - burnedAmou...\n      JUMP \t\t\tbl2pClaimed[user] - burnedAmou...\n    tag 897\t\t\tbl2pClaimed[user] - burnedAmou...\n      JUMPDEST \t\t\tbl2pClaimed[user] - burnedAmou...\n      SWAP8 \t\t\treturn bl2pClaimed[user] > bur...\n      SWAP7 \t\t\tfunction getRemainingValidBL2P...\n      POP \t\t\t\n      POP \t\t\t\n      POP \t\t\t\n      POP \t\t\t\n      POP \t\t\t\n      POP \t\t\t\n      POP \t\t\t\n      JUMP \t\t\tfunction getRemainingValidBL2P...\n    tag 360\t\t\tmapping(uint256 => Advertiseme...\n      JUMPDEST \t\t\tmapping(uint256 => Advertiseme...\n      PUSH 23\t\t\tmapping(uint256 => Advertiseme...\n      PUSH 20\t\t\tmapping(uint256 => Advertiseme...\n      MSTORE \t\t\tmapping(uint256 => Advertiseme...\n      PUSH 0\t\t\tmapping(uint256 => Advertiseme...\n      SWAP1 \t\t\tmapping(uint256 => Advertiseme...\n      DUP2 \t\t\tmapping(uint256 => Advertiseme...\n      MSTORE \t\t\tmapping(uint256 => Advertiseme...\n      PUSH 40\t\t\tmapping(uint256 => Advertiseme...\n      SWAP1 \t\t\tmapping(uint256 => Advertiseme...\n      KECCAK256 \t\t\tmapping(uint256 => Advertiseme...\n      DUP1 \t\t\tmapping(uint256 => Advertiseme...\n      SLOAD \t\t\tmapping(uint256 => Advertiseme...\n      PUSH 1\t\t\tmapping(uint256 => Advertiseme...\n      DUP3 \t\t\tmapping(uint256 => Advertiseme...\n      ADD \t\t\tmapping(uint256 => Advertiseme...\n      SLOAD \t\t\tmapping(uint256 => Advertiseme...\n      PUSH 2\t\t\tmapping(uint256 => Advertiseme...\n      DUP4 \t\t\tmapping(uint256 => Advertiseme...\n      ADD \t\t\tmapping(uint256 => Advertiseme...\n      DUP1 \t\t\tmapping(uint256 => Advertiseme...\n      SLOAD \t\t\tmapping(uint256 => Advertiseme...\n      SWAP3 \t\t\tmapping(uint256 => Advertiseme...\n      SWAP4 \t\t\tmapping(uint256 => Advertiseme...\n      SWAP2 \t\t\tmapping(uint256 => Advertiseme...\n      SWAP3 \t\t\tmapping(uint256 => Advertiseme...\n      PUSH [tag] 898\t\t\tmapping(uint256 => Advertiseme...\n      SWAP1 \t\t\tmapping(uint256 => Advertiseme...\n      PUSH [tag] 426\t\t\tmapping(uint256 => Advertiseme...\n      JUMP \t\t\tmapping(uint256 => Advertiseme...\n    tag 898\t\t\tmapping(uint256 => Advertiseme...\n      JUMPDEST \t\t\tmapping(uint256 => Advertiseme...\n      DUP1 \t\t\tmapping(uint256 => Advertiseme...\n      PUSH 1F\t\t\tmapping(uint256 => Advertiseme...\n      ADD \t\t\tmapping(uint256 => Advertiseme...\n      PUSH 20\t\t\tmapping(uint256 => Advertiseme...\n      DUP1 \t\t\tmapping(uint256 => Advertiseme...\n      SWAP2 \t\t\tmapping(uint256 => Advertiseme...\n      DIV \t\t\tmapping(uint256 => Advertiseme...\n      MUL \t\t\tmapping(uint256 => Advertiseme...\n      PUSH 20\t\t\tmapping(uint256 => Advertiseme...\n      ADD \t\t\tmapping(uint256 => Advertiseme...\n      PUSH 40\t\t\tmapping(uint256 => Advertiseme...\n      MLOAD \t\t\tmapping(uint256 => Advertiseme...\n      SWAP1 \t\t\tmapping(uint256 => Advertiseme...\n      DUP2 \t\t\tmapping(uint256 => Advertiseme...\n      ADD \t\t\tmapping(uint256 => Advertiseme...\n      PUSH 40\t\t\tmapping(uint256 => Advertiseme...\n      MSTORE \t\t\tmapping(uint256 => Advertiseme...\n      DUP1 \t\t\tmapping(uint256 => Advertiseme...\n      SWAP3 \t\t\tmapping(uint256 => Advertiseme...\n      SWAP2 \t\t\tmapping(uint256 => Advertiseme...\n      SWAP1 \t\t\tmapping(uint256 => Advertiseme...\n      DUP2 \t\t\tmapping(uint256 => Advertiseme...\n      DUP2 \t\t\tmapping(uint256 => Advertiseme...\n      MSTORE \t\t\tmapping(uint256 => Advertiseme...\n      PUSH 20\t\t\tmapping(uint256 => Advertiseme...\n      ADD \t\t\tmapping(uint256 => Advertiseme...\n      DUP3 \t\t\tmapping(uint256 => Advertiseme...\n      DUP1 \t\t\tmapping(uint256 => Advertiseme...\n      SLOAD \t\t\tmapping(uint256 => Advertiseme...\n      PUSH [tag] 899\t\t\tmapping(uint256 => Advertiseme...\n      SWAP1 \t\t\tmapping(uint256 => Advertiseme...\n      PUSH [tag] 426\t\t\tmapping(uint256 => Advertiseme...\n      JUMP \t\t\tmapping(uint256 => Advertiseme...\n    tag 899\t\t\tmapping(uint256 => Advertiseme...\n      JUMPDEST \t\t\tmapping(uint256 => Advertiseme...\n      DUP1 \t\t\tmapping(uint256 => Advertiseme...\n      ISZERO \t\t\tmapping(uint256 => Advertiseme...\n      PUSH [tag] 900\t\t\tmapping(uint256 => Advertiseme...\n      JUMPI \t\t\tmapping(uint256 => Advertiseme...\n      DUP1 \t\t\tmapping(uint256 => Advertiseme...\n      PUSH 1F\t\t\tmapping(uint256 => Advertiseme...\n      LT \t\t\tmapping(uint256 => Advertiseme...\n      PUSH [tag] 901\t\t\tmapping(uint256 => Advertiseme...\n      JUMPI \t\t\tmapping(uint256 => Advertiseme...\n      PUSH 100\t\t\tmapping(uint256 => Advertiseme...\n      DUP1 \t\t\tmapping(uint256 => Advertiseme...\n      DUP4 \t\t\tmapping(uint256 => Advertiseme...\n      SLOAD \t\t\tmapping(uint256 => Advertiseme...\n      DIV \t\t\tmapping(uint256 => Advertiseme...\n      MUL \t\t\tmapping(uint256 => Advertiseme...\n      DUP4 \t\t\tmapping(uint256 => Advertiseme...\n      MSTORE \t\t\tmapping(uint256 => Advertiseme...\n      SWAP2 \t\t\tmapping(uint256 => Advertiseme...\n      PUSH 20\t\t\tmapping(uint256 => Advertiseme...\n      ADD \t\t\tmapping(uint256 => Advertiseme...\n      SWAP2 \t\t\tmapping(uint256 => Advertiseme...\n      PUSH [tag] 900\t\t\tmapping(uint256 => Advertiseme...\n      JUMP \t\t\tmapping(uint256 => Advertiseme...\n    tag 901\t\t\tmapping(uint256 => Advertiseme...\n      JUMPDEST \t\t\tmapping(uint256 => Advertiseme...\n      DUP3 \t\t\tmapping(uint256 => Advertiseme...\n      ADD \t\t\tmapping(uint256 => Advertiseme...\n      SWAP2 \t\t\tmapping(uint256 => Advertiseme...\n      SWAP1 \t\t\tmapping(uint256 => Advertiseme...\n      PUSH 0\t\t\tmapping(uint256 => Advertiseme...\n      MSTORE \t\t\tmapping(uint256 => Advertiseme...\n      PUSH 20\t\t\tmapping(uint256 => Advertiseme...\n      PUSH 0\t\t\tmapping(uint256 => Advertiseme...\n      KECCAK256 \t\t\tmapping(uint256 => Advertiseme...\n      SWAP1 \t\t\tmapping(uint256 => Advertiseme...\n    tag 902\t\t\tmapping(uint256 => Advertiseme...\n      JUMPDEST \t\t\tmapping(uint256 => Advertiseme...\n      DUP2 \t\t\tmapping(uint256 => Advertiseme...\n      SLOAD \t\t\tmapping(uint256 => Advertiseme...\n      DUP2 \t\t\tmapping(uint256 => Advertiseme...\n      MSTORE \t\t\tmapping(uint256 => Advertiseme...\n      SWAP1 \t\t\tmapping(uint256 => Advertiseme...\n      PUSH 1\t\t\tmapping(uint256 => Advertiseme...\n      ADD \t\t\tmapping(uint256 => Advertiseme...\n      SWAP1 \t\t\tmapping(uint256 => Advertiseme...\n      PUSH 20\t\t\tmapping(uint256 => Advertiseme...\n      ADD \t\t\tmapping(uint256 => Advertiseme...\n      DUP1 \t\t\tmapping(uint256 => Advertiseme...\n      DUP4 \t\t\tmapping(uint256 => Advertiseme...\n      GT \t\t\tmapping(uint256 => Advertiseme...\n      PUSH [tag] 902\t\t\tmapping(uint256 => Advertiseme...\n      JUMPI \t\t\tmapping(uint256 => Advertiseme...\n      DUP3 \t\t\tmapping(uint256 => Advertiseme...\n      SWAP1 \t\t\tmapping(uint256 => Advertiseme...\n      SUB \t\t\tmapping(uint256 => Advertiseme...\n      PUSH 1F\t\t\tmapping(uint256 => Advertiseme...\n      AND \t\t\tmapping(uint256 => Advertiseme...\n      DUP3 \t\t\tmapping(uint256 => Advertiseme...\n      ADD \t\t\tmapping(uint256 => Advertiseme...\n      SWAP2 \t\t\tmapping(uint256 => Advertiseme...\n    tag 900\t\t\tmapping(uint256 => Advertiseme...\n      JUMPDEST \t\t\tmapping(uint256 => Advertiseme...\n      POP \t\t\tmapping(uint256 => Advertiseme...\n      POP \t\t\tmapping(uint256 => Advertiseme...\n      POP \t\t\tmapping(uint256 => Advertiseme...\n      POP \t\t\tmapping(uint256 => Advertiseme...\n      POP \t\t\tmapping(uint256 => Advertiseme...\n      SWAP1 \t\t\tmapping(uint256 => Advertiseme...\n      POP \t\t\tmapping(uint256 => Advertiseme...\n      DUP4 \t\t\tmapping(uint256 => Advertiseme...\n      JUMP \t\t\tmapping(uint256 => Advertiseme...\n    tag 370\t\t\tfunction useBL2PForStaking(uin...\n      JUMPDEST \t\t\tfunction useBL2PForStaking(uin...\n      PUSH [tag] 904\t\t\ttracts not allowed\");\n      PUSH [tag] 444\t\t\ttracts not allowed\"\n      JUMP \t\t\ttracts not allowed\");\n    tag 904\t\t\ttracts not allowed\");\n      JUMPDEST \t\t\ttracts not allowed\");\n      PUSH 9\t\t\temergencyPaused\n      SLOAD \t\t\temergencyPaused\n      PUSH 10000\t\t\temergencyPaused\n      SWAP1 \t\t\temergencyPaused\n      DIV \t\t\temergencyPaused\n      PUSH FF\t\t\temergencyPaused\n      AND \t\t\temergencyPaused\n      ISZERO \t\t\tif (emergencyPaused) revert Co...\n      PUSH [tag] 906\t\t\tif (emergencyPaused) revert Co...\n      JUMPI \t\t\tif (emergencyPaused) revert Co...\n      PUSH 40\t\t\tContractPaused()\n      MLOAD \t\t\tContractPaused()\n      PUSH AB35696F\t\t\t\n      PUSH E0\t\t\t\n      SHL \t\t\t\n      DUP2 \t\t\tContractPaused()\n      MSTORE \t\t\tContractPaused()\n      PUSH 4\t\t\tContractPaused()\n      ADD \t\t\tContractPaused()\n      PUSH 40\t\t\tContractPaused()\n      MLOAD \t\t\tContractPaused()\n      DUP1 \t\t\tContractPaused()\n      SWAP2 \t\t\tContractPaused()\n      SUB \t\t\tContractPaused()\n      SWAP1 \t\t\tContractPaused()\n      REVERT \t\t\tContractPaused()\n    tag 906\t\t\tif (emergencyPaused) revert Co...\n      JUMPDEST \t\t\tif (emergencyPaused) revert Co...\n      CALLER \t\t\tmsg.sender\n      PUSH 0\t\t\tStake storage s\n      SWAP1 \t\t\tstakes[msg.sender]\n      DUP2 \t\t\tstakes[msg.sender]\n      MSTORE \t\t\tstakes[msg.sender]\n      PUSH 29\t\t\tstakes\n      PUSH 20\t\t\tstakes[msg.sender]\n      MSTORE \t\t\tstakes[msg.sender]\n      PUSH 40\t\t\tstakes[msg.sender]\n      SWAP1 \t\t\tstakes[msg.sender]\n      KECCAK256 \t\t\tstakes[msg.sender]\n      PUSH 3\t\t\ts.active\n      DUP2 \t\t\ts.active\n      ADD \t\t\ts.active\n      SLOAD \t\t\ts.active\n      PUSH FF\t\t\ts.active\n      AND \t\t\ts.active\n      PUSH [tag] 908\t\t\tif (!s.active) revert NoActive...\n      JUMPI \t\t\tif (!s.active) revert NoActive...\n      PUSH 40\t\t\tNoActiveStake()\n      MLOAD \t\t\tNoActiveStake()\n      PUSH 7D9A44A1\t\t\t\n      PUSH E1\t\t\t\n      SHL \t\t\t\n      DUP2 \t\t\tNoActiveStake()\n      MSTORE \t\t\tNoActiveStake()\n      PUSH 4\t\t\tNoActiveStake()\n      ADD \t\t\tNoActiveStake()\n      PUSH 40\t\t\tNoActiveStake()\n      MLOAD \t\t\tNoActiveStake()\n      DUP1 \t\t\tNoActiveStake()\n      SWAP2 \t\t\tNoActiveStake()\n      SUB \t\t\tNoActiveStake()\n      SWAP1 \t\t\tNoActiveStake()\n      REVERT \t\t\tNoActiveStake()\n    tag 908\t\t\tif (!s.active) revert NoActive...\n      JUMPDEST \t\t\tif (!s.active) revert NoActive...\n      DUP2 \t\t\tbl2pAmount\n      PUSH 0\t\t\t0\n      SUB \t\t\tbl2pAmount == 0\n      PUSH [tag] 909\t\t\tif (bl2pAmount == 0) revert Am...\n      JUMPI \t\t\tif (bl2pAmount == 0) revert Am...\n      PUSH 40\t\t\tAmountZero()\n      MLOAD \t\t\tAmountZero()\n      PUSH 65E52D51\t\t\t\n      PUSH E1\t\t\t\n      SHL \t\t\t\n      DUP2 \t\t\tAmountZero()\n      MSTORE \t\t\tAmountZero()\n      PUSH 4\t\t\tAmountZero()\n      ADD \t\t\tAmountZero()\n      PUSH 40\t\t\tAmountZero()\n      MLOAD \t\t\tAmountZero()\n      DUP1 \t\t\tAmountZero()\n      SWAP2 \t\t\tAmountZero()\n      SUB \t\t\tAmountZero()\n      SWAP1 \t\t\tAmountZero()\n      REVERT \t\t\tAmountZero()\n    tag 909\t\t\tif (bl2pAmount == 0) revert Am...\n      JUMPDEST \t\t\tif (bl2pAmount == 0) revert Am...\n      PUSH [tag] 910\t\t\tgetRemainingValidBL2P(msg.send...\n      CALLER \t\t\tmsg.sender\n      PUSH [tag] 356\t\t\tgetRemainingValidBL2P\n      JUMP \t\t\tgetRemainingValidBL2P(msg.send...\n    tag 910\t\t\tgetRemainingValidBL2P(msg.send...\n      JUMPDEST \t\t\tgetRemainingValidBL2P(msg.send...\n      DUP3 \t\t\tbl2pAmount\n      GT \t\t\tbl2pAmount > getRemainingValid...\n      ISZERO \t\t\tif (bl2pAmount > getRemainingV...\n      PUSH [tag] 911\t\t\tif (bl2pAmount > getRemainingV...\n      JUMPI \t\t\tif (bl2pAmount > getRemainingV...\n      PUSH 40\t\t\tExceedsBurnTarget()\n      MLOAD \t\t\tExceedsBurnTarget()\n      PUSH 87D5B4FB\t\t\t\n      PUSH E0\t\t\t\n      SHL \t\t\t\n      DUP2 \t\t\tExceedsBurnTarget()\n      MSTORE \t\t\tExceedsBurnTarget()\n      PUSH 4\t\t\tExceedsBurnTarget()\n      ADD \t\t\tExceedsBurnTarget()\n      PUSH 40\t\t\tExceedsBurnTarget()\n      MLOAD \t\t\tExceedsBurnTarget()\n      DUP1 \t\t\tExceedsBurnTarget()\n      SWAP2 \t\t\tExceedsBurnTarget()\n      SUB \t\t\tExceedsBurnTarget()\n      SWAP1 \t\t\tExceedsBurnTarget()\n      REVERT \t\t\tExceedsBurnTarget()\n    tag 911\t\t\tif (bl2pAmount > getRemainingV...\n      JUMPDEST \t\t\tif (bl2pAmount > getRemainingV...\n      DUP1 \t\t\ts.amount\n      SLOAD \t\t\ts.amount\n      PUSH [tag] 912\t\t\ts.amount / 10\n      SWAP1 \t\t\ts.amount / 10\n      PUSH A\t\t\t10\n      SWAP1 \t\t\t10\n      PUSH [tag] 460\t\t\ts.amount / 10\n      JUMP \t\t\ts.amount / 10\n    tag 912\t\t\ts.amount / 10\n      JUMPDEST \t\t\ts.amount / 10\n      DUP3 \t\t\tbl2pAmount\n      GT \t\t\tbl2pAmount > s.amount / 10\n      ISZERO \t\t\tif (bl2pAmount > s.amount / 10...\n      PUSH [tag] 913\t\t\tif (bl2pAmount > s.amount / 10...\n      JUMPI \t\t\tif (bl2pAmount > s.amount / 10...\n      PUSH 40\t\t\tExceedsBL2PBoostLimit()\n      MLOAD \t\t\tExceedsBL2PBoostLimit()\n      PUSH 11C2AB1F\t\t\t\n      PUSH E3\t\t\t\n      SHL \t\t\t\n      DUP2 \t\t\tExceedsBL2PBoostLimit()\n      MSTORE \t\t\tExceedsBL2PBoostLimit()\n      PUSH 4\t\t\tExceedsBL2PBoostLimit()\n      ADD \t\t\tExceedsBL2PBoostLimit()\n      PUSH 40\t\t\tExceedsBL2PBoostLimit()\n      MLOAD \t\t\tExceedsBL2PBoostLimit()\n      DUP1 \t\t\tExceedsBL2PBoostLimit()\n      SWAP2 \t\t\tExceedsBL2PBoostLimit()\n      SUB \t\t\tExceedsBL2PBoostLimit()\n      SWAP1 \t\t\tExceedsBL2PBoostLimit()\n      REVERT \t\t\tExceedsBL2PBoostLimit()\n    tag 913\t\t\tif (bl2pAmount > s.amount / 10...\n      JUMPDEST \t\t\tif (bl2pAmount > s.amount / 10...\n      PUSH [tag] 914\t\t\tupdateBL2PMaturity(msg.sender)\n      CALLER \t\t\tmsg.sender\n      PUSH [tag] 284\t\t\tupdateBL2PMaturity\n      JUMP \t\t\tupdateBL2PMaturity(msg.sender)\n    tag 914\t\t\tupdateBL2PMaturity(msg.sender)\n      JUMPDEST \t\t\tupdateBL2PMaturity(msg.sender)\n      PUSH 0\t\t\tuint256 birthBlock\n      PUSH [tag] 915\t\t\tgetBL2PLifetime(msg.sender)\n      CALLER \t\t\tmsg.sender\n      PUSH [tag] 422\t\t\tgetBL2PLifetime\n      JUMP \t\t\tgetBL2PLifetime(msg.sender)\n    tag 915\t\t\tgetBL2PLifetime(msg.sender)\n      JUMPDEST \t\t\tgetBL2PLifetime(msg.sender)\n      POP \t\t\t(uint256 birthBlock,) = getBL2...\n      SWAP1 \t\t\t(uint256 birthBlock,) = getBL2...\n      POP \t\t\t(uint256 birthBlock,) = getBL2...\n      PUSH 19\t\t\tmaturationPeriodBlocks\n      SLOAD \t\t\tmaturationPeriodBlocks\n      DUP2 \t\t\tbirthBlock\n      PUSH [tag] 916\t\t\tbirthBlock + maturationPeriodB...\n      SWAP2 \t\t\tbirthBlock + maturationPeriodB...\n      SWAP1 \t\t\tbirthBlock + maturationPeriodB...\n      PUSH [tag] 452\t\t\tbirthBlock + maturationPeriodB...\n      JUMP \t\t\tbirthBlock + maturationPeriodB...\n    tag 916\t\t\tbirthBlock + maturationPeriodB...\n      JUMPDEST \t\t\tbirthBlock + maturationPeriodB...\n      TIMESTAMP \t\t\tblock.timestamp\n      LT \t\t\tblock.timestamp < birthBlock +...\n      ISZERO \t\t\tif (block.timestamp < birthBlo...\n      PUSH [tag] 917\t\t\tif (block.timestamp < birthBlo...\n      JUMPI \t\t\tif (block.timestamp < birthBlo...\n      PUSH 40\t\t\tBL2PNotMatured()\n      MLOAD \t\t\tBL2PNotMatured()\n      PUSH 1878F081\t\t\t\n      PUSH E0\t\t\t\n      SHL \t\t\t\n      DUP2 \t\t\tBL2PNotMatured()\n      MSTORE \t\t\tBL2PNotMatured()\n      PUSH 4\t\t\tBL2PNotMatured()\n      ADD \t\t\tBL2PNotMatured()\n      PUSH 40\t\t\tBL2PNotMatured()\n      MLOAD \t\t\tBL2PNotMatured()\n      DUP1 \t\t\tBL2PNotMatured()\n      SWAP2 \t\t\tBL2PNotMatured()\n      SUB \t\t\tBL2PNotMatured()\n      SWAP1 \t\t\tBL2PNotMatured()\n      REVERT \t\t\tBL2PNotMatured()\n    tag 917\t\t\tif (block.timestamp < birthBlo...\n      JUMPDEST \t\t\tif (block.timestamp < birthBlo...\n      DUP3 \t\t\tbl2pAmount\n      DUP3 \t\t\ts\n      PUSH 2\t\t\ts.bl2pBoost\n      ADD \t\t\ts.bl2pBoost\n      PUSH 0\t\t\ts.bl2pBoost\n      DUP3 \t\t\ts.bl2pBoost += bl2pAmount\n      DUP3 \t\t\ts.bl2pBoost += bl2pAmount\n      SLOAD \t\t\ts.bl2pBoost += bl2pAmount\n      PUSH [tag] 918\t\t\ts.bl2pBoost += bl2pAmount\n      SWAP2 \t\t\ts.bl2pBoost += bl2pAmount\n      SWAP1 \t\t\ts.bl2pBoost += bl2pAmount\n      PUSH [tag] 452\t\t\ts.bl2pBoost += bl2pAmount\n      JUMP \t\t\ts.bl2pBoost += bl2pAmount\n    tag 918\t\t\ts.bl2pBoost += bl2pAmount\n      JUMPDEST \t\t\ts.bl2pBoost += bl2pAmount\n      SWAP1 \t\t\ts.bl2pBoost += bl2pAmount\n      SWAP2 \t\t\ts.bl2pBoost += bl2pAmount\n      SSTORE \t\t\ts.bl2pBoost += bl2pAmount\n      POP \t\t\t\n      POP \t\t\t\n      PUSH 40\t\t\tBL2PStaked(msg.sender, bl2pAmo...\n      MLOAD \t\t\tBL2PStaked(msg.sender, bl2pAmo...\n      DUP4 \t\t\tNotAuthorized();\\n    erro\n      DUP2 \t\t\tNotAuthorized();\\n    erro\n      MSTORE \t\t\tNotAuthorized();\\n    erro\n      CALLER \t\t\tmsg.sender\n      SWAP1 \t\t\tmsg.sender\n      PUSH 4A35C8FDE6484ACA5E3C4FD515E9314CA9F4A57266CDEF7622CAC399F20AC32A\t\t\tBL2PStaked(msg.sender, bl2pAmo...\n      SWAP1 \t\t\tBL2PStaked(msg.sender, bl2pAmo...\n      PUSH 20\t\t\t;\\n\n      ADD \t\t\ternanceNotSet();\\n \n      PUSH 40\t\t\tBL2PStaked(msg.sender, bl2pAmo...\n      MLOAD \t\t\tBL2PStaked(msg.sender, bl2pAmo...\n      DUP1 \t\t\tBL2PStaked(msg.sender, bl2pAmo...\n      SWAP2 \t\t\tBL2PStaked(msg.sender, bl2pAmo...\n      SUB \t\t\tBL2PStaked(msg.sender, bl2pAmo...\n      SWAP1 \t\t\tBL2PStaked(msg.sender, bl2pAmo...\n      LOG2 \t\t\tBL2PStaked(msg.sender, bl2pAmo...\n      POP \t\t\t{\\n        Stake storage s = s...\n      POP \t\t\t{\\n        Stake storage s = s...\n      PUSH [tag] 511\t\t\t modifier onlyGovern\n      PUSH 1\t\t\t \n      PUSH 5\t\t\t}\\n\\n    \n      SSTORE \t\t\t}\\n\\n    enum ProposalT\n      JUMP \t\t\tsg.sender != owner()) revert N...\n    tag 385\t\t\tfunction verifyBL2PIntegrity(a...\n      JUMPDEST \t\t\tfunction verifyBL2PIntegrity(a...\n      PUSH 1\t\t\ttrue\n      PUSH 0\t\t\tbool isValid\n      DUP3 \t\t\tusers\n      DUP2 \t\t\tbool isValid\n    tag 922\t\t\tfor (uint256 i = 0; i < len; +...\n      JUMPDEST \t\t\tfor (uint256 i = 0; i < len; +...\n      DUP2 \t\t\tlen\n      DUP2 \t\t\ti\n      LT \t\t\ti < len\n      ISZERO \t\t\tfor (uint256 i = 0; i < len; +...\n      PUSH [tag] 923\t\t\tfor (uint256 i = 0; i < len; +...\n      JUMPI \t\t\tfor (uint256 i = 0; i < len; +...\n      PUSH 0\t\t\taddress user\n      DUP7 \t\t\tusers\n      DUP7 \t\t\tusers\n      DUP4 \t\t\ti\n      DUP2 \t\t\tusers[i]\n      DUP2 \t\t\tusers[i]\n      LT \t\t\tusers[i]\n      PUSH [tag] 926\t\t\tusers[i]\n      JUMPI \t\t\tusers[i]\n      PUSH [tag] 926\t\t\tusers[i]\n      PUSH [tag] 630\t\t\tusers[i]\n      JUMP \t\t\tusers[i]\n    tag 926\t\t\tusers[i]\n      JUMPDEST \t\t\tusers[i]\n      SWAP1 \t\t\tusers[i]\n      POP \t\t\tusers[i]\n      PUSH 20\t\t\tusers[i]\n      MUL \t\t\tusers[i]\n      ADD \t\t\tusers[i]\n      PUSH 20\t\t\tusers[i]\n      DUP2 \t\t\tusers[i]\n      ADD \t\t\tusers[i]\n      SWAP1 \t\t\tusers[i]\n      PUSH [tag] 927\t\t\tusers[i]\n      SWAP2 \t\t\tusers[i]\n      SWAP1 \t\t\tusers[i]\n      PUSH [tag] 111\t\t\tusers[i]\n      JUMP \t\t\tusers[i]\n    tag 927\t\t\tusers[i]\n      JUMPDEST \t\t\tusers[i]\n      SWAP1 \t\t\taddress user = users[i]\n      POP \t\t\t\n      PUSH 1\t\t\t\n      PUSH 1\t\t\t\n      PUSH A0\t\t\t\n      SHL \t\t\t\n      SUB \t\t\t\n      DUP2 \t\t\tuser == address(0)\n      AND \t\t\tuser == address(0)\n      PUSH [tag] 928\t\t\tif (user == address(0)) revert...\n      JUMPI \t\t\tif (user == address(0)) revert...\n      PUSH 40\t\t\tInvalidAddress()\n      MLOAD \t\t\tInvalidAddress()\n      PUSH E6C4247B\t\t\t\n      PUSH E0\t\t\t\n      SHL \t\t\t\n      DUP2 \t\t\tInvalidAddress()\n      MSTORE \t\t\tInvalidAddress()\n      PUSH 4\t\t\tInvalidAddress()\n      ADD \t\t\tInvalidAddress()\n      PUSH 40\t\t\tInvalidAddress()\n      MLOAD \t\t\tInvalidAddress()\n      DUP1 \t\t\tInvalidAddress()\n      SWAP2 \t\t\tInvalidAddress()\n      SUB \t\t\tInvalidAddress()\n      SWAP1 \t\t\tInvalidAddress()\n      REVERT \t\t\tInvalidAddress()\n    tag 928\t\t\tif (user == address(0)) revert...\n      JUMPDEST \t\t\tif (user == address(0)) revert...\n      PUSH 0\t\t\tuint256 remaining\n      PUSH [tag] 929\t\t\tgetRemainingValidBL2P(user)\n      DUP3 \t\t\tuser\n      PUSH [tag] 356\t\t\tgetRemainingValidBL2P\n      JUMP \t\t\tgetRemainingValidBL2P(user)\n    tag 929\t\t\tgetRemainingValidBL2P(user)\n      JUMPDEST \t\t\tgetRemainingValidBL2P(user)\n      SWAP1 \t\t\tuint256 remaining = getRemaini...\n      POP \t\t\t\n      PUSH [tag] 930\t\t\ttotalBL2P += remaining\n      DUP2 \t\t\tuint256 remaining = getRemaini...\n      DUP7 \t\t\ttotalBL2P += remaining\n      PUSH [tag] 452\t\t\ttotalBL2P += remaining\n      JUMP \t\t\ttotalBL2P += remaining\n    tag 930\t\t\ttotalBL2P += remaining\n      JUMPDEST \t\t\ttotalBL2P += remaining\n      PUSH 1\t\t\t\n      PUSH 1\t\t\t\n      PUSH A0\t\t\t\n      SHL \t\t\t\n      SUB \t\t\t\n      DUP4 \t\t\tbl2pClaimed[user]\n      AND \t\t\tbl2pClaimed[user]\n      PUSH 0\t\t\tbl2pClaimed[user]\n      SWAP1 \t\t\tbl2pClaimed[user]\n      DUP2 \t\t\tbl2pClaimed[user]\n      MSTORE \t\t\tbl2pClaimed[user]\n      PUSH 20\t\t\tbl2pClaimed\n      DUP1 \t\t\tbl2pClaimed[user]\n      MSTORE \t\t\tbl2pClaimed[user]\n      PUSH 40\t\t\tbl2pClaimed[user]\n      SWAP1 \t\t\tbl2pClaimed[user]\n      KECCAK256 \t\t\tbl2pClaimed[user]\n      SLOAD \t\t\tbl2pClaimed[user]\n      SWAP1 \t\t\ttotalBL2P += remaining\n      SWAP6 \t\t\ttotalBL2P += remaining\n      POP \t\t\t\n      ISZERO \t\t\tbl2pClaimed[user] != 0\n      DUP1 \t\t\tbl2pClaimed[user] != 0\n      ISZERO \t\t\tbl2pClaimed[user] != 0\n      SWAP1 \t\t\tbl2pClaimed[user] != 0\n      PUSH [tag] 931\t\t\tbl2pClaimed[user] != 0 && rema...\n      JUMPI \t\t\tbl2pClaimed[user] != 0 && rema...\n      POP \t\t\t\n      DUP1 \t\t\tremaining == 0\n      ISZERO \t\t\tremaining == 0\n    tag 931\t\t\tbl2pClaimed[user] != 0 && rema...\n      JUMPDEST \t\t\tbl2pClaimed[user] != 0 && rema...\n      DUP1 \t\t\tbl2pClaimed[user] != 0 && rema...\n      ISZERO \t\t\tbl2pClaimed[user] != 0 && rema...\n      PUSH [tag] 932\t\t\tbl2pClaimed[user] != 0 && rema...\n      JUMPI \t\t\tbl2pClaimed[user] != 0 && rema...\n      POP \t\t\t\n      PUSH 1\t\t\t\n      PUSH 1\t\t\t\n      PUSH A0\t\t\t\n      SHL \t\t\t\n      SUB \t\t\t\n      DUP3 \t\t\tbl2pMeta[user]\n      AND \t\t\tbl2pMeta[user]\n      PUSH 0\t\t\tbl2pMeta[user]\n      SWAP1 \t\t\tbl2pMeta[user]\n      DUP2 \t\t\tbl2pMeta[user]\n      MSTORE \t\t\tbl2pMeta[user]\n      PUSH 25\t\t\tbl2pMeta\n      PUSH 20\t\t\tbl2pMeta[user]\n      MSTORE \t\t\tbl2pMeta[user]\n      PUSH 40\t\t\tbl2pMeta[user]\n      SWAP1 \t\t\tbl2pMeta[user]\n      KECCAK256 \t\t\tbl2pMeta[user]\n      SLOAD \t\t\tbl2pMeta[user].birthAndExpiry\n      PUSH 1\t\t\t\n      PUSH 1\t\t\t\n      PUSH 80\t\t\t\n      SHL \t\t\t\n      SUB \t\t\t\n      AND \t\t\tbl2pMeta[user].birthAndExpiry ...\n      TIMESTAMP \t\t\tblock.timestamp\n      LT \t\t\tblock.timestamp < (bl2pMeta[us...\n    tag 932\t\t\tbl2pClaimed[user] != 0 && rema...\n      JUMPDEST \t\t\tbl2pClaimed[user] != 0 && rema...\n      ISZERO \t\t\tif (bl2pClaimed[user] != 0 && ...\n      PUSH [tag] 933\t\t\tif (bl2pClaimed[user] != 0 && ...\n      JUMPI \t\t\tif (bl2pClaimed[user] != 0 && ...\n      PUSH 0\t\t\tfalse\n      SWAP6 \t\t\tisValid = false\n      POP \t\t\tisValid = false\n      POP \t\t\tbreak\n      POP \t\t\tbreak\n      PUSH [tag] 923\t\t\tbreak\n      JUMP \t\t\tbreak\n    tag 933\t\t\tif (bl2pClaimed[user] != 0 && ...\n      JUMPDEST \t\t\tif (bl2pClaimed[user] != 0 && ...\n      POP \t\t\t{\\n            address user = ...\n      POP \t\t\t{\\n            address user = ...\n      DUP1 \t\t\t++i\n      PUSH [tag] 934\t\t\t++i\n      SWAP1 \t\t\t++i\n      PUSH [tag] 642\t\t\t++i\n      JUMP \t\t\t++i\n    tag 934\t\t\t++i\n      JUMPDEST \t\t\t++i\n      SWAP1 \t\t\t++i\n      POP \t\t\t++i\n      PUSH [tag] 922\t\t\tfor (uint256 i = 0; i < len; +...\n      JUMP \t\t\tfor (uint256 i = 0; i < len; +...\n    tag 923\t\t\tfor (uint256 i = 0; i < len; +...\n      JUMPDEST \t\t\tfor (uint256 i = 0; i < len; +...\n      POP \t\t\tfor (uint256 i = 0; i < len; +...\n      POP \t\t\t{\\n        isValid = true;\\n  ...\n      SWAP3 \t\t\tfunction verifyBL2PIntegrity(a...\n      POP \t\t\tfunction verifyBL2PIntegrity(a...\n      SWAP3 \t\t\tfunction verifyBL2PIntegrity(a...\n      SWAP1 \t\t\tfunction verifyBL2PIntegrity(a...\n      POP \t\t\tfunction verifyBL2PIntegrity(a...\n      JUMP \t\t\tfunction verifyBL2PIntegrity(a...\n    tag 403\t\t\tfunction submitProposal(string...\n      JUMPDEST \t\t\tfunction submitProposal(string...\n      PUSH 9\t\t\temergencyPaused\n      SLOAD \t\t\temergencyPaused\n      PUSH 10000\t\t\temergencyPaused\n      SWAP1 \t\t\temergencyPaused\n      DIV \t\t\temergencyPaused\n      PUSH FF\t\t\temergencyPaused\n      AND \t\t\temergencyPaused\n      ISZERO \t\t\tif (emergencyPaused) revert Co...\n      PUSH [tag] 937\t\t\tif (emergencyPaused) revert Co...\n      JUMPI \t\t\tif (emergencyPaused) revert Co...\n      PUSH 40\t\t\tContractPaused()\n      MLOAD \t\t\tContractPaused()\n      PUSH AB35696F\t\t\t\n      PUSH E0\t\t\t\n      SHL \t\t\t\n      DUP2 \t\t\tContractPaused()\n      MSTORE \t\t\tContractPaused()\n      PUSH 4\t\t\tContractPaused()\n      ADD \t\t\tContractPaused()\n      PUSH 40\t\t\tContractPaused()\n      MLOAD \t\t\tContractPaused()\n      DUP1 \t\t\tContractPaused()\n      SWAP2 \t\t\tContractPaused()\n      SUB \t\t\tContractPaused()\n      SWAP1 \t\t\tContractPaused()\n      REVERT \t\t\tContractPaused()\n    tag 937\t\t\tif (emergencyPaused) revert Co...\n      JUMPDEST \t\t\tif (emergencyPaused) revert Co...\n      PUSH 152D02C7E14AF6800000\t\t\t100_000 * 1e18\n      PUSH [tag] 939\t\t\tgetRemainingValidBL2P(msg.send...\n      CALLER \t\t\tmsg.sender\n      PUSH [tag] 356\t\t\tgetRemainingValidBL2P\n      JUMP \t\t\tgetRemainingValidBL2P(msg.send...\n    tag 939\t\t\tgetRemainingValidBL2P(msg.send...\n      JUMPDEST \t\t\tgetRemainingValidBL2P(msg.send...\n      LT \t\t\tgetRemainingValidBL2P(msg.send...\n      ISZERO \t\t\tif (getRemainingValidBL2P(msg....\n      PUSH [tag] 940\t\t\tif (getRemainingValidBL2P(msg....\n      JUMPI \t\t\tif (getRemainingValidBL2P(msg....\n      PUSH 40\t\t\tInsufficientBalance()\n      MLOAD \t\t\tInsufficientBalance()\n      PUSH 1E9ACF17\t\t\t\n      PUSH E3\t\t\t\n      SHL \t\t\t\n      DUP2 \t\t\tInsufficientBalance()\n      MSTORE \t\t\tInsufficientBalance()\n      PUSH 4\t\t\tInsufficientBalance()\n      ADD \t\t\tInsufficientBalance()\n      PUSH 40\t\t\tInsufficientBalance()\n      MLOAD \t\t\tInsufficientBalance()\n      DUP1 \t\t\tInsufficientBalance()\n      SWAP2 \t\t\tInsufficientBalance()\n      SUB \t\t\tInsufficientBalance()\n      SWAP1 \t\t\tInsufficientBalance()\n      REVERT \t\t\tInsufficientBalance()\n    tag 940\t\t\tif (getRemainingValidBL2P(msg....\n      JUMPDEST \t\t\tif (getRemainingValidBL2P(msg....\n      CALLER \t\t\tmsg.sender\n      PUSH 0\t\t\tlastProposalTimestamp[msg.send...\n      SWAP1 \t\t\tlastProposalTimestamp[msg.send...\n      DUP2 \t\t\tlastProposalTimestamp[msg.send...\n      MSTORE \t\t\tlastProposalTimestamp[msg.send...\n      PUSH 8\t\t\tlastProposalTimestamp\n      PUSH 20\t\t\tlastProposalTimestamp[msg.send...\n      MSTORE \t\t\tlastProposalTimestamp[msg.send...\n      PUSH 40\t\t\tlastProposalTimestamp[msg.send...\n      SWAP1 \t\t\tlastProposalTimestamp[msg.send...\n      KECCAK256 \t\t\tlastProposalTimestamp[msg.send...\n      SLOAD \t\t\tlastProposalTimestamp[msg.send...\n      PUSH [tag] 941\t\t\tlastProposalTimestamp[msg.send...\n      SWAP1 \t\t\tlastProposalTimestamp[msg.send...\n      PUSH 278D00\t\t\t30 days\n      SWAP1 \t\t\t30 days\n      PUSH [tag] 452\t\t\tlastProposalTimestamp[msg.send...\n      JUMP \t\t\tlastProposalTimestamp[msg.send...\n    tag 941\t\t\tlastProposalTimestamp[msg.send...\n      JUMPDEST \t\t\tlastProposalTimestamp[msg.send...\n      TIMESTAMP \t\t\tblock.timestamp\n      LT \t\t\tblock.timestamp < lastProposal...\n      ISZERO \t\t\tif (block.timestamp < lastProp...\n      PUSH [tag] 942\t\t\tif (block.timestamp < lastProp...\n      JUMPI \t\t\tif (block.timestamp < lastProp...\n      PUSH 40\t\t\tProposalCooldownActive()\n      MLOAD \t\t\tProposalCooldownActive()\n      PUSH FD7AF65F\t\t\t\n      PUSH E0\t\t\t\n      SHL \t\t\t\n      DUP2 \t\t\tProposalCooldownActive()\n      MSTORE \t\t\tProposalCooldownActive()\n      PUSH 4\t\t\tProposalCooldownActive()\n      ADD \t\t\tProposalCooldownActive()\n      PUSH 40\t\t\tProposalCooldownActive()\n      MLOAD \t\t\tProposalCooldownActive()\n      DUP1 \t\t\tProposalCooldownActive()\n      SWAP2 \t\t\tProposalCooldownActive()\n      SUB \t\t\tProposalCooldownActive()\n      SWAP1 \t\t\tProposalCooldownActive()\n      REVERT \t\t\tProposalCooldownActive()\n    tag 942\t\t\tif (block.timestamp < lastProp...\n      JUMPDEST \t\t\tif (block.timestamp < lastProp...\n      PUSH 2\t\t\tProposalType.EmergencyPause\n      DUP2 \t\t\tproposalType\n      PUSH B\t\t\tproposalType == ProposalType.E...\n      DUP2 \t\t\tproposalType == ProposalType.E...\n      GT \t\t\tproposalType == ProposalType.E...\n      ISZERO \t\t\tproposalType == ProposalType.E...\n      PUSH [tag] 946\t\t\tproposalType == ProposalType.E...\n      JUMPI \t\t\tproposalType == ProposalType.E...\n      PUSH [tag] 946\t\t\tproposalType == ProposalType.E...\n      PUSH [tag] 467\t\t\tproposalType == ProposalType.E...\n      JUMP \t\t\tproposalType == ProposalType.E...\n    tag 946\t\t\tproposalType == ProposalType.E...\n      JUMPDEST \t\t\tproposalType == ProposalType.E...\n      EQ \t\t\tproposalType == ProposalType.E...\n      DUP1 \t\t\tproposalType == ProposalType.E...\n      PUSH [tag] 947\t\t\tproposalType == ProposalType.E...\n      JUMPI \t\t\tproposalType == ProposalType.E...\n      POP \t\t\t\n      PUSH 5\t\t\tProposalType.Advertisement\n      DUP2 \t\t\tproposalType\n      PUSH B\t\t\tproposalType == ProposalType.A...\n      DUP2 \t\t\tproposalType == ProposalType.A...\n      GT \t\t\tproposalType == ProposalType.A...\n      ISZERO \t\t\tproposalType == ProposalType.A...\n      PUSH [tag] 951\t\t\tproposalType == ProposalType.A...\n      JUMPI \t\t\tproposalType == ProposalType.A...\n      PUSH [tag] 951\t\t\tproposalType == ProposalType.A...\n      PUSH [tag] 467\t\t\tproposalType == ProposalType.A...\n      JUMP \t\t\tproposalType == ProposalType.A...\n    tag 951\t\t\tproposalType == ProposalType.A...\n      JUMPDEST \t\t\tproposalType == ProposalType.A...\n      EQ \t\t\tproposalType == ProposalType.A...\n    tag 947\t\t\tproposalType == ProposalType.E...\n      JUMPDEST \t\t\tproposalType == ProposalType.E...\n      PUSH [tag] 952\t\t\t(proposalType == ProposalType....\n      JUMPI \t\t\t(proposalType == ProposalType....\n      DUP3 \t\t\tnewValue == 0\n      ISZERO \t\t\tnewValue == 0\n      DUP1 \t\t\tnewValue == 0 && newAddress ==...\n      ISZERO \t\t\tnewValue == 0 && newAddress ==...\n      PUSH [tag] 953\t\t\tnewValue == 0 && newAddress ==...\n      JUMPI \t\t\tnewValue == 0 && newAddress ==...\n      POP \t\t\t\n      PUSH 1\t\t\t\n      PUSH 1\t\t\t\n      PUSH A0\t\t\t\n      SHL \t\t\t\n      SUB \t\t\t\n      DUP3 \t\t\tnewAddress == address(0)\n      AND \t\t\tnewAddress == address(0)\n      ISZERO \t\t\tnewAddress == address(0)\n    tag 953\t\t\tnewValue == 0 && newAddress ==...\n      JUMPDEST \t\t\tnewValue == 0 && newAddress ==...\n      PUSH [tag] 954\t\t\t(proposalType == ProposalType....\n      JUMP \t\t\t(proposalType == ProposalType....\n    tag 952\t\t\t(proposalType == ProposalType....\n      JUMPDEST \t\t\t(proposalType == ProposalType....\n      DUP4 \t\t\tbytes(desc).length\n      MLOAD \t\t\tbytes(desc).length\n      ISZERO \t\t\tbytes(desc).length == 0\n    tag 954\t\t\t(proposalType == ProposalType....\n      JUMPDEST \t\t\t(proposalType == ProposalType....\n      ISZERO \t\t\tif ((proposalType == ProposalT...\n      PUSH [tag] 955\t\t\tif ((proposalType == ProposalT...\n      JUMPI \t\t\tif ((proposalType == ProposalT...\n      PUSH 40\t\t\tInvalidProposalPayload()\n      MLOAD \t\t\tInvalidProposalPayload()\n      PUSH 37AD5983\t\t\t\n      PUSH E0\t\t\t\n      SHL \t\t\t\n      DUP2 \t\t\tInvalidProposalPayload()\n      MSTORE \t\t\tInvalidProposalPayload()\n      PUSH 4\t\t\tInvalidProposalPayload()\n      ADD \t\t\tInvalidProposalPayload()\n      PUSH 40\t\t\tInvalidProposalPayload()\n      MLOAD \t\t\tInvalidProposalPayload()\n      DUP1 \t\t\tInvalidProposalPayload()\n      SWAP2 \t\t\tInvalidProposalPayload()\n      SUB \t\t\tInvalidProposalPayload()\n      SWAP1 \t\t\tInvalidProposalPayload()\n      REVERT \t\t\tInvalidProposalPayload()\n    tag 955\t\t\tif ((proposalType == ProposalT...\n      JUMPDEST \t\t\tif ((proposalType == ProposalT...\n      PUSH 16\t\t\tproposalCount\n      PUSH 0\t\t\tproposalCount\n      DUP2 \t\t\t++proposalCount\n      SLOAD \t\t\t++proposalCount\n      PUSH [tag] 956\t\t\t++proposalCount\n      SWAP1 \t\t\t++proposalCount\n      PUSH [tag] 642\t\t\t++proposalCount\n      JUMP \t\t\t++proposalCount\n    tag 956\t\t\t++proposalCount\n      JUMPDEST \t\t\t++proposalCount\n      SWAP1 \t\t\t++proposalCount\n      SWAP2 \t\t\t++proposalCount\n      SSTORE \t\t\t++proposalCount\n      POP \t\t\t\n      PUSH 16\t\t\tproposalCount\n      SLOAD \t\t\tproposalCount\n      PUSH 0\t\t\tProposal storage p\n      DUP2 \t\t\tproposals[proposalCount]\n      DUP2 \t\t\tproposals[proposalCount]\n      MSTORE \t\t\tproposals[proposalCount]\n      PUSH 24\t\t\tproposals\n      PUSH 20\t\t\tproposals[proposalCount]\n      MSTORE \t\t\tproposals[proposalCount]\n      PUSH 40\t\t\tproposals[proposalCount]\n      SWAP1 \t\t\tproposals[proposalCount]\n      KECCAK256 \t\t\tproposals[proposalCount]\n      SWAP1 \t\t\tp.id = proposalCount\n      DUP2 \t\t\tp.id = proposalCount\n      SSTORE \t\t\tp.id = proposalCount\n      PUSH 6\t\t\tp.proposer\n      DUP2 \t\t\tp.proposer\n      ADD \t\t\tp.proposer\n      DUP1 \t\t\tp.proposer = msg.sender\n      SLOAD \t\t\tp.proposer = msg.sender\n      PUSH 1\t\t\t\n      PUSH 1\t\t\t\n      PUSH A0\t\t\t\n      SHL \t\t\t\n      SUB \t\t\t\n      NOT \t\t\t\n      AND \t\t\tp.proposer = msg.sender\n      CALLER \t\t\tmsg.sender\n      OR \t\t\tp.proposer = msg.sender\n      SWAP1 \t\t\tp.proposer = msg.sender\n      SSTORE \t\t\tp.proposer = msg.sender\n      PUSH 8\t\t\tp.description\n      DUP2 \t\t\tp.description\n      ADD \t\t\tp.description\n      PUSH [tag] 957\t\t\tp.description = desc\n      DUP7 \t\t\tdesc\n      DUP3 \t\t\tp.description\n      PUSH [tag] 958\t\t\tp.description = desc\n      JUMP \t\t\tp.description = desc\n    tag 957\t\t\tp.description = desc\n      JUMPDEST \t\t\tp.description = desc\n      POP \t\t\t\n      PUSH 3\t\t\tp.newValue\n      DUP2 \t\t\tp.newValue\n      ADD \t\t\tp.newValue\n      DUP5 \t\t\tp.newValue = newValue\n      SWAP1 \t\t\tp.newValue = newValue\n      SSTORE \t\t\tp.newValue = newValue\n      PUSH 7\t\t\tp.newAddress\n      DUP2 \t\t\tp.newAddress\n      ADD \t\t\tp.newAddress\n      DUP1 \t\t\tp.newAddress = newAddress\n      SLOAD \t\t\tp.newAddress = newAddress\n      PUSH 1\t\t\t\n      PUSH 1\t\t\t\n      PUSH A0\t\t\t\n      SHL \t\t\t\n      SUB \t\t\t\n      NOT \t\t\t\n      AND \t\t\tp.newAddress = newAddress\n      PUSH 1\t\t\t\n      PUSH 1\t\t\t\n      PUSH A0\t\t\t\n      SHL \t\t\t\n      SUB \t\t\t\n      DUP6 \t\t\tp.newAddress = newAddress\n      AND \t\t\tp.newAddress = newAddress\n      OR \t\t\tp.newAddress = newAddress\n      SWAP1 \t\t\tp.newAddress = newAddress\n      SSTORE \t\t\tp.newAddress = newAddress\n      PUSH 9\t\t\tp.proposalType\n      DUP2 \t\t\tp.proposalType\n      ADD \t\t\tp.proposalType\n      DUP1 \t\t\tp.proposalType = proposalType\n      SLOAD \t\t\tp.proposalType = proposalType\n      DUP4 \t\t\tproposalType\n      SWAP2 \t\t\tproposalType\n      SWAP1 \t\t\tp.proposalType\n      PUSH FF\t\t\t\n      NOT \t\t\t\n      AND \t\t\tp.proposalType = proposalType\n      PUSH 1\t\t\t\n      DUP4 \t\t\tproposalType\n      PUSH B\t\t\tp.proposalType = proposalType\n      DUP2 \t\t\tp.proposalType = proposalType\n      GT \t\t\tp.proposalType = proposalType\n      ISZERO \t\t\tp.proposalType = proposalType\n      PUSH [tag] 960\t\t\tp.proposalType = proposalType\n      JUMPI \t\t\tp.proposalType = proposalType\n      PUSH [tag] 960\t\t\tp.proposalType = proposalType\n      PUSH [tag] 467\t\t\tp.proposalType = proposalType\n      JUMP \t\t\tp.proposalType = proposalType\n    tag 960\t\t\tp.proposalType = proposalType\n      JUMPDEST \t\t\tp.proposalType = proposalType\n      MUL \t\t\tp.proposalType = proposalType\n      OR \t\t\tp.proposalType = proposalType\n      SWAP1 \t\t\tp.proposalType = proposalType\n      SSTORE \t\t\tp.proposalType = proposalType\n      POP \t\t\t\n      TIMESTAMP \t\t\tblock.timestamp\n      PUSH 1\t\t\tp.startBlock\n      DUP3 \t\t\tp.startBlock\n      ADD \t\t\tp.startBlock\n      DUP2 \t\t\tp.startBlock = block.timestamp\n      SWAP1 \t\t\tp.startBlock = block.timestamp\n      SSTORE \t\t\tp.startBlock = block.timestamp\n      PUSH [tag] 961\t\t\tblock.timestamp + VOTING_PERIO...\n      SWAP1 \t\t\tblock.timestamp + VOTING_PERIO...\n      PUSH 93A80\t\t\t7 days\n      SWAP1 \t\t\t7 days\n      PUSH [tag] 452\t\t\tblock.timestamp + VOTING_PERIO...\n      JUMP \t\t\tblock.timestamp + VOTING_PERIO...\n    tag 961\t\t\tblock.timestamp + VOTING_PERIO...\n      JUMPDEST \t\t\tblock.timestamp + VOTING_PERIO...\n      PUSH 2\t\t\tp.endBlock\n      DUP3 \t\t\tp.endBlock\n      ADD \t\t\tp.endBlock\n      SSTORE \t\t\tp.endBlock = block.timestamp +...\n      CALLER \t\t\tmsg.sender\n      PUSH 0\t\t\tlastProposalTimestamp[msg.send...\n      DUP2 \t\t\tlastProposalTimestamp[msg.send...\n      DUP2 \t\t\tlastProposalTimestamp[msg.send...\n      MSTORE \t\t\tlastProposalTimestamp[msg.send...\n      PUSH 8\t\t\tlastProposalTimestamp\n      PUSH 20\t\t\tlastProposalTimestamp[msg.send...\n      MSTORE \t\t\tlastProposalTimestamp[msg.send...\n      PUSH 40\t\t\tlastProposalTimestamp[msg.send...\n      SWAP1 \t\t\tlastProposalTimestamp[msg.send...\n      DUP2 \t\t\tlastProposalTimestamp[msg.send...\n      SWAP1 \t\t\tlastProposalTimestamp[msg.send...\n      KECCAK256 \t\t\tlastProposalTimestamp[msg.send...\n      TIMESTAMP \t\t\tblock.timestamp\n      SWAP1 \t\t\tlastProposalTimestamp[msg.send...\n      SSTORE \t\t\tlastProposalTimestamp[msg.send...\n      DUP3 \t\t\tp.id\n      SLOAD \t\t\tp.id\n      SWAP1 \t\t\tProposalSubmitted(p.id, msg.se...\n      MLOAD \t\t\tProposalSubmitted(p.id, msg.se...\n      PUSH 64147B1D4B260DDD199F9E9A7C1D4E444605245A354C18A74FDCC8E9004DA33E\t\t\tProposalSubmitted(p.id, msg.se...\n      SWAP1 \t\t\tProposalSubmitted(p.id, msg.se...\n      PUSH [tag] 962\t\t\tProposalSubmitted(p.id, msg.se...\n      SWAP1 \t\t\tProposalSubmitted(p.id, msg.se...\n      DUP10 \t\t\tdesc\n      SWAP1 \t\t\tdesc\n      DUP8 \t\t\tproposalType\n      SWAP1 \t\t\tproposalType\n      PUSH [tag] 963\t\t\tProposalSubmitted(p.id, msg.se...\n      JUMP \t\t\tProposalSubmitted(p.id, msg.se...\n    tag 962\t\t\tProposalSubmitted(p.id, msg.se...\n      JUMPDEST \t\t\tProposalSubmitted(p.id, msg.se...\n      PUSH 40\t\t\tProposalSubmitted(p.id, msg.se...\n      MLOAD \t\t\tProposalSubmitted(p.id, msg.se...\n      DUP1 \t\t\tProposalSubmitted(p.id, msg.se...\n      SWAP2 \t\t\tProposalSubmitted(p.id, msg.se...\n      SUB \t\t\tProposalSubmitted(p.id, msg.se...\n      SWAP1 \t\t\tProposalSubmitted(p.id, msg.se...\n      LOG3 \t\t\tProposalSubmitted(p.id, msg.se...\n      POP \t\t\t{\\n        if (getRemainingVal...\n      POP \t\t\tfunction submitProposal(string...\n      POP \t\t\tfunction submitProposal(string...\n      POP \t\t\tfunction submitProposal(string...\n      POP \t\t\tfunction submitProposal(string...\n      JUMP \t\t\tfunction submitProposal(string...\n    tag 410\t\t\tmodifier onlyGovernanceOrUser(...\n      JUMPDEST \t\t\tmodifier onlyGovernanceOrUser(...\n      PUSH [tag] 965\t\t\tror BL2PNotEx\n      PUSH [tag] 683\t\t\tror BL2PNot\n      JUMP \t\t\tror BL2PNotEx\n    tag 965\t\t\tror BL2PNotEx\n      JUMPDEST \t\t\tror BL2PNotEx\n      PUSH 1\t\t\t\n      PUSH 1\t\t\t\n      PUSH A0\t\t\t\n      SHL \t\t\t\n      SUB \t\t\t\n      DUP2 \t\t\tsender != governanceCo\n      AND \t\t\tsender != governanceCo\n      PUSH [tag] 967\t\t\tmsg.sender != governanceContra...\n      JUMPI \t\t\tmsg.sender != governanceContra...\n      PUSH 40\t\t\trized();\\n        _;\\n    }\\n ...\n      MLOAD \t\t\trized();\\n        _;\\n    }\\n ...\n      PUSH 1E4FBDF7\t\t\t\n      PUSH E0\t\t\t\n      SHL \t\t\t\n      DUP2 \t\t\trized();\\n        _;\\n    }\\n ...\n      MSTORE \t\t\trized();\\n        _;\\n    }\\n ...\n      PUSH 0\t\t\t \n      PUSH 4\t\t\trized();\\n        _;\\n    }\\n ...\n      DUP3 \t\t\trized();\\n        _;\\n    }\\n ...\n      ADD \t\t\trized();\\n        _;\\n    }\\n ...\n      MSTORE \t\t\tic advertisements;\\n    mappin...\n      PUSH 24\t\t\tt256 => Advertisem\n      ADD \t\t\tt256 => Advertisem\n      PUSH [tag] 527\t\t\trized();\\n        _;\\n    }\\n ...\n      JUMP \t\t\tapping(address => uint256) pub...\n    tag 967\t\t\tmsg.sender != governanceContra...\n      JUMPDEST \t\t\tmsg.sender != governanceContra...\n      PUSH [tag] 511\t\t\td() {\\n        if (emergencyP\n      DUP2 \t\t\tmergency\n      PUSH [tag] 691\t\t\td() {\\n        if (\n      JUMP \t\t\td() {\\n        if (emergencyP\n    tag 419\t\t\tfunction revealVote(uint256 id...\n      JUMPDEST \t\t\tfunction revealVote(uint256 id...\n      PUSH 9\t\t\temergencyPaused\n      SLOAD \t\t\temergencyPaused\n      PUSH 10000\t\t\temergencyPaused\n      SWAP1 \t\t\temergencyPaused\n      DIV \t\t\temergencyPaused\n      PUSH FF\t\t\temergencyPaused\n      AND \t\t\temergencyPaused\n      ISZERO \t\t\tif (emergencyPaused) revert Co...\n      PUSH [tag] 971\t\t\tif (emergencyPaused) revert Co...\n      JUMPI \t\t\tif (emergencyPaused) revert Co...\n      PUSH 40\t\t\tContractPaused()\n      MLOAD \t\t\tContractPaused()\n      PUSH AB35696F\t\t\t\n      PUSH E0\t\t\t\n      SHL \t\t\t\n      DUP2 \t\t\tContractPaused()\n      MSTORE \t\t\tContractPaused()\n      PUSH 4\t\t\tContractPaused()\n      ADD \t\t\tContractPaused()\n      PUSH 40\t\t\tContractPaused()\n      MLOAD \t\t\tContractPaused()\n      DUP1 \t\t\tContractPaused()\n      SWAP2 \t\t\tContractPaused()\n      SUB \t\t\tContractPaused()\n      SWAP1 \t\t\tContractPaused()\n      REVERT \t\t\tContractPaused()\n    tag 971\t\t\tif (emergencyPaused) revert Co...\n      JUMPDEST \t\t\tif (emergencyPaused) revert Co...\n      PUSH 0\t\t\tProposal storage p\n      DUP4 \t\t\tproposals[id]\n      DUP2 \t\t\tproposals[id]\n      MSTORE \t\t\tproposals[id]\n      PUSH 24\t\t\tproposals\n      PUSH 20\t\t\tproposals[id]\n      MSTORE \t\t\tproposals[id]\n      PUSH 40\t\t\tproposals[id]\n      DUP2 \t\t\tproposals[id]\n      KECCAK256 \t\t\tproposals[id]\n      PUSH 1\t\t\tp.startBlock\n      DUP2 \t\t\tp.startBlock\n      ADD \t\t\tp.startBlock\n      SLOAD \t\t\tp.startBlock\n      SWAP1 \t\t\tproposals[id]\n      SWAP2 \t\t\tproposals[id]\n      SUB \t\t\tp.startBlock == 0\n      PUSH [tag] 973\t\t\tif (p.startBlock == 0) revert ...\n      JUMPI \t\t\tif (p.startBlock == 0) revert ...\n      PUSH 40\t\t\tProposalDoesNotExist()\n      MLOAD \t\t\tProposalDoesNotExist()\n      PUSH 6CE3C701\t\t\t\n      PUSH E1\t\t\t\n      SHL \t\t\t\n      DUP2 \t\t\tProposalDoesNotExist()\n      MSTORE \t\t\tProposalDoesNotExist()\n      PUSH 4\t\t\tProposalDoesNotExist()\n      ADD \t\t\tProposalDoesNotExist()\n      PUSH 40\t\t\tProposalDoesNotExist()\n      MLOAD \t\t\tProposalDoesNotExist()\n      DUP1 \t\t\tProposalDoesNotExist()\n      SWAP2 \t\t\tProposalDoesNotExist()\n      SUB \t\t\tProposalDoesNotExist()\n      SWAP1 \t\t\tProposalDoesNotExist()\n      REVERT \t\t\tProposalDoesNotExist()\n    tag 973\t\t\tif (p.startBlock == 0) revert ...\n      JUMPDEST \t\t\tif (p.startBlock == 0) revert ...\n      DUP1 \t\t\tp\n      PUSH 1\t\t\tp.startBlock\n      ADD \t\t\tp.startBlock\n      SLOAD \t\t\tp.startBlock\n      TIMESTAMP \t\t\tblock.timestamp\n      LT \t\t\tblock.timestamp < p.startBlock\n      DUP1 \t\t\tblock.timestamp < p.startBlock...\n      PUSH [tag] 974\t\t\tblock.timestamp < p.startBlock...\n      JUMPI \t\t\tblock.timestamp < p.startBlock...\n      POP \t\t\tblock.timestamp < p.startBlock...\n      DUP1 \t\t\tp\n      PUSH 2\t\t\tp.endBlock\n      ADD \t\t\tp.endBlock\n      SLOAD \t\t\tp.endBlock\n      TIMESTAMP \t\t\tblock.timestamp\n      GT \t\t\tblock.timestamp > p.endBlock\n    tag 974\t\t\tblock.timestamp < p.startBlock...\n      JUMPDEST \t\t\tblock.timestamp < p.startBlock...\n      ISZERO \t\t\tif (block.timestamp < p.startB...\n      PUSH [tag] 975\t\t\tif (block.timestamp < p.startB...\n      JUMPI \t\t\tif (block.timestamp < p.startB...\n      PUSH 40\t\t\tVotingPeriodInactive()\n      MLOAD \t\t\tVotingPeriodInactive()\n      PUSH 2DFA5C9B\t\t\t\n      PUSH E0\t\t\t\n      SHL \t\t\t\n      DUP2 \t\t\tVotingPeriodInactive()\n      MSTORE \t\t\tVotingPeriodInactive()\n      PUSH 4\t\t\tVotingPeriodInactive()\n      ADD \t\t\tVotingPeriodInactive()\n      PUSH 40\t\t\tVotingPeriodInactive()\n      MLOAD \t\t\tVotingPeriodInactive()\n      DUP1 \t\t\tVotingPeriodInactive()\n      SWAP2 \t\t\tVotingPeriodInactive()\n      SUB \t\t\tVotingPeriodInactive()\n      SWAP1 \t\t\tVotingPeriodInactive()\n      REVERT \t\t\tVotingPeriodInactive()\n    tag 975\t\t\tif (block.timestamp < p.startB...\n      JUMPDEST \t\t\tif (block.timestamp < p.startB...\n      CALLER \t\t\tmsg.sender\n      PUSH 0\t\t\tp.hasVoted[msg.sender]\n      SWAP1 \t\t\tp.hasVoted[msg.sender]\n      DUP2 \t\t\tp.hasVoted[msg.sender]\n      MSTORE \t\t\tp.hasVoted[msg.sender]\n      PUSH A\t\t\tp.hasVoted\n      DUP3 \t\t\tp.hasVoted\n      ADD \t\t\tp.hasVoted\n      PUSH 20\t\t\tp.hasVoted[msg.sender]\n      MSTORE \t\t\tp.hasVoted[msg.sender]\n      PUSH 40\t\t\tp.hasVoted[msg.sender]\n      SWAP1 \t\t\tp.hasVoted[msg.sender]\n      KECCAK256 \t\t\tp.hasVoted[msg.sender]\n      SLOAD \t\t\tp.hasVoted[msg.sender]\n      PUSH FF\t\t\tp.hasVoted[msg.sender]\n      AND \t\t\tp.hasVoted[msg.sender]\n      ISZERO \t\t\tif (p.hasVoted[msg.sender]) re...\n      PUSH [tag] 976\t\t\tif (p.hasVoted[msg.sender]) re...\n      JUMPI \t\t\tif (p.hasVoted[msg.sender]) re...\n      PUSH 40\t\t\tAlreadyVoted()\n      MLOAD \t\t\tAlreadyVoted()\n      PUSH 7C9A1CF9\t\t\t\n      PUSH E0\t\t\t\n      SHL \t\t\t\n      DUP2 \t\t\tAlreadyVoted()\n      MSTORE \t\t\tAlreadyVoted()\n      PUSH 4\t\t\tAlreadyVoted()\n      ADD \t\t\tAlreadyVoted()\n      PUSH 40\t\t\tAlreadyVoted()\n      MLOAD \t\t\tAlreadyVoted()\n      DUP1 \t\t\tAlreadyVoted()\n      SWAP2 \t\t\tAlreadyVoted()\n      SUB \t\t\tAlreadyVoted()\n      SWAP1 \t\t\tAlreadyVoted()\n      REVERT \t\t\tAlreadyVoted()\n    tag 976\t\t\tif (p.hasVoted[msg.sender]) re...\n      JUMPDEST \t\t\tif (p.hasVoted[msg.sender]) re...\n      PUSH 9\t\t\tp.executed\n      DUP2 \t\t\tp.executed\n      ADD \t\t\tp.executed\n      SLOAD \t\t\tp.executed\n      PUSH 100\t\t\tp.executed\n      SWAP1 \t\t\tp.executed\n      DIV \t\t\tp.executed\n      PUSH FF\t\t\tp.executed\n      AND \t\t\tp.executed\n      ISZERO \t\t\tif (p.executed) revert Proposa...\n      PUSH [tag] 977\t\t\tif (p.executed) revert Proposa...\n      JUMPI \t\t\tif (p.executed) revert Proposa...\n      PUSH 40\t\t\tProposalExecuted()\n      MLOAD \t\t\tProposalExecuted()\n      PUSH CF88C657\t\t\t\n      PUSH E0\t\t\t\n      SHL \t\t\t\n      DUP2 \t\t\tProposalExecuted()\n      MSTORE \t\t\tProposalExecuted()\n      PUSH 4\t\t\tProposalExecuted()\n      ADD \t\t\tProposalExecuted()\n      PUSH 40\t\t\tProposalExecuted()\n      MLOAD \t\t\tProposalExecuted()\n      DUP1 \t\t\tProposalExecuted()\n      SWAP2 \t\t\tProposalExecuted()\n      SUB \t\t\tProposalExecuted()\n      SWAP1 \t\t\tProposalExecuted()\n      REVERT \t\t\tProposalExecuted()\n    tag 977\t\t\tif (p.executed) revert Proposa...\n      JUMPDEST \t\t\tif (p.executed) revert Proposa...\n      PUSH 40\t\t\tabi.encode(support, secret, ms...\n      DUP1 \t\t\tabi.encode(support, secret, ms...\n      MLOAD \t\t\tabi.encode(support, secret, ms...\n      DUP5 \t\t\t external when\n      ISZERO \t\t\t external when\n      ISZERO \t\t\talType) external whenN\n      PUSH 20\t\t\tabi.encode(support, secret, ms...\n      DUP3 \t\t\tabi.encode(support, secret, ms...\n      ADD \t\t\tabi.encode(support, secret, ms...\n      MSTORE \t\t\troposalType proposalType) exte...\n      SWAP1 \t\t\t  if (getRemaining\n      DUP2 \t\t\t  if (getRemaining\n      ADD \t\t\t  if (getRemaining\n      DUP4 \t\t\t\\n        if (getRemainingVali...\n      SWAP1 \t\t\t\\n        if (getRemainingVali...\n      MSTORE \t\t\t\\n        if (getRemainingVali...\n      CALLER \t\t\tmsg.sender\n      PUSH 60\t\t\tROPOSAL_THRESHOLD)\n      DUP3 \t\t\tROPOSAL_THRESHOLD)\n      ADD \t\t\tROPOSAL_THRESHOLD)\n      MSTORE \t\t\ter) < PROPOSAL_THRESHOLD) reve...\n      PUSH 80\t\t\talue, address newA\n      ADD \t\t\talue, address newA\n      PUSH 40\t\t\tabi.encode(support, secret, ms...\n      DUP1 \t\t\tabi.encode(support, secret, ms...\n      MLOAD \t\t\tabi.encode(support, secret, ms...\n      PUSH 1F\t\t\t\n      NOT \t\t\t\n      DUP2 \t\t\tabi.encode(support, secret, ms...\n      DUP5 \t\t\tabi.encode(support, secret, ms...\n      SUB \t\t\tabi.encode(support, secret, ms...\n      ADD \t\t\tabi.encode(support, secret, ms...\n      DUP2 \t\t\tabi.encode(support, secret, ms...\n      MSTORE \t\t\tabi.encode(support, secret, ms...\n      SWAP2 \t\t\tabi.encode(support, secret, ms...\n      DUP2 \t\t\tabi.encode(support, secret, ms...\n      MSTORE \t\t\tabi.encode(support, secret, ms...\n      DUP2 \t\t\tkeccak256(abi.encode(support, ...\n      MLOAD \t\t\tkeccak256(abi.encode(support, ...\n      PUSH 20\t\t\tabi.encode(support, secret, ms...\n      SWAP3 \t\t\tkeccak256(abi.encode(support, ...\n      DUP4 \t\t\tkeccak256(abi.encode(support, ...\n      ADD \t\t\tkeccak256(abi.encode(support, ...\n      KECCAK256 \t\t\tkeccak256(abi.encode(support, ...\n      CALLER \t\t\tmsg.sender\n      PUSH 0\t\t\tp.voteCommits[msg.sender]\n      SWAP1 \t\t\tp.voteCommits[msg.sender]\n      DUP2 \t\t\tp.voteCommits[msg.sender]\n      MSTORE \t\t\tp.voteCommits[msg.sender]\n      PUSH B\t\t\tp.voteCommits\n      DUP6 \t\t\tp.voteCommits\n      ADD \t\t\tp.voteCommits\n      SWAP1 \t\t\tp.voteCommits[msg.sender]\n      SWAP4 \t\t\tp.voteCommits[msg.sender]\n      MSTORE \t\t\tp.voteCommits[msg.sender]\n      SWAP2 \t\t\tp.voteCommits[msg.sender]\n      KECCAK256 \t\t\tp.voteCommits[msg.sender]\n      SLOAD \t\t\tp.voteCommits[msg.sender]\n      EQ \t\t\tp.voteCommits[msg.sender] != k...\n      PUSH [tag] 980\t\t\tif (p.voteCommits[msg.sender] ...\n      JUMPI \t\t\tif (p.voteCommits[msg.sender] ...\n      PUSH 40\t\t\tInvalidCommit()\n      MLOAD \t\t\tInvalidCommit()\n      PUSH B7B33787\t\t\t\n      PUSH E0\t\t\t\n      SHL \t\t\t\n      DUP2 \t\t\tInvalidCommit()\n      MSTORE \t\t\tInvalidCommit()\n      PUSH 4\t\t\tInvalidCommit()\n      ADD \t\t\tInvalidCommit()\n      PUSH 40\t\t\tInvalidCommit()\n      MLOAD \t\t\tInvalidCommit()\n      DUP1 \t\t\tInvalidCommit()\n      SWAP2 \t\t\tInvalidCommit()\n      SUB \t\t\tInvalidCommit()\n      SWAP1 \t\t\tInvalidCommit()\n      REVERT \t\t\tInvalidCommit()\n    tag 980\t\t\tif (p.voteCommits[msg.sender] ...\n      JUMPDEST \t\t\tif (p.voteCommits[msg.sender] ...\n      PUSH [tag] 981\t\t\tupdateBL2PMaturity(msg.sender)\n      CALLER \t\t\tmsg.sender\n      PUSH [tag] 284\t\t\tupdateBL2PMaturity\n      JUMP \t\t\tupdateBL2PMaturity(msg.sender)\n    tag 981\t\t\tupdateBL2PMaturity(msg.sender)\n      JUMPDEST \t\t\tupdateBL2PMaturity(msg.sender)\n      PUSH 0\t\t\tuint256 weight\n      PUSH [tag] 982\t\t\tgetRemainingValidBL2P(msg.send...\n      CALLER \t\t\tmsg.sender\n      PUSH [tag] 356\t\t\tgetRemainingValidBL2P\n      JUMP \t\t\tgetRemainingValidBL2P(msg.send...\n    tag 982\t\t\tgetRemainingValidBL2P(msg.send...\n      JUMPDEST \t\t\tgetRemainingValidBL2P(msg.send...\n      SWAP1 \t\t\tuint256 weight = getRemainingV...\n      POP \t\t\tuint256 weight = getRemainingV...\n      DUP1 \t\t\tweight\n      PUSH 0\t\t\t0\n      SUB \t\t\tweight == 0\n      PUSH [tag] 983\t\t\tif (weight == 0) revert NoVali...\n      JUMPI \t\t\tif (weight == 0) revert NoVali...\n      PUSH 40\t\t\tNoValidBL2P()\n      MLOAD \t\t\tNoValidBL2P()\n      PUSH E1000181\t\t\t\n      PUSH E0\t\t\t\n      SHL \t\t\t\n      DUP2 \t\t\tNoValidBL2P()\n      MSTORE \t\t\tNoValidBL2P()\n      PUSH 4\t\t\tNoValidBL2P()\n      ADD \t\t\tNoValidBL2P()\n      PUSH 40\t\t\tNoValidBL2P()\n      MLOAD \t\t\tNoValidBL2P()\n      DUP1 \t\t\tNoValidBL2P()\n      SWAP2 \t\t\tNoValidBL2P()\n      SUB \t\t\tNoValidBL2P()\n      SWAP1 \t\t\tNoValidBL2P()\n      REVERT \t\t\tNoValidBL2P()\n    tag 983\t\t\tif (weight == 0) revert NoVali...\n      JUMPDEST \t\t\tif (weight == 0) revert NoVali...\n      CALLER \t\t\tmsg.sender\n      PUSH 0\t\t\tp.hasVoted[msg.sender]\n      SWAP1 \t\t\tp.hasVoted[msg.sender]\n      DUP2 \t\t\tp.hasVoted[msg.sender]\n      MSTORE \t\t\tp.hasVoted[msg.sender]\n      PUSH A\t\t\tp.hasVoted\n      DUP4 \t\t\tp.hasVoted\n      ADD \t\t\tp.hasVoted\n      PUSH 20\t\t\tp.hasVoted[msg.sender]\n      MSTORE \t\t\tp.hasVoted[msg.sender]\n      PUSH 40\t\t\tp.hasVoted[msg.sender]\n      SWAP1 \t\t\tp.hasVoted[msg.sender]\n      KECCAK256 \t\t\tp.hasVoted[msg.sender]\n      DUP1 \t\t\tp.hasVoted[msg.sender] = true\n      SLOAD \t\t\tp.hasVoted[msg.sender] = true\n      PUSH FF\t\t\t\n      NOT \t\t\t\n      AND \t\t\tp.hasVoted[msg.sender] = true\n      PUSH 1\t\t\ttrue\n      OR \t\t\tp.hasVoted[msg.sender] = true\n      SWAP1 \t\t\tp.hasVoted[msg.sender] = true\n      SSTORE \t\t\tp.hasVoted[msg.sender] = true\n      DUP4 \t\t\tif (support) {\\n            p....\n      ISZERO \t\t\tif (support) {\\n            p....\n      PUSH [tag] 984\t\t\tif (support) {\\n            p....\n      JUMPI \t\t\tif (support) {\\n            p....\n      DUP1 \t\t\tweight\n      DUP3 \t\t\tp\n      PUSH 4\t\t\tp.forVotes\n      ADD \t\t\tp.forVotes\n      PUSH 0\t\t\tp.forVotes\n      DUP3 \t\t\tp.forVotes += weight\n      DUP3 \t\t\tp.forVotes += weight\n      SLOAD \t\t\tp.forVotes += weight\n      PUSH [tag] 985\t\t\tp.forVotes += weight\n      SWAP2 \t\t\tp.forVotes += weight\n      SWAP1 \t\t\tp.forVotes += weight\n      PUSH [tag] 452\t\t\tp.forVotes += weight\n      JUMP \t\t\tp.forVotes += weight\n    tag 985\t\t\tp.forVotes += weight\n      JUMPDEST \t\t\tp.forVotes += weight\n      SWAP1 \t\t\tp.forVotes += weight\n      SWAP2 \t\t\tp.forVotes += weight\n      SSTORE \t\t\tp.forVotes += weight\n      POP \t\t\t\n      PUSH [tag] 986\t\t\tif (support) {\\n            p....\n      SWAP1 \t\t\tif (support) {\\n            p....\n      POP \t\t\t\n      JUMP \t\t\tif (support) {\\n            p....\n    tag 984\t\t\tif (support) {\\n            p....\n      JUMPDEST \t\t\tif (support) {\\n            p....\n      DUP1 \t\t\tweight\n      DUP3 \t\t\tp\n      PUSH 5\t\t\tp.againstVotes\n      ADD \t\t\tp.againstVotes\n      PUSH 0\t\t\tp.againstVotes\n      DUP3 \t\t\tp.againstVotes += weight\n      DUP3 \t\t\tp.againstVotes += weight\n      SLOAD \t\t\tp.againstVotes += weight\n      PUSH [tag] 987\t\t\tp.againstVotes += weight\n      SWAP2 \t\t\tp.againstVotes += weight\n      SWAP1 \t\t\tp.againstVotes += weight\n      PUSH [tag] 452\t\t\tp.againstVotes += weight\n      JUMP \t\t\tp.againstVotes += weight\n    tag 987\t\t\tp.againstVotes += weight\n      JUMPDEST \t\t\tp.againstVotes += weight\n      SWAP1 \t\t\tp.againstVotes += weight\n      SWAP2 \t\t\tp.againstVotes += weight\n      SSTORE \t\t\tp.againstVotes += weight\n      POP \t\t\t\n      POP \t\t\t\n    tag 986\t\t\tif (support) {\\n            p....\n      JUMPDEST \t\t\tif (support) {\\n            p....\n      PUSH 40\t\t\tVoteRevealed(id, msg.sender, s...\n      DUP1 \t\t\tVoteRevealed(id, msg.sender, s...\n      MLOAD \t\t\tVoteRevealed(id, msg.sender, s...\n      DUP6 \t\t\ter, uint256 bl\n      ISZERO \t\t\ter, uint256 bl\n      ISZERO \t\t\texed user, uint256 bl2\n      DUP2 \t\t\tStaked(address indexed user, u...\n      MSTORE \t\t\tStaked(address indexed user, u...\n      PUSH 20\t\t\tit\n      DUP2 \t\t\tnt ProposalSubmitt\n      ADD \t\t\tnt ProposalSubmitt\n      DUP4 \t\t\t    event ProposalSubmitted(ui...\n      SWAP1 \t\t\t    event ProposalSubmitted(ui...\n      MSTORE \t\t\t    event ProposalSubmitted(ui...\n      CALLER \t\t\tmsg.sender\n      SWAP2 \t\t\tmsg.sender\n      DUP8 \t\t\tid\n      SWAP2 \t\t\tid\n      PUSH 96B7E5DBD1A0BB4B34731D1DFCE6EA83EAB3FADBF4710C77AD43106F771F90FB\t\t\tVoteRevealed(id, msg.sender, s...\n      SWAP2 \t\t\tVoteRevealed(id, msg.sender, s...\n      ADD \t\t\t256 reward);\\n    e\n      PUSH [tag] 962\t\t\tVoteRevealed(id, msg.sender, s...\n      JUMP \t\t\ttamp);\\n    event Unstaked(add...\n    tag 422\t\t\tfunction getBL2PLifetime(addre...\n      JUMPDEST \t\t\tfunction getBL2PLifetime(addre...\n      PUSH 1\t\t\t\n      PUSH 1\t\t\t\n      PUSH A0\t\t\t\n      SHL \t\t\t\n      SUB \t\t\t\n      AND \t\t\tbl2pMeta[user]\n      PUSH 0\t\t\tuint256 birthBlock\n      SWAP1 \t\t\tbl2pMeta[user]\n      DUP2 \t\t\tbl2pMeta[user]\n      MSTORE \t\t\tbl2pMeta[user]\n      PUSH 25\t\t\tbl2pMeta\n      PUSH 20\t\t\tbl2pMeta[user]\n      SWAP1 \t\t\tbl2pMeta[user]\n      DUP2 \t\t\tbl2pMeta[user]\n      MSTORE \t\t\tbl2pMeta[user]\n      PUSH 40\t\t\tbl2pMeta[user]\n      SWAP2 \t\t\tbl2pMeta[user]\n      DUP3 \t\t\tbl2pMeta[user]\n      SWAP1 \t\t\tbl2pMeta[user]\n      KECCAK256 \t\t\tbl2pMeta[user]\n      DUP3 \t\t\tBL2PMetadata memory meta = bl2...\n      MLOAD \t\t\tBL2PMetadata memory meta = bl2...\n      DUP1 \t\t\tBL2PMetadata memory meta = bl2...\n      DUP5 \t\t\tBL2PMetadata memory meta = bl2...\n      ADD \t\t\tBL2PMetadata memory meta = bl2...\n      SWAP1 \t\t\tBL2PMetadata memory meta = bl2...\n      SWAP4 \t\t\tBL2PMetadata memory meta = bl2...\n      MSTORE \t\t\tBL2PMetadata memory meta = bl2...\n      DUP1 \t\t\tBL2PMetadata memory meta = bl2...\n      SLOAD \t\t\tBL2PMetadata memory meta = bl2...\n      DUP1 \t\t\tBL2PMetadata memory meta = bl2...\n      DUP5 \t\t\tBL2PMetadata memory meta = bl2...\n      MSTORE \t\t\tBL2PMetadata memory meta = bl2...\n      PUSH 1\t\t\tBL2PMetadata memory meta = bl2...\n      SWAP1 \t\t\tBL2PMetadata memory meta = bl2...\n      SWAP2 \t\t\tBL2PMetadata memory meta = bl2...\n      ADD \t\t\tBL2PMetadata memory meta = bl2...\n      SLOAD \t\t\tBL2PMetadata memory meta = bl2...\n      PUSH FF\t\t\tBL2PMetadata memory meta = bl2...\n      AND \t\t\tBL2PMetadata memory meta = bl2...\n      ISZERO \t\t\tBL2PMetadata memory meta = bl2...\n      ISZERO \t\t\tBL2PMetadata memory meta = bl2...\n      SWAP3 \t\t\tBL2PMetadata memory meta = bl2...\n      SWAP1 \t\t\tBL2PMetadata memory meta = bl2...\n      SWAP2 \t\t\tBL2PMetadata memory meta = bl2...\n      ADD \t\t\tBL2PMetadata memory meta = bl2...\n      SWAP2 \t\t\tBL2PMetadata memory meta = bl2...\n      SWAP1 \t\t\tBL2PMetadata memory meta = bl2...\n      SWAP2 \t\t\tBL2PMetadata memory meta = bl2...\n      MSTORE \t\t\tBL2PMetadata memory meta = bl2...\n      PUSH 80\t\t\t128\n      DUP2 \t\t\tmeta.birthAndExpiry >> 128\n      SWAP1 \t\t\tmeta.birthAndExpiry >> 128\n      SHR \t\t\tmeta.birthAndExpiry >> 128\n      SWAP2 \t\t\tmeta.birthAndExpiry >> 128\n      PUSH 1\t\t\t\n      PUSH 1\t\t\t\n      PUSH 80\t\t\t\n      SHL \t\t\t\n      SUB \t\t\t\n      SWAP1 \t\t\tmeta.birthAndExpiry & ((1 << 1...\n      SWAP2 \t\t\tmeta.birthAndExpiry & ((1 << 1...\n      AND \t\t\tmeta.birthAndExpiry & ((1 << 1...\n      SWAP1 \t\t\tmeta.birthAndExpiry & ((1 << 1...\n      JUMP \t\t\tfunction getBL2PLifetime(addre...\n    tag 441\t\t\tvent ProposalFailed(uint256 in...\n      JUMPDEST \t\t\tvent ProposalFailed(uint256 in...\n      PUSH [tag] 992\t\t\t256 newQuorum);\\n    event Vot...\n      DUP4 \t\t\torum)\n      DUP4 \t\t\t    eve\n      DUP4 \t\t\t Vote\n      PUSH 1\t\t\tresh\n      PUSH [tag] 993\t\t\t256 newQ\n      JUMP \t\t\t256 newQuorum);\\n    event Vot...\n    tag 992\t\t\t256 newQuorum);\\n    event Vot...\n      JUMPDEST \t\t\t256 newQuorum);\\n    event Vot...\n      POP \t\t\tvent ProposalFailed(uint256 in...\n      POP \t\t\tvent ProposalFailed(uint256 in...\n      POP \t\t\tvent ProposalFailed(uint256 in...\n      JUMP \t\t\tvent ProposalFailed(uint256 in...\n    tag 444\t\t\tdress user) {\\n        if (msg...\n      JUMPDEST \t\t\tdress user) {\\n        if (msg...\n      PUSH 2\t\t\tx\n      PUSH 5\t\t\tmodifie\n      SLOAD \t\t\tmodifie\n      SUB \t\t\tmodifier whenNotPa\n      PUSH [tag] 995\t\t\t    modifier whenNotPaused() {...\n      JUMPI \t\t\t    modifier whenNotPaused() {...\n      PUSH 40\t\t\tergencyPaused) revert Contract\n      MLOAD \t\t\tergencyPaused) revert Contract\n      PUSH 3EE5AEB5\t\t\t\n      PUSH E0\t\t\t\n      SHL \t\t\t\n      DUP2 \t\t\tergencyPaused) revert Contract\n      MSTORE \t\t\tergencyPaused) revert Contract\n      PUSH 4\t\t\tergencyPaused) revert Contract\n      ADD \t\t\tergencyPaused) revert Contract\n      PUSH 40\t\t\tergencyPaused) revert Contract\n      MLOAD \t\t\tergencyPaused) revert Contract\n      DUP1 \t\t\tergencyPaused) revert Contract\n      SWAP2 \t\t\tergencyPaused) revert Contract\n      SUB \t\t\tergencyPaused) revert Contract\n      SWAP1 \t\t\tergencyPaused) revert Contract\n      REVERT \t\t\tergencyPaused) revert Contract\n    tag 995\t\t\t    modifier whenNotPaused() {...\n      JUMPDEST \t\t\t    modifier whenNotPaused() {...\n      PUSH 2\t\t\tx\n      PUSH 5\t\t\tder != \n      SSTORE \t\t\tder != governance\n      JUMP \t\t\tdress user) {\\n        if (msg...\n    tag 475\t\t\tngPeriodNotEnded();\\n    error...\n      JUMPDEST \t\t\tngPeriodNotEnded();\\n    error...\n      PUSH 40\t\t\ted();\\n    error InsufficientR...\n      DUP1 \t\t\ted();\\n    error InsufficientR...\n      MLOAD \t\t\ted();\\n    error InsufficientR...\n      PUSH 1\t\t\t\n      PUSH 1\t\t\t\n      PUSH A0\t\t\t\n      SHL \t\t\t\n      SUB \t\t\t\n      DUP5 \t\t\tAdvertisement) ? bytes(desc).l...\n      AND \t\t\tAdvertisement) ? bytes(desc).l...\n      PUSH 24\t\t\ted();\\n    error InsufficientR...\n      DUP3 \t\t\ted();\\n    error InsufficientR...\n      ADD \t\t\ted();\\n    error InsufficientR...\n      MSTORE \t\t\te == ProposalType.Advertisemen...\n      PUSH 44\t\t\tlue == 0 && newAdd\n      DUP1 \t\t\tlue == 0 && newAdd\n      DUP3 \t\t\tlue == 0 && newAdd\n      ADD \t\t\tlue == 0 && newAdd\n      DUP5 \t\t\t (newValue == 0 && newAddress ...\n      SWAP1 \t\t\t (newValue == 0 && newAddress ...\n      MSTORE \t\t\t (newValue == 0 && newAddress ...\n      DUP3 \t\t\ted();\\n    error InsufficientR...\n      MLOAD \t\t\ted();\\n    error InsufficientR...\n      DUP1 \t\t\ted();\\n    error InsufficientR...\n      DUP4 \t\t\ted();\\n    error InsufficientR...\n      SUB \t\t\ted();\\n    error InsufficientR...\n      SWAP1 \t\t\ted();\\n    error InsufficientR...\n      SWAP2 \t\t\ted();\\n    error InsufficientR...\n      ADD \t\t\ted();\\n    error InsufficientR...\n      DUP2 \t\t\ted();\\n    error InsufficientR...\n      MSTORE \t\t\ted();\\n    error InsufficientR...\n      PUSH 64\t\t\tergencyPause || pr\n      SWAP1 \t\t\tergencyPause || pr\n      SWAP2 \t\t\tergencyPause || pr\n      ADD \t\t\tergencyPause || pr\n      SWAP1 \t\t\ted();\\n    error InsufficientR...\n      SWAP2 \t\t\ted();\\n    error InsufficientR...\n      MSTORE \t\t\ted();\\n    error InsufficientR...\n      PUSH 20\t\t\ted();\\n    error InsufficientR...\n      DUP2 \t\t\ted();\\n    error InsufficientR...\n      ADD \t\t\ted();\\n    error InsufficientR...\n      DUP1 \t\t\ted();\\n    error InsufficientR...\n      MLOAD \t\t\ted();\\n    error InsufficientR...\n      PUSH 1\t\t\t\n      PUSH 1\t\t\t\n      PUSH E0\t\t\t\n      SHL \t\t\t\n      SUB \t\t\t\n      AND \t\t\ted();\\n    error InsufficientR...\n      PUSH A9059CBB\t\t\t\n      PUSH E0\t\t\t\n      SHL \t\t\t\n      OR \t\t\ted();\\n    error InsufficientR...\n      SWAP1 \t\t\ted();\\n    error InsufficientR...\n      MSTORE \t\t\ted();\\n    error InsufficientR...\n      PUSH [tag] 992\t\t\t error UnlockPeriodNotElapsed(...\n      SWAP1 \t\t\t error UnlockPeriodNotElapsed(...\n      DUP5 \t\t\totEla\n      SWAP1 \t\t\totEla\n      PUSH [tag] 1000\t\t\t error UnlockPeriod\n      JUMP \t\t\t error UnlockPeriodNotElapsed(...\n    tag 509\t\t\tfunction updateParameter(Propo...\n      JUMPDEST \t\t\tfunction updateParameter(Propo...\n      PUSH 1D\t\t\tgovernanceContract\n      SLOAD \t\t\tgovernanceContract\n      PUSH 1\t\t\t\n      PUSH 1\t\t\t\n      PUSH A0\t\t\t\n      SHL \t\t\t\n      SUB \t\t\t\n      AND \t\t\tgovernanceContract\n      CALLER \t\t\tmsg.sender\n      EQ \t\t\tmsg.sender != governanceContra...\n      PUSH [tag] 1002\t\t\tif (msg.sender != governanceCo...\n      JUMPI \t\t\tif (msg.sender != governanceCo...\n      PUSH 40\t\t\tNotAuthorized()\n      MLOAD \t\t\tNotAuthorized()\n      PUSH EA8E4EB5\t\t\t\n      PUSH E0\t\t\t\n      SHL \t\t\t\n      DUP2 \t\t\tNotAuthorized()\n      MSTORE \t\t\tNotAuthorized()\n      PUSH 4\t\t\tNotAuthorized()\n      ADD \t\t\tNotAuthorized()\n      PUSH 40\t\t\tNotAuthorized()\n      MLOAD \t\t\tNotAuthorized()\n      DUP1 \t\t\tNotAuthorized()\n      SWAP2 \t\t\tNotAuthorized()\n      SUB \t\t\tNotAuthorized()\n      SWAP1 \t\t\tNotAuthorized()\n      REVERT \t\t\tNotAuthorized()\n    tag 1002\t\t\tif (msg.sender != governanceCo...\n      JUMPDEST \t\t\tif (msg.sender != governanceCo...\n      PUSH 2\t\t\tProposalType.EmergencyPause\n      DUP4 \t\t\tproposalType\n      PUSH B\t\t\tproposalType == ProposalType.E...\n      DUP2 \t\t\tproposalType == ProposalType.E...\n      GT \t\t\tproposalType == ProposalType.E...\n      ISZERO \t\t\tproposalType == ProposalType.E...\n      PUSH [tag] 1007\t\t\tproposalType == ProposalType.E...\n      JUMPI \t\t\tproposalType == ProposalType.E...\n      PUSH [tag] 1007\t\t\tproposalType == ProposalType.E...\n      PUSH [tag] 467\t\t\tproposalType == ProposalType.E...\n      JUMP \t\t\tproposalType == ProposalType.E...\n    tag 1007\t\t\tproposalType == ProposalType.E...\n      JUMPDEST \t\t\tproposalType == ProposalType.E...\n      SUB \t\t\tproposalType == ProposalType.E...\n      PUSH [tag] 1008\t\t\tif (proposalType == ProposalTy...\n      JUMPI \t\t\tif (proposalType == ProposalTy...\n      PUSH 9\t\t\temergencyPaused\n      DUP1 \t\t\temergencyPaused\n      SLOAD \t\t\temergencyPaused\n      PUSH FF0000\t\t\t\n      NOT \t\t\t\n      DUP2 \t\t\temergencyPaused = !emergencyPa...\n      AND \t\t\temergencyPaused = !emergencyPa...\n      PUSH 10000\t\t\temergencyPaused\n      SWAP2 \t\t\temergencyPaused\n      DUP3 \t\t\temergencyPaused\n      SWAP1 \t\t\temergencyPaused\n      DIV \t\t\temergencyPaused\n      PUSH FF\t\t\temergencyPaused\n      AND \t\t\temergencyPaused\n      ISZERO \t\t\t!emergencyPaused\n      SWAP1 \t\t\temergencyPaused = !emergencyPa...\n      SWAP2 \t\t\temergencyPaused = !emergencyPa...\n      MUL \t\t\temergencyPaused = !emergencyPa...\n      OR \t\t\temergencyPaused = !emergencyPa...\n      SWAP1 \t\t\temergencyPaused = !emergencyPa...\n      SSTORE \t\t\temergencyPaused = !emergencyPa...\n      PUSH [tag] 1070\t\t\tif (proposalType == ProposalTy...\n      JUMP \t\t\tif (proposalType == ProposalTy...\n    tag 1008\t\t\tif (proposalType == ProposalTy...\n      JUMPDEST \t\t\tif (proposalType == ProposalTy...\n      PUSH 0\t\t\tProposalType.BurnAmount\n      DUP4 \t\t\tproposalType\n      PUSH B\t\t\tproposalType == ProposalType.B...\n      DUP2 \t\t\tproposalType == ProposalType.B...\n      GT \t\t\tproposalType == ProposalType.B...\n      ISZERO \t\t\tproposalType == ProposalType.B...\n      PUSH [tag] 1013\t\t\tproposalType == ProposalType.B...\n      JUMPI \t\t\tproposalType == ProposalType.B...\n      PUSH [tag] 1013\t\t\tproposalType == ProposalType.B...\n      PUSH [tag] 467\t\t\tproposalType == ProposalType.B...\n      JUMP \t\t\tproposalType == ProposalType.B...\n    tag 1013\t\t\tproposalType == ProposalType.B...\n      JUMPDEST \t\t\tproposalType == ProposalType.B...\n      SUB \t\t\tproposalType == ProposalType.B...\n      PUSH [tag] 1014\t\t\tif (proposalType == ProposalTy...\n      JUMPI \t\t\tif (proposalType == ProposalTy...\n      DUP2 \t\t\tnewValue == 0\n      ISZERO \t\t\tnewValue == 0\n      DUP1 \t\t\tnewValue == 0\n      PUSH [tag] 1015\t\t\tnewValue == 0 || newValue > BU...\n      JUMPI \t\t\tnewValue == 0 || newValue > BU...\n      POP \t\t\tnewValue == 0 || newValue > BU...\n      PUSHIMMUTABLE 1813\t\t\tBURN_TARGET\n      DUP3 \t\t\tnewValue\n      GT \t\t\tnewValue > BURN_TARGET\n    tag 1015\t\t\tnewValue == 0 || newValue > BU...\n      JUMPDEST \t\t\tnewValue == 0 || newValue > BU...\n      ISZERO \t\t\tif (newValue == 0 || newValue ...\n      PUSH [tag] 1016\t\t\tif (newValue == 0 || newValue ...\n      JUMPI \t\t\tif (newValue == 0 || newValue ...\n      PUSH 40\t\t\tInvalidBurnAmount()\n      MLOAD \t\t\tInvalidBurnAmount()\n      PUSH 2075CC1\t\t\t\n      PUSH E4\t\t\t\n      SHL \t\t\t\n      DUP2 \t\t\tInvalidBurnAmount()\n      MSTORE \t\t\tInvalidBurnAmount()\n      PUSH 4\t\t\tInvalidBurnAmount()\n      ADD \t\t\tInvalidBurnAmount()\n      PUSH 40\t\t\tInvalidBurnAmount()\n      MLOAD \t\t\tInvalidBurnAmount()\n      DUP1 \t\t\tInvalidBurnAmount()\n      SWAP2 \t\t\tInvalidBurnAmount()\n      SUB \t\t\tInvalidBurnAmount()\n      SWAP1 \t\t\tInvalidBurnAmount()\n      REVERT \t\t\tInvalidBurnAmount()\n    tag 1016\t\t\tif (newValue == 0 || newValue ...\n      JUMPDEST \t\t\tif (newValue == 0 || newValue ...\n      PUSH F\t\t\tANNUAL_BURN_AMOUNT\n      DUP3 \t\t\tANNUAL_BURN_AMOUNT = newValue\n      SWAP1 \t\t\tANNUAL_BURN_AMOUNT = newValue\n      SSTORE \t\t\tANNUAL_BURN_AMOUNT = newValue\n      PUSH [tag] 1070\t\t\tif (proposalType == ProposalTy...\n      JUMP \t\t\tif (proposalType == ProposalTy...\n    tag 1014\t\t\tif (proposalType == ProposalTy...\n      JUMPDEST \t\t\tif (proposalType == ProposalTy...\n      PUSH 1\t\t\tProposalType.RewardRate\n      DUP4 \t\t\tproposalType\n      PUSH B\t\t\tproposalType == ProposalType.R...\n      DUP2 \t\t\tproposalType == ProposalType.R...\n      GT \t\t\tproposalType == ProposalType.R...\n      ISZERO \t\t\tproposalType == ProposalType.R...\n      PUSH [tag] 1021\t\t\tproposalType == ProposalType.R...\n      JUMPI \t\t\tproposalType == ProposalType.R...\n      PUSH [tag] 1021\t\t\tproposalType == ProposalType.R...\n      PUSH [tag] 467\t\t\tproposalType == ProposalType.R...\n      JUMP \t\t\tproposalType == ProposalType.R...\n    tag 1021\t\t\tproposalType == ProposalType.R...\n      JUMPDEST \t\t\tproposalType == ProposalType.R...\n      SUB \t\t\tproposalType == ProposalType.R...\n      PUSH [tag] 1022\t\t\tif (proposalType == ProposalTy...\n      JUMPI \t\t\tif (proposalType == ProposalTy...\n      DUP2 \t\t\tnewValue == 0\n      ISZERO \t\t\tnewValue == 0\n      DUP1 \t\t\tnewValue == 0\n      PUSH [tag] 1023\t\t\tnewValue == 0 || newValue > 10...\n      JUMPI \t\t\tnewValue == 0 || newValue > 10...\n      POP \t\t\tnewValue == 0 || newValue > 10...\n      PUSH 64\t\t\t100\n      DUP3 \t\t\tnewValue\n      GT \t\t\tnewValue > 100\n    tag 1023\t\t\tnewValue == 0 || newValue > 10...\n      JUMPDEST \t\t\tnewValue == 0 || newValue > 10...\n      ISZERO \t\t\tif (newValue == 0 || newValue ...\n      PUSH [tag] 1024\t\t\tif (newValue == 0 || newValue ...\n      JUMPI \t\t\tif (newValue == 0 || newValue ...\n      PUSH 40\t\t\tInvalidRewardRate()\n      MLOAD \t\t\tInvalidRewardRate()\n      PUSH 8AF88A1\t\t\t\n      PUSH E2\t\t\t\n      SHL \t\t\t\n      DUP2 \t\t\tInvalidRewardRate()\n      MSTORE \t\t\tInvalidRewardRate()\n      PUSH 4\t\t\tInvalidRewardRate()\n      ADD \t\t\tInvalidRewardRate()\n      PUSH 40\t\t\tInvalidRewardRate()\n      MLOAD \t\t\tInvalidRewardRate()\n      DUP1 \t\t\tInvalidRewardRate()\n      SWAP2 \t\t\tInvalidRewardRate()\n      SUB \t\t\tInvalidRewardRate()\n      SWAP1 \t\t\tInvalidRewardRate()\n      REVERT \t\t\tInvalidRewardRate()\n    tag 1024\t\t\tif (newValue == 0 || newValue ...\n      JUMPDEST \t\t\tif (newValue == 0 || newValue ...\n      PUSH 12\t\t\tSTAKING_REWARD_RATE\n      DUP3 \t\t\tSTAKING_REWARD_RATE = newValue\n      SWAP1 \t\t\tSTAKING_REWARD_RATE = newValue\n      SSTORE \t\t\tSTAKING_REWARD_RATE = newValue\n      PUSH [tag] 1070\t\t\tif (proposalType == ProposalTy...\n      JUMP \t\t\tif (proposalType == ProposalTy...\n    tag 1022\t\t\tif (proposalType == ProposalTy...\n      JUMPDEST \t\t\tif (proposalType == ProposalTy...\n      PUSH 6\t\t\tProposalType.MaturationPeriod\n      DUP4 \t\t\tproposalType\n      PUSH B\t\t\tproposalType == ProposalType.M...\n      DUP2 \t\t\tproposalType == ProposalType.M...\n      GT \t\t\tproposalType == ProposalType.M...\n      ISZERO \t\t\tproposalType == ProposalType.M...\n      PUSH [tag] 1029\t\t\tproposalType == ProposalType.M...\n      JUMPI \t\t\tproposalType == ProposalType.M...\n      PUSH [tag] 1029\t\t\tproposalType == ProposalType.M...\n      PUSH [tag] 467\t\t\tproposalType == ProposalType.M...\n      JUMP \t\t\tproposalType == ProposalType.M...\n    tag 1029\t\t\tproposalType == ProposalType.M...\n      JUMPDEST \t\t\tproposalType == ProposalType.M...\n      SUB \t\t\tproposalType == ProposalType.M...\n      PUSH [tag] 1030\t\t\tif (proposalType == ProposalTy...\n      JUMPI \t\t\tif (proposalType == ProposalTy...\n      PUSH 3E8\t\t\t1000\n      DUP3 \t\t\tnewValue\n      LT \t\t\tnewValue < 1000\n      DUP1 \t\t\tnewValue < 1000 || newValue > ...\n      PUSH [tag] 1031\t\t\tnewValue < 1000 || newValue > ...\n      JUMPI \t\t\tnewValue < 1000 || newValue > ...\n      POP \t\t\tnewValue < 1000 || newValue > ...\n      PUSH 989680\t\t\t10_000_000\n      DUP3 \t\t\tnewValue\n      GT \t\t\tnewValue > 10_000_000\n    tag 1031\t\t\tnewValue < 1000 || newValue > ...\n      JUMPDEST \t\t\tnewValue < 1000 || newValue > ...\n      ISZERO \t\t\tif (newValue < 1000 || newValu...\n      PUSH [tag] 1032\t\t\tif (newValue < 1000 || newValu...\n      JUMPI \t\t\tif (newValue < 1000 || newValu...\n      PUSH 40\t\t\tInvalidMaturationPeriod()\n      MLOAD \t\t\tInvalidMaturationPeriod()\n      PUSH 53A66D71\t\t\t\n      PUSH E0\t\t\t\n      SHL \t\t\t\n      DUP2 \t\t\tInvalidMaturationPeriod()\n      MSTORE \t\t\tInvalidMaturationPeriod()\n      PUSH 4\t\t\tInvalidMaturationPeriod()\n      ADD \t\t\tInvalidMaturationPeriod()\n      PUSH 40\t\t\tInvalidMaturationPeriod()\n      MLOAD \t\t\tInvalidMaturationPeriod()\n      DUP1 \t\t\tInvalidMaturationPeriod()\n      SWAP2 \t\t\tInvalidMaturationPeriod()\n      SUB \t\t\tInvalidMaturationPeriod()\n      SWAP1 \t\t\tInvalidMaturationPeriod()\n      REVERT \t\t\tInvalidMaturationPeriod()\n    tag 1032\t\t\tif (newValue < 1000 || newValu...\n      JUMPDEST \t\t\tif (newValue < 1000 || newValu...\n      PUSH 19\t\t\tmaturationPeriodBlocks\n      DUP3 \t\t\tmaturationPeriodBlocks = newVa...\n      SWAP1 \t\t\tmaturationPeriodBlocks = newVa...\n      SSTORE \t\t\tmaturationPeriodBlocks = newVa...\n      PUSH [tag] 1070\t\t\tif (proposalType == ProposalTy...\n      JUMP \t\t\tif (proposalType == ProposalTy...\n    tag 1030\t\t\tif (proposalType == ProposalTy...\n      JUMPDEST \t\t\tif (proposalType == ProposalTy...\n      PUSH 7\t\t\tProposalType.BL2PLifespan\n      DUP4 \t\t\tproposalType\n      PUSH B\t\t\tproposalType == ProposalType.B...\n      DUP2 \t\t\tproposalType == ProposalType.B...\n      GT \t\t\tproposalType == ProposalType.B...\n      ISZERO \t\t\tproposalType == ProposalType.B...\n      PUSH [tag] 1037\t\t\tproposalType == ProposalType.B...\n      JUMPI \t\t\tproposalType == ProposalType.B...\n      PUSH [tag] 1037\t\t\tproposalType == ProposalType.B...\n      PUSH [tag] 467\t\t\tproposalType == ProposalType.B...\n      JUMP \t\t\tproposalType == ProposalType.B...\n    tag 1037\t\t\tproposalType == ProposalType.B...\n      JUMPDEST \t\t\tproposalType == ProposalType.B...\n      SUB \t\t\tproposalType == ProposalType.B...\n      PUSH [tag] 1038\t\t\tif (proposalType == ProposalTy...\n      JUMPI \t\t\tif (proposalType == ProposalTy...\n      PUSH 2710\t\t\t10_000\n      DUP3 \t\t\tnewValue\n      LT \t\t\tnewValue < 10_000\n      DUP1 \t\t\tnewValue < 10_000 || newValue ...\n      PUSH [tag] 1039\t\t\tnewValue < 10_000 || newValue ...\n      JUMPI \t\t\tnewValue < 10_000 || newValue ...\n      POP \t\t\tnewValue < 10_000 || newValue ...\n      PUSH 5F5E100\t\t\t100_000_000\n      DUP3 \t\t\tnewValue\n      GT \t\t\tnewValue > 100_000_000\n    tag 1039\t\t\tnewValue < 10_000 || newValue ...\n      JUMPDEST \t\t\tnewValue < 10_000 || newValue ...\n      ISZERO \t\t\tif (newValue < 10_000 || newVa...\n      PUSH [tag] 1040\t\t\tif (newValue < 10_000 || newVa...\n      JUMPI \t\t\tif (newValue < 10_000 || newVa...\n      PUSH 40\t\t\tInvalidBL2PLifespan()\n      MLOAD \t\t\tInvalidBL2PLifespan()\n      PUSH 4EE281D9\t\t\t\n      PUSH E0\t\t\t\n      SHL \t\t\t\n      DUP2 \t\t\tInvalidBL2PLifespan()\n      MSTORE \t\t\tInvalidBL2PLifespan()\n      PUSH 4\t\t\tInvalidBL2PLifespan()\n      ADD \t\t\tInvalidBL2PLifespan()\n      PUSH 40\t\t\tInvalidBL2PLifespan()\n      MLOAD \t\t\tInvalidBL2PLifespan()\n      DUP1 \t\t\tInvalidBL2PLifespan()\n      SWAP2 \t\t\tInvalidBL2PLifespan()\n      SUB \t\t\tInvalidBL2PLifespan()\n      SWAP1 \t\t\tInvalidBL2PLifespan()\n      REVERT \t\t\tInvalidBL2PLifespan()\n    tag 1040\t\t\tif (newValue < 10_000 || newVa...\n      JUMPDEST \t\t\tif (newValue < 10_000 || newVa...\n      PUSH 1A\t\t\tbl2pLifespanBlocks\n      DUP3 \t\t\tbl2pLifespanBlocks = newValue\n      SWAP1 \t\t\tbl2pLifespanBlocks = newValue\n      SSTORE \t\t\tbl2pLifespanBlocks = newValue\n      PUSH [tag] 1070\t\t\tif (proposalType == ProposalTy...\n      JUMP \t\t\tif (proposalType == ProposalTy...\n    tag 1038\t\t\tif (proposalType == ProposalTy...\n      JUMPDEST \t\t\tif (proposalType == ProposalTy...\n      PUSH 8\t\t\tProposalType.InactivityBurnRat...\n      DUP4 \t\t\tproposalType\n      PUSH B\t\t\tproposalType == ProposalType.I...\n      DUP2 \t\t\tproposalType == ProposalType.I...\n      GT \t\t\tproposalType == ProposalType.I...\n      ISZERO \t\t\tproposalType == ProposalType.I...\n      PUSH [tag] 1045\t\t\tproposalType == ProposalType.I...\n      JUMPI \t\t\tproposalType == ProposalType.I...\n      PUSH [tag] 1045\t\t\tproposalType == ProposalType.I...\n      PUSH [tag] 467\t\t\tproposalType == ProposalType.I...\n      JUMP \t\t\tproposalType == ProposalType.I...\n    tag 1045\t\t\tproposalType == ProposalType.I...\n      JUMPDEST \t\t\tproposalType == ProposalType.I...\n      SUB \t\t\tproposalType == ProposalType.I...\n      PUSH [tag] 1046\t\t\tif (proposalType == ProposalTy...\n      JUMPI \t\t\tif (proposalType == ProposalTy...\n      DUP2 \t\t\tnewValue == 0\n      ISZERO \t\t\tnewValue == 0\n      DUP1 \t\t\tnewValue == 0\n      PUSH [tag] 1047\t\t\tnewValue == 0 || newValue > 10\n      JUMPI \t\t\tnewValue == 0 || newValue > 10\n      POP \t\t\tnewValue == 0 || newValue > 10\n      PUSH A\t\t\t10\n      DUP3 \t\t\tnewValue\n      GT \t\t\tnewValue > 10\n    tag 1047\t\t\tnewValue == 0 || newValue > 10\n      JUMPDEST \t\t\tnewValue == 0 || newValue > 10\n      ISZERO \t\t\tif (newValue == 0 || newValue ...\n      PUSH [tag] 1048\t\t\tif (newValue == 0 || newValue ...\n      JUMPI \t\t\tif (newValue == 0 || newValue ...\n      PUSH 40\t\t\tInvalidInactivityBurnRate()\n      MLOAD \t\t\tInvalidInactivityBurnRate()\n      PUSH 5AC789E3\t\t\t\n      PUSH E0\t\t\t\n      SHL \t\t\t\n      DUP2 \t\t\tInvalidInactivityBurnRate()\n      MSTORE \t\t\tInvalidInactivityBurnRate()\n      PUSH 4\t\t\tInvalidInactivityBurnRate()\n      ADD \t\t\tInvalidInactivityBurnRate()\n      PUSH 40\t\t\tInvalidInactivityBurnRate()\n      MLOAD \t\t\tInvalidInactivityBurnRate()\n      DUP1 \t\t\tInvalidInactivityBurnRate()\n      SWAP2 \t\t\tInvalidInactivityBurnRate()\n      SUB \t\t\tInvalidInactivityBurnRate()\n      SWAP1 \t\t\tInvalidInactivityBurnRate()\n      REVERT \t\t\tInvalidInactivityBurnRate()\n    tag 1048\t\t\tif (newValue == 0 || newValue ...\n      JUMPDEST \t\t\tif (newValue == 0 || newValue ...\n      PUSH 1B\t\t\tinactivityBurnRate\n      DUP3 \t\t\tinactivityBurnRate = newValue\n      SWAP1 \t\t\tinactivityBurnRate = newValue\n      SSTORE \t\t\tinactivityBurnRate = newValue\n      PUSH [tag] 1070\t\t\tif (proposalType == ProposalTy...\n      JUMP \t\t\tif (proposalType == ProposalTy...\n    tag 1046\t\t\tif (proposalType == ProposalTy...\n      JUMPDEST \t\t\tif (proposalType == ProposalTy...\n      PUSH B\t\t\tProposalType.MaxDelegatedBL2PP...\n      DUP4 \t\t\tproposalType\n      PUSH B\t\t\tproposalType == ProposalType.M...\n      DUP2 \t\t\tproposalType == ProposalType.M...\n      GT \t\t\tproposalType == ProposalType.M...\n      ISZERO \t\t\tproposalType == ProposalType.M...\n      PUSH [tag] 1053\t\t\tproposalType == ProposalType.M...\n      JUMPI \t\t\tproposalType == ProposalType.M...\n      PUSH [tag] 1053\t\t\tproposalType == ProposalType.M...\n      PUSH [tag] 467\t\t\tproposalType == ProposalType.M...\n      JUMP \t\t\tproposalType == ProposalType.M...\n    tag 1053\t\t\tproposalType == ProposalType.M...\n      JUMPDEST \t\t\tproposalType == ProposalType.M...\n      SUB \t\t\tproposalType == ProposalType.M...\n      PUSH [tag] 1054\t\t\tif (proposalType == ProposalTy...\n      JUMPI \t\t\tif (proposalType == ProposalTy...\n      DUP2 \t\t\tnewValue == 0\n      ISZERO \t\t\tnewValue == 0\n      DUP1 \t\t\tnewValue == 0\n      PUSH [tag] 1055\t\t\tnewValue == 0 || newValue > 50\n      JUMPI \t\t\tnewValue == 0 || newValue > 50\n      POP \t\t\tnewValue == 0 || newValue > 50\n      PUSH 32\t\t\t50\n      DUP3 \t\t\tnewValue\n      GT \t\t\tnewValue > 50\n    tag 1055\t\t\tnewValue == 0 || newValue > 50\n      JUMPDEST \t\t\tnewValue == 0 || newValue > 50\n      ISZERO \t\t\tif (newValue == 0 || newValue ...\n      PUSH [tag] 1056\t\t\tif (newValue == 0 || newValue ...\n      JUMPI \t\t\tif (newValue == 0 || newValue ...\n      PUSH 40\t\t\tInvalidDelegatedPercent()\n      MLOAD \t\t\tInvalidDelegatedPercent()\n      PUSH 11D148A5\t\t\t\n      PUSH E3\t\t\t\n      SHL \t\t\t\n      DUP2 \t\t\tInvalidDelegatedPercent()\n      MSTORE \t\t\tInvalidDelegatedPercent()\n      PUSH 4\t\t\tInvalidDelegatedPercent()\n      ADD \t\t\tInvalidDelegatedPercent()\n      PUSH 40\t\t\tInvalidDelegatedPercent()\n      MLOAD \t\t\tInvalidDelegatedPercent()\n      DUP1 \t\t\tInvalidDelegatedPercent()\n      SWAP2 \t\t\tInvalidDelegatedPercent()\n      SUB \t\t\tInvalidDelegatedPercent()\n      SWAP1 \t\t\tInvalidDelegatedPercent()\n      REVERT \t\t\tInvalidDelegatedPercent()\n    tag 1056\t\t\tif (newValue == 0 || newValue ...\n      JUMPDEST \t\t\tif (newValue == 0 || newValue ...\n      PUSH 1C\t\t\tmaxDelegatedBL2PPercent\n      DUP3 \t\t\tmaxDelegatedBL2PPercent = newV...\n      SWAP1 \t\t\tmaxDelegatedBL2PPercent = newV...\n      SSTORE \t\t\tmaxDelegatedBL2PPercent = newV...\n      PUSH [tag] 1070\t\t\tif (proposalType == ProposalTy...\n      JUMP \t\t\tif (proposalType == ProposalTy...\n    tag 1054\t\t\tif (proposalType == ProposalTy...\n      JUMPDEST \t\t\tif (proposalType == ProposalTy...\n      PUSH 9\t\t\tProposalType.Quorum\n      DUP4 \t\t\tproposalType\n      PUSH B\t\t\tproposalType == ProposalType.Q...\n      DUP2 \t\t\tproposalType == ProposalType.Q...\n      GT \t\t\tproposalType == ProposalType.Q...\n      ISZERO \t\t\tproposalType == ProposalType.Q...\n      PUSH [tag] 1061\t\t\tproposalType == ProposalType.Q...\n      JUMPI \t\t\tproposalType == ProposalType.Q...\n      PUSH [tag] 1061\t\t\tproposalType == ProposalType.Q...\n      PUSH [tag] 467\t\t\tproposalType == ProposalType.Q...\n      JUMP \t\t\tproposalType == ProposalType.Q...\n    tag 1061\t\t\tproposalType == ProposalType.Q...\n      JUMPDEST \t\t\tproposalType == ProposalType.Q...\n      SUB \t\t\tproposalType == ProposalType.Q...\n      PUSH [tag] 1062\t\t\tif (proposalType == ProposalTy...\n      JUMPI \t\t\tif (proposalType == ProposalTy...\n      PUSH D3C21BCECCEDA1000000\t\t\t1_000_000 * 1e18\n      DUP3 \t\t\tnewValue\n      LT \t\t\tnewValue < 1_000_000 * 1e18\n      DUP1 \t\t\tnewValue < 1_000_000 * 1e18 ||...\n      PUSH [tag] 1063\t\t\tnewValue < 1_000_000 * 1e18 ||...\n      JUMPI \t\t\tnewValue < 1_000_000 * 1e18 ||...\n      POP \t\t\tnewValue < 1_000_000 * 1e18 ||...\n      PUSHIMMUTABLE 1793\t\t\tMAX_SUPPLY\n      DUP3 \t\t\tnewValue\n      GT \t\t\tnewValue > MAX_SUPPLY\n    tag 1063\t\t\tnewValue < 1_000_000 * 1e18 ||...\n      JUMPDEST \t\t\tnewValue < 1_000_000 * 1e18 ||...\n      ISZERO \t\t\tif (newValue < 1_000_000 * 1e1...\n      PUSH [tag] 1064\t\t\tif (newValue < 1_000_000 * 1e1...\n      JUMPI \t\t\tif (newValue < 1_000_000 * 1e1...\n      PUSH 40\t\t\tQuorumOutOfBounds()\n      MLOAD \t\t\tQuorumOutOfBounds()\n      PUSH E2D9BBFF\t\t\t\n      PUSH E0\t\t\t\n      SHL \t\t\t\n      DUP2 \t\t\tQuorumOutOfBounds()\n      MSTORE \t\t\tQuorumOutOfBounds()\n      PUSH 4\t\t\tQuorumOutOfBounds()\n      ADD \t\t\tQuorumOutOfBounds()\n      PUSH 40\t\t\tQuorumOutOfBounds()\n      MLOAD \t\t\tQuorumOutOfBounds()\n      DUP1 \t\t\tQuorumOutOfBounds()\n      SWAP2 \t\t\tQuorumOutOfBounds()\n      SUB \t\t\tQuorumOutOfBounds()\n      SWAP1 \t\t\tQuorumOutOfBounds()\n      REVERT \t\t\tQuorumOutOfBounds()\n    tag 1064\t\t\tif (newValue < 1_000_000 * 1e1...\n      JUMPDEST \t\t\tif (newValue < 1_000_000 * 1e1...\n      PUSH 13\t\t\tQUORUM\n      DUP3 \t\t\tQUORUM = newValue\n      SWAP1 \t\t\tQUORUM = newValue\n      SSTORE \t\t\tQUORUM = newValue\n      PUSH [tag] 1070\t\t\tif (proposalType == ProposalTy...\n      JUMP \t\t\tif (proposalType == ProposalTy...\n    tag 1062\t\t\tif (proposalType == ProposalTy...\n      JUMPDEST \t\t\tif (proposalType == ProposalTy...\n      PUSH A\t\t\tProposalType.VoteThreshold\n      DUP4 \t\t\tproposalType\n      PUSH B\t\t\tproposalType == ProposalType.V...\n      DUP2 \t\t\tproposalType == ProposalType.V...\n      GT \t\t\tproposalType == ProposalType.V...\n      ISZERO \t\t\tproposalType == ProposalType.V...\n      PUSH [tag] 1069\t\t\tproposalType == ProposalType.V...\n      JUMPI \t\t\tproposalType == ProposalType.V...\n      PUSH [tag] 1069\t\t\tproposalType == ProposalType.V...\n      PUSH [tag] 467\t\t\tproposalType == ProposalType.V...\n      JUMP \t\t\tproposalType == ProposalType.V...\n    tag 1069\t\t\tproposalType == ProposalType.V...\n      JUMPDEST \t\t\tproposalType == ProposalType.V...\n      SUB \t\t\tproposalType == ProposalType.V...\n      PUSH [tag] 1070\t\t\tif (proposalType == ProposalTy...\n      JUMPI \t\t\tif (proposalType == ProposalTy...\n      PUSH A\t\t\t10\n      DUP3 \t\t\tnewValue\n      LT \t\t\tnewValue < 10\n      DUP1 \t\t\tnewValue < 10 || newValue > 90\n      PUSH [tag] 1071\t\t\tnewValue < 10 || newValue > 90\n      JUMPI \t\t\tnewValue < 10 || newValue > 90\n      POP \t\t\tnewValue < 10 || newValue > 90\n      PUSH 5A\t\t\t90\n      DUP3 \t\t\tnewValue\n      GT \t\t\tnewValue > 90\n    tag 1071\t\t\tnewValue < 10 || newValue > 90\n      JUMPDEST \t\t\tnewValue < 10 || newValue > 90\n      ISZERO \t\t\tif (newValue < 10 || newValue ...\n      PUSH [tag] 1072\t\t\tif (newValue < 10 || newValue ...\n      JUMPI \t\t\tif (newValue < 10 || newValue ...\n      PUSH 40\t\t\tVoteThresholdOutOfBounds()\n      MLOAD \t\t\tVoteThresholdOutOfBounds()\n      PUSH 1F586735\t\t\t\n      PUSH E0\t\t\t\n      SHL \t\t\t\n      DUP2 \t\t\tVoteThresholdOutOfBounds()\n      MSTORE \t\t\tVoteThresholdOutOfBounds()\n      PUSH 4\t\t\tVoteThresholdOutOfBounds()\n      ADD \t\t\tVoteThresholdOutOfBounds()\n      PUSH 40\t\t\tVoteThresholdOutOfBounds()\n      MLOAD \t\t\tVoteThresholdOutOfBounds()\n      DUP1 \t\t\tVoteThresholdOutOfBounds()\n      SWAP2 \t\t\tVoteThresholdOutOfBounds()\n      SUB \t\t\tVoteThresholdOutOfBounds()\n      SWAP1 \t\t\tVoteThresholdOutOfBounds()\n      REVERT \t\t\tVoteThresholdOutOfBounds()\n    tag 1072\t\t\tif (newValue < 10 || newValue ...\n      JUMPDEST \t\t\tif (newValue < 10 || newValue ...\n      PUSH 14\t\t\tVOTE_THRESHOLD\n      DUP3 \t\t\tVOTE_THRESHOLD = newValue\n      SWAP1 \t\t\tVOTE_THRESHOLD = newValue\n      SSTORE \t\t\tVOTE_THRESHOLD = newValue\n    tag 1070\t\t\tif (proposalType == ProposalTy...\n      JUMPDEST \t\t\tif (proposalType == ProposalTy...\n      DUP3 \t\t\tproposalType\n      PUSH B\t\t\tParameterUpdated(proposalType,...\n      DUP2 \t\t\tParameterUpdated(proposalType,...\n      GT \t\t\tParameterUpdated(proposalType,...\n      ISZERO \t\t\tParameterUpdated(proposalType,...\n      PUSH [tag] 1074\t\t\tParameterUpdated(proposalType,...\n      JUMPI \t\t\tParameterUpdated(proposalType,...\n      PUSH [tag] 1074\t\t\tParameterUpdated(proposalType,...\n      PUSH [tag] 467\t\t\tParameterUpdated(proposalType,...\n      JUMP \t\t\tParameterUpdated(proposalType,...\n    tag 1074\t\t\tParameterUpdated(proposalType,...\n      JUMPDEST \t\t\tParameterUpdated(proposalType,...\n      PUSH 40\t\t\tParameterUpdated(proposalType,...\n      DUP1 \t\t\tParameterUpdated(proposalType,...\n      MLOAD \t\t\tParameterUpdated(proposalType,...\n      DUP5 \t\t\tr;\\n        p.description \n      DUP2 \t\t\tr;\\n        p.description \n      MSTORE \t\t\tr;\\n        p.description \n      PUSH 1\t\t\t\n      PUSH 1\t\t\t\n      PUSH A0\t\t\t\n      SHL \t\t\t\n      SUB \t\t\t\n      DUP5 \t\t\te;\\n        p.newAddress = new...\n      AND \t\t\te;\\n        p.newAddress = new...\n      PUSH 20\t\t\twV\n      DUP3 \t\t\tp.newValue = newVa\n      ADD \t\t\tp.newValue = newVa\n      MSTORE \t\t\t       p.newValue = newValue;\\...\n      PUSH FC0390D67EBDC63D4AED005EA60C5ADC2F760DE6AD9846EDC5B471828A80DD48\t\t\tParameterUpdated(proposalType,...\n      SWAP2 \t\t\tParameterUpdated(proposalType,...\n      ADD \t\t\t     p.proposer = \n    tag 1075\t\t\tParameterUpdated(proposalType,...\n      JUMPDEST \t\t\tParameterUpdated(proposalType,...\n      PUSH 40\t\t\tParameterUpdated(proposalType,...\n      MLOAD \t\t\tParameterUpdated(proposalType,...\n      DUP1 \t\t\tParameterUpdated(proposalType,...\n      SWAP2 \t\t\tParameterUpdated(proposalType,...\n      SUB \t\t\tParameterUpdated(proposalType,...\n      SWAP1 \t\t\tParameterUpdated(proposalType,...\n      LOG2 \t\t\tParameterUpdated(proposalType,...\n      POP \t\t\tfunction updateParameter(Propo...\n      POP \t\t\tfunction updateParameter(Propo...\n      POP \t\t\tfunction updateParameter(Propo...\n      JUMP \t\t\tfunction updateParameter(Propo...\n    tag 552\t\t\txed users, uint256[] rewards);...\n      JUMPDEST \t\t\txed users, uint256[] rewards);...\n      PUSH 1\t\t\t\n      PUSH 1\t\t\t\n      PUSH A0\t\t\t\n      SHL \t\t\t\n      SUB \t\t\t\n      DUP3 \t\t\texed referrer, uint25\n      AND \t\t\texed referrer, uint25\n      PUSH [tag] 1079\t\t\t indexed referrer, uint256 bon...\n      JUMPI \t\t\t indexed referrer, uint256 bon...\n      PUSH 40\t\t\tked(address indexed user, uint\n      MLOAD \t\t\tked(address indexed user, uint\n      PUSH 4B637E8F\t\t\t\n      PUSH E1\t\t\t\n      SHL \t\t\t\n      DUP2 \t\t\tked(address indexed user, uint\n      MSTORE \t\t\tked(address indexed user, uint\n      PUSH 0\t\t\ti\n      PUSH 4\t\t\tked(address indexed user, uint\n      DUP3 \t\t\tked(address indexed user, uint\n      ADD \t\t\tked(address indexed user, uint\n      MSTORE \t\t\tic advertisements;\\n    mappin...\n      PUSH 24\t\t\tt256 => Advertisem\n      ADD \t\t\tt256 => Advertisem\n      PUSH [tag] 527\t\t\tked(address indexed user, uint\n      JUMP \t\t\tapping(address => uint256) pub...\n    tag 1079\t\t\t indexed referrer, uint256 bon...\n      JUMPDEST \t\t\t indexed referrer, uint256 bon...\n      PUSH [tag] 658\t\t\ttimestamp);\\n    event Unstake...\n      DUP3 \t\t\tp);\\n   \n      PUSH 0\t\t\tt\n      DUP4 \t\t\td(add\n      PUSH [tag] 1082\t\t\ttimesta\n      JUMP \t\t\ttimestamp);\\n    event Unstake...\n    tag 557\t\t\tfunction _updateTopDelegates(a...\n      JUMPDEST \t\t\tfunction _updateTopDelegates(a...\n      PUSH 2E\t\t\ttopDelegates\n      SLOAD \t\t\ttopDelegates.length\n      PUSH 0\t\t\tuint256 len\n    tag 1084\t\t\tfor (uint256 i = 0; i < len; +...\n      JUMPDEST \t\t\tfor (uint256 i = 0; i < len; +...\n      DUP2 \t\t\tlen\n      DUP2 \t\t\ti\n      LT \t\t\ti < len\n      ISZERO \t\t\tfor (uint256 i = 0; i < len; +...\n      PUSH [tag] 1085\t\t\tfor (uint256 i = 0; i < len; +...\n      JUMPI \t\t\tfor (uint256 i = 0; i < len; +...\n      DUP4 \t\t\tdelegate\n      PUSH 1\t\t\t\n      PUSH 1\t\t\t\n      PUSH A0\t\t\t\n      SHL \t\t\t\n      SUB \t\t\t\n      AND \t\t\ttopDelegates[i] == delegate\n      PUSH 2E\t\t\ttopDelegates\n      DUP3 \t\t\ti\n      DUP2 \t\t\ttopDelegates[i]\n      SLOAD \t\t\ttopDelegates[i]\n      DUP2 \t\t\ttopDelegates[i]\n      LT \t\t\ttopDelegates[i]\n      PUSH [tag] 1088\t\t\ttopDelegates[i]\n      JUMPI \t\t\ttopDelegates[i]\n      PUSH [tag] 1088\t\t\ttopDelegates[i]\n      PUSH [tag] 630\t\t\ttopDelegates[i]\n      JUMP \t\t\ttopDelegates[i]\n    tag 1088\t\t\ttopDelegates[i]\n      JUMPDEST \t\t\ttopDelegates[i]\n      PUSH 0\t\t\ttopDelegates[i]\n      SWAP2 \t\t\ttopDelegates[i]\n      DUP3 \t\t\ttopDelegates[i]\n      MSTORE \t\t\ttopDelegates[i]\n      PUSH 20\t\t\ttopDelegates[i]\n      SWAP1 \t\t\ttopDelegates[i]\n      SWAP2 \t\t\ttopDelegates[i]\n      KECCAK256 \t\t\ttopDelegates[i]\n      ADD \t\t\ttopDelegates[i]\n      SLOAD \t\t\ttopDelegates[i]\n      PUSH 1\t\t\t\n      PUSH 1\t\t\t\n      PUSH A0\t\t\t\n      SHL \t\t\t\n      SUB \t\t\t\n      AND \t\t\ttopDelegates[i]\n      SUB \t\t\ttopDelegates[i] == delegate\n      PUSH [tag] 1090\t\t\tif (topDelegates[i] == delegat...\n      JUMPI \t\t\tif (topDelegates[i] == delegat...\n      DUP3 \t\t\tnewAmount\n      PUSH 0\t\t\t0\n      SUB \t\t\tnewAmount == 0\n      PUSH [tag] 1091\t\t\tif (newAmount == 0) {\\n       ...\n      JUMPI \t\t\tif (newAmount == 0) {\\n       ...\n      PUSH 2E\t\t\ttopDelegates\n      PUSH [tag] 1092\t\t\tlen - 1\n      PUSH 1\t\t\t1\n      DUP5 \t\t\tlen\n      PUSH [tag] 477\t\t\tlen - 1\n      JUMP \t\t\tlen - 1\n    tag 1092\t\t\tlen - 1\n      JUMPDEST \t\t\tlen - 1\n      DUP2 \t\t\ttopDelegates[len - 1]\n      SLOAD \t\t\ttopDelegates[len - 1]\n      DUP2 \t\t\ttopDelegates[len - 1]\n      LT \t\t\ttopDelegates[len - 1]\n      PUSH [tag] 1094\t\t\ttopDelegates[len - 1]\n      JUMPI \t\t\ttopDelegates[len - 1]\n      PUSH [tag] 1094\t\t\ttopDelegates[len - 1]\n      PUSH [tag] 630\t\t\ttopDelegates[len - 1]\n      JUMP \t\t\ttopDelegates[len - 1]\n    tag 1094\t\t\ttopDelegates[len - 1]\n      JUMPDEST \t\t\ttopDelegates[len - 1]\n      PUSH 0\t\t\ttopDelegates[len - 1]\n      SWAP2 \t\t\ttopDelegates[len - 1]\n      DUP3 \t\t\ttopDelegates[len - 1]\n      MSTORE \t\t\ttopDelegates[len - 1]\n      PUSH 20\t\t\ttopDelegates[len - 1]\n      SWAP1 \t\t\ttopDelegates[len - 1]\n      SWAP2 \t\t\ttopDelegates[len - 1]\n      KECCAK256 \t\t\ttopDelegates[len - 1]\n      ADD \t\t\ttopDelegates[len - 1]\n      SLOAD \t\t\ttopDelegates[len - 1]\n      PUSH 2E\t\t\ttopDelegates\n      DUP1 \t\t\ttopDelegates[i]\n      SLOAD \t\t\ttopDelegates[i]\n      PUSH 1\t\t\t\n      PUSH 1\t\t\t\n      PUSH A0\t\t\t\n      SHL \t\t\t\n      SUB \t\t\t\n      SWAP1 \t\t\ttopDelegates[len - 1]\n      SWAP3 \t\t\ttopDelegates[len - 1]\n      AND \t\t\ttopDelegates[len - 1]\n      SWAP2 \t\t\ttopDelegates[len - 1]\n      DUP4 \t\t\ti\n      SWAP1 \t\t\ti\n      DUP2 \t\t\ttopDelegates[i]\n      LT \t\t\ttopDelegates[i]\n      PUSH [tag] 1097\t\t\ttopDelegates[i]\n      JUMPI \t\t\ttopDelegates[i]\n      PUSH [tag] 1097\t\t\ttopDelegates[i]\n      PUSH [tag] 630\t\t\ttopDelegates[i]\n      JUMP \t\t\ttopDelegates[i]\n    tag 1097\t\t\ttopDelegates[i]\n      JUMPDEST \t\t\ttopDelegates[i]\n      SWAP1 \t\t\ttopDelegates[i]\n      PUSH 0\t\t\ttopDelegates[i]\n      MSTORE \t\t\ttopDelegates[i]\n      PUSH 20\t\t\ttopDelegates[i]\n      PUSH 0\t\t\ttopDelegates[i]\n      KECCAK256 \t\t\ttopDelegates[i]\n      ADD \t\t\ttopDelegates[i]\n      PUSH 0\t\t\ttopDelegates[i]\n      PUSH 100\t\t\ttopDelegates[i] = topDelegates...\n      EXP \t\t\ttopDelegates[i] = topDelegates...\n      DUP2 \t\t\ttopDelegates[i] = topDelegates...\n      SLOAD \t\t\ttopDelegates[i] = topDelegates...\n      DUP2 \t\t\ttopDelegates[i] = topDelegates...\n      PUSH 1\t\t\t\n      PUSH 1\t\t\t\n      PUSH A0\t\t\t\n      SHL \t\t\t\n      SUB \t\t\t\n      MUL \t\t\ttopDelegates[i] = topDelegates...\n      NOT \t\t\ttopDelegates[i] = topDelegates...\n      AND \t\t\ttopDelegates[i] = topDelegates...\n      SWAP1 \t\t\ttopDelegates[i] = topDelegates...\n      DUP4 \t\t\ttopDelegates[i] = topDelegates...\n      PUSH 1\t\t\t\n      PUSH 1\t\t\t\n      PUSH A0\t\t\t\n      SHL \t\t\t\n      SUB \t\t\t\n      AND \t\t\ttopDelegates[i] = topDelegates...\n      MUL \t\t\ttopDelegates[i] = topDelegates...\n      OR \t\t\ttopDelegates[i] = topDelegates...\n      SWAP1 \t\t\ttopDelegates[i] = topDelegates...\n      SSTORE \t\t\ttopDelegates[i] = topDelegates...\n      POP \t\t\ttopDelegates[i] = topDelegates...\n      PUSH 2E\t\t\ttopDelegates\n      DUP1 \t\t\ttopDelegates.pop()\n      SLOAD \t\t\ttopDelegates.pop()\n      DUP1 \t\t\ttopDelegates.pop()\n      PUSH [tag] 1100\t\t\ttopDelegates.pop()\n      JUMPI \t\t\ttopDelegates.pop()\n      PUSH [tag] 1100\t\t\ttopDelegates.pop()\n      PUSH [tag] 1101\t\t\ttopDelegates.pop()\n      JUMP \t\t\ttopDelegates.pop()\n    tag 1100\t\t\ttopDelegates.pop()\n      JUMPDEST \t\t\ttopDelegates.pop()\n      PUSH 0\t\t\ttopDelegates.pop()\n      DUP3 \t\t\ttopDelegates.pop()\n      DUP2 \t\t\ttopDelegates.pop()\n      MSTORE \t\t\ttopDelegates.pop()\n      PUSH 20\t\t\ttopDelegates.pop()\n      SWAP1 \t\t\ttopDelegates.pop()\n      KECCAK256 \t\t\ttopDelegates.pop()\n      DUP2 \t\t\ttopDelegates.pop()\n      ADD \t\t\ttopDelegates.pop()\n      PUSH 0\t\t\t\n      NOT \t\t\t\n      SWAP1 \t\t\ttopDelegates.pop()\n      DUP2 \t\t\ttopDelegates.pop()\n      ADD \t\t\ttopDelegates.pop()\n      DUP1 \t\t\ttopDelegates.pop()\n      SLOAD \t\t\ttopDelegates.pop()\n      PUSH 1\t\t\t\n      PUSH 1\t\t\t\n      PUSH A0\t\t\t\n      SHL \t\t\t\n      SUB \t\t\t\n      NOT \t\t\t\n      AND \t\t\ttopDelegates.pop()\n      SWAP1 \t\t\ttopDelegates.pop()\n      SSTORE \t\t\ttopDelegates.pop()\n      ADD \t\t\ttopDelegates.pop()\n      SWAP1 \t\t\ttopDelegates.pop()\n      SSTORE \t\t\ttopDelegates.pop()\n    tag 1091\t\t\tif (newAmount == 0) {\\n       ...\n      JUMPDEST \t\t\tif (newAmount == 0) {\\n       ...\n      POP \t\t\treturn;\n      POP \t\t\treturn;\n      POP \t\t\tfunction _updateTopDelegates(a...\n      POP \t\t\tfunction _updateTopDelegates(a...\n      JUMP \t\t\tfunction _updateTopDelegates(a...\n    tag 1090\t\t\tif (topDelegates[i] == delegat...\n      JUMPDEST \t\t\tif (topDelegates[i] == delegat...\n      PUSH [tag] 1103\t\t\t++i\n      DUP2 \t\t\t++i\n      PUSH [tag] 642\t\t\t++i\n      JUMP \t\t\t++i\n    tag 1103\t\t\t++i\n      JUMPDEST \t\t\t++i\n      SWAP1 \t\t\t++i\n      POP \t\t\t++i\n      PUSH [tag] 1084\t\t\tfor (uint256 i = 0; i < len; +...\n      JUMP \t\t\tfor (uint256 i = 0; i < len; +...\n    tag 1085\t\t\tfor (uint256 i = 0; i < len; +...\n      JUMPDEST \t\t\tfor (uint256 i = 0; i < len; +...\n      POP \t\t\t\n      DUP2 \t\t\tnewAmount != 0\n      ISZERO \t\t\tnewAmount != 0\n      DUP1 \t\t\tnewAmount != 0\n      ISZERO \t\t\tnewAmount != 0\n      SWAP1 \t\t\tnewAmount != 0\n      PUSH [tag] 1104\t\t\tnewAmount != 0 && len < MAX_TO...\n      JUMPI \t\t\tnewAmount != 0 && len < MAX_TO...\n      POP \t\t\tnewAmount != 0 && len < MAX_TO...\n      PUSH A\t\t\t10\n      DUP2 \t\t\tlen\n      LT \t\t\tlen < MAX_TOP_DELEGATES\n    tag 1104\t\t\tnewAmount != 0 && len < MAX_TO...\n      JUMPDEST \t\t\tnewAmount != 0 && len < MAX_TO...\n      ISZERO \t\t\tif (newAmount != 0 && len < MA...\n      PUSH [tag] 992\t\t\tif (newAmount != 0 && len < MA...\n      JUMPI \t\t\tif (newAmount != 0 && len < MA...\n      PUSH 2E\t\t\ttopDelegates\n      DUP1 \t\t\ttopDelegates.push(delegate)\n      SLOAD \t\t\ttopDelegates.push(delegate)\n      PUSH 1\t\t\ttopDelegates.push(delegate)\n      DUP2 \t\t\ttopDelegates.push(delegate)\n      ADD \t\t\ttopDelegates.push(delegate)\n      DUP3 \t\t\ttopDelegates.push(delegate)\n      SSTORE \t\t\ttopDelegates.push(delegate)\n      PUSH 0\t\t\t\n      SWAP2 \t\t\ttopDelegates.push(delegate)\n      SWAP1 \t\t\ttopDelegates.push(delegate)\n      SWAP2 \t\t\ttopDelegates.push(delegate)\n      MSTORE \t\t\ttopDelegates.push(delegate)\n      PUSH 37FA166CBDBFBB1561CCD9EA985EC0218B5E68502E230525F544285B2BDF3D7E\t\t\ttopDelegates.push(delegate)\n      ADD \t\t\ttopDelegates.push(delegate)\n      DUP1 \t\t\ttopDelegates.push(delegate)\n      SLOAD \t\t\ttopDelegates.push(delegate)\n      PUSH 1\t\t\t\n      PUSH 1\t\t\t\n      PUSH A0\t\t\t\n      SHL \t\t\t\n      SUB \t\t\t\n      DUP6 \t\t\ttopDelegates.push(delegate)\n      AND \t\t\ttopDelegates.push(delegate)\n      PUSH 1\t\t\t\n      PUSH 1\t\t\t\n      PUSH A0\t\t\t\n      SHL \t\t\t\n      SUB \t\t\t\n      NOT \t\t\t\n      SWAP1 \t\t\ttopDelegates.push(delegate)\n      SWAP2 \t\t\ttopDelegates.push(delegate)\n      AND \t\t\ttopDelegates.push(delegate)\n      OR \t\t\ttopDelegates.push(delegate)\n      SWAP1 \t\t\ttopDelegates.push(delegate)\n      SSTORE \t\t\ttopDelegates.push(delegate)\n      POP \t\t\t{\\n        uint256 len = topDe...\n      POP \t\t\tfunction _updateTopDelegates(a...\n      POP \t\t\tfunction _updateTopDelegates(a...\n      JUMP \t\t\tfunction _updateTopDelegates(a...\n    tag 570\t\t\td;\\n    bool public emergencyP...\n      JUMPDEST \t\t\td;\\n    bool public emergencyP...\n      PUSH 0\t\t\t6 pu\n      CALLER \t\t\tnCycleEnde\n      PUSH [tag] 1109\t\t\testamp;\\n    uint256 public cu...\n      DUP6 \t\t\t256 \n      DUP3 \t\t\tnCycleEnde\n      DUP6 \t\t\tentBu\n      PUSH [tag] 1110\t\t\testamp;\\n    uin\n      JUMP \t\t\testamp;\\n    uint256 public cu...\n    tag 1109\t\t\testamp;\\n    uint256 public cu...\n      JUMPDEST \t\t\testamp;\\n    uint256 public cu...\n      PUSH [tag] 1111\t\t\t  uint256 public lastBurnC\n      DUP6 \t\t\tpubl\n      DUP6 \t\t\t l\n      DUP6 \t\t\ttBurn\n      PUSH [tag] 1112\t\t\t  uint256\n      JUMP \t\t\t  uint256 public lastBurnC\n    tag 1111\t\t\t  uint256 public lastBurnC\n      JUMPDEST \t\t\t  uint256 public lastBurnC\n      POP \t\t\t\n      PUSH 1\t\t\tp;\\n \n      SWAP5 \t\t\tp;\\n \n      SWAP4 \t\t\td;\\n    bool public emergencyP...\n      POP \t\t\t\n      POP \t\t\t\n      POP \t\t\t\n      POP \t\t\t\n      JUMP \t\t\td;\\n    bool public emergencyP...\n    tag 585\t\t\tfunction _claimBL2PReward(addr...\n      JUMPDEST \t\t\tfunction _claimBL2PReward(addr...\n      PUSH 9\t\t\tbl2pRevealed\n      SLOAD \t\t\tbl2pRevealed\n      PUSH 100\t\t\tbl2pRevealed\n      SWAP1 \t\t\tbl2pRevealed\n      DIV \t\t\tbl2pRevealed\n      PUSH FF\t\t\tbl2pRevealed\n      AND \t\t\tbl2pRevealed\n      ISZERO \t\t\t!bl2pRevealed\n      DUP1 \t\t\t!bl2pRevealed\n      PUSH [tag] 1114\t\t\t!bl2pRevealed || bl2pClaimed[u...\n      JUMPI \t\t\t!bl2pRevealed || bl2pClaimed[u...\n      POP \t\t\t\n      PUSH 1\t\t\t\n      PUSH 1\t\t\t\n      PUSH A0\t\t\t\n      SHL \t\t\t\n      SUB \t\t\t\n      DUP2 \t\t\tbl2pClaimed[user]\n      AND \t\t\tbl2pClaimed[user]\n      PUSH 0\t\t\tbl2pClaimed[user]\n      SWAP1 \t\t\tbl2pClaimed[user]\n      DUP2 \t\t\tbl2pClaimed[user]\n      MSTORE \t\t\tbl2pClaimed[user]\n      PUSH 20\t\t\tbl2pClaimed\n      DUP1 \t\t\tbl2pClaimed[user]\n      MSTORE \t\t\tbl2pClaimed[user]\n      PUSH 40\t\t\tbl2pClaimed[user]\n      SWAP1 \t\t\tbl2pClaimed[user]\n      KECCAK256 \t\t\tbl2pClaimed[user]\n      SLOAD \t\t\tbl2pClaimed[user]\n      ISZERO \t\t\tbl2pClaimed[user] != 0\n      ISZERO \t\t\tbl2pClaimed[user] != 0\n    tag 1114\t\t\t!bl2pRevealed || bl2pClaimed[u...\n      JUMPDEST \t\t\t!bl2pRevealed || bl2pClaimed[u...\n      DUP1 \t\t\t!bl2pRevealed || bl2pClaimed[u...\n      PUSH [tag] 1115\t\t\t!bl2pRevealed || bl2pClaimed[u...\n      JUMPI \t\t\t!bl2pRevealed || bl2pClaimed[u...\n      POP \t\t\t\n      PUSH 1\t\t\t\n      PUSH 1\t\t\t\n      PUSH A0\t\t\t\n      SHL \t\t\t\n      SUB \t\t\t\n      DUP2 \t\t\ttotalContributions[user]\n      AND \t\t\ttotalContributions[user]\n      PUSH 0\t\t\ttotalContributions[user]\n      SWAP1 \t\t\ttotalContributions[user]\n      DUP2 \t\t\ttotalContributions[user]\n      MSTORE \t\t\ttotalContributions[user]\n      PUSH 21\t\t\ttotalContributions\n      PUSH 20\t\t\ttotalContributions[user]\n      MSTORE \t\t\ttotalContributions[user]\n      PUSH 40\t\t\ttotalContributions[user]\n      SWAP1 \t\t\ttotalContributions[user]\n      KECCAK256 \t\t\ttotalContributions[user]\n      SLOAD \t\t\ttotalContributions[user]\n      ISZERO \t\t\ttotalContributions[user] == 0\n    tag 1115\t\t\t!bl2pRevealed || bl2pClaimed[u...\n      JUMPDEST \t\t\t!bl2pRevealed || bl2pClaimed[u...\n      ISZERO \t\t\tif (!bl2pRevealed || bl2pClaim...\n      PUSH [tag] 1116\t\t\tif (!bl2pRevealed || bl2pClaim...\n      JUMPI \t\t\tif (!bl2pRevealed || bl2pClaim...\n      PUSH 40\t\t\tInvalidClaimConditions()\n      MLOAD \t\t\tInvalidClaimConditions()\n      PUSH 54D87237\t\t\t\n      PUSH E0\t\t\t\n      SHL \t\t\t\n      DUP2 \t\t\tInvalidClaimConditions()\n      MSTORE \t\t\tInvalidClaimConditions()\n      PUSH 4\t\t\tInvalidClaimConditions()\n      ADD \t\t\tInvalidClaimConditions()\n      PUSH 40\t\t\tInvalidClaimConditions()\n      MLOAD \t\t\tInvalidClaimConditions()\n      DUP1 \t\t\tInvalidClaimConditions()\n      SWAP2 \t\t\tInvalidClaimConditions()\n      SUB \t\t\tInvalidClaimConditions()\n      SWAP1 \t\t\tInvalidClaimConditions()\n      REVERT \t\t\tInvalidClaimConditions()\n    tag 1116\t\t\tif (!bl2pRevealed || bl2pClaim...\n      JUMPDEST \t\t\tif (!bl2pRevealed || bl2pClaim...\n      PUSHIMMUTABLE 1813\t\t\tBURN_TARGET\n      PUSH B\t\t\ttotalBurned\n      SLOAD \t\t\ttotalBurned\n      GT \t\t\ttotalBurned > BURN_TARGET\n      ISZERO \t\t\tif (totalBurned > BURN_TARGET)...\n      PUSH [tag] 1117\t\t\tif (totalBurned > BURN_TARGET)...\n      JUMPI \t\t\tif (totalBurned > BURN_TARGET)...\n      PUSH 40\t\t\tExceedsBurnTarget()\n      MLOAD \t\t\tExceedsBurnTarget()\n      PUSH 87D5B4FB\t\t\t\n      PUSH E0\t\t\t\n      SHL \t\t\t\n      DUP2 \t\t\tExceedsBurnTarget()\n      MSTORE \t\t\tExceedsBurnTarget()\n      PUSH 4\t\t\tExceedsBurnTarget()\n      ADD \t\t\tExceedsBurnTarget()\n      PUSH 40\t\t\tExceedsBurnTarget()\n      MLOAD \t\t\tExceedsBurnTarget()\n      DUP1 \t\t\tExceedsBurnTarget()\n      SWAP2 \t\t\tExceedsBurnTarget()\n      SUB \t\t\tExceedsBurnTarget()\n      SWAP1 \t\t\tExceedsBurnTarget()\n      REVERT \t\t\tExceedsBurnTarget()\n    tag 1117\t\t\tif (totalBurned > BURN_TARGET)...\n      JUMPDEST \t\t\tif (totalBurned > BURN_TARGET)...\n      PUSH 1\t\t\t\n      PUSH 1\t\t\t\n      PUSH A0\t\t\t\n      SHL \t\t\t\n      SUB \t\t\t\n      DUP2 \t\t\ttotalContributions[user]\n      AND \t\t\ttotalContributions[user]\n      PUSH 0\t\t\tuint256 reward\n      SWAP1 \t\t\ttotalContributions[user]\n      DUP2 \t\t\ttotalContributions[user]\n      MSTORE \t\t\ttotalContributions[user]\n      PUSH 21\t\t\ttotalContributions\n      PUSH 20\t\t\ttotalContributions[user]\n      MSTORE \t\t\ttotalContributions[user]\n      PUSH 40\t\t\ttotalContributions[user]\n      DUP2 \t\t\ttotalContributions[user]\n      KECCAK256 \t\t\ttotalContributions[user]\n      SLOAD \t\t\ttotalContributions[user]\n      PUSHIMMUTABLE 1813\t\t\tBURN_TARGET\n      SWAP1 \t\t\tBURN_TARGET\n      PUSH [tag] 1118\t\t\ttotalContributions[user] * BL2...\n      SWAP1 \t\t\ttotalContributions[user] * BL2...\n      PUSH 33B2E3C9FD0803CE8000000\t\t\t1_000_000_000 * 1e18\n      SWAP1 \t\t\t1_000_000_000 * 1e18\n      PUSH [tag] 458\t\t\ttotalContributions[user] * BL2...\n      JUMP \t\t\ttotalContributions[user] * BL2...\n    tag 1118\t\t\ttotalContributions[user] * BL2...\n      JUMPDEST \t\t\ttotalContributions[user] * BL2...\n      PUSH [tag] 1119\t\t\t(totalContributions[user] * BL...\n      SWAP2 \t\t\t(totalContributions[user] * BL...\n      SWAP1 \t\t\t(totalContributions[user] * BL...\n      PUSH [tag] 460\t\t\t(totalContributions[user] * BL...\n      JUMP \t\t\t(totalContributions[user] * BL...\n    tag 1119\t\t\t(totalContributions[user] * BL...\n      JUMPDEST \t\t\t(totalContributions[user] * BL...\n      SWAP1 \t\t\tuint256 reward = (totalContrib...\n      POP \t\t\tuint256 reward = (totalContrib...\n      PUSH 3E8\t\t\t1000\n      PUSH 10\t\t\tearlyAdopterCount\n      SLOAD \t\t\tearlyAdopterCount\n      LT \t\t\tearlyAdopterCount < EARLY_ADOP...\n      ISZERO \t\t\tif (earlyAdopterCount < EARLY_...\n      PUSH [tag] 1120\t\t\tif (earlyAdopterCount < EARLY_...\n      JUMPI \t\t\tif (earlyAdopterCount < EARLY_...\n      PUSH 64\t\t\t100\n      PUSH [tag] 1121\t\t\treward * EARLY_ADOPTER_BONUS_R...\n      PUSH A\t\t\t10\n      DUP4 \t\t\treward\n      PUSH [tag] 458\t\t\treward * EARLY_ADOPTER_BONUS_R...\n      JUMP \t\t\treward * EARLY_ADOPTER_BONUS_R...\n    tag 1121\t\t\treward * EARLY_ADOPTER_BONUS_R...\n      JUMPDEST \t\t\treward * EARLY_ADOPTER_BONUS_R...\n      PUSH [tag] 1122\t\t\t(reward * EARLY_ADOPTER_BONUS_...\n      SWAP2 \t\t\t(reward * EARLY_ADOPTER_BONUS_...\n      SWAP1 \t\t\t(reward * EARLY_ADOPTER_BONUS_...\n      PUSH [tag] 460\t\t\t(reward * EARLY_ADOPTER_BONUS_...\n      JUMP \t\t\t(reward * EARLY_ADOPTER_BONUS_...\n    tag 1122\t\t\t(reward * EARLY_ADOPTER_BONUS_...\n      JUMPDEST \t\t\t(reward * EARLY_ADOPTER_BONUS_...\n      PUSH [tag] 1123\t\t\treward += (reward * EARLY_ADOP...\n      SWAP1 \t\t\treward += (reward * EARLY_ADOP...\n      DUP3 \t\t\treward += (reward * EARLY_ADOP...\n      PUSH [tag] 452\t\t\treward += (reward * EARLY_ADOP...\n      JUMP \t\t\treward += (reward * EARLY_ADOP...\n    tag 1123\t\t\treward += (reward * EARLY_ADOP...\n      JUMPDEST \t\t\treward += (reward * EARLY_ADOP...\n      SWAP1 \t\t\treward += (reward * EARLY_ADOP...\n      POP \t\t\treward += (reward * EARLY_ADOP...\n      PUSH 10\t\t\tearlyAdopterCount\n      PUSH 0\t\t\tearlyAdopterCount\n      DUP2 \t\t\t++earlyAdopterCount\n      SLOAD \t\t\t++earlyAdopterCount\n      PUSH [tag] 1124\t\t\t++earlyAdopterCount\n      SWAP1 \t\t\t++earlyAdopterCount\n      PUSH [tag] 642\t\t\t++earlyAdopterCount\n      JUMP \t\t\t++earlyAdopterCount\n    tag 1124\t\t\t++earlyAdopterCount\n      JUMPDEST \t\t\t++earlyAdopterCount\n      SWAP1 \t\t\t++earlyAdopterCount\n      SWAP2 \t\t\t++earlyAdopterCount\n      SSTORE \t\t\t++earlyAdopterCount\n      POP \t\t\t\n    tag 1120\t\t\tif (earlyAdopterCount < EARLY_...\n      JUMPDEST \t\t\tif (earlyAdopterCount < EARLY_...\n      DUP1 \t\t\treward\n      PUSH 0\t\t\t0\n      SUB \t\t\treward == 0\n      PUSH [tag] 1125\t\t\tif (reward == 0) revert NoRewa...\n      JUMPI \t\t\tif (reward == 0) revert NoRewa...\n      PUSH 40\t\t\tNoReward()\n      MLOAD \t\t\tNoReward()\n      PUSH 374C9343\t\t\t\n      PUSH E1\t\t\t\n      SHL \t\t\t\n      DUP2 \t\t\tNoReward()\n      MSTORE \t\t\tNoReward()\n      PUSH 4\t\t\tNoReward()\n      ADD \t\t\tNoReward()\n      PUSH 40\t\t\tNoReward()\n      MLOAD \t\t\tNoReward()\n      DUP1 \t\t\tNoReward()\n      SWAP2 \t\t\tNoReward()\n      SUB \t\t\tNoReward()\n      SWAP1 \t\t\tNoReward()\n      REVERT \t\t\tNoReward()\n    tag 1125\t\t\tif (reward == 0) revert NoRewa...\n      JUMPDEST \t\t\tif (reward == 0) revert NoRewa...\n      PUSH 1\t\t\t\n      PUSH 1\t\t\t\n      PUSH A0\t\t\t\n      SHL \t\t\t\n      SUB \t\t\t\n      DUP1 \t\t\treferrals[user]\n      DUP4 \t\t\treferrals[user]\n      AND \t\t\treferrals[user]\n      PUSH 0\t\t\taddress referrer\n      SWAP1 \t\t\treferrals[user]\n      DUP2 \t\t\treferrals[user]\n      MSTORE \t\t\treferrals[user]\n      PUSH 22\t\t\treferrals\n      PUSH 20\t\t\treferrals[user]\n      MSTORE \t\t\treferrals[user]\n      PUSH 40\t\t\treferrals[user]\n      SWAP1 \t\t\treferrals[user]\n      KECCAK256 \t\t\treferrals[user]\n      SLOAD \t\t\treferrals[user]\n      AND \t\t\treferrals[user]\n      DUP1 \t\t\treferrer != address(0)\n      ISZERO \t\t\treferrer != address(0)\n      PUSH [tag] 1126\t\t\tif (referrer != address(0)) {\\...\n      JUMPI \t\t\tif (referrer != address(0)) {\\...\n      PUSH 0\t\t\tuint256 referralBonus\n      PUSH 64\t\t\t100\n      PUSH [tag] 1127\t\t\treward * REFERRAL_BONUS_RATE\n      PUSH 5\t\t\t5\n      DUP6 \t\t\treward\n      PUSH [tag] 458\t\t\treward * REFERRAL_BONUS_RATE\n      JUMP \t\t\treward * REFERRAL_BONUS_RATE\n    tag 1127\t\t\treward * REFERRAL_BONUS_RATE\n      JUMPDEST \t\t\treward * REFERRAL_BONUS_RATE\n      PUSH [tag] 1128\t\t\t(reward * REFERRAL_BONUS_RATE)...\n      SWAP2 \t\t\t(reward * REFERRAL_BONUS_RATE)...\n      SWAP1 \t\t\t(reward * REFERRAL_BONUS_RATE)...\n      PUSH [tag] 460\t\t\t(reward * REFERRAL_BONUS_RATE)...\n      JUMP \t\t\t(reward * REFERRAL_BONUS_RATE)...\n    tag 1128\t\t\t(reward * REFERRAL_BONUS_RATE)...\n      JUMPDEST \t\t\t(reward * REFERRAL_BONUS_RATE)...\n      SWAP1 \t\t\tuint256 referralBonus = (rewar...\n      POP \t\t\tuint256 referralBonus = (rewar...\n      PUSH [tag] 1129\t\t\t_mint(referrer, referralBonus)\n      DUP3 \t\t\treferrer\n      DUP3 \t\t\treferralBonus\n      PUSH [tag] 648\t\t\t_mint\n      JUMP \t\t\t_mint(referrer, referralBonus)\n    tag 1129\t\t\t_mint(referrer, referralBonus)\n      JUMPDEST \t\t\t_mint(referrer, referralBonus)\n      DUP2 \t\t\treferrer\n      PUSH 1\t\t\t\n      PUSH 1\t\t\t\n      PUSH A0\t\t\t\n      SHL \t\t\t\n      SUB \t\t\t\n      AND \t\t\tReferralBonusPaid(referrer, re...\n      PUSH 50BAE3EEEFAC62A4EE36C766F4F426F09EDF96AE8FB3034EBBF961E4ACC78E2\t\t\tReferralBonusPaid(referrer, re...\n      DUP3 \t\t\treferralBonus\n      PUSH 40\t\t\tReferralBonusPaid(referrer, re...\n      MLOAD \t\t\tReferralBonusPaid(referrer, re...\n      PUSH [tag] 1130\t\t\tReferralBonusPaid(referrer, re...\n      SWAP2 \t\t\tReferralBonusPaid(referrer, re...\n      DUP2 \t\t\tNotAuthorized();\\n    erro\n      MSTORE \t\t\tNotAuthorized();\\n    erro\n      PUSH 20\t\t\t;\\n\n      ADD \t\t\ternanceNotSet();\\n \n      SWAP1 \t\t\ternanceNotSet();\\n \n      JUMP \t\t\t// Errors\\n    error InvalidRe...\n    tag 1130\t\t\tReferralBonusPaid(referrer, re...\n      JUMPDEST \t\t\tReferralBonusPaid(referrer, re...\n      PUSH 40\t\t\tReferralBonusPaid(referrer, re...\n      MLOAD \t\t\tReferralBonusPaid(referrer, re...\n      DUP1 \t\t\tReferralBonusPaid(referrer, re...\n      SWAP2 \t\t\tReferralBonusPaid(referrer, re...\n      SUB \t\t\tReferralBonusPaid(referrer, re...\n      SWAP1 \t\t\tReferralBonusPaid(referrer, re...\n      LOG2 \t\t\tReferralBonusPaid(referrer, re...\n      POP \t\t\t{\\n            uint256 referra...\n    tag 1126\t\t\tif (referrer != address(0)) {\\...\n      JUMPDEST \t\t\tif (referrer != address(0)) {\\...\n      PUSH 1\t\t\t\n      PUSH 1\t\t\t\n      PUSH A0\t\t\t\n      SHL \t\t\t\n      SUB \t\t\t\n      DUP4 \t\t\tbl2pClaimed[user]\n      AND \t\t\tbl2pClaimed[user]\n      PUSH 0\t\t\tbl2pClaimed[user]\n      SWAP1 \t\t\tbl2pClaimed[user]\n      DUP2 \t\t\tbl2pClaimed[user]\n      MSTORE \t\t\tbl2pClaimed[user]\n      PUSH 20\t\t\tbl2pClaimed\n      DUP1 \t\t\tbl2pClaimed[user]\n      MSTORE \t\t\tbl2pClaimed[user]\n      PUSH 40\t\t\tbl2pClaimed[user]\n      SWAP1 \t\t\tbl2pClaimed[user]\n      KECCAK256 \t\t\tbl2pClaimed[user]\n      DUP3 \t\t\tbl2pClaimed[user] = reward\n      SWAP1 \t\t\tbl2pClaimed[user] = reward\n      SSTORE \t\t\tbl2pClaimed[user] = reward\n      PUSH [tag] 1131\t\t\t_mint(user, reward)\n      DUP4 \t\t\tuser\n      DUP4 \t\t\treward\n      PUSH [tag] 648\t\t\t_mint\n      JUMP \t\t\t_mint(user, reward)\n    tag 1131\t\t\t_mint(user, reward)\n      JUMPDEST \t\t\t_mint(user, reward)\n      DUP3 \t\t\tuser\n      PUSH 1\t\t\t\n      PUSH 1\t\t\t\n      PUSH A0\t\t\t\n      SHL \t\t\t\n      SUB \t\t\t\n      AND \t\t\tBL2PRewardClaimed(user, reward...\n      PUSH B60CCDAD08A990849494CADC2278B346A8742FB757E67C422F71E3E64FB77B45\t\t\tBL2PRewardClaimed(user, reward...\n      DUP4 \t\t\treward\n      PUSH 40\t\t\tBL2PRewardClaimed(user, reward...\n      MLOAD \t\t\tBL2PRewardClaimed(user, reward...\n      PUSH [tag] 1075\t\t\tBL2PRewardClaimed(user, reward...\n      SWAP2 \t\t\tBL2PRewardClaimed(user, reward...\n      DUP2 \t\t\tNotAuthorized();\\n    erro\n      MSTORE \t\t\tNotAuthorized();\\n    erro\n      PUSH 20\t\t\t;\\n\n      ADD \t\t\ternanceNotSet();\\n \n      SWAP1 \t\t\ternanceNotSet();\\n \n      JUMP \t\t\t// Errors\\n    error InvalidRe...\n    tag 648\t\t\t\\n        address source;\\n   ...\n      JUMPDEST \t\t\t\\n        address source;\\n   ...\n      PUSH 1\t\t\t\n      PUSH 1\t\t\t\n      PUSH A0\t\t\t\n      SHL \t\t\t\n      SUB \t\t\t\n      DUP3 \t\t\tpAmount;\\n        uint\n      AND \t\t\tpAmount;\\n        uint\n      PUSH [tag] 1134\t\t\t bl2pAmount;\\n        uint256 ...\n      JUMPI \t\t\t bl2pAmount;\\n        uint256 ...\n      PUSH 40\t\t\t  }\\n\\n    event BurnPhaseActi...\n      MLOAD \t\t\t  }\\n\\n    event BurnPhaseActi...\n      PUSH EC442F05\t\t\t\n      PUSH E0\t\t\t\n      SHL \t\t\t\n      DUP2 \t\t\t  }\\n\\n    event BurnPhaseActi...\n      MSTORE \t\t\t  }\\n\\n    event BurnPhaseActi...\n      PUSH 0\t\t\ta\n      PUSH 4\t\t\t  }\\n\\n    event BurnPhaseActi...\n      DUP3 \t\t\t  }\\n\\n    event BurnPhaseActi...\n      ADD \t\t\t  }\\n\\n    event BurnPhaseActi...\n      MSTORE \t\t\tic advertisements;\\n    mappin...\n      PUSH 24\t\t\tt256 => Advertisem\n      ADD \t\t\tt256 => Advertisem\n      PUSH [tag] 527\t\t\t  }\\n\\n    event BurnPhaseActi...\n      JUMP \t\t\tapping(address => uint256) pub...\n    tag 1134\t\t\t bl2pAmount;\\n        uint256 ...\n      JUMPDEST \t\t\t bl2pAmount;\\n        uint256 ...\n      PUSH [tag] 658\t\t\tmestamp);\\n    event BL2PRevea...\n      PUSH 0\t\t\te\n      DUP4 \t\t\tBL2PRev\n      DUP4 \t\t\tled(u\n      PUSH [tag] 1082\t\t\tmestamp\n      JUMP \t\t\tmestamp);\\n    event BL2PRevea...\n    tag 683\t\t\terror VoteThresholdOutOfBounds...\n      JUMPDEST \t\t\terror VoteThresholdOutOfBounds...\n      PUSH 6\t\t\ttyBurn\n      SLOAD \t\t\ttyBurn\n      PUSH 1\t\t\t\n      PUSH 1\t\t\t\n      PUSH A0\t\t\t\n      SHL \t\t\t\n      SUB \t\t\t\n      AND \t\t\ttyBurn\n      CALLER \t\t\tnCycleEnde\n      EQ \t\t\t    error RegistrationC\n      PUSH [tag] 536\t\t\t();\\n    error RegistrationClo...\n      JUMPI \t\t\t();\\n    error RegistrationClo...\n      PUSH 40\t\t\tarticipantsReached();\\n    err...\n      MLOAD \t\t\tarticipantsReached();\\n    err...\n      PUSH 118CDAA7\t\t\t\n      PUSH E0\t\t\t\n      SHL \t\t\t\n      DUP2 \t\t\tarticipantsReached();\\n    err...\n      MSTORE \t\t\tarticipantsReached();\\n    err...\n      CALLER \t\t\tnCycleEnde\n      PUSH 4\t\t\tarticipantsReached();\\n    err...\n      DUP3 \t\t\tarticipantsReached();\\n    err...\n      ADD \t\t\tarticipantsReached();\\n    err...\n      MSTORE \t\t\tic advertisements;\\n    mappin...\n      PUSH 24\t\t\tt256 => Advertisem\n      ADD \t\t\tt256 => Advertisem\n      PUSH [tag] 527\t\t\tarticipantsReached();\\n    err...\n      JUMP \t\t\tapping(address => uint256) pub...\n    tag 691\t\t\tvert NotAuthorized();\\n       ...\n      JUMPDEST \t\t\tvert NotAuthorized();\\n       ...\n      PUSH 6\t\t\tr != g\n      DUP1 \t\t\tr != g\n      SLOAD \t\t\tr != g\n      PUSH 1\t\t\t\n      PUSH 1\t\t\t\n      PUSH A0\t\t\t\n      SHL \t\t\t\n      SUB \t\t\t\n      DUP4 \t\t\tontract) revert N\n      DUP2 \t\t\tontract) revert N\n      AND \t\t\tontract) revert N\n      PUSH 1\t\t\t\n      PUSH 1\t\t\t\n      PUSH A0\t\t\t\n      SHL \t\t\t\n      SUB \t\t\t\n      NOT \t\t\t\n      DUP4 \t\t\tontract) revert N\n      AND \t\t\tontract) revert N\n      DUP2 \t\t\tontract) revert N\n      OR \t\t\tontract) revert N\n      SWAP1 \t\t\tontract) revert N\n      SWAP4 \t\t\tontract) revert N\n      SSTORE \t\t\tontract) revert N\n      PUSH 40\t\t\t\\n        _;\\n    }\\n\\n    enu...\n      MLOAD \t\t\t\\n        _;\\n    }\\n\\n    enu...\n      SWAP2 \t\t\tr != g\n      AND \t\t\tr != g\n      SWAP2 \t\t\tr != g\n      SWAP1 \t\t\tontract) revert N\n      DUP3 \t\t\tr != g\n      SWAP1 \t\t\tr != g\n      PUSH 8BE0079C531659141344CD1FD0A4F28419497F9722A3DAAFE3B4186F6B6457E0\t\t\t\\n        _;\\n    }\\n\\n    enu...\n      SWAP1 \t\t\t\\n        _;\\n    }\\n\\n    enu...\n      PUSH 0\t\t\t      if (msg.se\n      SWAP1 \t\t\t      if (msg.se\n      LOG3 \t\t\t\\n        _;\\n    }\\n\\n    enu...\n      POP \t\t\tnce() {\\n        if (msg.sende...\n      POP \t\t\tvert NotAuthorized();\\n       ...\n      JUMP \t\t\tvert NotAuthorized();\\n       ...\n    tag 861\t\t\tonPeriod,\\n        BL2PLifespa...\n      JUMPDEST \t\t\tonPeriod,\\n        BL2PLifespa...\n      PUSH 0\t\t\tuoru\n      CALLER \t\t\tnCycleEnde\n      PUSH [tag] 440\t\t\tPercent\\n    }\\n\\n    uint256 \n      DUP2 \t\t\tnCycleEnde\n      DUP6 \t\t\t  \n      DUP6 \t\t\tnt256\n      PUSH [tag] 1112\t\t\tPercent\\n \n      JUMP \t\t\tPercent\\n    }\\n\\n    uint256 \n    tag 993\t\t\tegistered(address indexed part...\n      JUMPDEST \t\t\tegistered(address indexed part...\n      PUSH 1\t\t\t\n      PUSH 1\t\t\t\n      PUSH A0\t\t\t\n      SHL \t\t\t\n      SUB \t\t\t\n      DUP5 \t\t\tdexed timestamp, ui\n      AND \t\t\tdexed timestamp, ui\n      PUSH [tag] 1148\t\t\t6 indexed timestamp, uint256 t...\n      JUMPI \t\t\t6 indexed timestamp, uint256 t...\n      PUSH 40\t\t\t);\\n    event IgnitionAirdropC...\n      MLOAD \t\t\t);\\n    event IgnitionAirdropC...\n      PUSH E602DF05\t\t\t\n      PUSH E0\t\t\t\n      SHL \t\t\t\n      DUP2 \t\t\t);\\n    event IgnitionAirdropC...\n      MSTORE \t\t\t);\\n    event IgnitionAirdropC...\n      PUSH 0\t\t\tl\n      PUSH 4\t\t\t);\\n    event IgnitionAirdropC...\n      DUP3 \t\t\t);\\n    event IgnitionAirdropC...\n      ADD \t\t\t);\\n    event IgnitionAirdropC...\n      MSTORE \t\t\tic advertisements;\\n    mappin...\n      PUSH 24\t\t\tt256 => Advertisem\n      ADD \t\t\tt256 => Advertisem\n      PUSH [tag] 527\t\t\t);\\n    event IgnitionAirdropC...\n      JUMP \t\t\tapping(address => uint256) pub...\n    tag 1148\t\t\t6 indexed timestamp, uint256 t...\n      JUMPDEST \t\t\t6 indexed timestamp, uint256 t...\n      PUSH 1\t\t\t\n      PUSH 1\t\t\t\n      PUSH A0\t\t\t\n      SHL \t\t\t\n      SUB \t\t\t\n      DUP4 \t\t\ticipant, uint256 amou\n      AND \t\t\ticipant, uint256 amou\n      PUSH [tag] 1150\t\t\tparticipant, uint256 amount);\\...\n      JUMPI \t\t\tparticipant, uint256 amount);\\...\n      PUSH 40\t\t\tddress initialOwner) ERC20(\"TA...\n      MLOAD \t\t\tddress initialOwner) ERC20(\"TA...\n      PUSH 4A1406B1\t\t\t\n      PUSH E1\t\t\t\n      SHL \t\t\t\n      DUP2 \t\t\tddress initialOwner) ERC20(\"TA...\n      MSTORE \t\t\tddress initialOwner) ERC20(\"TA...\n      PUSH 0\t\t\tT\n      PUSH 4\t\t\tddress initialOwner) ERC20(\"TA...\n      DUP3 \t\t\tddress initialOwner) ERC20(\"TA...\n      ADD \t\t\tddress initialOwner) ERC20(\"TA...\n      MSTORE \t\t\tic advertisements;\\n    mappin...\n      PUSH 24\t\t\tt256 => Advertisem\n      ADD \t\t\tt256 => Advertisem\n      PUSH [tag] 527\t\t\tddress initialOwner) ERC20(\"TA...\n      JUMP \t\t\tapping(address => uint256) pub...\n    tag 1150\t\t\tparticipant, uint256 amount);\\...\n      JUMPDEST \t\t\tparticipant, uint256 amount);\\...\n      PUSH 1\t\t\t\n      PUSH 1\t\t\t\n      PUSH A0\t\t\t\n      SHL \t\t\t\n      SUB \t\t\t\n      DUP1 \t\t\te(initialOwner) {\\n\n      DUP6 \t\t\te(initialOwner) {\\n\n      AND \t\t\te(initialOwner) {\\n\n      PUSH 0\t\t\te(initialOwner) {\\n\n      SWAP1 \t\t\te(initialOwner) {\\n\n      DUP2 \t\t\te(initialOwner) {\\n\n      MSTORE \t\t\te(initialOwner) {\\n\n      PUSH 1\t\t\te(initialOw\n      PUSH 20\t\t\te(initialOwner) {\\n\n      SWAP1 \t\t\te(initialOwner) {\\n\n      DUP2 \t\t\te(initialOwner) {\\n\n      MSTORE \t\t\te(initialOwner) {\\n\n      PUSH 40\t\t\te(initialOwner) {\\n\n      DUP1 \t\t\te(initialOwner) {\\n\n      DUP4 \t\t\te(initialOwner) {\\n\n      KECCAK256 \t\t\te(initialOwner) {\\n\n      SWAP4 \t\t\te(initialOwner) {\\n        a\n      DUP8 \t\t\te(initialOwner) {\\n        a\n      AND \t\t\te(initialOwner) {\\n        a\n      DUP4 \t\t\te(initialOwner) {\\n        a\n      MSTORE \t\t\te(initialOwner) {\\n        a\n      SWAP3 \t\t\te(initialOwner) {\\n        a\n      SWAP1 \t\t\te(initialOwner) {\\n        a\n      MSTORE \t\t\te(initialOwner) {\\n        a\n      KECCAK256 \t\t\te(initialOwner) {\\n        a\n      DUP3 \t\t\te(initialOwner) {\\n        add...\n      SWAP1 \t\t\te(initialOwner) {\\n        add...\n      SSTORE \t\t\te(initialOwner) {\\n        add...\n      DUP1 \t\t\tpient = 0x94f7a6FD45185038DDb8...\n      ISZERO \t\t\tpient = 0x94f7a6FD45185038DDb8...\n      PUSH [tag] 1091\t\t\tpient = 0x94f7a6FD45185038DDb8...\n      JUMPI \t\t\tpient = 0x94f7a6FD45185038DDb8...\n      DUP3 \t\t\t;\\n     \n      PUSH 1\t\t\t\n      PUSH 1\t\t\t\n      PUSH A0\t\t\t\n      SHL \t\t\t\n      SUB \t\t\t\n      AND \t\t\t3C6707ddAB806Ffe;\\n        add...\n      DUP5 \t\t\tB806F\n      PUSH 1\t\t\t\n      PUSH 1\t\t\t\n      PUSH A0\t\t\t\n      SHL \t\t\t\n      SUB \t\t\t\n      AND \t\t\t3C6707ddAB806Ffe;\\n        add...\n      PUSH 8C5BE1E5EBEC7D5BD14F71427D1E84F3DD0314C0F7B2291E5B200AC8C7C3B925\t\t\t3C6707ddAB806Ffe;\\n        add...\n      DUP5 \t\t\t addr\n      PUSH 40\t\t\t3C6707ddAB806Ffe;\\n        add...\n      MLOAD \t\t\t3C6707ddAB806Ffe;\\n        add...\n      PUSH [tag] 1153\t\t\t3C6707ddAB806Ffe;\\n        add...\n      SWAP2 \t\t\t3C6707ddAB806Ffe;\\n        add...\n      DUP2 \t\t\tNotAuthorized();\\n    erro\n      MSTORE \t\t\tNotAuthorized();\\n    erro\n      PUSH 20\t\t\t;\\n\n      ADD \t\t\ternanceNotSet();\\n \n      SWAP1 \t\t\ternanceNotSet();\\n \n      JUMP \t\t\t// Errors\\n    error InvalidRe...\n    tag 1153\t\t\t3C6707ddAB806Ffe;\\n        add...\n      JUMPDEST \t\t\t3C6707ddAB806Ffe;\\n        add...\n      PUSH 40\t\t\t3C6707ddAB806Ffe;\\n        add...\n      MLOAD \t\t\t3C6707ddAB806Ffe;\\n        add...\n      DUP1 \t\t\t3C6707ddAB806Ffe;\\n        add...\n      SWAP2 \t\t\t3C6707ddAB806Ffe;\\n        add...\n      SUB \t\t\t3C6707ddAB806Ffe;\\n        add...\n      SWAP1 \t\t\t3C6707ddAB806Ffe;\\n        add...\n      LOG3 \t\t\t3C6707ddAB806Ffe;\\n        add...\n      POP \t\t\tegistered(address indexed part...\n      POP \t\t\tegistered(address indexed part...\n      POP \t\t\tegistered(address indexed part...\n      POP \t\t\tegistered(address indexed part...\n      JUMP \t\t\tegistered(address indexed part...\n    tag 1000\t\t\troposalType proposalType);\\n  ...\n      JUMPDEST \t\t\troposalType proposalType);\\n  ...\n      PUSH 0\t\t\tndexed voter, byte\n      DUP1 \t\t\tHash);\\n    event Vo\n      PUSH 20\t\t\t256 \n      PUSH 0\t\t\ti\n      DUP5 \t\t\tcute\n      MLOAD \t\t\tWasExecuted\n      PUSH 20\t\t\tropo\n      DUP7 \t\t\tvent\n      ADD \t\t\t   event Propos\n      PUSH 0\t\t\t;\n      DUP9 \t\t\tweigh\n      GAS \t\t\tint25\n      CALL \t\t\trt, uint256 weight);\\n    even...\n      DUP1 \t\t\ting rea\n      PUSH [tag] 1155\t\t\ted id, string reason);\\n    ev...\n      JUMPI \t\t\ted id, string reason);\\n    ev...\n      PUSH 40\t\t\t new\n      MLOAD \t\t\tint256 newQ\n      RETURNDATASIZE \t\t\tint256 newThresh\n      PUSH 0\t\t\td\n      DUP3 \t\t\tpda\n      RETURNDATACOPY \t\t\t VoteThresholdUpdated(uint256 ...\n      RETURNDATASIZE \t\t\td(uint256 amount\n      DUP2 \t\t\tloc\n      REVERT \t\t\tserveUnlocked(uint256 amount,\n    tag 1155\t\t\ted id, string reason);\\n    ev...\n      JUMPDEST \t\t\ted id, string reason);\\n    ev...\n      POP \t\t\t\n      POP \t\t\t\n      PUSH 0\t\t\te\n      MLOAD \t\t\tnt Adver\n      RETURNDATASIZE \t\t\tkedReserveUpdate\n      SWAP2 \t\t\tkedReserveUpdate\n      POP \t\t\t\n      DUP2 \t\t\tndexed adId, st\n      ISZERO \t\t\tndexed adId, st\n      PUSH [tag] 1156\t\t\tndexed adId, string message);\\...\n      JUMPI \t\t\tndexed adId, string message);\\...\n      DUP1 \t\t\tUpdated(add\n      PUSH 1\t\t\t \n      EQ \t\t\tUpdated(address \n      ISZERO \t\t\tUpdated(address \n      PUSH [tag] 1157\t\t\tndexed adId, string message);\\...\n      JUMP \t\t\tndexed adId, string message);\\...\n    tag 1156\t\t\tndexed adId, string message);\\...\n      JUMPDEST \t\t\tndexed adId, string message);\\...\n      PUSH 1\t\t\t\n      PUSH 1\t\t\t\n      PUSH A0\t\t\t\n      SHL \t\t\t\n      SUB \t\t\t\n      DUP5 \t\t\tg message);\\n    event BL2P\n      AND \t\t\tg message);\\n    event BL2P\n      EXTCODESIZE \t\t\tg message);\\n    event BL2P\n      ISZERO \t\t\tg message);\\n    event BL2PMat...\n    tag 1157\t\t\tndexed adId, string message);\\...\n      JUMPDEST \t\t\tndexed adId, string message);\\...\n      ISZERO \t\t\t56 indexed adId, string messag...\n      PUSH [tag] 1091\t\t\t56 indexed adId, string messag...\n      JUMPI \t\t\t56 indexed adId, string messag...\n      PUSH 40\t\t\tred);\\n    event BL2PTransferr...\n      MLOAD \t\t\tred);\\n    event BL2PTransferr...\n      PUSH 5274AFE7\t\t\t\n      PUSH E0\t\t\t\n      SHL \t\t\t\n      DUP2 \t\t\tred);\\n    event BL2PTransferr...\n      MSTORE \t\t\tred);\\n    event BL2PTransferr...\n      PUSH 1\t\t\t\n      PUSH 1\t\t\t\n      PUSH A0\t\t\t\n      SHL \t\t\t\n      SUB \t\t\t\n      DUP6 \t\t\t\\n    mapping(uint256 => Propo...\n      AND \t\t\t\\n    mapping(uint256 => Propo...\n      PUSH 4\t\t\tred);\\n    event BL2PTransferr...\n      DUP3 \t\t\tred);\\n    event BL2PTransferr...\n      ADD \t\t\tred);\\n    event BL2PTransferr...\n      MSTORE \t\t\tic advertisements;\\n    mappin...\n      PUSH 24\t\t\tt256 => Advertisem\n      ADD \t\t\tt256 => Advertisem\n      PUSH [tag] 527\t\t\tred);\\n    event BL2PTransferr...\n      JUMP \t\t\tapping(address => uint256) pub...\n    tag 1082\t\t\tping(address => address) publi...\n      JUMPDEST \t\t\tping(address => address) publi...\n      PUSH 1\t\t\t\n      PUSH 1\t\t\t\n      PUSH A0\t\t\t\n      SHL \t\t\t\n      SUB \t\t\t\n      DUP4 \t\t\tdvertisements;\\n   \n      AND \t\t\tdvertisements;\\n   \n      PUSH [tag] 1161\t\t\tic advertisements;\\n    mappin...\n      JUMPI \t\t\tic advertisements;\\n    mappin...\n      DUP1 \t\t\tpubli\n      PUSH 2\t\t\tess => uint2\n      PUSH 0\t\t\tess => uint2\n      DUP3 \t\t\tess => uint256) publi\n      DUP3 \t\t\tess => uint256) publi\n      SLOAD \t\t\tess => uint256) publi\n      PUSH [tag] 1162\t\t\tess => uint256) publi\n      SWAP2 \t\t\tess => uint256) publi\n      SWAP1 \t\t\tess => uint256) publi\n      PUSH [tag] 452\t\t\tess => uint256) publi\n      JUMP \t\t\tess => uint256) publi\n    tag 1162\t\t\tess => uint256) publi\n      JUMPDEST \t\t\tess => uint256) publi\n      SWAP1 \t\t\tess => uint256) publi\n      SWAP2 \t\t\tess => uint256) publi\n      SSTORE \t\t\tess => uint256) publi\n      POP \t\t\t\n      PUSH [tag] 1163\t\t\tic advertisements;\\n    mappin...\n      SWAP1 \t\t\tic advertisements;\\n    mappin...\n      POP \t\t\t\n      JUMP \t\t\tic advertisements;\\n    mappin...\n    tag 1161\t\t\tic advertisements;\\n    mappin...\n      JUMPDEST \t\t\tic advertisements;\\n    mappin...\n      PUSH 1\t\t\t\n      PUSH 1\t\t\t\n      PUSH A0\t\t\t\n      SHL \t\t\t\n      SUB \t\t\t\n      DUP4 \t\t\tnInfo) public a\n      AND \t\t\tnInfo) public a\n      PUSH 0\t\t\tg(address => Delega\n      SWAP1 \t\t\tnInfo) public a\n      DUP2 \t\t\tnInfo) public a\n      MSTORE \t\t\tnInfo) public a\n      PUSH 20\t\t\tnInfo) public a\n      DUP2 \t\t\tnInfo) public a\n      SWAP1 \t\t\tnInfo) public a\n      MSTORE \t\t\tnInfo) public a\n      PUSH 40\t\t\tnInfo) public a\n      SWAP1 \t\t\tnInfo) public a\n      KECCAK256 \t\t\tnInfo) public a\n      SLOAD \t\t\tnInfo) public a\n      DUP2 \t\t\t    mapping(address\n      DUP2 \t\t\t    mapping(address\n      LT \t\t\t    mapping(address\n      ISZERO \t\t\tns;\\n    mapping(address => ui...\n      PUSH [tag] 1164\t\t\tns;\\n    mapping(address => ui...\n      JUMPI \t\t\tns;\\n    mapping(address => ui...\n      PUSH 40\t\t\tedBL2PReceived;\\n    mapping(a...\n      MLOAD \t\t\tedBL2PReceived;\\n    mapping(a...\n      PUSH 391434E3\t\t\t\n      PUSH E2\t\t\t\n      SHL \t\t\t\n      DUP2 \t\t\tedBL2PReceived;\\n    mapping(a...\n      MSTORE \t\t\tedBL2PReceived;\\n    mapping(a...\n      PUSH 1\t\t\t\n      PUSH 1\t\t\t\n      PUSH A0\t\t\t\n      SHL \t\t\t\n      SUB \t\t\t\n      DUP6 \t\t\t  Proposal storage p = proposa...\n      AND \t\t\t  Proposal storage p = proposa...\n      PUSH 4\t\t\tedBL2PReceived;\\n    mapping(a...\n      DUP3 \t\t\tedBL2PReceived;\\n    mapping(a...\n      ADD \t\t\tedBL2PReceived;\\n    mapping(a...\n      MSTORE \t\t\tNotPaused {\\n        Proposal ...\n      PUSH 24\t\t\t(p.startBlock == 0\n      DUP2 \t\t\t(p.startBlock == 0\n      ADD \t\t\t(p.startBlock == 0\n      DUP3 \t\t\t    if (p.startBlock == 0) rev...\n      SWAP1 \t\t\t    if (p.startBlock == 0) rev...\n      MSTORE \t\t\t    if (p.startBlock == 0) rev...\n      PUSH 44\t\t\txist();\\n        if\n      DUP2 \t\t\txist();\\n        if\n      ADD \t\t\txist();\\n        if\n      DUP4 \t\t\toesNotExist();\\n        if (bl...\n      SWAP1 \t\t\toesNotExist();\\n        if (bl...\n      MSTORE \t\t\toesNotExist();\\n        if (bl...\n      PUSH 64\t\t\t2 commitHash) exte\n      ADD \t\t\t2 commitHash) exte\n      PUSH [tag] 527\t\t\tedBL2PReceived;\\n    mapping(a...\n      JUMP \t\t\t   lastProposalTimestamp[msg.s...\n    tag 1164\t\t\tns;\\n    mapping(address => ui...\n      JUMPDEST \t\t\tns;\\n    mapping(address => ui...\n      PUSH 1\t\t\t\n      PUSH 1\t\t\t\n      PUSH A0\t\t\t\n      SHL \t\t\t\n      SUB \t\t\t\n      DUP5 \t\t\tapping(address \n      AND \t\t\tapping(address \n      PUSH 0\t\t\tapping(ad\n      SWAP1 \t\t\tapping(address \n      DUP2 \t\t\tapping(address \n      MSTORE \t\t\tapping(address \n      PUSH 20\t\t\tapping(address \n      DUP2 \t\t\tapping(address \n      SWAP1 \t\t\tapping(address \n      MSTORE \t\t\tapping(address \n      PUSH 40\t\t\tapping(address \n      SWAP1 \t\t\tapping(address \n      KECCAK256 \t\t\tapping(address \n      SWAP1 \t\t\tbool) public igniti\n      DUP3 \t\t\tbool) public igniti\n      SWAP1 \t\t\tbool) public igniti\n      SUB \t\t\tbool) public igniti\n      SWAP1 \t\t\tapping(address => bool) public...\n      SSTORE \t\t\tapping(address => bool) public...\n    tag 1163\t\t\tic advertisements;\\n    mappin...\n      JUMPDEST \t\t\tic advertisements;\\n    mappin...\n      PUSH 1\t\t\t\n      PUSH 1\t\t\t\n      PUSH A0\t\t\t\n      SHL \t\t\t\n      SUB \t\t\t\n      DUP3 \t\t\tnParticipants;\\n \n      AND \t\t\tnParticipants;\\n \n      PUSH [tag] 1167\t\t\titionParticipants;\\n    addres...\n      JUMPI \t\t\titionParticipants;\\n    addres...\n      PUSH 2\t\t\truct Proposa\n      DUP1 \t\t\truct Proposal {\\n     \n      SLOAD \t\t\truct Proposal {\\n     \n      DUP3 \t\t\truct Proposal {\\n     \n      SWAP1 \t\t\truct Proposal {\\n     \n      SUB \t\t\truct Proposal {\\n     \n      SWAP1 \t\t\truct Proposal {\\n     \n      SSTORE \t\t\truct Proposal {\\n     \n      PUSH [tag] 1168\t\t\titionParticipants;\\n    addres...\n      JUMP \t\t\titionParticipants;\\n    addres...\n    tag 1167\t\t\titionParticipants;\\n    addres...\n      JUMPDEST \t\t\titionParticipants;\\n    addres...\n      PUSH 1\t\t\t\n      PUSH 1\t\t\t\n      PUSH A0\t\t\t\n      SHL \t\t\t\n      SUB \t\t\t\n      DUP3 \t\t\tss newAddress\n      AND \t\t\tss newAddress\n      PUSH 0\t\t\tss newAdd\n      SWAP1 \t\t\tss newAddress\n      DUP2 \t\t\tss newAddress\n      MSTORE \t\t\tss newAddress\n      PUSH 20\t\t\tss newAddress\n      DUP2 \t\t\tss newAddress\n      SWAP1 \t\t\tss newAddress\n      MSTORE \t\t\tss newAddress\n      PUSH 40\t\t\tss newAddress\n      SWAP1 \t\t\tss newAddress\n      KECCAK256 \t\t\tss newAddress\n      DUP1 \t\t\tss newAddress;\\n       \n      SLOAD \t\t\tss newAddress;\\n       \n      DUP3 \t\t\tss newAddress;\\n       \n      ADD \t\t\tss newAddress;\\n       \n      SWAP1 \t\t\tss newAddress;\\n       \n      SSTORE \t\t\tss newAddress;\\n       \n    tag 1168\t\t\titionParticipants;\\n    addres...\n      JUMPDEST \t\t\titionParticipants;\\n    addres...\n      DUP2 \t\t\t\\n \n      PUSH 1\t\t\t\n      PUSH 1\t\t\t\n      PUSH A0\t\t\t\n      SHL \t\t\t\n      SUB \t\t\t\n      AND \t\t\te proposalType;\\n        b\n      DUP4 \t\t\tlTyp\n      PUSH 1\t\t\t\n      PUSH 1\t\t\t\n      PUSH A0\t\t\t\n      SHL \t\t\t\n      SUB \t\t\t\n      AND \t\t\te proposalType;\\n        b\n      PUSH DDF252AD1BE2C89B69C2B068FC378DAA952BA7F163C4A11628F55A4DF523B3EF\t\t\te proposalType;\\n        b\n      DUP4 \t\t\t     \n      PUSH 40\t\t\te proposalType;\\n        b\n      MLOAD \t\t\te proposalType;\\n        b\n      PUSH [tag] 819\t\t\te proposalType;\\n        b\n      SWAP2 \t\t\te proposalType;\\n        b\n      DUP2 \t\t\tNotAuthorized();\\n    erro\n      MSTORE \t\t\tNotAuthorized();\\n    erro\n      PUSH 20\t\t\t;\\n\n      ADD \t\t\ternanceNotSet();\\n \n      SWAP1 \t\t\ternanceNotSet();\\n \n      JUMP \t\t\t// Errors\\n    error InvalidRe...\n    tag 1110\t\t\t= 1_000_000_000 * 1e18;\\n     ...\n      JUMPDEST \t\t\t= 1_000_000_000 * 1e18;\\n     ...\n      PUSH 1\t\t\t\n      PUSH 1\t\t\t\n      PUSH A0\t\t\t\n      SHL \t\t\t\n      SUB \t\t\t\n      DUP4 \t\t\tPOOL = 500_000_000\n      DUP2 \t\t\tPOOL = 500_000_000\n      AND \t\t\tPOOL = 500_000_000\n      PUSH 0\t\t\tess(this), CONTRACT_RESE\n      SWAP1 \t\t\tPOOL = 500_000_000\n      DUP2 \t\t\tPOOL = 500_000_000\n      MSTORE \t\t\tPOOL = 500_000_000\n      PUSH 1\t\t\tPOOL = 500_\n      PUSH 20\t\t\tPOOL = 500_000_000\n      SWAP1 \t\t\tPOOL = 500_000_000\n      DUP2 \t\t\tPOOL = 500_000_000\n      MSTORE \t\t\tPOOL = 500_000_000\n      PUSH 40\t\t\tPOOL = 500_000_000\n      DUP1 \t\t\tPOOL = 500_000_000\n      DUP4 \t\t\tPOOL = 500_000_000\n      KECCAK256 \t\t\tPOOL = 500_000_000\n      SWAP4 \t\t\tPOOL = 500_000_000 * 1e18;\\n\n      DUP7 \t\t\tPOOL = 500_000_000 * 1e18;\\n\n      AND \t\t\tPOOL = 500_000_000 * 1e18;\\n\n      DUP4 \t\t\tPOOL = 500_000_000 * 1e18;\\n\n      MSTORE \t\t\tPOOL = 500_000_000 * 1e18;\\n\n      SWAP3 \t\t\tPOOL = 500_000_000 * 1e18;\\n\n      SWAP1 \t\t\tPOOL = 500_000_000 * 1e18;\\n\n      MSTORE \t\t\tPOOL = 500_000_000 * 1e18;\\n\n      KECCAK256 \t\t\tPOOL = 500_000_000 * 1e18;\\n\n      SLOAD \t\t\tPOOL = 500_000_000 * 1e18;\\n\n      PUSH 0\t\t\t\n      NOT \t\t\t\n      DUP2 \t\t\tLOYER_AMOUNT);\\n        _mint(...\n      LT \t\t\tLOYER_AMOUNT);\\n        _mint(...\n      ISZERO \t\t\t DEPLOYER_AMOUNT);\\n        _m...\n      PUSH [tag] 1091\t\t\t DEPLOYER_AMOUNT);\\n        _m...\n      JUMPI \t\t\t DEPLOYER_AMOUNT);\\n        _m...\n      DUP2 \t\t\tastAd\n      DUP2 \t\t\t_AMOUNT);\\n      \n      LT \t\t\t_AMOUNT);\\n        lastAd\n      ISZERO \t\t\tIENT_AMOUNT);\\n        lastAdv...\n      PUSH [tag] 1173\t\t\tIENT_AMOUNT);\\n        lastAdv...\n      JUMPI \t\t\tIENT_AMOUNT);\\n        lastAdv...\n      PUSH 40\t\t\tk.timestamp;\\n        trustedR...\n      MLOAD \t\t\tk.timestamp;\\n        trustedR...\n      PUSH 7DC7A0D9\t\t\t\n      PUSH E1\t\t\t\n      SHL \t\t\t\n      DUP2 \t\t\tk.timestamp;\\n        trustedR...\n      MSTORE \t\t\tk.timestamp;\\n        trustedR...\n      PUSH 1\t\t\t\n      PUSH 1\t\t\t\n      PUSH A0\t\t\t\n      SHL \t\t\t\n      SUB \t\t\t\n      DUP5 \t\t\t  Proposal storage p = proposa...\n      AND \t\t\t  Proposal storage p = proposa...\n      PUSH 4\t\t\tk.timestamp;\\n        trustedR...\n      DUP3 \t\t\tk.timestamp;\\n        trustedR...\n      ADD \t\t\tk.timestamp;\\n        trustedR...\n      MSTORE \t\t\tNotPaused {\\n        Proposal ...\n      PUSH 24\t\t\t(p.startBlock == 0\n      DUP2 \t\t\t(p.startBlock == 0\n      ADD \t\t\t(p.startBlock == 0\n      DUP3 \t\t\t    if (p.startBlock == 0) rev...\n      SWAP1 \t\t\t    if (p.startBlock == 0) rev...\n      MSTORE \t\t\t    if (p.startBlock == 0) rev...\n      PUSH 44\t\t\txist();\\n        if\n      DUP2 \t\t\txist();\\n        if\n      ADD \t\t\txist();\\n        if\n      DUP4 \t\t\toesNotExist();\\n        if (bl...\n      SWAP1 \t\t\toesNotExist();\\n        if (bl...\n      MSTORE \t\t\toesNotExist();\\n        if (bl...\n      PUSH 64\t\t\t2 commitHash) exte\n      ADD \t\t\t2 commitHash) exte\n      PUSH [tag] 527\t\t\tk.timestamp;\\n        trustedR...\n      JUMP \t\t\t   lastProposalTimestamp[msg.s...\n    tag 1173\t\t\tIENT_AMOUNT);\\n        lastAdv...\n      JUMPDEST \t\t\tIENT_AMOUNT);\\n        lastAdv...\n      PUSH [tag] 1091\t\t\tfunction renounceOwnership() p...\n      DUP5 \t\t\trenou\n      DUP5 \t\t\teOwners\n      DUP5 \t\t\toverr\n      DUP5 \t\t\tp() public virtu\n      SUB \t\t\tp() public virtual overr\n      PUSH 0\t\t\te onl\n      PUSH [tag] 993\t\t\tfunction\n      JUMP \t\t\tfunction renounceOwnership() p...\n    tag 1112\t\t\t\\n    uint256 public advertise...\n      JUMPDEST \t\t\t\\n    uint256 public advertise...\n      PUSH 1\t\t\t\n      PUSH 1\t\t\t\n      PUSH A0\t\t\t\n      SHL \t\t\t\n      SUB \t\t\t\n      DUP4 \t\t\t 10000;\\n    uint25\n      AND \t\t\t 10000;\\n    uint25\n      PUSH [tag] 1177\t\t\tks = 10000;\\n    uint256 publi...\n      JUMPI \t\t\tks = 10000;\\n    uint256 publi...\n      PUSH 40\t\t\tocks = 100000;\\n    uint256 pu...\n      MLOAD \t\t\tocks = 100000;\\n    uint256 pu...\n      PUSH 4B637E8F\t\t\t\n      PUSH E1\t\t\t\n      SHL \t\t\t\n      DUP2 \t\t\tocks = 100000;\\n    uint256 pu...\n      MSTORE \t\t\tocks = 100000;\\n    uint256 pu...\n      PUSH 0\t\t\tp\n      PUSH 4\t\t\tocks = 100000;\\n    uint256 pu...\n      DUP3 \t\t\tocks = 100000;\\n    uint256 pu...\n      ADD \t\t\tocks = 100000;\\n    uint256 pu...\n      MSTORE \t\t\tic advertisements;\\n    mappin...\n      PUSH 24\t\t\tt256 => Advertisem\n      ADD \t\t\tt256 => Advertisem\n      PUSH [tag] 527\t\t\tocks = 100000;\\n    uint256 pu...\n      JUMP \t\t\tapping(address => uint256) pub...\n    tag 1177\t\t\tks = 10000;\\n    uint256 publi...\n      JUMPDEST \t\t\tks = 10000;\\n    uint256 publi...\n      PUSH 1\t\t\t\n      PUSH 1\t\t\t\n      PUSH A0\t\t\t\n      SHL \t\t\t\n      SUB \t\t\t\n      DUP3 \t\t\t 1;\\n    uint256 \n      AND \t\t\t 1;\\n    uint256 \n      PUSH [tag] 1179\t\t\tte = 1;\\n    uint256 public ma...\n      JUMPI \t\t\tte = 1;\\n    uint256 public ma...\n      PUSH 40\t\t\tPercent = 20;\\n    address pub...\n      MLOAD \t\t\tPercent = 20;\\n    address pub...\n      PUSH EC442F05\t\t\t\n      PUSH E0\t\t\t\n      SHL \t\t\t\n      DUP2 \t\t\tPercent = 20;\\n    address pub...\n      MSTORE \t\t\tPercent = 20;\\n    address pub...\n      PUSH 0\t\t\tl\n      PUSH 4\t\t\tPercent = 20;\\n    address pub...\n      DUP3 \t\t\tPercent = 20;\\n    address pub...\n      ADD \t\t\tPercent = 20;\\n    address pub...\n      MSTORE \t\t\tic advertisements;\\n    mappin...\n      PUSH 24\t\t\tt256 => Advertisem\n      ADD \t\t\tt256 => Advertisem\n      PUSH [tag] 527\t\t\tPercent = 20;\\n    address pub...\n      JUMP \t\t\tapping(address => uint256) pub...\n    tag 1179\t\t\tte = 1;\\n    uint256 public ma...\n      JUMPDEST \t\t\tte = 1;\\n    uint256 public ma...\n      PUSH [tag] 992\t\t\t\\n    bool public ignitio\n      DUP4 \t\t\tl pu\n      DUP4 \t\t\tic\n      DUP4 \t\t\tgniti\n      PUSH [tag] 1082\t\t\t\\n    bo\n      JUMP \t\t\t\\n    bool public ignitio\n    tag 1182\t\t\te-Identifier: MIT\\npragma soli...\n      JUMPDEST \t\t\te-Identifier: MIT\\npragma soli...\n      DUP1 \t\t\tntracts/token/ERC20/\n      CALLDATALOAD \t\t\tntracts/token/ERC20/\n      PUSH 1\t\t\t\n      PUSH 1\t\t\t\n      PUSH A0\t\t\t\n      SHL \t\t\t\n      SUB \t\t\t\n      DUP2 \t\t\telin/contracts/token/ERC20/uti...\n      AND \t\t\telin/contracts/token/ERC20/uti...\n      DUP2 \t\t\t\"@openzeppelin/contracts/token...\n      EQ \t\t\t\"@openzeppelin/contracts/token...\n      PUSH [tag] 1193\t\t\t\";\\nimport \"@openzeppelin/cont...\n      JUMPI \t\t\t\";\\nimport \"@openzeppelin/cont...\n      PUSH 0\t\t\t\"\n      DUP1 \t\t\ts\n      REVERT \t\t\teERC20.sol\";\n    tag 1193\t\t\t\";\\nimport \"@openzeppelin/cont...\n      JUMPDEST \t\t\t\";\\nimport \"@openzeppelin/cont...\n      SWAP2 \t\t\te-Identifier: MIT\\npragma soli...\n      SWAP1 \t\t\te-Identifier: MIT\\npragma soli...\n      POP \t\t\te-Identifier: MIT\\npragma soli...\n      JUMP \t\t\te-Identifier: MIT\\npragma soli...\n    tag 111\t\t\tnzeppelin/contracts/utils/Reen...\n      JUMPDEST \t\t\tnzeppelin/contracts/utils/Reen...\n      PUSH 0\t\t\tenzepp\n      PUSH 20\t\t\tAA\n      DUP3 \t\t\t\\n\\ncontrac\n      DUP5 \t\t\tble.sol\n      SUB \t\t\tOwnable.sol\";\\n\\ncontract\n      SLT \t\t\tess/Ownable.sol\";\\n\\ncontract ...\n      ISZERO \t\t\taccess/Ownable.sol\";\\n\\ncontra...\n      PUSH [tag] 1195\t\t\taccess/Ownable.sol\";\\n\\ncontra...\n      JUMPI \t\t\taccess/Ownable.sol\";\\n\\ncontra...\n      PUSH 0\t\t\te\n      DUP1 \t\t\t,\n      REVERT \t\t\ts ERC20, Ree\n    tag 1195\t\t\taccess/Ownable.sol\";\\n\\ncontra...\n      JUMPDEST \t\t\taccess/Ownable.sol\";\\n\\ncontra...\n      PUSH [tag] 566\t\t\t {\\n    using SafeERC20 for IE\n      DUP3 \t\t\tC20 for I\n      PUSH [tag] 1182\t\t\t {\\n    using SafeERC20 for IE\n      JUMP \t\t\t {\\n    using SafeERC20 for IE\n    tag 117\t\t\taused();\\n    error InvalidAdd...\n      JUMPDEST \t\t\taused();\\n    error InvalidAdd...\n      PUSH 0\t\t\tActive\n      PUSH 20\t\t\ten\n      DUP3 \t\t\tor Insuff\n      DUP5 \t\t\t;\\n    e\n      SUB \t\t\tro();\\n    error Insuffi\n      SLT \t\t\tntZero();\\n    error Insuffici...\n      ISZERO \t\t\tmountZero();\\n    error Insuff...\n      PUSH [tag] 1199\t\t\tmountZero();\\n    error Insuff...\n      JUMPI \t\t\tmountZero();\\n    error Insuff...\n      PUSH 0\t\t\t \n      DUP1 \t\t\t\\n\n      REVERT \t\t\tance();\\n    \n    tag 1199\t\t\tmountZero();\\n    error Insuff...\n      JUMPDEST \t\t\tmountZero();\\n    error Insuff...\n      POP \t\t\t\n      CALLDATALOAD \t\t\trs();\\n    error BurnCyc\n      SWAP2 \t\t\trs();\\n    error BurnCyc\n      SWAP1 \t\t\taused();\\n    error InvalidAdd...\n      POP \t\t\t\n      JUMP \t\t\taused();\\n    error InvalidAdd...\n    tag 1183\t\t\t    error ExceedsBurnTarget();...\n      JUMPDEST \t\t\t    error ExceedsBurnTarget();...\n      PUSH 0\t\t\tnva\n      DUP2 \t\t\teward\n      MLOAD \t\t\tor NoReward(\n      DUP1 \t\t\tsers()\n      DUP5 \t\t\tMan\n      MSTORE \t\t\tror TooManyUsers();\n      PUSH 0\t\t\tn\n    tag 1201\t\t\t();\\n    error StakeAlreadyAct...\n      JUMPDEST \t\t\t();\\n    error StakeAlreadyAct...\n      DUP2 \t\t\tStakeA\n      DUP2 \t\t\to\n      LT \t\t\terror StakeAl\n      ISZERO \t\t\t();\\n    error StakeAlreadyAct...\n      PUSH [tag] 1203\t\t\t();\\n    error StakeAlreadyAct...\n      JUMPI \t\t\t();\\n    error StakeAlreadyAct...\n      PUSH 20\t\t\teeds\n      DUP2 \t\t\tror InvalidPr\n      DUP6 \t\t\tror InvalidPr\n      ADD \t\t\tror InvalidPr\n      DUP2 \t\t\t  error InvalidProposa\n      ADD \t\t\t  error InvalidProposa\n      MLOAD \t\t\t();\\n    error InvalidProposal\n      DUP7 \t\t\tror BL2PNot\n      DUP4 \t\t\tror BL2PNot\n      ADD \t\t\tror BL2PNot\n      DUP3 \t\t\t  error BL2PNotMatur\n      ADD \t\t\t  error BL2PNotMatur\n      MSTORE \t\t\tt();\\n    error BL2PNotMatured...\n      ADD \t\t\tive();\\n    e\n      PUSH [tag] 1201\t\t\t();\\n    error StakeAlreadyAct...\n      JUMP \t\t\t();\\n    error StakeAlreadyAct...\n    tag 1203\t\t\t();\\n    error StakeAlreadyAct...\n      JUMPDEST \t\t\t();\\n    error StakeAlreadyAct...\n      POP \t\t\t   \n      PUSH 0\t\t\to\n      PUSH 20\t\t\terro\n      DUP3 \t\t\tt();\\n \n      DUP7 \t\t\ttEx\n      ADD \t\t\tesNotExist();\\n  \n      ADD \t\t\talDoesNotExist();\\n    error\n      MSTORE \t\t\t ProposalDoesNotExist();\\n    ...\n      PUSH 20\t\t\tosal\n      PUSH 1F\t\t\tor\n      NOT \t\t\t error \n      PUSH 1F\t\t\t;\\n\n      DUP4 \t\t\tyVoted\n      ADD \t\t\treadyVoted();\\n \n      AND \t\t\tr AlreadyVoted();\\n    error P\n      DUP6 \t\t\t er\n      ADD \t\t\t\\n    error AlreadyVoted();\\n ...\n      ADD \t\t\te();\\n    error AlreadyVoted()...\n      SWAP2 \t\t\tInactive();\\n    error Already...\n      POP \t\t\tInactive();\\n    error Already...\n      POP \t\t\tInactive();\\n    error Already...\n      SWAP3 \t\t\t    error ExceedsBurnTarget();...\n      SWAP2 \t\t\t    error ExceedsBurnTarget();...\n      POP \t\t\t    error ExceedsBurnTarget();...\n      POP \t\t\t    error ExceedsBurnTarget();...\n      JUMP \t\t\t    error ExceedsBurnTarget();...\n    tag 467\t\t\t    error InvalidCommit();\\n  ...\n      JUMPDEST \t\t\t    error InvalidCommit();\\n  ...\n      PUSH 4E487B71\t\t\t    error \n      PUSH E0\t\t\td()\n      SHL \t\t\tEnded();\\n    error Q\n      PUSH 0\t\t\tN\n      MSTORE \t\t\tgPeriodNotEnded();\\n    error ...\n      PUSH 21\t\t\trror\n      PUSH 4\t\t\t \n      MSTORE \t\t\tt();\\n    error \n      PUSH 24\t\t\t();\\n\n      PUSH 0\t\t\tM\n      REVERT \t\t\tholdNotMet();\\n \n    tag 1184\t\t\tlockPeriodNotElapsed();\\n    e...\n      JUMPDEST \t\t\tlockPeriodNotElapsed();\\n    e...\n      PUSH C\t\t\tnd\n      DUP2 \t\t\tnsfer\n      LT \t\t\tTransferCondi\n      PUSH [tag] 1206\t\t\tor InvalidTransferConditions()...\n      JUMPI \t\t\tor InvalidTransferConditions()...\n      PUSH 4E487B71\t\t\trror Deleg\n      PUSH E0\t\t\t   \n      SHL \t\t\t();\\n    error Delega\n      PUSH 0\t\t\ta\n      MSTORE \t\t\tidDelegate();\\n    error Deleg...\n      PUSH 21\t\t\tExce\n      PUSH 4\t\t\to\n      MSTORE \t\t\t    error Excee\n      PUSH 24\t\t\terro\n      PUSH 0\t\t\t \n      REVERT \t\t\tit();\\n    error\n    tag 1206\t\t\tor InvalidTransferConditions()...\n      JUMPDEST \t\t\tor InvalidTransferConditions()...\n      SWAP1 \t\t\t  error BL2PNotExp\n      MSTORE \t\t\t  error BL2PNotExp\n      JUMP \t\t\tlockPeriodNotElapsed();\\n    e...\n    tag 120\t\t\t error InvalidBurnAmount();\\n ...\n      JUMPDEST \t\t\t error InvalidBurnAmount();\\n ...\n      PUSH 0\t\t\terro\n      PUSH 160\t\t\t();\n      DUP14 \t\t\toldNot\n      DUP4 \t\t\tationThre\n      MSTORE \t\t\tr ActivationThresholdNotM\n      DUP13 \t\t\t  erro\n      PUSH 20\t\t\t);\n      DUP5 \t\t\trticipant\n      ADD \t\t\tNoParticipants();\\n\n      MSTORE \t\t\t error NoParticipants();\\n    ...\n      DUP12 \t\t\tClaime\n      PUSH 40\t\t\tre\n      DUP5 \t\t\t   error \n      ADD \t\t\t);\\n    error Alrea\n      MSTORE \t\t\tlisted();\\n    error AlreadyCl...\n      DUP11 \t\t\t   err\n      PUSH 60\t\t\t()\n      DUP5 \t\t\tmableAmou\n      ADD \t\t\tClaimableAmount();\n      MSTORE \t\t\trror NoClaimableAmount();\\n   ...\n      DUP10 \t\t\tto fix\n      PUSH 80\t\t\tAdd\n      DUP5 \t\t\ttive(); /\n      ADD \t\t\twnActive(); // Adde\n      MSTORE \t\t\tlCooldownActive(); // Added to...\n      DUP9 \t\t\te vari\n      PUSH A0\t\t\t/ S\n      DUP5 \t\t\trror\\n\\n   \n      ADD \t\t\tve error\\n\\n    // St\n      MSTORE \t\t\townActive error\\n\\n    // Stat...\n      PUSH 1\t\t\ti\n      DUP1 \t\t\te\n      PUSH A0\t\t\tste\n      SHL \t\t\t trustedRec\n      SUB \t\t\tblic trustedRecipie\n      DUP1 \t\t\tap\n      DUP10 \t\t\trs\\n   \n      AND \t\t\terrors\\n    mapp\n      PUSH C0\t\t\tpie\n      DUP6 \t\t\ttrustedRe\n      ADD \t\t\tfix trustedRecipien\n      MSTORE \t\t\tded to fix trustedRecipient er...\n      DUP1 \t\t\tmp\n      DUP9 \t\t\tlTimes\n      AND \t\t\tposalTimestamp;\n      PUSH E0\t\t\tast\n      DUP6 \t\t\t6) public\n      ADD \t\t\tnt256) public lastP\n      MSTORE \t\t\ts => uint256) public lastPropo...\n      POP \t\t\ts => uint256) public lastPropo...\n      DUP1 \t\t\t e\n      PUSH 100\t\t\test\n      DUP5 \t\t\tProposalT\n      ADD \t\t\tlastProposalTimesta\n      MSTORE \t\t\tto fix lastProposalTimestamp e...\n      PUSH [tag] 1208\t\t\t onlyEOA() {\\n        require(...\n      DUP2 \t\t\t= \n      DUP5 \t\t\tsg.sender\n      ADD \t\t\tre(msg.sender == t\n      DUP8 \t\t\t   req\n      PUSH [tag] 1183\t\t\t onlyEOA() {\\n        require(...\n      JUMP \t\t\t onlyEOA() {\\n        require(...\n    tag 1208\t\t\t onlyEOA() {\\n        require(...\n      JUMPDEST \t\t\t onlyEOA() {\\n        require(...\n      SWAP2 \t\t\tmodifier onlyEOA() {\\n        ...\n      POP \t\t\tmodifier onlyEOA() {\\n        ...\n      POP \t\t\tmodifier onlyEOA() {\\n        ...\n      PUSH [tag] 1209\t\t\t\"Contracts not allowed\");\\n   ...\n      PUSH 120\t\t\tier\n      DUP4 \t\t\t}\\n    mod\n      ADD \t\t\t    }\\n    modifier \n      DUP6 \t\t\t     _\n      PUSH [tag] 1184\t\t\t\"Contracts not allowed\");\\n   ...\n      JUMP \t\t\t\"Contracts not allowed\");\\n   ...\n    tag 1209\t\t\t\"Contracts not allowed\");\\n   ...\n      JUMPDEST \t\t\t\"Contracts not allowed\");\\n   ...\n      DUP3 \t\t\t.sender\n      ISZERO \t\t\tif (msg.sender \n      ISZERO \t\t\t       if (msg.sender !\n      PUSH 140\t\t\tr) \n      DUP4 \t\t\taddress u\n      ADD \t\t\tser(address user) {\n      MSTORE \t\t\tanceOrUser(address user) {\\n  ...\n      SWAP13 \t\t\t error InvalidBurnAmount();\\n ...\n      SWAP12 \t\t\t error InvalidBurnAmount();\\n ...\n      POP \t\t\t error InvalidBurnAmount();\\n ...\n      POP \t\t\t error InvalidBurnAmount();\\n ...\n      POP \t\t\t error InvalidBurnAmount();\\n ...\n      POP \t\t\t error InvalidBurnAmount();\\n ...\n      POP \t\t\t error InvalidBurnAmount();\\n ...\n      POP \t\t\t error InvalidBurnAmount();\\n ...\n      POP \t\t\t error InvalidBurnAmount();\\n ...\n      POP \t\t\t error InvalidBurnAmount();\\n ...\n      POP \t\t\t error InvalidBurnAmount();\\n ...\n      POP \t\t\t error InvalidBurnAmount();\\n ...\n      POP \t\t\t error InvalidBurnAmount();\\n ...\n      POP \t\t\t error InvalidBurnAmount();\\n ...\n      JUMP \t\t\t error InvalidBurnAmount();\\n ...\n    tag 124\t\t\tg.sender != governanceContract...\n      JUMPDEST \t\t\tg.sender != governanceContract...\n      PUSH 20\t\t\tau\n      DUP2 \t\t\tt Contrac\n      MSTORE \t\t\t) revert ContractPaus\n      PUSH 0\t\t\tif (\n      PUSH [tag] 566\t\t\t    }\\n    modifier onlyGovern...\n      PUSH 20\t\t\t) \n      DUP4 \t\t\tnceOrOwne\n      ADD \t\t\ternanceOrOwner() {\n      DUP5 \t\t\t onlyG\n      PUSH [tag] 1183\t\t\t    }\\n    modifier onlyGovern...\n      JUMP \t\t\t    }\\n    modifier onlyGovern...\n    tag 127\t\t\t(msg.sender != governanceContr...\n      JUMPDEST \t\t\t(msg.sender != governanceContr...\n      PUSH 0\t\t\totAuth\n      DUP1 \t\t\tized()\n      PUSH 40\t\t\t) \n      DUP4 \t\t\tyGovernan\n      DUP6 \t\t\tifier o\n      SUB \t\t\t modifier onlyGovernanc\n      SLT \t\t\t\\n    modifier onlyGovernance(...\n      ISZERO \t\t\t  }\\n    modifier onlyGovernan...\n      PUSH [tag] 1213\t\t\t  }\\n    modifier onlyGovernan...\n      JUMPI \t\t\t  }\\n    modifier onlyGovernan...\n      PUSH 0\t\t\tm\n      DUP1 \t\t\tf\n      REVERT \t\t\t      if (ms\n    tag 1213\t\t\t  }\\n    modifier onlyGovernan...\n      JUMPDEST \t\t\t  }\\n    modifier onlyGovernan...\n      PUSH [tag] 1214\t\t\teContract) revert NotAuthoriz\n      DUP4 \t\t\totAuthori\n      PUSH [tag] 1182\t\t\teContract) revert NotAuthoriz\n      JUMP \t\t\teContract) revert NotAuthoriz\n    tag 1214\t\t\teContract) revert NotAuthoriz\n      JUMPDEST \t\t\teContract) revert NotAuthoriz\n      SWAP5 \t\t\t governanceContract) revert No...\n      PUSH 20\t\t\t\\n \n      SWAP4 \t\t\t ProposalType {\\n  \n      SWAP1 \t\t\t ProposalType {\\n  \n      SWAP4 \t\t\t ProposalType {\\n  \n      ADD \t\t\t ProposalType {\\n  \n      CALLDATALOAD \t\t\t  }\\n\\n    enum ProposalType {...\n      SWAP4 \t\t\t  }\\n\\n    enum ProposalType {...\n      POP \t\t\t\n      POP \t\t\t\n      POP \t\t\t\n      JUMP \t\t\t(msg.sender != governanceContr...\n    tag 169\t\t\t000_000_000 * 1e18;\\n    uint2...\n      JUMPDEST \t\t\t000_000_000 * 1e18;\\n    uint2...\n      PUSH 0\t\t\t\\n    u\n      DUP1 \t\t\tt256 p\n      PUSH 0\t\t\tvate c\n      PUSH 60\t\t\t\\n \n      DUP5 \t\t\tDS_PER_YE\n      DUP7 \t\t\tN = SEC\n      SUB \t\t\tATION = SECONDS_PER_YEA\n      SLT \t\t\t_DURATION = SECONDS_PER_YEAR;\\...\n      ISZERO \t\t\tCLE_DURATION = SECONDS_PER_YEA...\n      PUSH [tag] 1218\t\t\tCLE_DURATION = SECONDS_PER_YEA...\n      JUMPI \t\t\tCLE_DURATION = SECONDS_PER_YEA...\n      PUSH 0\t\t\tv\n      DUP1 \t\t\tp\n      REVERT \t\t\tint256 priva\n    tag 1218\t\t\tCLE_DURATION = SECONDS_PER_YEA...\n      JUMPDEST \t\t\tCLE_DURATION = SECONDS_PER_YEA...\n      PUSH [tag] 1219\t\t\tSUPPLY = 1_000_000_000 * 1e18\n      DUP5 \t\t\t000 * 1e1\n      PUSH [tag] 1182\t\t\tSUPPLY = 1_000_000_000 * 1e18\n      JUMP \t\t\tSUPPLY = 1_000_000_000 * 1e18\n    tag 1219\t\t\tSUPPLY = 1_000_000_000 * 1e18\n      JUMPDEST \t\t\tSUPPLY = 1_000_000_000 * 1e18\n      SWAP3 \t\t\t BL2P_MAX_SUPPLY = 1_000_000_0...\n      POP \t\t\t BL2P_MAX_SUPPLY = 1_000_000_0...\n      PUSH [tag] 1220\t\t\tte constant EARLY_ADOPTER_LIMI...\n      PUSH 20\t\t\t10\n      DUP6 \t\t\tER_LIMIT \n      ADD \t\t\tDOPTER_LIMIT = 100\n      PUSH [tag] 1182\t\t\tte constant EARLY_ADOPTER_LIMI...\n      JUMP \t\t\tte constant EARLY_ADOPTER_LIMI...\n    tag 1220\t\t\tte constant EARLY_ADOPTER_LIMI...\n      JUMPDEST \t\t\tte constant EARLY_ADOPTER_LIMI...\n      SWAP2 \t\t\tt256 private constant EARLY_AD...\n      POP \t\t\tt256 private constant EARLY_AD...\n      PUSH 40\t\t\tNU\n      DUP5 \t\t\t_ADOPTER_\n      ADD \t\t\tARLY_ADOPTER_BONUS\n      CALLDATALOAD \t\t\tte constant EARLY_ADOPTER_BONU...\n      SWAP1 \t\t\tt256 private constant EARLY_AD...\n      POP \t\t\tt256 private constant EARLY_AD...\n      SWAP3 \t\t\t000_000_000 * 1e18;\\n    uint2...\n      POP \t\t\t000_000_000 * 1e18;\\n    uint2...\n      SWAP3 \t\t\t000_000_000 * 1e18;\\n    uint2...\n      POP \t\t\t000_000_000 * 1e18;\\n    uint2...\n      SWAP3 \t\t\t000_000_000 * 1e18;\\n    uint2...\n      JUMP \t\t\t000_000_000 * 1e18;\\n    uint2...\n    tag 1185\t\t\t    uint256 private constant R...\n      JUMPDEST \t\t\t    uint256 private constant R...\n      DUP1 \t\t\t private constant ST\n      CALLDATALOAD \t\t\t private constant ST\n      DUP1 \t\t\tuint256 priva\n      ISZERO \t\t\tuint256 priva\n      ISZERO \t\t\t8;\\n    uint256 privat\n      DUP2 \t\t\t1000 * 1e18;\\n    uint256 priv...\n      EQ \t\t\t1000 * 1e18;\\n    uint256 priv...\n      PUSH [tag] 1193\t\t\t_AMOUNT = 1000 * 1e18;\\n    ui...\n      JUMPI \t\t\t_AMOUNT = 1000 * 1e18;\\n    ui...\n      PUSH 0\t\t\tI\n      DUP1 \t\t\tT\n      REVERT \t\t\tstant STAKIN\n    tag 174\t\t\t days;\\n    uint256 private co...\n      JUMPDEST \t\t\t days;\\n    uint256 private co...\n      PUSH 0\t\t\tys;\\n  \n      PUSH 20\t\t\t0 \n      DUP3 \t\t\tCOOLDOWN \n      DUP5 \t\t\tPROPOSA\n      SUB \t\t\tant PROPOSAL_COOLDOWN =\n      SLT \t\t\tonstant PROPOSAL_COOLDOWN = 30...\n      ISZERO \t\t\tc constant PROPOSAL_COOLDOWN =...\n      PUSH [tag] 1224\t\t\tc constant PROPOSAL_COOLDOWN =...\n      JUMPI \t\t\tc constant PROPOSAL_COOLDOWN =...\n      PUSH 0\t\t\t2\n      DUP1 \t\t\ti\n      REVERT \t\t\t;\\n    uint25\n    tag 1224\t\t\tc constant PROPOSAL_COOLDOWN =...\n      JUMPDEST \t\t\tc constant PROPOSAL_COOLDOWN =...\n      PUSH [tag] 566\t\t\tLOCK_PERIOD = 120 days;\\n  \n      DUP3 \t\t\t0 days;\\n \n      PUSH [tag] 1185\t\t\tLOCK_PERIOD = 120 days;\\n  \n      JUMP \t\t\tLOCK_PERIOD = 120 days;\\n  \n    tag 194\t\t\trivate constant PROPOSAL_THRES...\n      JUMPDEST \t\t\trivate constant PROPOSAL_THRES...\n      PUSH 0\t\t\tRTISEM\n      DUP1 \t\t\tT_PERI\n      PUSH 20\t\t\tOP\n      DUP4 \t\t\tnstant MA\n      DUP6 \t\t\trivate \n      SUB \t\t\t56 private constant MAX\n      SLT \t\t\tint256 private constant MAX_TO...\n      ISZERO \t\t\t  uint256 private constant MAX...\n      PUSH [tag] 1227\t\t\t  uint256 private constant MAX...\n      JUMPI \t\t\t  uint256 private constant MAX...\n      PUSH 0\t\t\t0\n      DUP1 \t\t\t=\n      REVERT \t\t\tEGATES = 10;\n    tag 1227\t\t\t  uint256 private constant MAX...\n      JUMPDEST \t\t\t  uint256 private constant MAX...\n      DUP3 \t\t\tTION_PART\n      CALLDATALOAD \t\t\ttant MAX_IGNITION_PARTI\n      PUSH FFFFFFFFFFFFFFFF\t\t\t  bool public burn\n      DUP1 \t\t\tub\n      DUP3 \t\t\t  bool\n      GT \t\t\t\\n    bool publ\n      ISZERO \t\t\tve;\\n    bool public bl2pRevea...\n      PUSH [tag] 1228\t\t\tve;\\n    bool public bl2pRevea...\n      JUMPI \t\t\tve;\\n    bool public bl2pRevea...\n      PUSH 0\t\t\te\n      DUP1 \t\t\te\n      REVERT \t\t\tbl2pRevealed\n    tag 1228\t\t\tve;\\n    bool public bl2pRevea...\n      JUMPDEST \t\t\tve;\\n    bool public bl2pRevea...\n      DUP2 \t\t\t   uin\n      DUP6 \t\t\tcyPaused;\n      ADD \t\t\trgencyPaused;\\n    uint\n      SWAP2 \t\t\tpublic emergencyPaused;\\n    u...\n      POP \t\t\tpublic emergencyPaused;\\n    u...\n      DUP6 \t\t\tint256 \n      PUSH 1F\t\t\t;\\n  \n      DUP4 \t\t\tan\n      ADD \t\t\teBalance;\\n   \n      SLT \t\t\tserveBalance;\\n    uint256 p\n      PUSH [tag] 1229\t\t\tc lockedReserveBalance;\\n    u...\n      JUMPI \t\t\tc lockedReserveBalance;\\n    u...\n      PUSH 0\t\t\tn\n      DUP1 \t\t\tB\n      REVERT \t\t\tc totalBurne\n    tag 1229\t\t\tc lockedReserveBalance;\\n    u...\n      JUMPDEST \t\t\tc lockedReserveBalance;\\n    u...\n      DUP2 \t\t\tst\n      CALLDATALOAD \t\t\tnDeadlineTimesta\n      DUP2 \t\t\tcu\n      DUP2 \t\t\t publi\n      GT \t\t\t256 public cur\n      ISZERO \t\t\tint256 public currentBurnCycle...\n      PUSH [tag] 1230\t\t\tint256 public currentBurnCycle...\n      JUMPI \t\t\tint256 public currentBurnCycle...\n      PUSH 0\t\t\t;\n      DUP1 \t\t\tc\n      REVERT \t\t\ttBurnCycle;\\n\n    tag 1230\t\t\tint256 public currentBurnCycle...\n      JUMPDEST \t\t\tint256 public currentBurnCycle...\n      DUP7 \t\t\t uint25\n      PUSH 20\t\t\t;\\n\n      DUP3 \t\t\ttTimes\n      PUSH 5\t\t\tt\n      SHL \t\t\tcleStartTimest\n      DUP6 \t\t\trn\n      ADD \t\t\tstBurnCycleStartTimesta\n      ADD \t\t\tc lastBurnCycleStartTimestamp;...\n      GT \t\t\tblic lastBurnCycleStartTimesta...\n      ISZERO \t\t\t public lastBurnCycleStartTime...\n      PUSH [tag] 1231\t\t\t public lastBurnCycleStartTime...\n      JUMPI \t\t\t public lastBurnCycleStartTime...\n      PUSH 0\t\t\tL\n      DUP1 \t\t\tN\n      REVERT \t\t\tblic ANNUAL_\n    tag 1231\t\t\t public lastBurnCycleStartTime...\n      JUMPDEST \t\t\t public lastBurnCycleStartTime...\n      PUSH 20\t\t\te1\n      SWAP3 \t\t\t_000 * 1e18\n      SWAP1 \t\t\t_000 * 1e18\n      SWAP3 \t\t\t_000 * 1e18\n      ADD \t\t\t_000 * 1e18\n      SWAP7 \t\t\t_000 * 1e18\n      SWAP2 \t\t\tc earl\n      SWAP6 \t\t\tc earl\n      POP \t\t\t\n      SWAP1 \t\t\trivate constant PROPOSAL_THRES...\n      SWAP4 \t\t\trivate constant PROPOSAL_THRES...\n      POP \t\t\t\n      POP \t\t\t\n      POP \t\t\t\n      POP \t\t\t\n      JUMP \t\t\trivate constant PROPOSAL_THRES...\n    tag 309\t\t\tposals;\\n    mapping(address =...\n      JUMPDEST \t\t\tposals;\\n    mapping(address =...\n      PUSH 20\t\t\teD\n      DUP1 \t\t\t delegatedBL2PReceive\n      DUP3 \t\t\t delegatedBL2PReceive\n      MSTORE \t\t\t delegatedBL2PReceive\n      DUP3 \t\t\t   mapping(ad\n      MLOAD \t\t\t   mapping(ad\n      DUP3 \t\t\t(address => uint25\n      DUP3 \t\t\t(address => uint25\n      ADD \t\t\t(address => uint25\n      DUP2 \t\t\tbool) public ignitionW\n      SWAP1 \t\t\tbool) public ignitionW\n      MSTORE \t\t\tbool) public ignitionW\n      PUSH 0\t\t\t Del\n      SWAP2 \t\t\t Del\n      SWAP1 \t\t\teD\n      DUP5 \t\t\tClaimableAmount\n      DUP3 \t\t\tClaimableAmount\n      ADD \t\t\tClaimableAmount\n      SWAP1 \t\t\tClaimableAmount\n      PUSH 40\t\t\t> \n      DUP6 \t\t\tpping(address => u\n      ADD \t\t\tpping(address => u\n      SWAP1 \t\t\tpping(address => u\n      DUP5 \t\t\t Del\n    tag 1236\t\t\tl) public ignitionClaimed;\\n  ...\n      JUMPDEST \t\t\tl) public ignitionClaimed;\\n  ...\n      DUP2 \t\t\ttionCl\n      DUP2 \t\t\tg\n      LT \t\t\tc ignitionCla\n      ISZERO \t\t\tl) public ignitionClaimed;\\n  ...\n      PUSH [tag] 1238\t\t\tl) public ignitionClaimed;\\n  ...\n      JUMPI \t\t\tl) public ignitionClaimed;\\n  ...\n      DUP4 \t\t\tss[] public t\n      MLOAD \t\t\tss[] public t\n      PUSH 1\t\t\t\n      PUSH 1\t\t\t\n      PUSH A0\t\t\t\n      SHL \t\t\t\n      SUB \t\t\t\n      AND \t\t\tddress[] public topDelegates;\\...\n      DUP4 \t\t\tpants;\\n    address[] public t...\n      MSTORE \t\t\tpants;\\n    address[] public t...\n      SWAP3 \t\t\tostedBlock;\\n   \n      DUP5 \t\t\tostedBlock;\\n   \n      ADD \t\t\tostedBlock;\\n   \n      SWAP3 \t\t\tostedBlock;\\n   \n      SWAP2 \t\t\t      uint25\n      DUP5 \t\t\t      uint25\n      ADD \t\t\t      uint25\n      SWAP2 \t\t\t      uint25\n      PUSH 1\t\t\tt\n      ADD \t\t\t  address\n      PUSH [tag] 1236\t\t\tl) public ignitionClaimed;\\n  ...\n      JUMP \t\t\tl) public ignitionClaimed;\\n  ...\n    tag 1238\t\t\tl) public ignitionClaimed;\\n  ...\n      JUMPDEST \t\t\tl) public ignitionClaimed;\\n  ...\n      POP \t\t\t\n      SWAP1 \t\t\t   \n      SWAP7 \t\t\t   \n      SWAP6 \t\t\tposals;\\n    mapping(address =...\n      POP \t\t\t\n      POP \t\t\t\n      POP \t\t\t\n      POP \t\t\t\n      POP \t\t\t\n      POP \t\t\t\n      JUMP \t\t\tposals;\\n    mapping(address =...\n    tag 326\t\t\tExpiry;\\n        bool matured;...\n      JUMPDEST \t\t\tExpiry;\\n        bool matured;...\n      PUSH 0\t\t\t56 amo\n      DUP1 \t\t\tt;\\n   \n      PUSH 40\t\t\tos\n      DUP4 \t\t\tnt256 bl2\n      DUP6 \t\t\t       \n      SUB \t\t\tk;\\n        uint256 bl2p\n      SLT \t\t\tBlock;\\n        uint256 bl2pBo...\n      ISZERO \t\t\tartBlock;\\n        uint256 bl2...\n      PUSH [tag] 1241\t\t\tartBlock;\\n        uint256 bl2...\n      JUMPI \t\t\tartBlock;\\n        uint256 bl2...\n      PUSH 0\t\t\tl\n      DUP1 \t\t\tb\n      REVERT \t\t\t       bool \n    tag 1241\t\t\tartBlock;\\n        uint256 bl2...\n      JUMPDEST \t\t\tartBlock;\\n        uint256 bl2...\n      POP \t\t\t\n      POP \t\t\t\n      DUP1 \t\t\tuct DelegationInfo {\\n  \n      CALLDATALOAD \t\t\tuct DelegationInfo {\\n  \n      SWAP3 \t\t\tuct DelegationInfo {\\n  \n      PUSH 20\t\t\t\\n \n      SWAP1 \t\t\tdress delegate;\\n  \n      SWAP2 \t\t\tdress delegate;\\n  \n      ADD \t\t\tdress delegate;\\n  \n      CALLDATALOAD \t\t\te;\\n        address delegate;\\...\n      SWAP2 \t\t\te;\\n        address delegate;\\...\n      POP \t\t\t\n      JUMP \t\t\tExpiry;\\n        bool matured;...\n    tag 362\t\t\t6 bl2pAmount;\\n        uint256...\n      JUMPDEST \t\t\t6 bl2pAmount;\\n        uint256...\n      DUP4 \t\t\ter, ui\n      DUP2 \t\t\tndexed bu\n      MSTORE \t\t\tdress indexed burner, uin\n      DUP3 \t\t\tnt256 \n      PUSH 20\t\t\td,\n      DUP3 \t\t\t totalBur\n      ADD \t\t\tt256 totalBurned, \n      MSTORE \t\t\tnt, uint256 totalBurned, uint2...\n      PUSH 60\t\t\tre\n      PUSH 40\t\t\td(\n      DUP3 \t\t\tPBonusBur\n      ADD \t\t\t BL2PBonusBurned(a\n      MSTORE \t\t\t  event BL2PBonusBurned(addres\n      PUSH 0\t\t\tent \n      PUSH [tag] 1243\t\t\tint256 bonusAmount, uint256 cy...\n      PUSH 60\t\t\tve\n      DUP4 \t\t\tcle);\\n   \n      ADD \t\t\t6 cycle);\\n    even\n      DUP5 \t\t\t, uint\n      PUSH [tag] 1183\t\t\tint256 bonusAmount, uint256 cy...\n      JUMP \t\t\tint256 bonusAmount, uint256 cy...\n    tag 1243\t\t\tint256 bonusAmount, uint256 cy...\n      JUMPDEST \t\t\tint256 bonusAmount, uint256 cy...\n      SWAP6 \t\t\t user, uint256 bonusAmount, ui...\n      SWAP5 \t\t\t6 bl2pAmount;\\n        uint256...\n      POP \t\t\t\n      POP \t\t\t\n      POP \t\t\t\n      POP \t\t\t\n      POP \t\t\t\n      JUMP \t\t\t6 bl2pAmount;\\n        uint256...\n    tag 390\t\t\td, address indexed proposer, s...\n      JUMPDEST \t\t\td, address indexed proposer, s...\n      PUSH 0\t\t\talType\n      DUP1 \t\t\t\\n    e\n      PUSH 40\t\t\tin\n      DUP4 \t\t\tid, addre\n      DUP6 \t\t\t indexe\n      SUB \t\t\tt256 indexed id, addres\n      SLT \t\t\t(uint256 indexed id, address i...\n      ISZERO \t\t\tted(uint256 indexed id, addres...\n      PUSH [tag] 1247\t\t\tted(uint256 indexed id, addres...\n      JUMPI \t\t\tted(uint256 indexed id, addres...\n      PUSH 0\t\t\ty\n      DUP1 \t\t\t,\n      REVERT \t\t\td voter, byt\n    tag 1247\t\t\tted(uint256 indexed id, addres...\n      JUMPDEST \t\t\tted(uint256 indexed id, addres...\n      PUSH [tag] 1248\t\t\t event VoteRevealed(uint256 i\n      DUP4 \t\t\t(uint256 \n      PUSH [tag] 1182\t\t\t event VoteRevealed(uint256 i\n      JUMP \t\t\t event VoteRevealed(uint256 i\n    tag 1248\t\t\t event VoteRevealed(uint256 i\n      JUMPDEST \t\t\t event VoteRevealed(uint256 i\n      SWAP2 \t\t\tHash);\\n    event VoteRevealed...\n      POP \t\t\tHash);\\n    event VoteRevealed...\n      PUSH [tag] 1249\t\t\tindexed voter, bool support, u...\n      PUSH 20\t\t\t56\n      DUP5 \t\t\tport, uin\n      ADD \t\t\t support, uint256 \n      PUSH [tag] 1182\t\t\tindexed voter, bool support, u...\n      JUMP \t\t\tindexed voter, bool support, u...\n    tag 1249\t\t\tindexed voter, bool support, u...\n      JUMPDEST \t\t\tindexed voter, bool support, u...\n      SWAP1 \t\t\t, address indexed voter, bool ...\n      POP \t\t\t, address indexed voter, bool ...\n      SWAP3 \t\t\td, address indexed proposer, s...\n      POP \t\t\td, address indexed proposer, s...\n      SWAP3 \t\t\td, address indexed proposer, s...\n      SWAP1 \t\t\td, address indexed proposer, s...\n      POP \t\t\td, address indexed proposer, s...\n      JUMP \t\t\td, address indexed proposer, s...\n    tag 623\t\t\t event ProposalWasExecuted(uin...\n      JUMPDEST \t\t\t event ProposalWasExecuted(uin...\n      PUSH 4E487B71\t\t\tled(uint25\n      PUSH E0\t\t\talF\n      SHL \t\t\toposalFailed(uint256\n      PUSH 0\t\t\t \n      MSTORE \t\t\t  event ProposalFailed(uint256...\n      PUSH 41\t\t\treas\n      PUSH 4\t\t\tn\n      MSTORE \t\t\td, string reaso\n      PUSH 24\t\t\tmUpd\n      PUSH 0\t\t\to\n      REVERT \t\t\tvent QuorumUpda\n    tag 1186\t\t\t newQuorum);\\n    event VoteTh...\n      JUMPDEST \t\t\t newQuorum);\\n    event VoteTh...\n      DUP1 \t\t\teserveUnlocked(uint2\n      CALLDATALOAD \t\t\teserveUnlocked(uint2\n      PUSH C\t\t\tal\n      DUP2 \t\t\tremainingBala\n      LT \t\t\tremainingBala\n      PUSH [tag] 1193\t\t\t, uint256 remainingBalance);\\n...\n      JUMPI \t\t\t, uint256 remainingBalance);\\n...\n      PUSH 0\t\t\tt\n      DUP1 \t\t\tv\n      REVERT \t\t\t;\\n    event \n    tag 402\t\t\tUpdated(uint256 newValue);\\n  ...\n      JUMPDEST \t\t\tUpdated(uint256 newValue);\\n  ...\n      PUSH 0\t\t\turityU\n      DUP1 \t\t\tated(a\n      PUSH 0\t\t\tress i\n      DUP1 \t\t\texed u\n      PUSH 80\t\t\tddr\n      DUP6 \t\t\transferre\n      DUP8 \t\t\tent BL2\n      SUB \t\t\t  event BL2PTransferred\n      SLT \t\t\t;\\n    event BL2PTransferred(a...\n      ISZERO \t\t\ted);\\n    event BL2PTransferre...\n      PUSH [tag] 1254\t\t\ted);\\n    event BL2PTransferre...\n      JUMPI \t\t\ted);\\n    event BL2PTransferre...\n      PUSH 0\t\t\to\n      DUP1 \t\t\t \n      REVERT \t\t\tindexed from\n    tag 1254\t\t\ted);\\n    event BL2PTransferre...\n      JUMPDEST \t\t\ted);\\n    event BL2PTransferre...\n      DUP5 \t\t\t\\n    even\n      CALLDATALOAD \t\t\tt256 amount);\\n    event\n      PUSH FFFFFFFFFFFFFFFF\t\t\tess indexed delega\n      DUP1 \t\t\tle\n      DUP3 \t\t\tdexed \n      GT \t\t\t indexed deleg\n      ISZERO \t\t\tess indexed delegate, uint256 ...\n      PUSH [tag] 1255\t\t\tess indexed delegate, uint256 ...\n      JUMPI \t\t\tess indexed delegate, uint256 ...\n      PUSH 0\t\t\ta\n      DUP1 \t\t\t5\n      REVERT \t\t\t, uint256 am\n    tag 1255\t\t\tess indexed delegate, uint256 ...\n      JUMPDEST \t\t\tess indexed delegate, uint256 ...\n      DUP2 \t\t\tddress\n      DUP8 \t\t\tonRevoked\n      ADD \t\t\tgationRevoked(address \n      SWAP2 \t\t\tevent DelegationRevoked(addres...\n      POP \t\t\tevent DelegationRevoked(addres...\n      DUP8 \t\t\tBL2PBur\n      PUSH 1F\t\t\tnact\n      DUP4 \t\t\tnt\n      ADD \t\t\t event Inacti\n      SLT \t\t\t\\n    event InactiveBL2PBurn\n      PUSH [tag] 1256\t\t\telegator);\\n    event Inactive...\n      JUMPI \t\t\telegator);\\n    event Inactive...\n      PUSH 0\t\t\te\n      DUP1 \t\t\ti\n      REVERT \t\t\tddress index\n    tag 1256\t\t\telegator);\\n    event Inactive...\n      JUMPDEST \t\t\telegator);\\n    event Inactive...\n      DUP2 \t\t\tt \n      CALLDATALOAD \t\t\tnt);\\n    event G\n      DUP2 \t\t\tda\n      DUP2 \t\t\tct\n      GT \t\t\ttractUpdat\n      ISZERO \t\t\tContractUpdated(address indexe...\n      PUSH [tag] 1258\t\t\tContractUpdated(address indexe...\n      JUMPI \t\t\tContractUpdated(address indexe...\n      PUSH [tag] 1258\t\t\taddress indexed ne\n      PUSH [tag] 623\t\t\taddress indexed ne\n      JUMP \t\t\taddress indexed ne\n    tag 1258\t\t\taddress indexed ne\n      JUMPDEST \t\t\taddress indexed ne\n      PUSH 40\t\t\ted\n      MLOAD \t\t\t indexed \n      PUSH 1F\t\t\tam\n      DUP3 \t\t\t;\\n    event I\n      ADD \t\t\t;\\n    event I\n      PUSH 1F\t\t\t\n      NOT \t\t\t\n      SWAP1 \t\t\tess);\\n    event Igniti\n      DUP2 \t\t\tess);\\n    event Igniti\n      AND \t\t\tess);\\n    event Igniti\n      PUSH 3F\t\t\tRe\n      ADD \t\t\tAddress);\\n    event IgnitionR...\n      AND \t\t\t newAddress);\\n    event Ignit...\n      DUP2 \t\t\tlue, address newAddress);\\n   ...\n      ADD \t\t\tlue, address newAddress);\\n   ...\n      SWAP1 \t\t\tlue, address newAddress);\\n   ...\n      DUP4 \t\t\td(bool indexed isO\n      DUP3 \t\t\td(bool indexed isO\n      GT \t\t\td(bool indexed isO\n      DUP2 \t\t\tn);\\n    event Ignition\n      DUP4 \t\t\tn);\\n    event Ignition\n      LT \t\t\tn);\\n    event Ignition\n      OR \t\t\tnged(bool indexed isOpen);\\n  ...\n      ISZERO \t\t\tChanged(bool indexed isOpen);\\...\n      PUSH [tag] 1260\t\t\tChanged(bool indexed isOpen);\\...\n      JUMPI \t\t\tChanged(bool indexed isOpen);\\...\n      PUSH [tag] 1260\t\t\ticipantRegistered(\n      PUSH [tag] 623\t\t\ticipantRegistered(\n      JUMP \t\t\ticipantRegistered(\n    tag 1260\t\t\ticipantRegistered(\n      JUMPDEST \t\t\ticipantRegistered(\n      DUP2 \t\t\tipant, uin\n      PUSH 40\t\t\trt\n      MSTORE \t\t\texed participant, uint\n      DUP3 \t\t\t  \n      DUP2 \t\t\tumber)\n      MSTORE \t\t\tcipantNumber);\\n   \n      DUP11 \t\t\t indexe\n      PUSH 20\t\t\tuint\n      DUP5 \t\t\ter\n      DUP8 \t\t\tri\n      ADD \t\t\tropTriggere\n      ADD \t\t\tAirdropTriggered(uint2\n      GT \t\t\tionAirdropTriggered(uint256 in...\n      ISZERO \t\t\tnitionAirdropTriggered(uint256...\n      PUSH [tag] 1261\t\t\tnitionAirdropTriggered(uint256...\n      JUMPI \t\t\tnitionAirdropTriggered(uint256...\n      PUSH 0\t\t\ti\n      DUP1 \t\t\t,\n      REVERT \t\t\tmestamp, uin\n    tag 1261\t\t\tnitionAirdropTriggered(uint256...\n      JUMPDEST \t\t\tnitionAirdropTriggered(uint256...\n      DUP3 \t\t\tad\n      PUSH 20\t\t\tlaim\n      DUP7 \t\t\tro\n      ADD \t\t\tAirdropClaime\n      PUSH 20\t\t\tgnit\n      DUP4 \t\t\t event\n      ADD \t\t\t\\n    event Igniti\n      CALLDATACOPY \t\t\tarticipants);\\n    event Ignit...\n      PUSH 0\t\t\t \n      PUSH 20\t\t\tunt)\n      DUP5 \t\t\t6 \n      DUP4 \t\t\t, uint\n      ADD \t\t\tpant, uint256 a\n      ADD \t\t\tticipant, uint256 amount);\n      MSTORE \t\t\txed participant, uint256 amoun...\n      DUP1 \t\t\tss ini\n      SWAP9 \t\t\tctor(address ini\n      POP \t\t\tctor(address ini\n      POP \t\t\tctor(address ini\n      POP \t\t\tctor(address ini\n      POP \t\t\tctor(address ini\n      POP \t\t\tctor(address ini\n      POP \t\t\tctor(address ini\n      PUSH 20\t\t\tialO\n      DUP6 \t\t\twnable(in\n      ADD \t\t\t\") Ownable(initialOw\n      CALLDATALOAD \t\t\tAAMS\", \"TAAMS\") Ownable(initia...\n      SWAP3 \t\t\t) ERC20(\"TAAMS\", \"TAAMS\") Owna...\n      POP \t\t\t) ERC20(\"TAAMS\", \"TAAMS\") Owna...\n      PUSH [tag] 1262\t\t\tss initialRecipient = 0x94f7a6...\n      PUSH 40\t\t\t18\n      DUP7 \t\t\tx94f7a6FD\n      ADD \t\t\t = 0x94f7a6FD45185\n      PUSH [tag] 1182\t\t\tss initialRecipient = 0x94f7a6...\n      JUMP \t\t\tss initialRecipient = 0x94f7a6...\n    tag 1262\t\t\tss initialRecipient = 0x94f7a6...\n      JUMPDEST \t\t\tss initialRecipient = 0x94f7a6...\n      SWAP2 \t\t\t     address initialRecipient ...\n      POP \t\t\t     address initialRecipient ...\n      PUSH [tag] 1263\t\t\tB806Ffe;\\n        address depl...\n      PUSH 60\t\t\t 0\n      DUP7 \t\t\tRecipient\n      ADD \t\t\toyerRecipient = 0x\n      PUSH [tag] 1186\t\t\tB806Ffe;\\n        address depl...\n      JUMP \t\t\tB806Ffe;\\n        address depl...\n    tag 1263\t\t\tB806Ffe;\\n        address depl...\n      JUMPDEST \t\t\tB806Ffe;\\n        address depl...\n      SWAP1 \t\t\t43C6707ddAB806Ffe;\\n        ad...\n      POP \t\t\t43C6707ddAB806Ffe;\\n        ad...\n      SWAP3 \t\t\tUpdated(uint256 newValue);\\n  ...\n      SWAP6 \t\t\tUpdated(uint256 newValue);\\n  ...\n      SWAP2 \t\t\tUpdated(uint256 newValue);\\n  ...\n      SWAP5 \t\t\tUpdated(uint256 newValue);\\n  ...\n      POP \t\t\tUpdated(uint256 newValue);\\n  ...\n      SWAP3 \t\t\tUpdated(uint256 newValue);\\n  ...\n      POP \t\t\tUpdated(uint256 newValue);\\n  ...\n      JUMP \t\t\tUpdated(uint256 newValue);\\n  ...\n    tag 413\t\t\t80b0682a780c8531178ddd99F546;\\...\n      JUMPDEST \t\t\t80b0682a780c8531178ddd99F546;\\...\n      PUSH 0\t\t\ts(0)) \n      DUP1 \t\t\tvert I\n      PUSH 40\t\t\tt \n      DUP4 \t\t\toyerRecip\n      DUP6 \t\t\t if (de\n      SUB \t\t\t     if (deployerRecipi\n      SLT \t\t\t\\n        if (deployerRecipien...\n      ISZERO \t\t\t();\\n        if (deployerRecip...\n      PUSH [tag] 1265\t\t\t();\\n        if (deployerRecip...\n      JUMPI \t\t\t();\\n        if (deployerRecip...\n      PUSH 0\t\t\t \n      DUP1 \t\t\t0\n      REVERT \t\t\tddress(0)) r\n    tag 1265\t\t\t();\\n        if (deployerRecip...\n      JUMPDEST \t\t\t();\\n        if (deployerRecip...\n      DUP3 \t\t\tuint256 C\n      CALLDATALOAD \t\t\tt();\\n        uint256 CO\n      SWAP2 \t\t\tidRecipient();\\n        uint25...\n      POP \t\t\tidRecipient();\\n        uint25...\n      PUSH [tag] 1249\t\t\t000_000_000 * 1e18;\\n        u...\n      PUSH 20\t\t\t6 \n      DUP5 \t\t\t     uint\n      ADD \t\t\t\\n        uint256 D\n      PUSH [tag] 1182\t\t\t000_000_000 * 1e18;\\n        u...\n      JUMP \t\t\t000_000_000 * 1e18;\\n        u...\n    tag 418\t\t\tNT = 1_000_000_000 * 1e18;\\n  ...\n      JUMPDEST \t\t\tNT = 1_000_000_000 * 1e18;\\n  ...\n      PUSH 0\t\t\t0 * 1e\n      DUP1 \t\t\t;\\n    \n      PUSH 0\t\t\t  _min\n      PUSH 60\t\t\tnt\n      DUP5 \t\t\t\\n        \n      DUP7 \t\t\tRESERVE\n      SUB \t\t\tACT_RESERVE);\\n        _\n      SLT \t\t\tONTRACT_RESERVE);\\n        _mi...\n      ISZERO \t\t\t, CONTRACT_RESERVE);\\n        ...\n      PUSH [tag] 1268\t\t\t, CONTRACT_RESERVE);\\n        ...\n      JUMPI \t\t\t, CONTRACT_RESERVE);\\n        ...\n      PUSH 0\t\t\ti\n      DUP1 \t\t\tc\n      REVERT \t\t\tloyerRecipie\n    tag 1268\t\t\t, CONTRACT_RESERVE);\\n        ...\n      JUMPDEST \t\t\t, CONTRACT_RESERVE);\\n        ...\n      DUP4 \t\t\tt(initial\n      CALLDATALOAD \t\t\t\\n        _mint(initialR\n      SWAP3 \t\t\tR_AMOUNT);\\n        _mint(init...\n      POP \t\t\tR_AMOUNT);\\n        _mint(init...\n      PUSH [tag] 1220\t\t\t_AMOUNT);\\n        lastAdverti...\n      PUSH 20\t\t\tme\n      DUP6 \t\t\tstAdverti\n      ADD \t\t\t  lastAdvertisemen\n      PUSH [tag] 1185\t\t\t_AMOUNT);\\n        lastAdverti...\n      JUMP \t\t\t_AMOUNT);\\n        lastAdverti...\n    tag 426\t\t\tnceContract == address(0)) rev...\n      JUMPDEST \t\t\tnceContract == address(0)) rev...\n      PUSH 1\t\t\ti\n      DUP2 \t\t\ts(this)).saf\n      DUP2 \t\t\ts(this)).saf\n      SHR \t\t\ts(this)).saf\n      SWAP1 \t\t\ts(this)).saf\n      DUP3 \t\t\t00_000 * 1e1\n      AND \t\t\t00_000 * 1e1\n      DUP1 \t\t\t00_000 * 1e1\n      PUSH [tag] 1272\t\t\t   lockedReserveBalance -= 1_0...\n      JUMPI \t\t\t   lockedReserveBalance -= 1_0...\n      PUSH 7F\t\t\t   _\n      DUP3 \t\t\t8;\\n   \n      AND \t\t\t 1e18;\\n        _t\n      SWAP2 \t\t\t_000_000 * 1e18;\\n        _t\n      POP \t\t\t_000_000 * 1e18;\\n        _t\n    tag 1272\t\t\t   lockedReserveBalance -= 1_0...\n      JUMPDEST \t\t\t   lockedReserveBalance -= 1_0...\n      PUSH 20\t\t\tve\n      DUP3 \t\t\tit Res\n      LT \t\t\t emit ReserveU\n      DUP2 \t\t\taddress(0));\\n     \n      SUB \t\t\tip(address(0));\\n        emit ...\n      PUSH [tag] 1273\t\t\trship(address(0));\\n        em...\n      JUMPI \t\t\trship(address(0));\\n        em...\n      PUSH 4E487B71\t\t\tress(this)\n      PUSH E0\t\t\tf(a\n      SHL \t\t\tnceOf(address(this))\n      PUSH 0\t\t\ta\n      MSTORE \t\t\t1e18, balanceOf(address(this))...\n      PUSH 22\t\t\theck\n      PUSH 4\t\t\tn\n      MSTORE \t\t\tfunction checkA\n      PUSH 24\t\t\tNotP\n      PUSH 0\t\t\th\n      REVERT \t\t\tublic whenNotPa\n    tag 1273\t\t\trship(address(0));\\n        em...\n      JUMPDEST \t\t\trship(address(0));\\n        em...\n      POP \t\t\trship(address(0));\\n        em...\n      SWAP2 \t\t\tnceContract == address(0)) rev...\n      SWAP1 \t\t\tnceContract == address(0)) rev...\n      POP \t\t\tnceContract == address(0)) rev...\n      JUMP \t\t\tnceContract == address(0)) rev...\n    tag 1187\t\t\trnPhaseActive) return;\\n      ...\n      JUMPDEST \t\t\trnPhaseActive) return;\\n      ...\n      PUSH 4E487B71\t\t\tply() - ba\n      PUSH E0\t\t\talS\n      SHL \t\t\t totalSupply() - bal\n      PUSH 0\t\t\tg\n      MSTORE \t\t\tculating = totalSupply() - bal...\n      PUSH 11\t\t\t loc\n      PUSH 4\t\t\t)\n      MSTORE \t\t\tress(0)) - lock\n      PUSH 24\t\t\t    \n      PUSH 0\t\t\t;\n      REVERT \t\t\tBalance;\\n      \n    tag 452\t\t\tlating >= ACTIVATION_THRESHOLD...\n      JUMPDEST \t\t\tlating >= ACTIVATION_THRESHOLD...\n      DUP1 \t\t\true;\\n    \n      DUP3 \t\t\true;\\n    \n      ADD \t\t\true;\\n    \n      DUP1 \t\t\t BurnPhase\n      DUP3 \t\t\t BurnPhase\n      GT \t\t\t BurnPhase\n      ISZERO \t\t\tmit BurnPhaseActivated(block.t...\n      PUSH [tag] 437\t\t\tmit BurnPhaseActivated(block.t...\n      JUMPI \t\t\tmit BurnPhaseActivated(block.t...\n      PUSH [tag] 437\t\t\tivated(block.times\n      PUSH [tag] 1187\t\t\tivated(block.times\n      JUMP \t\t\tivated(block.times\n    tag 458\t\t\tansferFrom(address sender, add...\n      JUMPDEST \t\t\tansferFrom(address sender, add...\n      DUP1 \t\t\tride when\n      DUP3 \t\t\tride when\n      MUL \t\t\tride when\n      DUP2 \t\t\tl) {\\n    \n      ISZERO \t\t\tl) {\\n    \n      DUP3 \t\t\tsender == addre\n      DUP3 \t\t\tsender == addre\n      DIV \t\t\tsender == addre\n      DUP5 \t\t\t  if (sender == addres\n      EQ \t\t\t  if (sender == addres\n      OR \t\t\tbool) {\\n        if (sender ==...\n      PUSH [tag] 437\t\t\t returns (bool) {\\n        if ...\n      JUMPI \t\t\t returns (bool) {\\n        if ...\n      PUSH [tag] 437\t\t\t|| recipient == ad\n      PUSH [tag] 1187\t\t\t|| recipient == ad\n      JUMP \t\t\t|| recipient == ad\n    tag 460\t\t\tert InvalidAddress();\\n       ...\n      JUMPDEST \t\t\tert InvalidAddress();\\n       ...\n      PUSH 0\t\t\ts\n      DUP3 \t\t\tn\n      PUSH [tag] 1283\t\t\tferFrom(sender, recipient, amo...\n      JUMPI \t\t\tferFrom(sender, recipient, amo...\n      PUSH 4E487B71\t\t\ts && !burn\n      PUSH E0\t\t\tucc\n      SHL \t\t\tf (success && !burnP\n      PUSH 0\t\t\t \n      MSTORE \t\t\t\\n        if (success && !burn...\n      PUSH 12\t\t\tion(\n      PUSH 4\t\t\tv\n      MSTORE \t\t\teckActivation()\n      PUSH 24\t\t\ts;\\n \n      PUSH 0\t\t\tc\n      REVERT \t\t\turn success;\\n  \n    tag 1283\t\t\tferFrom(sender, recipient, amo...\n      JUMPDEST \t\t\tferFrom(sender, recipient, amo...\n      POP \t\t\t\n      DIV \t\t\tipateInBu\n      SWAP1 \t\t\tipateInBu\n      JUMP \t\t\tert InvalidAddress();\\n       ...\n    tag 477\t\t\t        lastBurnCycleStartTime...\n      JUMPDEST \t\t\t        lastBurnCycleStartTime...\n      DUP2 \t\t\tburnDeadl\n      DUP2 \t\t\tburnDeadl\n      SUB \t\t\tburnDeadl\n      DUP2 \t\t\t = block.ti\n      DUP2 \t\t\t = block.ti\n      GT \t\t\t = block.ti\n      ISZERO \t\t\tamp = block.timestamp + BURN_C...\n      PUSH [tag] 437\t\t\tamp = block.timestamp + BURN_C...\n      JUMPI \t\t\tamp = block.timestamp + BURN_C...\n      PUSH [tag] 437\t\t\ttamp + BURN_CYCLE_\n      PUSH [tag] 1187\t\t\ttamp + BURN_CYCLE_\n      JUMP \t\t\ttamp + BURN_CYCLE_\n    tag 493\t\t\t + ANNUAL_BURN_AMOUNT > BURN_T...\n      JUMPDEST \t\t\t + ANNUAL_BURN_AMOUNT > BURN_T...\n      PUSH 0\t\t\t + a\n      PUSH 20\t\t\tcl\n      DUP1 \t\t\tle\n      DUP4 \t\t\trentBurnC\n      MSTORE \t\t\ttal[currentBurnCycle]\n      PUSH 0\t\t\tg\n      DUP5 \t\t\t      \n      SLOAD \t\t\tet();\\n       \n      PUSH [tag] 1290\t\t\ttRemainingValidBL2P(msg.sender...\n      DUP2 \t\t\tnder) != \n      PUSH [tag] 426\t\t\ttRemainingValidBL2P(msg.sender...\n      JUMP \t\t\ttRemainingValidBL2P(msg.sender...\n    tag 1290\t\t\ttRemainingValidBL2P(msg.sender...\n      JUMPDEST \t\t\ttRemainingValidBL2P(msg.sender...\n      DUP1 \t\t\tburn(m\n      DUP5 \t\t\t  \n      DUP8 \t\t\t0 : 0;\\n  \n      ADD \t\t\t/ 100 : 0;\\n       \n      MSTORE \t\t\tt * 5) / 100 : 0;\\n        _bu...\n      PUSH 40\t\t\t  \n      PUSH 1\t\t\t=\n      DUP1 \t\t\tal\n      DUP5 \t\t\tleBurnedT\n      AND \t\t\t cycleBurnedTotal[\n      PUSH 0\t\t\tl\n      DUP2 \t\t\trnCycle] += amount;\\n        b...\n      EQ \t\t\trnCycle] += amount;\\n        b...\n      PUSH [tag] 1292\t\t\trnCycle] += amount;\\n        b...\n      JUMPI \t\t\trnCycle] += amount;\\n        b...\n      PUSH 1\t\t\t \n      DUP2 \t\t\t            totalBurned += bl2...\n      EQ \t\t\t            totalBurned += bl2...\n      PUSH [tag] 1293\t\t\t            totalBurned += bl2...\n      JUMPI \t\t\t            totalBurned += bl2...\n      PUSH [tag] 1291\t\t\t        cycleBurnedTotal[curre...\n      JUMP \t\t\t        cycleBurnedTotal[curre...\n    tag 1292\t\t\trnCycle] += amount;\\n        b...\n      JUMPDEST \t\t\trnCycle] += amount;\\n        b...\n      PUSH FF\t\t\t\n      NOT \t\t\t\n      DUP6 \t\t\trrentBurnCycle][msg.send\n      AND \t\t\trrentBurnCycle][msg.send\n      DUP10 \t\t\tburnContributions[\n      DUP5 \t\t\tburnContributions[\n      ADD \t\t\tburnContributions[\n      MSTORE \t\t\t       burnContributions[curre...\n      DUP4 \t\t\t+= amount;\\n   \n      ISZERO \t\t\t+= amount;\\n   \n      ISZERO \t\t\tender] += amount;\\n    \n      PUSH 5\t\t\tg\n      SHL \t\t\ts[msg.sender] += amount;\\n    ...\n      DUP10 \t\t\ttalContributions[msg.sender] +...\n      ADD \t\t\ttalContributions[msg.sender] +...\n      DUP4 \t\t\t  totalContributions[msg.sende...\n      ADD \t\t\t  totalContributions[msg.sende...\n      SWAP6 \t\t\t  totalContributions[msg.sende...\n      POP \t\t\t\n      PUSH [tag] 1291\t\t\trnCycle] += amount;\\n        b...\n      JUMP \t\t\trnCycle] += amount;\\n        b...\n    tag 1293\t\t\t            totalBurned += bl2...\n      JUMPDEST \t\t\t            totalBurned += bl2...\n      DUP10 \t\t\tBonus;\n      PUSH 0\t\t\tl\n      MSTORE \t\t\ted += bl2pBonus;\\n\n      DUP7 \t\t\tyc\n      PUSH 0\t\t\tr\n      KECCAK256 \t\t\t[currentBurnCycl\n      PUSH 0\t\t\t \n    tag 1294\t\t\tntributions[msg.sender] += bl2...\n      JUMPDEST \t\t\tntributions[msg.sender] += bl2...\n      DUP6 \t\t\tg.send\n      DUP2 \t\t\t[\n      LT \t\t\tons[msg.sende\n      ISZERO \t\t\tntributions[msg.sender] += bl2...\n      PUSH [tag] 1296\t\t\tntributions[msg.sender] += bl2...\n      JUMPI \t\t\tntributions[msg.sender] += bl2...\n      DUP2 \t\t\tcle);\\n        \n      SLOAD \t\t\tcle);\\n        \n      DUP12 \t\t\tbl2pBonus, curren\n      DUP3 \t\t\tbl2pBonus, curren\n      ADD \t\t\tbl2pBonus, curren\n      DUP7 \t\t\ter, bl2pBonus, currentBurn\n      ADD \t\t\ter, bl2pBonus, currentBurn\n      MSTORE \t\t\tsg.sender, bl2pBonus, currentB...\n      SWAP1 \t\t\tsg.sender, amoun\n      DUP4 \t\t\tsg.sender, amoun\n      ADD \t\t\tsg.sender, amoun\n      SWAP1 \t\t\tsg.sender, amoun\n      DUP9 \t\t\t2pBonus;\\n \n      ADD \t\t\t2pBonus;\\n \n      PUSH [tag] 1294\t\t\tntributions[msg.sender] += bl2...\n      JUMP \t\t\tntributions[msg.sender] += bl2...\n    tag 1296\t\t\tntributions[msg.sender] += bl2...\n      JUMPDEST \t\t\tntributions[msg.sender] += bl2...\n      DUP11 \t\t\tnCycle);\\n        \n      ADD \t\t\tnCycle);\\n        \n      DUP5 \t\t\ttBurnCycle);\\n        if (t\n      ADD \t\t\ttBurnCycle);\\n        if (t\n      SWAP7 \t\t\ttBurnCycle);\\n        if (t\n      POP \t\t\t\n      POP \t\t\t\n    tag 1291\t\t\t        cycleBurnedTotal[curre...\n      JUMPDEST \t\t\t        cycleBurnedTotal[curre...\n      POP \t\t\t\n      SWAP4 \t\t\t& !\n      SWAP9 \t\t\t& !\n      SWAP8 \t\t\t + ANNUAL_BURN_AMOUNT > BURN_T...\n      POP \t\t\t\n      POP \t\t\t\n      POP \t\t\t\n      POP \t\t\t\n      POP \t\t\t\n      POP \t\t\t\n      POP \t\t\t\n      POP \t\t\t\n      JUMP \t\t\t + ANNUAL_BURN_AMOUNT > BURN_T...\n    tag 528\t\t\td) {\\n            bl2pRevealed...\n      JUMPDEST \t\t\td) {\\n            bl2pRevealed...\n      PUSH 20\t\t\tde\n      DUP1 \t\t\tBL2PReward(msg.sender\n      DUP3 \t\t\tBL2PReward(msg.sender\n      MSTORE \t\t\tBL2PReward(msg.sender\n      PUSH 15\t\t\tar\n      SWAP1 \t\t\tnction _claimBL2PR\n      DUP3 \t\t\tnction _claimBL2PR\n      ADD \t\t\tnction _claimBL2PR\n      MSTORE \t\t\t\\n    function _claimBL2PRewar...\n      PUSH 10DBDB9D1C9858DD1CC81B9BDD08185B1B1BDDD959\t\t\t\n      PUSH 5A\t\t\t\n      SHL \t\t\t\n      PUSH 40\t\t\t  \n      DUP3 \t\t\tnternal {\\n        \n      ADD \t\t\tnternal {\\n        \n      MSTORE \t\t\tuser) internal {\\n        if (...\n      PUSH 60\t\t\tbu\n      ADD \t\t\t || totalContribut\n      SWAP1 \t\t\t || totalContribut\n      JUMP \t\t\td) {\\n            bl2pRevealed...\n    tag 630\t\t\t== 0) revert InvalidClaimCondi...\n      JUMPDEST \t\t\t== 0) revert InvalidClaimCondi...\n      PUSH 4E487B71\t\t\td > BURN_T\n      PUSH E0\t\t\tBur\n      SHL \t\t\totalBurned > BURN_TA\n      PUSH 0\t\t\t \n      MSTORE \t\t\t     if (totalBurned > BURN_TA...\n      PUSH 32\t\t\tBurn\n      PUSH 4\t\t\te\n      MSTORE \t\t\trt ExceedsBurnT\n      PUSH 24\t\t\tnt25\n      PUSH 0\t\t\t \n      REVERT \t\t\t        uint256\n    tag 642\t\t\ttotalContributions[user] * BL2...\n      JUMPDEST \t\t\ttotalContributions[user] * BL2...\n      PUSH 0\t\t\tPLY\n      PUSH 1\t\t\t       if (earlyA\n      DUP3 \t\t\t       if (earlyA\n      ADD \t\t\t       if (earlyA\n      PUSH [tag] 1301\t\t\t;\\n        if (earlyAdopterCou...\n      JUMPI \t\t\t;\\n        if (earlyAdopterCou...\n      PUSH [tag] 1301\t\t\tterCount < EARLY_A\n      PUSH [tag] 1187\t\t\tterCount < EARLY_A\n      JUMP \t\t\tterCount < EARLY_A\n    tag 1301\t\t\tterCount < EARLY_A\n      JUMPDEST \t\t\tterCount < EARLY_A\n      POP \t\t\t\n      PUSH 1\t\t\te\n      ADD \t\t\t          rew\n      SWAP1 \t\t\t          rew\n      JUMP \t\t\ttotalContributions[user] * BL2...\n    tag 655\t\t\tard * EARLY_ADOPTER_BONUS_RATE...\n      JUMPDEST \t\t\tard * EARLY_ADOPTER_BONUS_RATE...\n      PUSH 0\t\t\t   \n      DUP2 \t\t\t0))\n      DUP5 \t\t\trd * R\n      DUP3 \t\t\t   \n    tag 1303\t\t\t           _mint(referrer, ref...\n      JUMPDEST \t\t\t           _mint(referrer, ref...\n      DUP6 \t\t\tnt(ref\n      DUP2 \t\t\t_\n      LT \t\t\t   _mint(refe\n      ISZERO \t\t\t           _mint(referrer, ref...\n      PUSH [tag] 1305\t\t\t           _mint(referrer, ref...\n      JUMPI \t\t\t           _mint(referrer, ref...\n      PUSH 1\t\t\t\n      PUSH 1\t\t\t\n      PUSH A0\t\t\t\n      SHL \t\t\t\n      SUB \t\t\t\n      PUSH [tag] 1306\t\t\terrer, referralBonus);\\n   \n      DUP4 \t\t\ts);\\n  \n      PUSH [tag] 1182\t\t\terrer, referralBonus);\\n   \n      JUMP \t\t\terrer, referralBonus);\\n   \n    tag 1306\t\t\terrer, referralBonus);\\n   \n      JUMPDEST \t\t\terrer, referralBonus);\\n   \n      AND \t\t\t(referrer, referralBonus);\\n  ...\n      DUP4 \t\t\terralBonusPaid(referrer, refer...\n      MSTORE \t\t\terralBonusPaid(referrer, refer...\n      PUSH 20\t\t\t    \n      SWAP3 \t\t\t        emit B\n      DUP4 \t\t\t        emit B\n      ADD \t\t\t        emit B\n      SWAP3 \t\t\t        emit B\n      SWAP2 \t\t\treward);\\n    }\\n\n      SWAP1 \t\t\treward);\\n    }\\n\n      SWAP2 \t\t\treward);\\n    }\\n\n      ADD \t\t\treward);\\n    }\\n\n      SWAP1 \t\t\treward);\\n    }\\n\n      PUSH 1\t\t\to\n      ADD \t\t\tferralBon\n      PUSH [tag] 1303\t\t\t           _mint(referrer, ref...\n      JUMP \t\t\t           _mint(referrer, ref...\n    tag 1305\t\t\t           _mint(referrer, ref...\n      JUMPDEST \t\t\t           _mint(referrer, ref...\n      POP \t\t\t\n      SWAP1 \t\t\t2PRew\n      SWAP6 \t\t\t2PRew\n      SWAP5 \t\t\tard * EARLY_ADOPTER_BONUS_RATE...\n      POP \t\t\t\n      POP \t\t\t\n      POP \t\t\t\n      POP \t\t\t\n      POP \t\t\t\n      JUMP \t\t\tard * EARLY_ADOPTER_BONUS_RATE...\n    tag 657\t\t\t[] calldata users) external no...\n      JUMPDEST \t\t\t[] calldata users) external no...\n      PUSH 20\t\t\t r\n      DUP1 \t\t\tyAdopterCount = early\n      DUP3 \t\t\tyAdopterCount = early\n      MSTORE \t\t\tyAdopterCount = early\n      DUP3 \t\t\t; ++i) {\\n    \n      MLOAD \t\t\t; ++i) {\\n    \n      DUP3 \t\t\tlen);\\n        uint\n      DUP3 \t\t\tlen);\\n        uint\n      ADD \t\t\tlen);\\n        uint\n      DUP2 \t\t\tddress user = users[i]\n      SWAP1 \t\t\tddress user = users[i]\n      MSTORE \t\t\tddress user = users[i]\n      PUSH 0\t\t\tgth;\n      SWAP2 \t\t\tgth;\n      SWAP1 \t\t\t r\n      DUP5 \t\t\tss();\\n         \n      DUP3 \t\t\tss();\\n         \n      ADD \t\t\tss();\\n         \n      SWAP1 \t\t\tss();\\n         \n      PUSH 40\t\t\tss\n      DUP6 \t\t\t (user == address(\n      ADD \t\t\t (user == address(\n      SWAP1 \t\t\t (user == address(\n      DUP5 \t\t\tgth;\n    tag 1308\t\t\t0 && totalContributions[user] ...\n      JUMPDEST \t\t\t0 && totalContributions[user] ...\n      DUP2 \t\t\tributi\n      DUP2 \t\t\to\n      LT \t\t\talContributio\n      ISZERO \t\t\t0 && totalContributions[user] ...\n      PUSH [tag] 1238\t\t\t0 && totalContributions[user] ...\n      JUMPI \t\t\t0 && totalContributions[user] ...\n      DUP4 \t\t\talContributio\n      MLOAD \t\t\talContributio\n      DUP4 \t\t\teward = (totalContribution\n      MSTORE \t\t\teward = (totalContribution\n      SWAP3 \t\t\t   if (_earlyAd\n      DUP5 \t\t\t   if (_earlyAd\n      ADD \t\t\t   if (_earlyAd\n      SWAP3 \t\t\t   if (_earlyAd\n      SWAP2 \t\t\tUPPLY) / BUR\n      DUP5 \t\t\tUPPLY) / BUR\n      ADD \t\t\tUPPLY) / BUR\n      SWAP2 \t\t\tUPPLY) / BUR\n      PUSH 1\t\t\t{\n      ADD \t\t\t != 0) {\\n\n      PUSH [tag] 1308\t\t\t0 && totalContributions[user] ...\n      JUMP \t\t\t0 && totalContributions[user] ...\n    tag 1189\t\t\trns (uint256) {\\n        if (!...\n      JUMPDEST \t\t\trns (uint256) {\\n        if (!...\n      PUSH 1F\t\t\tcy\n      DUP3 \t\t\tt25\n      GT \t\t\tuint256 cyc\n      ISZERO \t\t\t   uint256 cycleTarget = total...\n      PUSH [tag] 992\t\t\t   uint256 cycleTarget = total...\n      JUMPI \t\t\t   uint256 cycleTarget = total...\n      PUSH 0\t\t\tU\n      DUP2 \t\t\t? BUR\n      DUP2 \t\t\tGE\n      MSTORE \t\t\tURN_TARGET ? BURN\n      PUSH 20\t\t\tUNT;\n      DUP2 \t\t\t_A\n      KECCAK256 \t\t\tNNUAL_BURN_AMOUNT;\\n\n      PUSH 1F\t\t\t\\n \n      DUP6 \t\t\ttBurnCycle\n      ADD \t\t\trrentBurnCycle];\\n  \n      PUSH 5\t\t\t[\n      SHR \t\t\total[currentBurnCycle];\\n   \n      DUP2 \t\t\turne\n      ADD \t\t\tcleBurnedTotal[currentBurnCycl...\n      PUSH 20\t\t\tTarg\n      DUP7 \t\t\tned >= cyc\n      LT \t\t\tBurned >= cycleTarge\n      ISZERO \t\t\tcleBurned >= cycleTarget ? 0 :...\n      PUSH [tag] 1316\t\t\tcleBurned >= cycleTarget ? 0 :...\n      JUMPI \t\t\tcleBurned >= cycleTarget ? 0 :...\n      POP \t\t\t\n      DUP1 \t\t\tt - \n    tag 1316\t\t\tcleBurned >= cycleTarget ? 0 :...\n      JUMPDEST \t\t\tcleBurned >= cycleTarget ? 0 :...\n      PUSH 1F\t\t\tnt\n      DUP6 \t\t\t am\n      ADD \t\t\tt256 amount)\n      PUSH 5\t\t\tu\n      SHR \t\t\take(uint256 amount) \n      DUP3 \t\t\tion \n      ADD \t\t\tunction stake(uint256 amount) ...\n      SWAP2 \t\t\t  }\\n\\n    function stake(uint...\n      POP \t\t\t  }\\n\\n    function stake(uint...\n    tag 1317\t\t\t   if (amount < STAKING_MIN_AM...\n      JUMPDEST \t\t\t   if (amount < STAKING_MIN_AM...\n      DUP2 \t\t\tAK\n      DUP2 \t\t\tnt < \n      LT \t\t\tmount < STAKI\n      ISZERO \t\t\t   if (amount < STAKING_MIN_AM...\n      PUSH [tag] 1319\t\t\t   if (amount < STAKING_MIN_AM...\n      JUMPI \t\t\t   if (amount < STAKING_MIN_AM...\n      DUP3 \t\t\t\\n        if (bala\n      DUP2 \t\t\t\\n        if (bala\n      SSTORE \t\t\t\\n        if (bala\n      PUSH 1\t\t\te\n      ADD \t\t\tT) revert Bel\n      PUSH [tag] 1317\t\t\t   if (amount < STAKING_MIN_AM...\n      JUMP \t\t\t   if (amount < STAKING_MIN_AM...\n    tag 1319\t\t\t   if (amount < STAKING_MIN_AM...\n      JUMPDEST \t\t\t   if (amount < STAKING_MIN_AM...\n      POP \t\t\tf (\n      POP \t\t\tf (\n      POP \t\t\tf (\n      POP \t\t\trns (uint256) {\\n        if (!...\n      POP \t\t\trns (uint256) {\\n        if (!...\n      POP \t\t\trns (uint256) {\\n        if (!...\n      JUMP \t\t\trns (uint256) {\\n        if (!...\n    tag 958\t\t\tkes[msg.sender] = Stake(amount...\n      JUMPDEST \t\t\tkes[msg.sender] = Stake(amount...\n      DUP2 \t\t\tnt,\n      MLOAD \t\t\t, amount, \n      PUSH FFFFFFFFFFFFFFFF\t\t\t\\n\\n    function use\n      DUP2 \t\t\t);\\n   \n      GT \t\t\tamp);\\n    }\\n\\n    function u...\n      ISZERO \t\t\testamp);\\n    }\\n\\n    functio...\n      PUSH [tag] 1323\t\t\testamp);\\n    }\\n\\n    functio...\n      JUMPI \t\t\testamp);\\n    }\\n\\n    functio...\n      PUSH [tag] 1323\t\t\tForStaking(uint256\n      PUSH [tag] 623\t\t\tForStaking(uint256\n      JUMP \t\t\tForStaking(uint256\n    tag 1323\t\t\tForStaking(uint256\n      JUMPDEST \t\t\tForStaking(uint256\n      PUSH [tag] 1324\t\t\t) external nonReentrant whenNo...\n      DUP2 \t\t\t    if\n      PUSH [tag] 1325\t\t\take storage s = stakes[msg.sen...\n      DUP5 \t\t\tr];\\n\n      SLOAD \t\t\t.sender];\\n \n      PUSH [tag] 426\t\t\take storage s = stakes[msg.sen...\n      JUMP \t\t\take storage s = stakes[msg.sen...\n    tag 1325\t\t\take storage s = stakes[msg.sen...\n      JUMPDEST \t\t\take storage s = stakes[msg.sen...\n      DUP5 \t\t\t    \n      PUSH [tag] 1189\t\t\t) external nonReentrant whenNo...\n      JUMP \t\t\t) external nonReentrant whenNo...\n    tag 1324\t\t\t) external nonReentrant whenNo...\n      JUMPDEST \t\t\t) external nonReentrant whenNo...\n      PUSH 20\t\t\tunt \n      DUP1 \t\t\tunt \n      PUSH 1F\t\t\tni\n      DUP4 \t\t\t > getRemainin\n      GT \t\t\t > getRemainin\n      PUSH 1\t\t\t.\n      DUP2 \t\t\tP(msg.sender)) revert ExceedsB...\n      EQ \t\t\tP(msg.sender)) revert ExceedsB...\n      PUSH [tag] 1327\t\t\tP(msg.sender)) revert ExceedsB...\n      JUMPI \t\t\tP(msg.sender)) revert ExceedsB...\n      PUSH 0\t\t\tG\n      DUP5 \t\t\t uint2\n      ISZERO \t\t\t    uint256 reward = (userStak...\n      PUSH [tag] 1328\t\t\t    uint256 reward = (userStak...\n      JUMPI \t\t\t    uint256 reward = (userStak...\n      POP \t\t\t\n      DUP6 \t\t\t_RATE * stakingPeri\n      DUP4 \t\t\t_RATE * stakingPeri\n      ADD \t\t\t_RATE * stakingPeri\n      MLOAD \t\t\tREWARD_RATE * stakingPerio\n    tag 1328\t\t\t    uint256 reward = (userStak...\n      JUMPDEST \t\t\t    uint256 reward = (userStak...\n      PUSH 0\t\t\t\n      NOT \t\t\t\n      PUSH 3\t\t\ts\n      DUP7 \t\t\tmsg.sender,\n      SWAP1 \t\t\tmsg.sender,\n      SHL \t\t\tmsg.sender,\n      SHR \t\t\trom(msg.sender, address(\n      NOT \t\t\tferFrom(msg.sender, address(t\n      AND \t\t\t     transferFrom(msg.sender, ...\n      PUSH 1\t\t\tm\n      DUP6 \t\t\t), amount);\n      SWAP1 \t\t\t), amount);\n      SHL \t\t\t), amount);\n      OR \t\t\t        transferFrom(msg.sende...\n      DUP6 \t\t\t if (userStake.bl2pBoost != 0)...\n      SSTORE \t\t\t if (userStake.bl2pBoost != 0)...\n      PUSH [tag] 1319\t\t\tpAmount > getRemainingValidBL2...\n      JUMP \t\t\tpAmount > getRemainingValidBL2...\n    tag 1327\t\t\tP(msg.sender)) revert ExceedsB...\n      JUMPDEST \t\t\tP(msg.sender)) revert ExceedsB...\n      PUSH 0\t\t\tc\n      DUP6 \t\t\t BurnCycleEnde\n      DUP2 \t\t\t BurnCycleEnde\n      MSTORE \t\t\t BurnCycleEnde\n      PUSH 20\t\t\tet =\n      DUP2 \t\t\t256 cycleTarget = \n      KECCAK256 \t\t\t256 cycleTarget = \n      PUSH 1F\t\t\t\n      NOT \t\t\t\n      DUP7 \t\t\tget();\\n        if (b\n      AND \t\t\tget();\\n        if (b\n      SWAP2 \t\t\tget();\\n        if (b\n    tag 1331\t\t\t\\n        (uint256 birthBlock,...\n      JUMPDEST \t\t\t\\n        (uint256 birthBlock,...\n      DUP3 \t\t\t256 bir\n      DUP2 \t\t\ti\n      LT \t\t\t (uint256 birt\n      ISZERO \t\t\t\\n        (uint256 birthBlock,...\n      PUSH [tag] 1333\t\t\t\\n        (uint256 birthBlock,...\n      JUMPI \t\t\t\\n        (uint256 birthBlock,...\n      DUP9 \t\t\t+ maturationPeriodB\n      DUP7 \t\t\t+ maturationPeriodB\n      ADD \t\t\t+ maturationPeriodB\n      MLOAD \t\t\tBlock + maturationPeriodBl\n      DUP3 \t\t\tmestamp < birthBlock + maturat...\n      SSTORE \t\t\tmestamp < birthBlock + maturat...\n      SWAP5 \t\t\t  emit BL2PStaked(msg.sende\n      DUP5 \t\t\t  emit BL2PStaked(msg.sende\n      ADD \t\t\t  emit BL2PStaked(msg.sende\n      SWAP5 \t\t\t  emit BL2PStaked(msg.sende\n      PUSH 1\t\t\t.\n      SWAP1 \t\t\t);\\n        s.b\n      SWAP2 \t\t\t);\\n        s.b\n      ADD \t\t\t);\\n        s.b\n      SWAP1 \t\t\t);\\n        s.b\n      DUP5 \t\t\t = getBL2PLifetime(\n      ADD \t\t\t = getBL2PLifetime(\n      PUSH [tag] 1331\t\t\t\\n        (uint256 birthBlock,...\n      JUMP \t\t\t\\n        (uint256 birthBlock,...\n    tag 1333\t\t\t\\n        (uint256 birthBlock,...\n      JUMPDEST \t\t\t\\n        (uint256 birthBlock,...\n      POP \t\t\t   \n      DUP6 \t\t\te() ex\n      DUP3 \t\t\ton unst\n      LT \t\t\tction unstake() ext\n      ISZERO \t\t\tfunction unstake() external no...\n      PUSH [tag] 1334\t\t\tfunction unstake() external no...\n      JUMPI \t\t\tfunction unstake() external no...\n      DUP8 \t\t\tke storage userStak\n      DUP6 \t\t\tke storage userStak\n      ADD \t\t\tke storage userStak\n      MLOAD \t\t\t   Stake storage userStake\n      PUSH 0\t\t\t\n      NOT \t\t\t\n      PUSH 3\t\t\tA\n      DUP9 \t\t\tt NoActiveStak\n      SWAP1 \t\t\tt NoActiveStak\n      SHL \t\t\tt NoActiveStak\n      PUSH F8\t\t\t);\\n\n      AND \t\t\tevert NoActiveStake();\\n \n      SHR \t\t\te) revert NoActiveStake();\\n  ...\n      NOT \t\t\tctive) revert NoActiveStake();...\n      AND \t\t\tf (!userStake.active) revert N...\n      DUP2 \t\t\tder];\\n        if (!userStake....\n      SSTORE \t\t\tder];\\n        if (!userStake....\n    tag 1334\t\t\tfunction unstake() external no...\n      JUMPDEST \t\t\tfunction unstake() external no...\n      POP \t\t\t\n      POP \t\t\t\n      POP \t\t\t\n      POP \t\t\t\n      POP \t\t\t\n      PUSH 1\t\t\t \n      SWAP1 \t\t\tstartBlock;\\n  \n      DUP2 \t\t\tstartBlock;\\n  \n      SHL \t\t\tstartBlock;\\n  \n      ADD \t\t\take.startBlock;\\n      \n      SWAP1 \t\t\ttamp - userStake.startBlock;\\n...\n      SSTORE \t\t\ttamp - userStake.startBlock;\\n...\n      POP \t\t\t\n      JUMP \t\t\tkes[msg.sender] = Stake(amount...\n    tag 963\t\t\t       }\\n        IERC20(addre...\n      JUMPDEST \t\t\t       }\\n        IERC20(addre...\n      PUSH 40\t\t\t\\n \n      DUP2 \t\t\ter) != 0)\n      MSTORE \t\t\tsg.sender) != 0) {\\n  \n      PUSH 0\t\t\temai\n      PUSH [tag] 1336\t\t\taddress(this)).safeTransfer(ms...\n      PUSH 40\t\t\tew\n      DUP4 \t\t\tg.sender,\n      ADD \t\t\tr(msg.sender, rewa\n      DUP6 \t\t\teTrans\n      PUSH [tag] 1183\t\t\taddress(this)).safeTransfer(ms...\n      JUMP \t\t\taddress(this)).safeTransfer(ms...\n    tag 1336\t\t\taddress(this)).safeTransfer(ms...\n      JUMPDEST \t\t\taddress(this)).safeTransfer(ms...\n      SWAP1 \t\t\t IERC20(address(this)).safeTra...\n      POP \t\t\t IERC20(address(this)).safeTra...\n      PUSH [tag] 566\t\t\t       emit StakingRewardClaim...\n      PUSH 20\t\t\t;\\n\n      DUP4 \t\t\ter, rewar\n      ADD \t\t\tsender, reward);\\n \n      DUP5 \t\t\tmed(ms\n      PUSH [tag] 1184\t\t\t       emit StakingRewardClaim...\n      JUMP \t\t\t       emit StakingRewardClaim...\n    tag 1101\t\t\t  p.proposalType = proposalTyp...\n      JUMPDEST \t\t\t  p.proposalType = proposalTyp...\n      PUSH 4E487B71\t\t\t.timestamp\n      PUSH E0\t\t\tblo\n      SHL \t\t\tk = block.timestamp;\n      PUSH 0\t\t\tl\n      MSTORE \t\t\t.startBlock = block.timestamp;...\n      PUSH 31\t\t\t= bl\n      PUSH 4\t\t\tc\n      MSTORE \t\t\t.endBlock = blo\n      PUSH 24\t\t\tNG_P\n      PUSH 0\t\t\tO\n      REVERT \t\t\tamp + VOTING_PE\n    .data\n"
}